{
  "contractName": "Commitment",
  "abi": [
    {
      "inputs": [
        {
          "components": [
            {
              "components": [
                {
                  "internalType": "uint256",
                  "name": "x",
                  "type": "uint256"
                },
                {
                  "internalType": "uint256",
                  "name": "y",
                  "type": "uint256"
                }
              ],
              "internalType": "struct Secp256r1.ECPoint",
              "name": "val",
              "type": "tuple"
            },
            {
              "internalType": "uint256",
              "name": "encR",
              "type": "uint256"
            },
            {
              "internalType": "uint256",
              "name": "salt",
              "type": "uint256"
            }
          ],
          "internalType": "struct Commitment.info",
          "name": "_name",
          "type": "tuple"
        },
        {
          "components": [
            {
              "components": [
                {
                  "internalType": "uint256",
                  "name": "x",
                  "type": "uint256"
                },
                {
                  "internalType": "uint256",
                  "name": "y",
                  "type": "uint256"
                }
              ],
              "internalType": "struct Secp256r1.ECPoint",
              "name": "val",
              "type": "tuple"
            },
            {
              "internalType": "uint256",
              "name": "encR",
              "type": "uint256"
            },
            {
              "internalType": "uint256",
              "name": "salt",
              "type": "uint256"
            }
          ],
          "internalType": "struct Commitment.info",
          "name": "_birthDate",
          "type": "tuple"
        },
        {
          "components": [
            {
              "components": [
                {
                  "internalType": "uint256",
                  "name": "x",
                  "type": "uint256"
                },
                {
                  "internalType": "uint256",
                  "name": "y",
                  "type": "uint256"
                }
              ],
              "internalType": "struct Secp256r1.ECPoint",
              "name": "val",
              "type": "tuple"
            },
            {
              "internalType": "uint256",
              "name": "encR",
              "type": "uint256"
            },
            {
              "internalType": "uint256",
              "name": "salt",
              "type": "uint256"
            }
          ],
          "internalType": "struct Commitment.info",
          "name": "_id",
          "type": "tuple"
        },
        {
          "internalType": "uint256",
          "name": "_R",
          "type": "uint256"
        },
        {
          "internalType": "uint256",
          "name": "_V",
          "type": "uint256"
        }
      ],
      "name": "verify",
      "outputs": [
        {
          "internalType": "bool",
          "name": "",
          "type": "bool"
        }
      ],
      "stateMutability": "pure",
      "type": "function"
    }
  ],
  "bytecode": "0x610b0a61003a600b82828239805160001a60731461002d57634e487b7160e01b600052600060045260246000fd5b30600052607381538281f3fe73000000000000000000000000000000000000000030146080604052600436106100355760003560e01c8063650944721461003a575b600080fd5b61004d6100483660046109f4565b610061565b604051901515815260200160405180910390f35b600061006b6109a4565b6100736109a4565b61007b6109a4565b6100b389356020808c0135908b35908c01356003600160601b0363ffffffff60c01b0319600160601b63ffffffff60c01b0319610254565b60208086018290528286526100f09291908a35908b01356003600160601b0363ffffffff60c01b0319600160601b63ffffffff60c01b0319610254565b60208501528352610163867f6b17d1f2e12c4247f8bce6e563a440f277037d812deb33a0f4a13945d898c2967f4fe342e2fe1a7f9b8ee7eb4a7c0f9e162bce33576b315ececbb6406837bf51f56003600160601b0363ffffffff60c01b0319600160601b63ffffffff60c01b03196102da565b602083015281526101d6857f236335b19efa0f1dcbad3dd7a568de868eb71b6507120ce565873ee9f3a0cbe57f05820ecfd7df9efccfe825cbb994c6d6b5a43d286ef8a8ed974eac5bfbc6e71d6003600160601b0363ffffffff60c01b0319600160601b63ffffffff60c01b03196102da565b6020808501829052828552835190840151610214939291906003600160601b0363ffffffff60c01b0319600160601b63ffffffff60c01b0319610254565b60208401528083528351148015610232575082602001518260200151145b15610243576001935050505061024b565b600093505050505b95945050505050565b6000806000806000888b14156102a257858061027257610272610a50565b888b0861028857600080945094505050506102cf565b6102968b8b60018a8a610314565b919450925090506102bb565b6102b38b8b60018c8c60018c6104b3565b919450925090505b6102c7838383896107eb565b945094505050505b965096945050505050565b60008060008060006102f18a8a8a60018b8b61085a565b925092509250610303838383896107eb565b945094505050509550959350505050565b600080808561032a5750869150859050846104a8565b6000848061033a5761033a610a50565b898a0990506000858061034f5761034f610a50565b898a0990506000868061036457610364610a50565b898a0990506000878061037957610379610a50565b888061038757610387610a50565b848e0960040990506000888061039f5761039f610a50565b89806103ad576103ad610a50565b8a806103bb576103bb610a50565b8586098c098a806103ce576103ce610a50565b8760030908905088806103e3576103e3610a50565b89806103f1576103f1610a50565b8384086103fe908b610a7c565b8a8061040c5761040c610a50565b838409089450888061042057610420610a50565b898061042e5761042e610a50565b8a8061043c5761043c610a50565b86870960080961044c908b610a7c565b8a8061045a5761045a610a50565b8b8061046857610468610a50565b610472898e610a7c565b86088409089350888061048757610487610a50565b898061049557610495610a50565b8c8e096002099497509295509293505050505b955095509592505050565b60008080891580156104c3575088155b156104d55750859150849050836107de565b861580156104e1575085155b156104f35750889150879050866107de565b6104fb6109be565b848061050957610509610a50565b898a098152848061051c5761051c610a50565b81518a096020820152848061053357610533610a50565b8687096040820152848061054957610549610a50565b604082015187096060820152604080516080810190915280868061056f5761056f610a50565b60408401518e098152602001868061058957610589610a50565b60608401518d09815260200186806105a3576105a3610a50565b83518b09815260200186806105ba576105ba610a50565b60208401518a099052604081015181519192501415806105e257506060810151602082015114155b6106335760405162461bcd60e51b815260206004820152601e60248201527f557365206a6163446f75626c652066756e6374696f6e20696e7374656164000060448201526064015b60405180910390fd5b61063b6109be565b858061064957610649610a50565b82516106559088610a7c565b6040840151088152858061066b5761066b610a50565b602083015161067a9088610a7c565b6060840151086020820152858061069357610693610a50565b81518009604082015285806106aa576106aa610a50565b81516040830151096060820152600086806106c7576106c7610a50565b60608301516106d69089610a7c565b88806106e4576106e4610a50565b6020850151800908905086806106fc576106fc610a50565b878061070a5761070a610a50565b888061071857610718610a50565b604085015186510960020961072d9089610a7c565b820890506000878061074157610741610a50565b888061074f5761074f610a50565b610759848b610a7c565b8a8061076757610767610a50565b6040870151885109086020850151099050878061078657610786610a50565b888061079457610794610a50565b60608501516020870151096107a9908a610a7c565b82089050600088806107bd576107bd610a50565b89806107cb576107cb610a50565b8b8f098551099297509095509093505050505b9750975097945050505050565b60008060006107fa85856108d8565b90506000848061080c5761080c610a50565b82830990506000858061082157610821610a50565b828a0990506000868061083657610836610a50565b878061084457610844610a50565b8486098a09919a91995090975050505050505050565b60008080886108705750869150859050846108cc565b8860008060015b83156108c357600184161561089d576108958383838f8f8f8e6104b3565b919450925090505b6108a8600285610a93565b93506108b78c8c8c8c8c610314565b919d509b509950610877565b91955093509150505b96509650969350505050565b600082158015906108e95750818314155b80156108f457508115155b6109315760405162461bcd60e51b815260206004820152600e60248201526d24b73b30b634b210373ab6b132b960911b604482015260640161062a565b6000600183825b8615610999576109488783610a93565b905082868061095957610959610a50565b878061096757610967610a50565b8584096109749089610a7c565b86089094509250866109868183610ab5565b6109909084610a7c565b97509150610938565b509195945050505050565b604051806040016040528060008152602001600081525090565b60405180608001604052806004906020820280368337509192915050565b6000608082840312156109ee57600080fd5b50919050565b60008060008060006101c08688031215610a0d57600080fd5b610a1787876109dc565b9450610a2687608088016109dc565b9350610a368761010088016109dc565b9497939650939461018081013594506101a0013592915050565b634e487b7160e01b600052601260045260246000fd5b634e487b7160e01b600052601160045260246000fd5b600082821015610a8e57610a8e610a66565b500390565b600082610ab057634e487b7160e01b600052601260045260246000fd5b500490565b6000816000190483118215151615610acf57610acf610a66565b50029056fea2646970667358221220aa21e5a2243bcb26110d1682d7f55ec6ec31ac0def50e5c6e075fcae1d6edc4564736f6c634300080a0033",
  "immutableReferences": {},
  "source": "// SPDX-License-Identifier: MIT\r\n\r\npragma solidity >=0.5.3 <0.9.0;\r\n\r\nimport \"./EllipticCurve.sol\";\r\nimport \"./Secp256r1.sol\";\r\n\r\nlibrary Commitment{\r\n    struct info{\r\n        Secp256r1.ECPoint val;\r\n        uint256 encR;\r\n        uint256 salt;\r\n    }\r\n\r\n    function verify(info calldata _name , info calldata _birthDate\r\n    , info calldata _id, uint256 _R, uint256 _V) pure external returns(bool){\r\n        Secp256r1.ECPoint memory C;\r\n        Secp256r1.ECPoint memory RHS;\r\n        Secp256r1.ECPoint memory tmp;\r\n        (C.x,C.y) = EllipticCurve.ecAdd(_name.val.x, _name.val.y, _birthDate.val.x, _birthDate.val.y, Secp256r1.AA, Secp256r1.PP);\r\n        (C.x,C.y) = EllipticCurve.ecAdd(C.x, C.y, _id.val.x, _id.val.y, Secp256r1.AA, Secp256r1.PP);\r\n        (tmp.x,tmp.y) = EllipticCurve.ecMul(_R,Secp256r1.GX, Secp256r1.GY, Secp256r1.AA, Secp256r1.PP);\r\n        (RHS.x,RHS.y) = EllipticCurve.ecMul(_V,Secp256r1.HX, Secp256r1.HY, Secp256r1.AA, Secp256r1.PP);\r\n        (RHS.x,RHS.y) = EllipticCurve.ecAdd(RHS.x, RHS.y, tmp.x, tmp.y, Secp256r1.AA, Secp256r1.PP);\r\n        \r\n        if(RHS.x == C.x && RHS.y==C.y){\r\n            return true;\r\n        }else{\r\n            return false;\r\n        }\r\n        \r\n    }\r\n}",
  "sourcePath": "C:\\Users\\tim\\Desktop\\e-voting\\src\\contracts\\Commitment.sol",
  "compiler": {
    "name": "solc",
    "version": "0.8.10+commit.fc410830.Emscripten.clang"
  },
  "schemaVersion": "3.4.4",
  "updatedAt": "2022-04-01T03:41:17.296Z",
  "devdoc": {
    "kind": "dev",
    "methods": {},
    "version": 1
  },
  "userdoc": {
    "kind": "user",
    "methods": {},
    "version": 1
  }
}