{
  "contractName": "CPProof",
  "abi": [
    {
      "inputs": [
        {
          "components": [
            {
              "internalType": "uint256",
              "name": "x",
              "type": "uint256"
            },
            {
              "internalType": "uint256",
              "name": "y",
              "type": "uint256"
            }
          ],
          "internalType": "struct Secp256r1.ECPoint",
          "name": "_G1",
          "type": "tuple"
        },
        {
          "components": [
            {
              "internalType": "uint256",
              "name": "x",
              "type": "uint256"
            },
            {
              "internalType": "uint256",
              "name": "y",
              "type": "uint256"
            }
          ],
          "internalType": "struct Secp256r1.ECPoint",
          "name": "_H1",
          "type": "tuple"
        },
        {
          "components": [
            {
              "internalType": "uint256",
              "name": "x",
              "type": "uint256"
            },
            {
              "internalType": "uint256",
              "name": "y",
              "type": "uint256"
            }
          ],
          "internalType": "struct Secp256r1.ECPoint",
          "name": "_G2",
          "type": "tuple"
        },
        {
          "components": [
            {
              "internalType": "uint256",
              "name": "x",
              "type": "uint256"
            },
            {
              "internalType": "uint256",
              "name": "y",
              "type": "uint256"
            }
          ],
          "internalType": "struct Secp256r1.ECPoint",
          "name": "_H2",
          "type": "tuple"
        },
        {
          "components": [
            {
              "internalType": "uint256",
              "name": "c",
              "type": "uint256"
            },
            {
              "internalType": "uint256",
              "name": "r",
              "type": "uint256"
            }
          ],
          "internalType": "struct CPProof.CPproof",
          "name": "_Proof",
          "type": "tuple"
        }
      ],
      "name": "CPverify",
      "outputs": [
        {
          "internalType": "bool",
          "name": "",
          "type": "bool"
        }
      ],
      "stateMutability": "pure",
      "type": "function",
      "constant": true
    }
  ],
  "bytecode": "0x610b3261003a600b82828239805160001a60731461002d57634e487b7160e01b600052600060045260246000fd5b30600052607381538281f3fe73000000000000000000000000000000000000000030146080604052600436106100355760003560e01c8063fc888f3d1461003a575b600080fd5b61004d610048366004610a0c565b610061565b604051901515815260200160405180910390f35b600061006b6109bc565b6100736109bc565b61007b6109bc565b6100836109bc565b61008b6109bc565b6100936109bc565b6100cb88602001358d600001358e602001356003600160601b0363ffffffff60c01b0319600160601b63ffffffff60c01b031961026c565b60208089019190915290875261010c9089810135908c35908d01356003600160601b0363ffffffff60c01b0319600160601b63ffffffff60c01b031961026c565b60208088019190915290865261014b908935908d35908e01356003600160601b0363ffffffff60c01b0319600160601b63ffffffff60c01b031961026c565b60208087019190915290855261018a908935908b35908c01356003600160601b0363ffffffff60c01b0319600160601b63ffffffff60c01b031961026c565b6020808601919091529084528651878201518651928701516101cd93906003600160601b0363ffffffff60c01b0319600160601b63ffffffff60c01b03196102a6565b60208085019190915290835285518682015185519286015161021093906003600160601b0363ffffffff60c01b0319600160601b63ffffffff60c01b03196102a6565b60208381018290528284528451858201516040805193840192909252908201526060810192909252608082015260a00160408051601f198184030181529190528051602090910120883514965050505050505095945050505050565b60008060008060006102838a8a8a60018b8b61032c565b925092509250610295838383896103aa565b945094505050509550959350505050565b6000806000806000888b14156102f45785806102c4576102c4610a78565b888b086102da5760008094509450505050610321565b6102e88b8b60018a8a610419565b9194509250905061030d565b6103058b8b60018c8c60018c6105b8565b919450925090505b610319838383896103aa565b945094505050505b965096945050505050565b600080808861034257508691508590508461039e565b8860008060015b831561039557600184161561036f576103678383838f8f8f8e6105b8565b919450925090505b61037a600285610aa4565b93506103898c8c8c8c8c610419565b919d509b509950610349565b91955093509150505b96509650969350505050565b60008060006103b985856108f0565b9050600084806103cb576103cb610a78565b8283099050600085806103e0576103e0610a78565b828a099050600086806103f5576103f5610a78565b878061040357610403610a78565b8486098a09919a91995090975050505050505050565b600080808561042f5750869150859050846105ad565b6000848061043f5761043f610a78565b898a0990506000858061045457610454610a78565b898a0990506000868061046957610469610a78565b898a0990506000878061047e5761047e610a78565b888061048c5761048c610a78565b848e096004099050600088806104a4576104a4610a78565b89806104b2576104b2610a78565b8a806104c0576104c0610a78565b8586098c098a806104d3576104d3610a78565b8760030908905088806104e8576104e8610a78565b89806104f6576104f6610a78565b838408610503908b610ac6565b8a8061051157610511610a78565b838409089450888061052557610525610a78565b898061053357610533610a78565b8a8061054157610541610a78565b868709600809610551908b610ac6565b8a8061055f5761055f610a78565b8b8061056d5761056d610a78565b610577898e610ac6565b86088409089350888061058c5761058c610a78565b898061059a5761059a610a78565b8c8e096002099497509295509293505050505b955095509592505050565b60008080891580156105c8575088155b156105da5750859150849050836108e3565b861580156105e6575085155b156105f85750889150879050866108e3565b6106006109d6565b848061060e5761060e610a78565b898a098152848061062157610621610a78565b81518a096020820152848061063857610638610a78565b8687096040820152848061064e5761064e610a78565b604082015187096060820152604080516080810190915280868061067457610674610a78565b60408401518e098152602001868061068e5761068e610a78565b60608401518d09815260200186806106a8576106a8610a78565b83518b09815260200186806106bf576106bf610a78565b60208401518a099052604081015181519192501415806106e757506060810151602082015114155b6107385760405162461bcd60e51b815260206004820152601e60248201527f557365206a6163446f75626c652066756e6374696f6e20696e7374656164000060448201526064015b60405180910390fd5b6107406109d6565b858061074e5761074e610a78565b825161075a9088610ac6565b6040840151088152858061077057610770610a78565b602083015161077f9088610ac6565b6060840151086020820152858061079857610798610a78565b81518009604082015285806107af576107af610a78565b81516040830151096060820152600086806107cc576107cc610a78565b60608301516107db9089610ac6565b88806107e9576107e9610a78565b60208501518009089050868061080157610801610a78565b878061080f5761080f610a78565b888061081d5761081d610a78565b60408501518651096002096108329089610ac6565b820890506000878061084657610846610a78565b888061085457610854610a78565b61085e848b610ac6565b8a8061086c5761086c610a78565b6040870151885109086020850151099050878061088b5761088b610a78565b888061089957610899610a78565b60608501516020870151096108ae908a610ac6565b82089050600088806108c2576108c2610a78565b89806108d0576108d0610a78565b8b8f098551099297509095509093505050505b9750975097945050505050565b600082158015906109015750818314155b801561090c57508115155b6109495760405162461bcd60e51b815260206004820152600e60248201526d24b73b30b634b210373ab6b132b960911b604482015260640161072f565b6000600183825b86156109b1576109608783610aa4565b905082868061097157610971610a78565b878061097f5761097f610a78565b85840961098c9089610ac6565b860890945092508661099e8183610add565b6109a89084610ac6565b97509150610950565b509195945050505050565b604051806040016040528060008152602001600081525090565b60405180608001604052806004906020820280368337509192915050565b600060408284031215610a0657600080fd5b50919050565b60008060008060006101408688031215610a2557600080fd5b610a2f87876109f4565b9450610a3e87604088016109f4565b9350610a4d87608088016109f4565b9250610a5c8760c088016109f4565b9150610a6c8761010088016109f4565b90509295509295909350565b634e487b7160e01b600052601260045260246000fd5b634e487b7160e01b600052601160045260246000fd5b600082610ac157634e487b7160e01b600052601260045260246000fd5b500490565b600082821015610ad857610ad8610a8e565b500390565b6000816000190483118215151615610af757610af7610a8e565b50029056fea2646970667358221220b5feb5beee46565368563e3bffd14ed3c23eafce8edf056c73e86ef82e38200c64736f6c634300080a0033",
  "immutableReferences": {},
  "source": "// SPDX-License-Identifier: MIT\r\n\r\npragma solidity >=0.5.3 <0.9.0;\r\n\r\nimport \"./Secp256r1.sol\";\r\nimport \"./EllipticCurve.sol\";\r\n\r\nlibrary CPProof{\r\n    struct CPproof{\r\n        uint256 c;\r\n        uint256 r;\r\n    }\r\n\r\n    function CPverify(Secp256r1.ECPoint calldata _G1,Secp256r1.ECPoint calldata _H1,\r\n    Secp256r1.ECPoint calldata _G2, Secp256r1.ECPoint calldata _H2, CPproof calldata _Proof\r\n    ) external pure returns (bool){\r\n        Secp256r1.ECPoint memory t1;\r\n        Secp256r1.ECPoint memory t2;\r\n        Secp256r1.ECPoint memory t3;\r\n        Secp256r1.ECPoint memory t4;\r\n        Secp256r1.ECPoint memory t5;\r\n        Secp256r1.ECPoint memory t6;\r\n\r\n        (t1.x,t1.y) = EllipticCurve.ecMul(_Proof.r,_G1.x,_G1.y,Secp256r1.AA,Secp256r1.PP);\r\n        (t2.x,t2.y) = EllipticCurve.ecMul(_Proof.r,_G2.x,_G2.y,Secp256r1.AA,Secp256r1.PP);\r\n        (t3.x,t3.y) = EllipticCurve.ecMul(_Proof.c,_H1.x,_H1.y,Secp256r1.AA,Secp256r1.PP);\r\n        (t4.x,t4.y) = EllipticCurve.ecMul(_Proof.c,_H2.x,_H2.y,Secp256r1.AA,Secp256r1.PP);\r\n        // G1 * r + H1 * c\r\n        (t5.x,t5.y) = EllipticCurve.ecAdd(t1.x,t1.y,t3.x,t3.y,Secp256r1.AA,Secp256r1.PP);\r\n        // G2 * r + H2 * c\r\n        (t6.x,t6.y) = EllipticCurve.ecAdd(t2.x,t2.y,t4.x,t4.y,Secp256r1.AA,Secp256r1.PP);\r\n\r\n\r\n        return _Proof.c == uint256(keccak256(abi.encodePacked(\r\n            t5.x,t5.y,t6.x,t6.y\r\n        )));\r\n    }\r\n}\r\n",
  "sourcePath": "C:\\Users\\tim\\Desktop\\e-voting\\src\\contracts\\CPProof.sol",
  "compiler": {
    "name": "solc",
    "version": "0.8.10+commit.fc410830.Emscripten.clang"
  },
  "schemaVersion": "3.4.4",
  "updatedAt": "2022-02-27T17:12:49.339Z",
  "networkType": "ethereum",
  "devdoc": {
    "kind": "dev",
    "methods": {},
    "version": 1
  },
  "userdoc": {
    "kind": "user",
    "methods": {},
    "version": 1
  }
}