{
  "contractName": "ECDSA",
  "abi": [
    {
      "inputs": [],
      "name": "AA",
      "outputs": [
        {
          "internalType": "uint256",
          "name": "",
          "type": "uint256"
        }
      ],
      "stateMutability": "view",
      "type": "function"
    },
    {
      "inputs": [],
      "name": "BB",
      "outputs": [
        {
          "internalType": "uint256",
          "name": "",
          "type": "uint256"
        }
      ],
      "stateMutability": "view",
      "type": "function"
    },
    {
      "inputs": [],
      "name": "GX",
      "outputs": [
        {
          "internalType": "uint256",
          "name": "",
          "type": "uint256"
        }
      ],
      "stateMutability": "view",
      "type": "function"
    },
    {
      "inputs": [],
      "name": "GY",
      "outputs": [
        {
          "internalType": "uint256",
          "name": "",
          "type": "uint256"
        }
      ],
      "stateMutability": "view",
      "type": "function"
    },
    {
      "inputs": [],
      "name": "HH",
      "outputs": [
        {
          "internalType": "uint256",
          "name": "",
          "type": "uint256"
        }
      ],
      "stateMutability": "view",
      "type": "function"
    },
    {
      "inputs": [],
      "name": "NN",
      "outputs": [
        {
          "internalType": "uint256",
          "name": "",
          "type": "uint256"
        }
      ],
      "stateMutability": "view",
      "type": "function"
    },
    {
      "inputs": [],
      "name": "PP",
      "outputs": [
        {
          "internalType": "uint256",
          "name": "",
          "type": "uint256"
        }
      ],
      "stateMutability": "view",
      "type": "function"
    },
    {
      "inputs": [
        {
          "components": [
            {
              "internalType": "uint256",
              "name": "r",
              "type": "uint256"
            },
            {
              "internalType": "uint256",
              "name": "s",
              "type": "uint256"
            }
          ],
          "internalType": "struct ECDSA.Sig",
          "name": "_sig",
          "type": "tuple"
        },
        {
          "internalType": "uint256",
          "name": "_h",
          "type": "uint256"
        },
        {
          "components": [
            {
              "internalType": "uint256",
              "name": "x",
              "type": "uint256"
            },
            {
              "internalType": "uint256",
              "name": "y",
              "type": "uint256"
            }
          ],
          "internalType": "struct ECDSA.ECPoint",
          "name": "_pubKey",
          "type": "tuple"
        }
      ],
      "name": "verify",
      "outputs": [
        {
          "internalType": "bool",
          "name": "",
          "type": "bool"
        }
      ],
      "stateMutability": "pure",
      "type": "function"
    }
  ],
  "bytecode": "0x610bcc61003a600b82828239805160001a60731461002d57634e487b7160e01b600052600060045260246000fd5b30600052607381538281f3fe73000000000000000000000000000000000000000030146080604052600436106100925760003560e01c8063997da8d411610065578063997da8d414610143578063b833f8911461015b578063decf56a41461017e578063eeeac01e1461018657600080fd5b806303a507be146100975780635727dc5c146100d15780637a308a4c146100f85780639870e2a41461011f575b600080fd5b6100be7f6b17d1f2e12c4247f8bce6e563a440f277037d812deb33a0f4a13945d898c29681565b6040519081526020015b60405180910390f35b6100be7f5ac635d8aa3a93e7b3ebbd55769886bc651d06b0cc53b0f63bce3c3e27d2604b81565b6100be7f4fe342e2fe1a7f9b8ee7eb4a7c0f9e162bce33576b315ececbb6406837bf51f581565b6100be7bffffffff00000000000000004319055258e8617b0c46353d039cdaae1981565b6100be6003600160601b0363ffffffff60c01b031981565b61016e610169366004610ad4565b61019b565b60405190151581526020016100c8565b6100be600181565b6100be600160601b63ffffffff60c01b031981565b60006101ba604051806040016040528060008152602001600081525090565b60408051808201909152600080825260208201526040805180820190915260008082526020820152600061020f88602001357bffffffff00000000000000004319055258e8617b0c46353d039cdaae1961034e565b905061029d7bffffffff00000000000000004319055258e8617b0c46353d039cdaae198289097f6b17d1f2e12c4247f8bce6e563a440f277037d812deb33a0f4a13945d898c2967f4fe342e2fe1a7f9b8ee7eb4a7c0f9e162bce33576b315ececbb6406837bf51f56003600160601b0363ffffffff60c01b0319600160601b63ffffffff60c01b031961041f565b602086015284526102f67bffffffff00000000000000004319055258e8617b0c46353d039cdaae19828a3509873560208901356003600160601b0363ffffffff60c01b0319600160601b63ffffffff60c01b031961041f565b60208086018290528286528651908701516103369391929091906003600160601b0363ffffffff60c01b0319600160601b63ffffffff60c01b0319610459565b60208401529182905250863514925050509392505050565b6000821580159061035f5750818314155b801561036a57508115155b6103ac5760405162461bcd60e51b815260206004820152600e60248201526d24b73b30b634b210373ab6b132b960911b60448201526064015b60405180910390fd5b6000600183825b8615610414576103c38783610b3e565b90508286806103d4576103d4610b12565b87806103e2576103e2610b12565b8584096103ef9089610b60565b86089094509250866104018183610b77565b61040b9084610b60565b975091506103b3565b509195945050505050565b60008060008060006104368a8a8a60018b8b6104df565b9250925092506104488383838961055d565b945094505050509550959350505050565b6000806000806000888b14156104a757858061047757610477610b12565b888b0861048d57600080945094505050506104d4565b61049b8b8b60018a8a6105cc565b919450925090506104c0565b6104b88b8b60018c8c60018c61076b565b919450925090505b6104cc8383838961055d565b945094505050505b965096945050505050565b60008080886104f5575086915085905084610551565b8860008060015b83156105485760018416156105225761051a8383838f8f8f8e61076b565b919450925090505b61052d600285610b3e565b935061053c8c8c8c8c8c6105cc565b919d509b5099506104fc565b91955093509150505b96509650969350505050565b600080600061056c858561034e565b90506000848061057e5761057e610b12565b82830990506000858061059357610593610b12565b828a099050600086806105a8576105a8610b12565b87806105b6576105b6610b12565b8486098a09919a91995090975050505050505050565b60008080856105e2575086915085905084610760565b600084806105f2576105f2610b12565b898a0990506000858061060757610607610b12565b898a0990506000868061061c5761061c610b12565b898a0990506000878061063157610631610b12565b888061063f5761063f610b12565b848e0960040990506000888061065757610657610b12565b898061066557610665610b12565b8a8061067357610673610b12565b8586098c098a8061068657610686610b12565b87600309089050888061069b5761069b610b12565b89806106a9576106a9610b12565b8384086106b6908b610b60565b8a806106c4576106c4610b12565b83840908945088806106d8576106d8610b12565b89806106e6576106e6610b12565b8a806106f4576106f4610b12565b868709600809610704908b610b60565b8a8061071257610712610b12565b8b8061072057610720610b12565b61072a898e610b60565b86088409089350888061073f5761073f610b12565b898061074d5761074d610b12565b8c8e096002099497509295509293505050505b955095509592505050565b600080808915801561077b575088155b1561078d575085915084905083610a91565b86158015610799575085155b156107ab575088915087905086610a91565b6107b3610a9e565b84806107c1576107c1610b12565b898a09815284806107d4576107d4610b12565b81518a09602082015284806107eb576107eb610b12565b8687096040820152848061080157610801610b12565b604082015187096060820152604080516080810190915280868061082757610827610b12565b60408401518e098152602001868061084157610841610b12565b60608401518d098152602001868061085b5761085b610b12565b83518b098152602001868061087257610872610b12565b60208401518a0990526040810151815191925014158061089a57506060810151602082015114155b6108e65760405162461bcd60e51b815260206004820152601e60248201527f557365206a6163446f75626c652066756e6374696f6e20696e7374656164000060448201526064016103a3565b6108ee610a9e565b85806108fc576108fc610b12565b82516109089088610b60565b6040840151088152858061091e5761091e610b12565b602083015161092d9088610b60565b6060840151086020820152858061094657610946610b12565b815180096040820152858061095d5761095d610b12565b815160408301510960608201526000868061097a5761097a610b12565b60608301516109899089610b60565b888061099757610997610b12565b6020850151800908905086806109af576109af610b12565b87806109bd576109bd610b12565b88806109cb576109cb610b12565b60408501518651096002096109e09089610b60565b82089050600087806109f4576109f4610b12565b8880610a0257610a02610b12565b610a0c848b610b60565b8a80610a1a57610a1a610b12565b60408701518851090860208501510990508780610a3957610a39610b12565b8880610a4757610a47610b12565b6060850151602087015109610a5c908a610b60565b8208905060008880610a7057610a70610b12565b8980610a7e57610a7e610b12565b8b8f098551099297509095509093505050505b9750975097945050505050565b60405180608001604052806004906020820280368337509192915050565b600060408284031215610ace57600080fd5b50919050565b600080600060a08486031215610ae957600080fd5b610af38585610abc565b925060408401359150610b098560608601610abc565b90509250925092565b634e487b7160e01b600052601260045260246000fd5b634e487b7160e01b600052601160045260246000fd5b600082610b5b57634e487b7160e01b600052601260045260246000fd5b500490565b600082821015610b7257610b72610b28565b500390565b6000816000190483118215151615610b9157610b91610b28565b50029056fea264697066735822122021e437d2686de1adab62bd417d7ed8eeb0c05f4d11b169306d5abdfb55a36f7864736f6c634300080a0033",
  "immutableReferences": {},
  "source": "// SPDX-License-Identifier: MIT\r\n\r\npragma solidity >=0.5.3 <0.9.0;\r\n\r\nimport \"./EllipticCurve.sol\";\r\n\r\nlibrary ECDSA{\r\n    // Elliptic Curve Point\r\n    struct ECPoint{\r\n        uint256 x;\r\n        uint256 y;\r\n    }\r\n\r\n    // secp256r1 parameters\r\n    // https://neuromancer.sk/std/secg/secp256r1#\r\n    uint256 public constant GX = 0x6b17d1f2e12c4247f8bce6e563a440f277037d812deb33a0f4a13945d898c296;\r\n    uint256 public constant GY = 0x4fe342e2fe1a7f9b8ee7eb4a7c0f9e162bce33576b315ececbb6406837bf51f5;\r\n    uint256 public constant AA = 0xffffffff00000001000000000000000000000000fffffffffffffffffffffffc;\r\n    uint256 public constant BB = 0x5ac635d8aa3a93e7b3ebbd55769886bc651d06b0cc53b0f63bce3c3e27d2604b;\r\n    uint256 public constant PP = 0xffffffff00000001000000000000000000000000ffffffffffffffffffffffff;\r\n    uint256 public constant NN = 0xffffffff00000000ffffffffffffffffbce6faada7179e84f3b9cac2fc632551;\r\n    uint256 public constant HH = 0x1;\r\n\r\n    struct Sig{\r\n        uint256 r;\r\n        uint256 s;\r\n    }\r\n\r\n    function verify(Sig calldata _sig, uint256 _h, ECPoint calldata _pubKey)\r\n    external pure returns(bool){\r\n        ECPoint memory tmp1;\r\n        ECPoint memory tmp2;\r\n        ECPoint memory R;\r\n        \r\n        // inverse of s \r\n        uint256 s_inv = EllipticCurve.invMod(_sig.s , NN);\r\n        // tmp1 = ( (h * s_inv) mod n ) * G\r\n        (tmp1.x, tmp1.y) = EllipticCurve.ecMul(mulmod(_h,s_inv,NN), GX, GY, AA, PP);\r\n        // tmp2 = ( (r * s_inv) mod n ) * PubKey\r\n        (tmp2.x, tmp2.y) = EllipticCurve.ecMul(mulmod(_sig.r,s_inv,NN), _pubKey.x, _pubKey.y, AA, PP);\r\n        // R' = tmp1 + tmp2 \r\n        (R.x, R.y) = EllipticCurve.ecAdd(tmp1.x, tmp1.y, tmp2.x, tmp2.y, AA, PP);\r\n        \r\n        return R.x == _sig.r;\r\n    }\r\n}",
  "sourcePath": "C:\\Users\\tim\\Desktop\\e-voting\\src\\contracts\\ECDSA.sol",
  "compiler": {
    "name": "solc",
    "version": "0.8.10+commit.fc410830.Emscripten.clang"
  },
  "schemaVersion": "3.4.4",
  "updatedAt": "2022-01-19T08:18:17.173Z",
  "devdoc": {
    "kind": "dev",
    "methods": {},
    "version": 1
  },
  "userdoc": {
    "kind": "user",
    "methods": {},
    "version": 1
  }
}