{
  "contractName": "ECDSA",
  "abi": [
    {
      "inputs": [
        {
          "components": [
            {
              "internalType": "uint256",
              "name": "r",
              "type": "uint256"
            },
            {
              "internalType": "uint256",
              "name": "s",
              "type": "uint256"
            },
            {
              "internalType": "uint256",
              "name": "h",
              "type": "uint256"
            },
            {
              "internalType": "uint256",
              "name": "Px",
              "type": "uint256"
            },
            {
              "internalType": "uint256",
              "name": "Py",
              "type": "uint256"
            }
          ],
          "internalType": "struct ECDSA.ECDSA_parameters",
          "name": "_ecdsa",
          "type": "tuple"
        }
      ],
      "name": "ecdsa_verify",
      "outputs": [
        {
          "internalType": "bool",
          "name": "",
          "type": "bool"
        }
      ],
      "stateMutability": "pure",
      "type": "function",
      "constant": true
    }
  ],
  "bytecode": "0x610a3861003a600b82828239805160001a60731461002d57634e487b7160e01b600052600060045260246000fd5b30600052607381538281f3fe73000000000000000000000000000000000000000030146080604052600436106100355760003560e01c8063f43c6a6d1461003a575b600080fd5b61004d610048366004610946565b610061565b604051901515815260200160405180910390f35b60008061006c61090e565b61007461090e565b61007c61090e565b61009886602001356000805160206109e38339815191526101be565b935061011b6000805160206109e3833981519152876040013586097f6b17d1f2e12c4247f8bce6e563a440f277037d812deb33a0f4a13945d898c2967f4fe342e2fe1a7f9b8ee7eb4a7c0f9e162bce33576b315ececbb6406837bf51f56003600160601b0363ffffffff60c01b0319600160601b63ffffffff60c01b031961028f565b602085015283526101686000805160206109e383398151915287358609876060013588608001356003600160601b0363ffffffff60c01b0319600160601b63ffffffff60c01b031961028f565b60208085018290528285528551908601516101a89391929091906003600160601b0363ffffffff60c01b0319600160601b63ffffffff60c01b03196102c9565b6020830152908190529435909414949350505050565b600082158015906101cf5750818314155b80156101da57508115155b61021c5760405162461bcd60e51b815260206004820152600e60248201526d24b73b30b634b210373ab6b132b960911b60448201526064015b60405180910390fd5b6000600183825b861561028457610233878361098a565b90508286806102445761024461095e565b87806102525761025261095e565b85840961025f90896109ac565b860890945092508661027181836109c3565b61027b90846109ac565b97509150610223565b509195945050505050565b60008060008060006102a68a8a8a60018b8b61034f565b9250925092506102b8838383896103cd565b945094505050509550959350505050565b6000806000806000888b14156103175785806102e7576102e761095e565b888b086102fd5760008094509450505050610344565b61030b8b8b60018a8a61043c565b91945092509050610330565b6103288b8b60018c8c60018c6105db565b919450925090505b61033c838383896103cd565b945094505050505b965096945050505050565b60008080886103655750869150859050846103c1565b8860008060015b83156103b85760018416156103925761038a8383838f8f8f8e6105db565b919450925090505b61039d60028561098a565b93506103ac8c8c8c8c8c61043c565b919d509b50995061036c565b91955093509150505b96509650969350505050565b60008060006103dc85856101be565b9050600084806103ee576103ee61095e565b8283099050600085806104035761040361095e565b828a099050600086806104185761041861095e565b87806104265761042661095e565b8486098a09919a91995090975050505050505050565b60008080856104525750869150859050846105d0565b600084806104625761046261095e565b898a099050600085806104775761047761095e565b898a0990506000868061048c5761048c61095e565b898a099050600087806104a1576104a161095e565b88806104af576104af61095e565b848e096004099050600088806104c7576104c761095e565b89806104d5576104d561095e565b8a806104e3576104e361095e565b8586098c098a806104f6576104f661095e565b87600309089050888061050b5761050b61095e565b89806105195761051961095e565b838408610526908b6109ac565b8a806105345761053461095e565b83840908945088806105485761054861095e565b89806105565761055661095e565b8a806105645761056461095e565b868709600809610574908b6109ac565b8a806105825761058261095e565b8b806105905761059061095e565b61059a898e6109ac565b8608840908935088806105af576105af61095e565b89806105bd576105bd61095e565b8c8e096002099497509295509293505050505b955095509592505050565b60008080891580156105eb575088155b156105fd575085915084905083610901565b86158015610609575085155b1561061b575088915087905086610901565b610623610928565b84806106315761063161095e565b898a09815284806106445761064461095e565b81518a096020820152848061065b5761065b61095e565b868709604082015284806106715761067161095e565b60408201518709606082015260408051608081019091528086806106975761069761095e565b60408401518e09815260200186806106b1576106b161095e565b60608401518d09815260200186806106cb576106cb61095e565b83518b09815260200186806106e2576106e261095e565b60208401518a0990526040810151815191925014158061070a57506060810151602082015114155b6107565760405162461bcd60e51b815260206004820152601e60248201527f557365206a6163446f75626c652066756e6374696f6e20696e737465616400006044820152606401610213565b61075e610928565b858061076c5761076c61095e565b825161077890886109ac565b6040840151088152858061078e5761078e61095e565b602083015161079d90886109ac565b606084015108602082015285806107b6576107b661095e565b81518009604082015285806107cd576107cd61095e565b81516040830151096060820152600086806107ea576107ea61095e565b60608301516107f990896109ac565b88806108075761080761095e565b60208501518009089050868061081f5761081f61095e565b878061082d5761082d61095e565b888061083b5761083b61095e565b604085015186510960020961085090896109ac565b82089050600087806108645761086461095e565b88806108725761087261095e565b61087c848b6109ac565b8a8061088a5761088a61095e565b604087015188510908602085015109905087806108a9576108a961095e565b88806108b7576108b761095e565b60608501516020870151096108cc908a6109ac565b82089050600088806108e0576108e061095e565b89806108ee576108ee61095e565b8b8f098551099297509095509093505050505b9750975097945050505050565b604051806040016040528060008152602001600081525090565b60405180608001604052806004906020820280368337509192915050565b600060a0828403121561095857600080fd5b50919050565b634e487b7160e01b600052601260045260246000fd5b634e487b7160e01b600052601160045260246000fd5b6000826109a757634e487b7160e01b600052601260045260246000fd5b500490565b6000828210156109be576109be610974565b500390565b60008160001904831182151516156109dd576109dd610974565b50029056feffffffff00000000ffffffffffffffffbce6faada7179e84f3b9cac2fc632551a26469706673582212209e6ce468c2d09f4b848314463b61fc3f9b625bacd7df9eebcde587ab3eafbe5964736f6c634300080a0033",
  "immutableReferences": {},
  "source": "// SPDX-License-Identifier: MIT\r\n\r\npragma solidity >=0.5.3 <0.9.0;\r\n\r\nimport \"./EllipticCurve.sol\";\r\nimport \"./Secp256r1.sol\";\r\n\r\nlibrary ECDSA{\r\n    // Parameters needed for verifying EC signature\r\n    // Px = PubKey.x\r\n    // Py = PubKey.y\r\n    struct ECDSA_parameters{\r\n        uint256 r;\r\n        uint256 s;\r\n        uint256 h;\r\n        uint256 Px; \r\n        uint256 Py; \r\n    }\r\n\r\n    struct ECDSA_Sig{\r\n        uint256 r;\r\n        uint256 s;\r\n    }\r\n\r\n    function ecdsa_verify(ECDSA_parameters calldata _ecdsa)\r\n    external pure returns(bool){\r\n        uint256 s_inv;\r\n        Secp256r1.ECPoint memory t1;\r\n        Secp256r1.ECPoint memory t2;\r\n        Secp256r1.ECPoint memory R;\r\n        \r\n        // inverse of s \r\n        s_inv = EllipticCurve.invMod(_ecdsa.s , Secp256r1.NN);\r\n        // tmp1 = ( (h * s_inv) mod n ) * G\r\n        (t1.x, t1.y) = EllipticCurve.ecMul(mulmod(s_inv,_ecdsa.h,Secp256r1.NN), Secp256r1.GX, Secp256r1.GY, Secp256r1.AA, Secp256r1.PP);\r\n        // tmp2 = ( (r * s_inv) mod n ) * PubKey\r\n        (t2.x, t2.y) = EllipticCurve.ecMul(mulmod(s_inv,_ecdsa.r,Secp256r1.NN), _ecdsa.Px, _ecdsa.Py, Secp256r1.AA, Secp256r1.PP);\r\n        // R' = tmp1 + tmp2 \r\n        (R.x, R.y) = EllipticCurve.ecAdd(t1.x, t1.y, t2.x, t2.y, Secp256r1.AA, Secp256r1.PP);\r\n        \r\n        return R.x == _ecdsa.r;\r\n    }\r\n}",
  "sourcePath": "C:\\Users\\tim\\Desktop\\e-voting\\src\\contracts\\ECDSA.sol",
  "compiler": {
    "name": "solc",
    "version": "0.8.10+commit.fc410830.Emscripten.clang"
  },
  "schemaVersion": "3.4.4",
  "updatedAt": "2022-02-27T13:45:13.760Z",
  "networkType": "ethereum",
  "devdoc": {
    "kind": "dev",
    "methods": {},
    "version": 1
  },
  "userdoc": {
    "kind": "user",
    "methods": {},
    "version": 1
  }
}