{
  "contractName": "Election",
  "abi": [
    {
      "inputs": [
        {
          "internalType": "address",
          "name": "_onwer",
          "type": "address"
        },
        {
          "internalType": "uint256",
          "name": "_id",
          "type": "uint256"
        },
        {
          "internalType": "uint256",
          "name": "_post_time",
          "type": "uint256"
        },
        {
          "internalType": "uint256",
          "name": "_key_gen_end_time",
          "type": "uint256"
        },
        {
          "internalType": "uint256",
          "name": "_vote_end_time",
          "type": "uint256"
        },
        {
          "internalType": "uint256",
          "name": "_secret_upload_end_time",
          "type": "uint256"
        }
      ],
      "stateMutability": "nonpayable",
      "type": "constructor"
    },
    {
      "anonymous": false,
      "inputs": [
        {
          "indexed": false,
          "internalType": "uint256",
          "name": "totatKeygenValueSentCount",
          "type": "uint256"
        }
      ],
      "name": "addKeygenValueEvent",
      "type": "event"
    },
    {
      "anonymous": false,
      "inputs": [
        {
          "indexed": false,
          "internalType": "uint256",
          "name": "totalSubSecretSentCount",
          "type": "uint256"
        }
      ],
      "name": "addSubSecretEvent",
      "type": "event"
    },
    {
      "anonymous": false,
      "inputs": [
        {
          "indexed": false,
          "internalType": "uint256",
          "name": "totalVoteCount",
          "type": "uint256"
        }
      ],
      "name": "newVoteEvent",
      "type": "event"
    },
    {
      "anonymous": false,
      "inputs": [
        {
          "components": [
            {
              "internalType": "uint256",
              "name": "id",
              "type": "uint256"
            },
            {
              "internalType": "string",
              "name": "name",
              "type": "string"
            },
            {
              "internalType": "uint256",
              "name": "voteCount",
              "type": "uint256"
            }
          ],
          "indexed": false,
          "internalType": "struct Election.Candidate[]",
          "name": "candidates",
          "type": "tuple[]"
        },
        {
          "components": [
            {
              "internalType": "uint256",
              "name": "id",
              "type": "uint256"
            },
            {
              "internalType": "uint256",
              "name": "voteTime",
              "type": "uint256"
            },
            {
              "internalType": "int256",
              "name": "candidate_id",
              "type": "int256"
            },
            {
              "internalType": "uint256",
              "name": "encVoteHash",
              "type": "uint256"
            },
            {
              "internalType": "uint256",
              "name": "U0",
              "type": "uint256"
            },
            {
              "internalType": "uint256[]",
              "name": "V",
              "type": "uint256[]"
            },
            {
              "components": [
                {
                  "internalType": "uint256",
                  "name": "x",
                  "type": "uint256"
                },
                {
                  "internalType": "uint256",
                  "name": "y",
                  "type": "uint256"
                }
              ],
              "internalType": "struct Utils.ECPoint",
              "name": "K",
              "type": "tuple"
            },
            {
              "components": [
                {
                  "components": [
                    {
                      "internalType": "uint256",
                      "name": "x",
                      "type": "uint256"
                    },
                    {
                      "internalType": "uint256",
                      "name": "y",
                      "type": "uint256"
                    }
                  ],
                  "internalType": "struct Utils.ECPoint",
                  "name": "C",
                  "type": "tuple"
                },
                {
                  "components": [
                    {
                      "internalType": "uint256",
                      "name": "x",
                      "type": "uint256"
                    },
                    {
                      "internalType": "uint256",
                      "name": "y",
                      "type": "uint256"
                    }
                  ],
                  "internalType": "struct Utils.ECPoint",
                  "name": "D",
                  "type": "tuple"
                }
              ],
              "internalType": "struct Utils.Elgamal_ciphertext",
              "name": "encVote",
              "type": "tuple"
            }
          ],
          "indexed": false,
          "internalType": "struct Election.Ballot[]",
          "name": "ballots",
          "type": "tuple[]"
        }
      ],
      "name": "tallyVoteEvent",
      "type": "event"
    },
    {
      "inputs": [
        {
          "internalType": "uint256",
          "name": "",
          "type": "uint256"
        }
      ],
      "name": "EC_public_keys",
      "outputs": [
        {
          "internalType": "uint256",
          "name": "x",
          "type": "uint256"
        },
        {
          "internalType": "uint256",
          "name": "y",
          "type": "uint256"
        }
      ],
      "stateMutability": "view",
      "type": "function"
    },
    {
      "inputs": [],
      "name": "H",
      "outputs": [
        {
          "internalType": "uint256",
          "name": "x",
          "type": "uint256"
        },
        {
          "internalType": "uint256",
          "name": "y",
          "type": "uint256"
        }
      ],
      "stateMutability": "view",
      "type": "function"
    },
    {
      "inputs": [],
      "name": "L",
      "outputs": [
        {
          "internalType": "uint256",
          "name": "",
          "type": "uint256"
        }
      ],
      "stateMutability": "view",
      "type": "function"
    },
    {
      "inputs": [],
      "name": "candidateCount",
      "outputs": [
        {
          "internalType": "uint256",
          "name": "",
          "type": "uint256"
        }
      ],
      "stateMutability": "view",
      "type": "function"
    },
    {
      "inputs": [
        {
          "internalType": "uint256",
          "name": "",
          "type": "uint256"
        }
      ],
      "name": "candidates",
      "outputs": [
        {
          "internalType": "uint256",
          "name": "id",
          "type": "uint256"
        },
        {
          "internalType": "string",
          "name": "name",
          "type": "string"
        },
        {
          "internalType": "uint256",
          "name": "voteCount",
          "type": "uint256"
        }
      ],
      "stateMutability": "view",
      "type": "function"
    },
    {
      "inputs": [],
      "name": "description",
      "outputs": [
        {
          "internalType": "string",
          "name": "",
          "type": "string"
        }
      ],
      "stateMutability": "view",
      "type": "function"
    },
    {
      "inputs": [],
      "name": "id",
      "outputs": [
        {
          "internalType": "uint256",
          "name": "",
          "type": "uint256"
        }
      ],
      "stateMutability": "view",
      "type": "function"
    },
    {
      "inputs": [],
      "name": "isCandidateCountSet",
      "outputs": [
        {
          "internalType": "bool",
          "name": "",
          "type": "bool"
        }
      ],
      "stateMutability": "view",
      "type": "function"
    },
    {
      "inputs": [],
      "name": "isCandidatesSet",
      "outputs": [
        {
          "internalType": "bool",
          "name": "",
          "type": "bool"
        }
      ],
      "stateMutability": "view",
      "type": "function"
    },
    {
      "inputs": [],
      "name": "isDescriptionSet",
      "outputs": [
        {
          "internalType": "bool",
          "name": "",
          "type": "bool"
        }
      ],
      "stateMutability": "view",
      "type": "function"
    },
    {
      "inputs": [],
      "name": "isECPublic_keysSet",
      "outputs": [
        {
          "internalType": "bool",
          "name": "",
          "type": "bool"
        }
      ],
      "stateMutability": "view",
      "type": "function"
    },
    {
      "inputs": [],
      "name": "isMinSharesSet",
      "outputs": [
        {
          "internalType": "bool",
          "name": "",
          "type": "bool"
        }
      ],
      "stateMutability": "view",
      "type": "function"
    },
    {
      "inputs": [],
      "name": "isPublic_keysSet",
      "outputs": [
        {
          "internalType": "bool",
          "name": "",
          "type": "bool"
        }
      ],
      "stateMutability": "view",
      "type": "function"
    },
    {
      "inputs": [],
      "name": "isTallied",
      "outputs": [
        {
          "internalType": "bool",
          "name": "",
          "type": "bool"
        }
      ],
      "stateMutability": "view",
      "type": "function"
    },
    {
      "inputs": [],
      "name": "isTitleSet",
      "outputs": [
        {
          "internalType": "bool",
          "name": "",
          "type": "bool"
        }
      ],
      "stateMutability": "view",
      "type": "function"
    },
    {
      "inputs": [],
      "name": "isVoteTallied",
      "outputs": [
        {
          "internalType": "bool",
          "name": "",
          "type": "bool"
        }
      ],
      "stateMutability": "view",
      "type": "function"
    },
    {
      "inputs": [],
      "name": "isVoterCount",
      "outputs": [
        {
          "internalType": "bool",
          "name": "",
          "type": "bool"
        }
      ],
      "stateMutability": "view",
      "type": "function"
    },
    {
      "inputs": [],
      "name": "key_gen_end_time",
      "outputs": [
        {
          "internalType": "uint256",
          "name": "",
          "type": "uint256"
        }
      ],
      "stateMutability": "view",
      "type": "function"
    },
    {
      "inputs": [],
      "name": "min_shares",
      "outputs": [
        {
          "internalType": "uint256",
          "name": "",
          "type": "uint256"
        }
      ],
      "stateMutability": "view",
      "type": "function"
    },
    {
      "inputs": [],
      "name": "owner",
      "outputs": [
        {
          "internalType": "address",
          "name": "",
          "type": "address"
        }
      ],
      "stateMutability": "view",
      "type": "function"
    },
    {
      "inputs": [],
      "name": "post_time",
      "outputs": [
        {
          "internalType": "uint256",
          "name": "",
          "type": "uint256"
        }
      ],
      "stateMutability": "view",
      "type": "function"
    },
    {
      "inputs": [
        {
          "internalType": "uint256",
          "name": "",
          "type": "uint256"
        }
      ],
      "name": "public_keys",
      "outputs": [
        {
          "internalType": "string",
          "name": "",
          "type": "string"
        }
      ],
      "stateMutability": "view",
      "type": "function"
    },
    {
      "inputs": [],
      "name": "secret_upload_end_time",
      "outputs": [
        {
          "internalType": "uint256",
          "name": "",
          "type": "uint256"
        }
      ],
      "stateMutability": "view",
      "type": "function"
    },
    {
      "inputs": [],
      "name": "title",
      "outputs": [
        {
          "internalType": "string",
          "name": "",
          "type": "string"
        }
      ],
      "stateMutability": "view",
      "type": "function"
    },
    {
      "inputs": [],
      "name": "totalSubSecretSentCount",
      "outputs": [
        {
          "internalType": "uint256",
          "name": "",
          "type": "uint256"
        }
      ],
      "stateMutability": "view",
      "type": "function"
    },
    {
      "inputs": [],
      "name": "totalVoteCount",
      "outputs": [
        {
          "internalType": "uint256",
          "name": "",
          "type": "uint256"
        }
      ],
      "stateMutability": "view",
      "type": "function"
    },
    {
      "inputs": [],
      "name": "totatKeygenValueSentCount",
      "outputs": [
        {
          "internalType": "uint256",
          "name": "",
          "type": "uint256"
        }
      ],
      "stateMutability": "view",
      "type": "function"
    },
    {
      "inputs": [],
      "name": "vote_end_time",
      "outputs": [
        {
          "internalType": "uint256",
          "name": "",
          "type": "uint256"
        }
      ],
      "stateMutability": "view",
      "type": "function"
    },
    {
      "inputs": [],
      "name": "voterCount",
      "outputs": [
        {
          "internalType": "uint256",
          "name": "",
          "type": "uint256"
        }
      ],
      "stateMutability": "view",
      "type": "function"
    },
    {
      "inputs": [
        {
          "internalType": "string",
          "name": "_title",
          "type": "string"
        }
      ],
      "name": "setTitle",
      "outputs": [],
      "stateMutability": "nonpayable",
      "type": "function"
    },
    {
      "inputs": [
        {
          "internalType": "string",
          "name": "_description",
          "type": "string"
        }
      ],
      "name": "setDescription",
      "outputs": [],
      "stateMutability": "nonpayable",
      "type": "function"
    },
    {
      "inputs": [
        {
          "internalType": "string[]",
          "name": "_public_keys",
          "type": "string[]"
        }
      ],
      "name": "setPublicKeys",
      "outputs": [],
      "stateMutability": "nonpayable",
      "type": "function"
    },
    {
      "inputs": [
        {
          "components": [
            {
              "internalType": "uint256",
              "name": "x",
              "type": "uint256"
            },
            {
              "internalType": "uint256",
              "name": "y",
              "type": "uint256"
            }
          ],
          "internalType": "struct Utils.ECPoint[]",
          "name": "_EC_public_keys",
          "type": "tuple[]"
        }
      ],
      "name": "setECpublickeys",
      "outputs": [],
      "stateMutability": "nonpayable",
      "type": "function"
    },
    {
      "inputs": [
        {
          "internalType": "string[]",
          "name": "_candidates",
          "type": "string[]"
        }
      ],
      "name": "setCandidates",
      "outputs": [],
      "stateMutability": "nonpayable",
      "type": "function"
    },
    {
      "inputs": [
        {
          "internalType": "uint256",
          "name": "_min_shares",
          "type": "uint256"
        }
      ],
      "name": "setMinShares",
      "outputs": [],
      "stateMutability": "nonpayable",
      "type": "function"
    },
    {
      "inputs": [],
      "name": "getVotePublicKey",
      "outputs": [
        {
          "components": [
            {
              "internalType": "uint256",
              "name": "x",
              "type": "uint256"
            },
            {
              "internalType": "uint256",
              "name": "y",
              "type": "uint256"
            }
          ],
          "internalType": "struct Utils.ECPoint",
          "name": "",
          "type": "tuple"
        }
      ],
      "stateMutability": "view",
      "type": "function"
    },
    {
      "inputs": [],
      "name": "getBallot",
      "outputs": [
        {
          "components": [
            {
              "internalType": "uint256",
              "name": "id",
              "type": "uint256"
            },
            {
              "internalType": "uint256",
              "name": "voteTime",
              "type": "uint256"
            },
            {
              "internalType": "int256",
              "name": "candidate_id",
              "type": "int256"
            },
            {
              "internalType": "uint256",
              "name": "encVoteHash",
              "type": "uint256"
            },
            {
              "internalType": "uint256",
              "name": "U0",
              "type": "uint256"
            },
            {
              "internalType": "uint256[]",
              "name": "V",
              "type": "uint256[]"
            },
            {
              "components": [
                {
                  "internalType": "uint256",
                  "name": "x",
                  "type": "uint256"
                },
                {
                  "internalType": "uint256",
                  "name": "y",
                  "type": "uint256"
                }
              ],
              "internalType": "struct Utils.ECPoint",
              "name": "K",
              "type": "tuple"
            },
            {
              "components": [
                {
                  "components": [
                    {
                      "internalType": "uint256",
                      "name": "x",
                      "type": "uint256"
                    },
                    {
                      "internalType": "uint256",
                      "name": "y",
                      "type": "uint256"
                    }
                  ],
                  "internalType": "struct Utils.ECPoint",
                  "name": "C",
                  "type": "tuple"
                },
                {
                  "components": [
                    {
                      "internalType": "uint256",
                      "name": "x",
                      "type": "uint256"
                    },
                    {
                      "internalType": "uint256",
                      "name": "y",
                      "type": "uint256"
                    }
                  ],
                  "internalType": "struct Utils.ECPoint",
                  "name": "D",
                  "type": "tuple"
                }
              ],
              "internalType": "struct Utils.Elgamal_ciphertext",
              "name": "encVote",
              "type": "tuple"
            }
          ],
          "internalType": "struct Election.Ballot[]",
          "name": "",
          "type": "tuple[]"
        }
      ],
      "stateMutability": "view",
      "type": "function"
    },
    {
      "inputs": [
        {
          "components": [
            {
              "internalType": "uint256",
              "name": "h",
              "type": "uint256"
            },
            {
              "internalType": "uint256",
              "name": "subSecret",
              "type": "uint256"
            },
            {
              "internalType": "uint256",
              "name": "i",
              "type": "uint256"
            },
            {
              "components": [
                {
                  "internalType": "uint256",
                  "name": "r",
                  "type": "uint256"
                },
                {
                  "internalType": "uint256",
                  "name": "s",
                  "type": "uint256"
                }
              ],
              "internalType": "struct Utils.ECDSA_Sig",
              "name": "sig",
              "type": "tuple"
            }
          ],
          "internalType": "struct Utils.SubSecretWithSig",
          "name": "_s",
          "type": "tuple"
        }
      ],
      "name": "addSubSecret",
      "outputs": [],
      "stateMutability": "nonpayable",
      "type": "function"
    },
    {
      "inputs": [],
      "name": "getSubSecrets",
      "outputs": [
        {
          "components": [
            {
              "internalType": "uint256",
              "name": "h",
              "type": "uint256"
            },
            {
              "internalType": "uint256",
              "name": "subSecret",
              "type": "uint256"
            },
            {
              "internalType": "uint256",
              "name": "i",
              "type": "uint256"
            },
            {
              "components": [
                {
                  "internalType": "uint256",
                  "name": "r",
                  "type": "uint256"
                },
                {
                  "internalType": "uint256",
                  "name": "s",
                  "type": "uint256"
                }
              ],
              "internalType": "struct Utils.ECDSA_Sig",
              "name": "sig",
              "type": "tuple"
            }
          ],
          "internalType": "struct Utils.SubSecretWithSig[]",
          "name": "",
          "type": "tuple[]"
        }
      ],
      "stateMutability": "view",
      "type": "function"
    },
    {
      "inputs": [],
      "name": "getF0",
      "outputs": [
        {
          "components": [
            {
              "components": [
                {
                  "internalType": "uint256",
                  "name": "x",
                  "type": "uint256"
                },
                {
                  "internalType": "uint256",
                  "name": "y",
                  "type": "uint256"
                }
              ],
              "internalType": "struct Utils.ECPoint",
              "name": "p",
              "type": "tuple"
            },
            {
              "internalType": "uint256",
              "name": "i",
              "type": "uint256"
            },
            {
              "internalType": "uint256",
              "name": "j",
              "type": "uint256"
            },
            {
              "internalType": "uint256",
              "name": "h",
              "type": "uint256"
            },
            {
              "components": [
                {
                  "internalType": "uint256",
                  "name": "r",
                  "type": "uint256"
                },
                {
                  "internalType": "uint256",
                  "name": "s",
                  "type": "uint256"
                }
              ],
              "internalType": "struct Utils.ECDSA_Sig",
              "name": "sig",
              "type": "tuple"
            }
          ],
          "internalType": "struct Election.F[]",
          "name": "",
          "type": "tuple[]"
        }
      ],
      "stateMutability": "view",
      "type": "function"
    },
    {
      "inputs": [
        {
          "internalType": "uint256",
          "name": "_publicKeyIndex",
          "type": "uint256"
        }
      ],
      "name": "getF",
      "outputs": [
        {
          "components": [
            {
              "components": [
                {
                  "internalType": "uint256",
                  "name": "x",
                  "type": "uint256"
                },
                {
                  "internalType": "uint256",
                  "name": "y",
                  "type": "uint256"
                }
              ],
              "internalType": "struct Utils.ECPoint",
              "name": "p",
              "type": "tuple"
            },
            {
              "internalType": "uint256",
              "name": "i",
              "type": "uint256"
            },
            {
              "internalType": "uint256",
              "name": "j",
              "type": "uint256"
            },
            {
              "internalType": "uint256",
              "name": "h",
              "type": "uint256"
            },
            {
              "components": [
                {
                  "internalType": "uint256",
                  "name": "r",
                  "type": "uint256"
                },
                {
                  "internalType": "uint256",
                  "name": "s",
                  "type": "uint256"
                }
              ],
              "internalType": "struct Utils.ECDSA_Sig",
              "name": "sig",
              "type": "tuple"
            }
          ],
          "internalType": "struct Election.F[]",
          "name": "",
          "type": "tuple[]"
        }
      ],
      "stateMutability": "view",
      "type": "function"
    },
    {
      "inputs": [
        {
          "internalType": "uint256",
          "name": "_publicKeyIndex",
          "type": "uint256"
        }
      ],
      "name": "getf",
      "outputs": [
        {
          "components": [
            {
              "components": [
                {
                  "components": [
                    {
                      "internalType": "uint256",
                      "name": "x",
                      "type": "uint256"
                    },
                    {
                      "internalType": "uint256",
                      "name": "y",
                      "type": "uint256"
                    }
                  ],
                  "internalType": "struct Utils.ECPoint",
                  "name": "C",
                  "type": "tuple"
                },
                {
                  "components": [
                    {
                      "internalType": "uint256",
                      "name": "x",
                      "type": "uint256"
                    },
                    {
                      "internalType": "uint256",
                      "name": "y",
                      "type": "uint256"
                    }
                  ],
                  "internalType": "struct Utils.ECPoint",
                  "name": "D",
                  "type": "tuple"
                }
              ],
              "internalType": "struct Utils.Elgamal_ciphertext",
              "name": "ciphertext",
              "type": "tuple"
            },
            {
              "internalType": "uint256",
              "name": "i",
              "type": "uint256"
            },
            {
              "internalType": "uint256",
              "name": "j",
              "type": "uint256"
            },
            {
              "internalType": "uint256",
              "name": "h",
              "type": "uint256"
            },
            {
              "components": [
                {
                  "internalType": "uint256",
                  "name": "r",
                  "type": "uint256"
                },
                {
                  "internalType": "uint256",
                  "name": "s",
                  "type": "uint256"
                }
              ],
              "internalType": "struct Utils.ECDSA_Sig",
              "name": "sig",
              "type": "tuple"
            }
          ],
          "internalType": "struct Election.f[]",
          "name": "",
          "type": "tuple[]"
        }
      ],
      "stateMutability": "view",
      "type": "function"
    },
    {
      "inputs": [
        {
          "components": [
            {
              "components": [
                {
                  "internalType": "uint256",
                  "name": "x",
                  "type": "uint256"
                },
                {
                  "internalType": "uint256",
                  "name": "y",
                  "type": "uint256"
                }
              ],
              "internalType": "struct Utils.ECPoint",
              "name": "p",
              "type": "tuple"
            },
            {
              "internalType": "uint256",
              "name": "i",
              "type": "uint256"
            },
            {
              "internalType": "uint256",
              "name": "j",
              "type": "uint256"
            },
            {
              "internalType": "uint256",
              "name": "h",
              "type": "uint256"
            },
            {
              "components": [
                {
                  "internalType": "uint256",
                  "name": "r",
                  "type": "uint256"
                },
                {
                  "internalType": "uint256",
                  "name": "s",
                  "type": "uint256"
                }
              ],
              "internalType": "struct Utils.ECDSA_Sig",
              "name": "sig",
              "type": "tuple"
            }
          ],
          "internalType": "struct Election.F[]",
          "name": "_F",
          "type": "tuple[]"
        },
        {
          "components": [
            {
              "components": [
                {
                  "components": [
                    {
                      "internalType": "uint256",
                      "name": "x",
                      "type": "uint256"
                    },
                    {
                      "internalType": "uint256",
                      "name": "y",
                      "type": "uint256"
                    }
                  ],
                  "internalType": "struct Utils.ECPoint",
                  "name": "C",
                  "type": "tuple"
                },
                {
                  "components": [
                    {
                      "internalType": "uint256",
                      "name": "x",
                      "type": "uint256"
                    },
                    {
                      "internalType": "uint256",
                      "name": "y",
                      "type": "uint256"
                    }
                  ],
                  "internalType": "struct Utils.ECPoint",
                  "name": "D",
                  "type": "tuple"
                }
              ],
              "internalType": "struct Utils.Elgamal_ciphertext",
              "name": "ciphertext",
              "type": "tuple"
            },
            {
              "internalType": "uint256",
              "name": "i",
              "type": "uint256"
            },
            {
              "internalType": "uint256",
              "name": "j",
              "type": "uint256"
            },
            {
              "internalType": "uint256",
              "name": "h",
              "type": "uint256"
            },
            {
              "components": [
                {
                  "internalType": "uint256",
                  "name": "r",
                  "type": "uint256"
                },
                {
                  "internalType": "uint256",
                  "name": "s",
                  "type": "uint256"
                }
              ],
              "internalType": "struct Utils.ECDSA_Sig",
              "name": "sig",
              "type": "tuple"
            }
          ],
          "internalType": "struct Election.f[]",
          "name": "_f",
          "type": "tuple[]"
        }
      ],
      "name": "addKeyGenVal",
      "outputs": [],
      "stateMutability": "nonpayable",
      "type": "function"
    },
    {
      "inputs": [
        {
          "components": [
            {
              "components": [
                {
                  "internalType": "uint256",
                  "name": "x",
                  "type": "uint256"
                },
                {
                  "internalType": "uint256",
                  "name": "y",
                  "type": "uint256"
                }
              ],
              "internalType": "struct Utils.ECPoint",
              "name": "C",
              "type": "tuple"
            },
            {
              "components": [
                {
                  "internalType": "uint256",
                  "name": "x",
                  "type": "uint256"
                },
                {
                  "internalType": "uint256",
                  "name": "y",
                  "type": "uint256"
                }
              ],
              "internalType": "struct Utils.ECPoint",
              "name": "D",
              "type": "tuple"
            }
          ],
          "internalType": "struct Utils.Elgamal_ciphertext",
          "name": "_encVote",
          "type": "tuple"
        },
        {
          "internalType": "uint256",
          "name": "_encVoteHash",
          "type": "uint256"
        },
        {
          "internalType": "uint256",
          "name": "_U0",
          "type": "uint256"
        },
        {
          "internalType": "uint256[]",
          "name": "_V",
          "type": "uint256[]"
        },
        {
          "components": [
            {
              "internalType": "uint256",
              "name": "x",
              "type": "uint256"
            },
            {
              "internalType": "uint256",
              "name": "y",
              "type": "uint256"
            }
          ],
          "internalType": "struct Utils.ECPoint",
          "name": "_K",
          "type": "tuple"
        }
      ],
      "name": "addVote",
      "outputs": [],
      "stateMutability": "nonpayable",
      "type": "function"
    },
    {
      "inputs": [],
      "name": "getVotePrivateKey",
      "outputs": [
        {
          "internalType": "uint256",
          "name": "",
          "type": "uint256"
        }
      ],
      "stateMutability": "view",
      "type": "function"
    },
    {
      "inputs": [
        {
          "components": [
            {
              "components": [
                {
                  "internalType": "uint256",
                  "name": "x",
                  "type": "uint256"
                },
                {
                  "internalType": "uint256",
                  "name": "y",
                  "type": "uint256"
                }
              ],
              "internalType": "struct Utils.ECPoint",
              "name": "C",
              "type": "tuple"
            },
            {
              "components": [
                {
                  "internalType": "uint256",
                  "name": "x",
                  "type": "uint256"
                },
                {
                  "internalType": "uint256",
                  "name": "y",
                  "type": "uint256"
                }
              ],
              "internalType": "struct Utils.ECPoint",
              "name": "D",
              "type": "tuple"
            }
          ],
          "internalType": "struct Utils.Elgamal_ciphertext",
          "name": "_encVote",
          "type": "tuple"
        },
        {
          "internalType": "uint256",
          "name": "_votePrvKey",
          "type": "uint256"
        }
      ],
      "name": "decryptVote",
      "outputs": [
        {
          "internalType": "uint256",
          "name": "",
          "type": "uint256"
        }
      ],
      "stateMutability": "pure",
      "type": "function"
    },
    {
      "inputs": [],
      "name": "tallyVote",
      "outputs": [],
      "stateMutability": "nonpayable",
      "type": "function"
    },
    {
      "inputs": [],
      "name": "getElectionData",
      "outputs": [
        {
          "components": [
            {
              "internalType": "uint256",
              "name": "id",
              "type": "uint256"
            },
            {
              "internalType": "uint256",
              "name": "post_time",
              "type": "uint256"
            },
            {
              "internalType": "uint256",
              "name": "key_gen_end_time",
              "type": "uint256"
            },
            {
              "internalType": "uint256",
              "name": "vote_end_time",
              "type": "uint256"
            },
            {
              "internalType": "uint256",
              "name": "secret_upload_end_time",
              "type": "uint256"
            },
            {
              "internalType": "uint256",
              "name": "min_shares",
              "type": "uint256"
            },
            {
              "internalType": "uint256",
              "name": "candidateCount",
              "type": "uint256"
            },
            {
              "internalType": "uint256",
              "name": "voterCount",
              "type": "uint256"
            },
            {
              "internalType": "uint256",
              "name": "totalVoteCount",
              "type": "uint256"
            },
            {
              "internalType": "uint256",
              "name": "totatKeygenValueSentCount",
              "type": "uint256"
            },
            {
              "internalType": "uint256",
              "name": "totalSubSecretSentCount",
              "type": "uint256"
            },
            {
              "internalType": "uint256",
              "name": "L",
              "type": "uint256"
            },
            {
              "internalType": "string",
              "name": "title",
              "type": "string"
            },
            {
              "internalType": "string",
              "name": "description",
              "type": "string"
            },
            {
              "internalType": "string[]",
              "name": "public_keys",
              "type": "string[]"
            },
            {
              "components": [
                {
                  "internalType": "uint256",
                  "name": "x",
                  "type": "uint256"
                },
                {
                  "internalType": "uint256",
                  "name": "y",
                  "type": "uint256"
                }
              ],
              "internalType": "struct Utils.ECPoint",
              "name": "H",
              "type": "tuple"
            },
            {
              "components": [
                {
                  "internalType": "uint256",
                  "name": "x",
                  "type": "uint256"
                },
                {
                  "internalType": "uint256",
                  "name": "y",
                  "type": "uint256"
                }
              ],
              "internalType": "struct Utils.ECPoint[]",
              "name": "EC_public_keys",
              "type": "tuple[]"
            },
            {
              "components": [
                {
                  "internalType": "uint256",
                  "name": "id",
                  "type": "uint256"
                },
                {
                  "internalType": "string",
                  "name": "name",
                  "type": "string"
                },
                {
                  "internalType": "uint256",
                  "name": "voteCount",
                  "type": "uint256"
                }
              ],
              "internalType": "struct Election.Candidate[]",
              "name": "candidates",
              "type": "tuple[]"
            },
            {
              "internalType": "bool",
              "name": "isTallied",
              "type": "bool"
            },
            {
              "internalType": "address",
              "name": "owner",
              "type": "address"
            }
          ],
          "internalType": "struct Election.ElectionData",
          "name": "",
          "type": "tuple"
        }
      ],
      "stateMutability": "view",
      "type": "function"
    }
  ],
  "bytecode": "0x60806040523480156200001157600080fd5b506040516200438b3803806200438b833981016040819052620000349162000070565b600080546001600160a01b0319166001600160a01b039790971696909617909555600493909355600791909155600855600955600a55620000d1565b60008060008060008060c087890312156200008a57600080fd5b86516001600160a01b0381168114620000a257600080fd5b6020880151604089015160608a015160808b015160a0909b0151939c929b509099909850965090945092505050565b6142aa80620000e16000396000f3fe608060405234801561001057600080fd5b50600436106102a05760003560e01c80638eef523b11610167578063c701ae20116100ce578063e3ff760611610087578063e3ff7606146105a1578063e6a70608146105ae578063f3e1b077146105ce578063f9f9274e146105e1578063fca43a57146105f6578063fecfdbfe1461060957600080fd5b8063c701ae201461054b578063c7bedfa014610554578063cdce88ef1461055c578063cf8741421461057c578063d6d7d06614610585578063e3bad1201461058d57600080fd5b8063a9a981a311610120578063a9a981a3146104f4578063af640d0f146104fd578063bb2bcc0614610506578063bd231bcb1461050f578063c2d2b86a14610522578063c59ee6c81461053657600080fd5b80638eef523b1461048857806390c3f38f1461049c5780639baec8b9146104af5780639f13f76d146104c4578063a69d1b7e146104cd578063a96958af146104e057600080fd5b80634a79d50c1161020b5780637284e416116101c45780637284e4161461041d57806372910be01461042557806373d1993b14610438578063893d8f4c146104415780638da5cb5b1461044a5780638db068061461047557600080fd5b80634a79d50c146103af5780635074b7f9146103b7578063605e648b146103c05780636652e526146103d35780636db0d816146103e857806370a5d861146103fa57600080fd5b80633477ee2e1161025d5780633477ee2e1461032957806336bca2dd1461034b57806336e678391461035e578063396de55e1461037157806342169e481461038657806344ff1d681461038f57600080fd5b80630e970d80146102a557806314e745d9146102cd57806317542dc0146102e25780631ad32fbb146102f95780632c3549111461030157806330e16d1f14610315575b600080fd5b600f546102b89062010000900460ff1681565b60405190151581526020015b60405180910390f35b6102e06102db3660046131ec565b610612565b005b6102eb600a5481565b6040519081526020016102c4565b6102eb61072e565b600f546102b8906301000000900460ff1681565b600f546102b890600160401b900460ff1681565b61033c6103373660046132a1565b6107b3565b6040516102c493929190613316565b6102e061035936600461336f565b610871565b6102e061036c36600461344a565b610a87565b600f546102b890640100000000900460ff1681565b6102eb60065481565b6103a261039d3660046132a1565b610f96565b6040516102c491906134f5565b6103a2611042565b6102eb600d5481565b6102e06103ce3660046132a1565b61104f565b6103db6110bd565b6040516102c4919061360f565b600f546102b890610100900460ff1681565b601154601254610408919082565b604080519283526020830191909152016102c4565b6103a26114e4565b6102e061043336600461379c565b6114f1565b6102eb60095481565b6102eb600b5481565b60005461045d906001600160a01b031681565b6040516001600160a01b0390911681526020016102c4565b6102e061048336600461387d565b611567565b600f546102b890600160381b900460ff1681565b6102e06104aa36600461379c565b611e73565b6104b7611ef4565b6040516102c491906139b4565b6102eb60105481565b6102eb6104db366004613aa8565b612047565b600f546102b890600160281b900460ff1681565b6102eb60055481565b6102eb60045481565b6102eb600c5481565b6102e061051d3660046131ec565b6120cd565b600f546102b890600160301b900460ff1681565b61053e61215f565b6040516102c49190613ad9565b6102eb600e5481565b6102e0612330565b61056f61056a3660046132a1565b61257a565b6040516102c49190613af0565b6102eb60085481565b61056f6126fd565b600f546102b890600160481b900460ff1681565b600f546102b89060ff1681565b6105c16105bc3660046132a1565b61287e565b6040516102c49190613b7e565b6102e06105dc366004613bf6565b612a1e565b6105e9612d43565b6040516102c49190613c0e565b6104086106043660046132a1565b612dd0565b6102eb60075481565b600f54640100000000900460ff16156106725760405162461bcd60e51b815260206004820152601a60248201527f43616e6469646174657320697320616c7265616479207365742e00000000000060448201526064015b60405180910390fd5b60005b815181101561070f57601560405180606001604052808381526020018484815181106106a3576106a3613c73565b60209081029190910181015182526000918101829052835460018181018655948352918190208351600390930201918255828101518051939492936106ef938501929190910190612dfe565b50604082015181600201555050808061070790613c9f565b915050610675565b5050601554600555600f805464ffff0000001916640101000000179055565b600c5460405163aebdf69b60e01b815260009173__Utils_________________________________9163aebdf69b9161076d91601a9190600401613cba565b602060405180830381865af415801561078a573d6000803e3d6000fd5b505050506040513d601f19601f820116820180604052508101906107ae9190613d42565b905090565b601581815481106107c357600080fd5b600091825260209091206003909102018054600182018054919350906107e890613d5b565b80601f016020809104026020016040519081016040528092919081815260200182805461081490613d5b565b80156108615780601f1061083657610100808354040283529160200191610861565b820191906000526020600020905b81548152906001019060200180831161084457829003601f168201915b5050505050908060020154905083565b600f54600160301b900460ff16156108cb5760405162461bcd60e51b815260206004820152601e60248201527f4543205075626c69635f6b65797320697320616c7265616479207365742e00006044820152606401610669565b60006010819055805b82518110156109e957601460405180604001604052808584815181106108fc576108fc613c73565b602002602001015160000151815260200185848151811061091f5761091f613c73565b60209081029190910181015181015190915282546001818101855560009485529382902083516002909202019081559101519101557bffffffff00000000000000004319055258e8617b0c46353d039cdaae1983828151811061098457610984613c73565b6020026020010151602001518483815181106109a2576109a2613c73565b6020026020010151600001510891507bffffffff00000000000000004319055258e8617b0c46353d039cdaae198260105408601055806109e181613c9f565b9150506108d4565b50601054604051634154f34b60e01b8152600481019190915273__Utils_________________________________90634154f34b906024016040805180830381865af4158015610a3d573d6000803e3d6000fd5b505050506040513d601f19601f82011682018060405250810190610a619190613d90565b8051601155602001516012555050600f805466ff0000000000001916600160301b179055565b4260085411158015610a9a575060095442105b610ada5760405162461bcd60e51b8152602060048201526011602482015270696e76616c696420766f74652074696d6560781b6044820152606401610669565b6000600382600001518360200151604051602001610b02929190918252602082015260400190565b60408051601f1981840301815290829052610b1c91613dde565b602060405180830381855afa158015610b39573d6000803e3d6000fd5b5050604080515160601b6001600160601b0319811660009081526013602052919091205490925060ff16159050610baa5760405162461bcd60e51b81526020600482015260156024820152741e5bdd48185c9948185b1c9958591e481d9bdd1959605a1b6044820152606401610669565b86518051602091820151828a01518051908401516040805195860194909452928401919091526060830152608082015260009060a0016040516020818303038152906040528051906020012060001c9050868114610c4a5760405162461bcd60e51b815260206004820152601c60248201527f656e6372797074656420566f746520776173206d6f6469666965642e000000006044820152606401610669565b600073__Utils_________________________________6399ebf5896040518060e001604052808b81526020018a81526020016010548152602001898980806020026020016040519081016040528093929190818152602001838360200280828437600092018290525093855250506040805180820182526011548152601254602082810191909152808601919091528185018c90526014805483518184028101840190945280845260609096019592949093509084015b82821015610d4857838290600052602060002090600202016040518060400160405290816000820154815260200160018201548152505081526020019060010190610d02565b505050508152506040518263ffffffff1660e01b8152600401610d6b9190613dfa565b602060405180830381865af4158015610d88573d6000803e3d6000fd5b505050506040513d601f19601f82011682018060405250810190610dac9190613ebe565b9050600181151514610e005760405162461bcd60e51b815260206004820152601f60248201527f696e76616c6964206c696e6b61626c652072696e67207369676e6174757265006044820152606401610669565b601c604051806101000160405280600b54815260200142815260200160001981526020018a81526020018981526020018888808060200260200160405190810160405280939291908181526020018383602002808284376000920182905250938552505050602080830189905260409283018e9052845460018181018755958352918190208451600c909302019182558381015194820194909455908201516002820155606082015160038201556080820151600482015560a0820151805192939192610ed39260058501920190612e82565b5060c082015180516006830155602090810151600783015560e09092015180518051600884015583015160098301558201518051600a83015590910151600b918201558054906000610f2483613c9f565b90915550506001600160601b0319831660009081526013602052604090819020805460ff19166001179055600b5490517ffa3646576e62bd55338198a0df1081271097c419287396347b2f5b84a21d676091610f839190815260200190565b60405180910390a1505050505050505050565b60038181548110610fa657600080fd5b906000526020600020016000915090508054610fc190613d5b565b80601f0160208091040260200160405190810160405280929190818152602001828054610fed90613d5b565b801561103a5780601f1061100f5761010080835404028352916020019161103a565b820191906000526020600020905b81548152906001019060200180831161101d57829003601f168201915b505050505081565b60018054610fc190613d5b565b600f54600160401b900460ff16156110a55760405162461bcd60e51b815260206004820152601960248201527826b4b729b430b932b99034b99030b63932b0b23c9039b2ba1760391b6044820152606401610669565b600c55600f805460ff60401b1916600160401b179055565b6110c5612ebc565b6040518061028001604052806004548152602001600754815260200160085481526020016009548152602001600a548152602001600c54815260200160055481526020016006548152602001600b548152602001600d548152602001600e54815260200160105481526020016001805461113e90613d5b565b80601f016020809104026020016040519081016040528092919081815260200182805461116a90613d5b565b80156111b75780601f1061118c576101008083540402835291602001916111b7565b820191906000526020600020905b81548152906001019060200180831161119a57829003601f168201915b50505050508152602001600280546111ce90613d5b565b80601f01602080910402602001604051908101604052809291908181526020018280546111fa90613d5b565b80156112475780601f1061121c57610100808354040283529160200191611247565b820191906000526020600020905b81548152906001019060200180831161122a57829003601f168201915b505050505081526020016003805480602002602001604051908101604052809291908181526020016000905b8282101561131f57838290600052602060002001805461129290613d5b565b80601f01602080910402602001604051908101604052809291908181526020018280546112be90613d5b565b801561130b5780601f106112e05761010080835404028352916020019161130b565b820191906000526020600020905b8154815290600101906020018083116112ee57829003601f168201915b505050505081526020019060010190611273565b50505050815260200160116040518060400160405290816000820154815260200160018201548152505081526020016014805480602002602001604051908101604052809291908181526020016000905b828210156113b657838290600052602060002090600202016040518060400160405290816000820154815260200160018201548152505081526020019060010190611370565b5050505081526020016015805480602002602001604051908101604052809291908181526020016000905b828210156114b957838290600052602060002090600302016040518060600160405290816000820154815260200160018201805461141e90613d5b565b80601f016020809104026020016040519081016040528092919081815260200182805461144a90613d5b565b80156114975780601f1061146c57610100808354040283529160200191611497565b820191906000526020600020905b81548152906001019060200180831161147a57829003601f168201915b50505050508152602001600282015481525050815260200190600101906113e1565b50505090825250600f5460ff16151560208201526000546001600160a01b0316604090910152919050565b60028054610fc190613d5b565b600f54610100900460ff16156115415760405162461bcd60e51b81526020600482015260156024820152743a34ba36329034b99030b63932b0b23c9039b2ba1760591b6044820152606401610669565b8051611554906001906020840190612dfe565b5050600f805461ff001916610100179055565b6000806000805b600c548110156119875785818151811061158a5761158a613c73565b602002602001015160000151600001518682815181106115ac576115ac613c73565b602002602001015160000151602001518783815181106115ce576115ce613c73565b6020026020010151602001518884815181106115ec576115ec613c73565b602002602001015160400151604051602001611621949392919093845260208401929092526040830152606082015260800190565b6040516020818303038152906040528051906020012060001c925085818151811061164e5761164e613c73565b60200260200101516060015183146116785760405162461bcd60e51b815260040161066990613ee7565b73__Utils_________________________________6334b9cfc26040518060a001604052808985815181106116af576116af613c73565b6020026020010151608001516000015181526020018985815181106116d6576116d6613c73565b60200260200101516080015160200151815260200186815260200160148a868151811061170557611705613c73565b6020026020010151602001518154811061172157611721613c73565b906000526020600020906002020160000154815260200160148a868151811061174c5761174c613c73565b6020026020010151602001518154811061176857611768613c73565b9060005260206000209060020201600101548152506040518263ffffffff1660e01b81526004016117999190613f18565b602060405180830381865af41580156117b6573d6000803e3d6000fd5b505050506040513d601f19601f820116820180604052508101906117da9190613ebe565b91506001821515146117fe5760405162461bcd60e51b815260040161066990613f52565b600386828151811061181257611812613c73565b60200260200101516020015187838151811061183057611830613c73565b602002602001015160400151604051602001611856929190918252602082015260400190565b60408051601f198184030181529082905261187091613dde565b602060405180830381855afa15801561188d573d6000803e3d6000fd5b5050604080515160601b6001600160601b0319811660009081526018602052919091205490955060ff161590506118d65760405162461bcd60e51b815260040161066990613f83565b6001600160601b031984166000908152601860205260409020805460ff19166001179055855186908290811061190e5761190e613c73565b6020908102919091018101516001600160601b0319861660009081526016835260409081902082518051825584015160018201558284015160028201559082015160038201556060820151600482015560809091015180516005830155909101516006909101558061197f81613c9f565b91505061156e565b5060005b600654811015611e1b578481815181106119a7576119a7613c73565b60200260200101516000015160000151600001518582815181106119cd576119cd613c73565b60200260200101516000015160000151602001518683815181106119f3576119f3613c73565b6020026020010151600001516020015160000151878481518110611a1957611a19613c73565b6020026020010151600001516020015160200151888581518110611a3f57611a3f613c73565b602002602001015160200151898681518110611a5d57611a5d613c73565b602002602001015160400151604051602001611aa196959493929190958652602086019490945260408501929092526060840152608083015260a082015260c00190565b6040516020818303038152906040528051906020012060001c9250848181518110611ace57611ace613c73565b6020026020010151606001518314611af85760405162461bcd60e51b815260040161066990613ee7565b73__Utils_________________________________6334b9cfc26040518060a00160405280888581518110611b2f57611b2f613c73565b602002602001015160800151600001518152602001888581518110611b5657611b56613c73565b6020026020010151608001516020015181526020018681526020016014898681518110611b8557611b85613c73565b60200260200101516020015181548110611ba157611ba1613c73565b90600052602060002090600202016000015481526020016014898681518110611bcc57611bcc613c73565b60200260200101516020015181548110611be857611be8613c73565b9060005260206000209060020201600101548152506040518263ffffffff1660e01b8152600401611c199190613f18565b602060405180830381865af4158015611c36573d6000803e3d6000fd5b505050506040513d601f19601f82011682018060405250810190611c5a9190613ebe565b9150600182151514611c7e5760405162461bcd60e51b815260040161066990613f52565b6003858281518110611c9257611c92613c73565b602002602001015160200151868381518110611cb057611cb0613c73565b602002602001015160400151604051602001611cd6929190918252602082015260400190565b60408051601f1981840301815290829052611cf091613dde565b602060405180830381855afa158015611d0d573d6000803e3d6000fd5b5050604080515160601b6001600160601b0319811660009081526019602052919091205490955060ff16159050611d565760405162461bcd60e51b815260040161066990613f83565b6001600160601b031984166000908152601960205260409020805460ff191660011790558451859082908110611d8e57611d8e613c73565b6020908102919091018101516001600160601b031986166000908152601783526040908190208251805180518355850151600183015584015180516002830155840151600382015582840151600482015590820151600582015560608201516006820155608090910151805160078301559091015160089091015580611e1381613c9f565b91505061198b565b50600d8054906000611e2c83613c9f565b91905055507f6a2c41ee80fc36b9b44f5e1f5d932b5988f82c4a2dfaa8f1271f8dc8dfa38657600d54604051611e6491815260200190565b60405180910390a15050505050565b600f5462010000900460ff1615611ecc5760405162461bcd60e51b815260206004820152601b60248201527f4465736372697074696f6e20697320616c7265616479207365742e00000000006044820152606401610669565b8051611edf906002906020840190612dfe565b5050600f805462ff0000191662010000179055565b6060601c805480602002602001604051908101604052809291908181526020016000905b8282101561203e57838290600052602060002090600c020160405180610100016040529081600082015481526020016001820154815260200160028201548152602001600382015481526020016004820154815260200160058201805480602002602001604051908101604052809291908181526020018280548015611fbd57602002820191906000526020600020905b815481526020019060010190808311611fa9575b5050509183525050604080518082018252600684015481526007840154602082810191909152808401919091528151608081018352600885015481840190815260098601546060830152815282518084018452600a8601548152600b9095015485830152808201949094529101919091529082526001929092019101611f18565b50505050905090565b604051631a86f40760e01b815260009073__Utils_________________________________90631a86f407906120839086908690600401613fb8565b602060405180830381865af41580156120a0573d6000803e3d6000fd5b505050506040513d601f19601f820116820180604052508101906120c49190613d42565b90505b92915050565b600f54600160281b900460ff16156121275760405162461bcd60e51b815260206004820152601b60248201527f5075626c69635f6b65797320697320616c7265616479207365742e00000000006044820152606401610669565b805161213a906003906020840190612f66565b5050600354600655600f805467ff00ff00000000001916670100010000000000179055565b612167612fbf565b61216f612fbf565b6000806006546001600160401b0381111561218c5761218c6130ca565b6040519080825280602002602001820160405280156121c557816020015b6121b2612fbf565b8152602001906001900390816121aa5790505b50905060005b6006548110156122b05760038160006040516020016121f4929190918252602082015260400190565b60408051601f198184030181529082905261220e91613dde565b602060405180830381855afa15801561222b573d6000803e3d6000fd5b5050506040515160601b925060166000846001600160601b0319166001600160601b03191681526020019081526020016000206000016040518060400160405290816000820154815260200160018201548152505082828151811061229257612292613c73565b602002602001018190525080806122a890613c9f565b9150506121cb565b5060405163293fd09d60e21b815273__Utils_________________________________9063a4ff4274906122e8908490600401613ff1565b6040805180830381865af4158015612304573d6000803e3d6000fd5b505050506040513d601f19601f820116820180604052508101906123289190613d90565b949350505050565b600f54600160481b900460ff16156123855760405162461bcd60e51b81526020600482015260186024820152771d1a19481d9bdd1948185b1c9958591e481d185b1b1a595960421b6044820152606401610669565b600c5460405163aebdf69b60e01b815260009173__Utils_________________________________9163aebdf69b916123c491601a9190600401613cba565b602060405180830381865af41580156123e1573d6000803e3d6000fd5b505050506040513d601f19601f820116820180604052508101906124059190613d42565b90506000805b601c548110156125265773__Utils_________________________________631a86f407601c838154811061244257612442613c73565b90600052602060002090600c0201600801856040518363ffffffff1660e01b8152600401612471929190614004565b602060405180830381865af415801561248e573d6000803e3d6000fd5b505050506040513d601f19601f820116820180604052508101906124b29190613d42565b915081601c82815481106124c8576124c8613c73565b90600052602060002090600c020160020181905550601582815481106124f0576124f0613c73565b60009182526020822060026003909202010180549161250e83613c9f565b9190505550808061251e90613c9f565b91505061240b565b50600f805460ff60481b1916600160481b1790556040517f3dc1fe22a60d9a898cc1d0a0e0f063f5e855e5a2938f3059cb822bf4e2b0e6859061256e90601590601c9061413c565b60405180910390a15050565b60606000806006546001600160401b03811115612599576125996130ca565b6040519080825280602002602001820160405280156125d257816020015b6125bf612fd9565b8152602001906001900390816125b75790505b50905060005b6006548110156126f5576003816125f087600161425c565b60408051602081019390935282015260600160408051601f198184030181529082905261261c91613dde565b602060405180830381855afa158015612639573d6000803e3d6000fd5b5050604080518051606090811b6001600160601b031981166000908152601660209081529085902060e085018652805460a08601908152600182015460c08701528552600281015482860152600381015485870152600481015493850193909352845180860190955260058301548552600690920154918401919091526080820192909252845191955091508390839081106126d7576126d7613c73565b602002602001018190525080806126ed90613c9f565b9150506125d8565b509392505050565b60606000806006546001600160401b0381111561271c5761271c6130ca565b60405190808252806020026020018201604052801561275557816020015b612742612fd9565b81526020019060019003908161273a5790505b50905060005b600654811015612877576003816000604051602001612784929190918252602082015260400190565b60408051601f198184030181529082905261279e91613dde565b602060405180830381855afa1580156127bb573d6000803e3d6000fd5b5050604080518051606090811b6001600160601b031981166000908152601660209081529085902060e085018652805460a08601908152600182015460c087015285526002810154828601526003810154858701526004810154938501939093528451808601909552600583015485526006909201549184019190915260808201929092528451919550915083908390811061285957612859613c73565b6020026020010181905250808061286f90613c9f565b91505061275b565b5092915050565b60606000806006546001600160401b0381111561289d5761289d6130ca565b6040519080825280602002602001820160405280156128d657816020015b6128c3613028565b8152602001906001900390816128bb5790505b50905060005b6006548110156126f5576003816128f487600161425c565b60408051602081019390935282015260600160408051601f198184030181529082905261292091613dde565b602060405180830381855afa15801561293d573d6000803e3d6000fd5b5050604080518051606090811b6001600160601b031981166000908152601760209081529085902061012085018652805460e08601908152600182015461010087015260a08601908152865180880188526002830154815260038301548185015260c0870152855260048101548286015260058101548587015260068101549385019390935284518086019095526007830154855260089092015491840191909152608082019290925284519195509150839083908110612a0057612a00613c73565b60200260200101819052508080612a1690613c9f565b9150506128dc565b600081602001358260400135604051602001612a44929190918252602082015260400190565b60408051601f198184030181529190528051602090910120905081358114612ab85760405162461bcd60e51b815260206004820152602160248201527f74686520737562536563726574206f7220692077617374206d6f6469666965646044820152601760f91b6064820152608401610669565b6000818152601b602052604090205460ff1615612b175760405162461bcd60e51b815260206004820152601c60248201527f596f757220737562536563726574207761732075706c6f616465642e000000006044820152606401610669565b600073__Utils_________________________________6334b9cfc26040518060a0016040528086606001600001358152602001866060016020013581526020018581526020016014876040013581548110612b7557612b75613c73565b90600052602060002090600202016000015481526020016014876040013581548110612ba357612ba3613c73565b9060005260206000209060020201600101548152506040518263ffffffff1660e01b8152600401612bd49190613f18565b602060405180830381865af4158015612bf1573d6000803e3d6000fd5b505050506040513d601f19601f82011682018060405250810190612c159190613ebe565b9050600181151514612c645760405162461bcd60e51b8152602060048201526018602482015277496e76616c756964204543445341205369676e617475726560401b6044820152606401610669565b601a805460018101825560009190915283906005027f057c384a7d1c54f3a1b2e5e67b2617b8224fdfd1ea7234eea573a6ff665ff63e01612cd0828281358155602082013560018201556040820135600282015560608201356003820155608082013560048201555050565b50506040808401356000908152601b602052908120805460ff19166001179055600e805491612cfe83613c9f565b91905055507ffda7fe2aa1855f36efd0640a3ec3265e181c44b600c34ad29c800d765f93571d600e54604051612d3691815260200190565b60405180910390a1505050565b6060601a805480602002602001604051908101604052809291908181526020016000905b8282101561203e576000848152602090819020604080516080810182526005860290920180548352600180820154848601526002820154848401528251808401909352600382015483526004909101548285015260608301919091529083529092019101612d67565b60148181548110612de057600080fd5b60009182526020909120600290910201805460019091015490915082565b828054612e0a90613d5b565b90600052602060002090601f016020900481019282612e2c5760008555612e72565b82601f10612e4557805160ff1916838001178555612e72565b82800160010185558215612e72579182015b82811115612e72578251825591602001919060010190612e57565b50612e7e92915061303b565b5090565b828054828255906000526020600020908101928215612e725791602002820182811115612e72578251825591602001919060010190612e57565b604051806102800160405280600081526020016000815260200160008152602001600081526020016000815260200160008152602001600081526020016000815260200160008152602001600081526020016000815260200160008152602001606081526020016060815260200160608152602001612f39612fbf565b8152602001606081526020016060815260200160001515815260200160006001600160a01b031681525090565b828054828255906000526020600020908101928215612fb3579160200282015b82811115612fb35782518051612fa3918491602090910190612dfe565b5091602001919060010190612f86565b50612e7e929150613050565b604051806040016040528060008152602001600081525090565b6040518060a00160405280612fec612fbf565b8152602001600081526020016000815260200160008152602001613023604051806040016040528060008152602001600081525090565b905290565b6040518060a00160405280612fec61306d565b5b80821115612e7e576000815560010161303c565b80821115612e7e576000613064828261308d565b50600101613050565b6040518060400160405280613080612fbf565b8152602001613023612fbf565b50805461309990613d5b565b6000825580601f106130a9575050565b601f0160209004906000526020600020908101906130c7919061303b565b50565b634e487b7160e01b600052604160045260246000fd5b604080519081016001600160401b0381118282101715613102576131026130ca565b60405290565b60405160a081016001600160401b0381118282101715613102576131026130ca565b604051601f8201601f191681016001600160401b0381118282101715613152576131526130ca565b604052919050565b60006001600160401b03821115613173576131736130ca565b5060051b60200190565b600082601f83011261318e57600080fd5b81356001600160401b038111156131a7576131a76130ca565b6131ba601f8201601f191660200161312a565b8181528460208386010111156131cf57600080fd5b816020850160208301376000918101602001919091529392505050565b600060208083850312156131ff57600080fd5b82356001600160401b038082111561321657600080fd5b818501915085601f83011261322a57600080fd5b813561323d6132388261315a565b61312a565b81815260059190911b8301840190848101908883111561325c57600080fd5b8585015b83811015613294578035858111156132785760008081fd5b6132868b89838a010161317d565b845250918601918601613260565b5098975050505050505050565b6000602082840312156132b357600080fd5b5035919050565b60005b838110156132d55781810151838201526020016132bd565b838111156132e4576000848401525b50505050565b600081518084526133028160208601602086016132ba565b601f01601f19169290920160200192915050565b83815260606020820152600061332f60608301856132ea565b9050826040830152949350505050565b60006040828403121561335157600080fd5b6133596130e0565b9050813581526020820135602082015292915050565b6000602080838503121561338257600080fd5b82356001600160401b0381111561339857600080fd5b8301601f810185136133a957600080fd5b80356133b76132388261315a565b81815260069190911b820183019083810190878311156133d657600080fd5b928401925b828410156133ff576133ed888561333f565b825284820191506040840193506133db565b979650505050505050565b60006080828403121561341c57600080fd5b6134246130e0565b9050613430838361333f565b815261343f836040840161333f565b602082015292915050565b600080600080600080610120878903121561346457600080fd5b61346e888861340a565b95506080870135945060a0870135935060c08701356001600160401b038082111561349857600080fd5b818901915089601f8301126134ac57600080fd5b8135818111156134bb57600080fd5b8a60208260051b85010111156134d057600080fd5b6020830195508094505050506134e98860e0890161333f565b90509295509295509295565b6020815260006120c460208301846132ea565b6000815180845260208085019450848260051b860182860160005b8581101561354d57838303895261353b8383516132ea565b98850198925090840190600101613523565b5090979650505050505050565b600081518084526020808501945080840160005b8381101561359e5761358b87835180518252602090810151910152565b604096909601959082019060010161356e565b509495945050505050565b6000815180845260208085019450848260051b860182860160005b8581101561354d57838303895281516060815185528682015181888701526135ee828701826132ea565b604093840151969093019590955250988501989250908401906001016135c4565b6020815281516020820152602082015160408201526040820151606082015260608201516080820152608082015160a082015260a082015160c082015260c082015160e0820152600060e08301516101008181850152808501519150506101208181850152808501519150506101408181850152808501519150506101608181850152808501519150506101808181850152808501519150506102a06101a081818601526136c16102c08601846132ea565b9250808601519050601f196101c08187860301818801526136e285846132ea565b9450808801519250506101e08187860301818801526137018584613508565b9450808801519250506102006137238188018480518252602090810151910152565b80880151925050610240818786030181880152613740858461355a565b9450610220880151925061026082888703018189015261376086856135a9565b955081890151935061377761028089018515159052565b8801516001600160a01b038116858901529250613792915050565b5090949350505050565b6000602082840312156137ae57600080fd5b81356001600160401b038111156137c457600080fd5b6123288482850161317d565b600082601f8301126137e157600080fd5b813560206137f16132388361315a565b828152610120928302850182019282820191908785111561381157600080fd5b8387015b8581101561354d5781818a03121561382d5760008081fd5b613835613108565b61383f8a8361340a565b81526080808301358783015260a0830135604083015260c0830135606083015261386c8b60e0850161333f565b908201528452928401928101613815565b600080604080848603121561389157600080fd5b83356001600160401b03808211156138a857600080fd5b818601915086601f8301126138bc57600080fd5b813560206138cc6132388361315a565b82815260e0928302850182019282820191908b8511156138eb57600080fd5b958301955b848710156139595780878d0312156139085760008081fd5b613910613108565b61391a8d8961333f565b815288880135858201526060808901358a8301526080808a0135828401526139458f60a08c0161333f565b9083015250835295860195918301916138f0565b509750508701359350508083111561397057600080fd5b505061397e858286016137d0565b9150509250929050565b61399d82825180518252602090810151910152565b602090810151805160408401520151606090910152565b60006020808301818452808551808352604092508286019150828160051b8701018488016000805b84811015613a9957898403603f1901865282518051855288810151898601528781015188860152606080820151908601526080808201519086015260a08082015161018091870182905280519187018290526101a0870191908b0190855b81811015613a565782518452928c0192918c0191600101613a3a565b50505060c082810151805188830152602081015160e0890152505060e08201519150613a86610100870183613988565b96890196945050918701916001016139dc565b50919998505050505050505050565b60008082840360a0811215613abc57600080fd5b6080811215613aca57600080fd5b50919360808501359350915050565b8151815260208083015190820152604081016120c7565b602080825282518282018190526000919060409081850190868401855b82811015613b71578151613b2c85825180518252602090810151910152565b8087015185870152858101516060808701919091528101516080808701919091520151805160a08601526020015160c085015260e09093019290850190600101613b0d565b5091979650505050505050565b602080825282518282018190526000919060409081850190868401855b82811015613b71578151613bb0858251613988565b808701516080868101919091528682015160a0870152606082015160c08701520151805160e0860152602001516101008501526101209093019290850190600101613b9b565b600060a08284031215613c0857600080fd5b50919050565b602080825282518282018190526000919060409081850190868401855b82811015613b71578151805185528681015187860152858101518686015260609081015180519186019190915260200151608085015260a09093019290850190600101613c2b565b634e487b7160e01b600052603260045260246000fd5b634e487b7160e01b600052601160045260246000fd5b6000600019821415613cb357613cb3613c89565b5060010190565b600060408083018184528086548083526060925082860191508760005260208060002060005b83811015613d2e5781548552600182015483860152600282015487860152613d18868601600384018054825260010154602090910152565b60a0949094019360059190910190600101613ce0565b505095909501959095525092949350505050565b600060208284031215613d5457600080fd5b5051919050565b600181811c90821680613d6f57607f821691505b60208210811415613c0857634e487b7160e01b600052602260045260246000fd5b600060408284031215613da257600080fd5b604051604081018181106001600160401b0382111715613dc457613dc46130ca565b604052825181526020928301519281019290925250919050565b60008251613df08184602087016132ba565b9190910192915050565b600060208083526101408301845182850152818501516040850152604085015160608501526060850151610120806080870152828251808552610160880191508584019450600093505b80841015613e645784518252938501936001939093019290850190613e44565b506080880151805160a0890152602081015160c0890152945060a0880151805160e08901526020810151610100890152945060c0880151878203601f1901838901529450613eb2818661355a565b98975050505050505050565b600060208284031215613ed057600080fd5b81518015158114613ee057600080fd5b9392505050565b6020808252601790820152761d1a19481d985b1d595cc81dd85cc81b5bd91a599a5959604a1b604082015260600190565b600060a082019050825182526020830151602083015260408301516040830152606083015160608301526080830151608083015292915050565b602080825260179082015276496e76616c6964204543445341205369676e617475726560481b604082015260600190565b6020808252818101527f596f7520616c72656164792075706c6f6164656420796f75722076616c756573604082015260600190565b823581526020808401359082015260a08101613fe4604083016040860180358252602090810135910152565b8260808301529392505050565b6020815260006120c4602083018461355a565b825481526001830154602082015260a081016002840154604083015260038401546060830152613fe4565b6000815480845260208085019450836000528060002060005b8381101561359e57815487529582019560019182019101614048565b600081548084526020808501808196506005915083821b8101866000528360002060005b8681101561412e578383038a52610180825484526001830154878501526002830154604085015260038301546060850152600483015460808501528060a08501526140d781850187850161402f565b600684015460c0860152600784015460e086015260088401546101008601526009840154610120860152600a840154610140860152600b8401546101608601529050998601999250600c9190910190600101614088565b509098975050505050505050565b60006040808301818452808654808352606092508286019150828160051b87010160008981526020808220825b8581101561423b578a8503605f190187528154855282850188905260018083018054869080841c8185168061419f57607f821691505b8882108114156141bd57634e487b7160e01b8a52602260045260248afd5b8a8e018281526020018180156141da57600181146141eb57614215565b60ff19851682528a82019550614215565b6000878152602090208c5b8581101561420f57815484820152908901908c016141f6565b83019650505b505050506002860154988d01989098529885019896505060039092019150600101614169565b5050888303908901525061424f8189614064565b9998505050505050505050565b6000821982111561426f5761426f613c89565b50019056fea2646970667358221220424dcdbac733389290ee2f5d07ae88b934de5ca441f62524fda137156f75efa964736f6c634300080a0033",
  "immutableReferences": {},
  "source": "// SPDX-License-Identifier: MIT\r\npragma solidity >=0.4.22 <0.9.0;\r\n\r\nimport './Utils.sol';\r\n\r\ncontract Election {\r\n\r\n    address public owner;\r\n    \r\n    string public title;\r\n    string public description;\r\n    string[] public public_keys;\r\n\r\n    uint public id;\r\n    uint public candidateCount;\r\n    uint public voterCount;\r\n    uint public post_time;\r\n    uint public key_gen_end_time;\r\n    uint public vote_end_time;\r\n    uint public secret_upload_end_time;\r\n    uint public totalVoteCount;\r\n    uint public min_shares;\r\n    uint public totatKeygenValueSentCount;\r\n    uint public totalSubSecretSentCount;\r\n\r\n    bool public isTallied;\r\n    bool public isTitleSet;\r\n    bool public isDescriptionSet;\r\n    bool public isCandidateCountSet;\r\n    bool public isCandidatesSet;\r\n    bool public isPublic_keysSet;\r\n    bool public isECPublic_keysSet;\r\n    bool public isVoterCount;\r\n    bool public isMinSharesSet;\r\n    bool public isVoteTallied;\r\n\r\n    // linkable ring signature varaibles \r\n    uint256 public L;\r\n    Utils.ECPoint public H;\r\n    mapping(bytes20 => bool) K_list;\r\n    Utils.ECPoint[] public EC_public_keys;\r\n\r\n\r\n    // Model a candidate\r\n    struct Candidate{\r\n        uint id;\r\n        string name;\r\n        uint voteCount;\r\n    }\r\n\r\n    // Store candidates\r\n    Candidate[] public candidates; \r\n\r\n    struct F{\r\n        Utils.ECPoint p;\r\n        uint i;\r\n        uint j;\r\n        uint256 h;\r\n        Utils.ECDSA_Sig sig;\r\n    }\r\n\r\n\r\n\r\n    struct f{\r\n        Utils.Elgamal_ciphertext ciphertext;\r\n        uint i;\r\n        uint j;\r\n        uint256 h;\r\n        Utils.ECDSA_Sig sig;\r\n    }\r\n\r\n    mapping(bytes20 => F) F_2d;\r\n    mapping(bytes20 => f) f_2d;\r\n    mapping(bytes20 => bool) isF_2d;\r\n    mapping(bytes20 => bool) isf_2d;\r\n\r\n\r\n    Utils.SubSecretWithSig[] subSecrets;\r\n    mapping(uint => bool) isSubSecrets; \r\n\r\n\r\n    // Model a ballot\r\n    struct Ballot{\r\n        uint id;\r\n        uint voteTime;\r\n        int candidate_id;\r\n        uint256 encVoteHash;\r\n        uint256 U0;\r\n        uint256[] V;\r\n        Utils.ECPoint K;\r\n        Utils.Elgamal_ciphertext encVote;\r\n    }\r\n\r\n    // Store ballots\r\n    Ballot[] ballots;\r\n\r\n    // Model a election Data\r\n    struct ElectionData{\r\n        uint id;\r\n        uint post_time;\r\n        uint key_gen_end_time;\r\n        uint vote_end_time;\r\n        uint secret_upload_end_time;\r\n        uint min_shares;\r\n        uint candidateCount;\r\n        uint voterCount;\r\n        uint totalVoteCount;\r\n        uint totatKeygenValueSentCount;\r\n        uint totalSubSecretSentCount;\r\n        uint256 L; \r\n        string title;\r\n        string description;\r\n        string[] public_keys;\r\n        Utils.ECPoint H;\r\n        Utils.ECPoint[] EC_public_keys;\r\n        Candidate[] candidates;\r\n        bool isTallied;\r\n        address owner;\r\n    }\r\n\r\n    // new Vote Event\r\n    event newVoteEvent(uint totalVoteCount);\r\n    // add Keygen value Event\r\n    event addKeygenValueEvent(uint totatKeygenValueSentCount);\r\n    // add SubSecret Event\r\n    event addSubSecretEvent(uint totalSubSecretSentCount);\r\n    // tally vote Event\r\n    event tallyVoteEvent(Candidate[] candidates, Ballot[] ballots);\r\n\r\n\r\n    function setTitle(string memory _title) public{\r\n        require(!isTitleSet,\"title is already set.\");\r\n        title = _title;\r\n        isTitleSet = true;\r\n    }\r\n\r\n    function setDescription(string memory _description) public{\r\n        require(!isDescriptionSet,\"Description is already set.\");\r\n        description = _description;\r\n        isDescriptionSet = true;\r\n    }\r\n\r\n    function setPublicKeys(string[] memory _public_keys) public{\r\n        require(!isPublic_keysSet,\"Public_keys is already set.\");\r\n        public_keys = _public_keys;\r\n        voterCount = public_keys.length;\r\n        isPublic_keysSet = true;\r\n        isVoterCount = true;\r\n    }\r\n\r\n    function setECpublickeys(Utils.ECPoint[] memory _EC_public_keys) public{\r\n        require(!isECPublic_keysSet,\"EC Public_keys is already set.\");\r\n        L = 0;\r\n        uint256 tmp;\r\n        for(uint i=0;i<_EC_public_keys.length;i++){\r\n            // store EC public keys \r\n            EC_public_keys.push(Utils.ECPoint(_EC_public_keys[i].x,_EC_public_keys[i].y));\r\n            // compute L = sum of (PubKey.X + PubKey.Y);\r\n            tmp = addmod(_EC_public_keys[i].x,_EC_public_keys[i].y,Utils.NN);\r\n            L = addmod(L,tmp,Utils.NN);\r\n            \r\n        }\r\n        // compute H\r\n        H = Utils.hash2(L);\r\n\r\n        isECPublic_keysSet = true;\r\n    }\r\n    function setCandidates(string[] memory _candidates) public{\r\n        require(!isCandidatesSet,\"Candidates is already set.\");\r\n        for(uint i=0;i<_candidates.length;i++){\r\n            candidates.push(Candidate(i,_candidates[i],0));\r\n        }\r\n        candidateCount = candidates.length;\r\n        isCandidatesSet = true;\r\n        isCandidateCountSet = true;\r\n    }\r\n    function setMinShares(uint _min_shares) public{\r\n        require(!isMinSharesSet,\"MinShares is already set.\");\r\n        min_shares = _min_shares;\r\n        isMinSharesSet = true;\r\n    }\r\n\r\n    constructor(address _onwer,uint _id,uint _post_time,\r\n    uint _key_gen_end_time,uint _vote_end_time, uint _secret_upload_end_time){\r\n        \r\n        owner = _onwer;\r\n        id = _id;\r\n\r\n        post_time = _post_time;\r\n        key_gen_end_time = _key_gen_end_time;\r\n        vote_end_time = _vote_end_time;\r\n        secret_upload_end_time = _secret_upload_end_time;\r\n\r\n\r\n    }\r\n\r\n    function getVotePublicKey() external view returns (Utils.ECPoint memory){\r\n        Utils.ECPoint memory votePublicKey;\r\n        \r\n        bytes20 h; \r\n        Utils.ECPoint[] memory _P = new Utils.ECPoint[](voterCount);\r\n        for(uint i=0;i<voterCount;i++){\r\n        h = ripemd160(abi.encodePacked(i,uint256(0)));\r\n        _P[i] = F_2d[h].p;\r\n        }\r\n        votePublicKey = Utils.setVotePublicKey(_P);\r\n        \r\n        return votePublicKey; \r\n    }\r\n\r\n    function getBallot() external view returns(Ballot[] memory){\r\n        return ballots;\r\n    }\r\n\r\n    function addSubSecret(Utils.SubSecretWithSig calldata _s) external{\r\n        // verify secret upload peroid: vote end time <= now < secret_upload_end_time\r\n        // require(vote_end_time<=block.timestamp &&block.timestamp < secret_upload_end_time,\"invalid subscret upload time\");\r\n        uint256 h = uint256(keccak256(abi.encodePacked(_s.subSecret,_s.i)));\r\n        require(h == _s.h,\"the subSecret or i wast modified.\");\r\n        require(isSubSecrets[h] == false,\"Your subSecret was uploaded.\");\r\n        \r\n        bool isValidSig = Utils.ecdsa_verify(Utils.ECDSA_parameters(_s.sig.r, _s.sig.s, h, \r\n        EC_public_keys[_s.i].x, EC_public_keys[_s.i].y));\r\n        require(isValidSig == true,\"Invaluid ECDSA Signature\");\r\n\r\n        subSecrets.push(_s);\r\n        isSubSecrets[_s.i] = true;\r\n        totalSubSecretSentCount++;\r\n\r\n        emit addSubSecretEvent(totalSubSecretSentCount);\r\n    }\r\n\r\n    function getSubSecrets() external view returns(Utils.SubSecretWithSig[] memory){\r\n        return subSecrets;\r\n    }\r\n\r\n    function getF0() external view returns(F[] memory){\r\n        bytes20 h; \r\n        F[] memory _F = new F[](voterCount);\r\n        for(uint i=0;i<voterCount;i++){\r\n           h = ripemd160(abi.encodePacked(i,uint256(0)));\r\n           _F[i] = F_2d[h];\r\n        }\r\n        return _F; \r\n    }\r\n\r\n    function getF(uint _publicKeyIndex) external view returns(F[] memory){\r\n        bytes20 h; \r\n        F[] memory _F = new F[](voterCount); \r\n        for(uint i=0;i<voterCount;i++){\r\n           h = ripemd160(abi.encodePacked(i,_publicKeyIndex+1));\r\n           _F[i] = F_2d[h];\r\n        }\r\n          \r\n        return _F;\r\n    }\r\n\r\n    function getf(uint _publicKeyIndex) external view returns(f[] memory){\r\n        bytes20 h; \r\n        f[] memory _f = new f[](voterCount); \r\n        for(uint i=0;i<voterCount;i++){\r\n           h = ripemd160(abi.encodePacked(i,_publicKeyIndex+1));\r\n           _f[i] = f_2d[h];\r\n        }\r\n          \r\n        return _f;\r\n    }\r\n\r\n    function addKeyGenVal(F[] memory _F, f[] memory _f) external{\r\n        // verify key gen peroid: now < key_gen_end_time\r\n        // require(block.timestamp < key_gen_end_time,\"invalid key generation time\");\r\n        bytes20 h;\r\n        uint256 hm; // hashed message\r\n        bool isValidSig;\r\n        for(uint z;z<min_shares;z++){\r\n            hm = uint256(keccak256(abi.encodePacked(\r\n                _F[z].p.x,_F[z].p.y,_F[z].i,_F[z].j\r\n                )));\r\n            require(hm == _F[z].h,\"the values was modified\");\r\n            isValidSig = Utils.ecdsa_verify(Utils.ECDSA_parameters(\r\n                _F[z].sig.r,_F[z].sig.s,hm,\r\n                EC_public_keys[_F[z].i].x,EC_public_keys[_F[z].i].y\r\n                ));\r\n            require(isValidSig == true,\"Invalid ECDSA Signature\");\r\n            h = ripemd160(abi.encodePacked(_F[z].i,_F[z].j));\r\n            require(isF_2d[h] == false,\"You already uploaded your values\");\r\n            isF_2d[h] = true;\r\n            F_2d[h] = _F[z];\r\n        }\r\n        for(uint z;z<voterCount;z++){\r\n            hm = uint256(keccak256(abi.encodePacked(\r\n                _f[z].ciphertext.C.x,_f[z].ciphertext.C.y,\r\n                _f[z].ciphertext.D.x,_f[z].ciphertext.D.y\r\n                ,_f[z].i,_f[z].j\r\n                )));\r\n            require(hm == _f[z].h,\"the values was modified\");\r\n            isValidSig = Utils.ecdsa_verify(Utils.ECDSA_parameters(\r\n                _f[z].sig.r,_f[z].sig.s,hm,\r\n                EC_public_keys[_f[z].i].x,EC_public_keys[_f[z].i].y\r\n                ));\r\n            require(isValidSig == true,\"Invalid ECDSA Signature\");\r\n            h = ripemd160(abi.encodePacked(_f[z].i,_f[z].j));\r\n            require(isf_2d[h] == false,\"You already uploaded your values\");\r\n            isf_2d[h] = true;\r\n            f_2d[h] = _f[z];\r\n        }\r\n        totatKeygenValueSentCount++;\r\n        emit addKeygenValueEvent(totatKeygenValueSentCount);\r\n    }\r\n\r\n    function addVote(Utils.Elgamal_ciphertext memory _encVote,uint256 _encVoteHash,\r\n    uint256 _U0, uint256[] calldata _V, Utils.ECPoint memory _K) \r\n    external{\r\n        // verify vote peroid: key_gen_end_time <= now < vote_end_time\r\n        require(key_gen_end_time<= block.timestamp && block.timestamp < vote_end_time,\"invalid vote time\");\r\n        \r\n        // hash of _K\r\n        bytes20 h = ripemd160(abi.encodePacked(_K.x,_K.y));\r\n\r\n        // hash of _K should not exit in K_list\r\n        require(K_list[h] == false,\"you are already voted\");\r\n        \r\n        // verify encrypted vote does not modified.\r\n        uint256 evh; // hashed enc vote\r\n        evh = uint256(keccak256(abi.encodePacked(\r\n            _encVote.C.x, _encVote.C.y,  \r\n            _encVote.D.x, _encVote.D.y\r\n            )));\r\n        require(evh == _encVoteHash,\"encrypted Vote was modified.\");\r\n\r\n        // verify linkable ring signature\r\n        bool U = Utils.verifyLRS(Utils.LRS_parameters(_encVoteHash,_U0,L,_V,H,_K,EC_public_keys));\r\n\r\n        require(U == true,\"invalid linkable ring signature\");\r\n\r\n        // add ballot\r\n        ballots.push(Ballot(totalVoteCount,block.timestamp,-1,_encVoteHash,_U0,_V,_K,_encVote));\r\n        totalVoteCount++;\r\n\r\n        // add _K into K_list\r\n        K_list[h] = true;\r\n\r\n        emit newVoteEvent(totalVoteCount);\r\n    }\r\n\r\n    function getVotePrivateKey() public view returns(uint256){\r\n        // verify tally time : vote_end_time <= now \r\n        // require(vote_end_time<= block.timestamp,\"invalid tally time\");\r\n\r\n        return Utils.setVotePrivateKey(subSecrets,min_shares);\r\n    }\r\n\r\n    function decryptVote(Utils.Elgamal_ciphertext calldata _encVote\r\n    , uint256 _votePrvKey) external pure returns(uint256){\r\n        return Utils.elgamal_decrypt(_encVote,_votePrvKey);\r\n    }\r\n\r\n    function tallyVote() external{\r\n        // verify tally time : vote_end_time <= now \r\n        // require(vote_end_time<= block.timestamp,\"invalid tally time\");\r\n\r\n        // check whether the vote already tallied\r\n        require(isVoteTallied == false,\"the vote already tallied\");\r\n\r\n        uint256 votePrkKey = Utils.setVotePrivateKey(subSecrets,min_shares); //vote private key\r\n        uint cID; // candidate ID\r\n\r\n        for(uint i=0; i<ballots.length;i++){\r\n            cID = uint(Utils.elgamal_decrypt(ballots[i].encVote,votePrkKey));\r\n            ballots[i].candidate_id = int(cID);\r\n            candidates[cID].voteCount++;\r\n        }\r\n        \r\n        isVoteTallied = true;\r\n\r\n        emit tallyVoteEvent(candidates,ballots);\r\n    }\r\n\r\n    function getElectionData() public view returns(ElectionData memory){\r\n        return ElectionData(id,post_time,key_gen_end_time,vote_end_time\r\n        ,secret_upload_end_time,min_shares,candidateCount,voterCount\r\n        ,totalVoteCount,totatKeygenValueSentCount,totalSubSecretSentCount,\r\n        L,title,description,\r\n        public_keys,H,EC_public_keys,candidates\r\n        ,isTallied,owner);\r\n    } \r\n}",
  "sourcePath": "C:\\Users\\tim\\Desktop\\e-voting\\src\\contracts\\Election.sol",
  "compiler": {
    "name": "solc",
    "version": "0.8.10+commit.fc410830.Emscripten.clang"
  },
  "schemaVersion": "3.4.4",
  "updatedAt": "2022-01-26T08:37:38.310Z",
  "networkType": "ethereum",
  "devdoc": {
    "kind": "dev",
    "methods": {},
    "version": 1
  },
  "userdoc": {
    "kind": "user",
    "methods": {},
    "version": 1
  }
}