{
  "contractName": "Election",
  "abi": [
    {
      "inputs": [
        {
          "internalType": "address",
          "name": "_onwer",
          "type": "address"
        },
        {
          "internalType": "uint256",
          "name": "_id",
          "type": "uint256"
        },
        {
          "internalType": "string",
          "name": "_title",
          "type": "string"
        },
        {
          "internalType": "string",
          "name": "_description",
          "type": "string"
        },
        {
          "internalType": "uint256",
          "name": "_min_shares",
          "type": "uint256"
        },
        {
          "internalType": "uint256",
          "name": "_post_time",
          "type": "uint256"
        },
        {
          "internalType": "uint256",
          "name": "_key_gen_end_time",
          "type": "uint256"
        },
        {
          "internalType": "uint256",
          "name": "_key_ver_end_time",
          "type": "uint256"
        },
        {
          "internalType": "uint256",
          "name": "_vote_end_time",
          "type": "uint256"
        },
        {
          "internalType": "uint256",
          "name": "_secret_upload_end_time",
          "type": "uint256"
        }
      ],
      "stateMutability": "nonpayable",
      "type": "constructor"
    },
    {
      "anonymous": false,
      "inputs": [
        {
          "indexed": false,
          "internalType": "uint256",
          "name": "totatKeygenValueSentCount",
          "type": "uint256"
        }
      ],
      "name": "addKeygenValueEvent",
      "type": "event"
    },
    {
      "anonymous": false,
      "inputs": [
        {
          "indexed": false,
          "internalType": "uint256",
          "name": "totalSubSecretSentCount",
          "type": "uint256"
        }
      ],
      "name": "addSubSecretEvent",
      "type": "event"
    },
    {
      "anonymous": false,
      "inputs": [
        {
          "indexed": false,
          "internalType": "uint256",
          "name": "totalVoteCount",
          "type": "uint256"
        }
      ],
      "name": "newVoteEvent",
      "type": "event"
    },
    {
      "anonymous": false,
      "inputs": [
        {
          "components": [
            {
              "internalType": "uint256",
              "name": "id",
              "type": "uint256"
            },
            {
              "internalType": "string",
              "name": "name",
              "type": "string"
            },
            {
              "internalType": "uint256",
              "name": "voteCount",
              "type": "uint256"
            }
          ],
          "indexed": false,
          "internalType": "struct Election.Candidate[]",
          "name": "candidates",
          "type": "tuple[]"
        },
        {
          "components": [
            {
              "internalType": "uint256",
              "name": "id",
              "type": "uint256"
            },
            {
              "internalType": "uint256",
              "name": "voteTime",
              "type": "uint256"
            },
            {
              "internalType": "int256",
              "name": "candidate_id",
              "type": "int256"
            },
            {
              "internalType": "uint256",
              "name": "encVoteHash",
              "type": "uint256"
            },
            {
              "internalType": "uint256",
              "name": "U0",
              "type": "uint256"
            },
            {
              "internalType": "uint256[]",
              "name": "V",
              "type": "uint256[]"
            },
            {
              "components": [
                {
                  "internalType": "uint256",
                  "name": "x",
                  "type": "uint256"
                },
                {
                  "internalType": "uint256",
                  "name": "y",
                  "type": "uint256"
                }
              ],
              "internalType": "struct Secp256r1.ECPoint",
              "name": "K",
              "type": "tuple"
            },
            {
              "components": [
                {
                  "components": [
                    {
                      "internalType": "uint256",
                      "name": "x",
                      "type": "uint256"
                    },
                    {
                      "internalType": "uint256",
                      "name": "y",
                      "type": "uint256"
                    }
                  ],
                  "internalType": "struct Secp256r1.ECPoint",
                  "name": "C",
                  "type": "tuple"
                },
                {
                  "components": [
                    {
                      "internalType": "uint256",
                      "name": "x",
                      "type": "uint256"
                    },
                    {
                      "internalType": "uint256",
                      "name": "y",
                      "type": "uint256"
                    }
                  ],
                  "internalType": "struct Secp256r1.ECPoint",
                  "name": "D",
                  "type": "tuple"
                }
              ],
              "internalType": "struct Elgamal.Elgamal_ciphertext",
              "name": "encVote",
              "type": "tuple"
            }
          ],
          "indexed": false,
          "internalType": "struct Election.Ballot[]",
          "name": "ballots",
          "type": "tuple[]"
        }
      ],
      "name": "tallyVoteEvent",
      "type": "event"
    },
    {
      "anonymous": false,
      "inputs": [
        {
          "indexed": false,
          "internalType": "uint256[]",
          "name": "illegitimate_voter_indeces",
          "type": "uint256[]"
        }
      ],
      "name": "verifySharesEvent",
      "type": "event"
    },
    {
      "inputs": [
        {
          "internalType": "uint256",
          "name": "",
          "type": "uint256"
        }
      ],
      "name": "EC_public_keys",
      "outputs": [
        {
          "internalType": "uint256",
          "name": "x",
          "type": "uint256"
        },
        {
          "internalType": "uint256",
          "name": "y",
          "type": "uint256"
        }
      ],
      "stateMutability": "view",
      "type": "function"
    },
    {
      "inputs": [],
      "name": "H",
      "outputs": [
        {
          "internalType": "uint256",
          "name": "x",
          "type": "uint256"
        },
        {
          "internalType": "uint256",
          "name": "y",
          "type": "uint256"
        }
      ],
      "stateMutability": "view",
      "type": "function"
    },
    {
      "inputs": [],
      "name": "L",
      "outputs": [
        {
          "internalType": "uint256",
          "name": "",
          "type": "uint256"
        }
      ],
      "stateMutability": "view",
      "type": "function"
    },
    {
      "inputs": [],
      "name": "candidateCount",
      "outputs": [
        {
          "internalType": "uint256",
          "name": "",
          "type": "uint256"
        }
      ],
      "stateMutability": "view",
      "type": "function"
    },
    {
      "inputs": [
        {
          "internalType": "uint256",
          "name": "",
          "type": "uint256"
        }
      ],
      "name": "candidates",
      "outputs": [
        {
          "internalType": "uint256",
          "name": "id",
          "type": "uint256"
        },
        {
          "internalType": "string",
          "name": "name",
          "type": "string"
        },
        {
          "internalType": "uint256",
          "name": "voteCount",
          "type": "uint256"
        }
      ],
      "stateMutability": "view",
      "type": "function"
    },
    {
      "inputs": [],
      "name": "description",
      "outputs": [
        {
          "internalType": "string",
          "name": "",
          "type": "string"
        }
      ],
      "stateMutability": "view",
      "type": "function"
    },
    {
      "inputs": [],
      "name": "id",
      "outputs": [
        {
          "internalType": "uint256",
          "name": "",
          "type": "uint256"
        }
      ],
      "stateMutability": "view",
      "type": "function"
    },
    {
      "inputs": [
        {
          "internalType": "uint256",
          "name": "",
          "type": "uint256"
        }
      ],
      "name": "illegitimate_voter_indeces",
      "outputs": [
        {
          "internalType": "uint256",
          "name": "",
          "type": "uint256"
        }
      ],
      "stateMutability": "view",
      "type": "function"
    },
    {
      "inputs": [],
      "name": "isVoteTallied",
      "outputs": [
        {
          "internalType": "bool",
          "name": "",
          "type": "bool"
        }
      ],
      "stateMutability": "view",
      "type": "function"
    },
    {
      "inputs": [],
      "name": "key_gen_end_time",
      "outputs": [
        {
          "internalType": "uint256",
          "name": "",
          "type": "uint256"
        }
      ],
      "stateMutability": "view",
      "type": "function"
    },
    {
      "inputs": [],
      "name": "key_ver_end_time",
      "outputs": [
        {
          "internalType": "uint256",
          "name": "",
          "type": "uint256"
        }
      ],
      "stateMutability": "view",
      "type": "function"
    },
    {
      "inputs": [],
      "name": "min_shares",
      "outputs": [
        {
          "internalType": "uint256",
          "name": "",
          "type": "uint256"
        }
      ],
      "stateMutability": "view",
      "type": "function"
    },
    {
      "inputs": [],
      "name": "owner",
      "outputs": [
        {
          "internalType": "address",
          "name": "",
          "type": "address"
        }
      ],
      "stateMutability": "view",
      "type": "function"
    },
    {
      "inputs": [],
      "name": "post_time",
      "outputs": [
        {
          "internalType": "uint256",
          "name": "",
          "type": "uint256"
        }
      ],
      "stateMutability": "view",
      "type": "function"
    },
    {
      "inputs": [
        {
          "internalType": "uint256",
          "name": "",
          "type": "uint256"
        }
      ],
      "name": "public_keys",
      "outputs": [
        {
          "internalType": "string",
          "name": "",
          "type": "string"
        }
      ],
      "stateMutability": "view",
      "type": "function"
    },
    {
      "inputs": [],
      "name": "secret_upload_end_time",
      "outputs": [
        {
          "internalType": "uint256",
          "name": "",
          "type": "uint256"
        }
      ],
      "stateMutability": "view",
      "type": "function"
    },
    {
      "inputs": [],
      "name": "title",
      "outputs": [
        {
          "internalType": "string",
          "name": "",
          "type": "string"
        }
      ],
      "stateMutability": "view",
      "type": "function"
    },
    {
      "inputs": [],
      "name": "totalSubSecretSentCount",
      "outputs": [
        {
          "internalType": "uint256",
          "name": "",
          "type": "uint256"
        }
      ],
      "stateMutability": "view",
      "type": "function"
    },
    {
      "inputs": [],
      "name": "totalVoteCount",
      "outputs": [
        {
          "internalType": "uint256",
          "name": "",
          "type": "uint256"
        }
      ],
      "stateMutability": "view",
      "type": "function"
    },
    {
      "inputs": [],
      "name": "totatKeygenValueSentCount",
      "outputs": [
        {
          "internalType": "uint256",
          "name": "",
          "type": "uint256"
        }
      ],
      "stateMutability": "view",
      "type": "function"
    },
    {
      "inputs": [],
      "name": "vote_end_time",
      "outputs": [
        {
          "internalType": "uint256",
          "name": "",
          "type": "uint256"
        }
      ],
      "stateMutability": "view",
      "type": "function"
    },
    {
      "inputs": [],
      "name": "voterCount",
      "outputs": [
        {
          "internalType": "uint256",
          "name": "",
          "type": "uint256"
        }
      ],
      "stateMutability": "view",
      "type": "function"
    },
    {
      "inputs": [
        {
          "components": [
            {
              "components": [
                {
                  "internalType": "uint256",
                  "name": "x",
                  "type": "uint256"
                },
                {
                  "internalType": "uint256",
                  "name": "y",
                  "type": "uint256"
                }
              ],
              "internalType": "struct Secp256r1.ECPoint",
              "name": "H2",
              "type": "tuple"
            },
            {
              "internalType": "uint256",
              "name": "i",
              "type": "uint256"
            },
            {
              "internalType": "uint256",
              "name": "j",
              "type": "uint256"
            },
            {
              "components": [
                {
                  "internalType": "uint256",
                  "name": "c",
                  "type": "uint256"
                },
                {
                  "internalType": "uint256",
                  "name": "r",
                  "type": "uint256"
                }
              ],
              "internalType": "struct CPProof.CPproof",
              "name": "proof",
              "type": "tuple"
            }
          ],
          "internalType": "struct Shares.VerSharesPar[]",
          "name": "_Par",
          "type": "tuple[]"
        }
      ],
      "name": "setDisqualifiedPubKeyIndece",
      "outputs": [],
      "stateMutability": "nonpayable",
      "type": "function"
    },
    {
      "inputs": [
        {
          "internalType": "string[]",
          "name": "_public_keys",
          "type": "string[]"
        }
      ],
      "name": "setPublicKeys",
      "outputs": [],
      "stateMutability": "nonpayable",
      "type": "function"
    },
    {
      "inputs": [
        {
          "components": [
            {
              "internalType": "uint256",
              "name": "x",
              "type": "uint256"
            },
            {
              "internalType": "uint256",
              "name": "y",
              "type": "uint256"
            }
          ],
          "internalType": "struct Secp256r1.ECPoint[]",
          "name": "_EC_public_keys",
          "type": "tuple[]"
        }
      ],
      "name": "setECpublickeys",
      "outputs": [],
      "stateMutability": "nonpayable",
      "type": "function"
    },
    {
      "inputs": [
        {
          "internalType": "string[]",
          "name": "_candidates",
          "type": "string[]"
        }
      ],
      "name": "setCandidates",
      "outputs": [],
      "stateMutability": "nonpayable",
      "type": "function"
    },
    {
      "inputs": [],
      "name": "getVotePublicKey",
      "outputs": [
        {
          "components": [
            {
              "internalType": "uint256",
              "name": "x",
              "type": "uint256"
            },
            {
              "internalType": "uint256",
              "name": "y",
              "type": "uint256"
            }
          ],
          "internalType": "struct Secp256r1.ECPoint",
          "name": "",
          "type": "tuple"
        }
      ],
      "stateMutability": "view",
      "type": "function"
    },
    {
      "inputs": [],
      "name": "getBallot",
      "outputs": [
        {
          "components": [
            {
              "internalType": "uint256",
              "name": "id",
              "type": "uint256"
            },
            {
              "internalType": "uint256",
              "name": "voteTime",
              "type": "uint256"
            },
            {
              "internalType": "int256",
              "name": "candidate_id",
              "type": "int256"
            },
            {
              "internalType": "uint256",
              "name": "encVoteHash",
              "type": "uint256"
            },
            {
              "internalType": "uint256",
              "name": "U0",
              "type": "uint256"
            },
            {
              "internalType": "uint256[]",
              "name": "V",
              "type": "uint256[]"
            },
            {
              "components": [
                {
                  "internalType": "uint256",
                  "name": "x",
                  "type": "uint256"
                },
                {
                  "internalType": "uint256",
                  "name": "y",
                  "type": "uint256"
                }
              ],
              "internalType": "struct Secp256r1.ECPoint",
              "name": "K",
              "type": "tuple"
            },
            {
              "components": [
                {
                  "components": [
                    {
                      "internalType": "uint256",
                      "name": "x",
                      "type": "uint256"
                    },
                    {
                      "internalType": "uint256",
                      "name": "y",
                      "type": "uint256"
                    }
                  ],
                  "internalType": "struct Secp256r1.ECPoint",
                  "name": "C",
                  "type": "tuple"
                },
                {
                  "components": [
                    {
                      "internalType": "uint256",
                      "name": "x",
                      "type": "uint256"
                    },
                    {
                      "internalType": "uint256",
                      "name": "y",
                      "type": "uint256"
                    }
                  ],
                  "internalType": "struct Secp256r1.ECPoint",
                  "name": "D",
                  "type": "tuple"
                }
              ],
              "internalType": "struct Elgamal.Elgamal_ciphertext",
              "name": "encVote",
              "type": "tuple"
            }
          ],
          "internalType": "struct Election.Ballot[]",
          "name": "",
          "type": "tuple[]"
        }
      ],
      "stateMutability": "view",
      "type": "function"
    },
    {
      "inputs": [
        {
          "components": [
            {
              "internalType": "uint256",
              "name": "h",
              "type": "uint256"
            },
            {
              "internalType": "uint256",
              "name": "subSecret",
              "type": "uint256"
            },
            {
              "internalType": "uint256",
              "name": "i",
              "type": "uint256"
            },
            {
              "components": [
                {
                  "internalType": "uint256",
                  "name": "r",
                  "type": "uint256"
                },
                {
                  "internalType": "uint256",
                  "name": "s",
                  "type": "uint256"
                }
              ],
              "internalType": "struct ECDSA.ECDSA_Sig",
              "name": "sig",
              "type": "tuple"
            }
          ],
          "internalType": "struct Utils.SubSecretWithSig",
          "name": "_s",
          "type": "tuple"
        }
      ],
      "name": "addSubSecret",
      "outputs": [],
      "stateMutability": "nonpayable",
      "type": "function"
    },
    {
      "inputs": [],
      "name": "getSubSecrets",
      "outputs": [
        {
          "components": [
            {
              "internalType": "uint256",
              "name": "h",
              "type": "uint256"
            },
            {
              "internalType": "uint256",
              "name": "subSecret",
              "type": "uint256"
            },
            {
              "internalType": "uint256",
              "name": "i",
              "type": "uint256"
            },
            {
              "components": [
                {
                  "internalType": "uint256",
                  "name": "r",
                  "type": "uint256"
                },
                {
                  "internalType": "uint256",
                  "name": "s",
                  "type": "uint256"
                }
              ],
              "internalType": "struct ECDSA.ECDSA_Sig",
              "name": "sig",
              "type": "tuple"
            }
          ],
          "internalType": "struct Utils.SubSecretWithSig[]",
          "name": "",
          "type": "tuple[]"
        }
      ],
      "stateMutability": "view",
      "type": "function"
    },
    {
      "inputs": [
        {
          "internalType": "uint256",
          "name": "_publicKeyIndex",
          "type": "uint256"
        }
      ],
      "name": "getF",
      "outputs": [
        {
          "components": [
            {
              "components": [
                {
                  "internalType": "uint256",
                  "name": "x",
                  "type": "uint256"
                },
                {
                  "internalType": "uint256",
                  "name": "y",
                  "type": "uint256"
                }
              ],
              "internalType": "struct Secp256r1.ECPoint",
              "name": "p",
              "type": "tuple"
            },
            {
              "internalType": "uint256",
              "name": "i",
              "type": "uint256"
            },
            {
              "internalType": "uint256",
              "name": "j",
              "type": "uint256"
            },
            {
              "internalType": "uint256",
              "name": "h",
              "type": "uint256"
            },
            {
              "components": [
                {
                  "internalType": "uint256",
                  "name": "r",
                  "type": "uint256"
                },
                {
                  "internalType": "uint256",
                  "name": "s",
                  "type": "uint256"
                }
              ],
              "internalType": "struct ECDSA.ECDSA_Sig",
              "name": "sig",
              "type": "tuple"
            }
          ],
          "internalType": "struct Shares.F[]",
          "name": "",
          "type": "tuple[]"
        }
      ],
      "stateMutability": "view",
      "type": "function"
    },
    {
      "inputs": [
        {
          "internalType": "uint256",
          "name": "_publicKeyIndex",
          "type": "uint256"
        }
      ],
      "name": "getf",
      "outputs": [
        {
          "components": [
            {
              "components": [
                {
                  "components": [
                    {
                      "internalType": "uint256",
                      "name": "x",
                      "type": "uint256"
                    },
                    {
                      "internalType": "uint256",
                      "name": "y",
                      "type": "uint256"
                    }
                  ],
                  "internalType": "struct Secp256r1.ECPoint",
                  "name": "C",
                  "type": "tuple"
                },
                {
                  "components": [
                    {
                      "internalType": "uint256",
                      "name": "x",
                      "type": "uint256"
                    },
                    {
                      "internalType": "uint256",
                      "name": "y",
                      "type": "uint256"
                    }
                  ],
                  "internalType": "struct Secp256r1.ECPoint",
                  "name": "D",
                  "type": "tuple"
                }
              ],
              "internalType": "struct Elgamal.Elgamal_ciphertext",
              "name": "ciphertext",
              "type": "tuple"
            },
            {
              "internalType": "uint256",
              "name": "i",
              "type": "uint256"
            },
            {
              "internalType": "uint256",
              "name": "j",
              "type": "uint256"
            },
            {
              "internalType": "uint256",
              "name": "h",
              "type": "uint256"
            },
            {
              "components": [
                {
                  "internalType": "uint256",
                  "name": "r",
                  "type": "uint256"
                },
                {
                  "internalType": "uint256",
                  "name": "s",
                  "type": "uint256"
                }
              ],
              "internalType": "struct ECDSA.ECDSA_Sig",
              "name": "sig",
              "type": "tuple"
            }
          ],
          "internalType": "struct Shares.f[]",
          "name": "",
          "type": "tuple[]"
        }
      ],
      "stateMutability": "view",
      "type": "function"
    },
    {
      "inputs": [
        {
          "components": [
            {
              "components": [
                {
                  "internalType": "uint256",
                  "name": "x",
                  "type": "uint256"
                },
                {
                  "internalType": "uint256",
                  "name": "y",
                  "type": "uint256"
                }
              ],
              "internalType": "struct Secp256r1.ECPoint",
              "name": "p",
              "type": "tuple"
            },
            {
              "internalType": "uint256",
              "name": "i",
              "type": "uint256"
            },
            {
              "internalType": "uint256",
              "name": "j",
              "type": "uint256"
            },
            {
              "internalType": "uint256",
              "name": "h",
              "type": "uint256"
            },
            {
              "components": [
                {
                  "internalType": "uint256",
                  "name": "r",
                  "type": "uint256"
                },
                {
                  "internalType": "uint256",
                  "name": "s",
                  "type": "uint256"
                }
              ],
              "internalType": "struct ECDSA.ECDSA_Sig",
              "name": "sig",
              "type": "tuple"
            }
          ],
          "internalType": "struct Shares.F[]",
          "name": "_F",
          "type": "tuple[]"
        },
        {
          "components": [
            {
              "components": [
                {
                  "components": [
                    {
                      "internalType": "uint256",
                      "name": "x",
                      "type": "uint256"
                    },
                    {
                      "internalType": "uint256",
                      "name": "y",
                      "type": "uint256"
                    }
                  ],
                  "internalType": "struct Secp256r1.ECPoint",
                  "name": "C",
                  "type": "tuple"
                },
                {
                  "components": [
                    {
                      "internalType": "uint256",
                      "name": "x",
                      "type": "uint256"
                    },
                    {
                      "internalType": "uint256",
                      "name": "y",
                      "type": "uint256"
                    }
                  ],
                  "internalType": "struct Secp256r1.ECPoint",
                  "name": "D",
                  "type": "tuple"
                }
              ],
              "internalType": "struct Elgamal.Elgamal_ciphertext",
              "name": "ciphertext",
              "type": "tuple"
            },
            {
              "internalType": "uint256",
              "name": "i",
              "type": "uint256"
            },
            {
              "internalType": "uint256",
              "name": "j",
              "type": "uint256"
            },
            {
              "internalType": "uint256",
              "name": "h",
              "type": "uint256"
            },
            {
              "components": [
                {
                  "internalType": "uint256",
                  "name": "r",
                  "type": "uint256"
                },
                {
                  "internalType": "uint256",
                  "name": "s",
                  "type": "uint256"
                }
              ],
              "internalType": "struct ECDSA.ECDSA_Sig",
              "name": "sig",
              "type": "tuple"
            }
          ],
          "internalType": "struct Shares.f[]",
          "name": "_f",
          "type": "tuple[]"
        }
      ],
      "name": "addKeyGenVal",
      "outputs": [],
      "stateMutability": "nonpayable",
      "type": "function"
    },
    {
      "inputs": [
        {
          "internalType": "uint256",
          "name": "_encVoteHash",
          "type": "uint256"
        },
        {
          "internalType": "uint256",
          "name": "_U0",
          "type": "uint256"
        },
        {
          "internalType": "uint256[]",
          "name": "_V",
          "type": "uint256[]"
        },
        {
          "components": [
            {
              "internalType": "uint256",
              "name": "x",
              "type": "uint256"
            },
            {
              "internalType": "uint256",
              "name": "y",
              "type": "uint256"
            }
          ],
          "internalType": "struct Secp256r1.ECPoint",
          "name": "_K",
          "type": "tuple"
        }
      ],
      "name": "verifyLRS",
      "outputs": [
        {
          "internalType": "bool",
          "name": "",
          "type": "bool"
        }
      ],
      "stateMutability": "view",
      "type": "function"
    },
    {
      "inputs": [
        {
          "components": [
            {
              "components": [
                {
                  "internalType": "uint256",
                  "name": "x",
                  "type": "uint256"
                },
                {
                  "internalType": "uint256",
                  "name": "y",
                  "type": "uint256"
                }
              ],
              "internalType": "struct Secp256r1.ECPoint",
              "name": "C",
              "type": "tuple"
            },
            {
              "components": [
                {
                  "internalType": "uint256",
                  "name": "x",
                  "type": "uint256"
                },
                {
                  "internalType": "uint256",
                  "name": "y",
                  "type": "uint256"
                }
              ],
              "internalType": "struct Secp256r1.ECPoint",
              "name": "D",
              "type": "tuple"
            }
          ],
          "internalType": "struct Elgamal.Elgamal_ciphertext",
          "name": "_encVote",
          "type": "tuple"
        },
        {
          "internalType": "uint256",
          "name": "_encVoteHash",
          "type": "uint256"
        },
        {
          "internalType": "uint256",
          "name": "_U0",
          "type": "uint256"
        },
        {
          "internalType": "uint256[]",
          "name": "_V",
          "type": "uint256[]"
        },
        {
          "components": [
            {
              "internalType": "uint256",
              "name": "x",
              "type": "uint256"
            },
            {
              "internalType": "uint256",
              "name": "y",
              "type": "uint256"
            }
          ],
          "internalType": "struct Secp256r1.ECPoint",
          "name": "_K",
          "type": "tuple"
        }
      ],
      "name": "addVote",
      "outputs": [],
      "stateMutability": "nonpayable",
      "type": "function"
    },
    {
      "inputs": [
        {
          "internalType": "uint256",
          "name": "_votePrvKey",
          "type": "uint256"
        }
      ],
      "name": "verfiyVotePrivateKey",
      "outputs": [
        {
          "internalType": "bool",
          "name": "",
          "type": "bool"
        }
      ],
      "stateMutability": "view",
      "type": "function"
    },
    {
      "inputs": [
        {
          "components": [
            {
              "components": [
                {
                  "internalType": "uint256",
                  "name": "x",
                  "type": "uint256"
                },
                {
                  "internalType": "uint256",
                  "name": "y",
                  "type": "uint256"
                }
              ],
              "internalType": "struct Secp256r1.ECPoint",
              "name": "C",
              "type": "tuple"
            },
            {
              "components": [
                {
                  "internalType": "uint256",
                  "name": "x",
                  "type": "uint256"
                },
                {
                  "internalType": "uint256",
                  "name": "y",
                  "type": "uint256"
                }
              ],
              "internalType": "struct Secp256r1.ECPoint",
              "name": "D",
              "type": "tuple"
            }
          ],
          "internalType": "struct Elgamal.Elgamal_ciphertext",
          "name": "_encVote",
          "type": "tuple"
        },
        {
          "internalType": "uint256",
          "name": "_votePrvKey",
          "type": "uint256"
        }
      ],
      "name": "decryptVote",
      "outputs": [
        {
          "internalType": "uint256",
          "name": "",
          "type": "uint256"
        }
      ],
      "stateMutability": "pure",
      "type": "function"
    },
    {
      "inputs": [
        {
          "internalType": "uint256",
          "name": "_votePrvKey",
          "type": "uint256"
        }
      ],
      "name": "tallyVote",
      "outputs": [],
      "stateMutability": "nonpayable",
      "type": "function"
    },
    {
      "inputs": [],
      "name": "getElectionData",
      "outputs": [
        {
          "components": [
            {
              "internalType": "uint256",
              "name": "id",
              "type": "uint256"
            },
            {
              "internalType": "uint256",
              "name": "post_time",
              "type": "uint256"
            },
            {
              "internalType": "uint256",
              "name": "key_gen_end_time",
              "type": "uint256"
            },
            {
              "internalType": "uint256",
              "name": "key_ver_end_time",
              "type": "uint256"
            },
            {
              "internalType": "uint256",
              "name": "vote_end_time",
              "type": "uint256"
            },
            {
              "internalType": "uint256",
              "name": "secret_upload_end_time",
              "type": "uint256"
            },
            {
              "internalType": "uint256",
              "name": "min_shares",
              "type": "uint256"
            },
            {
              "internalType": "uint256",
              "name": "candidateCount",
              "type": "uint256"
            },
            {
              "internalType": "uint256",
              "name": "voterCount",
              "type": "uint256"
            },
            {
              "internalType": "uint256",
              "name": "totalVoteCount",
              "type": "uint256"
            },
            {
              "internalType": "uint256",
              "name": "totatKeygenValueSentCount",
              "type": "uint256"
            },
            {
              "internalType": "uint256",
              "name": "totalSubSecretSentCount",
              "type": "uint256"
            },
            {
              "internalType": "uint256",
              "name": "L",
              "type": "uint256"
            },
            {
              "internalType": "uint256[]",
              "name": "illegitimate_voter_indeces",
              "type": "uint256[]"
            },
            {
              "internalType": "string",
              "name": "title",
              "type": "string"
            },
            {
              "internalType": "string",
              "name": "description",
              "type": "string"
            },
            {
              "internalType": "string[]",
              "name": "public_keys",
              "type": "string[]"
            },
            {
              "components": [
                {
                  "internalType": "uint256",
                  "name": "x",
                  "type": "uint256"
                },
                {
                  "internalType": "uint256",
                  "name": "y",
                  "type": "uint256"
                }
              ],
              "internalType": "struct Secp256r1.ECPoint",
              "name": "H",
              "type": "tuple"
            },
            {
              "components": [
                {
                  "internalType": "uint256",
                  "name": "x",
                  "type": "uint256"
                },
                {
                  "internalType": "uint256",
                  "name": "y",
                  "type": "uint256"
                }
              ],
              "internalType": "struct Secp256r1.ECPoint[]",
              "name": "EC_public_keys",
              "type": "tuple[]"
            },
            {
              "components": [
                {
                  "internalType": "uint256",
                  "name": "id",
                  "type": "uint256"
                },
                {
                  "internalType": "string",
                  "name": "name",
                  "type": "string"
                },
                {
                  "internalType": "uint256",
                  "name": "voteCount",
                  "type": "uint256"
                }
              ],
              "internalType": "struct Election.Candidate[]",
              "name": "candidates",
              "type": "tuple[]"
            },
            {
              "internalType": "bool",
              "name": "isVoteTallied",
              "type": "bool"
            },
            {
              "internalType": "address",
              "name": "owner",
              "type": "address"
            },
            {
              "components": [
                {
                  "internalType": "uint256",
                  "name": "id",
                  "type": "uint256"
                },
                {
                  "internalType": "uint256",
                  "name": "voteTime",
                  "type": "uint256"
                },
                {
                  "internalType": "int256",
                  "name": "candidate_id",
                  "type": "int256"
                },
                {
                  "internalType": "uint256",
                  "name": "encVoteHash",
                  "type": "uint256"
                },
                {
                  "internalType": "uint256",
                  "name": "U0",
                  "type": "uint256"
                },
                {
                  "internalType": "uint256[]",
                  "name": "V",
                  "type": "uint256[]"
                },
                {
                  "components": [
                    {
                      "internalType": "uint256",
                      "name": "x",
                      "type": "uint256"
                    },
                    {
                      "internalType": "uint256",
                      "name": "y",
                      "type": "uint256"
                    }
                  ],
                  "internalType": "struct Secp256r1.ECPoint",
                  "name": "K",
                  "type": "tuple"
                },
                {
                  "components": [
                    {
                      "components": [
                        {
                          "internalType": "uint256",
                          "name": "x",
                          "type": "uint256"
                        },
                        {
                          "internalType": "uint256",
                          "name": "y",
                          "type": "uint256"
                        }
                      ],
                      "internalType": "struct Secp256r1.ECPoint",
                      "name": "C",
                      "type": "tuple"
                    },
                    {
                      "components": [
                        {
                          "internalType": "uint256",
                          "name": "x",
                          "type": "uint256"
                        },
                        {
                          "internalType": "uint256",
                          "name": "y",
                          "type": "uint256"
                        }
                      ],
                      "internalType": "struct Secp256r1.ECPoint",
                      "name": "D",
                      "type": "tuple"
                    }
                  ],
                  "internalType": "struct Elgamal.Elgamal_ciphertext",
                  "name": "encVote",
                  "type": "tuple"
                }
              ],
              "internalType": "struct Election.Ballot[]",
              "name": "ballots",
              "type": "tuple[]"
            }
          ],
          "internalType": "struct Election.ElectionData",
          "name": "",
          "type": "tuple"
        }
      ],
      "stateMutability": "view",
      "type": "function"
    }
  ],
  "bytecode": "0x60806040523480156200001157600080fd5b50604051620047c9380380620047c9833981016040819052620000349162000236565b600080546001600160a01b0319166001600160a01b038c1617905560048990558751620000699060019060208b0190620000a6565b5086516200007f9060029060208a0190620000a6565b50600d95909555600793909355600891909155600955600a55600b55506200033692505050565b828054620000b490620002f9565b90600052602060002090601f016020900481019282620000d8576000855562000123565b82601f10620000f357805160ff191683800117855562000123565b8280016001018555821562000123579182015b828111156200012357825182559160200191906001019062000106565b506200013192915062000135565b5090565b5b8082111562000131576000815560010162000136565b80516001600160a01b03811681146200016457600080fd5b919050565b634e487b7160e01b600052604160045260246000fd5b600082601f8301126200019157600080fd5b81516001600160401b0380821115620001ae57620001ae62000169565b604051601f8301601f19908116603f01168101908282118183101715620001d957620001d962000169565b81604052838152602092508683858801011115620001f657600080fd5b600091505b838210156200021a5785820183015181830184015290820190620001fb565b838211156200022c5760008385830101525b9695505050505050565b6000806000806000806000806000806101408b8d0312156200025757600080fd5b620002628b6200014c565b60208c015160408d0151919b5099506001600160401b03808211156200028757600080fd5b620002958e838f016200017f565b995060608d0151915080821115620002ac57600080fd5b50620002bb8d828e016200017f565b97505060808b0151955060a08b0151945060c08b0151935060e08b015192506101008b015191506101208b015190509295989b9194979a5092959850565b600181811c908216806200030e57607f821691505b602082108114156200033057634e487b7160e01b600052602260045260246000fd5b50919050565b61448380620003466000396000f3fe608060405234801561001057600080fd5b50600436106101cd5760003560e01c806314e745d9146101d257806317542dc0146101e75780631df32b9d146102035780633477ee2e1461022657806336bca2dd1461024857806336e678391461025b5780633a293fb61461026e57806342169e481461027757806344ff1d68146102805780634a79d50c146102a05780635074b7f9146102a85780636652e526146102b157806368bf4b85146102c657806370a5d861146102d957806371922f6f146102fc5780637284e4161461030f57806373d1993b14610317578063893d8f4c146103205780638da5cb5b146103295780638db06806146103545780639baec8b9146103675780639f13f76d1461037c578063a69d1b7e14610385578063a9a981a314610398578063ab64ad30146103a1578063af640d0f146103b4578063bb2bcc06146103bd578063bd231bcb146103c6578063c59ee6c8146103d9578063c701ae20146103ee578063cdce88ef146103f7578063cf87414214610417578063e3bad12014610420578063e6a706081461042d578063ee9d02a61461044d578063f3e1b07714610460578063f9f9274e14610473578063fca43a5714610488578063fecfdbfe1461049b575b600080fd5b6101e56101e036600461318d565b6104a4565b005b6101f0600b5481565b6040519081526020015b60405180910390f35b610216610211366004613313565b61054b565b60405190151581526020016101fa565b61023961023436600461337b565b6106b7565b6040516101fa939291906133f0565b6101e5610256366004613419565b610775565b6101e56102693660046134f4565b610915565b6101f060095481565b6101f060065481565b61029361028e36600461337b565b610c53565b6040516101fa919061356d565b610293610cff565b6101f0600e5481565b6102b9610d0c565b6040516101fa91906137a2565b6101f06102d436600461337b565b6112e3565b6013546014546102e7919082565b604080519283526020830191909152016101fa565b61021661030a36600461337b565b611304565b61029361138d565b6101f0600a5481565b6101f0600c5481565b60005461033c906001600160a01b031681565b6040516001600160a01b0390911681526020016101fa565b6101e5610362366004613a0a565b61139a565b61036f611c7e565b6040516101fa9190613b15565b6101f060125481565b6101f0610393366004613b28565b611dd1565b6101f060055481565b6101e56103af366004613b59565b611e55565b6101f060045481565b6101f0600d5481565b6101e56103d436600461318d565b612355565b6103e1612372565b6040516101fa9190613bcd565b6101f0600f5481565b61040a61040536600461337b565b61252f565b6040516101fa9190613bdb565b6101f060085481565b6010546102169060ff1681565b61044061043b36600461337b565b6126a4565b6040516101fa9190613c51565b6101e561045b36600461337b565b612841565b6101e561046e366004613cc7565b612a33565b61047b612d5f565b6040516101fa9190613cdf565b6102e761049636600461337b565b612dec565b6101f060075481565b60005b815181101561054157601960405180606001604052808381526020018484815181106104d5576104d5613d42565b6020908102919091018101518252600091810182905283546001818101865594835291819020835160039093020191825582810151805193949293610521938501929190910190612e1a565b50604082015181600201555050808061053990613d6e565b9150506104a7565b5050601954600555565b600073__LRS___________________________________63eb6100266040518060e001604052808981526020018881526020016012548152602001878780806020026020016040519081016040528093929190818152602001838360200280828437600092018290525093855250506040805180820182526013548152601454602082810191909152808601919091528185018a90526016805483518184028101840190945280845260609096019592949093509084015b8282101561064957838290600052602060002090600202016040518060400160405290816000820154815260200160018201548152505081526020019060010190610603565b505050508152506040518263ffffffff1660e01b815260040161066c9190613d89565b602060405180830381865af4158015610689573d6000803e3d6000fd5b505050506040513d601f19601f820116820180604052508101906106ad9190613e44565b9695505050505050565b601981815481106106c757600080fd5b600091825260209091206003909102018054600182018054919350906106ec90613e66565b80601f016020809104026020016040519081016040528092919081815260200182805461071890613e66565b80156107655780601f1061073a57610100808354040283529160200191610765565b820191906000526020600020905b81548152906001019060200180831161074857829003601f168201915b5050505050908060020154905083565b60006012819055805b825181101561088d57601660405180604001604052808584815181106107a6576107a6613d42565b60200260200101516000015181526020018584815181106107c9576107c9613d42565b60209081029190910181015181015190915282546001818101855560009485529382902083516002909202019081559101519101556f4319055258e8617b0c46353d039cdaae63ffffffff60c01b011983828151811061082b5761082b613d42565b60200260200101516020015184838151811061084957610849613d42565b6020026020010151600001510891506f4319055258e8617b0c46353d039cdaae63ffffffff60c01b011982601254086012558061088581613d6e565b91505061077e565b50601254604051634154f34b60e01b8152600481019190915273__Utils_________________________________90634154f34b906024016040805180830381865af41580156108e1573d6000803e3d6000fd5b505050506040513d601f19601f820116820180604052508101906109059190613e9b565b8051601355602001516014555050565b42600954111580156109285750600a5442105b6109695760405162461bcd60e51b815260206004820152600d60248201526c57726f6e67566f746554696d6560981b60448201526064015b60405180910390fd5b6000600382600001518360200151604051602001610988929190613ee9565b60408051601f19818403018152908290526109a291613ef7565b602060405180830381855afa1580156109bf573d6000803e3d6000fd5b5050604080515160601b6001600160601b0319811660009081526015602052919091205490925060ff16159050610a265760405162461bcd60e51b815260206004820152600b60248201526a165bdd55d85cd59bdd195960aa1b6044820152606401610960565b86518051602091820151828a0151805190840151604051600095610a4e959493929101613f13565b6040516020818303038152906040528051906020012060001c9050868114610a885760405162461bcd60e51b815260040161096090613f2e565b6000610a97888888888861054b565b9050600181151514610abb5760405162461bcd60e51b815260040161096090613f56565b6020604051806101000160405280600c54815260200142815260200160001981526020018a81526020018981526020018888808060200260200160405190810160405280939291908181526020018383602002808284376000920182905250938552505050602080830189905260409283018e9052845460018181018755958352918190208451600c909302019182558381015194820194909455908201516002820155606082015160038201556080820151600482015560a0820151805192939192610b8e9260058501920190612e9e565b5060c082015180516006830155602090810151600783015560e09092015180518051600884015583015160098301558201518051600a83015590910151600b90910155600c8054906000610be183613d6e565b90915550506001600160601b0319831660009081526015602052604090819020805460ff19166001179055600c5490517ffa3646576e62bd55338198a0df1081271097c419287396347b2f5b84a21d676091610c409190815260200190565b60405180910390a1505050505050505050565b60038181548110610c6357600080fd5b906000526020600020016000915090508054610c7e90613e66565b80601f0160208091040260200160405190810160405280929190818152602001828054610caa90613e66565b8015610cf75780601f10610ccc57610100808354040283529160200191610cf7565b820191906000526020600020905b815481529060010190602001808311610cda57829003601f168201915b505050505081565b60018054610c7e90613e66565b610d14612ed8565b604051806102e001604052806004548152602001600754815260200160085481526020016009548152602001600a548152602001600b548152602001600d54815260200160055481526020016006548152602001600c548152602001600e548152602001600f54815260200160125481526020016017805480602002602001604051908101604052809291908181526020018280548015610dd457602002820191906000526020600020905b815481526020019060010190808311610dc0575b5050505050815260200160018054610deb90613e66565b80601f0160208091040260200160405190810160405280929190818152602001828054610e1790613e66565b8015610e645780601f10610e3957610100808354040283529160200191610e64565b820191906000526020600020905b815481529060010190602001808311610e4757829003601f168201915b5050505050815260200160028054610e7b90613e66565b80601f0160208091040260200160405190810160405280929190818152602001828054610ea790613e66565b8015610ef45780601f10610ec957610100808354040283529160200191610ef4565b820191906000526020600020905b815481529060010190602001808311610ed757829003601f168201915b505050505081526020016003805480602002602001604051908101604052809291908181526020016000905b82821015610fcc578382906000526020600020018054610f3f90613e66565b80601f0160208091040260200160405190810160405280929190818152602001828054610f6b90613e66565b8015610fb85780601f10610f8d57610100808354040283529160200191610fb8565b820191906000526020600020905b815481529060010190602001808311610f9b57829003601f168201915b505050505081526020019060010190610f20565b50505050815260200160136040518060400160405290816000820154815260200160018201548152505081526020016016805480602002602001604051908101604052809291908181526020016000905b828210156110635783829060005260206000209060020201604051806040016040529081600082015481526020016001820154815250508152602001906001019061101d565b5050505081526020016019805480602002602001604051908101604052809291908181526020016000905b828210156111665783829060005260206000209060030201604051806060016040529081600082015481526020016001820180546110cb90613e66565b80601f01602080910402602001604051908101604052809291908181526020018280546110f790613e66565b80156111445780601f1061111957610100808354040283529160200191611144565b820191906000526020600020905b81548152906001019060200180831161112757829003601f168201915b505050505081526020016002820154815250508152602001906001019061108e565b5050509082525060105460ff161515602080830191909152600080546001600160a01b031660408085019190915282548151818502810185019092528082526060909401939092918383015b828210156112d857838290600052602060002090600c02016040518061010001604052908160008201548152602001600182015481526020016002820154815260200160038201548152602001600482015481526020016005820180548060200260200160405190810160405280929190818152602001828054801561125757602002820191906000526020600020905b815481526020019060010190808311611243575b5050509183525050604080518082018252600684015481526007840154602082810191909152808401919091528151608081018352600885015481840190815260098601546060830152815282518084018452600a8601548152600b90950154858301528082019490945291019190915290825260019290920191016111b2565b505050915250919050565b601781815481106112f357600080fd5b600091825260209091200154905081565b600073__Utils_________________________________63fba6c1ec83611329612372565b6040518363ffffffff1660e01b8152600401611346929190613f7e565b602060405180830381865af4158015611363573d6000803e3d6000fd5b505050506040513d601f19601f820116820180604052508101906113879190613e44565b92915050565b60028054610c7e90613e66565b6000806000805b600d5481101561179b578581815181106113bd576113bd613d42565b602002602001015160000151600001518682815181106113df576113df613d42565b6020026020010151600001516020015187838151811061140157611401613d42565b60200260200101516020015188848151811061141f5761141f613d42565b60200260200101516040015160405160200161143e9493929190613f13565b6040516020818303038152906040528051906020012060001c925085818151811061146b5761146b613d42565b60200260200101516060015183146114955760405162461bcd60e51b815260040161096090613f2e565b73__ECDSA_________________________________63f43c6a6d6040518060a001604052808985815181106114cc576114cc613d42565b6020026020010151608001516000015181526020018985815181106114f3576114f3613d42565b60200260200101516080015160200151815260200186815260200160168a868151811061152257611522613d42565b6020026020010151602001518154811061153e5761153e613d42565b906000526020600020906002020160000154815260200160168a868151811061156957611569613d42565b6020026020010151602001518154811061158557611585613d42565b9060005260206000209060020201600101548152506040518263ffffffff1660e01b81526004016115b69190613f92565b602060405180830381865af41580156115d3573d6000803e3d6000fd5b505050506040513d601f19601f820116820180604052508101906115f79190613e44565b915060018215151461161b5760405162461bcd60e51b815260040161096090613f56565b600386828151811061162f5761162f613d42565b60200260200101516020015187838151811061164d5761164d613d42565b60200260200101516040015160405160200161166a929190613ee9565b60408051601f198184030181529082905261168491613ef7565b602060405180830381855afa1580156116a1573d6000803e3d6000fd5b5050604080515160601b6001600160601b031981166000908152601c602052919091205490955060ff161590506116ea5760405162461bcd60e51b815260040161096090613fcc565b6001600160601b031984166000908152601c60205260409020805460ff19166001179055855186908290811061172257611722613d42565b6020908102919091018101516001600160601b031986166000908152601a835260409081902082518051825584015160018201558284015160028201559082015160038201556060820151600482015560809091015180516005830155909101516006909101558061179381613d6e565b9150506113a1565b5060005b600654811015611c26578481815181106117bb576117bb613d42565b60200260200101516000015160000151600001518582815181106117e1576117e1613d42565b602002602001015160000151600001516020015186838151811061180757611807613d42565b602002602001015160000151602001516000015187848151811061182d5761182d613d42565b602002602001015160000151602001516020015188858151811061185357611853613d42565b60200260200101516020015189868151811061187157611871613d42565b6020026020010151604001516040516020016118b596959493929190958652602086019490945260408501929092526060840152608083015260a082015260c00190565b6040516020818303038152906040528051906020012060001c92508481815181106118e2576118e2613d42565b602002602001015160600151831461190c5760405162461bcd60e51b815260040161096090613f2e565b73__ECDSA_________________________________63f43c6a6d6040518060a0016040528088858151811061194357611943613d42565b60200260200101516080015160000151815260200188858151811061196a5761196a613d42565b602002602001015160800151602001518152602001868152602001601689868151811061199957611999613d42565b602002602001015160200151815481106119b5576119b5613d42565b906000526020600020906002020160000154815260200160168986815181106119e0576119e0613d42565b602002602001015160200151815481106119fc576119fc613d42565b9060005260206000209060020201600101548152506040518263ffffffff1660e01b8152600401611a2d9190613f92565b602060405180830381865af4158015611a4a573d6000803e3d6000fd5b505050506040513d601f19601f82011682018060405250810190611a6e9190613e44565b9150600182151514611a925760405162461bcd60e51b815260040161096090613f56565b6003858281518110611aa657611aa6613d42565b602002602001015160200151868381518110611ac457611ac4613d42565b602002602001015160400151604051602001611ae1929190613ee9565b60408051601f1981840301815290829052611afb91613ef7565b602060405180830381855afa158015611b18573d6000803e3d6000fd5b5050604080515160601b6001600160601b031981166000908152601d602052919091205490955060ff16159050611b615760405162461bcd60e51b815260040161096090613fcc565b6001600160601b031984166000908152601d60205260409020805460ff191660011790558451859082908110611b9957611b99613d42565b6020908102919091018101516001600160601b031986166000908152601b83526040908190208251805180518355850151600183015584015180516002830155840151600382015582840151600482015590820151600582015560608201516006820155608090910151805160078301559091015160089091015580611c1e81613d6e565b91505061179f565b50600e8054906000611c3783613d6e565b91905055507f6a2c41ee80fc36b9b44f5e1f5d932b5988f82c4a2dfaa8f1271f8dc8dfa38657600e54604051611c6f91815260200190565b60405180910390a15050505050565b60606020805480602002602001604051908101604052809291908181526020016000905b82821015611dc857838290600052602060002090600c020160405180610100016040529081600082015481526020016001820154815260200160028201548152602001600382015481526020016004820154815260200160058201805480602002602001604051908101604052809291908181526020018280548015611d4757602002820191906000526020600020905b815481526020019060010190808311611d33575b5050509183525050604080518082018252600684015481526007840154602082810191909152808401919091528151608081018352600885015481840190815260098601546060830152815282518084018452600a8601548152600b9095015485830152808201949094529101919091529082526001929092019101611ca2565b50505050905090565b60405163426033d960e01b815260009073__Elgamal_______________________________9063426033d990611e0d9086908690600401614003565b602060405180830381865af4158015611e2a573d6000803e3d6000fd5b505050506040513d601f19601f82011682018060405250810190611e4e919061402e565b9392505050565b6000806000611e62612f8b565b611e6a612fb0565b7f6b17d1f2e12c4247f8bce6e563a440f277037d812deb33a0f4a13945d898c29681527f4fe342e2fe1a7f9b8ee7eb4a7c0f9e162bce33576b315ececbb6406837bf51f5602082015260005b8681101561231357601b600060038a8a85818110611ed657611ed6613d42565b905060c00201604001358b8b86818110611ef257611ef2613d42565b905060c0020160600135604051602001611f0d929190613ee9565b60408051601f1981840301815290829052611f2791613ef7565b602060405180830381855afa158015611f44573d6000803e3d6000fd5b505060408051516001600160601b0319606091821b1684526020808501959095529281016000208151608081018352815481840190815260018084015496830196909652815282518084019093526002820154835260039091015482860152938401525090935073__CPProof_______________________________9063fc888f3d9084906016908c8c87818110611fde57611fde613d42565b905060c0020160600135611ff29190614047565b8154811061200257612002613d42565b906000526020600020906002020186600001518c8c8781811061202757612027613d42565b905060c002016000018d8d8881811061204257612042613d42565b905060c002016080016040518663ffffffff1660e01b815260040161206b95949392919061406e565b602060405180830381865af4158015612088573d6000803e3d6000fd5b505050506040513d601f19601f820116820180604052508101906120ac9190613e44565b94506001851515146120ef5760405162461bcd60e51b815260206004820152600c60248201526b2bb937b733a1a8383937b7b360a11b6044820152606401610960565b73__Elgamal_______________________________636c3c67a184602001518a8a8581811061212057612120613d42565b905060c002016000016040518363ffffffff1660e01b81526004016121469291906140b2565b602060405180830381865af4158015612163573d6000803e3d6000fd5b505050506040513d601f19601f82011682018060405250810190612187919061402e565b935073__Shares________________________________63330f6d15858a8a858181106121b6576121b6613d42565b905060c002016121e08c8c878181106121d1576121d1613d42565b905060c002016040013561252f565b6040518463ffffffff1660e01b81526004016121fe939291906140cd565b602060405180830381865af415801561221b573d6000803e3d6000fd5b505050506040513d601f19601f8201168201806040525081019061223f9190613e44565b955085612301576018600089898481811061225c5761225c613d42565b60c002919091016040908101358352602083019390935250016000205460ff16612301576001601860008a8a8581811061229857612298613d42565b905060c0020160400135815260200190815260200160002060006101000a81548160ff02191690831515021790555060178888838181106122db576122db613d42565b835460018101855560009485526020909420604060c09092029390930101359190920155505b8061230b81613d6e565b915050611eb6565b507f1d20caca1836fd1fa934fcdfb319ec51dbbf70ed2a449bdc4e38fb3becb8a10a601760405161234491906141bd565b60405180910390a150505050505050565b8051612368906003906020840190612fca565b5050600354600655565b61237a612fb0565b60006006546001600160401b03811115612396576123966130da565b6040519080825280602002602001820160405280156123cf57816020015b6123bc612fb0565b8152602001906001900390816123b45790505b50905060005b6006548110156124ae57601a600060038360006040516020016123f9929190613ee9565b60408051601f198184030181529082905261241391613ef7565b602060405180830381855afa158015612430573d6000803e3d6000fd5b5050506040515160601b6001600160601b0319166001600160601b03191681526020019081526020016000206000016040518060400160405290816000820154815260200160018201548152505082828151811061249057612490613d42565b602002602001018190525080806124a690613d6e565b9150506123d5565b50604051631aad44b360e01b815273__Utils_________________________________90631aad44b3906124e99084906017906004016141d0565b6040805180830381865af4158015612505573d6000803e3d6000fd5b505050506040513d601f19601f820116820180604052508101906125299190613e9b565b91505090565b60606000600d546001600160401b0381111561254d5761254d6130da565b60405190808252806020026020018201604052801561258657816020015b612573613023565b81526020019060019003908161256b5790505b50905060005b600d5481101561269d57601a6000600386846040516020016125af929190613ee9565b60408051601f19818403018152908290526125c991613ef7565b602060405180830381855afa1580156125e6573d6000803e3d6000fd5b505060408051516001600160601b0319606091821b168452602080850195909552928101600020815160e081018352815460a08201908152600183015460c083015281526002820154818701526003820154818401526004820154948101949094528151808301909252600581015482526006015493810193909352506080810191909152825183908390811061267f5761267f613d42565b6020026020010181905250808061269590613d6e565b91505061258c565b5092915050565b606060006006546001600160401b038111156126c2576126c26130da565b6040519080825280602002602001820160405280156126fb57816020015b6126e8613058565b8152602001906001900390816126e05790505b50905060005b60065481101561269d57601b600060038361271d886001614220565b60405160200161272e929190613ee9565b60408051601f198184030181529082905261274891613ef7565b602060405180830381855afa158015612765573d6000803e3d6000fd5b505060408051516001600160601b0319606091821b168452602080850195909552928101600020815161012081018352815460e08201908152600183015461010083015260a08201908152835180850185526002840154815260038401548189015260c083015281526004820154818701526005820154818401526006820154948101949094528151808301909252600781015482526008015493810193909352506080810191909152825183908390811061282357612823613d42565b6020026020010181905250808061283990613d6e565b915050612701565b60105460ff161561287e5760405162461bcd60e51b815260206004820152600760248201526615185b1b1a595960ca1b6044820152606401610960565b61288781611304565b15156001146128c65760405162461bcd60e51b815260206004820152600b60248201526a57726f6e675072764b657960a81b6044820152606401610960565b6000805b6020548110156129e55773__Elgamal_______________________________63426033d96020838154811061290157612901613d42565b90600052602060002090600c0201600801856040518363ffffffff1660e01b8152600401612930929190614238565b602060405180830381865af415801561294d573d6000803e3d6000fd5b505050506040513d601f19601f82011682018060405250810190612971919061402e565b9150816020828154811061298757612987613d42565b90600052602060002090600c020160020181905550601982815481106129af576129af613d42565b6000918252602082206002600390920201018054916129cd83613d6e565b919050555080806129dd90613d6e565b9150506128ca565b506010805460ff191660011790556040517f3dc1fe22a60d9a898cc1d0a0e0f063f5e855e5a2938f3059cb822bf4e2b0e68590612a279060199060209061432d565b60405180910390a15050565b60408082013560009081526018602052205460ff1615612a895760405162461bcd60e51b81526020600482015260116024820152702234b9b8bab0b634b334b2b22b37ba32b960791b6044820152606401610960565b600081602001358260400135604051602001612aa6929190613ee9565b60408051601f198184030181529190528051602090910120905081358114612b055760405162461bcd60e51b815260206004820152601260248201527113595cdcd859d955d85cd35bd91a599a595960721b6044820152606401610960565b6040808301356000908152601f602052205460ff1615612b5e5760405162461bcd60e51b815260206004820152601460248201527314dd5894d958dc995d15d85cd55c1b1bd859195960621b6044820152606401610960565b600073__ECDSA_________________________________63f43c6a6d6040518060a0016040528086606001600001358152602001866060016020013581526020018581526020016016876040013581548110612bbc57612bbc613d42565b90600052602060002090600202016000015481526020016016876040013581548110612bea57612bea613d42565b9060005260206000209060020201600101548152506040518263ffffffff1660e01b8152600401612c1b9190613f92565b602060405180830381865af4158015612c38573d6000803e3d6000fd5b505050506040513d601f19601f82011682018060405250810190612c5c9190613e44565b9050600181151514612c805760405162461bcd60e51b815260040161096090613f56565b601e805460018101825560009190915283906005027f50bb669a95c7b50b7e8a6f09454034b2b14cf2b85c730dca9a539ca82cb6e35001612cec828281358155602082013560018201556040820135600282015560608201356003820155608082013560048201555050565b50506040808401356000908152601f602052908120805460ff19166001179055600f805491612d1a83613d6e565b91905055507ffda7fe2aa1855f36efd0640a3ec3265e181c44b600c34ad29c800d765f93571d600f54604051612d5291815260200190565b60405180910390a1505050565b6060601e805480602002602001604051908101604052809291908181526020016000905b82821015611dc8576000848152602090819020604080516080810182526005860290920180548352600180820154848601526002820154848401528251808401909352600382015483526004909101548285015260608301919091529083529092019101612d83565b60168181548110612dfc57600080fd5b60009182526020909120600290910201805460019091015490915082565b828054612e2690613e66565b90600052602060002090601f016020900481019282612e485760008555612e8e565b82601f10612e6157805160ff1916838001178555612e8e565b82800160010185558215612e8e579182015b82811115612e8e578251825591602001919060010190612e73565b50612e9a92915061306b565b5090565b828054828255906000526020600020908101928215612e8e5791602002820182811115612e8e578251825591602001919060010190612e73565b604051806102e001604052806000815260200160008152602001600081526020016000815260200160008152602001600081526020016000815260200160008152602001600081526020016000815260200160008152602001600081526020016000815260200160608152602001606081526020016060815260200160608152602001612f63612fb0565b8152606060208201819052604082018190526000818301819052608083015260a09091015290565b6040518060400160405280612f9e612fb0565b8152602001612fab612fb0565b905290565b604051806040016040528060008152602001600081525090565b828054828255906000526020600020908101928215613017579160200282015b828111156130175782518051613007918491602090910190612e1a565b5091602001919060010190612fea565b50612e9a929150613080565b6040518060a00160405280613036612fb0565b8152602001600081526020016000815260200160008152602001612fab612fb0565b6040518060a00160405280613036612f8b565b5b80821115612e9a576000815560010161306c565b80821115612e9a576000613094828261309d565b50600101613080565b5080546130a990613e66565b6000825580601f106130b9575050565b601f0160209004906000526020600020908101906130d7919061306b565b50565b634e487b7160e01b600052604160045260246000fd5b604080519081016001600160401b0381118282101715613112576131126130da565b60405290565b60405160a081016001600160401b0381118282101715613112576131126130da565b604051601f8201601f191681016001600160401b0381118282101715613162576131626130da565b604052919050565b60006001600160401b03821115613183576131836130da565b5060051b60200190565b600060208083850312156131a057600080fd5b82356001600160401b03808211156131b757600080fd5b8185019150601f86818401126131cc57600080fd5b82356131df6131da8261316a565b61313a565b81815260059190911b840185019085810190898311156131fe57600080fd5b8686015b8381101561328a5780358681111561321a5760008081fd5b8701603f81018c1361322c5760008081fd5b88810135604088821115613242576132426130da565b613253828901601f19168c0161313a565b8281528e828486010111156132685760008081fd5b828285018d83013760009281018c019290925250845250918701918701613202565b509998505050505050505050565b60008083601f8401126132aa57600080fd5b5081356001600160401b038111156132c157600080fd5b6020830191508360208260051b85010111156132dc57600080fd5b9250929050565b6000604082840312156132f557600080fd5b6132fd6130f0565b9050813581526020820135602082015292915050565b600080600080600060a0868803121561332b57600080fd5b853594506020860135935060408601356001600160401b0381111561334f57600080fd5b61335b88828901613298565b909450925061336f905087606088016132e3565b90509295509295909350565b60006020828403121561338d57600080fd5b5035919050565b60005b838110156133af578181015183820152602001613397565b838111156133be576000848401525b50505050565b600081518084526133dc816020860160208601613394565b601f01601f19169290920160200192915050565b83815260606020820152600061340960608301856133c4565b9050826040830152949350505050565b6000602080838503121561342c57600080fd5b82356001600160401b0381111561344257600080fd5b8301601f8101851361345357600080fd5b80356134616131da8261316a565b81815260069190911b8201830190838101908783111561348057600080fd5b928401925b828410156134a95761349788856132e3565b82528482019150604084019350613485565b979650505050505050565b6000608082840312156134c657600080fd5b6134ce6130f0565b90506134da83836132e3565b81526134e983604084016132e3565b602082015292915050565b600080600080600080610120878903121561350e57600080fd5b61351888886134b4565b95506080870135945060a0870135935060c08701356001600160401b0381111561354157600080fd5b61354d89828a01613298565b909450925061356190508860e089016132e3565b90509295509295509295565b602081526000611e4e60208301846133c4565b600081518084526020808501945080840160005b838110156135b057815187529582019590820190600101613594565b509495945050505050565b6000815180845260208085019450848260051b860182860160005b858110156136005783830389526135ee8383516133c4565b988501989250908401906001016135d6565b5090979650505050505050565b80518252602090810151910152565b600081518084526020808501945080840160005b838110156135b05761364387835161360d565b6040969096019590820190600101613630565b600081518084526020808501808196508360051b8101915082860160005b858110156136bf578284038952815160608151865286820151818888015261369e828801826133c4565b60409384015197909301969096525098850198935090840190600101613674565b5091979650505050505050565b6136d782825161360d565b60208101516136e9604084018261360d565b505050565b600081518084526020808501808196508360051b8101915082860160005b858110156136bf578284038952815161018081518652868201518787015260408083015181880152506060808301518188015250608080830151818801525060a080830151828289015261376283890182613580565b9250505060c0808301516137788289018261360d565b505060e0820151915061378f6101008701836136cc565b998601999450509084019060010161370c565b6020815281516020820152602082015160408201526040820151606082015260608201516080820152608082015160a082015260a082015160c082015260c082015160e0820152600060e08301516101008181850152808501519150506101208181850152808501519150506101408181850152808501519150506101608181850152808501519150506101808181850152808501519150506101a08181850152808501519150506103006101c08181860152613863610320860184613580565b9250808601519050601f196101e081878603018188015261388485846133c4565b9450808801519250506102008187860301818801526138a385846133c4565b9450808801519250506102208187860301818801526138c285846135bb565b9450808801519250506102406138da8188018461360d565b808801519250506102808187860301818801526138f7858461361c565b945061026088015192506102a08288870301818901526139178685613656565b95508189015193506102c091506139318289018515159052565b8801516001600160a01b03166102e0880152870151868503919091018387015290506106ad83826136ee565b600082601f83011261396e57600080fd5b8135602061397e6131da8361316a565b828152610120928302850182019282820191908785111561399e57600080fd5b8387015b858110156136005781818a0312156139ba5760008081fd5b6139c2613118565b6139cc8a836134b4565b81526080808301358783015260a0830135604083015260c083013560608301526139f98b60e085016132e3565b9082015284529284019281016139a2565b6000806040808486031215613a1e57600080fd5b83356001600160401b0380821115613a3557600080fd5b818601915086601f830112613a4957600080fd5b81356020613a596131da8361316a565b82815260e0928302850182019282820191908b851115613a7857600080fd5b958301955b84871015613ae65780878d031215613a955760008081fd5b613a9d613118565b613aa78d896132e3565b815288880135858201526060808901358a8301526080808a013582840152613ad28f60a08c016132e3565b908301525083529586019591830191613a7d565b5097505087013593505080831115613afd57600080fd5b5050613b0b8582860161395d565b9150509250929050565b602081526000611e4e60208301846136ee565b60008082840360a0811215613b3c57600080fd5b6080811215613b4a57600080fd5b50919360808501359350915050565b60008060208385031215613b6c57600080fd5b82356001600160401b0380821115613b8357600080fd5b818501915085601f830112613b9757600080fd5b813581811115613ba657600080fd5b86602060c083028501011115613bbb57600080fd5b60209290920196919550909350505050565b60408101611387828461360d565b602080825282518282018190526000919060409081850190868401855b828110156136bf578151613c0d85825161360d565b8087015185870152858101516060808701919091528101516080808701919091520151613c3d60a086018261360d565b5060e0939093019290850190600101613bf8565b602080825282518282018190526000919060409081850190868401855b828110156136bf578151613c838582516136cc565b808701516080868101919091528682015160a0870152606082015160c08701520151613cb260e086018261360d565b50610120939093019290850190600101613c6e565b600060a08284031215613cd957600080fd5b50919050565b602080825282518282018190526000919060409081850190868401855b828110156136bf578151805185528681015187860152858101518686015260609081015190613d2d8187018361360d565b505060a0939093019290850190600101613cfc565b634e487b7160e01b600052603260045260246000fd5b634e487b7160e01b600052601160045260246000fd5b6000600019821415613d8257613d82613d58565b5060010190565b600060208083526101408301845182850152818501516040850152604085015160608501526060850151610120806080870152828251808552610160880191508584019450600093505b80841015613df35784518252938501936001939093019290850190613dd3565b5060808801519450613e0860a088018661360d565b60a08801519450613e1c60e088018661360d565b60c0880151878203601f1901838901529450613e38818661361c565b98975050505050505050565b600060208284031215613e5657600080fd5b81518015158114611e4e57600080fd5b600181811c90821680613e7a57607f821691505b60208210811415613cd957634e487b7160e01b600052602260045260246000fd5b600060408284031215613ead57600080fd5b604080519081016001600160401b0381118282101715613ecf57613ecf6130da565b604052825181526020928301519281019290925250919050565b918252602082015260400190565b60008251613f09818460208701613394565b9190910192915050565b93845260208401929092526040830152606082015260800190565b6020808252600e908201526d135cd9d5d85cd35bd91a599a595960921b604082015260600190565b6020808252600e908201526d57726f6e675369676e617475726560901b604082015260600190565b82815260608101611e4e602083018461360d565b600060a082019050825182526020830151602083015260408301516040830152606083015160608301526080830151608083015292915050565b6020808252600e908201526d14da185c995cd55c1b1bd859195960921b604082015260600190565b80358252602090810135910152565b60a081016140118285613ff4565b6140216040830160408601613ff4565b8260808301529392505050565b60006020828403121561404057600080fd5b5051919050565b60008282101561405957614059613d58565b500390565b8054825260010154602090910152565b610140810161407d828861360d565b61408a604083018761405e565b614097608083018661360d565b6140a460c0830185613ff4565b6106ad610100830184613ff4565b608081016140c0828561360d565b611e4e6040830184613ff4565b600061010080830186845260206140e681860188613ff4565b6040606081890135818801526080818a01358189015260a061410c818a01838d01613ff4565b60e089810197909752895195869052610120890196858b019660005b8181101561417557885161413d8b825161360d565b808901518b89015287810151878c015286810151868c0152850151614164858c018261360d565b509882019897870197600101614128565b50979d9c50505050505050505050505050565b6000815480845260208085019450836000528060002060005b838110156135b0578154875295820195600191820191016141a1565b602081526000611e4e6020830184614188565b6040815260006141e3604083018561361c565b60208382038185015281855480845282840191508660005282600020935060005b8181101561360057845483526001948501949284019201614204565b6000821982111561423357614233613d58565b500190565b60a08101614246828561405e565b614021604083016002860161405e565b614260828261405e565b614270604083016002830161405e565b5050565b600081548084526020808501808196506005915083821b8101866000528360002060005b8681101561431f578383038a52610180825484526001830154878501526002830154604085015260038301546060850152600483015460808501528060a08501526142e7818501878501614188565b90506142f960c085016006850161405e565b61430a610100850160088501614256565b998601999250600c9190910190600101614298565b509098975050505050505050565b60006040808301818452808654808352606092508286019150828160051b87010160008981526020808220825b8581101561442c578a8503605f190187528154855282850188905260018083018054869080841c8185168061439057607f821691505b8882108114156143ae57634e487b7160e01b8a52602260045260248afd5b8a8e018281526020018180156143cb57600181146143dc57614406565b60ff19851682528a82019550614406565b6000878152602090208c5b8581101561440057815484820152908901908c016143e7565b83019650505b505050506002860154988d0198909852988501989650506003909201915060010161435a565b505088830390890152506144408189614274565b999850505050505050505056fea264697066735822122066d940e830289d5258a170b7ec33000530dd57ae041a0f46f023cfe55503ea6e64736f6c634300080a0033",
  "immutableReferences": {},
  "source": "// SPDX-License-Identifier: MIT\r\npragma solidity >=0.4.22 <0.9.0;\r\n\r\nimport \"./Secp256r1.sol\";\r\nimport \"./ECDSA.sol\";\r\nimport \"./Elgamal.sol\";\r\nimport \"./CPProof.sol\";\r\nimport \"./LRS.sol\";\r\nimport \"./Shares.sol\";\r\nimport \"./Utils.sol\";\r\n\r\ncontract Election {\r\n\r\n    address public owner;\r\n    \r\n    string public title;\r\n    string public description;\r\n    string[] public public_keys;\r\n\r\n    uint public id;\r\n    uint public candidateCount;\r\n    uint public voterCount;\r\n    uint public post_time;\r\n    uint public key_gen_end_time;\r\n    uint public key_ver_end_time;\r\n    uint public vote_end_time;\r\n    uint public secret_upload_end_time;\r\n    uint public totalVoteCount;\r\n    uint public min_shares;\r\n    uint public totatKeygenValueSentCount;\r\n    uint public totalSubSecretSentCount;\r\n\r\n    bool public isVoteTallied;\r\n\r\n    // store Disqualified public key indece\r\n    mapping(bytes20 => bool) isDisqualifiedPubKeyIndece;\r\n\r\n    // linkable ring signature varaibles \r\n    uint256 public L;\r\n    Secp256r1.ECPoint public H;\r\n    mapping(bytes20 => bool) K_list;\r\n    Secp256r1.ECPoint[] public EC_public_keys;\r\n    \r\n    // illegitimate voter : did not upload shares / upload wrong shares\r\n    uint[] public illegitimate_voter_indeces;\r\n    mapping(uint => bool) illegitimate_voters;\r\n\r\n    // Model a candidate\r\n    struct Candidate{\r\n        uint id;\r\n        string name;\r\n        uint voteCount;\r\n    }\r\n\r\n    // Store candidates\r\n    Candidate[] public candidates; \r\n\r\n\r\n    mapping(bytes20 => Shares.F) F_2d;\r\n    mapping(bytes20 => Shares.f) f_2d;\r\n    mapping(bytes20 => bool) isF_2d;\r\n    mapping(bytes20 => bool) isf_2d;\r\n\r\n\r\n    Utils.SubSecretWithSig[] subSecrets;\r\n    mapping(uint => bool) isSubSecrets; \r\n\r\n\r\n    // Model a ballot\r\n    struct Ballot{\r\n        uint id;\r\n        uint voteTime;\r\n        int candidate_id;\r\n        uint256 encVoteHash;\r\n        uint256 U0;\r\n        uint256[] V;\r\n        Secp256r1.ECPoint K;\r\n        Elgamal.Elgamal_ciphertext encVote;\r\n    }\r\n\r\n    // Store ballots\r\n    Ballot[] ballots;\r\n\r\n    // Model a election Data\r\n    struct ElectionData{\r\n        uint id;\r\n        uint post_time;\r\n        uint key_gen_end_time;\r\n        uint key_ver_end_time;\r\n        uint vote_end_time;\r\n        uint secret_upload_end_time;\r\n        uint min_shares;\r\n        uint candidateCount;\r\n        uint voterCount;\r\n        uint totalVoteCount;\r\n        uint totatKeygenValueSentCount;\r\n        uint totalSubSecretSentCount;\r\n        uint256 L; \r\n        uint[] illegitimate_voter_indeces;\r\n        string title;\r\n        string description;\r\n        string[] public_keys;\r\n        Secp256r1.ECPoint H;\r\n        Secp256r1.ECPoint[] EC_public_keys;\r\n        Candidate[] candidates;\r\n        bool isVoteTallied;\r\n        address owner;\r\n        Ballot[] ballots;\r\n    }\r\n\r\n    // new Vote Event\r\n    event newVoteEvent(uint totalVoteCount);\r\n    // add Keygen value Event\r\n    event addKeygenValueEvent(uint totatKeygenValueSentCount);\r\n    // add SubSecret Event\r\n    event addSubSecretEvent(uint totalSubSecretSentCount);\r\n    // tally vote Event\r\n    event tallyVoteEvent(Candidate[] candidates, Ballot[] ballots);\r\n    // verify shares event \r\n    event verifySharesEvent(uint[] illegitimate_voter_indeces);\r\n\r\n    // Verifying fi(j)*G == Fi,0 + Fi,1 * j + ... + Fi,2 * j^(t-1)\r\n    function setDisqualifiedPubKeyIndece(Shares.VerSharesPar[] calldata _Par) \r\n    external{\r\n        // verify shares verfication peroid: key_ver_end_time <= now < vote_end_time\r\n        // require(key_gen_end_time<= block.timestamp && block.timestamp < key_ver_end_time,\"WrongVerifyTime\");\r\n\r\n        bool isValidVal;\r\n        bool isValidProof;\r\n        uint256 plaintext;\r\n        Elgamal.Elgamal_ciphertext memory ciphertext;\r\n        Secp256r1.ECPoint memory G;\r\n        G.x = Secp256r1.GX;\r\n        G.y = Secp256r1.GY;\r\n\r\n        for(uint i=0;i<_Par.length;i++){\r\n            ciphertext = f_2d[ripemd160(\r\n                    abi.encodePacked(_Par[i].i,_Par[i].j))\r\n                    ].ciphertext;\r\n\r\n            // proof key = s*k*G without knowing s\r\n            isValidProof = CPProof.CPverify(\r\n                G, // g1\r\n                EC_public_keys[_Par[i].j-1], // h1\r\n                ciphertext.C, // g2\r\n                _Par[i].H2, // h2\r\n                _Par[i].proof\r\n            );\r\n            \r\n            require(isValidProof==true,\"WrongCPproof\");\r\n\r\n            // get plaintext by key\r\n            plaintext = Elgamal.elgamal_decryptByPoint(\r\n                ciphertext.D,\r\n                _Par[i].H2\r\n            );\r\n\r\n            // verfiy shares\r\n            isValidVal = Shares.verifySharesVal(\r\n                plaintext,\r\n                _Par[i],getF(_Par[i].i)\r\n            );\r\n\r\n            if(!isValidVal){\r\n                if(!illegitimate_voters[_Par[i].i]){\r\n                    illegitimate_voters[_Par[i].i] = true;\r\n                    illegitimate_voter_indeces.push(_Par[i].i);\r\n                }\r\n            }\r\n\r\n        }\r\n        \r\n        emit verifySharesEvent(illegitimate_voter_indeces);\r\n    }\r\n\r\n\r\n    function setPublicKeys(string[] memory _public_keys) external{\r\n        public_keys = _public_keys;\r\n        voterCount = public_keys.length;\r\n    }\r\n\r\n    function setECpublickeys(Secp256r1.ECPoint[] memory _EC_public_keys) external{\r\n        L = 0;\r\n        uint256 tmp;\r\n        for(uint i=0;i<_EC_public_keys.length;i++){\r\n            // store EC public keys \r\n            EC_public_keys.push(Secp256r1.ECPoint(_EC_public_keys[i].x,_EC_public_keys[i].y));\r\n            // compute L = sum of (PubKey.X + PubKey.Y);\r\n            tmp = addmod(_EC_public_keys[i].x,_EC_public_keys[i].y,Secp256r1.NN);\r\n            L = addmod(L,tmp,Secp256r1.NN);\r\n            \r\n        }\r\n        // compute H\r\n        H = Utils.hash2(L);\r\n    }\r\n\r\n    function setCandidates(string[] memory _candidates) external{\r\n        for(uint i=0;i<_candidates.length;i++){\r\n            candidates.push(Candidate(i,_candidates[i],0));\r\n        }\r\n        candidateCount = candidates.length;\r\n    }\r\n\r\n    constructor(address _onwer,uint _id,string memory _title,\r\n    string memory _description, uint _min_shares,\r\n    uint _post_time, uint _key_gen_end_time,uint _key_ver_end_time,\r\n    uint _vote_end_time, uint _secret_upload_end_time){\r\n        owner = _onwer;\r\n        id = _id;\r\n        title = _title;\r\n        description = _description;\r\n        min_shares = _min_shares;\r\n        post_time = _post_time;\r\n        key_gen_end_time = _key_gen_end_time;\r\n        key_ver_end_time = _key_ver_end_time;\r\n        vote_end_time = _vote_end_time;\r\n        secret_upload_end_time = _secret_upload_end_time;\r\n    }\r\n\r\n    function getVotePublicKey() public view returns (Secp256r1.ECPoint memory){\r\n        Secp256r1.ECPoint[] memory _P = new Secp256r1.ECPoint[](voterCount);\r\n        for(uint i=0;i<voterCount;i++){\r\n            _P[i] = F_2d[ripemd160(abi.encodePacked(i,uint256(0)))].p;\r\n        }\r\n        return Utils.setVotePublicKey(_P,illegitimate_voter_indeces); \r\n    }\r\n\r\n    function getBallot() external view returns(Ballot[] memory){\r\n        return ballots;\r\n    }\r\n\r\n    function addSubSecret(Utils.SubSecretWithSig calldata _s) external{\r\n        require(illegitimate_voters[_s.i] == false,\"DisqualifiedVoter\");\r\n        // verify secret upload peroid: vote end time <= now < secret_upload_end_time\r\n        // require(vote_end_time<=block.timestamp &&block.timestamp < secret_upload_end_time,\"invalid subscret upload time\");\r\n        uint256 h = uint256(keccak256(abi.encodePacked(_s.subSecret,_s.i)));\r\n        require(h == _s.h,\"MessageWasModified\");\r\n        require(isSubSecrets[_s.i] == false,\"SubSecretWasUploaded\");\r\n        \r\n        bool isValidSig = ECDSA.ecdsa_verify(ECDSA.ECDSA_parameters(_s.sig.r, _s.sig.s, h, \r\n        EC_public_keys[_s.i].x, EC_public_keys[_s.i].y));\r\n        require(isValidSig == true,\"WrongSignature\");\r\n\r\n        subSecrets.push(_s);\r\n        isSubSecrets[_s.i] = true;\r\n        totalSubSecretSentCount++;\r\n\r\n        emit addSubSecretEvent(totalSubSecretSentCount);\r\n    }\r\n\r\n    function getSubSecrets() external view returns(Utils.SubSecretWithSig[] memory){\r\n        return subSecrets;\r\n    }\r\n\r\n    function getF(uint _publicKeyIndex) public view returns(Shares.F[] memory){\r\n        Shares.F[] memory _F = new Shares.F[](min_shares); \r\n        for(uint j=0;j<min_shares;j++){\r\n            _F[j] = F_2d[ripemd160(abi.encodePacked(_publicKeyIndex,j))];\r\n        }\r\n        return _F;\r\n    }\r\n\r\n    function getf(uint _publicKeyIndex) public view returns(Shares.f[] memory){\r\n        Shares.f[] memory _f = new Shares.f[](voterCount); \r\n        for(uint i=0;i<voterCount;i++){\r\n           _f[i] = f_2d[ripemd160(abi.encodePacked(i,_publicKeyIndex+1))];\r\n        }   \r\n        return _f;\r\n    }\r\n\r\n    function addKeyGenVal(Shares.F[] memory _F, Shares.f[] memory _f) external{\r\n        // verify key gen peroid: now < key_gen_end_time\r\n        // require(block.timestamp < key_gen_end_time,\"invalid key generation time\");\r\n        bytes20 h;\r\n        uint256 hm; // hashed message\r\n        bool isValidSig;\r\n        for(uint z;z<min_shares;z++){\r\n            hm = uint256(keccak256(abi.encodePacked(\r\n                _F[z].p.x,_F[z].p.y,_F[z].i,_F[z].j\r\n                )));\r\n            require(hm == _F[z].h,\"MsgWasModified\");\r\n            isValidSig = ECDSA.ecdsa_verify(ECDSA.ECDSA_parameters(\r\n                _F[z].sig.r,_F[z].sig.s,hm,\r\n                EC_public_keys[_F[z].i].x,EC_public_keys[_F[z].i].y\r\n                ));\r\n            require(isValidSig == true,\"WrongSignature\");\r\n            h = ripemd160(abi.encodePacked(_F[z].i,_F[z].j));\r\n            require(isF_2d[h] == false,\"SharesUploaded\");\r\n            isF_2d[h] = true;\r\n            F_2d[h] = _F[z];\r\n        }\r\n        for(uint z;z<voterCount;z++){\r\n            hm = uint256(keccak256(abi.encodePacked(\r\n                _f[z].ciphertext.C.x,_f[z].ciphertext.C.y,\r\n                _f[z].ciphertext.D.x,_f[z].ciphertext.D.y\r\n                ,_f[z].i,_f[z].j\r\n                )));\r\n            require(hm == _f[z].h,\"MsgWasModified\");\r\n            isValidSig = ECDSA.ecdsa_verify(ECDSA.ECDSA_parameters(\r\n                _f[z].sig.r,_f[z].sig.s,hm,\r\n                EC_public_keys[_f[z].i].x,EC_public_keys[_f[z].i].y\r\n                ));\r\n            require(isValidSig == true,\"WrongSignature\");\r\n            h = ripemd160(abi.encodePacked(_f[z].i,_f[z].j));\r\n            require(isf_2d[h] == false,\"SharesUploaded\");\r\n            isf_2d[h] = true;\r\n            f_2d[h] = _f[z];\r\n        }\r\n        totatKeygenValueSentCount++;\r\n        emit addKeygenValueEvent(totatKeygenValueSentCount);\r\n    }\r\n\r\n    function verifyLRS(uint256 _encVoteHash,uint256 _U0,\r\n     uint256[] calldata _V, Secp256r1.ECPoint memory _K) public view returns(bool){\r\n        // verify linkable ring signature\r\n        return LRS.verifyLRS(LRS.LRS_parameters(_encVoteHash,_U0,L,_V,H,_K,EC_public_keys));\r\n    }\r\n\r\n    function addVote(Elgamal.Elgamal_ciphertext memory _encVote,uint256 _encVoteHash,\r\n    uint256 _U0, uint256[] calldata _V, Secp256r1.ECPoint memory _K) \r\n    external{\r\n        // verify vote peroid: key_ver_end_time <= now < vote_end_time\r\n        require(key_ver_end_time<= block.timestamp && block.timestamp < vote_end_time,\"WrongVoteTime\");\r\n        \r\n        // hash of _K\r\n        bytes20 h = ripemd160(abi.encodePacked(_K.x,_K.y));\r\n\r\n        // hash of _K should not exit in K_list\r\n        require(K_list[h] == false,\"YouWasVoted\");\r\n        \r\n        // verify encrypted vote does not modified.\r\n        uint256 evh; // hashed enc vote\r\n        evh = uint256(keccak256(abi.encodePacked(\r\n            _encVote.C.x, _encVote.C.y,  \r\n            _encVote.D.x, _encVote.D.y\r\n            )));\r\n        require(evh == _encVoteHash,\"MsgWasModified\");\r\n\r\n        // verify linkable ring signature\r\n        bool U = verifyLRS(_encVoteHash,_U0,_V,_K);\r\n\r\n        require(U == true,\"WrongSignature\");\r\n\r\n        // add ballot\r\n        ballots.push(Ballot(totalVoteCount,block.timestamp,-1,_encVoteHash,_U0,_V,_K,_encVote));\r\n        totalVoteCount++;\r\n\r\n        // add _K into K_list\r\n        K_list[h] = true;\r\n\r\n        emit newVoteEvent(totalVoteCount);\r\n    }\r\n\r\n    function verfiyVotePrivateKey(uint256 _votePrvKey) public view returns(bool){\r\n        return Utils.verfiyVotePrivateKey(_votePrvKey,getVotePublicKey());\r\n    }\r\n\r\n    function decryptVote(Elgamal.Elgamal_ciphertext calldata _encVote\r\n    , uint256 _votePrvKey) external pure returns(uint256){\r\n        return Elgamal.elgamal_decrypt(_encVote,_votePrvKey);\r\n    }\r\n\r\n    function tallyVote(uint256 _votePrvKey) external{\r\n        // verify tally time : vote_end_time <= now \r\n        // require(vote_end_time<= block.timestamp,\"invalid tally time\");\r\n\r\n        // check whether the vote already tallied\r\n        require(isVoteTallied == false,\"Tallied\");\r\n\r\n        // require valid vote private key\r\n        require(verfiyVotePrivateKey(_votePrvKey)==true,\"WrongPrvKey\");\r\n\r\n        uint cID; // candidate ID\r\n\r\n        for(uint i=0; i<ballots.length;i++){\r\n            cID = uint(Elgamal.elgamal_decrypt(ballots[i].encVote,_votePrvKey));\r\n            ballots[i].candidate_id = int(cID);\r\n            candidates[cID].voteCount++;\r\n        }\r\n        \r\n        isVoteTallied = true;\r\n\r\n        emit tallyVoteEvent(candidates,ballots);\r\n    }\r\n\r\n    function getElectionData() external view returns(ElectionData memory){\r\n        return ElectionData(id,post_time,key_gen_end_time,key_ver_end_time,\r\n        vote_end_time,secret_upload_end_time,min_shares,candidateCount,voterCount\r\n        ,totalVoteCount,totatKeygenValueSentCount,totalSubSecretSentCount,\r\n        L,illegitimate_voter_indeces,title,description,\r\n        public_keys,H,EC_public_keys,candidates\r\n        ,isVoteTallied,owner,ballots);\r\n    } \r\n}",
  "sourcePath": "C:\\Users\\tim\\Desktop\\e-voting\\src\\contracts\\Election.sol",
  "compiler": {
    "name": "solc",
    "version": "0.8.10+commit.fc410830.Emscripten.clang"
  },
  "schemaVersion": "3.4.4",
  "updatedAt": "2022-02-07T06:16:57.162Z",
  "networkType": "ethereum",
  "devdoc": {
    "kind": "dev",
    "methods": {},
    "version": 1
  },
  "userdoc": {
    "kind": "user",
    "methods": {},
    "version": 1
  }
}