{
  "contractName": "Election",
  "abi": [
    {
      "inputs": [
        {
          "internalType": "address",
          "name": "_onwer",
          "type": "address"
        },
        {
          "internalType": "uint256",
          "name": "_id",
          "type": "uint256"
        },
        {
          "internalType": "uint256",
          "name": "_post_time",
          "type": "uint256"
        },
        {
          "internalType": "uint256",
          "name": "_key_gen_end_time",
          "type": "uint256"
        },
        {
          "internalType": "uint256",
          "name": "_vote_end_time",
          "type": "uint256"
        },
        {
          "internalType": "uint256",
          "name": "_secret_upload_end_time",
          "type": "uint256"
        }
      ],
      "stateMutability": "nonpayable",
      "type": "constructor"
    },
    {
      "inputs": [
        {
          "internalType": "uint256",
          "name": "",
          "type": "uint256"
        }
      ],
      "name": "ballots",
      "outputs": [
        {
          "internalType": "uint256",
          "name": "id",
          "type": "uint256"
        },
        {
          "internalType": "uint256",
          "name": "candidate_id",
          "type": "uint256"
        }
      ],
      "stateMutability": "view",
      "type": "function"
    },
    {
      "inputs": [],
      "name": "candidateCount",
      "outputs": [
        {
          "internalType": "uint256",
          "name": "",
          "type": "uint256"
        }
      ],
      "stateMutability": "view",
      "type": "function"
    },
    {
      "inputs": [
        {
          "internalType": "uint256",
          "name": "",
          "type": "uint256"
        }
      ],
      "name": "candidates",
      "outputs": [
        {
          "internalType": "uint256",
          "name": "id",
          "type": "uint256"
        },
        {
          "internalType": "string",
          "name": "name",
          "type": "string"
        },
        {
          "internalType": "uint256",
          "name": "voteCount",
          "type": "uint256"
        }
      ],
      "stateMutability": "view",
      "type": "function"
    },
    {
      "inputs": [],
      "name": "description",
      "outputs": [
        {
          "internalType": "string",
          "name": "",
          "type": "string"
        }
      ],
      "stateMutability": "view",
      "type": "function"
    },
    {
      "inputs": [],
      "name": "id",
      "outputs": [
        {
          "internalType": "uint256",
          "name": "",
          "type": "uint256"
        }
      ],
      "stateMutability": "view",
      "type": "function"
    },
    {
      "inputs": [],
      "name": "isCandidateCountSet",
      "outputs": [
        {
          "internalType": "bool",
          "name": "",
          "type": "bool"
        }
      ],
      "stateMutability": "view",
      "type": "function"
    },
    {
      "inputs": [],
      "name": "isCandidatesSet",
      "outputs": [
        {
          "internalType": "bool",
          "name": "",
          "type": "bool"
        }
      ],
      "stateMutability": "view",
      "type": "function"
    },
    {
      "inputs": [],
      "name": "isDescriptionSet",
      "outputs": [
        {
          "internalType": "bool",
          "name": "",
          "type": "bool"
        }
      ],
      "stateMutability": "view",
      "type": "function"
    },
    {
      "inputs": [],
      "name": "isMinSharesSet",
      "outputs": [
        {
          "internalType": "bool",
          "name": "",
          "type": "bool"
        }
      ],
      "stateMutability": "view",
      "type": "function"
    },
    {
      "inputs": [],
      "name": "isPublic_keysSet",
      "outputs": [
        {
          "internalType": "bool",
          "name": "",
          "type": "bool"
        }
      ],
      "stateMutability": "view",
      "type": "function"
    },
    {
      "inputs": [],
      "name": "isTallyed",
      "outputs": [
        {
          "internalType": "bool",
          "name": "",
          "type": "bool"
        }
      ],
      "stateMutability": "view",
      "type": "function"
    },
    {
      "inputs": [],
      "name": "isTitleSet",
      "outputs": [
        {
          "internalType": "bool",
          "name": "",
          "type": "bool"
        }
      ],
      "stateMutability": "view",
      "type": "function"
    },
    {
      "inputs": [],
      "name": "isVoterCount",
      "outputs": [
        {
          "internalType": "bool",
          "name": "",
          "type": "bool"
        }
      ],
      "stateMutability": "view",
      "type": "function"
    },
    {
      "inputs": [],
      "name": "key_gen_end_time",
      "outputs": [
        {
          "internalType": "uint256",
          "name": "",
          "type": "uint256"
        }
      ],
      "stateMutability": "view",
      "type": "function"
    },
    {
      "inputs": [],
      "name": "min_shares",
      "outputs": [
        {
          "internalType": "uint256",
          "name": "",
          "type": "uint256"
        }
      ],
      "stateMutability": "view",
      "type": "function"
    },
    {
      "inputs": [],
      "name": "owner",
      "outputs": [
        {
          "internalType": "address",
          "name": "",
          "type": "address"
        }
      ],
      "stateMutability": "view",
      "type": "function"
    },
    {
      "inputs": [],
      "name": "post_time",
      "outputs": [
        {
          "internalType": "uint256",
          "name": "",
          "type": "uint256"
        }
      ],
      "stateMutability": "view",
      "type": "function"
    },
    {
      "inputs": [
        {
          "internalType": "uint256",
          "name": "",
          "type": "uint256"
        }
      ],
      "name": "public_keys",
      "outputs": [
        {
          "internalType": "string",
          "name": "",
          "type": "string"
        }
      ],
      "stateMutability": "view",
      "type": "function"
    },
    {
      "inputs": [],
      "name": "secret_upload_end_time",
      "outputs": [
        {
          "internalType": "uint256",
          "name": "",
          "type": "uint256"
        }
      ],
      "stateMutability": "view",
      "type": "function"
    },
    {
      "inputs": [],
      "name": "title",
      "outputs": [
        {
          "internalType": "string",
          "name": "",
          "type": "string"
        }
      ],
      "stateMutability": "view",
      "type": "function"
    },
    {
      "inputs": [],
      "name": "totalVoteCount",
      "outputs": [
        {
          "internalType": "uint256",
          "name": "",
          "type": "uint256"
        }
      ],
      "stateMutability": "view",
      "type": "function"
    },
    {
      "inputs": [],
      "name": "vote_end_time",
      "outputs": [
        {
          "internalType": "uint256",
          "name": "",
          "type": "uint256"
        }
      ],
      "stateMutability": "view",
      "type": "function"
    },
    {
      "inputs": [],
      "name": "voterCount",
      "outputs": [
        {
          "internalType": "uint256",
          "name": "",
          "type": "uint256"
        }
      ],
      "stateMutability": "view",
      "type": "function"
    },
    {
      "inputs": [
        {
          "internalType": "string",
          "name": "_title",
          "type": "string"
        }
      ],
      "name": "setTitle",
      "outputs": [],
      "stateMutability": "nonpayable",
      "type": "function"
    },
    {
      "inputs": [
        {
          "internalType": "string",
          "name": "_description",
          "type": "string"
        }
      ],
      "name": "setDescription",
      "outputs": [],
      "stateMutability": "nonpayable",
      "type": "function"
    },
    {
      "inputs": [
        {
          "internalType": "string[]",
          "name": "_public_keys",
          "type": "string[]"
        }
      ],
      "name": "setPublicKeys",
      "outputs": [],
      "stateMutability": "nonpayable",
      "type": "function"
    },
    {
      "inputs": [
        {
          "internalType": "string[]",
          "name": "_candidates",
          "type": "string[]"
        }
      ],
      "name": "setCandidates",
      "outputs": [],
      "stateMutability": "nonpayable",
      "type": "function"
    },
    {
      "inputs": [
        {
          "internalType": "uint256",
          "name": "_min_shares",
          "type": "uint256"
        }
      ],
      "name": "setMinShares",
      "outputs": [],
      "stateMutability": "nonpayable",
      "type": "function"
    },
    {
      "inputs": [
        {
          "internalType": "uint256",
          "name": "_candidateID",
          "type": "uint256"
        }
      ],
      "name": "addVote",
      "outputs": [],
      "stateMutability": "nonpayable",
      "type": "function"
    },
    {
      "inputs": [],
      "name": "tallyVote",
      "outputs": [],
      "stateMutability": "nonpayable",
      "type": "function"
    },
    {
      "inputs": [],
      "name": "getElectionData",
      "outputs": [
        {
          "components": [
            {
              "internalType": "uint256",
              "name": "id",
              "type": "uint256"
            },
            {
              "internalType": "address",
              "name": "owner",
              "type": "address"
            },
            {
              "internalType": "string",
              "name": "title",
              "type": "string"
            },
            {
              "internalType": "string",
              "name": "description",
              "type": "string"
            },
            {
              "internalType": "string[]",
              "name": "public_keys",
              "type": "string[]"
            },
            {
              "internalType": "uint256",
              "name": "candidateCount",
              "type": "uint256"
            },
            {
              "internalType": "uint256",
              "name": "voterCount",
              "type": "uint256"
            },
            {
              "components": [
                {
                  "internalType": "uint256",
                  "name": "id",
                  "type": "uint256"
                },
                {
                  "internalType": "string",
                  "name": "name",
                  "type": "string"
                },
                {
                  "internalType": "uint256",
                  "name": "voteCount",
                  "type": "uint256"
                }
              ],
              "internalType": "struct Election.Candidate[]",
              "name": "candidates",
              "type": "tuple[]"
            },
            {
              "internalType": "uint256",
              "name": "post_time",
              "type": "uint256"
            },
            {
              "internalType": "uint256",
              "name": "key_gen_end_time",
              "type": "uint256"
            },
            {
              "internalType": "uint256",
              "name": "vote_end_time",
              "type": "uint256"
            },
            {
              "internalType": "uint256",
              "name": "secret_upload_end_time",
              "type": "uint256"
            },
            {
              "internalType": "uint256",
              "name": "min_shares",
              "type": "uint256"
            },
            {
              "internalType": "bool",
              "name": "isTallyed",
              "type": "bool"
            }
          ],
          "internalType": "struct Election.ElectionData",
          "name": "",
          "type": "tuple"
        }
      ],
      "stateMutability": "view",
      "type": "function"
    }
  ],
  "bytecode": "0x60806040523480156200001157600080fd5b50604051620021213803806200212183398181016040528101906200003791906200014c565b85600160006101000a81548173ffffffffffffffffffffffffffffffffffffffff021916908373ffffffffffffffffffffffffffffffffffffffff1602179055508460008190555083600781905550826008819055508160098190555080600a81905550505050505050620001e8565b600080fd5b600073ffffffffffffffffffffffffffffffffffffffff82169050919050565b6000620000d982620000ac565b9050919050565b620000eb81620000cc565b8114620000f757600080fd5b50565b6000815190506200010b81620000e0565b92915050565b6000819050919050565b620001268162000111565b81146200013257600080fd5b50565b60008151905062000146816200011b565b92915050565b60008060008060008060c087890312156200016c576200016b620000a7565b5b60006200017c89828a01620000fa565b96505060206200018f89828a0162000135565b9550506040620001a289828a0162000135565b9450506060620001b589828a0162000135565b9350506080620001c889828a0162000135565b92505060a0620001db89828a0162000135565b9150509295509295509295565b611f2980620001f86000396000f3fe608060405234801561001057600080fd5b50600436106101e55760003560e01c80636db0d8161161010f578063a96958af116100a2578063bd231bcb11610071578063bd231bcb14610543578063c7bedfa01461055f578063cf87414214610569578063fecfdbfe14610587576101e5565b8063a96958af146104cb578063a9a981a3146104e9578063af640d0f14610507578063bb2bcc0614610525576101e5565b8063893d8f4c116100de578063893d8f4c146104555780638da5cb5b146104735780638eef523b1461049157806390c3f38f146104af576101e5565b80636db0d816146103df5780637284e416146103fd57806372910be01461041b57806373d1993b14610437576101e5565b8063370dc599116101875780634a79d50c116101565780634a79d50c146103565780635c632b3814610374578063605e648b146103a55780636652e526146103c1576101e5565b8063370dc599146102cc578063396de55e146102ea57806342169e481461030857806344ff1d6814610326576101e5565b806317542dc0116101c357806317542dc0146102405780632c3549111461025e57806330e16d1f1461027c5780633477ee2e1461029a576101e5565b80630383badc146101ea5780630e970d801461020657806314e745d914610224575b600080fd5b61020460048036038101906101ff919061143f565b6105a5565b005b61020e61066a565b60405161021b9190611487565b60405180910390f35b61023e600480360381019061023991906116ce565b61067d565b005b6102486107c6565b6040516102559190611726565b60405180910390f35b6102666107cc565b6040516102739190611487565b60405180910390f35b6102846107df565b6040516102919190611487565b60405180910390f35b6102b460048036038101906102af919061143f565b6107f2565b6040516102c3939291906117c9565b60405180910390f35b6102d46108b4565b6040516102e19190611487565b60405180910390f35b6102f26108c7565b6040516102ff9190611487565b60405180910390f35b6103106108da565b60405161031d9190611726565b60405180910390f35b610340600480360381019061033b919061143f565b6108e0565b60405161034d9190611807565b60405180910390f35b61035e61098c565b60405161036b9190611807565b60405180910390f35b61038e6004803603810190610389919061143f565b610a1a565b60405161039c929190611829565b60405180910390f35b6103bf60048036038101906103ba919061143f565b610a4e565b005b6103c9610ac3565b6040516103d69190611c12565b60405180910390f35b6103e7610e69565b6040516103f49190611487565b60405180910390f35b610405610e7c565b6040516104129190611807565b60405180910390f35b61043560048036038101906104309190611c34565b610f0a565b005b61043f610f8f565b60405161044c9190611726565b60405180910390f35b61045d610f95565b60405161046a9190611726565b60405180910390f35b61047b610f9b565b6040516104889190611c8c565b60405180910390f35b610499610fc1565b6040516104a69190611487565b60405180910390f35b6104c960048036038101906104c49190611c34565b610fd4565b005b6104d3611059565b6040516104e09190611487565b60405180910390f35b6104f161106c565b6040516104fe9190611726565b60405180910390f35b61050f611072565b60405161051c9190611726565b60405180910390f35b61052d611078565b60405161053a9190611726565b60405180910390f35b61055d600480360381019061055891906116ce565b61107e565b005b61056761112a565b005b6105716111fb565b60405161057e9190611726565b60405180910390f35b61058f611201565b60405161059c9190611726565b60405180910390f35b42600854111580156105b8575060095442105b6105f7576040517f08c379a00000000000000000000000000000000000000000000000000000000081526004016105ee90611cf3565b60405180910390fd5b600b600081548092919061060a90611d42565b9190505550600f6040518060400160405280600b5481526020018381525090806001815401808255809150506001900390600052602060002090600202016000909190919091506000820151816000015560208201518160010155505050565b600d60029054906101000a900460ff1681565b600d60049054906101000a900460ff16156106cd576040517f08c379a00000000000000000000000000000000000000000000000000000000081526004016106c490611dd7565b60405180910390fd5b60005b815181101561078057600e60405180606001604052808381526020018484815181106106ff576106fe611df7565b5b6020026020010151815260200160008152509080600181540180825580915050600190039060005260206000209060030201600090919091909150600082015181600001556020820151816001019080519060200190610760929190611207565b50604082015181600201555050808061077890611d42565b9150506106d0565b50600e805490506005819055506001600d60046101000a81548160ff0219169083151502179055506001600d60036101000a81548160ff02191690831515021790555050565b600a5481565b600d60039054906101000a900460ff1681565b600d60079054906101000a900460ff1681565b600e818154811061080257600080fd5b906000526020600020906003020160009150905080600001549080600101805461082b90611e55565b80601f016020809104026020016040519081016040528092919081815260200182805461085790611e55565b80156108a45780601f10610879576101008083540402835291602001916108a4565b820191906000526020600020905b81548152906001019060200180831161088757829003601f168201915b5050505050908060020154905083565b600d60009054906101000a900460ff1681565b600d60049054906101000a900460ff1681565b60065481565b600481815481106108f057600080fd5b90600052602060002001600091509050805461090b90611e55565b80601f016020809104026020016040519081016040528092919081815260200182805461093790611e55565b80156109845780601f1061095957610100808354040283529160200191610984565b820191906000526020600020905b81548152906001019060200180831161096757829003601f168201915b505050505081565b6002805461099990611e55565b80601f01602080910402602001604051908101604052809291908181526020018280546109c590611e55565b8015610a125780601f106109e757610100808354040283529160200191610a12565b820191906000526020600020905b8154815290600101906020018083116109f557829003601f168201915b505050505081565b600f8181548110610a2a57600080fd5b90600052602060002090600202016000915090508060000154908060010154905082565b600d60079054906101000a900460ff1615610a9e576040517f08c379a0000000000000000000000000000000000000000000000000000000008152600401610a9590611dd7565b60405180910390fd5b80600c819055506001600d60076101000a81548160ff02191690831515021790555050565b610acb61128d565b604051806101c001604052806000548152602001600160009054906101000a900473ffffffffffffffffffffffffffffffffffffffff1673ffffffffffffffffffffffffffffffffffffffff16815260200160028054610b2a90611e55565b80601f0160208091040260200160405190810160405280929190818152602001828054610b5690611e55565b8015610ba35780601f10610b7857610100808354040283529160200191610ba3565b820191906000526020600020905b815481529060010190602001808311610b8657829003601f168201915b5050505050815260200160038054610bba90611e55565b80601f0160208091040260200160405190810160405280929190818152602001828054610be690611e55565b8015610c335780601f10610c0857610100808354040283529160200191610c33565b820191906000526020600020905b815481529060010190602001808311610c1657829003601f168201915b505050505081526020016004805480602002602001604051908101604052809291908181526020016000905b82821015610d0b578382906000526020600020018054610c7e90611e55565b80601f0160208091040260200160405190810160405280929190818152602001828054610caa90611e55565b8015610cf75780601f10610ccc57610100808354040283529160200191610cf7565b820191906000526020600020905b815481529060010190602001808311610cda57829003601f168201915b505050505081526020019060010190610c5f565b50505050815260200160055481526020016006548152602001600e805480602002602001604051908101604052809291908181526020016000905b82821015610e1e578382906000526020600020906003020160405180606001604052908160008201548152602001600182018054610d8390611e55565b80601f0160208091040260200160405190810160405280929190818152602001828054610daf90611e55565b8015610dfc5780601f10610dd157610100808354040283529160200191610dfc565b820191906000526020600020905b815481529060010190602001808311610ddf57829003601f168201915b5050505050815260200160028201548152505081526020019060010190610d46565b505050508152602001600754815260200160085481526020016009548152602001600a548152602001600c548152602001600d60009054906101000a900460ff161515815250905090565b600d60019054906101000a900460ff1681565b60038054610e8990611e55565b80601f0160208091040260200160405190810160405280929190818152602001828054610eb590611e55565b8015610f025780601f10610ed757610100808354040283529160200191610f02565b820191906000526020600020905b815481529060010190602001808311610ee557829003601f168201915b505050505081565b600d60019054906101000a900460ff1615610f5a576040517f08c379a0000000000000000000000000000000000000000000000000000000008152600401610f5190611dd7565b60405180910390fd5b8060029080519060200190610f70929190611207565b506001600d60016101000a81548160ff02191690831515021790555050565b60095481565b600b5481565b600160009054906101000a900473ffffffffffffffffffffffffffffffffffffffff1681565b600d60069054906101000a900460ff1681565b600d60029054906101000a900460ff1615611024576040517f08c379a000000000000000000000000000000000000000000000000000000000815260040161101b90611dd7565b60405180910390fd5b806003908051906020019061103a929190611207565b506001600d60026101000a81548160ff02191690831515021790555050565b600d60059054906101000a900460ff1681565b60055481565b60005481565b600c5481565b600d60059054906101000a900460ff16156110ce576040517f08c379a00000000000000000000000000000000000000000000000000000000081526004016110c590611dd7565b60405180910390fd5b80600490805190602001906110e4929190611314565b506004805490506006819055506001600d60056101000a81548160ff0219169083151502179055506001600d60066101000a81548160ff02191690831515021790555050565b42600954111561116f576040517f08c379a000000000000000000000000000000000000000000000000000000000815260040161116690611ed3565b60405180910390fd5b6000600190505b600b5481116111f8576000600f828154811061119557611194611df7565b5b9060005260206000209060020201600101549050600e81815481106111bd576111bc611df7565b5b906000526020600020906003020160020160008154809291906111df90611d42565b91905055505080806111f090611d42565b915050611176565b50565b60085481565b60075481565b82805461121390611e55565b90600052602060002090601f016020900481019282611235576000855561127c565b82601f1061124e57805160ff191683800117855561127c565b8280016001018555821561127c579182015b8281111561127b578251825591602001919060010190611260565b5b5090506112899190611374565b5090565b604051806101c0016040528060008152602001600073ffffffffffffffffffffffffffffffffffffffff16815260200160608152602001606081526020016060815260200160008152602001600081526020016060815260200160008152602001600081526020016000815260200160008152602001600081526020016000151581525090565b828054828255906000526020600020908101928215611363579160200282015b82811115611362578251829080519060200190611352929190611207565b5091602001919060010190611334565b5b5090506113709190611391565b5090565b5b8082111561138d576000816000905550600101611375565b5090565b5b808211156113b157600081816113a891906113b5565b50600101611392565b5090565b5080546113c190611e55565b6000825580601f106113d357506113f2565b601f0160209004906000526020600020908101906113f19190611374565b5b50565b6000604051905090565b600080fd5b600080fd5b6000819050919050565b61141c81611409565b811461142757600080fd5b50565b60008135905061143981611413565b92915050565b600060208284031215611455576114546113ff565b5b60006114638482850161142a565b91505092915050565b60008115159050919050565b6114818161146c565b82525050565b600060208201905061149c6000830184611478565b92915050565b600080fd5b6000601f19601f8301169050919050565b7f4e487b7100000000000000000000000000000000000000000000000000000000600052604160045260246000fd5b6114f0826114a7565b810181811067ffffffffffffffff8211171561150f5761150e6114b8565b5b80604052505050565b60006115226113f5565b905061152e82826114e7565b919050565b600067ffffffffffffffff82111561154e5761154d6114b8565b5b602082029050602081019050919050565b600080fd5b600080fd5b600067ffffffffffffffff821115611584576115836114b8565b5b61158d826114a7565b9050602081019050919050565b82818337600083830152505050565b60006115bc6115b784611569565b611518565b9050828152602081018484840111156115d8576115d7611564565b5b6115e384828561159a565b509392505050565b600082601f830112611600576115ff6114a2565b5b81356116108482602086016115a9565b91505092915050565b600061162c61162784611533565b611518565b9050808382526020820190506020840283018581111561164f5761164e61155f565b5b835b8181101561169657803567ffffffffffffffff811115611674576116736114a2565b5b80860161168189826115eb565b85526020850194505050602081019050611651565b5050509392505050565b600082601f8301126116b5576116b46114a2565b5b81356116c5848260208601611619565b91505092915050565b6000602082840312156116e4576116e36113ff565b5b600082013567ffffffffffffffff81111561170257611701611404565b5b61170e848285016116a0565b91505092915050565b61172081611409565b82525050565b600060208201905061173b6000830184611717565b92915050565b600081519050919050565b600082825260208201905092915050565b60005b8381101561177b578082015181840152602081019050611760565b8381111561178a576000848401525b50505050565b600061179b82611741565b6117a5818561174c565b93506117b581856020860161175d565b6117be816114a7565b840191505092915050565b60006060820190506117de6000830186611717565b81810360208301526117f08185611790565b90506117ff6040830184611717565b949350505050565b600060208201905081810360008301526118218184611790565b905092915050565b600060408201905061183e6000830185611717565b61184b6020830184611717565b9392505050565b61185b81611409565b82525050565b600073ffffffffffffffffffffffffffffffffffffffff82169050919050565b600061188c82611861565b9050919050565b61189c81611881565b82525050565b600082825260208201905092915050565b60006118be82611741565b6118c881856118a2565b93506118d881856020860161175d565b6118e1816114a7565b840191505092915050565b600081519050919050565b600082825260208201905092915050565b6000819050602082019050919050565b600061192483836118b3565b905092915050565b6000602082019050919050565b6000611944826118ec565b61194e81856118f7565b93508360208202850161196085611908565b8060005b8581101561199c578484038952815161197d8582611918565b94506119888361192c565b925060208a01995050600181019050611964565b50829750879550505050505092915050565b600081519050919050565b600082825260208201905092915050565b6000819050602082019050919050565b60006060830160008301516119f26000860182611852565b5060208301518482036020860152611a0a82826118b3565b9150506040830151611a1f6040860182611852565b508091505092915050565b6000611a3683836119da565b905092915050565b6000602082019050919050565b6000611a56826119ae565b611a6081856119b9565b935083602082028501611a72856119ca565b8060005b85811015611aae5784840389528151611a8f8582611a2a565b9450611a9a83611a3e565b925060208a01995050600181019050611a76565b50829750879550505050505092915050565b611ac98161146c565b82525050565b60006101c083016000830151611ae86000860182611852565b506020830151611afb6020860182611893565b5060408301518482036040860152611b1382826118b3565b91505060608301518482036060860152611b2d82826118b3565b91505060808301518482036080860152611b478282611939565b91505060a0830151611b5c60a0860182611852565b5060c0830151611b6f60c0860182611852565b5060e083015184820360e0860152611b878282611a4b565b915050610100830151611b9e610100860182611852565b50610120830151611bb3610120860182611852565b50610140830151611bc8610140860182611852565b50610160830151611bdd610160860182611852565b50610180830151611bf2610180860182611852565b506101a0830151611c076101a0860182611ac0565b508091505092915050565b60006020820190508181036000830152611c2c8184611acf565b905092915050565b600060208284031215611c4a57611c496113ff565b5b600082013567ffffffffffffffff811115611c6857611c67611404565b5b611c74848285016115eb565b91505092915050565b611c8681611881565b82525050565b6000602082019050611ca16000830184611c7d565b92915050565b7f696e76616c696420766f74652074696d65000000000000000000000000000000600082015250565b6000611cdd60118361174c565b9150611ce882611ca7565b602082019050919050565b60006020820190508181036000830152611d0c81611cd0565b9050919050565b7f4e487b7100000000000000000000000000000000000000000000000000000000600052601160045260246000fd5b6000611d4d82611409565b91507fffffffffffffffffffffffffffffffffffffffffffffffffffffffffffffffff821415611d8057611d7f611d13565b5b600182019050919050565b7f7469746c6520697320616c7265616479207365742e0000000000000000000000600082015250565b6000611dc160158361174c565b9150611dcc82611d8b565b602082019050919050565b60006020820190508181036000830152611df081611db4565b9050919050565b7f4e487b7100000000000000000000000000000000000000000000000000000000600052603260045260246000fd5b7f4e487b7100000000000000000000000000000000000000000000000000000000600052602260045260246000fd5b60006002820490506001821680611e6d57607f821691505b60208210811415611e8157611e80611e26565b5b50919050565b7f696e76616c69642074616c6c792074696d650000000000000000000000000000600082015250565b6000611ebd60128361174c565b9150611ec882611e87565b602082019050919050565b60006020820190508181036000830152611eec81611eb0565b905091905056fea26469706673582212201e8927d05c7fd01850a36840fa61d4cc8f3023572b5507411244a6815a2b72d464736f6c634300080a0033",
  "immutableReferences": {},
  "source": "// SPDX-License-Identifier: MIT\r\npragma solidity >=0.4.22 <0.9.0;\r\n\r\ncontract Election {\r\n    uint public id;\r\n    address public owner;\r\n    string public title;\r\n    string public description;\r\n    string[] public public_keys;\r\n    uint public candidateCount;\r\n    uint public voterCount;\r\n    uint public post_time;\r\n    uint public key_gen_end_time;\r\n    uint public vote_end_time;\r\n    uint public secret_upload_end_time;\r\n    uint public totalVoteCount;\r\n    uint public min_shares;\r\n\r\n    bool public isTallyed;\r\n    bool public isTitleSet;\r\n    bool public isDescriptionSet;\r\n    bool public isCandidateCountSet;\r\n    bool public isCandidatesSet;\r\n    bool public isPublic_keysSet;\r\n    bool public isVoterCount;\r\n    bool public isMinSharesSet;\r\n\r\n    // Model a candidate\r\n    struct Candidate{\r\n        uint id;\r\n        string name;\r\n        uint voteCount;\r\n    }\r\n\r\n    // Store candidates\r\n    Candidate[] public candidates; \r\n\r\n    // Model a ballot\r\n    struct Ballot{\r\n        uint id;\r\n        uint candidate_id;\r\n    }\r\n\r\n    // Store ballots\r\n    Ballot[] public ballots;\r\n\r\n    // Model a election Data\r\n    struct ElectionData{\r\n        uint id;\r\n        address owner;\r\n        string title;\r\n        string description;\r\n        string[] public_keys;\r\n        uint candidateCount;\r\n        uint voterCount;\r\n        Candidate[] candidates;\r\n        uint post_time;\r\n        uint key_gen_end_time;\r\n        uint vote_end_time;\r\n        uint secret_upload_end_time;\r\n        uint min_shares;\r\n        bool isTallyed;\r\n    }\r\n\r\n    function setTitle(string memory _title) public{\r\n        require(!isTitleSet,\"title is already set.\");\r\n        title = _title;\r\n        isTitleSet = true;\r\n    }\r\n    function setDescription(string memory _description) public{\r\n        require(!isDescriptionSet,\"title is already set.\");\r\n        description = _description;\r\n        isDescriptionSet = true;\r\n    }\r\n    function setPublicKeys(string[] memory _public_keys) public{\r\n        require(!isPublic_keysSet,\"title is already set.\");\r\n        public_keys = _public_keys;\r\n        voterCount = public_keys.length;\r\n        isPublic_keysSet = true;\r\n        isVoterCount = true;\r\n    }\r\n    function setCandidates(string[] memory _candidates) public{\r\n        require(!isCandidatesSet,\"title is already set.\");\r\n        for(uint i=0;i<_candidates.length;i++){\r\n            candidates.push(Candidate(i,_candidates[i],0));\r\n        }\r\n        candidateCount = candidates.length;\r\n        isCandidatesSet = true;\r\n        isCandidateCountSet = true;\r\n    }\r\n    function setMinShares(uint _min_shares) public{\r\n        require(!isMinSharesSet,\"title is already set.\");\r\n        min_shares = _min_shares;\r\n        isMinSharesSet = true;\r\n    }\r\n\r\n    constructor(address _onwer,uint _id,uint _post_time,\r\n    uint _key_gen_end_time,uint _vote_end_time, uint _secret_upload_end_time){\r\n        \r\n        owner = _onwer;\r\n        id = _id;\r\n\r\n        post_time = _post_time;\r\n        key_gen_end_time = _key_gen_end_time;\r\n        vote_end_time = _vote_end_time;\r\n        secret_upload_end_time = _secret_upload_end_time;\r\n\r\n\r\n    }\r\n\r\n    function addVote(uint _candidateID) public{\r\n        // verify vote peroid: key_gen_end_time <= now < vote_end_time\r\n        require(key_gen_end_time<= block.timestamp && block.timestamp < vote_end_time,\"invalid vote time\");\r\n\r\n        // verify signature\r\n\r\n        // add ballot\r\n        totalVoteCount++;\r\n        ballots.push(Ballot(totalVoteCount,_candidateID));\r\n    }\r\n\r\n    function tallyVote() public{\r\n        // verify tally time : vote_end_time <= now \r\n        require(vote_end_time<= block.timestamp,\"invalid tally time\");\r\n\r\n        for(uint i=1;i<=totalVoteCount;i++){\r\n            uint _candidate_id = ballots[i].candidate_id;\r\n            candidates[_candidate_id].voteCount++;\r\n        }\r\n    }\r\n\r\n    function getElectionData() public view returns(ElectionData memory){\r\n        return ElectionData(id,owner,title,description,public_keys,candidateCount,voterCount,candidates,\r\n        post_time,key_gen_end_time,vote_end_time,secret_upload_end_time,min_shares,isTallyed);\r\n    } \r\n}",
  "sourcePath": "C:\\Users\\tim\\Desktop\\e-voting\\src\\contracts\\Election.sol",
  "compiler": {
    "name": "solc",
    "version": "0.8.10+commit.fc410830.Emscripten.clang"
  },
  "schemaVersion": "3.4.4",
  "updatedAt": "2022-01-04T15:39:40.066Z",
  "devdoc": {
    "kind": "dev",
    "methods": {},
    "version": 1
  },
  "userdoc": {
    "kind": "user",
    "methods": {},
    "version": 1
  }
}