{
  "contractName": "Election",
  "abi": [
    {
      "inputs": [
        {
          "internalType": "uint256",
          "name": "_id",
          "type": "uint256"
        },
        {
          "internalType": "address",
          "name": "_owner",
          "type": "address"
        }
      ],
      "stateMutability": "nonpayable",
      "type": "constructor"
    },
    {
      "anonymous": false,
      "inputs": [
        {
          "indexed": false,
          "internalType": "uint256",
          "name": "totatSharesSentCount",
          "type": "uint256"
        }
      ],
      "name": "addKeygenValueEvent",
      "type": "event"
    },
    {
      "anonymous": false,
      "inputs": [
        {
          "indexed": false,
          "internalType": "uint256",
          "name": "totalSubSecretSentCount",
          "type": "uint256"
        }
      ],
      "name": "addSubSecretEvent",
      "type": "event"
    },
    {
      "anonymous": false,
      "inputs": [
        {
          "indexed": false,
          "internalType": "uint256",
          "name": "totalVoteCount",
          "type": "uint256"
        }
      ],
      "name": "newVoteEvent",
      "type": "event"
    },
    {
      "anonymous": false,
      "inputs": [
        {
          "indexed": false,
          "internalType": "bool",
          "name": "isSetUp",
          "type": "bool"
        }
      ],
      "name": "setElectionInfoEvent",
      "type": "event"
    },
    {
      "anonymous": false,
      "inputs": [
        {
          "indexed": false,
          "internalType": "bool",
          "name": "isVotePubKeySet",
          "type": "bool"
        },
        {
          "indexed": false,
          "internalType": "uint256[]",
          "name": "illegitimate_voter_indeces",
          "type": "uint256[]"
        }
      ],
      "name": "setVotePubKeyEvent",
      "type": "event"
    },
    {
      "anonymous": false,
      "inputs": [
        {
          "components": [
            {
              "internalType": "uint256",
              "name": "id",
              "type": "uint256"
            },
            {
              "internalType": "string",
              "name": "name",
              "type": "string"
            },
            {
              "internalType": "uint256",
              "name": "voteCount",
              "type": "uint256"
            }
          ],
          "indexed": false,
          "internalType": "struct Election.Candidate[]",
          "name": "candidates",
          "type": "tuple[]"
        },
        {
          "components": [
            {
              "internalType": "uint256",
              "name": "id",
              "type": "uint256"
            },
            {
              "internalType": "uint256",
              "name": "voteTime",
              "type": "uint256"
            },
            {
              "internalType": "int256",
              "name": "candidate_id",
              "type": "int256"
            },
            {
              "internalType": "uint256",
              "name": "encVoteHash",
              "type": "uint256"
            },
            {
              "internalType": "uint256",
              "name": "U0",
              "type": "uint256"
            },
            {
              "internalType": "uint256[]",
              "name": "V",
              "type": "uint256[]"
            },
            {
              "components": [
                {
                  "internalType": "uint256",
                  "name": "x",
                  "type": "uint256"
                },
                {
                  "internalType": "uint256",
                  "name": "y",
                  "type": "uint256"
                }
              ],
              "internalType": "struct Secp256r1.ECPoint",
              "name": "K",
              "type": "tuple"
            },
            {
              "components": [
                {
                  "components": [
                    {
                      "internalType": "uint256",
                      "name": "x",
                      "type": "uint256"
                    },
                    {
                      "internalType": "uint256",
                      "name": "y",
                      "type": "uint256"
                    }
                  ],
                  "internalType": "struct Secp256r1.ECPoint",
                  "name": "C",
                  "type": "tuple"
                },
                {
                  "components": [
                    {
                      "internalType": "uint256",
                      "name": "x",
                      "type": "uint256"
                    },
                    {
                      "internalType": "uint256",
                      "name": "y",
                      "type": "uint256"
                    }
                  ],
                  "internalType": "struct Secp256r1.ECPoint",
                  "name": "D",
                  "type": "tuple"
                }
              ],
              "internalType": "struct Elgamal.Elgamal_ciphertext",
              "name": "encVote",
              "type": "tuple"
            }
          ],
          "indexed": false,
          "internalType": "struct Election.Ballot[]",
          "name": "ballots",
          "type": "tuple[]"
        }
      ],
      "name": "tallyVoteEvent",
      "type": "event"
    },
    {
      "anonymous": false,
      "inputs": [
        {
          "indexed": false,
          "internalType": "bool",
          "name": "isNoSendShares",
          "type": "bool"
        },
        {
          "indexed": false,
          "internalType": "uint256[]",
          "name": "illegitimate_voter_indeces",
          "type": "uint256[]"
        }
      ],
      "name": "verifySharesEvent",
      "type": "event"
    },
    {
      "inputs": [
        {
          "internalType": "uint256",
          "name": "",
          "type": "uint256"
        }
      ],
      "name": "ECPubKeysAftVer",
      "outputs": [
        {
          "internalType": "uint256",
          "name": "x",
          "type": "uint256"
        },
        {
          "internalType": "uint256",
          "name": "y",
          "type": "uint256"
        }
      ],
      "stateMutability": "view",
      "type": "function"
    },
    {
      "inputs": [
        {
          "internalType": "uint256",
          "name": "",
          "type": "uint256"
        }
      ],
      "name": "EC_public_keys",
      "outputs": [
        {
          "internalType": "uint256",
          "name": "x",
          "type": "uint256"
        },
        {
          "internalType": "uint256",
          "name": "y",
          "type": "uint256"
        }
      ],
      "stateMutability": "view",
      "type": "function"
    },
    {
      "inputs": [],
      "name": "H",
      "outputs": [
        {
          "internalType": "uint256",
          "name": "x",
          "type": "uint256"
        },
        {
          "internalType": "uint256",
          "name": "y",
          "type": "uint256"
        }
      ],
      "stateMutability": "view",
      "type": "function"
    },
    {
      "inputs": [],
      "name": "L",
      "outputs": [
        {
          "internalType": "uint256",
          "name": "",
          "type": "uint256"
        }
      ],
      "stateMutability": "view",
      "type": "function"
    },
    {
      "inputs": [
        {
          "internalType": "uint256",
          "name": "",
          "type": "uint256"
        }
      ],
      "name": "candidates",
      "outputs": [
        {
          "internalType": "uint256",
          "name": "id",
          "type": "uint256"
        },
        {
          "internalType": "string",
          "name": "name",
          "type": "string"
        },
        {
          "internalType": "uint256",
          "name": "voteCount",
          "type": "uint256"
        }
      ],
      "stateMutability": "view",
      "type": "function"
    },
    {
      "inputs": [],
      "name": "description",
      "outputs": [
        {
          "internalType": "string",
          "name": "",
          "type": "string"
        }
      ],
      "stateMutability": "view",
      "type": "function"
    },
    {
      "inputs": [],
      "name": "id",
      "outputs": [
        {
          "internalType": "uint256",
          "name": "",
          "type": "uint256"
        }
      ],
      "stateMutability": "view",
      "type": "function"
    },
    {
      "inputs": [
        {
          "internalType": "uint256",
          "name": "",
          "type": "uint256"
        }
      ],
      "name": "illegitimate_voter_indeces",
      "outputs": [
        {
          "internalType": "uint256",
          "name": "",
          "type": "uint256"
        }
      ],
      "stateMutability": "view",
      "type": "function"
    },
    {
      "inputs": [],
      "name": "isBasicInfoSet",
      "outputs": [
        {
          "internalType": "bool",
          "name": "",
          "type": "bool"
        }
      ],
      "stateMutability": "view",
      "type": "function"
    },
    {
      "inputs": [],
      "name": "isECPubKeysAftVerSet",
      "outputs": [
        {
          "internalType": "bool",
          "name": "",
          "type": "bool"
        }
      ],
      "stateMutability": "view",
      "type": "function"
    },
    {
      "inputs": [],
      "name": "isNoSendSharesCheck",
      "outputs": [
        {
          "internalType": "bool",
          "name": "",
          "type": "bool"
        }
      ],
      "stateMutability": "view",
      "type": "function"
    },
    {
      "inputs": [],
      "name": "isSetUp",
      "outputs": [
        {
          "internalType": "bool",
          "name": "",
          "type": "bool"
        }
      ],
      "stateMutability": "view",
      "type": "function"
    },
    {
      "inputs": [],
      "name": "isVotePubKeySet",
      "outputs": [
        {
          "internalType": "bool",
          "name": "",
          "type": "bool"
        }
      ],
      "stateMutability": "view",
      "type": "function"
    },
    {
      "inputs": [],
      "name": "isVoteTallied",
      "outputs": [
        {
          "internalType": "bool",
          "name": "",
          "type": "bool"
        }
      ],
      "stateMutability": "view",
      "type": "function"
    },
    {
      "inputs": [],
      "name": "min_shares",
      "outputs": [
        {
          "internalType": "uint256",
          "name": "",
          "type": "uint256"
        }
      ],
      "stateMutability": "view",
      "type": "function"
    },
    {
      "inputs": [],
      "name": "owner",
      "outputs": [
        {
          "internalType": "address",
          "name": "",
          "type": "address"
        }
      ],
      "stateMutability": "view",
      "type": "function"
    },
    {
      "inputs": [],
      "name": "post_time",
      "outputs": [
        {
          "internalType": "uint256",
          "name": "",
          "type": "uint256"
        }
      ],
      "stateMutability": "view",
      "type": "function"
    },
    {
      "inputs": [
        {
          "internalType": "uint256",
          "name": "",
          "type": "uint256"
        }
      ],
      "name": "public_keys",
      "outputs": [
        {
          "internalType": "string",
          "name": "",
          "type": "string"
        }
      ],
      "stateMutability": "view",
      "type": "function"
    },
    {
      "inputs": [],
      "name": "secret_upload_end_time",
      "outputs": [
        {
          "internalType": "uint256",
          "name": "",
          "type": "uint256"
        }
      ],
      "stateMutability": "view",
      "type": "function"
    },
    {
      "inputs": [],
      "name": "share_end_time",
      "outputs": [
        {
          "internalType": "uint256",
          "name": "",
          "type": "uint256"
        }
      ],
      "stateMutability": "view",
      "type": "function"
    },
    {
      "inputs": [],
      "name": "title",
      "outputs": [
        {
          "internalType": "string",
          "name": "",
          "type": "string"
        }
      ],
      "stateMutability": "view",
      "type": "function"
    },
    {
      "inputs": [],
      "name": "totalSubSecretSentCount",
      "outputs": [
        {
          "internalType": "uint256",
          "name": "",
          "type": "uint256"
        }
      ],
      "stateMutability": "view",
      "type": "function"
    },
    {
      "inputs": [],
      "name": "totatSharesSentCount",
      "outputs": [
        {
          "internalType": "uint256",
          "name": "",
          "type": "uint256"
        }
      ],
      "stateMutability": "view",
      "type": "function"
    },
    {
      "inputs": [],
      "name": "ver_end_time",
      "outputs": [
        {
          "internalType": "uint256",
          "name": "",
          "type": "uint256"
        }
      ],
      "stateMutability": "view",
      "type": "function"
    },
    {
      "inputs": [],
      "name": "votePubKey",
      "outputs": [
        {
          "internalType": "uint256",
          "name": "x",
          "type": "uint256"
        },
        {
          "internalType": "uint256",
          "name": "y",
          "type": "uint256"
        }
      ],
      "stateMutability": "view",
      "type": "function"
    },
    {
      "inputs": [],
      "name": "vote_end_time",
      "outputs": [
        {
          "internalType": "uint256",
          "name": "",
          "type": "uint256"
        }
      ],
      "stateMutability": "view",
      "type": "function"
    },
    {
      "inputs": [
        {
          "components": [
            {
              "internalType": "string",
              "name": "title",
              "type": "string"
            },
            {
              "internalType": "string",
              "name": "des",
              "type": "string"
            },
            {
              "internalType": "string[]",
              "name": "pubKeys",
              "type": "string[]"
            },
            {
              "internalType": "string[]",
              "name": "candidates",
              "type": "string[]"
            },
            {
              "components": [
                {
                  "internalType": "uint256",
                  "name": "x",
                  "type": "uint256"
                },
                {
                  "internalType": "uint256",
                  "name": "y",
                  "type": "uint256"
                }
              ],
              "internalType": "struct Secp256r1.ECPoint[]",
              "name": "EC_public_keys",
              "type": "tuple[]"
            },
            {
              "internalType": "uint256",
              "name": "minShares",
              "type": "uint256"
            },
            {
              "internalType": "uint256",
              "name": "sharesTime",
              "type": "uint256"
            },
            {
              "internalType": "uint256",
              "name": "verTime",
              "type": "uint256"
            },
            {
              "internalType": "uint256",
              "name": "voteTime",
              "type": "uint256"
            },
            {
              "internalType": "uint256",
              "name": "secUploadTime",
              "type": "uint256"
            },
            {
              "internalType": "uint256",
              "name": "sharesTimeUnit",
              "type": "uint256"
            },
            {
              "internalType": "uint256",
              "name": "verTimeUnit",
              "type": "uint256"
            },
            {
              "internalType": "uint256",
              "name": "voteTimeUnit",
              "type": "uint256"
            },
            {
              "internalType": "uint256",
              "name": "secUploadTimeUnit",
              "type": "uint256"
            }
          ],
          "internalType": "struct Election.ElectionSetUpData",
          "name": "_data",
          "type": "tuple"
        }
      ],
      "name": "setElectionInfo",
      "outputs": [],
      "stateMutability": "nonpayable",
      "type": "function"
    },
    {
      "inputs": [
        {
          "components": [
            {
              "components": [
                {
                  "internalType": "uint256",
                  "name": "x",
                  "type": "uint256"
                },
                {
                  "internalType": "uint256",
                  "name": "y",
                  "type": "uint256"
                }
              ],
              "internalType": "struct Secp256r1.ECPoint",
              "name": "H2",
              "type": "tuple"
            },
            {
              "internalType": "uint256",
              "name": "i",
              "type": "uint256"
            },
            {
              "internalType": "uint256",
              "name": "j",
              "type": "uint256"
            },
            {
              "components": [
                {
                  "internalType": "uint256",
                  "name": "c",
                  "type": "uint256"
                },
                {
                  "internalType": "uint256",
                  "name": "r",
                  "type": "uint256"
                }
              ],
              "internalType": "struct CPProof.CPproof",
              "name": "proof",
              "type": "tuple"
            }
          ],
          "internalType": "struct Shares.VerSharesPar[]",
          "name": "_Par",
          "type": "tuple[]"
        }
      ],
      "name": "setDisqualifiedPubKeyIndece",
      "outputs": [],
      "stateMutability": "nonpayable",
      "type": "function"
    },
    {
      "inputs": [],
      "name": "setNoSendSharesVoters",
      "outputs": [],
      "stateMutability": "nonpayable",
      "type": "function"
    },
    {
      "inputs": [],
      "name": "setVotePublicKey",
      "outputs": [],
      "stateMutability": "nonpayable",
      "type": "function"
    },
    {
      "inputs": [],
      "name": "getBallot",
      "outputs": [
        {
          "components": [
            {
              "internalType": "uint256",
              "name": "id",
              "type": "uint256"
            },
            {
              "internalType": "uint256",
              "name": "voteTime",
              "type": "uint256"
            },
            {
              "internalType": "int256",
              "name": "candidate_id",
              "type": "int256"
            },
            {
              "internalType": "uint256",
              "name": "encVoteHash",
              "type": "uint256"
            },
            {
              "internalType": "uint256",
              "name": "U0",
              "type": "uint256"
            },
            {
              "internalType": "uint256[]",
              "name": "V",
              "type": "uint256[]"
            },
            {
              "components": [
                {
                  "internalType": "uint256",
                  "name": "x",
                  "type": "uint256"
                },
                {
                  "internalType": "uint256",
                  "name": "y",
                  "type": "uint256"
                }
              ],
              "internalType": "struct Secp256r1.ECPoint",
              "name": "K",
              "type": "tuple"
            },
            {
              "components": [
                {
                  "components": [
                    {
                      "internalType": "uint256",
                      "name": "x",
                      "type": "uint256"
                    },
                    {
                      "internalType": "uint256",
                      "name": "y",
                      "type": "uint256"
                    }
                  ],
                  "internalType": "struct Secp256r1.ECPoint",
                  "name": "C",
                  "type": "tuple"
                },
                {
                  "components": [
                    {
                      "internalType": "uint256",
                      "name": "x",
                      "type": "uint256"
                    },
                    {
                      "internalType": "uint256",
                      "name": "y",
                      "type": "uint256"
                    }
                  ],
                  "internalType": "struct Secp256r1.ECPoint",
                  "name": "D",
                  "type": "tuple"
                }
              ],
              "internalType": "struct Elgamal.Elgamal_ciphertext",
              "name": "encVote",
              "type": "tuple"
            }
          ],
          "internalType": "struct Election.Ballot[]",
          "name": "",
          "type": "tuple[]"
        }
      ],
      "stateMutability": "view",
      "type": "function"
    },
    {
      "inputs": [
        {
          "components": [
            {
              "internalType": "uint256",
              "name": "h",
              "type": "uint256"
            },
            {
              "internalType": "uint256",
              "name": "subSecret",
              "type": "uint256"
            },
            {
              "internalType": "uint256",
              "name": "i",
              "type": "uint256"
            },
            {
              "components": [
                {
                  "internalType": "uint256",
                  "name": "r",
                  "type": "uint256"
                },
                {
                  "internalType": "uint256",
                  "name": "s",
                  "type": "uint256"
                }
              ],
              "internalType": "struct ECDSA.ECDSA_Sig",
              "name": "sig",
              "type": "tuple"
            }
          ],
          "internalType": "struct Utils.SubSecretWithSig",
          "name": "_s",
          "type": "tuple"
        }
      ],
      "name": "addSubSecret",
      "outputs": [],
      "stateMutability": "nonpayable",
      "type": "function"
    },
    {
      "inputs": [],
      "name": "getSubSecrets",
      "outputs": [
        {
          "components": [
            {
              "internalType": "uint256",
              "name": "h",
              "type": "uint256"
            },
            {
              "internalType": "uint256",
              "name": "subSecret",
              "type": "uint256"
            },
            {
              "internalType": "uint256",
              "name": "i",
              "type": "uint256"
            },
            {
              "components": [
                {
                  "internalType": "uint256",
                  "name": "r",
                  "type": "uint256"
                },
                {
                  "internalType": "uint256",
                  "name": "s",
                  "type": "uint256"
                }
              ],
              "internalType": "struct ECDSA.ECDSA_Sig",
              "name": "sig",
              "type": "tuple"
            }
          ],
          "internalType": "struct Utils.SubSecretWithSig[]",
          "name": "",
          "type": "tuple[]"
        }
      ],
      "stateMutability": "view",
      "type": "function"
    },
    {
      "inputs": [
        {
          "internalType": "uint256",
          "name": "_publicKeyIndex",
          "type": "uint256"
        }
      ],
      "name": "getF",
      "outputs": [
        {
          "components": [
            {
              "components": [
                {
                  "internalType": "uint256",
                  "name": "x",
                  "type": "uint256"
                },
                {
                  "internalType": "uint256",
                  "name": "y",
                  "type": "uint256"
                }
              ],
              "internalType": "struct Secp256r1.ECPoint",
              "name": "p",
              "type": "tuple"
            },
            {
              "internalType": "uint256",
              "name": "i",
              "type": "uint256"
            },
            {
              "internalType": "uint256",
              "name": "j",
              "type": "uint256"
            },
            {
              "internalType": "uint256",
              "name": "h",
              "type": "uint256"
            },
            {
              "components": [
                {
                  "internalType": "uint256",
                  "name": "r",
                  "type": "uint256"
                },
                {
                  "internalType": "uint256",
                  "name": "s",
                  "type": "uint256"
                }
              ],
              "internalType": "struct ECDSA.ECDSA_Sig",
              "name": "sig",
              "type": "tuple"
            }
          ],
          "internalType": "struct Shares.F[]",
          "name": "",
          "type": "tuple[]"
        }
      ],
      "stateMutability": "view",
      "type": "function"
    },
    {
      "inputs": [
        {
          "internalType": "uint256",
          "name": "_publicKeyIndex",
          "type": "uint256"
        }
      ],
      "name": "getf",
      "outputs": [
        {
          "components": [
            {
              "components": [
                {
                  "components": [
                    {
                      "internalType": "uint256",
                      "name": "x",
                      "type": "uint256"
                    },
                    {
                      "internalType": "uint256",
                      "name": "y",
                      "type": "uint256"
                    }
                  ],
                  "internalType": "struct Secp256r1.ECPoint",
                  "name": "C",
                  "type": "tuple"
                },
                {
                  "components": [
                    {
                      "internalType": "uint256",
                      "name": "x",
                      "type": "uint256"
                    },
                    {
                      "internalType": "uint256",
                      "name": "y",
                      "type": "uint256"
                    }
                  ],
                  "internalType": "struct Secp256r1.ECPoint",
                  "name": "D",
                  "type": "tuple"
                }
              ],
              "internalType": "struct Elgamal.Elgamal_ciphertext",
              "name": "ciphertext",
              "type": "tuple"
            },
            {
              "internalType": "uint256",
              "name": "i",
              "type": "uint256"
            },
            {
              "internalType": "uint256",
              "name": "j",
              "type": "uint256"
            },
            {
              "internalType": "uint256",
              "name": "h",
              "type": "uint256"
            },
            {
              "components": [
                {
                  "internalType": "uint256",
                  "name": "r",
                  "type": "uint256"
                },
                {
                  "internalType": "uint256",
                  "name": "s",
                  "type": "uint256"
                }
              ],
              "internalType": "struct ECDSA.ECDSA_Sig",
              "name": "sig",
              "type": "tuple"
            }
          ],
          "internalType": "struct Shares.f[]",
          "name": "",
          "type": "tuple[]"
        }
      ],
      "stateMutability": "view",
      "type": "function"
    },
    {
      "inputs": [
        {
          "components": [
            {
              "components": [
                {
                  "internalType": "uint256",
                  "name": "x",
                  "type": "uint256"
                },
                {
                  "internalType": "uint256",
                  "name": "y",
                  "type": "uint256"
                }
              ],
              "internalType": "struct Secp256r1.ECPoint",
              "name": "p",
              "type": "tuple"
            },
            {
              "internalType": "uint256",
              "name": "i",
              "type": "uint256"
            },
            {
              "internalType": "uint256",
              "name": "j",
              "type": "uint256"
            },
            {
              "internalType": "uint256",
              "name": "h",
              "type": "uint256"
            },
            {
              "components": [
                {
                  "internalType": "uint256",
                  "name": "r",
                  "type": "uint256"
                },
                {
                  "internalType": "uint256",
                  "name": "s",
                  "type": "uint256"
                }
              ],
              "internalType": "struct ECDSA.ECDSA_Sig",
              "name": "sig",
              "type": "tuple"
            }
          ],
          "internalType": "struct Shares.F[]",
          "name": "_F",
          "type": "tuple[]"
        },
        {
          "components": [
            {
              "components": [
                {
                  "components": [
                    {
                      "internalType": "uint256",
                      "name": "x",
                      "type": "uint256"
                    },
                    {
                      "internalType": "uint256",
                      "name": "y",
                      "type": "uint256"
                    }
                  ],
                  "internalType": "struct Secp256r1.ECPoint",
                  "name": "C",
                  "type": "tuple"
                },
                {
                  "components": [
                    {
                      "internalType": "uint256",
                      "name": "x",
                      "type": "uint256"
                    },
                    {
                      "internalType": "uint256",
                      "name": "y",
                      "type": "uint256"
                    }
                  ],
                  "internalType": "struct Secp256r1.ECPoint",
                  "name": "D",
                  "type": "tuple"
                }
              ],
              "internalType": "struct Elgamal.Elgamal_ciphertext",
              "name": "ciphertext",
              "type": "tuple"
            },
            {
              "internalType": "uint256",
              "name": "i",
              "type": "uint256"
            },
            {
              "internalType": "uint256",
              "name": "j",
              "type": "uint256"
            },
            {
              "internalType": "uint256",
              "name": "h",
              "type": "uint256"
            },
            {
              "components": [
                {
                  "internalType": "uint256",
                  "name": "r",
                  "type": "uint256"
                },
                {
                  "internalType": "uint256",
                  "name": "s",
                  "type": "uint256"
                }
              ],
              "internalType": "struct ECDSA.ECDSA_Sig",
              "name": "sig",
              "type": "tuple"
            }
          ],
          "internalType": "struct Shares.f[]",
          "name": "_f",
          "type": "tuple[]"
        }
      ],
      "name": "addShares",
      "outputs": [],
      "stateMutability": "nonpayable",
      "type": "function"
    },
    {
      "inputs": [
        {
          "internalType": "uint256",
          "name": "_encVoteHash",
          "type": "uint256"
        },
        {
          "internalType": "uint256",
          "name": "_U0",
          "type": "uint256"
        },
        {
          "internalType": "uint256[]",
          "name": "_V",
          "type": "uint256[]"
        },
        {
          "components": [
            {
              "internalType": "uint256",
              "name": "x",
              "type": "uint256"
            },
            {
              "internalType": "uint256",
              "name": "y",
              "type": "uint256"
            }
          ],
          "internalType": "struct Secp256r1.ECPoint",
          "name": "_K",
          "type": "tuple"
        }
      ],
      "name": "verifyLRS",
      "outputs": [
        {
          "internalType": "bool",
          "name": "",
          "type": "bool"
        }
      ],
      "stateMutability": "view",
      "type": "function"
    },
    {
      "inputs": [
        {
          "components": [
            {
              "components": [
                {
                  "internalType": "uint256",
                  "name": "x",
                  "type": "uint256"
                },
                {
                  "internalType": "uint256",
                  "name": "y",
                  "type": "uint256"
                }
              ],
              "internalType": "struct Secp256r1.ECPoint",
              "name": "C",
              "type": "tuple"
            },
            {
              "components": [
                {
                  "internalType": "uint256",
                  "name": "x",
                  "type": "uint256"
                },
                {
                  "internalType": "uint256",
                  "name": "y",
                  "type": "uint256"
                }
              ],
              "internalType": "struct Secp256r1.ECPoint",
              "name": "D",
              "type": "tuple"
            }
          ],
          "internalType": "struct Elgamal.Elgamal_ciphertext",
          "name": "_encVote",
          "type": "tuple"
        },
        {
          "internalType": "uint256",
          "name": "_encVoteHash",
          "type": "uint256"
        },
        {
          "internalType": "uint256",
          "name": "_U0",
          "type": "uint256"
        },
        {
          "internalType": "uint256[]",
          "name": "_V",
          "type": "uint256[]"
        },
        {
          "components": [
            {
              "internalType": "uint256",
              "name": "x",
              "type": "uint256"
            },
            {
              "internalType": "uint256",
              "name": "y",
              "type": "uint256"
            }
          ],
          "internalType": "struct Secp256r1.ECPoint",
          "name": "_K",
          "type": "tuple"
        }
      ],
      "name": "addVote",
      "outputs": [],
      "stateMutability": "nonpayable",
      "type": "function"
    },
    {
      "inputs": [
        {
          "internalType": "uint256",
          "name": "_votePrvKey",
          "type": "uint256"
        }
      ],
      "name": "verfiyVotePrivateKey",
      "outputs": [
        {
          "internalType": "bool",
          "name": "",
          "type": "bool"
        }
      ],
      "stateMutability": "view",
      "type": "function"
    },
    {
      "inputs": [
        {
          "components": [
            {
              "components": [
                {
                  "internalType": "uint256",
                  "name": "x",
                  "type": "uint256"
                },
                {
                  "internalType": "uint256",
                  "name": "y",
                  "type": "uint256"
                }
              ],
              "internalType": "struct Secp256r1.ECPoint",
              "name": "C",
              "type": "tuple"
            },
            {
              "components": [
                {
                  "internalType": "uint256",
                  "name": "x",
                  "type": "uint256"
                },
                {
                  "internalType": "uint256",
                  "name": "y",
                  "type": "uint256"
                }
              ],
              "internalType": "struct Secp256r1.ECPoint",
              "name": "D",
              "type": "tuple"
            }
          ],
          "internalType": "struct Elgamal.Elgamal_ciphertext",
          "name": "_encVote",
          "type": "tuple"
        },
        {
          "internalType": "uint256",
          "name": "_votePrvKey",
          "type": "uint256"
        }
      ],
      "name": "decryptVote",
      "outputs": [
        {
          "internalType": "uint256",
          "name": "",
          "type": "uint256"
        }
      ],
      "stateMutability": "pure",
      "type": "function"
    },
    {
      "inputs": [
        {
          "internalType": "uint256",
          "name": "_votePrvKey",
          "type": "uint256"
        }
      ],
      "name": "tallyVote",
      "outputs": [],
      "stateMutability": "nonpayable",
      "type": "function"
    },
    {
      "inputs": [],
      "name": "getElectionData",
      "outputs": [
        {
          "components": [
            {
              "internalType": "uint256",
              "name": "id",
              "type": "uint256"
            },
            {
              "internalType": "uint256",
              "name": "post_time",
              "type": "uint256"
            },
            {
              "internalType": "uint256",
              "name": "share_end_time",
              "type": "uint256"
            },
            {
              "internalType": "uint256",
              "name": "ver_end_time",
              "type": "uint256"
            },
            {
              "internalType": "uint256",
              "name": "vote_end_time",
              "type": "uint256"
            },
            {
              "internalType": "uint256",
              "name": "secret_upload_end_time",
              "type": "uint256"
            },
            {
              "internalType": "uint256",
              "name": "min_shares",
              "type": "uint256"
            },
            {
              "internalType": "uint256",
              "name": "totatSharesSentCount",
              "type": "uint256"
            },
            {
              "internalType": "uint256",
              "name": "totalSubSecretSentCount",
              "type": "uint256"
            },
            {
              "internalType": "uint256[]",
              "name": "illegitimate_voter_indeces",
              "type": "uint256[]"
            },
            {
              "internalType": "string",
              "name": "title",
              "type": "string"
            },
            {
              "internalType": "string",
              "name": "description",
              "type": "string"
            },
            {
              "internalType": "string[]",
              "name": "public_keys",
              "type": "string[]"
            },
            {
              "components": [
                {
                  "internalType": "uint256",
                  "name": "id",
                  "type": "uint256"
                },
                {
                  "internalType": "string",
                  "name": "name",
                  "type": "string"
                },
                {
                  "internalType": "uint256",
                  "name": "voteCount",
                  "type": "uint256"
                }
              ],
              "internalType": "struct Election.Candidate[]",
              "name": "candidates",
              "type": "tuple[]"
            },
            {
              "internalType": "bool",
              "name": "isVoteTallied",
              "type": "bool"
            },
            {
              "internalType": "bool",
              "name": "isVotePubKeySet",
              "type": "bool"
            },
            {
              "internalType": "bool",
              "name": "isECPubKeysAftVerSet",
              "type": "bool"
            },
            {
              "internalType": "bool",
              "name": "isSetUp",
              "type": "bool"
            },
            {
              "internalType": "bool",
              "name": "isNoSendSharesCheck",
              "type": "bool"
            },
            {
              "internalType": "address",
              "name": "owner",
              "type": "address"
            },
            {
              "components": [
                {
                  "internalType": "uint256",
                  "name": "id",
                  "type": "uint256"
                },
                {
                  "internalType": "uint256",
                  "name": "voteTime",
                  "type": "uint256"
                },
                {
                  "internalType": "int256",
                  "name": "candidate_id",
                  "type": "int256"
                },
                {
                  "internalType": "uint256",
                  "name": "encVoteHash",
                  "type": "uint256"
                },
                {
                  "internalType": "uint256",
                  "name": "U0",
                  "type": "uint256"
                },
                {
                  "internalType": "uint256[]",
                  "name": "V",
                  "type": "uint256[]"
                },
                {
                  "components": [
                    {
                      "internalType": "uint256",
                      "name": "x",
                      "type": "uint256"
                    },
                    {
                      "internalType": "uint256",
                      "name": "y",
                      "type": "uint256"
                    }
                  ],
                  "internalType": "struct Secp256r1.ECPoint",
                  "name": "K",
                  "type": "tuple"
                },
                {
                  "components": [
                    {
                      "components": [
                        {
                          "internalType": "uint256",
                          "name": "x",
                          "type": "uint256"
                        },
                        {
                          "internalType": "uint256",
                          "name": "y",
                          "type": "uint256"
                        }
                      ],
                      "internalType": "struct Secp256r1.ECPoint",
                      "name": "C",
                      "type": "tuple"
                    },
                    {
                      "components": [
                        {
                          "internalType": "uint256",
                          "name": "x",
                          "type": "uint256"
                        },
                        {
                          "internalType": "uint256",
                          "name": "y",
                          "type": "uint256"
                        }
                      ],
                      "internalType": "struct Secp256r1.ECPoint",
                      "name": "D",
                      "type": "tuple"
                    }
                  ],
                  "internalType": "struct Elgamal.Elgamal_ciphertext",
                  "name": "encVote",
                  "type": "tuple"
                }
              ],
              "internalType": "struct Election.Ballot[]",
              "name": "ballots",
              "type": "tuple[]"
            }
          ],
          "internalType": "struct Election.ElectionData",
          "name": "",
          "type": "tuple"
        }
      ],
      "stateMutability": "view",
      "type": "function"
    }
  ],
  "bytecode": "0x60806040523480156200001157600080fd5b50604051620051b9380380620051b983398101604081905262000034916200005f565b600491909155600080546001600160a01b0319166001600160a01b039092169190911790556200009e565b600080604083850312156200007357600080fd5b825160208401519092506001600160a01b03811681146200009357600080fd5b809150509250929050565b61510b80620000ae6000396000f3fe608060405234801561001057600080fd5b50600436106101ee5760003560e01c806301c9fd4b146101f357806317542dc01461020f5780631df32b9d146102185780633477ee2e1461023b57806336e678391461025d5780633e4e3b1a1461027257806344ff1d68146102855780634a79d50c146102a5578063500b1e82146102ad5780636652e526146102c057806368bf4b85146102d557806370252e1c146102e857806370a5d861146102fc57806370dc5e131461031857806371922f6f146103265780637284e4161461033957806373d1993b1461034157806384ccae851461034a5780638518d2d9146103525780638da5cb5b146103655780639baec8b9146103905780639f13f76d146103a5578063a0b0ee76146103ae578063a2f93301146103c2578063a69d1b7e146103ca578063ab64ad30146103dd578063af640d0f146103f0578063b9bb4a4b146103f9578063b9d2c9791461040c578063bb2bcc061461041e578063c701ae2014610427578063cdce88ef14610430578063d2b10f3914610450578063df36903a14610459578063e3bad1201461046d578063e6a706081461047a578063ee9d02a61461049a578063eebc904e146104ad578063f3e1b077146104b6578063f9f9274e146104c9578063fca43a57146104de578063fecfdbfe146104f1575b600080fd5b6101fc600b5481565b6040519081526020015b60405180910390f35b6101fc60095481565b61022b610226366004613de9565b6104fa565b6040519015158152602001610206565b61024e610249366004613e51565b610673565b60405161020693929190613ec6565b61027061026b366004613f01565b610731565b005b610270610280366004613f7a565b610ae2565b610298610293366004613e51565b61130c565b6040516102069190614042565b6102986113b8565b600d5461022b9062010000900460ff1681565b6102c86113c5565b6040516102069190614233565b6101fc6102e3366004613e51565b6119d9565b600d5461022b906301000000900460ff1681565b60125460135461030a919082565b6040516102069291906143d8565b600e54600f5461030a919082565b61022b610334366004613e51565b6119fa565b610298611a7e565b6101fc60085481565b610270611a8b565b6102706103603660046143e6565b611cbd565b600054610378906001600160a01b031681565b6040516001600160a01b039091168152602001610206565b61039861225c565b6040516102069190614421565b6101fc60115481565b600d5461022b90600160201b900460ff1681565b6102706123af565b6101fc6103d8366004614434565b612641565b6102706103eb36600461445f565b6126c5565b6101fc60045481565b61030a610407366004613e51565b612bc0565b600d5461022b90610100900460ff1681565b6101fc600a5481565b6101fc600c5481565b61044361043e366004613e51565b612bee565b60405161020691906144d3565b6101fc60065481565b600d5461022b90600160281b900460ff1681565b600d5461022b9060ff1681565b61048d610488366004613e51565b612d63565b6040516102069190614549565b6102706104a8366004613e51565b612f3d565b6101fc60075481565b6102706104c43660046145bf565b613147565b6104d161346a565b60405161020691906145d1565b61030a6104ec366004613e51565b6134f7565b6101fc60055481565b600073__LRS___________________________________63eb6100266040518060e001604052808981526020018881526020016011548152602001878780806020026020016040519081016040528093929190818152602001838360200280828437600092019190915250505090825250604080518082018252601254815260135460208281019190915283015201610598368790038701876146b0565b81526020016016805480602002602001604051908101604052809291908181526020016000905b82821015610605578382906000526020600020906002020160405180604001604052908160008201548152602001600182015481525050815260200190600101906105bf565b505050508152506040518263ffffffff1660e01b81526004016106289190614706565b602060405180830381865af4158015610645573d6000803e3d6000fd5b505050506040513d601f19601f8201168201806040525081019061066991906147c1565b9695505050505050565b6019818154811061068357600080fd5b600091825260209091206003909102018054600182018054919350906106a8906147e3565b80601f01602080910402602001604051908101604052809291908181526020018280546106d4906147e3565b80156107215780601f106106f657610100808354040283529160200191610721565b820191906000526020600020905b81548152906001019060200180831161070457829003601f168201915b5050505050908060020154905083565b4260075411158015610744575060085442105b6107855760405162461bcd60e51b815260206004820152600d60248201526c57726f6e67566f746554696d6560981b60448201526064015b60405180910390fd5b600d546301000000900460ff1615156001146107d85760405162461bcd60e51b815260206004820152601260248201527114d95d159bdd19541d5892d95e519a5c9cdd60721b604482015260640161077c565b600a5460165410156107fc5760405162461bcd60e51b815260040161077c90614818565b600060038260000135836020013560405160200161081b9291906143d8565b60408051601f198184030181529082905261083591614844565b602060405180830381855afa158015610852573d6000803e3d6000fd5b5050604080515160601b6001600160601b0319811660009081526014602052919091205490925060ff161590506108b95760405162461bcd60e51b815260206004820152600b60248201526a165bdd55d85cd59bdd195960aa1b604482015260640161077c565b604080516000916108df918a35916020808d013592918d01359160608e01359101614860565b6040516020818303038152906040528051906020012060001c90508681146109195760405162461bcd60e51b815260040161077c9061487b565b600061092888888888886104fa565b905060018115151461094c5760405162461bcd60e51b815260040161077c906148a3565b6021604051806101000160405280602180549050815260200142815260200160001981526020018a81526020018981526020018888808060200260200160405190810160405280939291908181526020018383602002808284376000920191909152505050908252506020016109c7368890038801886146b0565b81526020016109db368d90038d018d6148cb565b905281546001818101845560009384526020938490208351600c90930201918255838301519082015560408201516002820155606082015160038201556080820151600482015560a0820151805192939192610a3d9260058501920190613b9a565b5060c082015180516006830155602090810151600783015560e09092015180518051600884015583015160098301558201518051600a830155820151600b909101556001600160601b03198416600090815260148252604090819020805460ff1916600117905560215490519081527ffa3646576e62bd55338198a0df1081271097c419287396347b2f5b84a21d6760910160405180910390a1505050505050505050565b60008080805b600a54811015610e8e57878782818110610b0457610b0461490a565b60e00291909101359050888883818110610b2057610b2061490a565b905060e0020160000160200135898984818110610b3f57610b3f61490a565b905060e00201604001358a8a85818110610b5b57610b5b61490a565b905060e0020160600135604051602001610b789493929190614860565b6040516020818303038152906040528051906020012060001c9250878782818110610ba557610ba561490a565b905060e00201608001358314610bcd5760405162461bcd60e51b815260040161077c9061487b565b73__ECDSA_________________________________63f43c6a6d6040518060a001604052808b8b86818110610c0457610c0461490a565b905060e0020160a0016000013581526020018b8b86818110610c2857610c2861490a565b905060e0020160a00160200135815260200186815260200160158c8c87818110610c5457610c5461490a565b905060e002016040013581548110610c6e57610c6e61490a565b906000526020600020906002020160000154815260200160158c8c87818110610c9957610c9961490a565b905060e002016040013581548110610cb357610cb361490a565b9060005260206000209060020201600101548152506040518263ffffffff1660e01b8152600401610ce49190614920565b602060405180830381865af4158015610d01573d6000803e3d6000fd5b505050506040513d601f19601f82011682018060405250810190610d2591906147c1565b9150600182151514610d495760405162461bcd60e51b815260040161077c906148a3565b6003888883818110610d5d57610d5d61490a565b905060e0020160400135898984818110610d7957610d7961490a565b905060e0020160600135604051602001610d949291906143d8565b60408051601f1981840301815290829052610dae91614844565b602060405180830381855afa158015610dcb573d6000803e3d6000fd5b5050604080515160601b6001600160601b031981166000908152601c602052919091205490955060ff16159050610e145760405162461bcd60e51b815260040161077c9061495a565b6001600160601b031984166000908152601c60205260409020805460ff19166001179055878782818110610e4a57610e4a61490a565b6001600160601b031987166000908152601a6020526040902060e090910292909201919050610e7982826149a2565b50819050610e86816149f0565b915050610ae8565b5060005b6003548110156112b257858582818110610eae57610eae61490a565b6101200291909101359050868683818110610ecb57610ecb61490a565b9050610120020160000160000160200135878784818110610eee57610eee61490a565b9050610120020160000160400160000135888885818110610f1157610f1161490a565b9050610120020160000160400160200135898986818110610f3457610f3461490a565b90506101200201608001358a8a87818110610f5157610f5161490a565b9050610120020160a00135604051602001610f9496959493929190958652602086019490945260408501929092526060840152608083015260a082015260c00190565b6040516020818303038152906040528051906020012060001c9250858582818110610fc157610fc161490a565b9050610120020160c001358314610fea5760405162461bcd60e51b815260040161077c9061487b565b73__ECDSA_________________________________63f43c6a6d6040518060a001604052808989868181106110215761102161490a565b9050610120020160e0016000013581526020018989868181106110465761104661490a565b9050610120020160e00160200135815260200186815260200160158a8a878181106110735761107361490a565b90506101200201608001358154811061108e5761108e61490a565b906000526020600020906002020160000154815260200160158a8a878181106110b9576110b961490a565b9050610120020160800135815481106110d4576110d461490a565b9060005260206000209060020201600101548152506040518263ffffffff1660e01b81526004016111059190614920565b602060405180830381865af4158015611122573d6000803e3d6000fd5b505050506040513d601f19601f8201168201806040525081019061114691906147c1565b915060018215151461116a5760405162461bcd60e51b815260040161077c906148a3565b600386868381811061117e5761117e61490a565b905061012002016080013587878481811061119b5761119b61490a565b9050610120020160a001356040516020016111b79291906143d8565b60408051601f19818403018152908290526111d191614844565b602060405180830381855afa1580156111ee573d6000803e3d6000fd5b5050604080515160601b6001600160601b031981166000908152601d602052919091205490955060ff161590506112375760405162461bcd60e51b815260040161077c9061495a565b6001600160601b031984166000908152601d60205260409020805460ff1916600117905585858281811061126d5761126d61490a565b6001600160601b031987166000908152601b602052604090206101209091029290920191905061129d8282614a0b565b508190506112aa816149f0565b915050610e92565b50600b80549060006112c3836149f0565b91905055507f6a2c41ee80fc36b9b44f5e1f5d932b5988f82c4a2dfaa8f1271f8dc8dfa38657600b546040516112fb91815260200190565b60405180910390a150505050505050565b6003818154811061131c57600080fd5b906000526020600020016000915090508054611337906147e3565b80601f0160208091040260200160405190810160405280929190818152602001828054611363906147e3565b80156113b05780601f10611385576101008083540402835291602001916113b0565b820191906000526020600020905b81548152906001019060200180831161139357829003601f168201915b505050505081565b60018054611337906147e3565b61147b604051806102a00160405280600081526020016000815260200160008152602001600081526020016000815260200160008152602001600081526020016000815260200160008152602001606081526020016060815260200160608152602001606081526020016060815260200160001515815260200160001515815260200160001515815260200160001515815260200160001515815260200160006001600160a01b03168152602001606081525090565b604051806102a00160405280600454815260200160055481526020016006548152602001600754815260200160085481526020016009548152602001600a548152602001600b548152602001600c548152602001601780548060200260200160405190810160405280929190818152602001828054801561151b57602002820191906000526020600020905b815481526020019060010190808311611507575b5050505050815260200160018054611532906147e3565b80601f016020809104026020016040519081016040528092919081815260200182805461155e906147e3565b80156115ab5780601f10611580576101008083540402835291602001916115ab565b820191906000526020600020905b81548152906001019060200180831161158e57829003601f168201915b50505050508152602001600280546115c2906147e3565b80601f01602080910402602001604051908101604052809291908181526020018280546115ee906147e3565b801561163b5780601f106116105761010080835404028352916020019161163b565b820191906000526020600020905b81548152906001019060200180831161161e57829003601f168201915b505050505081526020016003805480602002602001604051908101604052809291908181526020016000905b82821015611713578382906000526020600020018054611686906147e3565b80601f01602080910402602001604051908101604052809291908181526020018280546116b2906147e3565b80156116ff5780601f106116d4576101008083540402835291602001916116ff565b820191906000526020600020905b8154815290600101906020018083116116e257829003601f168201915b505050505081526020019060010190611667565b5050505081526020016019805480602002602001604051908101604052809291908181526020016000905b8282101561181657838290600052602060002090600302016040518060600160405290816000820154815260200160018201805461177b906147e3565b80601f01602080910402602001604051908101604052809291908181526020018280546117a7906147e3565b80156117f45780601f106117c9576101008083540402835291602001916117f4565b820191906000526020600020905b8154815290600101906020018083116117d757829003601f168201915b505050505081526020016002820154815250508152602001906001019061173e565b50505090825250600d5460ff80821615156020808501919091526301000000830482161515604080860191909152600160201b8404831615156060860152620100008404831615156080860152600160281b909304909116151560a0840152600080546001600160a01b031660c08501526021805484518185028101850190955280855260e090950194909290919084015b828210156119ce57838290600052602060002090600c02016040518061010001604052908160008201548152602001600182015481526020016002820154815260200160038201548152602001600482015481526020016005820180548060200260200160405190810160405280929190818152602001828054801561194d57602002820191906000526020600020905b815481526020019060010190808311611939575b5050509183525050604080518082018252600684015481526007840154602082810191909152808401919091528151608081018352600885015481840190815260098601546060830152815282518084018452600a8601548152600b90950154858301528082019490945291019190915290825260019290920191016118a8565b505050915250919050565b601781815481106119e957600080fd5b600091825260209091200154905081565b604051633ee9b07b60e21b815260009073__Utils_________________________________9063fba6c1ec90611a37908590600e90600401614a63565b602060405180830381865af4158015611a54573d6000803e3d6000fd5b505050506040513d601f19601f82011682018060405250810190611a7891906147c1565b92915050565b60028054611337906147e3565b60005b600354811015611c835760005b600a54811015611b8457601c600060038484604051602001611abe9291906143d8565b60408051601f1981840301815290829052611ad891614844565b602060405180830381855afa158015611af5573d6000803e3d6000fd5b5050604080515160601b6001600160601b0319168352602083019390935250016000205460ff16611b725760008281526018602052604090205460ff16611b72576000828152601860205260408120805460ff191660019081179091556017805491820181559091526000805160206150b6833981519152018290555b80611b7c816149f0565b915050611a9b565b5060015b6003548111611c7057601d600060038484604051602001611baa9291906143d8565b60408051601f1981840301815290829052611bc491614844565b602060405180830381855afa158015611be1573d6000803e3d6000fd5b5050604080515160601b6001600160601b0319168352602083019390935250016000205460ff16611c5e5760008281526018602052604090205460ff16611c5e576000828152601860205260408120805460ff191660019081179091556017805491820181559091526000805160206150b6833981519152018290555b80611c68816149f0565b915050611b88565b5080611c7b816149f0565b915050611a8e565b50600080516020615096833981519152600d60059054906101000a900460ff166017604051611cb3929190614aac565b60405180910390a1565b6000546001600160a01b03163314611d085760405162461bcd60e51b815260206004820152600e60248201526d2cb7baa0b932a737ba27bbb732b960911b604482015260640161077c565b600d5462010000900460ff1615611d315760405162461bcd60e51b815260040161077c90614acf565b6001611d406060830183614af3565b9050118015611d5d57506001611d596040830183614af3565b9050115b8015611d6d575060018160a00135115b611db95760405162461bcd60e51b815260206004820152601f60248201527f4d696e4e756d4f6643616e64696461746573416e64566f746572734172653200604482015260640161077c565b611dc38180614b3c565b611dcf91600191613be5565b50611ddd6020820182614b3c565b611de991600291613be5565b5060005b611dfa6060830183614af3565b9050811015611edd5760196040518060600160405280838152602001848060600190611e269190614af3565b85818110611e3657611e3661490a565b9050602002810190611e489190614b3c565b8080601f0160208091040260200160405190810160405280939291908181526020018383808284376000920182905250938552505050602091820181905283546001818101865594825290829020835160039092020190815582820151805193949193611ebd93928501929190910190613c59565b506040820151816002015550508080611ed5906149f0565b915050611ded565b5060005b611eee6040830183614af3565b9050811015611fa9576003611f066040840184614af3565b83818110611f1657611f1661490a565b9050602002810190611f289190614b3c565b825460018101845560009384526020909320611f4693019190613be5565b506015611f566080840184614b82565b83818110611f6657611f6661490a565b835460018101855560009485526020909420604090910292909201926002029091019050611f948282614994565b50508080611fa1906149f0565b915050611ee1565b5060a0810135600a5542600555604051632f742f5960e21b815273__Utils_________________________________9063bdd0bd6490611ff89060c085013590610140860135906004016143d8565b602060405180830381865af4158015612015573d6000803e3d6000fd5b505050506040513d601f19601f820116820180604052508101906120399190614bcb565b6005546120469190614be4565b600655604051632f742f5960e21b815273__Utils_________________________________9063bdd0bd649061208b9060e085013590610160860135906004016143d8565b602060405180830381865af41580156120a8573d6000803e3d6000fd5b505050506040513d601f19601f820116820180604052508101906120cc9190614bcb565b6006546120d99190614be4565b600755604051632f742f5960e21b815273__Utils_________________________________9063bdd0bd649061211f9061010085013590610180860135906004016143d8565b602060405180830381865af415801561213c573d6000803e3d6000fd5b505050506040513d601f19601f820116820180604052508101906121609190614bcb565b60075461216d9190614be4565b600855604051632f742f5960e21b815273__Utils_________________________________9063bdd0bd64906121b390610120850135906101a0860135906004016143d8565b602060405180830381865af41580156121d0573d6000803e3d6000fd5b505050506040513d601f19601f820116820180604052508101906121f49190614bcb565b6008546122019190614be4565b600955600d805462ff0000191662010000908117918290556040517f1ea4b2051cf869c7e1b59e38769fabd5fe8a195b2a79e5e71c885aa76e88dac39261225192900460ff161515815260200190565b60405180910390a150565b60606021805480602002602001604051908101604052809291908181526020016000905b828210156123a657838290600052602060002090600c02016040518061010001604052908160008201548152602001600182015481526020016002820154815260200160038201548152602001600482015481526020016005820180548060200260200160405190810160405280929190818152602001828054801561232557602002820191906000526020600020905b815481526020019060010190808311612311575b5050509183525050604080518082018252600684015481526007840154602082810191909152808401919091528151608081018352600885015481840190815260098601546060830152815282518084018452600a8601548152600b9095015485830152808201949094529101919091529082526001929092019101612280565b50505050905090565b600d546301000000900460ff16156123d95760405162461bcd60e51b815260040161077c90614acf565b6123e1613ccc565b6000805b60035481101561255e5760008181526018602052604090205460ff1661254c57601a6000600383600060405160200161241f9291906143d8565b60408051601f198184030181529082905261243991614844565b602060405180830381855afa158015612456573d6000803e3d6000fd5b5050506040515160601b6001600160601b0319166001600160601b0319168152602001908152602001600020600001604051806040016040529081600082015481526020016001820154815250509250816124c1578251600e556020830151600f5560019150612502565b600e54600f54845160208601516124fb939291906003600160601b0363ffffffff60c01b0319600160601b63ffffffff60c01b0319613507565b600f55600e555b6016601582815481106125175761251761490a565b600091825260208083208454600181810187559585529190932060029283029093018054919092029092019182558201549101555b80612556816149f0565b9150506123e5565b5060405163d0a0c44960e01b815273__LRS___________________________________9063d0a0c4499061259790601690600401614bfc565b606060405180830381865af41580156125b4573d6000803e3d6000fd5b505050506040513d601f19601f820116820180604052508101906125d89190614c4b565b805160125560200151601355601155600d805463ff00000019166301000000908117918290556040517f0e47d3a88618bb81a4306e62bbf6174cde488bc35e04872e83dcc34933790bf29261263592900460ff1690601790614aac565b60405180910390a15050565b60405163426033d960e01b815260009073__Elgamal_______________________________9063426033d99061267d9086908690600401614ca9565b602060405180830381865af415801561269a573d6000803e3d6000fd5b505050506040513d601f19601f820116820180604052508101906126be9190614bcb565b9392505050565b60008060006126d2613ce6565b6126da613ccc565b7f6b17d1f2e12c4247f8bce6e563a440f277037d812deb33a0f4a13945d898c29681527f4fe342e2fe1a7f9b8ee7eb4a7c0f9e162bce33576b315ececbb6406837bf51f5602082015260005b86811015612b8357601b600060038a8a858181106127465761274661490a565b905060c00201604001358b8b868181106127625761276261490a565b905060c002016060013560405160200161277d9291906143d8565b60408051601f198184030181529082905261279791614844565b602060405180830381855afa1580156127b4573d6000803e3d6000fd5b505060408051516001600160601b0319606091821b1684526020808501959095529281016000208151608081018352815481840190815260018084015496830196909652815282518084019093526002820154835260039091015482860152938401525090935073__CPProof_______________________________9063fc888f3d9084906015908c8c8781811061284e5761284e61490a565b905060c00201606001356128629190614cd4565b815481106128725761287261490a565b906000526020600020906002020186600001518c8c878181106128975761289761490a565b905060c002016000018d8d888181106128b2576128b261490a565b905060c002016080016040518663ffffffff1660e01b81526004016128db959493929190614ceb565b602060405180830381865af41580156128f8573d6000803e3d6000fd5b505050506040513d601f19601f8201168201806040525081019061291c91906147c1565b945060018515151461295f5760405162461bcd60e51b815260206004820152600c60248201526b2bb937b733a1a8383937b7b360a11b604482015260640161077c565b73__Elgamal_______________________________636c3c67a184602001518a8a858181106129905761299061490a565b905060c002016000016040518363ffffffff1660e01b81526004016129b6929190614d2f565b602060405180830381865af41580156129d3573d6000803e3d6000fd5b505050506040513d601f19601f820116820180604052508101906129f79190614bcb565b935073__Shares________________________________63330f6d15858a8a85818110612a2657612a2661490a565b905060c00201612a508c8c87818110612a4157612a4161490a565b905060c0020160400135612bee565b6040518463ffffffff1660e01b8152600401612a6e93929190614d4a565b602060405180830381865af4158015612a8b573d6000803e3d6000fd5b505050506040513d601f19601f82011682018060405250810190612aaf91906147c1565b955085612b715760186000898984818110612acc57612acc61490a565b60c002919091016040908101358352602083019390935250016000205460ff16612b71576001601860008a8a85818110612b0857612b0861490a565b905060c0020160400135815260200190815260200160002060006101000a81548160ff0219169083151502179055506017888883818110612b4b57612b4b61490a565b835460018101855560009485526020909420604060c09092029390930101359190920155505b80612b7b816149f0565b915050612726565b50600d805460ff60281b1916600160281b90811791829055604051600080516020615096833981519152926112fb92900460ff1690601790614aac565b60168181548110612bd057600080fd5b60009182526020909120600290910201805460019091015490915082565b60606000600a546001600160401b03811115612c0c57612c0c614634565b604051908082528060200260200182016040528015612c4557816020015b612c32613d0b565b815260200190600190039081612c2a5790505b50905060005b600a54811015612d5c57601a600060038684604051602001612c6e9291906143d8565b60408051601f1981840301815290829052612c8891614844565b602060405180830381855afa158015612ca5573d6000803e3d6000fd5b505060408051516001600160601b0319606091821b168452602080850195909552928101600020815160e081018352815460a08201908152600183015460c0830152815260028201548187015260038201548184015260048201549481019490945281518083019092526005810154825260060154938101939093525060808101919091528251839083908110612d3e57612d3e61490a565b60200260200101819052508080612d54906149f0565b915050612c4b565b5092915050565b601754600354606091600091612d799190614cd4565b6001600160401b03811115612d9057612d90614634565b604051908082528060200260200182016040528015612dc957816020015b612db6613d40565b815260200190600190039081612dae5790505b5090506000805b600354811015612f345760008181526018602052604090205460ff16612f2257601b6000600383612e02896001614be4565b604051602001612e139291906143d8565b60408051601f1981840301815290829052612e2d91614844565b602060405180830381855afa158015612e4a573d6000803e3d6000fd5b505060408051516001600160601b0319606091821b168452602080850195909552928101600020815161012081018352815460e08201908152600183015461010083015260a08201908152835180850185526002840154815260038401548189015260c0830152815260048201548187015260058201548184015260068201549481019490945281518083019092526007810154825260080154938101939093525060808101919091528351849084908110612f0857612f0861490a565b60200260200101819052508180612f1e906149f0565b9250505b80612f2c816149f0565b915050612dd0565b50909392505050565b600d5460ff1615612f7a5760405162461bcd60e51b815260206004820152600760248201526615185b1b1a595960ca1b604482015260640161077c565b600a546016541015612f9e5760405162461bcd60e51b815260040161077c90614818565b612fa7816119fa565b1515600114612fe65760405162461bcd60e51b815260206004820152600b60248201526a57726f6e675072764b657960a81b604482015260640161077c565b6000805b6021548110156131055773__Elgamal_______________________________63426033d9602183815481106130215761302161490a565b90600052602060002090600c0201600801856040518363ffffffff1660e01b8152600401613050929190614e05565b602060405180830381865af415801561306d573d6000803e3d6000fd5b505050506040513d601f19601f820116820180604052508101906130919190614bcb565b915081602182815481106130a7576130a761490a565b90600052602060002090600c020160020181905550601982815481106130cf576130cf61490a565b6000918252602082206002600390920201018054916130ed836149f0565b919050555080806130fd906149f0565b915050612fea565b50600d805460ff191660011790556040517f3dc1fe22a60d9a898cc1d0a0e0f063f5e855e5a2938f3059cb822bf4e2b0e6859061263590601990602190614ef6565b60408082013560009081526018602052205460ff161561319d5760405162461bcd60e51b81526020600482015260116024820152702234b9b8bab0b634b334b2b22b37ba32b960791b604482015260640161077c565b600a5460165410156131c15760405162461bcd60e51b815260040161077c90614818565b6000816020013582604001356040516020016131de9291906143d8565b60408051601f19818403018152919052805160209091012090508135811461323d5760405162461bcd60e51b815260206004820152601260248201527113595cdcd859d955d85cd35bd91a599a595960721b604482015260640161077c565b604080830135600090815260208052205460ff16156132955760405162461bcd60e51b815260206004820152601460248201527314dd5894d958dc995d15d85cd55c1b1bd859195960621b604482015260640161077c565b600073__ECDSA_________________________________63f43c6a6d6040518060a00160405280866060016000013581526020018660600160200135815260200185815260200160158760400135815481106132f3576132f361490a565b906000526020600020906002020160000154815260200160158760400135815481106133215761332161490a565b9060005260206000209060020201600101548152506040518263ffffffff1660e01b81526004016133529190614920565b602060405180830381865af415801561336f573d6000803e3d6000fd5b505050506040513d601f19601f8201168201806040525081019061339391906147c1565b90506001811515146133b75760405162461bcd60e51b815260040161077c906148a3565b601f805460018101825560009190915283906005027fa03837a25210ee280c2113ff4b77ca23440b19d4866cca721c801278fd08d807016133f88282615016565b5050604080840135600090815260208052908120805460ff19166001179055600c805491613425836149f0565b91905055507ffda7fe2aa1855f36efd0640a3ec3265e181c44b600c34ad29c800d765f93571d600c5460405161345d91815260200190565b60405180910390a1505050565b6060601f805480602002602001604051908101604052809291908181526020016000905b828210156123a657600084815260209081902060408051608081018252600586029092018054835260018082015484860152600282015484840152825180840190935260038201548352600490910154828501526060830191909152908352909201910161348e565b60158181548110612bd057600080fd5b6000806000806000888b14156135555785806135255761352561503e565b888b0861353b5760008094509450505050613582565b6135498b8b60018a8a61358d565b9194509250905061356e565b6135668b8b60018c8c60018c61372c565b919450925090505b61357a83838389613a5f565b945094505050505b965096945050505050565b60008080856135a3575086915085905084613721565b600084806135b3576135b361503e565b898a099050600085806135c8576135c861503e565b898a099050600086806135dd576135dd61503e565b898a099050600087806135f2576135f261503e565b88806136005761360061503e565b848e096004099050600088806136185761361861503e565b89806136265761362661503e565b8a806136345761363461503e565b8586098c098a806136475761364761503e565b87600309089050888061365c5761365c61503e565b898061366a5761366a61503e565b838408613677908b614cd4565b8a806136855761368561503e565b83840908945088806136995761369961503e565b89806136a7576136a761503e565b8a806136b5576136b561503e565b8687096008096136c5908b614cd4565b8a806136d3576136d361503e565b8b806136e1576136e161503e565b6136eb898e614cd4565b8608840908935088806137005761370061503e565b898061370e5761370e61503e565b8c8e096002099497509295509293505050505b955095509592505050565b600080808915801561373c575088155b1561374e575085915084905083613a52565b8615801561375a575085155b1561376c575088915087905086613a52565b613774613d53565b84806137825761378261503e565b898a09815284806137955761379561503e565b81518a09602082015284806137ac576137ac61503e565b868709604082015284806137c2576137c261503e565b60408201518709606082015260408051608081019091528086806137e8576137e861503e565b60408401518e09815260200186806138025761380261503e565b60608401518d098152602001868061381c5761381c61503e565b83518b09815260200186806138335761383361503e565b60208401518a0990526040810151815191925014158061385b57506060810151602082015114155b6138a75760405162461bcd60e51b815260206004820152601e60248201527f557365206a6163446f75626c652066756e6374696f6e20696e73746561640000604482015260640161077c565b6138af613d53565b85806138bd576138bd61503e565b82516138c99088614cd4565b604084015108815285806138df576138df61503e565b60208301516138ee9088614cd4565b606084015108602082015285806139075761390761503e565b815180096040820152858061391e5761391e61503e565b815160408301510960608201526000868061393b5761393b61503e565b606083015161394a9089614cd4565b88806139585761395861503e565b6020850151800908905086806139705761397061503e565b878061397e5761397e61503e565b888061398c5761398c61503e565b60408501518651096002096139a19089614cd4565b82089050600087806139b5576139b561503e565b88806139c3576139c361503e565b6139cd848b614cd4565b8a806139db576139db61503e565b604087015188510908602085015109905087806139fa576139fa61503e565b8880613a0857613a0861503e565b6060850151602087015109613a1d908a614cd4565b8208905060008880613a3157613a3161503e565b8980613a3f57613a3f61503e565b8b8f098551099297509095509093505050505b9750975097945050505050565b6000806000613a6e8585613ace565b905060008480613a8057613a8061503e565b828309905060008580613a9557613a9561503e565b828a09905060008680613aaa57613aaa61503e565b8780613ab857613ab861503e565b8486098a09919a91995090975050505050505050565b60008215801590613adf5750818314155b8015613aea57508115155b613b275760405162461bcd60e51b815260206004820152600e60248201526d24b73b30b634b210373ab6b132b960911b604482015260640161077c565b6000600183825b8615613b8f57613b3e8783615054565b9050828680613b4f57613b4f61503e565b8780613b5d57613b5d61503e565b858409613b6a9089614cd4565b8608909450925086613b7c8183615076565b613b869084614cd4565b97509150613b2e565b509195945050505050565b828054828255906000526020600020908101928215613bd5579160200282015b82811115613bd5578251825591602001919060010190613bba565b50613be1929150613d71565b5090565b828054613bf1906147e3565b90600052602060002090601f016020900481019282613c135760008555613bd5565b82601f10613c2c5782800160ff19823516178555613bd5565b82800160010185558215613bd5579182015b82811115613bd5578235825591602001919060010190613c3e565b828054613c65906147e3565b90600052602060002090601f016020900481019282613c875760008555613bd5565b82601f10613ca057805160ff1916838001178555613bd5565b82800160010185558215613bd55791820182811115613bd5578251825591602001919060010190613bba565b604051806040016040528060008152602001600081525090565b6040518060400160405280613cf9613ccc565b8152602001613d06613ccc565b905290565b6040518060a00160405280613d1e613ccc565b8152602001600081526020016000815260200160008152602001613d06613ccc565b6040518060a00160405280613d1e613ce6565b60405180608001604052806004906020820280368337509192915050565b5b80821115613be15760008155600101613d72565b60008083601f840112613d9857600080fd5b5081356001600160401b03811115613daf57600080fd5b6020830191508360208260051b8501011115613dca57600080fd5b9250929050565b600060408284031215613de357600080fd5b50919050565b600080600080600060a08688031215613e0157600080fd5b853594506020860135935060408601356001600160401b03811115613e2557600080fd5b613e3188828901613d86565b9094509250613e4590508760608801613dd1565b90509295509295909350565b600060208284031215613e6357600080fd5b5035919050565b60005b83811015613e85578181015183820152602001613e6d565b83811115613e94576000848401525b50505050565b60008151808452613eb2816020860160208601613e6a565b601f01601f19169290920160200192915050565b838152606060208201526000613edf6060830185613e9a565b9050826040830152949350505050565b600060808284031215613de357600080fd5b6000806000806000806101208789031215613f1b57600080fd5b613f258888613eef565b95506080870135945060a0870135935060c08701356001600160401b03811115613f4e57600080fd5b613f5a89828a01613d86565b9094509250613f6e90508860e08901613dd1565b90509295509295509295565b60008060008060408587031215613f9057600080fd5b84356001600160401b0380821115613fa757600080fd5b818701915087601f830112613fbb57600080fd5b813581811115613fca57600080fd5b88602060e083028501011115613fdf57600080fd5b602092830196509450908601359080821115613ffa57600080fd5b818701915087601f83011261400e57600080fd5b81358181111561401d57600080fd5b8860206101208302850101111561403357600080fd5b95989497505060200194505050565b6020815260006126be6020830184613e9a565b600081518084526020808501945080840160005b8381101561408557815187529582019590820190600101614069565b509495945050505050565b600081518084526020808501808196508360051b8101915082860160005b858110156140d85782840389526140c6848351613e9a565b988501989350908401906001016140ae565b5091979650505050505050565b600081518084526020808501808196508360051b8101915082860160005b858110156140d8578284038952815160608151865286820151818888015261412d82880182613e9a565b60409384015197909301969096525098850198935090840190600101614103565b80518252602090810151910152565b61416882825161414e565b602081015161417a604084018261414e565b505050565b600081518084526020808501808196508360051b8101915082860160005b858110156140d8578284038952815161018081518652868201518787015260408083015181880152506060808301518188015250608080830151818801525060a08083015182828901526141f383890182614055565b9250505060c0808301516142098289018261414e565b505060e0820151915061422061010087018361415d565b998601999450509084019060010161419d565b6020815281516020820152602082015160408201526040820151606082015260608201516080820152608082015160a082015260a082015160c082015260c082015160e0820152600060e08301516101008181850152808501519150506101208181850152808501519150506102a061014081818601526142b86102c0860184614055565b9250808601519050601f196101608187860301818801526142d98584613e9a565b9450808801519250506101808187860301818801526142f88584613e9a565b9450808801519250506101a08187860301818801526143178584614090565b9450808801519250506101c081878603018188015261433685846140e5565b9450808801519250506101e061434f8188018415159052565b87015191506102006143648782018415159052565b87015191506102206143798782018415159052565b870151915061024061438e8782018415159052565b87015191506102606143a38782018415159052565b87015191506102806143bf878201846001600160a01b03169052565b870151868503909101838701529050610669838261417f565b918252602082015260400190565b6000602082840312156143f857600080fd5b81356001600160401b0381111561440e57600080fd5b82016101c081850312156126be57600080fd5b6020815260006126be602083018461417f565b60008060a0838503121561444757600080fd5b6144518484613eef565b946080939093013593505050565b6000806020838503121561447257600080fd5b82356001600160401b038082111561448957600080fd5b818501915085601f83011261449d57600080fd5b8135818111156144ac57600080fd5b86602060c0830285010111156144c157600080fd5b60209290920196919550909350505050565b602080825282518282018190526000919060409081850190868401855b828110156140d857815161450585825161414e565b808701518587015285810151606080870191909152810151608080870191909152015161453560a086018261414e565b5060e09390930192908501906001016144f0565b602080825282518282018190526000919060409081850190868401855b828110156140d857815161457b85825161415d565b808701516080868101919091528682015160a0870152606082015160c087015201516145aa60e086018261414e565b50610120939093019290850190600101614566565b600060a08284031215613de357600080fd5b602080825282518282018190526000919060409081850190868401855b828110156140d857815180518552868101518786015285810151868601526060908101519061461f8187018361414e565b505060a09390930192908501906001016145ee565b634e487b7160e01b600052604160045260246000fd5b604080519081016001600160401b038111828210171561467a57634e487b7160e01b600052604160045260246000fd5b60405290565b60006040828403121561469257600080fd5b61469a61464a565b9050813581526020820135602082015292915050565b6000604082840312156146c257600080fd5b6126be8383614680565b600081518084526020808501945080840160005b83811015614085576146f387835161414e565b60409690960195908201906001016146e0565b600060208083526101408301845182850152818501516040850152604085015160608501526060850151610120806080870152828251808552610160880191508584019450600093505b808410156147705784518252938501936001939093019290850190614750565b506080880151945061478560a088018661414e565b60a0880151945061479960e088018661414e565b60c0880151878203601f19018389015294506147b581866146cc565b98975050505050505050565b6000602082840312156147d357600080fd5b815180151581146126be57600080fd5b600181811c908216806147f757607f821691505b60208210811415613de357634e487b7160e01b600052602260045260246000fd5b602080825260129082015271496e73756666696369656e74566f7465727360701b604082015260600190565b60008251614856818460208701613e6a565b9190910192915050565b93845260208401929092526040830152606082015260800190565b6020808252600e908201526d135cd9d5d85cd35bd91a599a595960921b604082015260600190565b6020808252600e908201526d57726f6e675369676e617475726560901b604082015260600190565b6000608082840312156148dd57600080fd5b6148e561464a565b6148ef8484614680565b81526148fe8460408501614680565b60208201529392505050565b634e487b7160e01b600052603260045260246000fd5b600060a082019050825182526020830151602083015260408301516040830152606083015160608301526080830151608083015292915050565b6020808252600e908201526d14da185c995cd55c1b1bd859195960921b604082015260600190565b81358155602082013560018201555050565b61499e8282614982565b5050565b6149ac8282614982565b60408201356002820155606082013560038201556080820135600482015561499e60a0830160058301614982565b634e487b7160e01b600052601160045260246000fd5b6000600019821415614a0457614a046149da565b5060010190565b614a158282614982565b614a256040830160028301614982565b6080820135600482015560a0820135600582015560c0820135600682015561499e60e0830160078301614982565b8054825260010154602090910152565b828152606081016126be6020830184614a53565b6000815480845260208085019450836000528060002060005b8381101561408557815487529582019560019182019101614a90565b8215158152604060208201526000614ac76040830184614a77565b949350505050565b6020808252600a9082015269105b1c9958591e54d95d60b21b604082015260600190565b6000808335601e19843603018112614b0a57600080fd5b8301803591506001600160401b03821115614b2457600080fd5b6020019150600581901b3603821315613dca57600080fd5b6000808335601e19843603018112614b5357600080fd5b8301803591506001600160401b03821115614b6d57600080fd5b602001915036819003821315613dca57600080fd5b6000808335601e19843603018112614b9957600080fd5b8301803591506001600160401b03821115614bb357600080fd5b6020019150600681901b3603821315613dca57600080fd5b600060208284031215614bdd57600080fd5b5051919050565b60008219821115614bf757614bf76149da565b500190565b60208082528254828201819052600084815291822060409182850191845b82811015614c3f57614c2c8483614a53565b9284019260029190910190600101614c1a565b50919695505050505050565b6000808284036060811215614c5f57600080fd5b835192506040601f1982011215614c7557600080fd5b50614c7e61464a565b6020840151815260408401516020820152809150509250929050565b80358252602090810135910152565b60a08101614cb78285614c9a565b614cc76040830160408601614c9a565b8260808301529392505050565b600082821015614ce657614ce66149da565b500390565b6101408101614cfa828861414e565b614d076040830187614a53565b614d14608083018661414e565b614d2160c0830185614c9a565b610669610100830184614c9a565b60808101614d3d828561414e565b6126be6040830184614c9a565b60006101008083018684526020614d6381860188614c9a565b6040606081890135818801526080818a01358189015260a0614d89818a01838d01614c9a565b60e089810197909752895195869052610120890196858b019660005b81811015614df2578851614dba8b825161414e565b808901518b89015287810151878c015286810151868c0152850151614de1858c018261414e565b509882019897870197600101614da5565b50979d9c50505050505050505050505050565b60a08101614e138285614a53565b614cc76040830160028601614a53565b614e2d8282614a53565b61499e6040830160028301614a53565b600081548084526020808501808196506005915083821b8101866000528360002060005b86811015614ee8578383038a52610180825484526001830154878501526002830154604085015260038301546060850152600483015460808501528060a0850152614eb0818501878501614a77565b9050614ec260c0850160068501614a53565b614ed3610100850160088501614e23565b998601999250600c9190910190600101614e61565b509098975050505050505050565b60006040808301818452808654808352606092508286019150828160051b87010160008981526020808220825b85811015614ff5578a8503605f190187528154855282850188905260018083018054869080841c81851680614f5957607f821691505b888210811415614f7757634e487b7160e01b8a52602260045260248afd5b8a8e01828152602001818015614f945760018114614fa557614fcf565b60ff19851682528a82019550614fcf565b6000878152602090208c5b85811015614fc957815484820152908901908c01614fb0565b83019650505b505050506002860154988d01989098529885019896505060039092019150600101614f23565b505088830390890152506150098189614e3d565b9998505050505050505050565b81358155602082013560018201556040820135600282015561499e6060830160038301614982565b634e487b7160e01b600052601260045260246000fd5b60008261507157634e487b7160e01b600052601260045260246000fd5b500490565b6000816000190483118215151615615090576150906149da565b50029056fe3bf5aff1d734f1482917115afcac6550ec2397d0cfa1f1867b742837e8c53b30c624b66cc0138b8fabc209247f72d758e1cf3343756d543badbf24212bed8c15a26469706673582212205d23348b948423552c5694bd3d7d51d1a5fad2ab86dc5873a99db8cd7b4e79e364736f6c634300080a0033",
  "immutableReferences": {},
  "source": "// SPDX-License-Identifier: MIT\r\npragma solidity >=0.4.22 <0.9.0;\r\n\r\nimport \"./Secp256r1.sol\";\r\nimport \"./ECDSA.sol\";\r\nimport \"./Elgamal.sol\";\r\nimport \"./CPProof.sol\";\r\nimport \"./LRS.sol\";\r\nimport \"./Shares.sol\";\r\nimport \"./Utils.sol\";\r\n\r\ncontract Election {\r\n\r\n    address public owner;\r\n    \r\n    string public title;\r\n    string public description;\r\n    string[] public public_keys;\r\n\r\n    uint public id;\r\n    uint public post_time;\r\n    uint public share_end_time;\r\n    uint public ver_end_time;\r\n    uint public vote_end_time;\r\n    uint public secret_upload_end_time;\r\n    uint public min_shares;\r\n    uint public totatSharesSentCount;\r\n    uint public totalSubSecretSentCount;\r\n\r\n    bool public isVoteTallied;\r\n    bool public isBasicInfoSet;\r\n    bool public isSetUp;\r\n    bool public isVotePubKeySet;\r\n    bool public isECPubKeysAftVerSet;\r\n    bool public isNoSendSharesCheck;\r\n\r\n    Secp256r1.ECPoint public votePubKey;\r\n    \r\n    // store Disqualified public key indece\r\n    mapping(bytes20 => bool) isDisqualifiedPubKeyIndece;\r\n\r\n    // linkable ring signature varaibles \r\n    uint256 public L;\r\n    Secp256r1.ECPoint public H;\r\n    mapping(bytes20 => bool) K_list;\r\n    Secp256r1.ECPoint[] public EC_public_keys;\r\n    Secp256r1.ECPoint[] public ECPubKeysAftVer;\r\n    \r\n    // illegitimate voter : did not upload shares / upload wrong shares\r\n    uint[] public illegitimate_voter_indeces;\r\n    mapping(uint => bool) illegitimate_voters;\r\n\r\n    // Model a candidate\r\n    struct Candidate{\r\n        uint id;\r\n        string name;\r\n        uint voteCount;\r\n    }\r\n\r\n    // Store candidates\r\n    Candidate[] public candidates; \r\n\r\n\r\n    mapping(bytes20 => Shares.F) F_2d;\r\n    mapping(bytes20 => Shares.f) f_2d;\r\n    mapping(bytes20 => bool) isF_2d;\r\n    mapping(bytes20 => bool) isf_2d;\r\n    mapping(uint => bool) isPiUploadShares;\r\n\r\n    Utils.SubSecretWithSig[] subSecrets;\r\n    mapping(uint => bool) isSubSecrets; \r\n\r\n\r\n    // Model a ballot\r\n    struct Ballot{\r\n        uint id;\r\n        uint voteTime;\r\n        int candidate_id;\r\n        uint256 encVoteHash;\r\n        uint256 U0;\r\n        uint256[] V;\r\n        Secp256r1.ECPoint K;\r\n        Elgamal.Elgamal_ciphertext encVote;\r\n    }\r\n\r\n    // Store ballots\r\n    Ballot[] ballots;\r\n\r\n    // Model a election Data\r\n    struct ElectionData{\r\n        uint id;\r\n        uint post_time;\r\n        uint share_end_time;\r\n        uint ver_end_time;\r\n        uint vote_end_time;\r\n        uint secret_upload_end_time;\r\n        uint min_shares;\r\n        uint totatSharesSentCount;\r\n        uint totalSubSecretSentCount;\r\n        uint[] illegitimate_voter_indeces;\r\n        string title;\r\n        string description;\r\n        string[] public_keys;\r\n        Candidate[] candidates;\r\n        bool isVoteTallied;\r\n        bool isVotePubKeySet;\r\n        bool isECPubKeysAftVerSet;\r\n        bool isSetUp;\r\n        bool isNoSendSharesCheck;\r\n        address owner;\r\n        Ballot[] ballots;\r\n    }\r\n\r\n    struct ElectionSetUpData{\r\n        string  title;\r\n        string  des; \r\n        string[]  pubKeys;\r\n        string[]  candidates;\r\n        Secp256r1.ECPoint[]  EC_public_keys;\r\n        uint minShares;\r\n        uint sharesTime;\r\n        uint verTime; \r\n        uint voteTime; \r\n        uint secUploadTime;\r\n        uint sharesTimeUnit; \r\n        uint verTimeUnit; \r\n        uint voteTimeUnit;\r\n        uint secUploadTimeUnit;\r\n    }\r\n\r\n    // new Vote Event\r\n    event newVoteEvent(uint totalVoteCount);\r\n    // add Keygen value Event\r\n    event addKeygenValueEvent(uint totatSharesSentCount);\r\n    // add SubSecret Event\r\n    event addSubSecretEvent(uint totalSubSecretSentCount);\r\n    // tally vote Event\r\n    event tallyVoteEvent(Candidate[] candidates, Ballot[] ballots);\r\n    // verify shares event \r\n    event verifySharesEvent(bool isNoSendShares,uint[] illegitimate_voter_indeces);\r\n    // set vote pubKey event \r\n    event setVotePubKeyEvent(bool isVotePubKeySet, uint[] illegitimate_voter_indeces);\r\n    // set election info event\r\n    event setElectionInfoEvent(bool isSetUp);\r\n\r\n    constructor (uint _id, address _owner){\r\n        id = _id;\r\n        owner = _owner;\r\n    }\r\n\r\n\r\n    function setElectionInfo(\r\n        ElectionSetUpData calldata _data\r\n    ) external{\r\n        require(msg.sender==owner,\"YouAreNotOwner\");\r\n        require(isSetUp==false,\"AlreadySet\");\r\n        // require minimum number of candidates , voters and min_shares are 2\r\n        require(_data.candidates.length > 1 && \r\n                _data.pubKeys.length > 1 &&\r\n                _data.minShares > 1\r\n        ,\"MinNumOfCandidatesAndVotersAre2\");\r\n        title = _data.title;\r\n        description = _data.des;\r\n        for(uint i=0;i<_data.candidates.length;i++){\r\n            candidates.push(Candidate(i,_data.candidates[i],0));\r\n        }\r\n        for(uint i=0;i<_data.pubKeys.length;i++){\r\n            public_keys.push(_data.pubKeys[i]);\r\n            EC_public_keys.push(_data.EC_public_keys[i]);\r\n        }\r\n        min_shares = _data.minShares;\r\n\r\n        post_time = block.timestamp;\r\n        share_end_time = post_time + Utils.calc_time(_data.sharesTime,_data.sharesTimeUnit); \r\n        ver_end_time = share_end_time + Utils.calc_time(_data.verTime,_data.verTimeUnit); \r\n        vote_end_time = ver_end_time + Utils.calc_time(_data.voteTime,_data.voteTimeUnit); \r\n        secret_upload_end_time = vote_end_time + Utils.calc_time(_data.secUploadTime,_data.secUploadTimeUnit); \r\n        \r\n        isSetUp = true;\r\n\r\n        emit setElectionInfoEvent(isSetUp);\r\n    }\r\n\r\n    // Verifying fi(j)*G == Fi,0 + Fi,1 * j + ... + Fi,2 * j^(t-1)\r\n    function setDisqualifiedPubKeyIndece(Shares.VerSharesPar[] calldata _Par) \r\n    external{\r\n        // verify shares verfication peroid: key_ver_end_time <= now < vote_end_time\r\n        // require(key_gen_end_time<= block.timestamp && block.timestamp < key_ver_end_time,\"WrongVerifyTime\");\r\n\r\n        bool isValidVal;\r\n        bool isValidProof;\r\n        uint256 plaintext;\r\n        Elgamal.Elgamal_ciphertext memory ciphertext;\r\n        Secp256r1.ECPoint memory G;\r\n        G.x = Secp256r1.GX;\r\n        G.y = Secp256r1.GY;\r\n\r\n        for(uint i=0;i<_Par.length;i++){\r\n            ciphertext = f_2d[ripemd160(\r\n                    abi.encodePacked(_Par[i].i,_Par[i].j))\r\n                    ].ciphertext;\r\n\r\n            // proof key = s*k*G without knowing s\r\n            isValidProof = CPProof.CPverify(\r\n                G, // g1\r\n                EC_public_keys[_Par[i].j-1], // h1\r\n                ciphertext.C, // g2\r\n                _Par[i].H2, // h2\r\n                _Par[i].proof\r\n            );\r\n            \r\n            require(isValidProof==true,\"WrongCPproof\");\r\n\r\n            // get plaintext by key\r\n            plaintext = Elgamal.elgamal_decryptByPoint(\r\n                ciphertext.D,\r\n                _Par[i].H2\r\n            );\r\n\r\n            // verfiy shares\r\n            isValidVal = Shares.verifySharesVal(\r\n                plaintext,\r\n                _Par[i],getF(_Par[i].i)\r\n            );\r\n\r\n            if(!isValidVal){\r\n                if(!illegitimate_voters[_Par[i].i]){\r\n                    illegitimate_voters[_Par[i].i] = true;\r\n                    illegitimate_voter_indeces.push(_Par[i].i);\r\n                }\r\n            }\r\n\r\n        }\r\n        isNoSendSharesCheck = true;\r\n        emit verifySharesEvent(isNoSendSharesCheck,illegitimate_voter_indeces);\r\n    }\r\n\r\n    function setNoSendSharesVoters() external{\r\n        for(uint i=0;i<public_keys.length;i++){\r\n            // check whether voter sends his polynomail coefficient\r\n            for(uint j=0;j<min_shares;j++){\r\n                if(isF_2d[ripemd160(abi.encodePacked(i,j))] == false){\r\n                    if(!illegitimate_voters[i]){\r\n                        illegitimate_voters[i] = true;\r\n                        illegitimate_voter_indeces.push(i);\r\n                    }\r\n                }\r\n            }\r\n            // check whether voter sends his shares to others\r\n            for(uint k=1;k<=public_keys.length;k++){\r\n                if(isf_2d[ripemd160(abi.encodePacked(i,k))] == false){\r\n                    if(!illegitimate_voters[i]){\r\n                        illegitimate_voters[i] = true;\r\n                        illegitimate_voter_indeces.push(i);\r\n                    }\r\n                }\r\n            }\r\n        }\r\n        emit verifySharesEvent(isNoSendSharesCheck,illegitimate_voter_indeces);\r\n    }\r\n\r\n    function setVotePublicKey() external {\r\n        require(isVotePubKeySet==false,\"AlreadySet\");\r\n        Secp256r1.ECPoint memory P;\r\n        bool isFirst;\r\n\r\n        for(uint i=0;i<public_keys.length;i++){\r\n            if(!illegitimate_voters[i]){\r\n                // calc vote public key of valid voters\r\n                P = F_2d[ripemd160(abi.encodePacked(i,uint256(0)))].p;\r\n                if(!isFirst){\r\n                    votePubKey = P;\r\n                    isFirst = true;\r\n                }else{\r\n                    (votePubKey.x, votePubKey.y) = EllipticCurve.ecAdd(votePubKey.x, votePubKey.y, P.x, P.y, Secp256r1.AA, Secp256r1.PP);\r\n                }\r\n                // filter invalid voter's pubkeys \r\n                ECPubKeysAftVer.push(EC_public_keys[i]);\r\n            }\r\n        }\r\n        // cal L and H for verify LRS\r\n        (L,H) = LRS.calcLAndH(ECPubKeysAftVer);\r\n        isVotePubKeySet = true;\r\n\r\n        emit setVotePubKeyEvent(isVotePubKeySet, illegitimate_voter_indeces);\r\n    }\r\n\r\n    function getBallot() external view returns(Ballot[] memory){\r\n        return ballots;\r\n    }\r\n\r\n    function addSubSecret(Utils.SubSecretWithSig calldata _s) external{\r\n        require(illegitimate_voters[_s.i] == false,\"DisqualifiedVoter\");\r\n        require(ECPubKeysAftVer.length>=min_shares,\"InsufficientVoters\");\r\n        // verify secret upload peroid: vote end time <= now < secret_upload_end_time\r\n        // require(vote_end_time<=block.timestamp &&block.timestamp < secret_upload_end_time,\"invalid subscret upload time\");\r\n        uint256 h = uint256(keccak256(abi.encodePacked(_s.subSecret,_s.i)));\r\n        require(h == _s.h,\"MessageWasModified\");\r\n        require(isSubSecrets[_s.i] == false,\"SubSecretWasUploaded\");\r\n        \r\n        bool isValidSig = ECDSA.ecdsa_verify(ECDSA.ECDSA_parameters(_s.sig.r, _s.sig.s, h, \r\n        EC_public_keys[_s.i].x, EC_public_keys[_s.i].y));\r\n        require(isValidSig == true,\"WrongSignature\");\r\n\r\n        subSecrets.push(_s);\r\n        isSubSecrets[_s.i] = true;\r\n        totalSubSecretSentCount++;\r\n\r\n        emit addSubSecretEvent(totalSubSecretSentCount);\r\n    }\r\n\r\n    function getSubSecrets() external view returns(Utils.SubSecretWithSig[] memory){\r\n        return subSecrets;\r\n    }\r\n\r\n    function getF(uint _publicKeyIndex) public view returns(Shares.F[] memory){\r\n        Shares.F[] memory _F = new Shares.F[](min_shares); \r\n        for(uint j=0;j<min_shares;j++){\r\n            _F[j] = F_2d[ripemd160(abi.encodePacked(_publicKeyIndex,j))];\r\n        }\r\n        return _F;\r\n    }\r\n\r\n    function getf(uint _publicKeyIndex) public view returns(Shares.f[] memory){\r\n        Shares.f[] memory _f = new Shares.f[](public_keys.length-illegitimate_voter_indeces.length);\r\n        uint c; \r\n        for(uint i=0;i<public_keys.length;i++){\r\n            if(!illegitimate_voters[i]){\r\n                _f[c] = f_2d[ripemd160(abi.encodePacked(i,_publicKeyIndex+1))];\r\n                c++;\r\n            }\r\n        }   \r\n        return _f;\r\n    }\r\n\r\n    function addShares(Shares.F[] calldata _F, Shares.f[] calldata _f) external{\r\n        // check share distribution peroid: now < key_gen_end_time\r\n        // require(block.timestamp < share_end_time,\"invalid key generation time\");\r\n\r\n        bytes20 h;\r\n        uint256 hm; // hashed message\r\n        bool isValidSig;\r\n        for(uint z=0;z<min_shares;z++){\r\n            hm = uint256(keccak256(abi.encodePacked(\r\n                _F[z].p.x,_F[z].p.y,_F[z].i,_F[z].j\r\n                )));\r\n            require(hm == _F[z].h,\"MsgWasModified\");\r\n            isValidSig = ECDSA.ecdsa_verify(ECDSA.ECDSA_parameters(\r\n                _F[z].sig.r,_F[z].sig.s,hm,\r\n                EC_public_keys[_F[z].i].x,EC_public_keys[_F[z].i].y\r\n                ));\r\n            require(isValidSig == true,\"WrongSignature\");\r\n            h = ripemd160(abi.encodePacked(_F[z].i,_F[z].j));\r\n            require(isF_2d[h] == false,\"SharesUploaded\");\r\n            isF_2d[h] = true;\r\n            F_2d[h] = _F[z];\r\n        }\r\n        for(uint z=0;z<public_keys.length;z++){\r\n            hm = uint256(keccak256(abi.encodePacked(\r\n                _f[z].ciphertext.C.x,_f[z].ciphertext.C.y,\r\n                _f[z].ciphertext.D.x,_f[z].ciphertext.D.y\r\n                ,_f[z].i,_f[z].j\r\n                )));\r\n            require(hm == _f[z].h,\"MsgWasModified\");\r\n            isValidSig = ECDSA.ecdsa_verify(ECDSA.ECDSA_parameters(\r\n                _f[z].sig.r,_f[z].sig.s,hm,\r\n                EC_public_keys[_f[z].i].x,EC_public_keys[_f[z].i].y\r\n                ));\r\n            require(isValidSig == true,\"WrongSignature\");\r\n            h = ripemd160(abi.encodePacked(_f[z].i,_f[z].j));\r\n            require(isf_2d[h] == false,\"SharesUploaded\");\r\n            isf_2d[h] = true;\r\n            f_2d[h] = _f[z];\r\n        }\r\n        totatSharesSentCount++;\r\n        emit addKeygenValueEvent(totatSharesSentCount);\r\n    }\r\n\r\n    function verifyLRS(uint256 _encVoteHash,uint256 _U0,\r\n     uint256[] calldata _V, Secp256r1.ECPoint calldata _K) public view returns(bool){\r\n        // verify linkable ring signature\r\n        return LRS.verifyLRS(LRS.LRS_parameters(_encVoteHash,_U0,L,_V,H,_K,ECPubKeysAftVer));\r\n    }\r\n\r\n    function addVote(Elgamal.Elgamal_ciphertext calldata _encVote,uint256 _encVoteHash,\r\n    uint256 _U0, uint256[] calldata _V, Secp256r1.ECPoint calldata _K) \r\n    external{\r\n        // verify vote peroid: key_ver_end_time <= now < vote_end_time\r\n        require(ver_end_time<= block.timestamp && block.timestamp < vote_end_time,\"WrongVoteTime\");\r\n        \r\n        require(isVotePubKeySet==true,\"SetVotePubKeyFirst\");\r\n\r\n        require(ECPubKeysAftVer.length>=min_shares,\"InsufficientVoters\");\r\n\r\n        // hash of _K\r\n        bytes20 h = ripemd160(abi.encodePacked(_K.x,_K.y));\r\n\r\n        // hash of _K should not exit in K_list\r\n        require(K_list[h] == false,\"YouWasVoted\");\r\n        \r\n        // verify encrypted vote does not modified.\r\n        uint256 evh; // hashed enc vote\r\n        evh = uint256(keccak256(abi.encodePacked(\r\n            _encVote.C.x, _encVote.C.y,  \r\n            _encVote.D.x, _encVote.D.y\r\n            )));\r\n        require(evh == _encVoteHash,\"MsgWasModified\");\r\n\r\n        // verify linkable ring signature\r\n        bool U = verifyLRS(_encVoteHash,_U0,_V,_K);\r\n\r\n        require(U == true,\"WrongSignature\");\r\n\r\n        // add ballot\r\n        ballots.push(Ballot(ballots.length,block.timestamp,-1,_encVoteHash,_U0,_V,_K,_encVote));\r\n\r\n        // add _K into K_list\r\n        K_list[h] = true;\r\n\r\n        emit newVoteEvent(ballots.length);\r\n    }\r\n\r\n    function verfiyVotePrivateKey(uint256 _votePrvKey) public view returns(bool){\r\n        return Utils.verfiyVotePrivateKey(_votePrvKey,votePubKey);\r\n    }\r\n\r\n    function decryptVote(Elgamal.Elgamal_ciphertext calldata _encVote\r\n    , uint256 _votePrvKey) external pure returns(uint256){\r\n        return Elgamal.elgamal_decrypt(_encVote,_votePrvKey);\r\n    }\r\n\r\n    function tallyVote(uint256 _votePrvKey) external{\r\n        // verify tally time : vote_end_time <= now \r\n        // require(vote_end_time<= block.timestamp,\"WrongTallyTime\");\r\n\r\n        // check whether the vote already tallied\r\n        require(isVoteTallied == false,\"Tallied\");\r\n\r\n        require(ECPubKeysAftVer.length>=min_shares,\"InsufficientVoters\");\r\n\r\n        // require valid vote private key\r\n        require(verfiyVotePrivateKey(_votePrvKey)==true,\"WrongPrvKey\");\r\n\r\n        uint cID; // candidate ID\r\n\r\n        for(uint i=0; i<ballots.length;i++){\r\n            cID = uint(Elgamal.elgamal_decrypt(ballots[i].encVote,_votePrvKey));\r\n            ballots[i].candidate_id = int(cID);\r\n            candidates[cID].voteCount++;\r\n        }\r\n        \r\n        isVoteTallied = true;\r\n\r\n        emit tallyVoteEvent(candidates,ballots);\r\n    }\r\n\r\n    function getElectionData() external view returns(ElectionData memory){\r\n        return ElectionData(id,post_time,share_end_time,ver_end_time,\r\n        vote_end_time,secret_upload_end_time,min_shares,\r\n        totatSharesSentCount,totalSubSecretSentCount,\r\n        illegitimate_voter_indeces,title,description,\r\n        public_keys,candidates\r\n        ,isVoteTallied,isVotePubKeySet,isECPubKeysAftVerSet,\r\n        isSetUp,isNoSendSharesCheck,owner,ballots);\r\n    } \r\n}",
  "sourcePath": "C:\\Users\\tim\\Desktop\\e-voting\\src\\contracts\\Election.sol",
  "compiler": {
    "name": "solc",
    "version": "0.8.10+commit.fc410830.Emscripten.clang"
  },
  "schemaVersion": "3.4.4",
  "updatedAt": "2022-02-11T15:47:21.415Z",
  "networkType": "ethereum",
  "devdoc": {
    "kind": "dev",
    "methods": {},
    "version": 1
  },
  "userdoc": {
    "kind": "user",
    "methods": {},
    "version": 1
  }
}