{
  "contractName": "Election",
  "abi": [
    {
      "inputs": [
        {
          "internalType": "uint256",
          "name": "_id",
          "type": "uint256"
        },
        {
          "internalType": "address",
          "name": "_owner",
          "type": "address"
        }
      ],
      "stateMutability": "nonpayable",
      "type": "constructor"
    },
    {
      "anonymous": false,
      "inputs": [
        {
          "indexed": false,
          "internalType": "uint256",
          "name": "totatSharesSentCount",
          "type": "uint256"
        }
      ],
      "name": "addKeygenValueEvent",
      "type": "event"
    },
    {
      "anonymous": false,
      "inputs": [
        {
          "indexed": false,
          "internalType": "uint256",
          "name": "totalSubSecretSentCount",
          "type": "uint256"
        }
      ],
      "name": "addSubSecretEvent",
      "type": "event"
    },
    {
      "anonymous": false,
      "inputs": [
        {
          "indexed": false,
          "internalType": "uint256",
          "name": "totalVoteCount",
          "type": "uint256"
        }
      ],
      "name": "newVoteEvent",
      "type": "event"
    },
    {
      "anonymous": false,
      "inputs": [
        {
          "indexed": false,
          "internalType": "bool",
          "name": "isVotePubKeySet",
          "type": "bool"
        }
      ],
      "name": "setVotePubKeyEvent",
      "type": "event"
    },
    {
      "anonymous": false,
      "inputs": [
        {
          "components": [
            {
              "internalType": "uint256",
              "name": "id",
              "type": "uint256"
            },
            {
              "internalType": "string",
              "name": "name",
              "type": "string"
            },
            {
              "internalType": "uint256",
              "name": "voteCount",
              "type": "uint256"
            }
          ],
          "indexed": false,
          "internalType": "struct Election.Candidate[]",
          "name": "candidates",
          "type": "tuple[]"
        },
        {
          "components": [
            {
              "internalType": "uint256",
              "name": "id",
              "type": "uint256"
            },
            {
              "internalType": "uint256",
              "name": "voteTime",
              "type": "uint256"
            },
            {
              "internalType": "int256",
              "name": "candidate_id",
              "type": "int256"
            },
            {
              "internalType": "uint256",
              "name": "encVoteHash",
              "type": "uint256"
            },
            {
              "internalType": "uint256",
              "name": "U0",
              "type": "uint256"
            },
            {
              "internalType": "uint256[]",
              "name": "V",
              "type": "uint256[]"
            },
            {
              "components": [
                {
                  "internalType": "uint256",
                  "name": "x",
                  "type": "uint256"
                },
                {
                  "internalType": "uint256",
                  "name": "y",
                  "type": "uint256"
                }
              ],
              "internalType": "struct Secp256r1.ECPoint",
              "name": "K",
              "type": "tuple"
            },
            {
              "components": [
                {
                  "components": [
                    {
                      "internalType": "uint256",
                      "name": "x",
                      "type": "uint256"
                    },
                    {
                      "internalType": "uint256",
                      "name": "y",
                      "type": "uint256"
                    }
                  ],
                  "internalType": "struct Secp256r1.ECPoint",
                  "name": "C",
                  "type": "tuple"
                },
                {
                  "components": [
                    {
                      "internalType": "uint256",
                      "name": "x",
                      "type": "uint256"
                    },
                    {
                      "internalType": "uint256",
                      "name": "y",
                      "type": "uint256"
                    }
                  ],
                  "internalType": "struct Secp256r1.ECPoint",
                  "name": "D",
                  "type": "tuple"
                }
              ],
              "internalType": "struct Elgamal.Elgamal_ciphertext",
              "name": "encVote",
              "type": "tuple"
            }
          ],
          "indexed": false,
          "internalType": "struct Election.Ballot[]",
          "name": "ballots",
          "type": "tuple[]"
        }
      ],
      "name": "tallyVoteEvent",
      "type": "event"
    },
    {
      "anonymous": false,
      "inputs": [
        {
          "indexed": false,
          "internalType": "uint256[]",
          "name": "illegitimate_voter_indeces",
          "type": "uint256[]"
        }
      ],
      "name": "verifySharesEvent",
      "type": "event"
    },
    {
      "inputs": [
        {
          "internalType": "uint256",
          "name": "",
          "type": "uint256"
        }
      ],
      "name": "ECPubKeysAftVer",
      "outputs": [
        {
          "internalType": "uint256",
          "name": "x",
          "type": "uint256"
        },
        {
          "internalType": "uint256",
          "name": "y",
          "type": "uint256"
        }
      ],
      "stateMutability": "view",
      "type": "function"
    },
    {
      "inputs": [
        {
          "internalType": "uint256",
          "name": "",
          "type": "uint256"
        }
      ],
      "name": "EC_public_keys",
      "outputs": [
        {
          "internalType": "uint256",
          "name": "x",
          "type": "uint256"
        },
        {
          "internalType": "uint256",
          "name": "y",
          "type": "uint256"
        }
      ],
      "stateMutability": "view",
      "type": "function"
    },
    {
      "inputs": [],
      "name": "H",
      "outputs": [
        {
          "internalType": "uint256",
          "name": "x",
          "type": "uint256"
        },
        {
          "internalType": "uint256",
          "name": "y",
          "type": "uint256"
        }
      ],
      "stateMutability": "view",
      "type": "function"
    },
    {
      "inputs": [],
      "name": "L",
      "outputs": [
        {
          "internalType": "uint256",
          "name": "",
          "type": "uint256"
        }
      ],
      "stateMutability": "view",
      "type": "function"
    },
    {
      "inputs": [
        {
          "internalType": "uint256",
          "name": "",
          "type": "uint256"
        }
      ],
      "name": "candidates",
      "outputs": [
        {
          "internalType": "uint256",
          "name": "id",
          "type": "uint256"
        },
        {
          "internalType": "string",
          "name": "name",
          "type": "string"
        },
        {
          "internalType": "uint256",
          "name": "voteCount",
          "type": "uint256"
        }
      ],
      "stateMutability": "view",
      "type": "function"
    },
    {
      "inputs": [],
      "name": "description",
      "outputs": [
        {
          "internalType": "string",
          "name": "",
          "type": "string"
        }
      ],
      "stateMutability": "view",
      "type": "function"
    },
    {
      "inputs": [],
      "name": "id",
      "outputs": [
        {
          "internalType": "uint256",
          "name": "",
          "type": "uint256"
        }
      ],
      "stateMutability": "view",
      "type": "function"
    },
    {
      "inputs": [
        {
          "internalType": "uint256",
          "name": "",
          "type": "uint256"
        }
      ],
      "name": "illegitimate_voter_indeces",
      "outputs": [
        {
          "internalType": "uint256",
          "name": "",
          "type": "uint256"
        }
      ],
      "stateMutability": "view",
      "type": "function"
    },
    {
      "inputs": [],
      "name": "isBasicInfoSet",
      "outputs": [
        {
          "internalType": "bool",
          "name": "",
          "type": "bool"
        }
      ],
      "stateMutability": "view",
      "type": "function"
    },
    {
      "inputs": [],
      "name": "isECPubKeysAftVerSet",
      "outputs": [
        {
          "internalType": "bool",
          "name": "",
          "type": "bool"
        }
      ],
      "stateMutability": "view",
      "type": "function"
    },
    {
      "inputs": [],
      "name": "isSetUp",
      "outputs": [
        {
          "internalType": "bool",
          "name": "",
          "type": "bool"
        }
      ],
      "stateMutability": "view",
      "type": "function"
    },
    {
      "inputs": [],
      "name": "isVotePubKeySet",
      "outputs": [
        {
          "internalType": "bool",
          "name": "",
          "type": "bool"
        }
      ],
      "stateMutability": "view",
      "type": "function"
    },
    {
      "inputs": [],
      "name": "isVoteTallied",
      "outputs": [
        {
          "internalType": "bool",
          "name": "",
          "type": "bool"
        }
      ],
      "stateMutability": "view",
      "type": "function"
    },
    {
      "inputs": [],
      "name": "min_shares",
      "outputs": [
        {
          "internalType": "uint256",
          "name": "",
          "type": "uint256"
        }
      ],
      "stateMutability": "view",
      "type": "function"
    },
    {
      "inputs": [],
      "name": "owner",
      "outputs": [
        {
          "internalType": "address",
          "name": "",
          "type": "address"
        }
      ],
      "stateMutability": "view",
      "type": "function"
    },
    {
      "inputs": [],
      "name": "post_time",
      "outputs": [
        {
          "internalType": "uint256",
          "name": "",
          "type": "uint256"
        }
      ],
      "stateMutability": "view",
      "type": "function"
    },
    {
      "inputs": [
        {
          "internalType": "uint256",
          "name": "",
          "type": "uint256"
        }
      ],
      "name": "public_keys",
      "outputs": [
        {
          "internalType": "string",
          "name": "",
          "type": "string"
        }
      ],
      "stateMutability": "view",
      "type": "function"
    },
    {
      "inputs": [],
      "name": "secret_upload_end_time",
      "outputs": [
        {
          "internalType": "uint256",
          "name": "",
          "type": "uint256"
        }
      ],
      "stateMutability": "view",
      "type": "function"
    },
    {
      "inputs": [],
      "name": "share_end_time",
      "outputs": [
        {
          "internalType": "uint256",
          "name": "",
          "type": "uint256"
        }
      ],
      "stateMutability": "view",
      "type": "function"
    },
    {
      "inputs": [],
      "name": "title",
      "outputs": [
        {
          "internalType": "string",
          "name": "",
          "type": "string"
        }
      ],
      "stateMutability": "view",
      "type": "function"
    },
    {
      "inputs": [],
      "name": "totalSubSecretSentCount",
      "outputs": [
        {
          "internalType": "uint256",
          "name": "",
          "type": "uint256"
        }
      ],
      "stateMutability": "view",
      "type": "function"
    },
    {
      "inputs": [],
      "name": "totatSharesSentCount",
      "outputs": [
        {
          "internalType": "uint256",
          "name": "",
          "type": "uint256"
        }
      ],
      "stateMutability": "view",
      "type": "function"
    },
    {
      "inputs": [],
      "name": "ver_end_time",
      "outputs": [
        {
          "internalType": "uint256",
          "name": "",
          "type": "uint256"
        }
      ],
      "stateMutability": "view",
      "type": "function"
    },
    {
      "inputs": [],
      "name": "votePubKey",
      "outputs": [
        {
          "internalType": "uint256",
          "name": "x",
          "type": "uint256"
        },
        {
          "internalType": "uint256",
          "name": "y",
          "type": "uint256"
        }
      ],
      "stateMutability": "view",
      "type": "function"
    },
    {
      "inputs": [],
      "name": "vote_end_time",
      "outputs": [
        {
          "internalType": "uint256",
          "name": "",
          "type": "uint256"
        }
      ],
      "stateMutability": "view",
      "type": "function"
    },
    {
      "inputs": [
        {
          "components": [
            {
              "internalType": "string",
              "name": "title",
              "type": "string"
            },
            {
              "internalType": "string",
              "name": "des",
              "type": "string"
            },
            {
              "internalType": "string[]",
              "name": "pubKeys",
              "type": "string[]"
            },
            {
              "internalType": "string[]",
              "name": "candidates",
              "type": "string[]"
            },
            {
              "components": [
                {
                  "internalType": "uint256",
                  "name": "x",
                  "type": "uint256"
                },
                {
                  "internalType": "uint256",
                  "name": "y",
                  "type": "uint256"
                }
              ],
              "internalType": "struct Secp256r1.ECPoint[]",
              "name": "EC_public_keys",
              "type": "tuple[]"
            },
            {
              "internalType": "uint256",
              "name": "minShares",
              "type": "uint256"
            },
            {
              "internalType": "uint256",
              "name": "sharesTime",
              "type": "uint256"
            },
            {
              "internalType": "uint256",
              "name": "verTime",
              "type": "uint256"
            },
            {
              "internalType": "uint256",
              "name": "voteTime",
              "type": "uint256"
            },
            {
              "internalType": "uint256",
              "name": "secUploadTime",
              "type": "uint256"
            },
            {
              "internalType": "uint256",
              "name": "sharesTimeUnit",
              "type": "uint256"
            },
            {
              "internalType": "uint256",
              "name": "verTimeUnit",
              "type": "uint256"
            },
            {
              "internalType": "uint256",
              "name": "voteTimeUnit",
              "type": "uint256"
            },
            {
              "internalType": "uint256",
              "name": "secUploadTimeUnit",
              "type": "uint256"
            }
          ],
          "internalType": "struct Election.ElectionSetUpData",
          "name": "_data",
          "type": "tuple"
        }
      ],
      "name": "setElectionInfo",
      "outputs": [
        {
          "internalType": "bool",
          "name": "",
          "type": "bool"
        }
      ],
      "stateMutability": "nonpayable",
      "type": "function"
    },
    {
      "inputs": [
        {
          "components": [
            {
              "components": [
                {
                  "internalType": "uint256",
                  "name": "x",
                  "type": "uint256"
                },
                {
                  "internalType": "uint256",
                  "name": "y",
                  "type": "uint256"
                }
              ],
              "internalType": "struct Secp256r1.ECPoint",
              "name": "H2",
              "type": "tuple"
            },
            {
              "internalType": "uint256",
              "name": "i",
              "type": "uint256"
            },
            {
              "internalType": "uint256",
              "name": "j",
              "type": "uint256"
            },
            {
              "components": [
                {
                  "internalType": "uint256",
                  "name": "c",
                  "type": "uint256"
                },
                {
                  "internalType": "uint256",
                  "name": "r",
                  "type": "uint256"
                }
              ],
              "internalType": "struct CPProof.CPproof",
              "name": "proof",
              "type": "tuple"
            }
          ],
          "internalType": "struct Shares.VerSharesPar[]",
          "name": "_Par",
          "type": "tuple[]"
        }
      ],
      "name": "setDisqualifiedPubKeyIndece",
      "outputs": [],
      "stateMutability": "nonpayable",
      "type": "function"
    },
    {
      "inputs": [],
      "name": "setVotePublicKey",
      "outputs": [],
      "stateMutability": "nonpayable",
      "type": "function"
    },
    {
      "inputs": [],
      "name": "getBallot",
      "outputs": [
        {
          "components": [
            {
              "internalType": "uint256",
              "name": "id",
              "type": "uint256"
            },
            {
              "internalType": "uint256",
              "name": "voteTime",
              "type": "uint256"
            },
            {
              "internalType": "int256",
              "name": "candidate_id",
              "type": "int256"
            },
            {
              "internalType": "uint256",
              "name": "encVoteHash",
              "type": "uint256"
            },
            {
              "internalType": "uint256",
              "name": "U0",
              "type": "uint256"
            },
            {
              "internalType": "uint256[]",
              "name": "V",
              "type": "uint256[]"
            },
            {
              "components": [
                {
                  "internalType": "uint256",
                  "name": "x",
                  "type": "uint256"
                },
                {
                  "internalType": "uint256",
                  "name": "y",
                  "type": "uint256"
                }
              ],
              "internalType": "struct Secp256r1.ECPoint",
              "name": "K",
              "type": "tuple"
            },
            {
              "components": [
                {
                  "components": [
                    {
                      "internalType": "uint256",
                      "name": "x",
                      "type": "uint256"
                    },
                    {
                      "internalType": "uint256",
                      "name": "y",
                      "type": "uint256"
                    }
                  ],
                  "internalType": "struct Secp256r1.ECPoint",
                  "name": "C",
                  "type": "tuple"
                },
                {
                  "components": [
                    {
                      "internalType": "uint256",
                      "name": "x",
                      "type": "uint256"
                    },
                    {
                      "internalType": "uint256",
                      "name": "y",
                      "type": "uint256"
                    }
                  ],
                  "internalType": "struct Secp256r1.ECPoint",
                  "name": "D",
                  "type": "tuple"
                }
              ],
              "internalType": "struct Elgamal.Elgamal_ciphertext",
              "name": "encVote",
              "type": "tuple"
            }
          ],
          "internalType": "struct Election.Ballot[]",
          "name": "",
          "type": "tuple[]"
        }
      ],
      "stateMutability": "view",
      "type": "function"
    },
    {
      "inputs": [
        {
          "components": [
            {
              "internalType": "uint256",
              "name": "h",
              "type": "uint256"
            },
            {
              "internalType": "uint256",
              "name": "subSecret",
              "type": "uint256"
            },
            {
              "internalType": "uint256",
              "name": "i",
              "type": "uint256"
            },
            {
              "components": [
                {
                  "internalType": "uint256",
                  "name": "r",
                  "type": "uint256"
                },
                {
                  "internalType": "uint256",
                  "name": "s",
                  "type": "uint256"
                }
              ],
              "internalType": "struct ECDSA.ECDSA_Sig",
              "name": "sig",
              "type": "tuple"
            }
          ],
          "internalType": "struct Utils.SubSecretWithSig",
          "name": "_s",
          "type": "tuple"
        }
      ],
      "name": "addSubSecret",
      "outputs": [],
      "stateMutability": "nonpayable",
      "type": "function"
    },
    {
      "inputs": [],
      "name": "getSubSecrets",
      "outputs": [
        {
          "components": [
            {
              "internalType": "uint256",
              "name": "h",
              "type": "uint256"
            },
            {
              "internalType": "uint256",
              "name": "subSecret",
              "type": "uint256"
            },
            {
              "internalType": "uint256",
              "name": "i",
              "type": "uint256"
            },
            {
              "components": [
                {
                  "internalType": "uint256",
                  "name": "r",
                  "type": "uint256"
                },
                {
                  "internalType": "uint256",
                  "name": "s",
                  "type": "uint256"
                }
              ],
              "internalType": "struct ECDSA.ECDSA_Sig",
              "name": "sig",
              "type": "tuple"
            }
          ],
          "internalType": "struct Utils.SubSecretWithSig[]",
          "name": "",
          "type": "tuple[]"
        }
      ],
      "stateMutability": "view",
      "type": "function"
    },
    {
      "inputs": [
        {
          "internalType": "uint256",
          "name": "_publicKeyIndex",
          "type": "uint256"
        }
      ],
      "name": "getF",
      "outputs": [
        {
          "components": [
            {
              "components": [
                {
                  "internalType": "uint256",
                  "name": "x",
                  "type": "uint256"
                },
                {
                  "internalType": "uint256",
                  "name": "y",
                  "type": "uint256"
                }
              ],
              "internalType": "struct Secp256r1.ECPoint",
              "name": "p",
              "type": "tuple"
            },
            {
              "internalType": "uint256",
              "name": "i",
              "type": "uint256"
            },
            {
              "internalType": "uint256",
              "name": "j",
              "type": "uint256"
            },
            {
              "internalType": "uint256",
              "name": "h",
              "type": "uint256"
            },
            {
              "components": [
                {
                  "internalType": "uint256",
                  "name": "r",
                  "type": "uint256"
                },
                {
                  "internalType": "uint256",
                  "name": "s",
                  "type": "uint256"
                }
              ],
              "internalType": "struct ECDSA.ECDSA_Sig",
              "name": "sig",
              "type": "tuple"
            }
          ],
          "internalType": "struct Shares.F[]",
          "name": "",
          "type": "tuple[]"
        }
      ],
      "stateMutability": "view",
      "type": "function"
    },
    {
      "inputs": [
        {
          "internalType": "uint256",
          "name": "_publicKeyIndex",
          "type": "uint256"
        }
      ],
      "name": "getf",
      "outputs": [
        {
          "components": [
            {
              "components": [
                {
                  "components": [
                    {
                      "internalType": "uint256",
                      "name": "x",
                      "type": "uint256"
                    },
                    {
                      "internalType": "uint256",
                      "name": "y",
                      "type": "uint256"
                    }
                  ],
                  "internalType": "struct Secp256r1.ECPoint",
                  "name": "C",
                  "type": "tuple"
                },
                {
                  "components": [
                    {
                      "internalType": "uint256",
                      "name": "x",
                      "type": "uint256"
                    },
                    {
                      "internalType": "uint256",
                      "name": "y",
                      "type": "uint256"
                    }
                  ],
                  "internalType": "struct Secp256r1.ECPoint",
                  "name": "D",
                  "type": "tuple"
                }
              ],
              "internalType": "struct Elgamal.Elgamal_ciphertext",
              "name": "ciphertext",
              "type": "tuple"
            },
            {
              "internalType": "uint256",
              "name": "i",
              "type": "uint256"
            },
            {
              "internalType": "uint256",
              "name": "j",
              "type": "uint256"
            },
            {
              "internalType": "uint256",
              "name": "h",
              "type": "uint256"
            },
            {
              "components": [
                {
                  "internalType": "uint256",
                  "name": "r",
                  "type": "uint256"
                },
                {
                  "internalType": "uint256",
                  "name": "s",
                  "type": "uint256"
                }
              ],
              "internalType": "struct ECDSA.ECDSA_Sig",
              "name": "sig",
              "type": "tuple"
            }
          ],
          "internalType": "struct Shares.f[]",
          "name": "",
          "type": "tuple[]"
        }
      ],
      "stateMutability": "view",
      "type": "function"
    },
    {
      "inputs": [
        {
          "components": [
            {
              "components": [
                {
                  "internalType": "uint256",
                  "name": "x",
                  "type": "uint256"
                },
                {
                  "internalType": "uint256",
                  "name": "y",
                  "type": "uint256"
                }
              ],
              "internalType": "struct Secp256r1.ECPoint",
              "name": "p",
              "type": "tuple"
            },
            {
              "internalType": "uint256",
              "name": "i",
              "type": "uint256"
            },
            {
              "internalType": "uint256",
              "name": "j",
              "type": "uint256"
            },
            {
              "internalType": "uint256",
              "name": "h",
              "type": "uint256"
            },
            {
              "components": [
                {
                  "internalType": "uint256",
                  "name": "r",
                  "type": "uint256"
                },
                {
                  "internalType": "uint256",
                  "name": "s",
                  "type": "uint256"
                }
              ],
              "internalType": "struct ECDSA.ECDSA_Sig",
              "name": "sig",
              "type": "tuple"
            }
          ],
          "internalType": "struct Shares.F[]",
          "name": "_F",
          "type": "tuple[]"
        },
        {
          "components": [
            {
              "components": [
                {
                  "components": [
                    {
                      "internalType": "uint256",
                      "name": "x",
                      "type": "uint256"
                    },
                    {
                      "internalType": "uint256",
                      "name": "y",
                      "type": "uint256"
                    }
                  ],
                  "internalType": "struct Secp256r1.ECPoint",
                  "name": "C",
                  "type": "tuple"
                },
                {
                  "components": [
                    {
                      "internalType": "uint256",
                      "name": "x",
                      "type": "uint256"
                    },
                    {
                      "internalType": "uint256",
                      "name": "y",
                      "type": "uint256"
                    }
                  ],
                  "internalType": "struct Secp256r1.ECPoint",
                  "name": "D",
                  "type": "tuple"
                }
              ],
              "internalType": "struct Elgamal.Elgamal_ciphertext",
              "name": "ciphertext",
              "type": "tuple"
            },
            {
              "internalType": "uint256",
              "name": "i",
              "type": "uint256"
            },
            {
              "internalType": "uint256",
              "name": "j",
              "type": "uint256"
            },
            {
              "internalType": "uint256",
              "name": "h",
              "type": "uint256"
            },
            {
              "components": [
                {
                  "internalType": "uint256",
                  "name": "r",
                  "type": "uint256"
                },
                {
                  "internalType": "uint256",
                  "name": "s",
                  "type": "uint256"
                }
              ],
              "internalType": "struct ECDSA.ECDSA_Sig",
              "name": "sig",
              "type": "tuple"
            }
          ],
          "internalType": "struct Shares.f[]",
          "name": "_f",
          "type": "tuple[]"
        }
      ],
      "name": "addKeyGenVal",
      "outputs": [],
      "stateMutability": "nonpayable",
      "type": "function"
    },
    {
      "inputs": [
        {
          "internalType": "uint256",
          "name": "_encVoteHash",
          "type": "uint256"
        },
        {
          "internalType": "uint256",
          "name": "_U0",
          "type": "uint256"
        },
        {
          "internalType": "uint256[]",
          "name": "_V",
          "type": "uint256[]"
        },
        {
          "components": [
            {
              "internalType": "uint256",
              "name": "x",
              "type": "uint256"
            },
            {
              "internalType": "uint256",
              "name": "y",
              "type": "uint256"
            }
          ],
          "internalType": "struct Secp256r1.ECPoint",
          "name": "_K",
          "type": "tuple"
        }
      ],
      "name": "verifyLRS",
      "outputs": [
        {
          "internalType": "bool",
          "name": "",
          "type": "bool"
        }
      ],
      "stateMutability": "view",
      "type": "function"
    },
    {
      "inputs": [
        {
          "components": [
            {
              "components": [
                {
                  "internalType": "uint256",
                  "name": "x",
                  "type": "uint256"
                },
                {
                  "internalType": "uint256",
                  "name": "y",
                  "type": "uint256"
                }
              ],
              "internalType": "struct Secp256r1.ECPoint",
              "name": "C",
              "type": "tuple"
            },
            {
              "components": [
                {
                  "internalType": "uint256",
                  "name": "x",
                  "type": "uint256"
                },
                {
                  "internalType": "uint256",
                  "name": "y",
                  "type": "uint256"
                }
              ],
              "internalType": "struct Secp256r1.ECPoint",
              "name": "D",
              "type": "tuple"
            }
          ],
          "internalType": "struct Elgamal.Elgamal_ciphertext",
          "name": "_encVote",
          "type": "tuple"
        },
        {
          "internalType": "uint256",
          "name": "_encVoteHash",
          "type": "uint256"
        },
        {
          "internalType": "uint256",
          "name": "_U0",
          "type": "uint256"
        },
        {
          "internalType": "uint256[]",
          "name": "_V",
          "type": "uint256[]"
        },
        {
          "components": [
            {
              "internalType": "uint256",
              "name": "x",
              "type": "uint256"
            },
            {
              "internalType": "uint256",
              "name": "y",
              "type": "uint256"
            }
          ],
          "internalType": "struct Secp256r1.ECPoint",
          "name": "_K",
          "type": "tuple"
        }
      ],
      "name": "addVote",
      "outputs": [],
      "stateMutability": "nonpayable",
      "type": "function"
    },
    {
      "inputs": [
        {
          "internalType": "uint256",
          "name": "_votePrvKey",
          "type": "uint256"
        }
      ],
      "name": "verfiyVotePrivateKey",
      "outputs": [
        {
          "internalType": "bool",
          "name": "",
          "type": "bool"
        }
      ],
      "stateMutability": "view",
      "type": "function"
    },
    {
      "inputs": [
        {
          "components": [
            {
              "components": [
                {
                  "internalType": "uint256",
                  "name": "x",
                  "type": "uint256"
                },
                {
                  "internalType": "uint256",
                  "name": "y",
                  "type": "uint256"
                }
              ],
              "internalType": "struct Secp256r1.ECPoint",
              "name": "C",
              "type": "tuple"
            },
            {
              "components": [
                {
                  "internalType": "uint256",
                  "name": "x",
                  "type": "uint256"
                },
                {
                  "internalType": "uint256",
                  "name": "y",
                  "type": "uint256"
                }
              ],
              "internalType": "struct Secp256r1.ECPoint",
              "name": "D",
              "type": "tuple"
            }
          ],
          "internalType": "struct Elgamal.Elgamal_ciphertext",
          "name": "_encVote",
          "type": "tuple"
        },
        {
          "internalType": "uint256",
          "name": "_votePrvKey",
          "type": "uint256"
        }
      ],
      "name": "decryptVote",
      "outputs": [
        {
          "internalType": "uint256",
          "name": "",
          "type": "uint256"
        }
      ],
      "stateMutability": "pure",
      "type": "function"
    },
    {
      "inputs": [
        {
          "internalType": "uint256",
          "name": "_votePrvKey",
          "type": "uint256"
        }
      ],
      "name": "tallyVote",
      "outputs": [],
      "stateMutability": "nonpayable",
      "type": "function"
    },
    {
      "inputs": [],
      "name": "getElectionData",
      "outputs": [
        {
          "components": [
            {
              "internalType": "uint256",
              "name": "id",
              "type": "uint256"
            },
            {
              "internalType": "uint256",
              "name": "post_time",
              "type": "uint256"
            },
            {
              "internalType": "uint256",
              "name": "share_end_time",
              "type": "uint256"
            },
            {
              "internalType": "uint256",
              "name": "ver_end_time",
              "type": "uint256"
            },
            {
              "internalType": "uint256",
              "name": "vote_end_time",
              "type": "uint256"
            },
            {
              "internalType": "uint256",
              "name": "secret_upload_end_time",
              "type": "uint256"
            },
            {
              "internalType": "uint256",
              "name": "min_shares",
              "type": "uint256"
            },
            {
              "internalType": "uint256",
              "name": "totatSharesSentCount",
              "type": "uint256"
            },
            {
              "internalType": "uint256",
              "name": "totalSubSecretSentCount",
              "type": "uint256"
            },
            {
              "internalType": "uint256[]",
              "name": "illegitimate_voter_indeces",
              "type": "uint256[]"
            },
            {
              "internalType": "string",
              "name": "title",
              "type": "string"
            },
            {
              "internalType": "string",
              "name": "description",
              "type": "string"
            },
            {
              "internalType": "string[]",
              "name": "public_keys",
              "type": "string[]"
            },
            {
              "components": [
                {
                  "internalType": "uint256",
                  "name": "id",
                  "type": "uint256"
                },
                {
                  "internalType": "string",
                  "name": "name",
                  "type": "string"
                },
                {
                  "internalType": "uint256",
                  "name": "voteCount",
                  "type": "uint256"
                }
              ],
              "internalType": "struct Election.Candidate[]",
              "name": "candidates",
              "type": "tuple[]"
            },
            {
              "internalType": "bool",
              "name": "isVoteTallied",
              "type": "bool"
            },
            {
              "internalType": "bool",
              "name": "isVotePubKeySet",
              "type": "bool"
            },
            {
              "internalType": "bool",
              "name": "isECPubKeysAftVerSet",
              "type": "bool"
            },
            {
              "internalType": "bool",
              "name": "isSetUp",
              "type": "bool"
            },
            {
              "internalType": "address",
              "name": "owner",
              "type": "address"
            },
            {
              "components": [
                {
                  "internalType": "uint256",
                  "name": "id",
                  "type": "uint256"
                },
                {
                  "internalType": "uint256",
                  "name": "voteTime",
                  "type": "uint256"
                },
                {
                  "internalType": "int256",
                  "name": "candidate_id",
                  "type": "int256"
                },
                {
                  "internalType": "uint256",
                  "name": "encVoteHash",
                  "type": "uint256"
                },
                {
                  "internalType": "uint256",
                  "name": "U0",
                  "type": "uint256"
                },
                {
                  "internalType": "uint256[]",
                  "name": "V",
                  "type": "uint256[]"
                },
                {
                  "components": [
                    {
                      "internalType": "uint256",
                      "name": "x",
                      "type": "uint256"
                    },
                    {
                      "internalType": "uint256",
                      "name": "y",
                      "type": "uint256"
                    }
                  ],
                  "internalType": "struct Secp256r1.ECPoint",
                  "name": "K",
                  "type": "tuple"
                },
                {
                  "components": [
                    {
                      "components": [
                        {
                          "internalType": "uint256",
                          "name": "x",
                          "type": "uint256"
                        },
                        {
                          "internalType": "uint256",
                          "name": "y",
                          "type": "uint256"
                        }
                      ],
                      "internalType": "struct Secp256r1.ECPoint",
                      "name": "C",
                      "type": "tuple"
                    },
                    {
                      "components": [
                        {
                          "internalType": "uint256",
                          "name": "x",
                          "type": "uint256"
                        },
                        {
                          "internalType": "uint256",
                          "name": "y",
                          "type": "uint256"
                        }
                      ],
                      "internalType": "struct Secp256r1.ECPoint",
                      "name": "D",
                      "type": "tuple"
                    }
                  ],
                  "internalType": "struct Elgamal.Elgamal_ciphertext",
                  "name": "encVote",
                  "type": "tuple"
                }
              ],
              "internalType": "struct Election.Ballot[]",
              "name": "ballots",
              "type": "tuple[]"
            }
          ],
          "internalType": "struct Election.ElectionData",
          "name": "",
          "type": "tuple"
        }
      ],
      "stateMutability": "view",
      "type": "function"
    }
  ],
  "bytecode": "0x60806040523480156200001157600080fd5b5060405162004e0238038062004e0283398101604081905262000034916200005f565b600491909155600080546001600160a01b0319166001600160a01b039092169190911790556200009e565b600080604083850312156200007357600080fd5b825160208401519092506001600160a01b03811681146200009357600080fd5b809150509250929050565b614d5480620000ae6000396000f3fe608060405234801561001057600080fd5b50600436106101d85760003560e01c806301c9fd4b146101dd57806317542dc0146101f95780631df32b9d146102025780633477ee2e1461022557806336e678391461024757806344ff1d681461025c5780634a79d50c1461027c578063500b1e82146102845780636652e5261461029757806368bf4b85146102ac57806370252e1c146102bf57806370a5d861146102d357806370dc5e13146102ef57806371922f6f146102fd5780637284e4161461031057806373d1993b146103185780638518d2d9146103215780638da5cb5b146103345780638db068061461035f5780639baec8b9146103725780639f13f76d14610387578063a0b0ee7614610390578063a2f93301146103a4578063a69d1b7e146103ac578063ab64ad30146103bf578063af640d0f146103d2578063b9bb4a4b146103db578063b9d2c979146103ee578063bb2bcc0614610400578063c701ae2014610409578063cdce88ef14610412578063d2b10f3914610432578063e3bad1201461043b578063e6a7060814610448578063ee9d02a614610468578063eebc904e1461047b578063f3e1b07714610484578063f9f9274e14610497578063fca43a57146104ac578063fecfdbfe146104bf575b600080fd5b6101e6600b5481565b6040519081526020015b60405180910390f35b6101e660095481565b610215610210366004613ab3565b6104c8565b60405190151581526020016101f0565b610238610233366004613b1b565b610641565b6040516101f093929190613b90565b61025a610255366004613bcb565b6106ff565b005b61026f61026a366004613b1b565b610a8b565b6040516101f09190613c44565b61026f610b37565b600d546102159062010000900460ff1681565b61029f610b44565b6040516101f09190613e45565b6101e66102ba366004613b1b565b61113a565b600d54610215906301000000900460ff1681565b6012546013546102e1919082565b6040516101f0929190613fd5565b600e54600f546102e1919082565b61021561030b366004613b1b565b61115b565b61026f6111df565b6101e660085481565b61021561032f366004613fe3565b6111ec565b600054610347906001600160a01b031681565b6040516001600160a01b0390911681526020016101f0565b61025a61036d36600461401e565b61174c565b61037a611f77565b6040516101f091906140e6565b6101e660115481565b600d5461021590600160201b900460ff1681565b61025a6120ca565b6101e66103ba3660046140f9565b61235d565b61025a6103cd366004614124565b6123e1565b6101e660045481565b6102e16103e9366004613b1b565b6128d0565b600d5461021590610100900460ff1681565b6101e6600a5481565b6101e6600c5481565b610425610420366004613b1b565b6128fe565b6040516101f09190614198565b6101e660065481565b600d546102159060ff1681565b61045b610456366004613b1b565b612a73565b6040516101f0919061420e565b61025a610476366004613b1b565b612c4d565b6101e660075481565b61025a610492366004614284565b612e33565b61049f613134565b6040516101f09190614296565b6102e16104ba366004613b1b565b6131c1565b6101e660055481565b600073__LRS___________________________________63eb6100266040518060e00160405280898152602001888152602001601154815260200187878080602002602001604051908101604052809392919081815260200183836020028082843760009201919091525050509082525060408051808201825260125481526013546020828101919091528301520161056636879003870187614375565b81526020016016805480602002602001604051908101604052809291908181526020016000905b828210156105d35783829060005260206000209060020201604051806040016040529081600082015481526020016001820154815250508152602001906001019061058d565b505050508152506040518263ffffffff1660e01b81526004016105f691906143cb565b602060405180830381865af4158015610613573d6000803e3d6000fd5b505050506040513d601f19601f820116820180604052508101906106379190614486565b9695505050505050565b6019818154811061065157600080fd5b60009182526020909120600390910201805460018201805491935090610676906144a8565b80601f01602080910402602001604051908101604052809291908181526020018280546106a2906144a8565b80156106ef5780601f106106c4576101008083540402835291602001916106ef565b820191906000526020600020905b8154815290600101906020018083116106d257829003601f168201915b5050505050908060020154905083565b4260075411158015610712575060085442105b6107535760405162461bcd60e51b815260206004820152600d60248201526c57726f6e67566f746554696d6560981b60448201526064015b60405180910390fd5b600d546301000000900460ff1615156001146107a65760405162461bcd60e51b815260206004820152601260248201527114d95d159bdd19541d5892d95e519a5c9cdd60721b604482015260640161074a565b60006003826000013583602001356040516020016107c5929190613fd5565b60408051601f19818403018152908290526107df916144dd565b602060405180830381855afa1580156107fc573d6000803e3d6000fd5b5050604080515160601b6001600160601b0319811660009081526014602052919091205490925060ff161590506108635760405162461bcd60e51b815260206004820152600b60248201526a165bdd55d85cd59bdd195960aa1b604482015260640161074a565b60408051600091610889918a35916020808d013592918d01359160608e013591016144f9565b6040516020818303038152906040528051906020012060001c90508681146108c35760405162461bcd60e51b815260040161074a90614514565b60006108d288888888886104c8565b90506001811515146108f65760405162461bcd60e51b815260040161074a9061453c565b6020604051806101000160405280602080549050815260200142815260200160001981526020018a815260200189815260200188888080602002602001604051908101604052809392919081815260200183836020028082843760009201919091525050509082525060200161097136889003880188614375565b8152602001610985368d90038d018d614564565b905281546001818101845560009384526020938490208351600c90930201918255838301519082015560408201516002820155606082015160038201556080820151600482015560a08201518051929391926109e79260058501920190613864565b5060c082015180516006830155602090810151600783015560e09092015180518051600884015583015160098301558201518051600a830155820151600b909101556001600160601b03198416600090815260148252604090819020805460ff19166001179055815490519081527ffa3646576e62bd55338198a0df1081271097c419287396347b2f5b84a21d6760910160405180910390a1505050505050505050565b60038181548110610a9b57600080fd5b906000526020600020016000915090508054610ab6906144a8565b80601f0160208091040260200160405190810160405280929190818152602001828054610ae2906144a8565b8015610b2f5780601f10610b0457610100808354040283529160200191610b2f565b820191906000526020600020905b815481529060010190602001808311610b1257829003601f168201915b505050505081565b60018054610ab6906144a8565b610bf1604051806102800160405280600081526020016000815260200160008152602001600081526020016000815260200160008152602001600081526020016000815260200160008152602001606081526020016060815260200160608152602001606081526020016060815260200160001515815260200160001515815260200160001515815260200160001515815260200160006001600160a01b03168152602001606081525090565b604051806102800160405280600454815260200160055481526020016006548152602001600754815260200160085481526020016009548152602001600a548152602001600b548152602001600c5481526020016017805480602002602001604051908101604052809291908181526020018280548015610c9157602002820191906000526020600020905b815481526020019060010190808311610c7d575b5050505050815260200160018054610ca8906144a8565b80601f0160208091040260200160405190810160405280929190818152602001828054610cd4906144a8565b8015610d215780601f10610cf657610100808354040283529160200191610d21565b820191906000526020600020905b815481529060010190602001808311610d0457829003601f168201915b5050505050815260200160028054610d38906144a8565b80601f0160208091040260200160405190810160405280929190818152602001828054610d64906144a8565b8015610db15780601f10610d8657610100808354040283529160200191610db1565b820191906000526020600020905b815481529060010190602001808311610d9457829003601f168201915b505050505081526020016003805480602002602001604051908101604052809291908181526020016000905b82821015610e89578382906000526020600020018054610dfc906144a8565b80601f0160208091040260200160405190810160405280929190818152602001828054610e28906144a8565b8015610e755780601f10610e4a57610100808354040283529160200191610e75565b820191906000526020600020905b815481529060010190602001808311610e5857829003601f168201915b505050505081526020019060010190610ddd565b5050505081526020016019805480602002602001604051908101604052809291908181526020016000905b82821015610f8c578382906000526020600020906003020160405180606001604052908160008201548152602001600182018054610ef1906144a8565b80601f0160208091040260200160405190810160405280929190818152602001828054610f1d906144a8565b8015610f6a5780601f10610f3f57610100808354040283529160200191610f6a565b820191906000526020600020905b815481529060010190602001808311610f4d57829003601f168201915b5050505050815260200160028201548152505081526020019060010190610eb4565b50505090825250600d5460ff80821615156020808501919091526301000000830482161515604080860191909152600160201b84048316151560608601526201000090930490911615156080840152600080546001600160a01b031660a0850152815483518184028101840190945280845260c090940193908383015b8282101561112f57838290600052602060002090600c0201604051806101000160405290816000820154815260200160018201548152602001600282015481526020016003820154815260200160048201548152602001600582018054806020026020016040519081016040528092919081815260200182805480156110ae57602002820191906000526020600020905b81548152602001906001019080831161109a575b5050509183525050604080518082018252600684015481526007840154602082810191909152808401919091528151608081018352600885015481840190815260098601546060830152815282518084018452600a8601548152600b9095015485830152808201949094529101919091529082526001929092019101611009565b505050915250919050565b6017818154811061114a57600080fd5b600091825260209091200154905081565b604051633ee9b07b60e21b815260009073__Utils_________________________________9063fba6c1ec90611198908590600e906004016145b3565b602060405180830381865af41580156111b5573d6000803e3d6000fd5b505050506040513d601f19601f820116820180604052508101906111d99190614486565b92915050565b60028054610ab6906144a8565b600080546001600160a01b031633146112385760405162461bcd60e51b815260206004820152600e60248201526d2cb7baa0b932a737ba27bbb732b960911b604482015260640161074a565b600d5462010000900460ff16156112615760405162461bcd60e51b815260040161074a906145c7565b600161127060608401846145eb565b905011801561128d5750600161128960408401846145eb565b9050115b801561129d575060018260a00135115b6112e95760405162461bcd60e51b815260206004820152601f60248201527f4d696e4e756d4f6643616e64696461746573416e64566f746572734172653200604482015260640161074a565b6112f38280614634565b6112ff916001916138af565b5061130d6020830183614634565b611319916002916138af565b5060005b61132a60608401846145eb565b905081101561140d576019604051806060016040528083815260200185806060019061135691906145eb565b858181106113665761136661467a565b90506020028101906113789190614634565b8080601f01602080910402602001604051908101604052809392919081815260200183838082843760009201829052509385525050506020918201819052835460018181018655948252908290208351600390920201908155828201518051939491936113ed93928501929190910190613923565b506040820151816002015550508080611405906146a6565b91505061131d565b5060005b61141e60408401846145eb565b90508110156114d957600361143660408501856145eb565b838181106114465761144661467a565b90506020028101906114589190614634565b825460018101845560009384526020909320611476930191906138af565b50601561148660808501856146c1565b838181106114965761149661467a565b8354600181018555600094855260209094206040909102929092019260020290910190506114c4828261471c565b505080806114d1906146a6565b915050611411565b5060a0820135600a5542600555604051632f742f5960e21b815273__Utils_________________________________9063bdd0bd64906115289060c08601359061014087013590600401613fd5565b602060405180830381865af4158015611545573d6000803e3d6000fd5b505050506040513d601f19601f82011682018060405250810190611569919061472a565b6005546115769190614743565b600655604051632f742f5960e21b815273__Utils_________________________________9063bdd0bd64906115bb9060e08601359061016087013590600401613fd5565b602060405180830381865af41580156115d8573d6000803e3d6000fd5b505050506040513d601f19601f820116820180604052508101906115fc919061472a565b6006546116099190614743565b600755604051632f742f5960e21b815273__Utils_________________________________9063bdd0bd649061164f906101008601359061018087013590600401613fd5565b602060405180830381865af415801561166c573d6000803e3d6000fd5b505050506040513d601f19601f82011682018060405250810190611690919061472a565b60075461169d9190614743565b600855604051632f742f5960e21b815273__Utils_________________________________9063bdd0bd64906116e390610120860135906101a087013590600401613fd5565b602060405180830381865af4158015611700573d6000803e3d6000fd5b505050506040513d601f19601f82011682018060405250810190611724919061472a565b6008546117319190614743565b6009555050600d805462ff0000191662010000179055600190565b6000806000805b600a54811015611af95787878281811061176f5761176f61467a565b60e0029190910135905088888381811061178b5761178b61467a565b905060e00201600001602001358989848181106117aa576117aa61467a565b905060e00201604001358a8a858181106117c6576117c661467a565b905060e00201606001356040516020016117e394939291906144f9565b6040516020818303038152906040528051906020012060001c92508787828181106118105761181061467a565b905060e002016080013583146118385760405162461bcd60e51b815260040161074a90614514565b73__ECDSA_________________________________63f43c6a6d6040518060a001604052808b8b8681811061186f5761186f61467a565b905060e0020160a0016000013581526020018b8b868181106118935761189361467a565b905060e0020160a00160200135815260200186815260200160158c8c878181106118bf576118bf61467a565b905060e0020160400135815481106118d9576118d961467a565b906000526020600020906002020160000154815260200160158c8c878181106119045761190461467a565b905060e00201604001358154811061191e5761191e61467a565b9060005260206000209060020201600101548152506040518263ffffffff1660e01b815260040161194f919061475b565b602060405180830381865af415801561196c573d6000803e3d6000fd5b505050506040513d601f19601f820116820180604052508101906119909190614486565b91506001821515146119b45760405162461bcd60e51b815260040161074a9061453c565b60038888838181106119c8576119c861467a565b905060e00201604001358989848181106119e4576119e461467a565b905060e00201606001356040516020016119ff929190613fd5565b60408051601f1981840301815290829052611a19916144dd565b602060405180830381855afa158015611a36573d6000803e3d6000fd5b5050604080515160601b6001600160601b031981166000908152601c602052919091205490955060ff16159050611a7f5760405162461bcd60e51b815260040161074a90614795565b6001600160601b031984166000908152601c60205260409020805460ff19166001179055878782818110611ab557611ab561467a565b6001600160601b031987166000908152601a6020526040902060e090910292909201919050611ae482826147bd565b50819050611af1816146a6565b915050611753565b5060005b600354811015611f1d57858582818110611b1957611b1961467a565b6101200291909101359050868683818110611b3657611b3661467a565b9050610120020160000160000160200135878784818110611b5957611b5961467a565b9050610120020160000160400160000135888885818110611b7c57611b7c61467a565b9050610120020160000160400160200135898986818110611b9f57611b9f61467a565b90506101200201608001358a8a87818110611bbc57611bbc61467a565b9050610120020160a00135604051602001611bff96959493929190958652602086019490945260408501929092526060840152608083015260a082015260c00190565b6040516020818303038152906040528051906020012060001c9250858582818110611c2c57611c2c61467a565b9050610120020160c001358314611c555760405162461bcd60e51b815260040161074a90614514565b73__ECDSA_________________________________63f43c6a6d6040518060a00160405280898986818110611c8c57611c8c61467a565b9050610120020160e001600001358152602001898986818110611cb157611cb161467a565b9050610120020160e00160200135815260200186815260200160158a8a87818110611cde57611cde61467a565b905061012002016080013581548110611cf957611cf961467a565b906000526020600020906002020160000154815260200160158a8a87818110611d2457611d2461467a565b905061012002016080013581548110611d3f57611d3f61467a565b9060005260206000209060020201600101548152506040518263ffffffff1660e01b8152600401611d70919061475b565b602060405180830381865af4158015611d8d573d6000803e3d6000fd5b505050506040513d601f19601f82011682018060405250810190611db19190614486565b9150600182151514611dd55760405162461bcd60e51b815260040161074a9061453c565b6003868683818110611de957611de961467a565b9050610120020160800135878784818110611e0657611e0661467a565b9050610120020160a00135604051602001611e22929190613fd5565b60408051601f1981840301815290829052611e3c916144dd565b602060405180830381855afa158015611e59573d6000803e3d6000fd5b5050604080515160601b6001600160601b031981166000908152601d602052919091205490955060ff16159050611ea25760405162461bcd60e51b815260040161074a90614795565b6001600160601b031984166000908152601d60205260409020805460ff19166001179055858582818110611ed857611ed861467a565b6001600160601b031987166000908152601b6020526040902061012090910292909201919050611f0882826147f5565b50819050611f15816146a6565b915050611afd565b50600b8054906000611f2e836146a6565b91905055507f6a2c41ee80fc36b9b44f5e1f5d932b5988f82c4a2dfaa8f1271f8dc8dfa38657600b54604051611f6691815260200190565b60405180910390a150505050505050565b60606020805480602002602001604051908101604052809291908181526020016000905b828210156120c157838290600052602060002090600c02016040518061010001604052908160008201548152602001600182015481526020016002820154815260200160038201548152602001600482015481526020016005820180548060200260200160405190810160405280929190818152602001828054801561204057602002820191906000526020600020905b81548152602001906001019080831161202c575b5050509183525050604080518082018252600684015481526007840154602082810191909152808401919091528151608081018352600885015481840190815260098601546060830152815282518084018452600a8601548152600b9095015485830152808201949094529101919091529082526001929092019101611f9b565b50505050905090565b600d546301000000900460ff16156120f45760405162461bcd60e51b815260040161074a906145c7565b6120fc613996565b6000805b6003548110156122795760008181526018602052604090205460ff1661226757601a6000600383600060405160200161213a929190613fd5565b60408051601f1981840301815290829052612154916144dd565b602060405180830381855afa158015612171573d6000803e3d6000fd5b5050506040515160601b6001600160601b0319166001600160601b0319168152602001908152602001600020600001604051806040016040529081600082015481526020016001820154815250509250816121dc578251600e556020830151600f556001915061221d565b600e54600f5484516020860151612216939291906003600160601b0363ffffffff60c01b0319600160601b63ffffffff60c01b03196131d1565b600f55600e555b6016601582815481106122325761223261467a565b600091825260208083208454600181810187559585529190932060029283029093018054919092029092019182558201549101555b80612271816146a6565b915050612100565b5060405163d0a0c44960e01b815273__LRS___________________________________9063d0a0c449906122b29060169060040161483d565b606060405180830381865af41580156122cf573d6000803e3d6000fd5b505050506040513d601f19601f820116820180604052508101906122f3919061488c565b805160125560200151601355601155600d805463ff00000019166301000000908117918290556040517f3beef9ca3b4fa9633f2dec09eaed983b5f5d19f7328612ac40780b5375fd2cc69261235192900460ff161515815260200190565b60405180910390a15050565b60405163426033d960e01b815260009073__Elgamal_______________________________9063426033d99061239990869086906004016148ea565b602060405180830381865af41580156123b6573d6000803e3d6000fd5b505050506040513d601f19601f820116820180604052508101906123da919061472a565b9392505050565b60008060006123ee6139b0565b6123f6613996565b7f6b17d1f2e12c4247f8bce6e563a440f277037d812deb33a0f4a13945d898c29681527f4fe342e2fe1a7f9b8ee7eb4a7c0f9e162bce33576b315ececbb6406837bf51f5602082015260005b8681101561289f57601b600060038a8a858181106124625761246261467a565b905060c00201604001358b8b8681811061247e5761247e61467a565b905060c0020160600135604051602001612499929190613fd5565b60408051601f19818403018152908290526124b3916144dd565b602060405180830381855afa1580156124d0573d6000803e3d6000fd5b505060408051516001600160601b0319606091821b1684526020808501959095529281016000208151608081018352815481840190815260018084015496830196909652815282518084019093526002820154835260039091015482860152938401525090935073__CPProof_______________________________9063fc888f3d9084906015908c8c8781811061256a5761256a61467a565b905060c002016060013561257e9190614915565b8154811061258e5761258e61467a565b906000526020600020906002020186600001518c8c878181106125b3576125b361467a565b905060c002016000018d8d888181106125ce576125ce61467a565b905060c002016080016040518663ffffffff1660e01b81526004016125f795949392919061492c565b602060405180830381865af4158015612614573d6000803e3d6000fd5b505050506040513d601f19601f820116820180604052508101906126389190614486565b945060018515151461267b5760405162461bcd60e51b815260206004820152600c60248201526b2bb937b733a1a8383937b7b360a11b604482015260640161074a565b73__Elgamal_______________________________636c3c67a184602001518a8a858181106126ac576126ac61467a565b905060c002016000016040518363ffffffff1660e01b81526004016126d2929190614970565b602060405180830381865af41580156126ef573d6000803e3d6000fd5b505050506040513d601f19601f82011682018060405250810190612713919061472a565b935073__Shares________________________________63330f6d15858a8a858181106127425761274261467a565b905060c0020161276c8c8c8781811061275d5761275d61467a565b905060c00201604001356128fe565b6040518463ffffffff1660e01b815260040161278a9392919061498b565b602060405180830381865af41580156127a7573d6000803e3d6000fd5b505050506040513d601f19601f820116820180604052508101906127cb9190614486565b95508561288d57601860008989848181106127e8576127e861467a565b60c002919091016040908101358352602083019390935250016000205460ff1661288d576001601860008a8a858181106128245761282461467a565b905060c0020160400135815260200190815260200160002060006101000a81548160ff02191690831515021790555060178888838181106128675761286761467a565b835460018101855560009485526020909420604060c09092029390930101359190920155505b80612897816146a6565b915050612442565b507f1d20caca1836fd1fa934fcdfb319ec51dbbf70ed2a449bdc4e38fb3becb8a10a6017604051611f669190614a7b565b601681815481106128e057600080fd5b60009182526020909120600290910201805460019091015490915082565b60606000600a546001600160401b0381111561291c5761291c6142f9565b60405190808252806020026020018201604052801561295557816020015b6129426139d5565b81526020019060019003908161293a5790505b50905060005b600a54811015612a6c57601a60006003868460405160200161297e929190613fd5565b60408051601f1981840301815290829052612998916144dd565b602060405180830381855afa1580156129b5573d6000803e3d6000fd5b505060408051516001600160601b0319606091821b168452602080850195909552928101600020815160e081018352815460a08201908152600183015460c0830152815260028201548187015260038201548184015260048201549481019490945281518083019092526005810154825260060154938101939093525060808101919091528251839083908110612a4e57612a4e61467a565b60200260200101819052508080612a64906146a6565b91505061295b565b5092915050565b601754600354606091600091612a899190614915565b6001600160401b03811115612aa057612aa06142f9565b604051908082528060200260200182016040528015612ad957816020015b612ac6613a0a565b815260200190600190039081612abe5790505b5090506000805b600354811015612c445760008181526018602052604090205460ff16612c3257601b6000600383612b12896001614743565b604051602001612b23929190613fd5565b60408051601f1981840301815290829052612b3d916144dd565b602060405180830381855afa158015612b5a573d6000803e3d6000fd5b505060408051516001600160601b0319606091821b168452602080850195909552928101600020815161012081018352815460e08201908152600183015461010083015260a08201908152835180850185526002840154815260038401548189015260c0830152815260048201548187015260058201548184015260068201549481019490945281518083019092526007810154825260080154938101939093525060808101919091528351849084908110612c1857612c1861467a565b60200260200101819052508180612c2e906146a6565b9250505b80612c3c816146a6565b915050612ae0565b50909392505050565b600d5460ff1615612c8a5760405162461bcd60e51b815260206004820152600760248201526615185b1b1a595960ca1b604482015260640161074a565b612c938161115b565b1515600114612cd25760405162461bcd60e51b815260206004820152600b60248201526a57726f6e675072764b657960a81b604482015260640161074a565b6000805b602054811015612df15773__Elgamal_______________________________63426033d960208381548110612d0d57612d0d61467a565b90600052602060002090600c0201600801856040518363ffffffff1660e01b8152600401612d3c929190614a8e565b602060405180830381865af4158015612d59573d6000803e3d6000fd5b505050506040513d601f19601f82011682018060405250810190612d7d919061472a565b91508160208281548110612d9357612d9361467a565b90600052602060002090600c02016002018190555060198281548110612dbb57612dbb61467a565b600091825260208220600260039092020101805491612dd9836146a6565b91905055508080612de9906146a6565b915050612cd6565b50600d805460ff191660011790556040517f3dc1fe22a60d9a898cc1d0a0e0f063f5e855e5a2938f3059cb822bf4e2b0e6859061235190601990602090614b7f565b60408082013560009081526018602052205460ff1615612e895760405162461bcd60e51b81526020600482015260116024820152702234b9b8bab0b634b334b2b22b37ba32b960791b604482015260640161074a565b600081602001358260400135604051602001612ea6929190613fd5565b60408051601f198184030181529190528051602090910120905081358114612f055760405162461bcd60e51b815260206004820152601260248201527113595cdcd859d955d85cd35bd91a599a595960721b604482015260640161074a565b6040808301356000908152601f602052205460ff1615612f5e5760405162461bcd60e51b815260206004820152601460248201527314dd5894d958dc995d15d85cd55c1b1bd859195960621b604482015260640161074a565b600073__ECDSA_________________________________63f43c6a6d6040518060a0016040528086606001600001358152602001866060016020013581526020018581526020016015876040013581548110612fbc57612fbc61467a565b90600052602060002090600202016000015481526020016015876040013581548110612fea57612fea61467a565b9060005260206000209060020201600101548152506040518263ffffffff1660e01b815260040161301b919061475b565b602060405180830381865af4158015613038573d6000803e3d6000fd5b505050506040513d601f19601f8201168201806040525081019061305c9190614486565b90506001811515146130805760405162461bcd60e51b815260040161074a9061453c565b601e805460018101825560009190915283906005027f50bb669a95c7b50b7e8a6f09454034b2b14cf2b85c730dca9a539ca82cb6e350016130c18282614c9f565b50506040808401356000908152601f602052908120805460ff19166001179055600c8054916130ef836146a6565b91905055507ffda7fe2aa1855f36efd0640a3ec3265e181c44b600c34ad29c800d765f93571d600c5460405161312791815260200190565b60405180910390a1505050565b6060601e805480602002602001604051908101604052809291908181526020016000905b828210156120c1576000848152602090819020604080516080810182526005860290920180548352600180820154848601526002820154848401528251808401909352600382015483526004909101548285015260608301919091529083529092019101613158565b601581815481106128e057600080fd5b6000806000806000888b141561321f5785806131ef576131ef614cc7565b888b08613205576000809450945050505061324c565b6132138b8b60018a8a613257565b91945092509050613238565b6132308b8b60018c8c60018c6133f6565b919450925090505b61324483838389613729565b945094505050505b965096945050505050565b600080808561326d5750869150859050846133eb565b6000848061327d5761327d614cc7565b898a0990506000858061329257613292614cc7565b898a099050600086806132a7576132a7614cc7565b898a099050600087806132bc576132bc614cc7565b88806132ca576132ca614cc7565b848e096004099050600088806132e2576132e2614cc7565b89806132f0576132f0614cc7565b8a806132fe576132fe614cc7565b8586098c098a8061331157613311614cc7565b87600309089050888061332657613326614cc7565b898061333457613334614cc7565b838408613341908b614915565b8a8061334f5761334f614cc7565b838409089450888061336357613363614cc7565b898061337157613371614cc7565b8a8061337f5761337f614cc7565b86870960080961338f908b614915565b8a8061339d5761339d614cc7565b8b806133ab576133ab614cc7565b6133b5898e614915565b8608840908935088806133ca576133ca614cc7565b89806133d8576133d8614cc7565b8c8e096002099497509295509293505050505b955095509592505050565b6000808089158015613406575088155b1561341857508591508490508361371c565b86158015613424575085155b1561343657508891508790508661371c565b61343e613a1d565b848061344c5761344c614cc7565b898a098152848061345f5761345f614cc7565b81518a096020820152848061347657613476614cc7565b8687096040820152848061348c5761348c614cc7565b60408201518709606082015260408051608081019091528086806134b2576134b2614cc7565b60408401518e09815260200186806134cc576134cc614cc7565b60608401518d09815260200186806134e6576134e6614cc7565b83518b09815260200186806134fd576134fd614cc7565b60208401518a0990526040810151815191925014158061352557506060810151602082015114155b6135715760405162461bcd60e51b815260206004820152601e60248201527f557365206a6163446f75626c652066756e6374696f6e20696e73746561640000604482015260640161074a565b613579613a1d565b858061358757613587614cc7565b82516135939088614915565b604084015108815285806135a9576135a9614cc7565b60208301516135b89088614915565b606084015108602082015285806135d1576135d1614cc7565b81518009604082015285806135e8576135e8614cc7565b815160408301510960608201526000868061360557613605614cc7565b60608301516136149089614915565b888061362257613622614cc7565b60208501518009089050868061363a5761363a614cc7565b878061364857613648614cc7565b888061365657613656614cc7565b604085015186510960020961366b9089614915565b820890506000878061367f5761367f614cc7565b888061368d5761368d614cc7565b613697848b614915565b8a806136a5576136a5614cc7565b604087015188510908602085015109905087806136c4576136c4614cc7565b88806136d2576136d2614cc7565b60608501516020870151096136e7908a614915565b82089050600088806136fb576136fb614cc7565b898061370957613709614cc7565b8b8f098551099297509095509093505050505b9750975097945050505050565b60008060006137388585613798565b90506000848061374a5761374a614cc7565b82830990506000858061375f5761375f614cc7565b828a0990506000868061377457613774614cc7565b878061378257613782614cc7565b8486098a09919a91995090975050505050505050565b600082158015906137a95750818314155b80156137b457508115155b6137f15760405162461bcd60e51b815260206004820152600e60248201526d24b73b30b634b210373ab6b132b960911b604482015260640161074a565b6000600183825b8615613859576138088783614cdd565b905082868061381957613819614cc7565b878061382757613827614cc7565b8584096138349089614915565b86089094509250866138468183614cff565b6138509084614915565b975091506137f8565b509195945050505050565b82805482825590600052602060002090810192821561389f579160200282015b8281111561389f578251825591602001919060010190613884565b506138ab929150613a3b565b5090565b8280546138bb906144a8565b90600052602060002090601f0160209004810192826138dd576000855561389f565b82601f106138f65782800160ff1982351617855561389f565b8280016001018555821561389f579182015b8281111561389f578235825591602001919060010190613908565b82805461392f906144a8565b90600052602060002090601f016020900481019282613951576000855561389f565b82601f1061396a57805160ff191683800117855561389f565b8280016001018555821561389f579182018281111561389f578251825591602001919060010190613884565b604051806040016040528060008152602001600081525090565b60405180604001604052806139c3613996565b81526020016139d0613996565b905290565b6040518060a001604052806139e8613996565b81526020016000815260200160008152602001600081526020016139d0613996565b6040518060a001604052806139e86139b0565b60405180608001604052806004906020820280368337509192915050565b5b808211156138ab5760008155600101613a3c565b60008083601f840112613a6257600080fd5b5081356001600160401b03811115613a7957600080fd5b6020830191508360208260051b8501011115613a9457600080fd5b9250929050565b600060408284031215613aad57600080fd5b50919050565b600080600080600060a08688031215613acb57600080fd5b853594506020860135935060408601356001600160401b03811115613aef57600080fd5b613afb88828901613a50565b9094509250613b0f90508760608801613a9b565b90509295509295909350565b600060208284031215613b2d57600080fd5b5035919050565b60005b83811015613b4f578181015183820152602001613b37565b83811115613b5e576000848401525b50505050565b60008151808452613b7c816020860160208601613b34565b601f01601f19169290920160200192915050565b838152606060208201526000613ba96060830185613b64565b9050826040830152949350505050565b600060808284031215613aad57600080fd5b6000806000806000806101208789031215613be557600080fd5b613bef8888613bb9565b95506080870135945060a0870135935060c08701356001600160401b03811115613c1857600080fd5b613c2489828a01613a50565b9094509250613c3890508860e08901613a9b565b90509295509295509295565b6020815260006123da6020830184613b64565b600081518084526020808501945080840160005b83811015613c8757815187529582019590820190600101613c6b565b509495945050505050565b600082825180855260208086019550808260051b84010181860160005b84811015613cdd57601f19868403018952613ccb838351613b64565b98840198925090830190600101613caf565b5090979650505050505050565b600081518084526020808501808196508360051b8101915082860160005b85811015613d535782840389528151606081518652868201518188880152613d3282880182613b64565b60409384015197909301969096525098850198935090840190600101613d08565b5091979650505050505050565b80518252602090810151910152565b613d7a828251613d60565b6020810151613d8c6040840182613d60565b505050565b600081518084526020808501808196508360051b8101915082860160005b85811015613d53578284038952815161018081518652868201518787015260408083015181880152506060808301518188015250608080830151818801525060a0808301518282890152613e0583890182613c57565b9250505060c080830151613e1b82890182613d60565b505060e08201519150613e32610100870183613d6f565b9986019994505090840190600101613daf565b6020815281516020820152602082015160408201526040820151606082015260608201516080820152608082015160a082015260a082015160c082015260c082015160e0820152600060e08301516101008181850152808501519150506101208181850152808501519150506102806101408181860152613eca6102a0860184613c57565b9250808601519050601f19610160818786030181880152613eeb8584613b64565b945080880151925050610180818786030181880152613f0a8584613b64565b9450808801519250506101a0818786030181880152613f298584613c92565b9450808801519250506101c0818786030181880152613f488584613cea565b9450808801519250506101e0613f618188018415159052565b8701519150610200613f768782018415159052565b8701519150610220613f8b8782018415159052565b8701519150610240613fa08782018415159052565b8701519150610260613fbc878201846001600160a01b03169052565b8701518685039091018387015290506106378382613d91565b918252602082015260400190565b600060208284031215613ff557600080fd5b81356001600160401b0381111561400b57600080fd5b82016101c081850312156123da57600080fd5b6000806000806040858703121561403457600080fd5b84356001600160401b038082111561404b57600080fd5b818701915087601f83011261405f57600080fd5b81358181111561406e57600080fd5b88602060e08302850101111561408357600080fd5b60209283019650945090860135908082111561409e57600080fd5b818701915087601f8301126140b257600080fd5b8135818111156140c157600080fd5b886020610120830285010111156140d757600080fd5b95989497505060200194505050565b6020815260006123da6020830184613d91565b60008060a0838503121561410c57600080fd5b6141168484613bb9565b946080939093013593505050565b6000806020838503121561413757600080fd5b82356001600160401b038082111561414e57600080fd5b818501915085601f83011261416257600080fd5b81358181111561417157600080fd5b86602060c08302850101111561418657600080fd5b60209290920196919550909350505050565b602080825282518282018190526000919060409081850190868401855b82811015613d535781516141ca858251613d60565b80870151858701528581015160608087019190915281015160808087019190915201516141fa60a0860182613d60565b5060e09390930192908501906001016141b5565b602080825282518282018190526000919060409081850190868401855b82811015613d53578151614240858251613d6f565b808701516080868101919091528682015160a0870152606082015160c0870152015161426f60e0860182613d60565b5061012093909301929085019060010161422b565b600060a08284031215613aad57600080fd5b602080825282518282018190526000919060409081850190868401855b82811015613d535781518051855286810151878601528581015186860152606090810151906142e481870183613d60565b505060a09390930192908501906001016142b3565b634e487b7160e01b600052604160045260246000fd5b604080519081016001600160401b038111828210171561433f57634e487b7160e01b600052604160045260246000fd5b60405290565b60006040828403121561435757600080fd5b61435f61430f565b9050813581526020820135602082015292915050565b60006040828403121561438757600080fd5b6123da8383614345565b600081518084526020808501945080840160005b83811015613c87576143b8878351613d60565b60409690960195908201906001016143a5565b600060208083526101408301845182850152818501516040850152604085015160608501526060850151610120806080870152828251808552610160880191508584019450600093505b808410156144355784518252938501936001939093019290850190614415565b506080880151945061444a60a0880186613d60565b60a0880151945061445e60e0880186613d60565b60c0880151878203601f190183890152945061447a8186614391565b98975050505050505050565b60006020828403121561449857600080fd5b815180151581146123da57600080fd5b600181811c908216806144bc57607f821691505b60208210811415613aad57634e487b7160e01b600052602260045260246000fd5b600082516144ef818460208701613b34565b9190910192915050565b93845260208401929092526040830152606082015260800190565b6020808252600e908201526d135cd9d5d85cd35bd91a599a595960921b604082015260600190565b6020808252600e908201526d57726f6e675369676e617475726560901b604082015260600190565b60006080828403121561457657600080fd5b61457e61430f565b6145888484614345565b81526145978460408501614345565b60208201529392505050565b8054825260010154602090910152565b828152606081016123da60208301846145a3565b6020808252600a9082015269105b1c9958591e54d95d60b21b604082015260600190565b6000808335601e1984360301811261460257600080fd5b8301803591506001600160401b0382111561461c57600080fd5b6020019150600581901b3603821315613a9457600080fd5b6000808335601e1984360301811261464b57600080fd5b8301803591506001600160401b0382111561466557600080fd5b602001915036819003821315613a9457600080fd5b634e487b7160e01b600052603260045260246000fd5b634e487b7160e01b600052601160045260246000fd5b60006000198214156146ba576146ba614690565b5060010190565b6000808335601e198436030181126146d857600080fd5b8301803591506001600160401b038211156146f257600080fd5b6020019150600681901b3603821315613a9457600080fd5b81358155602082013560018201555050565b614726828261470a565b5050565b60006020828403121561473c57600080fd5b5051919050565b6000821982111561475657614756614690565b500190565b600060a082019050825182526020830151602083015260408301516040830152606083015160608301526080830151608083015292915050565b6020808252600e908201526d14da185c995cd55c1b1bd859195960921b604082015260600190565b6147c7828261470a565b60408201356002820155606082013560038201556080820135600482015561472660a083016005830161470a565b6147ff828261470a565b61480f604083016002830161470a565b6080820135600482015560a0820135600582015560c0820135600682015561472660e083016007830161470a565b60208082528254828201819052600084815291822060409182850191845b828110156148805761486d84836145a3565b928401926002919091019060010161485b565b50919695505050505050565b60008082840360608112156148a057600080fd5b835192506040601f19820112156148b657600080fd5b506148bf61430f565b6020840151815260408401516020820152809150509250929050565b80358252602090810135910152565b60a081016148f882856148db565b61490860408301604086016148db565b8260808301529392505050565b60008282101561492757614927614690565b500390565b610140810161493b8288613d60565b61494860408301876145a3565b6149556080830186613d60565b61496260c08301856148db565b6106376101008301846148db565b6080810161497e8285613d60565b6123da60408301846148db565b600061010080830186845260206149a4818601886148db565b6040606081890135818801526080818a01358189015260a06149ca818a01838d016148db565b60e089810197909752895195869052610120890196858b019660005b81811015614a335788516149fb8b8251613d60565b808901518b89015287810151878c015286810151868c0152850151614a22858c0182613d60565b5098820198978701976001016149e6565b50979d9c50505050505050505050505050565b6000815480845260208085019450836000528060002060005b83811015613c8757815487529582019560019182019101614a5f565b6020815260006123da6020830184614a46565b60a08101614a9c82856145a3565b61490860408301600286016145a3565b614ab682826145a3565b61472660408301600283016145a3565b600081548084526020808501808196506005915083821b8101866000528360002060005b86811015614b71578383038a52610180825484526001830154878501526002830154604085015260038301546060850152600483015460808501528060a0850152614b39818501878501614a46565b9050614b4b60c08501600685016145a3565b614b5c610100850160088501614aac565b998601999250600c9190910190600101614aea565b509098975050505050505050565b60006040808301818452808654808352606092508286019150828160051b87010160008981526020808220825b85811015614c7e578a8503605f190187528154855282850188905260018083018054869080841c81851680614be257607f821691505b888210811415614c0057634e487b7160e01b8a52602260045260248afd5b8a8e01828152602001818015614c1d5760018114614c2e57614c58565b60ff19851682528a82019550614c58565b6000878152602090208c5b85811015614c5257815484820152908901908c01614c39565b83019650505b505050506002860154988d01989098529885019896505060039092019150600101614bac565b50508883039089015250614c928189614ac6565b9998505050505050505050565b813581556020820135600182015560408201356002820155614726606083016003830161470a565b634e487b7160e01b600052601260045260246000fd5b600082614cfa57634e487b7160e01b600052601260045260246000fd5b500490565b6000816000190483118215151615614d1957614d19614690565b50029056fea2646970667358221220edfc5cc989503bc1f93c8c312191f5bc3f13521cf95b88818d5a672c5e5d860c64736f6c634300080a0033",
  "immutableReferences": {},
  "source": "// SPDX-License-Identifier: MIT\r\npragma solidity >=0.4.22 <0.9.0;\r\n\r\nimport \"./Secp256r1.sol\";\r\nimport \"./ECDSA.sol\";\r\nimport \"./Elgamal.sol\";\r\nimport \"./CPProof.sol\";\r\nimport \"./LRS.sol\";\r\nimport \"./Shares.sol\";\r\nimport \"./Utils.sol\";\r\n\r\ncontract Election {\r\n\r\n    address public owner;\r\n    \r\n    string public title;\r\n    string public description;\r\n    string[] public public_keys;\r\n\r\n    uint public id;\r\n    uint public post_time;\r\n    uint public share_end_time;\r\n    uint public ver_end_time;\r\n    uint public vote_end_time;\r\n    uint public secret_upload_end_time;\r\n    uint public min_shares;\r\n    uint public totatSharesSentCount;\r\n    uint public totalSubSecretSentCount;\r\n\r\n    bool public isVoteTallied;\r\n    bool public isBasicInfoSet;\r\n    bool public isSetUp;\r\n    bool public isVotePubKeySet;\r\n    bool public isECPubKeysAftVerSet;\r\n\r\n\r\n    Secp256r1.ECPoint public votePubKey;\r\n    \r\n    // store Disqualified public key indece\r\n    mapping(bytes20 => bool) isDisqualifiedPubKeyIndece;\r\n\r\n    // linkable ring signature varaibles \r\n    uint256 public L;\r\n    Secp256r1.ECPoint public H;\r\n    mapping(bytes20 => bool) K_list;\r\n    Secp256r1.ECPoint[] public EC_public_keys;\r\n    Secp256r1.ECPoint[] public ECPubKeysAftVer;\r\n    \r\n    // illegitimate voter : did not upload shares / upload wrong shares\r\n    uint[] public illegitimate_voter_indeces;\r\n    mapping(uint => bool) illegitimate_voters;\r\n\r\n    // Model a candidate\r\n    struct Candidate{\r\n        uint id;\r\n        string name;\r\n        uint voteCount;\r\n    }\r\n\r\n    // Store candidates\r\n    Candidate[] public candidates; \r\n\r\n\r\n    mapping(bytes20 => Shares.F) F_2d;\r\n    mapping(bytes20 => Shares.f) f_2d;\r\n    mapping(bytes20 => bool) isF_2d;\r\n    mapping(bytes20 => bool) isf_2d;\r\n\r\n\r\n    Utils.SubSecretWithSig[] subSecrets;\r\n    mapping(uint => bool) isSubSecrets; \r\n\r\n\r\n    // Model a ballot\r\n    struct Ballot{\r\n        uint id;\r\n        uint voteTime;\r\n        int candidate_id;\r\n        uint256 encVoteHash;\r\n        uint256 U0;\r\n        uint256[] V;\r\n        Secp256r1.ECPoint K;\r\n        Elgamal.Elgamal_ciphertext encVote;\r\n    }\r\n\r\n    // Store ballots\r\n    Ballot[] ballots;\r\n\r\n    // Model a election Data\r\n    struct ElectionData{\r\n        uint id;\r\n        uint post_time;\r\n        uint share_end_time;\r\n        uint ver_end_time;\r\n        uint vote_end_time;\r\n        uint secret_upload_end_time;\r\n        uint min_shares;\r\n        uint totatSharesSentCount;\r\n        uint totalSubSecretSentCount;\r\n        uint[] illegitimate_voter_indeces;\r\n        string title;\r\n        string description;\r\n        string[] public_keys;\r\n        Candidate[] candidates;\r\n        bool isVoteTallied;\r\n        bool isVotePubKeySet;\r\n        bool isECPubKeysAftVerSet;\r\n        bool isSetUp;\r\n        address owner;\r\n        Ballot[] ballots;\r\n    }\r\n\r\n    struct ElectionSetUpData{\r\n        string  title;\r\n        string  des; \r\n        string[]  pubKeys;\r\n        string[]  candidates;\r\n        Secp256r1.ECPoint[]  EC_public_keys;\r\n        uint minShares;\r\n        uint sharesTime;\r\n        uint verTime; \r\n        uint voteTime; \r\n        uint secUploadTime;\r\n        uint sharesTimeUnit; \r\n        uint verTimeUnit; \r\n        uint voteTimeUnit;\r\n        uint secUploadTimeUnit;\r\n    }\r\n\r\n    // new Vote Event\r\n    event newVoteEvent(uint totalVoteCount);\r\n    // add Keygen value Event\r\n    event addKeygenValueEvent(uint totatSharesSentCount);\r\n    // add SubSecret Event\r\n    event addSubSecretEvent(uint totalSubSecretSentCount);\r\n    // tally vote Event\r\n    event tallyVoteEvent(Candidate[] candidates, Ballot[] ballots);\r\n    // verify shares event \r\n    event verifySharesEvent(uint[] illegitimate_voter_indeces);\r\n    // set vote pubKey event \r\n    event setVotePubKeyEvent(bool isVotePubKeySet);\r\n\r\n    constructor (uint _id, address _owner){\r\n        id = _id;\r\n        owner = _owner;\r\n    }\r\n\r\n\r\n    function setElectionInfo(\r\n        ElectionSetUpData calldata _data\r\n    ) external returns(bool){\r\n        require(msg.sender==owner,\"YouAreNotOwner\");\r\n        require(isSetUp==false,\"AlreadySet\");\r\n        // require minimum number of candidates , voters and min_shares are 2\r\n        require(_data.candidates.length > 1 && \r\n                _data.pubKeys.length > 1 &&\r\n                _data.minShares > 1\r\n        ,\"MinNumOfCandidatesAndVotersAre2\");\r\n        title = _data.title;\r\n        description = _data.des;\r\n        for(uint i=0;i<_data.candidates.length;i++){\r\n            candidates.push(Candidate(i,_data.candidates[i],0));\r\n        }\r\n        for(uint i=0;i<_data.pubKeys.length;i++){\r\n            public_keys.push(_data.pubKeys[i]);\r\n            EC_public_keys.push(_data.EC_public_keys[i]);\r\n        }\r\n        min_shares = _data.minShares;\r\n\r\n        post_time = block.timestamp;\r\n        share_end_time = post_time + Utils.calc_time(_data.sharesTime,_data.sharesTimeUnit); \r\n        ver_end_time = share_end_time + Utils.calc_time(_data.verTime,_data.verTimeUnit); \r\n        vote_end_time = ver_end_time + Utils.calc_time(_data.voteTime,_data.voteTimeUnit); \r\n        secret_upload_end_time = vote_end_time + Utils.calc_time(_data.secUploadTime,_data.secUploadTimeUnit); \r\n        \r\n        isSetUp = true;\r\n\r\n        return true;\r\n    }\r\n\r\n\r\n\r\n    // Verifying fi(j)*G == Fi,0 + Fi,1 * j + ... + Fi,2 * j^(t-1)\r\n    function setDisqualifiedPubKeyIndece(Shares.VerSharesPar[] calldata _Par) \r\n    external{\r\n        // verify shares verfication peroid: key_ver_end_time <= now < vote_end_time\r\n        // require(key_gen_end_time<= block.timestamp && block.timestamp < key_ver_end_time,\"WrongVerifyTime\");\r\n\r\n        bool isValidVal;\r\n        bool isValidProof;\r\n        uint256 plaintext;\r\n        Elgamal.Elgamal_ciphertext memory ciphertext;\r\n        Secp256r1.ECPoint memory G;\r\n        G.x = Secp256r1.GX;\r\n        G.y = Secp256r1.GY;\r\n\r\n        for(uint i=0;i<_Par.length;i++){\r\n            ciphertext = f_2d[ripemd160(\r\n                    abi.encodePacked(_Par[i].i,_Par[i].j))\r\n                    ].ciphertext;\r\n\r\n            // proof key = s*k*G without knowing s\r\n            isValidProof = CPProof.CPverify(\r\n                G, // g1\r\n                EC_public_keys[_Par[i].j-1], // h1\r\n                ciphertext.C, // g2\r\n                _Par[i].H2, // h2\r\n                _Par[i].proof\r\n            );\r\n            \r\n            require(isValidProof==true,\"WrongCPproof\");\r\n\r\n            // get plaintext by key\r\n            plaintext = Elgamal.elgamal_decryptByPoint(\r\n                ciphertext.D,\r\n                _Par[i].H2\r\n            );\r\n\r\n            // verfiy shares\r\n            isValidVal = Shares.verifySharesVal(\r\n                plaintext,\r\n                _Par[i],getF(_Par[i].i)\r\n            );\r\n\r\n            if(!isValidVal){\r\n                if(!illegitimate_voters[_Par[i].i]){\r\n                    illegitimate_voters[_Par[i].i] = true;\r\n                    illegitimate_voter_indeces.push(_Par[i].i);\r\n                }\r\n            }\r\n\r\n        }\r\n        \r\n        emit verifySharesEvent(illegitimate_voter_indeces);\r\n    }\r\n\r\n    function setVotePublicKey() external {\r\n        require(isVotePubKeySet==false,\"AlreadySet\");\r\n        Secp256r1.ECPoint memory P;\r\n        bool isFirst;\r\n        for(uint i=0;i<public_keys.length;i++){\r\n            if(!illegitimate_voters[i]){\r\n                // calc vote public key of valid voters\r\n                P = F_2d[ripemd160(abi.encodePacked(i,uint256(0)))].p;\r\n                if(!isFirst){\r\n                    votePubKey = P;\r\n                    isFirst = true;\r\n                }else{\r\n                    (votePubKey.x, votePubKey.y) = EllipticCurve.ecAdd(votePubKey.x, votePubKey.y, P.x, P.y, Secp256r1.AA, Secp256r1.PP);\r\n                }\r\n                // filter invalid voter's pubkeys \r\n                ECPubKeysAftVer.push(EC_public_keys[i]);\r\n            }\r\n        }\r\n        // cal L and H for verify LRS\r\n        (L,H) = LRS.calcLAndH(ECPubKeysAftVer);\r\n        isVotePubKeySet = true;\r\n\r\n        emit setVotePubKeyEvent(isVotePubKeySet);\r\n    }\r\n\r\n    function getBallot() external view returns(Ballot[] memory){\r\n        return ballots;\r\n    }\r\n\r\n    function addSubSecret(Utils.SubSecretWithSig calldata _s) external{\r\n        require(illegitimate_voters[_s.i] == false,\"DisqualifiedVoter\");\r\n        // verify secret upload peroid: vote end time <= now < secret_upload_end_time\r\n        // require(vote_end_time<=block.timestamp &&block.timestamp < secret_upload_end_time,\"invalid subscret upload time\");\r\n        uint256 h = uint256(keccak256(abi.encodePacked(_s.subSecret,_s.i)));\r\n        require(h == _s.h,\"MessageWasModified\");\r\n        require(isSubSecrets[_s.i] == false,\"SubSecretWasUploaded\");\r\n        \r\n        bool isValidSig = ECDSA.ecdsa_verify(ECDSA.ECDSA_parameters(_s.sig.r, _s.sig.s, h, \r\n        EC_public_keys[_s.i].x, EC_public_keys[_s.i].y));\r\n        require(isValidSig == true,\"WrongSignature\");\r\n\r\n        subSecrets.push(_s);\r\n        isSubSecrets[_s.i] = true;\r\n        totalSubSecretSentCount++;\r\n\r\n        emit addSubSecretEvent(totalSubSecretSentCount);\r\n    }\r\n\r\n    function getSubSecrets() external view returns(Utils.SubSecretWithSig[] memory){\r\n        return subSecrets;\r\n    }\r\n\r\n    function getF(uint _publicKeyIndex) public view returns(Shares.F[] memory){\r\n        Shares.F[] memory _F = new Shares.F[](min_shares); \r\n        for(uint j=0;j<min_shares;j++){\r\n            _F[j] = F_2d[ripemd160(abi.encodePacked(_publicKeyIndex,j))];\r\n        }\r\n        return _F;\r\n    }\r\n\r\n    function getf(uint _publicKeyIndex) public view returns(Shares.f[] memory){\r\n        Shares.f[] memory _f = new Shares.f[](public_keys.length-illegitimate_voter_indeces.length);\r\n        uint c; \r\n        for(uint i=0;i<public_keys.length;i++){\r\n            if(!illegitimate_voters[i]){\r\n                _f[c] = f_2d[ripemd160(abi.encodePacked(i,_publicKeyIndex+1))];\r\n                c++;\r\n            }\r\n        }   \r\n        return _f;\r\n    }\r\n\r\n    function addKeyGenVal(Shares.F[] calldata _F, Shares.f[] calldata _f) external{\r\n        // verify key gen peroid: now < key_gen_end_time\r\n        // require(block.timestamp < key_gen_end_time,\"invalid key generation time\");\r\n        bytes20 h;\r\n        uint256 hm; // hashed message\r\n        bool isValidSig;\r\n        for(uint z;z<min_shares;z++){\r\n            hm = uint256(keccak256(abi.encodePacked(\r\n                _F[z].p.x,_F[z].p.y,_F[z].i,_F[z].j\r\n                )));\r\n            require(hm == _F[z].h,\"MsgWasModified\");\r\n            isValidSig = ECDSA.ecdsa_verify(ECDSA.ECDSA_parameters(\r\n                _F[z].sig.r,_F[z].sig.s,hm,\r\n                EC_public_keys[_F[z].i].x,EC_public_keys[_F[z].i].y\r\n                ));\r\n            require(isValidSig == true,\"WrongSignature\");\r\n            h = ripemd160(abi.encodePacked(_F[z].i,_F[z].j));\r\n            require(isF_2d[h] == false,\"SharesUploaded\");\r\n            isF_2d[h] = true;\r\n            F_2d[h] = _F[z];\r\n        }\r\n        for(uint z;z<public_keys.length;z++){\r\n            hm = uint256(keccak256(abi.encodePacked(\r\n                _f[z].ciphertext.C.x,_f[z].ciphertext.C.y,\r\n                _f[z].ciphertext.D.x,_f[z].ciphertext.D.y\r\n                ,_f[z].i,_f[z].j\r\n                )));\r\n            require(hm == _f[z].h,\"MsgWasModified\");\r\n            isValidSig = ECDSA.ecdsa_verify(ECDSA.ECDSA_parameters(\r\n                _f[z].sig.r,_f[z].sig.s,hm,\r\n                EC_public_keys[_f[z].i].x,EC_public_keys[_f[z].i].y\r\n                ));\r\n            require(isValidSig == true,\"WrongSignature\");\r\n            h = ripemd160(abi.encodePacked(_f[z].i,_f[z].j));\r\n            require(isf_2d[h] == false,\"SharesUploaded\");\r\n            isf_2d[h] = true;\r\n            f_2d[h] = _f[z];\r\n        }\r\n        totatSharesSentCount++;\r\n        emit addKeygenValueEvent(totatSharesSentCount);\r\n    }\r\n\r\n    function verifyLRS(uint256 _encVoteHash,uint256 _U0,\r\n     uint256[] calldata _V, Secp256r1.ECPoint calldata _K) public view returns(bool){\r\n        // verify linkable ring signature\r\n        return LRS.verifyLRS(LRS.LRS_parameters(_encVoteHash,_U0,L,_V,H,_K,ECPubKeysAftVer));\r\n    }\r\n\r\n    function addVote(Elgamal.Elgamal_ciphertext calldata _encVote,uint256 _encVoteHash,\r\n    uint256 _U0, uint256[] calldata _V, Secp256r1.ECPoint calldata _K) \r\n    external{\r\n        // verify vote peroid: key_ver_end_time <= now < vote_end_time\r\n        require(ver_end_time<= block.timestamp && block.timestamp < vote_end_time,\"WrongVoteTime\");\r\n        \r\n        require(isVotePubKeySet==true,\"SetVotePubKeyFirst\");\r\n\r\n        // hash of _K\r\n        bytes20 h = ripemd160(abi.encodePacked(_K.x,_K.y));\r\n\r\n        // hash of _K should not exit in K_list\r\n        require(K_list[h] == false,\"YouWasVoted\");\r\n        \r\n        // verify encrypted vote does not modified.\r\n        uint256 evh; // hashed enc vote\r\n        evh = uint256(keccak256(abi.encodePacked(\r\n            _encVote.C.x, _encVote.C.y,  \r\n            _encVote.D.x, _encVote.D.y\r\n            )));\r\n        require(evh == _encVoteHash,\"MsgWasModified\");\r\n\r\n        // verify linkable ring signature\r\n        bool U = verifyLRS(_encVoteHash,_U0,_V,_K);\r\n\r\n        require(U == true,\"WrongSignature\");\r\n\r\n        // add ballot\r\n        ballots.push(Ballot(ballots.length,block.timestamp,-1,_encVoteHash,_U0,_V,_K,_encVote));\r\n\r\n        // add _K into K_list\r\n        K_list[h] = true;\r\n\r\n        emit newVoteEvent(ballots.length);\r\n    }\r\n\r\n    function verfiyVotePrivateKey(uint256 _votePrvKey) public view returns(bool){\r\n        return Utils.verfiyVotePrivateKey(_votePrvKey,votePubKey);\r\n    }\r\n\r\n    function decryptVote(Elgamal.Elgamal_ciphertext calldata _encVote\r\n    , uint256 _votePrvKey) external pure returns(uint256){\r\n        return Elgamal.elgamal_decrypt(_encVote,_votePrvKey);\r\n    }\r\n\r\n    function tallyVote(uint256 _votePrvKey) external{\r\n        // verify tally time : vote_end_time <= now \r\n        // require(vote_end_time<= block.timestamp,\"WrongTallyTime\");\r\n\r\n        // check whether the vote already tallied\r\n        require(isVoteTallied == false,\"Tallied\");\r\n\r\n        // require valid vote private key\r\n        require(verfiyVotePrivateKey(_votePrvKey)==true,\"WrongPrvKey\");\r\n\r\n        uint cID; // candidate ID\r\n\r\n        for(uint i=0; i<ballots.length;i++){\r\n            cID = uint(Elgamal.elgamal_decrypt(ballots[i].encVote,_votePrvKey));\r\n            ballots[i].candidate_id = int(cID);\r\n            candidates[cID].voteCount++;\r\n        }\r\n        \r\n        isVoteTallied = true;\r\n\r\n        emit tallyVoteEvent(candidates,ballots);\r\n    }\r\n\r\n    function getElectionData() external view returns(ElectionData memory){\r\n        return ElectionData(id,post_time,share_end_time,ver_end_time,\r\n        vote_end_time,secret_upload_end_time,min_shares,\r\n        totatSharesSentCount,totalSubSecretSentCount,\r\n        illegitimate_voter_indeces,title,description,\r\n        public_keys,candidates\r\n        ,isVoteTallied,isVotePubKeySet,isECPubKeysAftVerSet,\r\n        isSetUp,owner,ballots);\r\n    } \r\n}",
  "sourcePath": "C:\\Users\\tim\\Desktop\\e-voting\\src\\contracts\\Election.sol",
  "compiler": {
    "name": "solc",
    "version": "0.8.10+commit.fc410830.Emscripten.clang"
  },
  "schemaVersion": "3.4.4",
  "updatedAt": "2022-02-10T15:32:02.253Z",
  "networkType": "ethereum",
  "devdoc": {
    "kind": "dev",
    "methods": {},
    "version": 1
  },
  "userdoc": {
    "kind": "user",
    "methods": {},
    "version": 1
  }
}