{
  "contractName": "Election",
  "abi": [
    {
      "inputs": [
        {
          "internalType": "uint256",
          "name": "_id",
          "type": "uint256"
        },
        {
          "internalType": "address",
          "name": "_owner",
          "type": "address"
        }
      ],
      "stateMutability": "nonpayable",
      "type": "constructor"
    },
    {
      "anonymous": false,
      "inputs": [
        {
          "indexed": false,
          "internalType": "uint256",
          "name": "totatSharesSentCount",
          "type": "uint256"
        }
      ],
      "name": "addKeygenValueEvent",
      "type": "event"
    },
    {
      "anonymous": false,
      "inputs": [
        {
          "indexed": false,
          "internalType": "uint256",
          "name": "totalSubSecretSentCount",
          "type": "uint256"
        }
      ],
      "name": "addSubSecretEvent",
      "type": "event"
    },
    {
      "anonymous": false,
      "inputs": [
        {
          "components": [
            {
              "internalType": "uint256",
              "name": "x",
              "type": "uint256"
            },
            {
              "internalType": "uint256",
              "name": "y",
              "type": "uint256"
            }
          ],
          "indexed": false,
          "internalType": "struct Secp256r1.ECPoint",
          "name": "newECPubKey",
          "type": "tuple"
        }
      ],
      "name": "addVoterEvent",
      "type": "event"
    },
    {
      "anonymous": false,
      "inputs": [
        {
          "indexed": false,
          "internalType": "uint256",
          "name": "totalVoteCount",
          "type": "uint256"
        }
      ],
      "name": "newVoteEvent",
      "type": "event"
    },
    {
      "anonymous": false,
      "inputs": [
        {
          "indexed": false,
          "internalType": "bool",
          "name": "isSetUp",
          "type": "bool"
        }
      ],
      "name": "setElectionInfoEvent",
      "type": "event"
    },
    {
      "anonymous": false,
      "inputs": [
        {
          "indexed": false,
          "internalType": "bool",
          "name": "isVotePubKeySet",
          "type": "bool"
        },
        {
          "indexed": false,
          "internalType": "uint256[]",
          "name": "illegitimate_voter_indeces",
          "type": "uint256[]"
        },
        {
          "indexed": false,
          "internalType": "bool",
          "name": "isFailed",
          "type": "bool"
        }
      ],
      "name": "setVotePubKeyEvent",
      "type": "event"
    },
    {
      "anonymous": false,
      "inputs": [
        {
          "components": [
            {
              "internalType": "uint256",
              "name": "id",
              "type": "uint256"
            },
            {
              "internalType": "uint256",
              "name": "voteCount",
              "type": "uint256"
            },
            {
              "internalType": "bytes32",
              "name": "name",
              "type": "bytes32"
            }
          ],
          "indexed": false,
          "internalType": "struct Utils.Candidate[]",
          "name": "candidates",
          "type": "tuple[]"
        },
        {
          "components": [
            {
              "internalType": "uint256",
              "name": "id",
              "type": "uint256"
            },
            {
              "internalType": "uint256",
              "name": "voteTime",
              "type": "uint256"
            },
            {
              "internalType": "int256",
              "name": "candidate_id",
              "type": "int256"
            },
            {
              "internalType": "uint256",
              "name": "encVoteHash",
              "type": "uint256"
            },
            {
              "internalType": "uint256",
              "name": "U0",
              "type": "uint256"
            },
            {
              "internalType": "uint256[]",
              "name": "V",
              "type": "uint256[]"
            },
            {
              "components": [
                {
                  "internalType": "uint256",
                  "name": "x",
                  "type": "uint256"
                },
                {
                  "internalType": "uint256",
                  "name": "y",
                  "type": "uint256"
                }
              ],
              "internalType": "struct Secp256r1.ECPoint",
              "name": "K",
              "type": "tuple"
            },
            {
              "components": [
                {
                  "components": [
                    {
                      "internalType": "uint256",
                      "name": "x",
                      "type": "uint256"
                    },
                    {
                      "internalType": "uint256",
                      "name": "y",
                      "type": "uint256"
                    }
                  ],
                  "internalType": "struct Secp256r1.ECPoint",
                  "name": "C",
                  "type": "tuple"
                },
                {
                  "components": [
                    {
                      "internalType": "uint256",
                      "name": "x",
                      "type": "uint256"
                    },
                    {
                      "internalType": "uint256",
                      "name": "y",
                      "type": "uint256"
                    }
                  ],
                  "internalType": "struct Secp256r1.ECPoint",
                  "name": "D",
                  "type": "tuple"
                }
              ],
              "internalType": "struct Elgamal.Elgamal_ciphertext",
              "name": "encVote",
              "type": "tuple"
            }
          ],
          "indexed": false,
          "internalType": "struct Utils.Ballot[]",
          "name": "ballots",
          "type": "tuple[]"
        }
      ],
      "name": "tallyVoteEvent",
      "type": "event"
    },
    {
      "anonymous": false,
      "inputs": [
        {
          "indexed": false,
          "internalType": "bool",
          "name": "isNoSendShares",
          "type": "bool"
        },
        {
          "indexed": false,
          "internalType": "uint256[]",
          "name": "illegitimate_voter_indeces",
          "type": "uint256[]"
        }
      ],
      "name": "verifySharesEvent",
      "type": "event"
    },
    {
      "inputs": [
        {
          "internalType": "uint256",
          "name": "",
          "type": "uint256"
        }
      ],
      "name": "ECPubKeysAftVer",
      "outputs": [
        {
          "internalType": "uint256",
          "name": "x",
          "type": "uint256"
        },
        {
          "internalType": "uint256",
          "name": "y",
          "type": "uint256"
        }
      ],
      "stateMutability": "view",
      "type": "function"
    },
    {
      "inputs": [
        {
          "internalType": "uint256",
          "name": "",
          "type": "uint256"
        }
      ],
      "name": "EC_public_keys",
      "outputs": [
        {
          "internalType": "uint256",
          "name": "x",
          "type": "uint256"
        },
        {
          "internalType": "uint256",
          "name": "y",
          "type": "uint256"
        }
      ],
      "stateMutability": "view",
      "type": "function"
    },
    {
      "inputs": [],
      "name": "H",
      "outputs": [
        {
          "internalType": "uint256",
          "name": "x",
          "type": "uint256"
        },
        {
          "internalType": "uint256",
          "name": "y",
          "type": "uint256"
        }
      ],
      "stateMutability": "view",
      "type": "function"
    },
    {
      "inputs": [],
      "name": "L",
      "outputs": [
        {
          "internalType": "uint256",
          "name": "",
          "type": "uint256"
        }
      ],
      "stateMutability": "view",
      "type": "function"
    },
    {
      "inputs": [
        {
          "internalType": "uint256",
          "name": "",
          "type": "uint256"
        }
      ],
      "name": "ballots",
      "outputs": [
        {
          "internalType": "uint256",
          "name": "id",
          "type": "uint256"
        },
        {
          "internalType": "uint256",
          "name": "voteTime",
          "type": "uint256"
        },
        {
          "internalType": "int256",
          "name": "candidate_id",
          "type": "int256"
        },
        {
          "internalType": "uint256",
          "name": "encVoteHash",
          "type": "uint256"
        },
        {
          "internalType": "uint256",
          "name": "U0",
          "type": "uint256"
        },
        {
          "components": [
            {
              "internalType": "uint256",
              "name": "x",
              "type": "uint256"
            },
            {
              "internalType": "uint256",
              "name": "y",
              "type": "uint256"
            }
          ],
          "internalType": "struct Secp256r1.ECPoint",
          "name": "K",
          "type": "tuple"
        },
        {
          "components": [
            {
              "components": [
                {
                  "internalType": "uint256",
                  "name": "x",
                  "type": "uint256"
                },
                {
                  "internalType": "uint256",
                  "name": "y",
                  "type": "uint256"
                }
              ],
              "internalType": "struct Secp256r1.ECPoint",
              "name": "C",
              "type": "tuple"
            },
            {
              "components": [
                {
                  "internalType": "uint256",
                  "name": "x",
                  "type": "uint256"
                },
                {
                  "internalType": "uint256",
                  "name": "y",
                  "type": "uint256"
                }
              ],
              "internalType": "struct Secp256r1.ECPoint",
              "name": "D",
              "type": "tuple"
            }
          ],
          "internalType": "struct Elgamal.Elgamal_ciphertext",
          "name": "encVote",
          "type": "tuple"
        }
      ],
      "stateMutability": "view",
      "type": "function"
    },
    {
      "inputs": [
        {
          "internalType": "uint256",
          "name": "",
          "type": "uint256"
        }
      ],
      "name": "candidates",
      "outputs": [
        {
          "internalType": "uint256",
          "name": "id",
          "type": "uint256"
        },
        {
          "internalType": "uint256",
          "name": "voteCount",
          "type": "uint256"
        },
        {
          "internalType": "bytes32",
          "name": "name",
          "type": "bytes32"
        }
      ],
      "stateMutability": "view",
      "type": "function"
    },
    {
      "inputs": [],
      "name": "description",
      "outputs": [
        {
          "internalType": "bytes32",
          "name": "",
          "type": "bytes32"
        }
      ],
      "stateMutability": "view",
      "type": "function"
    },
    {
      "inputs": [],
      "name": "id",
      "outputs": [
        {
          "internalType": "uint256",
          "name": "",
          "type": "uint256"
        }
      ],
      "stateMutability": "view",
      "type": "function"
    },
    {
      "inputs": [
        {
          "internalType": "uint256",
          "name": "",
          "type": "uint256"
        }
      ],
      "name": "illegitimate_voter_indeces",
      "outputs": [
        {
          "internalType": "uint256",
          "name": "",
          "type": "uint256"
        }
      ],
      "stateMutability": "view",
      "type": "function"
    },
    {
      "inputs": [],
      "name": "isBasicInfoSet",
      "outputs": [
        {
          "internalType": "bool",
          "name": "",
          "type": "bool"
        }
      ],
      "stateMutability": "view",
      "type": "function"
    },
    {
      "inputs": [],
      "name": "isECPubKeysAftVerSet",
      "outputs": [
        {
          "internalType": "bool",
          "name": "",
          "type": "bool"
        }
      ],
      "stateMutability": "view",
      "type": "function"
    },
    {
      "inputs": [],
      "name": "isFailed",
      "outputs": [
        {
          "internalType": "bool",
          "name": "",
          "type": "bool"
        }
      ],
      "stateMutability": "view",
      "type": "function"
    },
    {
      "inputs": [],
      "name": "isNoSendSharesCheck",
      "outputs": [
        {
          "internalType": "bool",
          "name": "",
          "type": "bool"
        }
      ],
      "stateMutability": "view",
      "type": "function"
    },
    {
      "inputs": [],
      "name": "isRegOn",
      "outputs": [
        {
          "internalType": "bool",
          "name": "",
          "type": "bool"
        }
      ],
      "stateMutability": "view",
      "type": "function"
    },
    {
      "inputs": [],
      "name": "isSetUp",
      "outputs": [
        {
          "internalType": "bool",
          "name": "",
          "type": "bool"
        }
      ],
      "stateMutability": "view",
      "type": "function"
    },
    {
      "inputs": [],
      "name": "isVotePubKeySet",
      "outputs": [
        {
          "internalType": "bool",
          "name": "",
          "type": "bool"
        }
      ],
      "stateMutability": "view",
      "type": "function"
    },
    {
      "inputs": [],
      "name": "isVoteTallied",
      "outputs": [
        {
          "internalType": "bool",
          "name": "",
          "type": "bool"
        }
      ],
      "stateMutability": "view",
      "type": "function"
    },
    {
      "inputs": [],
      "name": "min_shares",
      "outputs": [
        {
          "internalType": "uint256",
          "name": "",
          "type": "uint256"
        }
      ],
      "stateMutability": "view",
      "type": "function"
    },
    {
      "inputs": [],
      "name": "owner",
      "outputs": [
        {
          "internalType": "address",
          "name": "",
          "type": "address"
        }
      ],
      "stateMutability": "view",
      "type": "function"
    },
    {
      "inputs": [],
      "name": "post_time",
      "outputs": [
        {
          "internalType": "uint256",
          "name": "",
          "type": "uint256"
        }
      ],
      "stateMutability": "view",
      "type": "function"
    },
    {
      "inputs": [
        {
          "internalType": "uint256",
          "name": "",
          "type": "uint256"
        }
      ],
      "name": "regInfo",
      "outputs": [
        {
          "internalType": "uint256",
          "name": "x",
          "type": "uint256"
        },
        {
          "internalType": "uint256",
          "name": "y",
          "type": "uint256"
        }
      ],
      "stateMutability": "view",
      "type": "function"
    },
    {
      "inputs": [],
      "name": "reg_end_time",
      "outputs": [
        {
          "internalType": "uint256",
          "name": "",
          "type": "uint256"
        }
      ],
      "stateMutability": "view",
      "type": "function"
    },
    {
      "inputs": [],
      "name": "secret_upload_end_time",
      "outputs": [
        {
          "internalType": "uint256",
          "name": "",
          "type": "uint256"
        }
      ],
      "stateMutability": "view",
      "type": "function"
    },
    {
      "inputs": [],
      "name": "share_end_time",
      "outputs": [
        {
          "internalType": "uint256",
          "name": "",
          "type": "uint256"
        }
      ],
      "stateMutability": "view",
      "type": "function"
    },
    {
      "inputs": [
        {
          "internalType": "uint256",
          "name": "",
          "type": "uint256"
        }
      ],
      "name": "subSecrets",
      "outputs": [
        {
          "internalType": "uint256",
          "name": "subSecret",
          "type": "uint256"
        },
        {
          "internalType": "uint256",
          "name": "i",
          "type": "uint256"
        }
      ],
      "stateMutability": "view",
      "type": "function"
    },
    {
      "inputs": [],
      "name": "title",
      "outputs": [
        {
          "internalType": "bytes32",
          "name": "",
          "type": "bytes32"
        }
      ],
      "stateMutability": "view",
      "type": "function"
    },
    {
      "inputs": [],
      "name": "totalSubSecretSentCount",
      "outputs": [
        {
          "internalType": "uint256",
          "name": "",
          "type": "uint256"
        }
      ],
      "stateMutability": "view",
      "type": "function"
    },
    {
      "inputs": [],
      "name": "totatSharesSentCount",
      "outputs": [
        {
          "internalType": "uint256",
          "name": "",
          "type": "uint256"
        }
      ],
      "stateMutability": "view",
      "type": "function"
    },
    {
      "inputs": [],
      "name": "ver_end_time",
      "outputs": [
        {
          "internalType": "uint256",
          "name": "",
          "type": "uint256"
        }
      ],
      "stateMutability": "view",
      "type": "function"
    },
    {
      "inputs": [],
      "name": "votePubKey",
      "outputs": [
        {
          "internalType": "uint256",
          "name": "x",
          "type": "uint256"
        },
        {
          "internalType": "uint256",
          "name": "y",
          "type": "uint256"
        }
      ],
      "stateMutability": "view",
      "type": "function"
    },
    {
      "inputs": [],
      "name": "vote_end_time",
      "outputs": [
        {
          "internalType": "uint256",
          "name": "",
          "type": "uint256"
        }
      ],
      "stateMutability": "view",
      "type": "function"
    },
    {
      "inputs": [
        {
          "internalType": "uint256",
          "name": "_i",
          "type": "uint256"
        },
        {
          "components": [
            {
              "internalType": "uint256",
              "name": "x",
              "type": "uint256"
            },
            {
              "internalType": "uint256",
              "name": "y",
              "type": "uint256"
            }
          ],
          "internalType": "struct Secp256r1.ECPoint",
          "name": "_EC_PubKey",
          "type": "tuple"
        },
        {
          "components": [
            {
              "internalType": "uint256",
              "name": "x",
              "type": "uint256"
            },
            {
              "internalType": "uint256",
              "name": "y",
              "type": "uint256"
            }
          ],
          "internalType": "struct Secp256r1.ECPoint",
          "name": "_R",
          "type": "tuple"
        },
        {
          "internalType": "uint256",
          "name": "_c",
          "type": "uint256"
        },
        {
          "internalType": "uint256",
          "name": "_m",
          "type": "uint256"
        }
      ],
      "name": "addVoter",
      "outputs": [],
      "stateMutability": "nonpayable",
      "type": "function"
    },
    {
      "inputs": [
        {
          "components": [
            {
              "internalType": "bytes32",
              "name": "title",
              "type": "bytes32"
            },
            {
              "internalType": "bytes32",
              "name": "des",
              "type": "bytes32"
            },
            {
              "internalType": "bytes32[]",
              "name": "candidates",
              "type": "bytes32[]"
            },
            {
              "components": [
                {
                  "internalType": "uint256",
                  "name": "x",
                  "type": "uint256"
                },
                {
                  "internalType": "uint256",
                  "name": "y",
                  "type": "uint256"
                }
              ],
              "internalType": "struct Secp256r1.ECPoint[]",
              "name": "EC_public_keys",
              "type": "tuple[]"
            },
            {
              "internalType": "uint256",
              "name": "minShares",
              "type": "uint256"
            },
            {
              "internalType": "uint256",
              "name": "regTime",
              "type": "uint256"
            },
            {
              "internalType": "uint256",
              "name": "sharesTime",
              "type": "uint256"
            },
            {
              "internalType": "uint256",
              "name": "verTime",
              "type": "uint256"
            },
            {
              "internalType": "uint256",
              "name": "voteTime",
              "type": "uint256"
            },
            {
              "internalType": "uint256",
              "name": "secUploadTime",
              "type": "uint256"
            },
            {
              "internalType": "uint256",
              "name": "regTimeUnit",
              "type": "uint256"
            },
            {
              "internalType": "uint256",
              "name": "sharesTimeUnit",
              "type": "uint256"
            },
            {
              "internalType": "uint256",
              "name": "verTimeUnit",
              "type": "uint256"
            },
            {
              "internalType": "uint256",
              "name": "voteTimeUnit",
              "type": "uint256"
            },
            {
              "internalType": "uint256",
              "name": "secUploadTimeUnit",
              "type": "uint256"
            },
            {
              "internalType": "bool",
              "name": "isRegOn",
              "type": "bool"
            },
            {
              "components": [
                {
                  "internalType": "uint256",
                  "name": "x",
                  "type": "uint256"
                },
                {
                  "internalType": "uint256",
                  "name": "y",
                  "type": "uint256"
                }
              ],
              "internalType": "struct Secp256r1.ECPoint[]",
              "name": "regInfo",
              "type": "tuple[]"
            }
          ],
          "internalType": "struct Utils.ElectionSetUpData",
          "name": "_data",
          "type": "tuple"
        }
      ],
      "name": "setElectionInfo",
      "outputs": [],
      "stateMutability": "nonpayable",
      "type": "function"
    },
    {
      "inputs": [
        {
          "internalType": "uint256[]",
          "name": "_subShares",
          "type": "uint256[]"
        },
        {
          "internalType": "uint256",
          "name": "_i",
          "type": "uint256"
        }
      ],
      "name": "addSubSecret",
      "outputs": [],
      "stateMutability": "nonpayable",
      "type": "function"
    },
    {
      "inputs": [
        {
          "components": [
            {
              "components": [
                {
                  "internalType": "uint256",
                  "name": "x",
                  "type": "uint256"
                },
                {
                  "internalType": "uint256",
                  "name": "y",
                  "type": "uint256"
                }
              ],
              "internalType": "struct Secp256r1.ECPoint",
              "name": "H2",
              "type": "tuple"
            },
            {
              "internalType": "uint256",
              "name": "i",
              "type": "uint256"
            },
            {
              "internalType": "uint256",
              "name": "j",
              "type": "uint256"
            },
            {
              "components": [
                {
                  "internalType": "uint256",
                  "name": "c",
                  "type": "uint256"
                },
                {
                  "internalType": "uint256",
                  "name": "r",
                  "type": "uint256"
                }
              ],
              "internalType": "struct CPProof.CPproof",
              "name": "proof",
              "type": "tuple"
            }
          ],
          "internalType": "struct Shares.VerSharesPar[]",
          "name": "_Par",
          "type": "tuple[]"
        }
      ],
      "name": "setDisqualifiedPubKeyIndece",
      "outputs": [],
      "stateMutability": "nonpayable",
      "type": "function"
    },
    {
      "inputs": [],
      "name": "setNoDisVoters",
      "outputs": [],
      "stateMutability": "nonpayable",
      "type": "function"
    },
    {
      "inputs": [],
      "name": "setVotePublicKey",
      "outputs": [],
      "stateMutability": "nonpayable",
      "type": "function"
    },
    {
      "inputs": [],
      "name": "getSubSecrets",
      "outputs": [
        {
          "components": [
            {
              "internalType": "uint256",
              "name": "subSecret",
              "type": "uint256"
            },
            {
              "internalType": "uint256",
              "name": "i",
              "type": "uint256"
            }
          ],
          "internalType": "struct Shares.SubSecret[]",
          "name": "",
          "type": "tuple[]"
        }
      ],
      "stateMutability": "view",
      "type": "function"
    },
    {
      "inputs": [
        {
          "internalType": "uint256",
          "name": "_publicKeyIndex",
          "type": "uint256"
        }
      ],
      "name": "getF",
      "outputs": [
        {
          "components": [
            {
              "components": [
                {
                  "internalType": "uint256",
                  "name": "x",
                  "type": "uint256"
                },
                {
                  "internalType": "uint256",
                  "name": "y",
                  "type": "uint256"
                }
              ],
              "internalType": "struct Secp256r1.ECPoint",
              "name": "p",
              "type": "tuple"
            },
            {
              "internalType": "uint256",
              "name": "i",
              "type": "uint256"
            },
            {
              "internalType": "uint256",
              "name": "j",
              "type": "uint256"
            },
            {
              "internalType": "uint256",
              "name": "h",
              "type": "uint256"
            },
            {
              "components": [
                {
                  "internalType": "uint256",
                  "name": "r",
                  "type": "uint256"
                },
                {
                  "internalType": "uint256",
                  "name": "s",
                  "type": "uint256"
                }
              ],
              "internalType": "struct ECDSA.ECDSA_Sig",
              "name": "sig",
              "type": "tuple"
            }
          ],
          "internalType": "struct Shares.F[]",
          "name": "",
          "type": "tuple[]"
        }
      ],
      "stateMutability": "view",
      "type": "function"
    },
    {
      "inputs": [
        {
          "internalType": "uint256",
          "name": "_publicKeyIndex",
          "type": "uint256"
        }
      ],
      "name": "getf",
      "outputs": [
        {
          "components": [
            {
              "components": [
                {
                  "components": [
                    {
                      "internalType": "uint256",
                      "name": "x",
                      "type": "uint256"
                    },
                    {
                      "internalType": "uint256",
                      "name": "y",
                      "type": "uint256"
                    }
                  ],
                  "internalType": "struct Secp256r1.ECPoint",
                  "name": "C",
                  "type": "tuple"
                },
                {
                  "components": [
                    {
                      "internalType": "uint256",
                      "name": "x",
                      "type": "uint256"
                    },
                    {
                      "internalType": "uint256",
                      "name": "y",
                      "type": "uint256"
                    }
                  ],
                  "internalType": "struct Secp256r1.ECPoint",
                  "name": "D",
                  "type": "tuple"
                }
              ],
              "internalType": "struct Elgamal.Elgamal_ciphertext",
              "name": "ciphertext",
              "type": "tuple"
            },
            {
              "internalType": "uint256",
              "name": "i",
              "type": "uint256"
            },
            {
              "internalType": "uint256",
              "name": "j",
              "type": "uint256"
            },
            {
              "internalType": "uint256",
              "name": "h",
              "type": "uint256"
            },
            {
              "components": [
                {
                  "internalType": "uint256",
                  "name": "r",
                  "type": "uint256"
                },
                {
                  "internalType": "uint256",
                  "name": "s",
                  "type": "uint256"
                }
              ],
              "internalType": "struct ECDSA.ECDSA_Sig",
              "name": "sig",
              "type": "tuple"
            }
          ],
          "internalType": "struct Shares.f[]",
          "name": "",
          "type": "tuple[]"
        }
      ],
      "stateMutability": "view",
      "type": "function"
    },
    {
      "inputs": [
        {
          "components": [
            {
              "components": [
                {
                  "internalType": "uint256",
                  "name": "x",
                  "type": "uint256"
                },
                {
                  "internalType": "uint256",
                  "name": "y",
                  "type": "uint256"
                }
              ],
              "internalType": "struct Secp256r1.ECPoint",
              "name": "p",
              "type": "tuple"
            },
            {
              "internalType": "uint256",
              "name": "i",
              "type": "uint256"
            },
            {
              "internalType": "uint256",
              "name": "j",
              "type": "uint256"
            },
            {
              "internalType": "uint256",
              "name": "h",
              "type": "uint256"
            },
            {
              "components": [
                {
                  "internalType": "uint256",
                  "name": "r",
                  "type": "uint256"
                },
                {
                  "internalType": "uint256",
                  "name": "s",
                  "type": "uint256"
                }
              ],
              "internalType": "struct ECDSA.ECDSA_Sig",
              "name": "sig",
              "type": "tuple"
            }
          ],
          "internalType": "struct Shares.F[]",
          "name": "_F",
          "type": "tuple[]"
        },
        {
          "components": [
            {
              "components": [
                {
                  "components": [
                    {
                      "internalType": "uint256",
                      "name": "x",
                      "type": "uint256"
                    },
                    {
                      "internalType": "uint256",
                      "name": "y",
                      "type": "uint256"
                    }
                  ],
                  "internalType": "struct Secp256r1.ECPoint",
                  "name": "C",
                  "type": "tuple"
                },
                {
                  "components": [
                    {
                      "internalType": "uint256",
                      "name": "x",
                      "type": "uint256"
                    },
                    {
                      "internalType": "uint256",
                      "name": "y",
                      "type": "uint256"
                    }
                  ],
                  "internalType": "struct Secp256r1.ECPoint",
                  "name": "D",
                  "type": "tuple"
                }
              ],
              "internalType": "struct Elgamal.Elgamal_ciphertext",
              "name": "ciphertext",
              "type": "tuple"
            },
            {
              "internalType": "uint256",
              "name": "i",
              "type": "uint256"
            },
            {
              "internalType": "uint256",
              "name": "j",
              "type": "uint256"
            },
            {
              "internalType": "uint256",
              "name": "h",
              "type": "uint256"
            },
            {
              "components": [
                {
                  "internalType": "uint256",
                  "name": "r",
                  "type": "uint256"
                },
                {
                  "internalType": "uint256",
                  "name": "s",
                  "type": "uint256"
                }
              ],
              "internalType": "struct ECDSA.ECDSA_Sig",
              "name": "sig",
              "type": "tuple"
            }
          ],
          "internalType": "struct Shares.f[]",
          "name": "_f",
          "type": "tuple[]"
        }
      ],
      "name": "addShares",
      "outputs": [],
      "stateMutability": "nonpayable",
      "type": "function"
    },
    {
      "inputs": [
        {
          "internalType": "uint256",
          "name": "_encVoteHash",
          "type": "uint256"
        },
        {
          "internalType": "uint256",
          "name": "_U0",
          "type": "uint256"
        },
        {
          "internalType": "uint256[]",
          "name": "_V",
          "type": "uint256[]"
        },
        {
          "components": [
            {
              "internalType": "uint256",
              "name": "x",
              "type": "uint256"
            },
            {
              "internalType": "uint256",
              "name": "y",
              "type": "uint256"
            }
          ],
          "internalType": "struct Secp256r1.ECPoint",
          "name": "_K",
          "type": "tuple"
        }
      ],
      "name": "verifyLRS",
      "outputs": [
        {
          "internalType": "bool",
          "name": "",
          "type": "bool"
        }
      ],
      "stateMutability": "view",
      "type": "function"
    },
    {
      "inputs": [
        {
          "components": [
            {
              "components": [
                {
                  "internalType": "uint256",
                  "name": "x",
                  "type": "uint256"
                },
                {
                  "internalType": "uint256",
                  "name": "y",
                  "type": "uint256"
                }
              ],
              "internalType": "struct Secp256r1.ECPoint",
              "name": "C",
              "type": "tuple"
            },
            {
              "components": [
                {
                  "internalType": "uint256",
                  "name": "x",
                  "type": "uint256"
                },
                {
                  "internalType": "uint256",
                  "name": "y",
                  "type": "uint256"
                }
              ],
              "internalType": "struct Secp256r1.ECPoint",
              "name": "D",
              "type": "tuple"
            }
          ],
          "internalType": "struct Elgamal.Elgamal_ciphertext",
          "name": "_encVote",
          "type": "tuple"
        },
        {
          "internalType": "uint256",
          "name": "_encVoteHash",
          "type": "uint256"
        },
        {
          "internalType": "uint256",
          "name": "_U0",
          "type": "uint256"
        },
        {
          "internalType": "uint256[]",
          "name": "_V",
          "type": "uint256[]"
        },
        {
          "components": [
            {
              "internalType": "uint256",
              "name": "x",
              "type": "uint256"
            },
            {
              "internalType": "uint256",
              "name": "y",
              "type": "uint256"
            }
          ],
          "internalType": "struct Secp256r1.ECPoint",
          "name": "_K",
          "type": "tuple"
        }
      ],
      "name": "addVote",
      "outputs": [],
      "stateMutability": "nonpayable",
      "type": "function"
    },
    {
      "inputs": [
        {
          "components": [
            {
              "components": [
                {
                  "internalType": "uint256",
                  "name": "x",
                  "type": "uint256"
                },
                {
                  "internalType": "uint256",
                  "name": "y",
                  "type": "uint256"
                }
              ],
              "internalType": "struct Secp256r1.ECPoint",
              "name": "C",
              "type": "tuple"
            },
            {
              "components": [
                {
                  "internalType": "uint256",
                  "name": "x",
                  "type": "uint256"
                },
                {
                  "internalType": "uint256",
                  "name": "y",
                  "type": "uint256"
                }
              ],
              "internalType": "struct Secp256r1.ECPoint",
              "name": "D",
              "type": "tuple"
            }
          ],
          "internalType": "struct Elgamal.Elgamal_ciphertext",
          "name": "_encVote",
          "type": "tuple"
        },
        {
          "internalType": "uint256",
          "name": "_votePrvKey",
          "type": "uint256"
        }
      ],
      "name": "decryptVote",
      "outputs": [
        {
          "internalType": "uint256",
          "name": "",
          "type": "uint256"
        }
      ],
      "stateMutability": "pure",
      "type": "function"
    },
    {
      "inputs": [
        {
          "internalType": "uint256",
          "name": "_votePrvKey",
          "type": "uint256"
        }
      ],
      "name": "tallyVote",
      "outputs": [],
      "stateMutability": "nonpayable",
      "type": "function"
    },
    {
      "inputs": [],
      "name": "getElectionData",
      "outputs": [
        {
          "components": [
            {
              "internalType": "uint256",
              "name": "id",
              "type": "uint256"
            },
            {
              "internalType": "uint256",
              "name": "post_time",
              "type": "uint256"
            },
            {
              "internalType": "uint256",
              "name": "reg_end_time",
              "type": "uint256"
            },
            {
              "internalType": "uint256",
              "name": "share_end_time",
              "type": "uint256"
            },
            {
              "internalType": "uint256",
              "name": "ver_end_time",
              "type": "uint256"
            },
            {
              "internalType": "uint256",
              "name": "vote_end_time",
              "type": "uint256"
            },
            {
              "internalType": "uint256",
              "name": "secret_upload_end_time",
              "type": "uint256"
            },
            {
              "internalType": "uint256",
              "name": "min_shares",
              "type": "uint256"
            },
            {
              "internalType": "uint256",
              "name": "totatSharesSentCount",
              "type": "uint256"
            },
            {
              "internalType": "uint256",
              "name": "totalSubSecretSentCount",
              "type": "uint256"
            },
            {
              "internalType": "uint256[]",
              "name": "illegitimate_voter_indeces",
              "type": "uint256[]"
            },
            {
              "internalType": "bytes32",
              "name": "title",
              "type": "bytes32"
            },
            {
              "internalType": "bytes32",
              "name": "description",
              "type": "bytes32"
            },
            {
              "components": [
                {
                  "internalType": "uint256",
                  "name": "id",
                  "type": "uint256"
                },
                {
                  "internalType": "uint256",
                  "name": "voteCount",
                  "type": "uint256"
                },
                {
                  "internalType": "bytes32",
                  "name": "name",
                  "type": "bytes32"
                }
              ],
              "internalType": "struct Utils.Candidate[]",
              "name": "candidates",
              "type": "tuple[]"
            },
            {
              "internalType": "bool",
              "name": "isVoteTallied",
              "type": "bool"
            },
            {
              "internalType": "bool",
              "name": "isVotePubKeySet",
              "type": "bool"
            },
            {
              "internalType": "bool",
              "name": "isECPubKeysAftVerSet",
              "type": "bool"
            },
            {
              "internalType": "bool",
              "name": "isSetUp",
              "type": "bool"
            },
            {
              "internalType": "bool",
              "name": "isNoSendSharesCheck",
              "type": "bool"
            },
            {
              "internalType": "bool",
              "name": "isRegOn",
              "type": "bool"
            },
            {
              "internalType": "bool",
              "name": "isFailed",
              "type": "bool"
            },
            {
              "internalType": "address",
              "name": "owner",
              "type": "address"
            },
            {
              "components": [
                {
                  "internalType": "uint256",
                  "name": "id",
                  "type": "uint256"
                },
                {
                  "internalType": "uint256",
                  "name": "voteTime",
                  "type": "uint256"
                },
                {
                  "internalType": "int256",
                  "name": "candidate_id",
                  "type": "int256"
                },
                {
                  "internalType": "uint256",
                  "name": "encVoteHash",
                  "type": "uint256"
                },
                {
                  "internalType": "uint256",
                  "name": "U0",
                  "type": "uint256"
                },
                {
                  "internalType": "uint256[]",
                  "name": "V",
                  "type": "uint256[]"
                },
                {
                  "components": [
                    {
                      "internalType": "uint256",
                      "name": "x",
                      "type": "uint256"
                    },
                    {
                      "internalType": "uint256",
                      "name": "y",
                      "type": "uint256"
                    }
                  ],
                  "internalType": "struct Secp256r1.ECPoint",
                  "name": "K",
                  "type": "tuple"
                },
                {
                  "components": [
                    {
                      "components": [
                        {
                          "internalType": "uint256",
                          "name": "x",
                          "type": "uint256"
                        },
                        {
                          "internalType": "uint256",
                          "name": "y",
                          "type": "uint256"
                        }
                      ],
                      "internalType": "struct Secp256r1.ECPoint",
                      "name": "C",
                      "type": "tuple"
                    },
                    {
                      "components": [
                        {
                          "internalType": "uint256",
                          "name": "x",
                          "type": "uint256"
                        },
                        {
                          "internalType": "uint256",
                          "name": "y",
                          "type": "uint256"
                        }
                      ],
                      "internalType": "struct Secp256r1.ECPoint",
                      "name": "D",
                      "type": "tuple"
                    }
                  ],
                  "internalType": "struct Elgamal.Elgamal_ciphertext",
                  "name": "encVote",
                  "type": "tuple"
                }
              ],
              "internalType": "struct Utils.Ballot[]",
              "name": "ballots",
              "type": "tuple[]"
            },
            {
              "components": [
                {
                  "internalType": "uint256",
                  "name": "x",
                  "type": "uint256"
                },
                {
                  "internalType": "uint256",
                  "name": "y",
                  "type": "uint256"
                }
              ],
              "internalType": "struct Secp256r1.ECPoint[]",
              "name": "regInfo",
              "type": "tuple[]"
            },
            {
              "components": [
                {
                  "internalType": "uint256",
                  "name": "x",
                  "type": "uint256"
                },
                {
                  "internalType": "uint256",
                  "name": "y",
                  "type": "uint256"
                }
              ],
              "internalType": "struct Secp256r1.ECPoint[]",
              "name": "EC_public_keys",
              "type": "tuple[]"
            }
          ],
          "internalType": "struct Utils.ElectionData",
          "name": "",
          "type": "tuple"
        }
      ],
      "stateMutability": "view",
      "type": "function"
    }
  ],
  "bytecode": "0x60806040523480156200001157600080fd5b5060405162004efb38038062004efb83398101604081905262000034916200005f565b600391909155600080546001600160a01b0319166001600160a01b039092169190911790556200009e565b600080604083850312156200007357600080fd5b825160208401519092506001600160a01b03811681146200009357600080fd5b809150509250929050565b614e4d80620000ae6000396000f3fe608060405234801561001057600080fd5b506004361061021a5760003560e01c806301c9fd4b1461021f57806317542dc01461023b5780631df32b9d14610244578063234191db146102675780633477ee2e1461028857806336e67839146102b65780633e4e3b1a146102cb578063422d6ce6146102de5780634a79d50c146102f15780634e1f97ba146102fa578063500b1e821461030d5780635c632b38146103205780635f0fc8f3146103465780636652e5261461034f57806368bf4b851461036457806370252e1c1461037757806370a5d8611461038b57806370dc5e1314610399578063721b267f146103a75780637284e416146103af57806373d1993b146103b857806374e69291146103c157806380c103b4146103d45780638da5cb5b146103e85780639f13f76d14610413578063a0b0ee761461041c578063a2f9330114610430578063a69d1b7e14610438578063ab64ad301461044b578063af640d0f1461045e578063b9bb4a4b14610467578063b9d2c9791461047a578063bb2bcc061461048c578063c128442a14610495578063c701ae20146104a8578063cdce88ef146104b1578063d2b10f39146104d1578063df36903a146104da578063e3bad120146104ee578063e6a70608146104fb578063ee9d02a61461051b578063eebc904e1461052e578063f416334014610537578063f9f9274e1461054b578063fca43a5714610560578063fecfdbfe14610573575b600080fd5b610228600b5481565b6040519081526020015b60405180910390f35b61022860095481565b610257610252366004613c14565b61057c565b6040519015158152602001610232565b61027a610275366004613c7c565b6106f5565b604051610232929190613c95565b61029b610296366004613c7c565b610723565b60408051938452602084019290925290820152606001610232565b6102c96102c4366004613cb5565b610756565b005b6102c96102d9366004613d2e565b610a74565b61027a6102ec366004613c7c565b611200565b61022860015481565b6102c9610308366004613df6565b611210565b600d546102579062010000900460ff1681565b61033361032e366004613c7c565b6118b9565b6040516102329796959493929190613e69565b61022860055481565b610357611952565b604051610232919061402f565b610228610372366004613c7c565b611e29565b600d54610257906301000000900460ff1681565b60125460135461027a919082565b600e54600f5461027a919082565b6102c9611e4a565b61022860025481565b61022860085481565b6102c96103cf36600461420d565b612026565b600d5461025790600160301b900460ff1681565b6000546103fb906001600160a01b031681565b6040516001600160a01b039091168152602001610232565b61022860115481565b600d5461025790600160201b900460ff1681565b6102c96123f1565b610228610446366004614258565b612669565b6102c9610459366004614283565b6126ef565b61022860035481565b61027a610475366004613c7c565b612b83565b600d5461025790610100900460ff1681565b610228600a5481565b6102c96104a33660046142f7565b612b93565b610228600c5481565b6104c46104bf366004613c7c565b612d9b565b6040516102329190614347565b61022860065481565b600d5461025790600160281b900460ff1681565b600d546102579060ff1681565b61050e610509366004613c7c565b612ed6565b60405161023291906143bd565b6102c9610529366004613c7c565b613076565b61022860075481565b600d5461025790600160381b900460ff1681565b610553613396565b6040516102329190614433565b61027a61056e366004613c7c565b613409565b61022860045481565b600073__LRS___________________________________63eb6100266040518060e00160405280898152602001888152602001601154815260200187878080602002602001604051908101604052809392919081815260200183836020028082843760009201919091525050509082525060408051808201825260125481526013546020828101919091528301520161061a368790038701876144ef565b81526020016016805480602002602001604051908101604052809291908181526020016000905b8282101561068757838290600052602060002090600202016040518060400160405290816000820154815260200160018201548152505081526020019060010190610641565b505050508152506040518263ffffffff1660e01b81526004016106aa919061450b565b602060405180830381865af41580156106c7573d6000803e3d6000fd5b505050506040513d601f19601f820116820180604052508101906106eb91906145da565b9695505050505050565b6021818154811061070557600080fd5b60009182526020909120600290910201805460019091015490915082565b6019818154811061073357600080fd5b600091825260209091206003909102018054600182015460029092015490925083565b600d54600160381b900460ff16156107895760405162461bcd60e51b8152600401610780906145f7565b60405180910390fd5b600d546301000000900460ff1615156001146107dc5760405162461bcd60e51b815260206004820152601260248201527114d95d159bdd19541d5892d95e519a5c9cdd60721b6044820152606401610780565b6040516000906107f6908335906020808601359101613c95565b60408051601f1981840301815291815281516020928301206000818152601490935291205490915060ff161561085c5760405162461bcd60e51b815260206004820152600b60248201526a165bdd55d85cd59bdd195960aa1b6044820152606401610780565b604080518791610881918a35916020808d013592918d01359160608e0135910161462a565b6040516020818303038152906040528051906020012060001c146108b75760405162461bcd60e51b815260040161078090614645565b60006108c6878787878761057c565b90506001811515146108ea5760405162461bcd60e51b81526004016107809061466d565b602360405180610100016040528060238054905081526020014281526020016000198152602001898152602001888152602001878780806020026020016040519081016040528093929190818152602001838360200280828437600092019190915250505090825250602001610965368790038701876144ef565b8152602001610979368c90038c018c614695565b905281546001818101845560009384526020938490208351600c90930201918255838301519082015560408201516002820155606082015160038201556080820151600482015560a08201518051929391926109db9260058501920190613aac565b5060c082015180516006830155602090810151600783015560e09092015180518051600884015583015160098301558201518051600a830155820151600b90910155600083815260148252604090819020805460ff1916600117905560235490519081527ffa3646576e62bd55338198a0df1081271097c419287396347b2f5b84a21d6760910160405180910390a15050505050505050565b60008080805b600a54811015610dd157878782818110610a9657610a966146d4565b60e00291909101359050888883818110610ab257610ab26146d4565b905060e0020160000160200135898984818110610ad157610ad16146d4565b905060e00201604001358a8a85818110610aed57610aed6146d4565b905060e0020160600135604051602001610b0a949392919061462a565b6040516020818303038152906040528051906020012060001c9250878782818110610b3757610b376146d4565b905060e00201608001358314610b5f5760405162461bcd60e51b815260040161078090614645565b73__ECDSA_________________________________63f43c6a6d6040518060a001604052808b8b86818110610b9657610b966146d4565b905060e0020160a0016000013581526020018b8b86818110610bba57610bba6146d4565b905060e0020160a00160200135815260200186815260200160158c8c87818110610be657610be66146d4565b905060e002016040013581548110610c0057610c006146d4565b906000526020600020906002020160000154815260200160158c8c87818110610c2b57610c2b6146d4565b905060e002016040013581548110610c4557610c456146d4565b9060005260206000209060020201600101548152506040518263ffffffff1660e01b8152600401610c7691906146ea565b602060405180830381865af4158015610c93573d6000803e3d6000fd5b505050506040513d601f19601f82011682018060405250810190610cb791906145da565b9150600182151514610cdb5760405162461bcd60e51b81526004016107809061466d565b878782818110610ced57610ced6146d4565b905060e0020160400135888883818110610d0957610d096146d4565b905060e0020160600135604051602001610d24929190613c95565b60408051601f1981840301815291815281516020928301206000818152601e90935291205490945060ff1615610d6c5760405162461bcd60e51b815260040161078090614724565b6000848152601e60205260409020805460ff19166001179055878782818110610d9757610d976146d4565b905060e00201601c60008681526020019081526020016000208181610dbc919061476c565b50819050610dc9816147ba565b915050610a7a565b5060005b6015548110156111a657858582818110610df157610df16146d4565b6101200291909101359050868683818110610e0e57610e0e6146d4565b9050610120020160000160000160200135878784818110610e3157610e316146d4565b9050610120020160000160400160000135888885818110610e5457610e546146d4565b9050610120020160000160400160200135898986818110610e7757610e776146d4565b90506101200201608001358a8a87818110610e9457610e946146d4565b9050610120020160a00135604051602001610ed796959493929190958652602086019490945260408501929092526060840152608083015260a082015260c00190565b6040516020818303038152906040528051906020012060001c9250858582818110610f0457610f046146d4565b9050610120020160c001358314610f2d5760405162461bcd60e51b815260040161078090614645565b73__ECDSA_________________________________63f43c6a6d6040518060a00160405280898986818110610f6457610f646146d4565b9050610120020160e001600001358152602001898986818110610f8957610f896146d4565b9050610120020160e00160200135815260200186815260200160158a8a87818110610fb657610fb66146d4565b905061012002016080013581548110610fd157610fd16146d4565b906000526020600020906002020160000154815260200160158a8a87818110610ffc57610ffc6146d4565b905061012002016080013581548110611017576110176146d4565b9060005260206000209060020201600101548152506040518263ffffffff1660e01b815260040161104891906146ea565b602060405180830381865af4158015611065573d6000803e3d6000fd5b505050506040513d601f19601f8201168201806040525081019061108991906145da565b91506001821515146110ad5760405162461bcd60e51b81526004016107809061466d565b8585828181106110bf576110bf6146d4565b90506101200201608001358686838181106110dc576110dc6146d4565b9050610120020160a001356040516020016110f8929190613c95565b60408051601f1981840301815291815281516020928301206000818152601f90935291205490945060ff16156111405760405162461bcd60e51b815260040161078090614724565b6000848152601f60205260409020805460ff1916600117905585858281811061116b5761116b6146d4565b90506101200201601d6000868152602001908152602001600020818161119191906147d5565b5081905061119e816147ba565b915050610dd5565b50600b80549060006111b7836147ba565b91905055507f6a2c41ee80fc36b9b44f5e1f5d932b5988f82c4a2dfaa8f1271f8dc8dfa38657600b546040516111ef91815260200190565b60405180910390a150505050505050565b601a818154811061070557600080fd5b6000546001600160a01b0316331461125b5760405162461bcd60e51b815260206004820152600e60248201526d2cb7baa0b932a737ba27bbb732b960911b6044820152606401610780565b600d5462010000900460ff16156112845760405162461bcd60e51b81526004016107809061481d565b60016112936040830183614841565b90501180156112a6575060018160800135115b6112f25760405162461bcd60e51b815260206004820152601f60248201527f4d696e4e756d4f6643616e64696461746573416e6453686172657341726532006044820152606401610780565b8035600155602081013560025560005b61130f6040830183614841565b90508110156113a45760196040518060600160405280838152602001600081526020018480604001906113429190614841565b85818110611352576113526146d4565b602090810292909201359092528354600181810186556000958652948290208451600390920201908155908301519381019390935550604001516002909101558061139c816147ba565b915050611302565b5060005b6113b5606083018361488a565b90508110156114205760156113cd606084018461488a565b838181106113dd576113dd6146d4565b83546001810185556000948552602090942060409091029290920192600202909101905061140b828261475e565b50508080611418906147ba565b9150506113a8565b506080810135600a554260045561143f61020082016101e083016148d3565b600d805460ff60301b1916600160301b9215158302179081905560ff919004161515600114156116125760005b61147a61020083018361488a565b90508110156114e657601a61149361020084018461488a565b838181106114a3576114a36146d4565b8354600181018555600094855260209094206040909102929092019260020290910190506114d1828261475e565b505080806114de906147ba565b91505061146c565b50604051632f742f5960e21b815273__Utils_________________________________9063bdd0bd64906115299060a08501359061014086013590600401613c95565b602060405180830381865af4158015611546573d6000803e3d6000fd5b505050506040513d601f19601f8201168201806040525081019061156a91906148f0565b6004546115779190614909565b600555604051632f742f5960e21b815273__Utils_________________________________9063bdd0bd64906115bc9060c08501359061016086013590600401613c95565b602060405180830381865af41580156115d9573d6000803e3d6000fd5b505050506040513d601f19601f820116820180604052508101906115fd91906148f0565b60055461160a9190614909565b6006556116a6565b604051632f742f5960e21b815273__Utils_________________________________9063bdd0bd64906116549060c08501359061016086013590600401613c95565b602060405180830381865af4158015611671573d6000803e3d6000fd5b505050506040513d601f19601f8201168201806040525081019061169591906148f0565b6004546116a29190614909565b6006555b604051632f742f5960e21b815273__Utils_________________________________9063bdd0bd64906116e89060e08501359061018086013590600401613c95565b602060405180830381865af4158015611705573d6000803e3d6000fd5b505050506040513d601f19601f8201168201806040525081019061172991906148f0565b6006546117369190614909565b600755604051632f742f5960e21b815273__Utils_________________________________9063bdd0bd649061177c90610100850135906101a086013590600401613c95565b602060405180830381865af4158015611799573d6000803e3d6000fd5b505050506040513d601f19601f820116820180604052508101906117bd91906148f0565b6007546117ca9190614909565b600855604051632f742f5960e21b815273__Utils_________________________________9063bdd0bd649061181090610120850135906101c086013590600401613c95565b602060405180830381865af415801561182d573d6000803e3d6000fd5b505050506040513d601f19601f8201168201806040525081019061185191906148f0565b60085461185e9190614909565b600955600d805462ff0000191662010000908117918290556040517f1ea4b2051cf869c7e1b59e38769fabd5fe8a195b2a79e5e71c885aa76e88dac3926118ae92900460ff161515815260200190565b60405180910390a150565b602381815481106118c957600080fd5b6000918252602091829020600c9091020180546001820154600283015460038401546004850154604080518082018252600688015481526007880154818a01528151608081018352600889015481840190815260098a0154606083015281528251808401909352600a8901548352600b90980154828a0152978701529396509194909391929187565b611a2e604051806103200160405280600081526020016000815260200160008152602001600081526020016000815260200160008152602001600081526020016000815260200160008152602001600081526020016060815260200160008019168152602001600080191681526020016060815260200160001515815260200160001515815260200160001515815260200160001515815260200160001515815260200160001515815260200160001515815260200160006001600160a01b031681526020016060815260200160608152602001606081525090565b6040518061032001604052806003548152602001600454815260200160055481526020016006548152602001600754815260200160085481526020016009548152602001600a548152602001600b548152602001600c5481526020016017805480602002602001604051908101604052809291908181526020018280548015611ad657602002820191906000526020600020905b815481526020019060010190808311611ac2575b50505050508152602001600154815260200160025481526020016019805480602002602001604051908101604052809291908181526020016000905b82821015611b625783829060005260206000209060030201604051806060016040529081600082015481526020016001820154815260200160028201548152505081526020019060010190611b12565b50505090825250600d5460ff80821615156020808501919091526301000000830482161515604080860191909152600160201b8404831615156060860152620100008404831615156080860152600160281b84048316151560a0860152600160301b84048316151560c0860152600160381b909304909116151560e0840152600080546001600160a01b03166101008501526023805484518185028101850190955280855261012090950194909290919084015b82821015611d3c57838290600052602060002090600c020160405180610100016040529081600082015481526020016001820154815260200160028201548152602001600382015481526020016004820154815260200160058201805480602002602001604051908101604052809291908181526020018280548015611cbb57602002820191906000526020600020905b815481526020019060010190808311611ca7575b5050509183525050604080518082018252600684015481526007840154602082810191909152808401919091528151608081018352600885015481840190815260098601546060830152815282518084018452600a8601548152600b9095015485830152808201949094529101919091529082526001929092019101611c16565b505050508152602001601a805480602002602001604051908101604052809291908181526020016000905b82821015611dad57838290600052602060002090600202016040518060400160405290816000820154815260200160018201548152505081526020019060010190611d67565b5050505081526020016015805480602002602001604051908101604052809291908181526020016000905b82821015611e1e57838290600052602060002090600202016040518060400160405290816000820154815260200160018201548152505081526020019060010190611dd8565b505050915250919050565b60178181548110611e3957600080fd5b600091825260209091200154905081565b60005b601554811015611fdf5760005b600a54811015611f0c57601e60008383604051602001611e7b929190613c95565b60408051601f198184030181529181528151602092830120835290820192909252016000205460ff16611efa5760008281526018602052604090205460ff16611efa576000828152601860205260408120805460ff19166001908117909155601780549182018155909152600080516020614df8833981519152018290555b80611f04816147ba565b915050611e5a565b5060025b601554611f1e906001614909565b8111611fcc57601f60008383604051602001611f3b929190613c95565b60408051601f198184030181529181528151602092830120835290820192909252016000205460ff16611fba5760008281526018602052604090205460ff16611fba576000828152601860205260408120805460ff19166001908117909155601780549182018155909152600080516020614df8833981519152018290555b80611fc4816147ba565b915050611f10565b5080611fd7816147ba565b915050611e4d565b50600d805460ff60281b1916600160281b90811791829055604051600080516020614db88339815191529261201c92900460ff1690601790614956565b60405180910390a1565b600d54600160381b900460ff16156120505760405162461bcd60e51b8152600401610780906145f7565b60008181526018602052604090205460ff16156120a35760405162461bcd60e51b81526020600482015260116024820152702234b9b8bab0b634b334b2b22b37ba32b960791b6044820152606401610780565b60008181526022602052604090205460ff16156120f95760405162461bcd60e51b815260206004820152601460248201527314dd5894d958dc995d15d85cd55c1b1bd859195960621b6044820152606401610780565b60165460009081906001600160401b0381111561211857612118614473565b604051908082528060200260200182016040528015612141578160200160208202803683370190505b50905061214c613af7565b600080516020614d988339815191528152600080516020614dd8833981519152602082015260005b6015548110156122d45760008181526018602052604090205460ff166122c25773__Shares________________________________63ba9bf3688888878181106121c0576121c06146d4565b905060200201356002886121d49190614909565b6121dd85612d9b565b6040518463ffffffff1660e01b81526004016121fb93929190614979565b602060405180830381865af4158015612218573d6000803e3d6000fd5b505050506040513d601f19601f8201168201806040525081019061223c91906145da565b151560011461227e5760405162461bcd60e51b815260206004820152600e60248201526d57726f6e6753756253686172657360901b6044820152606401610780565b868685818110612290576122906146d4565b905060200201358385815181106122a9576122a96146d4565b6020908102919091010152836122be816147ba565b9450505b806122cc816147ba565b915050612174565b506040805180820191829052632592be4760e21b9091526021908073__Shares________________________________63964af91c6123168760448501614a08565b602060405180830381865af4158015612333573d6000803e3d6000fd5b505050506040513d601f19601f8201168201806040525081019061235791906148f0565b815260209081018790528254600181810185556000948552828520845160029093020191825592820151908301558683526022905260408220805460ff19169091179055600c8054916123a9836147ba565b91905055507ffda7fe2aa1855f36efd0640a3ec3265e181c44b600c34ad29c800d765f93571d600c546040516123e191815260200190565b60405180910390a1505050505050565b600d546301000000900460ff161561241b5760405162461bcd60e51b81526004016107809061481d565b612423613af7565b6000805b6015548110156125545760008181526018602052604090205460ff1661254257601c600082600060405160200161245f929190613c95565b60408051601f19818403018152918152815160209283012083528282019390935290820160002082518084019093528054835260010154908201529250816124b7578251600e556020830151600f55600191506124f8565b600e54600f54845160208601516124f1939291906003600160601b0363ffffffff60c01b0319600160601b63ffffffff60c01b0319613419565b600f55600e555b60166015828154811061250d5761250d6146d4565b600091825260208083208454600181810187559585529190932060029283029093018054919092029092019182558201549101555b8061254c816147ba565b915050612427565b50600a54601654101561257957600d805460ff60381b1916600160381b179055612602565b60405163d0a0c44960e01b815273__LRS___________________________________9063d0a0c449906125b190601690600401614a2b565b606060405180830381865af41580156125ce573d6000803e3d6000fd5b505050506040513d601f19601f820116820180604052508101906125f29190614a7a565b8051601255602001516013556011555b600d805463ff00000019166301000000908117918290556040517f6a20a923c3f5f04d3e924da5686c11d64d2945af65dacbf801835c783c351bdd9261265d92810460ff90811692601792600160381b900490911690614ac9565b60405180910390a15050565b60405163426033d960e01b815260009073__Elgamal_______________________________9063426033d9906126a59086908690600401614b05565b602060405180830381865af41580156126c2573d6000803e3d6000fd5b505050506040513d601f19601f820116820180604052508101906126e691906148f0565b90505b92915050565b60008060006126fc613b11565b612704613af7565b600080516020614d988339815191528152600080516020614dd8833981519152602082015260005b86811015612b5357601d600089898481811061274a5761274a6146d4565b905060c00201604001358a8a85818110612766576127666146d4565b905060c0020160600135604051602001612781929190613c95565b60408051601f19818403018152918152815160209283012083528282019390935290820160002082516080810184528154818501908152600183015460608301528152835180850190945260028083015485526003909201548484015291820192909252935073__CPProof_______________________________9063fc888f3d9084906015908c8c8781811061281a5761281a6146d4565b905060c002016060013561282e9190614b30565b8154811061283e5761283e6146d4565b906000526020600020906002020186600001518c8c87818110612863576128636146d4565b905060c002016000018d8d8881811061287e5761287e6146d4565b905060c002016080016040518663ffffffff1660e01b81526004016128a7959493929190614b47565b602060405180830381865af41580156128c4573d6000803e3d6000fd5b505050506040513d601f19601f820116820180604052508101906128e891906145da565b945060018515151461292b5760405162461bcd60e51b815260206004820152600c60248201526b2bb937b733a1a8383937b7b360a11b6044820152606401610780565b73__Elgamal_______________________________636c3c67a184602001518a8a8581811061295c5761295c6146d4565b905060c002016000016040518363ffffffff1660e01b8152600401612982929190614b8b565b602060405180830381865af415801561299f573d6000803e3d6000fd5b505050506040513d601f19601f820116820180604052508101906129c391906148f0565b935073__Shares________________________________63ba9bf368858a8a858181106129f2576129f26146d4565b905060c0020160600135612a208c8c87818110612a1157612a116146d4565b905060c0020160400135612d9b565b6040518463ffffffff1660e01b8152600401612a3e93929190614979565b602060405180830381865af4158015612a5b573d6000803e3d6000fd5b505050506040513d601f19601f82011682018060405250810190612a7f91906145da565b955085612b415760186000898984818110612a9c57612a9c6146d4565b60c002919091016040908101358352602083019390935250016000205460ff16612b41576001601860008a8a85818110612ad857612ad86146d4565b905060c0020160400135815260200190815260200160002060006101000a81548160ff0219169083151502179055506017888883818110612b1b57612b1b6146d4565b835460018101855560009485526020909420604060c09092029390930101359190920155505b80612b4b816147ba565b91505061272c565b50600080516020614db8833981519152600d60059054906101000a900460ff1660176040516111ef929190614956565b6016818154811061070557600080fd5b600d54600160301b900460ff161515600114612be65760405162461bcd60e51b8152602060048201526012602482015271149959da5cdd195c911a5cd85b1b1bddd95960721b6044820152606401610780565b6000858152601b602052604090205460ff1615612c325760405162461bcd60e51b815260206004820152600a602482015269105b1c9958591e50591960b21b6044820152606401610780565b73__Schnorr_______________________________639b8e72c4601a8781548110612c5f57612c5f6146d4565b90600052602060002090600202018585856040518563ffffffff1660e01b8152600401612c8f9493929190614ba6565b602060405180830381865af4158015612cac573d6000803e3d6000fd5b505050506040513d601f19601f82011682018060405250810190612cd091906145da565b1515600114612d155760405162461bcd60e51b8152602060048201526011602482015270125b95985b1a5910dbdb5b5a5d1b595b9d607a1b6044820152606401610780565b601b6020526015805460018101825560009190915284906002027f55f448fdea98c4d29eb340757ef0a66cd03dbb9538908a6a81d96026b71ec47501612d5b828261475e565b50507f3cea875ee19244987b841eab9de965bec31e73abf8846987cd545d5af477c29a84604051612d8c9190614bd3565b60405180910390a15050505050565b60606000600a546001600160401b03811115612db957612db9614473565b604051908082528060200260200182016040528015612df257816020015b612ddf613b36565b815260200190600190039081612dd75790505b50905060005b600a54811015612ecf57601c60008583604051602001612e19929190613c95565b60408051601f198184030181529181528151602092830120835282820193909352908201600020825160e081018452815460a08201908152600183015460c08301528152600282015481840152600382015481850152600482015460608201528351808501909452600582015484526006909101549183019190915260808101919091528251839083908110612eb157612eb16146d4565b60200260200101819052508080612ec7906147ba565b915050612df8565b5092915050565b601754601554606091600091612eec9190614b30565b6001600160401b03811115612f0357612f03614473565b604051908082528060200260200182016040528015612f3c57816020015b612f29613b6b565b815260200190600190039081612f215790505b5090506000805b60155481101561306d5760008181526018602052604090205460ff1661305b57601d600082612f73886002614909565b604051602001612f84929190613c95565b60408051601f198184030181529181528151602092830120835282820193909352908201600020825161012081018452815460e08201908152600183015461010083015260a08201908152845180860186526002840154815260038401548186015260c08301528152600482015481840152600582015481850152600682015460608201528351808501909452600782015484526008909101549183019190915260808101919091528351849084908110613041576130416146d4565b60200260200101819052508180613057906147ba565b9250505b80613065816147ba565b915050612f43565b50909392505050565b600d54600160381b900460ff16156130a05760405162461bcd60e51b8152600401610780906145f7565b600a5460215410156130ea5760405162461bcd60e51b81526020600482015260136024820152724e6f74456e6f7567687375625365637265747360681b6044820152606401610780565b600d5460ff16156131275760405162461bcd60e51b815260206004820152600760248201526615185b1b1a595960ca1b6044820152606401610780565b600a5460165410156131705760405162461bcd60e51b8152602060048201526012602482015271496e73756666696369656e74566f7465727360701b6044820152606401610780565b604051633ee9b07b60e21b815273__Utils_________________________________9063fba6c1ec906131aa908490600e90600401614be1565b602060405180830381865af41580156131c7573d6000803e3d6000fd5b505050506040513d601f19601f820116820180604052508101906131eb91906145da565b151560011461322a5760405162461bcd60e51b815260206004820152600b60248201526a57726f6e675072764b657960a81b6044820152606401610780565b6000805b6023548110156133545773__Elgamal_______________________________63426033d960238381548110613265576132656146d4565b90600052602060002090600c0201600801856040518363ffffffff1660e01b8152600401613294929190614bf5565b602060405180830381865af41580156132b1573d6000803e3d6000fd5b505050506040513d601f19601f820116820180604052508101906132d591906148f0565b6019549092508210156133425781602382815481106132f6576132f66146d4565b90600052602060002090600c0201600201819055506019828154811061331e5761331e6146d4565b60009182526020822060016003909202010180549161333c836147ba565b91905055505b8061334c816147ba565b91505061322e565b50600d805460ff191660011790556040517f86c72f7262d7fbde2f928c8d49c86489c2ab28cd59ad48640e4b6afc261d98009061265d90601990602390614c2d565b60606021805480602002602001604051908101604052809291908181526020016000905b82821015613400578382906000526020600020906002020160405180604001604052908160008201548152602001600182015481525050815260200190600101906133ba565b50505050905090565b6015818154811061070557600080fd5b6000806000806000888b141561346757858061343757613437614d40565b888b0861344d5760008094509450505050613494565b61345b8b8b60018a8a61349f565b91945092509050613480565b6134788b8b60018c8c60018c61363e565b919450925090505b61348c83838389613971565b945094505050505b965096945050505050565b60008080856134b5575086915085905084613633565b600084806134c5576134c5614d40565b898a099050600085806134da576134da614d40565b898a099050600086806134ef576134ef614d40565b898a0990506000878061350457613504614d40565b888061351257613512614d40565b848e0960040990506000888061352a5761352a614d40565b898061353857613538614d40565b8a8061354657613546614d40565b8586098c098a8061355957613559614d40565b87600309089050888061356e5761356e614d40565b898061357c5761357c614d40565b838408613589908b614b30565b8a8061359757613597614d40565b83840908945088806135ab576135ab614d40565b89806135b9576135b9614d40565b8a806135c7576135c7614d40565b8687096008096135d7908b614b30565b8a806135e5576135e5614d40565b8b806135f3576135f3614d40565b6135fd898e614b30565b86088409089350888061361257613612614d40565b898061362057613620614d40565b8c8e096002099497509295509293505050505b955095509592505050565b600080808915801561364e575088155b15613660575085915084905083613964565b8615801561366c575085155b1561367e575088915087905086613964565b613686613b7e565b848061369457613694614d40565b898a09815284806136a7576136a7614d40565b81518a09602082015284806136be576136be614d40565b868709604082015284806136d4576136d4614d40565b60408201518709606082015260408051608081019091528086806136fa576136fa614d40565b60408401518e098152602001868061371457613714614d40565b60608401518d098152602001868061372e5761372e614d40565b83518b098152602001868061374557613745614d40565b60208401518a0990526040810151815191925014158061376d57506060810151602082015114155b6137b95760405162461bcd60e51b815260206004820152601e60248201527f557365206a6163446f75626c652066756e6374696f6e20696e737465616400006044820152606401610780565b6137c1613b7e565b85806137cf576137cf614d40565b82516137db9088614b30565b604084015108815285806137f1576137f1614d40565b60208301516138009088614b30565b6060840151086020820152858061381957613819614d40565b815180096040820152858061383057613830614d40565b815160408301510960608201526000868061384d5761384d614d40565b606083015161385c9089614b30565b888061386a5761386a614d40565b60208501518009089050868061388257613882614d40565b878061389057613890614d40565b888061389e5761389e614d40565b60408501518651096002096138b39089614b30565b82089050600087806138c7576138c7614d40565b88806138d5576138d5614d40565b6138df848b614b30565b8a806138ed576138ed614d40565b6040870151885109086020850151099050878061390c5761390c614d40565b888061391a5761391a614d40565b606085015160208701510961392f908a614b30565b820890506000888061394357613943614d40565b898061395157613951614d40565b8b8f098551099297509095509093505050505b9750975097945050505050565b600080600061398085856139e0565b90506000848061399257613992614d40565b8283099050600085806139a7576139a7614d40565b828a099050600086806139bc576139bc614d40565b87806139ca576139ca614d40565b8486098a09919a91995090975050505050505050565b600082158015906139f15750818314155b80156139fc57508115155b613a395760405162461bcd60e51b815260206004820152600e60248201526d24b73b30b634b210373ab6b132b960911b6044820152606401610780565b6000600183825b8615613aa157613a508783614d56565b9050828680613a6157613a61614d40565b8780613a6f57613a6f614d40565b858409613a7c9089614b30565b8608909450925086613a8e8183614d78565b613a989084614b30565b97509150613a40565b509195945050505050565b828054828255906000526020600020908101928215613ae7579160200282015b82811115613ae7578251825591602001919060010190613acc565b50613af3929150613b9c565b5090565b604051806040016040528060008152602001600081525090565b6040518060400160405280613b24613af7565b8152602001613b31613af7565b905290565b6040518060a00160405280613b49613af7565b8152602001600081526020016000815260200160008152602001613b31613af7565b6040518060a00160405280613b49613b11565b60405180608001604052806004906020820280368337509192915050565b5b80821115613af35760008155600101613b9d565b60008083601f840112613bc357600080fd5b5081356001600160401b03811115613bda57600080fd5b6020830191508360208260051b8501011115613bf557600080fd5b9250929050565b600060408284031215613c0e57600080fd5b50919050565b600080600080600060a08688031215613c2c57600080fd5b853594506020860135935060408601356001600160401b03811115613c5057600080fd5b613c5c88828901613bb1565b9094509250613c7090508760608801613bfc565b90509295509295909350565b600060208284031215613c8e57600080fd5b5035919050565b918252602082015260400190565b600060808284031215613c0e57600080fd5b6000806000806000806101208789031215613ccf57600080fd5b613cd98888613ca3565b95506080870135945060a0870135935060c08701356001600160401b03811115613d0257600080fd5b613d0e89828a01613bb1565b9094509250613d2290508860e08901613bfc565b90509295509295509295565b60008060008060408587031215613d4457600080fd5b84356001600160401b0380821115613d5b57600080fd5b818701915087601f830112613d6f57600080fd5b813581811115613d7e57600080fd5b88602060e083028501011115613d9357600080fd5b602092830196509450908601359080821115613dae57600080fd5b818701915087601f830112613dc257600080fd5b813581811115613dd157600080fd5b88602061012083028501011115613de757600080fd5b95989497505060200194505050565b600060208284031215613e0857600080fd5b81356001600160401b03811115613e1e57600080fd5b82016102208185031215613e3157600080fd5b9392505050565b80518252602090810151910152565b613e52828251613e38565b6020810151613e646040840182613e38565b505050565b600061016082019050888252876020830152866040830152856060830152846080830152613e9a60a0830185613e38565b613ea760e0830184613e47565b98975050505050505050565b600081518084526020808501945080840160005b83811015613ee357815187529582019590820190600101613ec7565b509495945050505050565b600081518084526020808501945080840160005b83811015613ee35781518051885283810151848901526040908101519088015260609096019590820190600101613f02565b600081518084526020808501808196508360051b8101915082860160005b85811015613fe8578284038952815161018081518652868201518787015260408083015181880152506060808301518188015250608080830151818801525060a0808301518282890152613fa883890182613eb3565b9250505060c080830151613fbe82890182613e38565b505060e08201519150613fd5610100870183613e47565b9986019994505090840190600101613f52565b5091979650505050505050565b600081518084526020808501945080840160005b83811015613ee35761401c878351613e38565b6040969096019590820190600101614009565b6020815281516020820152602082015160408201526040820151606082015260608201516080820152608082015160a082015260a082015160c082015260c082015160e0820152600060e083015161010081818501528085015191505061012081818501528085015191505061014081818501528085015191505061032061016081818601526140c3610340860184613eb3565b92508086015190506101808181870152808701519150506101a0818187015280870151915050601f196101c08187860301818801526141028584613eee565b9450808801519250506101e061411b8188018415159052565b87015191506102006141308782018415159052565b87015191506102206141458782018415159052565b870151915061024061415a8782018415159052565b870151915061026061416f8782018415159052565b87015191506102806141848782018415159052565b87015191506102a06141998782018415159052565b87015191506102c06141b5878201846001600160a01b03169052565b808801519250506102e08187860301818801526141d28584613f34565b9450808801519250506103008187860301818801526141f18584613ff5565b9088015187820390920184880152935090506106eb8382613ff5565b60008060006040848603121561422257600080fd5b83356001600160401b0381111561423857600080fd5b61424486828701613bb1565b909790965060209590950135949350505050565b60008060a0838503121561426b57600080fd5b6142758484613ca3565b946080939093013593505050565b6000806020838503121561429657600080fd5b82356001600160401b03808211156142ad57600080fd5b818501915085601f8301126142c157600080fd5b8135818111156142d057600080fd5b86602060c0830285010111156142e557600080fd5b60209290920196919550909350505050565b600080600080600060e0868803121561430f57600080fd5b853594506143208760208801613bfc565b935061432f8760608801613bfc565b9497939650939460a0810135945060c0013592915050565b602080825282518282018190526000919060409081850190868401855b82811015613fe8578151614379858251613e38565b80870151858701528581015160608087019190915281015160808087019190915201516143a960a0860182613e38565b5060e0939093019290850190600101614364565b602080825282518282018190526000919060409081850190868401855b82811015613fe85781516143ef858251613e47565b808701516080868101919091528682015160a0870152606082015160c0870152015161441e60e0860182613e38565b506101209390930192908501906001016143da565b602080825282518282018190526000919060409081850190868401855b82811015613fe857614463848351613e38565b9284019290850190600101614450565b634e487b7160e01b600052604160045260246000fd5b604080519081016001600160401b03811182821017156144b957634e487b7160e01b600052604160045260246000fd5b60405290565b6000604082840312156144d157600080fd5b6144d9614489565b9050813581526020820135602082015292915050565b60006040828403121561450157600080fd5b6126e683836144bf565b6000602080835283518184015280840151604081818601528086015160608601526060860151915061012080608087015261454a610140870184613eb3565b9250608087015161455e60a0880182613e38565b5060a087015161457160e0880182613e38565b5060c0870151868403601f1901918701919091528051808452908401928401906000905b808210156145bc576145a8838651613e38565b938501939183019160019190910190614595565b5090979650505050505050565b80151581146145d757600080fd5b50565b6000602082840312156145ec57600080fd5b8151613e31816145c9565b602080825260199082015278139bdd115b9bdd59da15985b1a5914185c9d1a58da5c185b9d603a1b604082015260600190565b93845260208401929092526040830152606082015260800190565b6020808252600e908201526d135cd9d5d85cd35bd91a599a595960921b604082015260600190565b6020808252600e908201526d57726f6e675369676e617475726560901b604082015260600190565b6000608082840312156146a757600080fd5b6146af614489565b6146b984846144bf565b81526146c884604085016144bf565b60208201529392505050565b634e487b7160e01b600052603260045260246000fd5b600060a082019050825182526020830151602083015260408301516040830152606083015160608301526080830151608083015292915050565b6020808252600e908201526d14da185c995cd55c1b1bd859195960921b604082015260600190565b81358155602082013560018201555050565b614768828261474c565b5050565b614776828261474c565b60408201356002820155606082013560038201556080820135600482015561476860a083016005830161474c565b634e487b7160e01b600052601160045260246000fd5b60006000198214156147ce576147ce6147a4565b5060010190565b6147df828261474c565b6147ef604083016002830161474c565b6080820135600482015560a0820135600582015560c0820135600682015561476860e083016007830161474c565b6020808252600a9082015269105b1c9958591e54d95d60b21b604082015260600190565b6000808335601e1984360301811261485857600080fd5b8301803591506001600160401b0382111561487257600080fd5b6020019150600581901b3603821315613bf557600080fd5b6000808335601e198436030181126148a157600080fd5b8301803591506001600160401b038211156148bb57600080fd5b6020019150600681901b3603821315613bf557600080fd5b6000602082840312156148e557600080fd5b8135613e31816145c9565b60006020828403121561490257600080fd5b5051919050565b6000821982111561491c5761491c6147a4565b500190565b6000815480845260208085019450836000528060002060005b83811015613ee35781548752958201956001918201910161493a565b82151581526040602082015260006149716040830184614921565b949350505050565b60006060808301868452602086818601526040838187015282875180855260809450848801915083890160005b828110156149f75781516149bb858251613e38565b8087015185870152858101518986015288810151888601528701516149e360a0860182613e38565b5060e09390930192908501906001016149a6565b50919b9a5050505050505050505050565b6020815260006126e66020830184613eb3565b8054825260010154602090910152565b60208082528254828201819052600084815291822060409182850191845b82811015614a6e57614a5b8483614a1b565b9284019260029190910190600101614a49565b50919695505050505050565b6000808284036060811215614a8e57600080fd5b835192506040601f1982011215614aa457600080fd5b50614aad614489565b6020840151815260408401516020820152809150509250929050565b8315158152606060208201526000614ae46060830185614921565b90508215156040830152949350505050565b80358252602090810135910152565b60a08101614b138285614af6565b614b236040830160408601614af6565b8260808301529392505050565b600082821015614b4257614b426147a4565b500390565b6101408101614b568288613e38565b614b636040830187614a1b565b614b706080830186613e38565b614b7d60c0830185614af6565b6106eb610100830184614af6565b60808101614b998285613e38565b613e316040830184614af6565b60c08101614bb48287614a1b565b614bc16040830186614af6565b608082019390935260a0015292915050565b604081016126e98284614af6565b82815260608101613e316020830184614a1b565b60a08101614c038285614a1b565b614b236040830160028601614a1b565b614c1d8282614a1b565b6147686040830160028301614a1b565b6000604080830181845280865480835260609250828601915060008881526020808220825b84811015614c815781548652600180830154848801526002830154898801529587019560039092019101614c52565b5050878403818901528854808552898352818320828601945060059082821b87018401905b83861015614d2f57601f198883030187526101808154835260018201548684015260028201548b84015260038201548a840152600482015460808401528060a0840152614cf7818401858401614921565b9050614d0960c0840160068401614a1b565b614d1a610100840160088401614c13565b96850196600196909601959150600c01614ca6565b509c9b505050505050505050505050565b634e487b7160e01b600052601260045260246000fd5b600082614d7357634e487b7160e01b600052601260045260246000fd5b500490565b6000816000190483118215151615614d9257614d926147a4565b50029056fe6b17d1f2e12c4247f8bce6e563a440f277037d812deb33a0f4a13945d898c2963bf5aff1d734f1482917115afcac6550ec2397d0cfa1f1867b742837e8c53b304fe342e2fe1a7f9b8ee7eb4a7c0f9e162bce33576b315ececbb6406837bf51f5c624b66cc0138b8fabc209247f72d758e1cf3343756d543badbf24212bed8c15a26469706673582212203ea5165250882ce4a4ec474ab028e5856fda6c8fdbdae771c19e7a119ec84b7564736f6c634300080a0033",
  "immutableReferences": {},
  "source": "// SPDX-License-Identifier: MIT\r\npragma solidity >=0.5.3 <0.9.0;\r\n\r\nimport \"./Secp256r1.sol\";\r\nimport \"./ECDSA.sol\";\r\nimport \"./Elgamal.sol\";\r\nimport \"./CPProof.sol\";\r\nimport \"./LRS.sol\";\r\nimport \"./Shares.sol\";\r\nimport \"./Utils.sol\";\r\nimport \"./Schnorr.sol\";\r\n\r\ncontract Election {\r\n\r\n    address public owner;\r\n    \r\n    bytes32 public title;\r\n    bytes32 public description;\r\n\r\n    uint public id;\r\n    uint public post_time;\r\n    uint public reg_end_time;\r\n    uint public share_end_time;\r\n    uint public ver_end_time;\r\n    uint public vote_end_time;\r\n    uint public secret_upload_end_time;\r\n    uint public min_shares;\r\n    uint public totatSharesSentCount;\r\n    uint public totalSubSecretSentCount;\r\n\r\n    bool public isVoteTallied;\r\n    bool public isBasicInfoSet;\r\n    bool public isSetUp;\r\n    bool public isVotePubKeySet;\r\n    bool public isECPubKeysAftVerSet;\r\n    bool public isNoSendSharesCheck;\r\n    bool public isRegOn;\r\n    bool public isFailed;\r\n\r\n    Secp256r1.ECPoint public votePubKey;\r\n    \r\n    // store Disqualified public key indece\r\n    mapping(bytes32 => bool) isDisqualifiedPubKeyIndece;\r\n\r\n    // linkable ring signature varaibles \r\n    uint256 public L;\r\n    Secp256r1.ECPoint public H;\r\n    mapping(bytes32 => bool) K_list;\r\n    Secp256r1.ECPoint[] public EC_public_keys;\r\n    Secp256r1.ECPoint[] public ECPubKeysAftVer;\r\n    \r\n    // illegitimate voter : did not upload shares / upload wrong shares\r\n    uint[] public illegitimate_voter_indeces;\r\n    mapping(uint => bool) illegitimate_voters;\r\n\r\n\r\n\r\n    // Store candidates\r\n    Utils.Candidate[] public candidates; \r\n\r\n\r\n\r\n\r\n    // Store Participant Info \r\n    Secp256r1.ECPoint[] public regInfo;\r\n\r\n    mapping(uint=>bool) isReg;\r\n    mapping(bytes32 => Shares.F) F_2d;\r\n    mapping(bytes32 => Shares.f) f_2d;\r\n    mapping(bytes32 => bool) isF_2d;\r\n    mapping(bytes32 => bool) isf_2d;\r\n    mapping(uint => bool) isPiUploadShares;\r\n\r\n    Shares.SubSecret[] public subSecrets;\r\n    mapping(uint => bool) isSubSecrets; \r\n\r\n\r\n\r\n\r\n    // Store ballots\r\n    Utils.Ballot[] public ballots;\r\n\r\n\r\n\r\n    // new Vote Event\r\n    event newVoteEvent(uint totalVoteCount);\r\n    // add Keygen value Event\r\n    event addKeygenValueEvent(uint totatSharesSentCount);\r\n    // add SubSecret Event\r\n    event addSubSecretEvent(uint totalSubSecretSentCount);\r\n    // tally vote Event\r\n    event tallyVoteEvent(Utils.Candidate[] candidates, Utils.Ballot[] ballots);\r\n    // verify shares event \r\n    event verifySharesEvent(bool isNoSendShares,uint[] illegitimate_voter_indeces);\r\n    // set vote pubKey event \r\n    event setVotePubKeyEvent(bool isVotePubKeySet, uint[] illegitimate_voter_indeces, bool isFailed);\r\n    // set election info event\r\n    event setElectionInfoEvent(bool isSetUp);\r\n    // add voter event\r\n    event addVoterEvent(Secp256r1.ECPoint newECPubKey);\r\n\r\n    constructor (uint _id, address _owner){\r\n        id = _id;\r\n        owner = _owner;\r\n    }\r\n\r\n    function addVoter(uint256 _i,Secp256r1.ECPoint calldata _EC_PubKey,\r\n    Secp256r1.ECPoint calldata _R,uint256 _c, uint256 _m   \r\n    ) external{\r\n        require(isRegOn==true,\"RegisterDisallowed\");\r\n        // require(block.timestamp<reg_end_time,\"InvalidTime\");\r\n        require(isReg[_i]==false,\"AlreadyAdd\");\r\n        require(Schnorr.verify(regInfo[_i],_R,_c,_m)==true,\"InValidCommitment\");\r\n        isReg[_i]==true;\r\n        EC_public_keys.push(_EC_PubKey);\r\n        emit addVoterEvent(_EC_PubKey);\r\n    }\r\n\r\n    function setElectionInfo(\r\n        Utils.ElectionSetUpData calldata _data\r\n    ) external{\r\n        require(msg.sender==owner,\"YouAreNotOwner\");\r\n        require(isSetUp==false,\"AlreadySet\");\r\n        // require minimum number of candidates min_shares are 2\r\n        require(_data.candidates.length > 1 && _data.minShares > 1\r\n        ,\"MinNumOfCandidatesAndSharesAre2\");\r\n        \r\n        title = _data.title;\r\n        description = _data.des;\r\n        for(uint i=0;i<_data.candidates.length;i++){\r\n            candidates.push(Utils.Candidate(i,0,_data.candidates[i]));\r\n        }\r\n        for(uint i=0;i<_data.EC_public_keys.length;i++){\r\n            EC_public_keys.push(_data.EC_public_keys[i]);\r\n        }\r\n        min_shares = _data.minShares;\r\n\r\n        post_time = block.timestamp;\r\n        isRegOn = _data.isRegOn;\r\n\r\n        if(isRegOn == true){     \r\n            for(uint i=0;i<_data.regInfo.length;i++){\r\n                regInfo.push(_data.regInfo[i]);\r\n            }\r\n            reg_end_time = post_time + Utils.calc_time(_data.regTime,_data.regTimeUnit); \r\n            share_end_time = reg_end_time + Utils.calc_time(_data.sharesTime,_data.sharesTimeUnit); \r\n        }else{\r\n            share_end_time = post_time + Utils.calc_time(_data.sharesTime,_data.sharesTimeUnit); \r\n        }\r\n\r\n        ver_end_time = share_end_time + Utils.calc_time(_data.verTime,_data.verTimeUnit); \r\n        vote_end_time = ver_end_time + Utils.calc_time(_data.voteTime,_data.voteTimeUnit); \r\n        secret_upload_end_time = vote_end_time + Utils.calc_time(_data.secUploadTime,_data.secUploadTimeUnit); \r\n\r\n        isSetUp = true;\r\n\r\n        emit setElectionInfoEvent(isSetUp);\r\n    }\r\n\r\n    function addSubSecret(uint256[] calldata _subShares, uint256 _i) \r\n    external{\r\n        require(isFailed==false,\"NotEnoughValidParticipant\");\r\n        require(illegitimate_voters[_i] == false,\"DisqualifiedVoter\");\r\n        // require(ECPubKeysAftVer.length>=min_shares,\"InsufficientVoters\");\r\n        // verify secret upload peroid: vote end time <= now < secret_upload_end_time\r\n        // require(vote_end_time<=block.timestamp &&block.timestamp < secret_upload_end_time,\"invalidTime\");\r\n        require(isSubSecrets[_i] == false,\"SubSecretWasUploaded\");\r\n\r\n        uint256 c;\r\n        uint256[] memory tmpShares = new uint256[](ECPubKeysAftVer.length);\r\n        Secp256r1.ECPoint memory G;\r\n        G.x = Secp256r1.GX;\r\n        G.y = Secp256r1.GY;\r\n        for(uint j=0;j<EC_public_keys.length;j++){\r\n            if(!illegitimate_voters[j]){\r\n                // verfiy subshares\r\n                require(Shares.verifySharesVal(\r\n                    _subShares[c],\r\n                    (_i+uint256(2)),getF(j)\r\n                )==true,\"WrongSubShares\");\r\n                // Store subshares\r\n                tmpShares[c] = _subShares[c];\r\n                c++;\r\n            }\r\n        }\r\n\r\n        subSecrets.push(Shares.SubSecret(\r\n            Shares.calcSubSecrets(tmpShares),_i\r\n            ));\r\n        isSubSecrets[_i] = true;\r\n        totalSubSecretSentCount++;\r\n\r\n        emit addSubSecretEvent(totalSubSecretSentCount);\r\n    }\r\n\r\n    // Verifying fi(j)*G == Fi,0 + Fi,1 * j + ... + Fi,2 * j^(t-1)\r\n    function setDisqualifiedPubKeyIndece(Shares.VerSharesPar[] calldata _Par) \r\n    external{\r\n        // verify shares verfication peroid\r\n        // require(share_end_time<= block.timestamp && block.timestamp < ver_end_time,\"WrongVerifyTime\");\r\n\r\n        bool isValidVal;\r\n        bool isValidProof;\r\n        uint256 plaintext;\r\n        Elgamal.Elgamal_ciphertext memory ciphertext;\r\n        Secp256r1.ECPoint memory G;\r\n        G.x = Secp256r1.GX;\r\n        G.y = Secp256r1.GY;\r\n\r\n        for(uint i=0;i<_Par.length;i++){\r\n            ciphertext = f_2d[keccak256(\r\n                    abi.encodePacked(_Par[i].i,_Par[i].j))\r\n                    ].ciphertext;\r\n\r\n            // proof key = s*k*G without knowing s\r\n            isValidProof = CPProof.CPverify(\r\n                G, // g1\r\n                EC_public_keys[_Par[i].j-2], // h1\r\n                ciphertext.C, // g2\r\n                _Par[i].H2, // h2\r\n                _Par[i].proof\r\n            );\r\n            \r\n            require(isValidProof==true,\"WrongCPproof\");\r\n\r\n            // get plaintext by key\r\n            plaintext = Elgamal.elgamal_decryptByPoint(\r\n                ciphertext.D,\r\n                _Par[i].H2\r\n            );\r\n\r\n            // verfiy shares\r\n            isValidVal = Shares.verifySharesVal(\r\n                plaintext,\r\n                _Par[i].j,getF(_Par[i].i)\r\n            );\r\n\r\n            if(!isValidVal){\r\n                if(!illegitimate_voters[_Par[i].i]){\r\n                    illegitimate_voters[_Par[i].i] = true;\r\n                    illegitimate_voter_indeces.push(_Par[i].i);\r\n                }\r\n            }\r\n\r\n        }\r\n        \r\n        emit verifySharesEvent(isNoSendSharesCheck,illegitimate_voter_indeces);\r\n    }\r\n\r\n    function setNoDisVoters() external{\r\n        // verify shares verfication peroid\r\n        // require(share_end_time<= block.timestamp && block.timestamp < ver_end_time,\"WrongVerifyTime\");\r\n\r\n        for(uint i=0;i<EC_public_keys.length;i++){\r\n            // check whether voter sends his polynomail coefficient\r\n            for(uint j=0;j<min_shares;j++){\r\n                if(isF_2d[keccak256(abi.encodePacked(i,j))] == false){\r\n                    if(!illegitimate_voters[i]){\r\n                        illegitimate_voters[i] = true;\r\n                        illegitimate_voter_indeces.push(i);\r\n                    }\r\n                }\r\n            }\r\n            // check whether voter sends his shares to others\r\n            for(uint k=2;k<=(EC_public_keys.length+1);k++){\r\n                if(isf_2d[keccak256(abi.encodePacked(i,k))] == false){\r\n                    if(!illegitimate_voters[i]){\r\n                        illegitimate_voters[i] = true;\r\n                        illegitimate_voter_indeces.push(i);\r\n                    }\r\n                }\r\n            }\r\n        }\r\n        isNoSendSharesCheck = true;\r\n        emit verifySharesEvent(isNoSendSharesCheck,illegitimate_voter_indeces);\r\n    }\r\n\r\n    function setVotePublicKey() external {\r\n        // verify vote peroid\r\n        // require(ver_end_time<= block.timestamp && block.timestamp < vote_end_time,\"WrongVoteTime\");\r\n        require(isVotePubKeySet==false,\"AlreadySet\");\r\n        Secp256r1.ECPoint memory P;\r\n        bool isFirst;\r\n\r\n        for(uint i=0;i<EC_public_keys.length;i++){\r\n            if(!illegitimate_voters[i]){\r\n                // calc vote public key of valid voters\r\n                P = F_2d[keccak256(abi.encodePacked(i,uint256(0)))].p;\r\n                if(!isFirst){\r\n                    votePubKey = P;\r\n                    isFirst = true;\r\n                }else{\r\n                    (votePubKey.x, votePubKey.y) = EllipticCurve.ecAdd(votePubKey.x, votePubKey.y, P.x, P.y, Secp256r1.AA, Secp256r1.PP);\r\n                }\r\n                // filter invalid voter's pubkeys    \r\n                ECPubKeysAftVer.push(EC_public_keys[i]);\r\n            }\r\n        }\r\n\r\n        if(ECPubKeysAftVer.length<min_shares){\r\n            isFailed = true;\r\n        }else{\r\n            // cal L and H for verify LRS\r\n            (L,H) = LRS.calcLAndH(ECPubKeysAftVer);\r\n        }\r\n        isVotePubKeySet = true;\r\n        emit setVotePubKeyEvent(isVotePubKeySet, illegitimate_voter_indeces, isFailed);\r\n    }\r\n\r\n    function getSubSecrets() external view returns(Shares.SubSecret[] memory){\r\n        return subSecrets;\r\n    }\r\n\r\n    function getF(uint _publicKeyIndex) public view returns(Shares.F[] memory){\r\n        Shares.F[] memory _F = new Shares.F[](min_shares); \r\n        for(uint j=0;j<min_shares;j++){\r\n            _F[j] = F_2d[keccak256(abi.encodePacked(_publicKeyIndex,j))];\r\n        }\r\n        return _F;\r\n    }\r\n\r\n    function getf(uint _publicKeyIndex) public view returns(Shares.f[] memory){\r\n        Shares.f[] memory _f = new Shares.f[](EC_public_keys.length-illegitimate_voter_indeces.length);\r\n        uint c; \r\n        for(uint i=0;i<EC_public_keys.length;i++){\r\n            if(!illegitimate_voters[i]){\r\n                _f[c] = f_2d[keccak256(abi.encodePacked(i,_publicKeyIndex+2))];\r\n                c++;\r\n            }\r\n        }   \r\n        return _f;\r\n    }\r\n\r\n    function addShares(Shares.F[] calldata _F, Shares.f[] calldata _f) external{\r\n        // check distribution peroid: now < share_end_time and now > reg_end_time\r\n        // require(block.timestamp < share_end_time && reg_end_time<block.timestamp,\"WrongShareTime\");\r\n\r\n        bytes32 h;\r\n        uint256 hm; // hashed message\r\n        bool isValidSig;\r\n        for(uint z=0;z<min_shares;z++){\r\n            hm = uint256(keccak256(abi.encodePacked(\r\n                _F[z].p.x,_F[z].p.y,_F[z].i,_F[z].j\r\n                )));\r\n            require(hm == _F[z].h,\"MsgWasModified\");\r\n            isValidSig = ECDSA.ecdsa_verify(ECDSA.ECDSA_parameters(\r\n                _F[z].sig.r,_F[z].sig.s,hm,\r\n                EC_public_keys[_F[z].i].x,EC_public_keys[_F[z].i].y\r\n                ));\r\n            require(isValidSig == true,\"WrongSignature\");\r\n            h = keccak256(abi.encodePacked(_F[z].i,_F[z].j));\r\n            require(isF_2d[h] == false,\"SharesUploaded\");\r\n            isF_2d[h] = true;\r\n            F_2d[h] = _F[z];\r\n        }\r\n        for(uint z=0;z<EC_public_keys.length;z++){\r\n            hm = uint256(keccak256(abi.encodePacked(\r\n                _f[z].ciphertext.C.x,_f[z].ciphertext.C.y,\r\n                _f[z].ciphertext.D.x,_f[z].ciphertext.D.y\r\n                ,_f[z].i,_f[z].j\r\n                )));\r\n            require(hm == _f[z].h,\"MsgWasModified\");\r\n            isValidSig = ECDSA.ecdsa_verify(ECDSA.ECDSA_parameters(\r\n                _f[z].sig.r,_f[z].sig.s,hm,\r\n                EC_public_keys[_f[z].i].x,EC_public_keys[_f[z].i].y\r\n                ));\r\n            require(isValidSig == true,\"WrongSignature\");\r\n            h = keccak256(abi.encodePacked(_f[z].i,_f[z].j));\r\n            require(isf_2d[h] == false,\"SharesUploaded\");\r\n            isf_2d[h] = true;\r\n            f_2d[h] = _f[z];\r\n        }\r\n        totatSharesSentCount++;\r\n        emit addKeygenValueEvent(totatSharesSentCount);\r\n    }\r\n\r\n    function verifyLRS(uint256 _encVoteHash,uint256 _U0,\r\n     uint256[] calldata _V, Secp256r1.ECPoint calldata _K) public view returns(bool){\r\n        // verify linkable ring signature\r\n        return LRS.verifyLRS(LRS.LRS_parameters(_encVoteHash,_U0,L,_V,H,_K,ECPubKeysAftVer));\r\n    }\r\n\r\n    function addVote(Elgamal.Elgamal_ciphertext calldata _encVote,uint256 _encVoteHash,\r\n    uint256 _U0, uint256[] calldata _V, Secp256r1.ECPoint calldata _K) \r\n    external{\r\n        require(isFailed==false,\"NotEnoughValidParticipant\");\r\n        // verify vote peroid: key_ver_end_time <= now < vote_end_time\r\n        // require(ver_end_time<= block.timestamp && block.timestamp < vote_end_time,\"WrongVoteTime\");\r\n        \r\n        require(isVotePubKeySet==true,\"SetVotePubKeyFirst\");\r\n\r\n        // require(ECPubKeysAftVer.length>=min_shares,\"InsufficientVoters\");\r\n\r\n        // hash of _K\r\n        bytes32 h = keccak256(abi.encodePacked(_K.x,_K.y));\r\n\r\n        // hash of _K should not exit in K_list\r\n        require(K_list[h] == false,\"YouWasVoted\");\r\n        \r\n        // verify encrypted vote does not modified.\r\n        require(uint256(keccak256(abi.encodePacked(\r\n            _encVote.C.x, _encVote.C.y,  \r\n            _encVote.D.x, _encVote.D.y\r\n            ))) == _encVoteHash,\"MsgWasModified\");\r\n\r\n        // verify linkable ring signature\r\n        bool U = verifyLRS(_encVoteHash,_U0,_V,_K);\r\n\r\n        require(U == true,\"WrongSignature\");\r\n\r\n        // add ballot\r\n        ballots.push(Utils.Ballot(uint(ballots.length),block.timestamp,-1,_encVoteHash,_U0,_V,_K,_encVote));\r\n\r\n        // add _K into K_list\r\n        K_list[h] = true;\r\n\r\n        emit newVoteEvent(uint(ballots.length));\r\n    }\r\n\r\n    // function verfiyVotePrivateKey(uint256 _votePrvKey) public view returns(bool){\r\n    //     return Utils.verfiyVotePrivateKey(_votePrvKey,votePubKey);\r\n    // }\r\n\r\n    function decryptVote(Elgamal.Elgamal_ciphertext calldata _encVote\r\n    , uint256 _votePrvKey) external pure returns(uint256){\r\n        return Elgamal.elgamal_decrypt(_encVote,_votePrvKey);\r\n    }\r\n\r\n    function tallyVote(uint256 _votePrvKey) external{\r\n        require(isFailed==false,\"NotEnoughValidParticipant\");\r\n        require(subSecrets.length>=min_shares,\"NotEnoughsubSecrets\");\r\n        // verify tally time : vote_end_time <= now \r\n        // require(vote_end_time<= block.timestamp,\"WrongTallyTime\");\r\n        // check whether the vote already tallied\r\n        require(isVoteTallied == false,\"Tallied\");\r\n        require(ECPubKeysAftVer.length>=min_shares,\"InsufficientVoters\");\r\n        // require valid vote private key\r\n        require(Utils.verfiyVotePrivateKey(_votePrvKey,votePubKey)==true,\"WrongPrvKey\");\r\n\r\n        uint cID; // candidate ID\r\n\r\n        for(uint i=0; i<ballots.length;i++){\r\n            cID = uint(Elgamal.elgamal_decrypt(ballots[i].encVote,_votePrvKey));\r\n            if(cID<candidates.length){\r\n                ballots[i].candidate_id = int(cID);\r\n                candidates[cID].voteCount++;\r\n            }\r\n        }\r\n        \r\n        isVoteTallied = true;\r\n\r\n        emit tallyVoteEvent(candidates,ballots);\r\n    }\r\n\r\n    function getElectionData() external view returns(Utils.ElectionData memory){\r\n        return Utils.ElectionData(id,post_time,reg_end_time,\r\n        share_end_time,ver_end_time,\r\n        vote_end_time,secret_upload_end_time,min_shares,\r\n        totatSharesSentCount,totalSubSecretSentCount,\r\n        illegitimate_voter_indeces,title,description,candidates\r\n        ,isVoteTallied,isVotePubKeySet,isECPubKeysAftVerSet,\r\n        isSetUp,isNoSendSharesCheck,isRegOn,isFailed,owner,ballots,regInfo,\r\n        EC_public_keys);\r\n    } \r\n}",
  "sourcePath": "C:\\Users\\tim\\Desktop\\e-voting\\src\\contracts\\Election.sol",
  "compiler": {
    "name": "solc",
    "version": "0.8.10+commit.fc410830.Emscripten.clang"
  },
  "schemaVersion": "3.4.4",
  "updatedAt": "2022-04-13T07:16:45.803Z",
  "networkType": "ethereum",
  "devdoc": {
    "kind": "dev",
    "methods": {},
    "version": 1
  },
  "userdoc": {
    "kind": "user",
    "methods": {},
    "version": 1
  }
}