{
  "contractName": "Elgamal",
  "abi": [
    {
      "inputs": [
        {
          "components": [
            {
              "components": [
                {
                  "internalType": "uint256",
                  "name": "x",
                  "type": "uint256"
                },
                {
                  "internalType": "uint256",
                  "name": "y",
                  "type": "uint256"
                }
              ],
              "internalType": "struct Secp256r1.ECPoint",
              "name": "C",
              "type": "tuple"
            },
            {
              "components": [
                {
                  "internalType": "uint256",
                  "name": "x",
                  "type": "uint256"
                },
                {
                  "internalType": "uint256",
                  "name": "y",
                  "type": "uint256"
                }
              ],
              "internalType": "struct Secp256r1.ECPoint",
              "name": "D",
              "type": "tuple"
            }
          ],
          "internalType": "struct Elgamal.Elgamal_ciphertext",
          "name": "_ciphertext",
          "type": "tuple"
        },
        {
          "internalType": "uint256",
          "name": "_votePrvKey",
          "type": "uint256"
        }
      ],
      "name": "elgamal_decrypt",
      "outputs": [
        {
          "internalType": "uint256",
          "name": "",
          "type": "uint256"
        }
      ],
      "stateMutability": "pure",
      "type": "function",
      "constant": true
    },
    {
      "inputs": [
        {
          "components": [
            {
              "internalType": "uint256",
              "name": "x",
              "type": "uint256"
            },
            {
              "internalType": "uint256",
              "name": "y",
              "type": "uint256"
            }
          ],
          "internalType": "struct Secp256r1.ECPoint",
          "name": "_D",
          "type": "tuple"
        },
        {
          "components": [
            {
              "internalType": "uint256",
              "name": "x",
              "type": "uint256"
            },
            {
              "internalType": "uint256",
              "name": "y",
              "type": "uint256"
            }
          ],
          "internalType": "struct Secp256r1.ECPoint",
          "name": "_CC",
          "type": "tuple"
        }
      ],
      "name": "elgamal_decryptByPoint",
      "outputs": [
        {
          "internalType": "uint256",
          "name": "",
          "type": "uint256"
        }
      ],
      "stateMutability": "pure",
      "type": "function",
      "constant": true
    }
  ],
  "bytecode": "0x610abf61003a600b82828239805160001a60731461002d57634e487b7160e01b600052600060045260246000fd5b30600052607381538281f3fe73000000000000000000000000000000000000000030146080604052600436106100405760003560e01c8063426033d9146100455780636c3c67a11461006a575b600080fd5b610058610053366004610981565b61007d565b60405190815260200160405180910390f35b6100586100783660046109ca565b61014a565b6000610087610949565b61008f610949565b610097610949565b6100c885873560208901356003600160601b0363ffffffff60c01b0319600160601b63ffffffff60c01b03196101d4565b602085018190528185526100eb9190600160601b63ffffffff60c01b031961020e565b6020840181905281845261012c9160408901359160608a013591906003600160601b0363ffffffff60c01b0319600160601b63ffffffff60c01b0319610233565b602083015280825261014090600190610a15565b9695505050505050565b6000610154610949565b61015c610949565b61017a84356020860135600160601b63ffffffff60c01b031961020e565b60208085018290528285526101b79288359291890135916003600160601b0363ffffffff60c01b0319600160601b63ffffffff60c01b0319610233565b60208301528082526101cb90600190610a15565b95945050505050565b60008060008060006101eb8a8a8a60018b8b6102b9565b9250925092506101fd83838389610337565b945094505050509550959350505050565b600080848361021d8682610a15565b6102279190610a42565b91509150935093915050565b6000806000806000888b141561028157858061025157610251610a2c565b888b0861026757600080945094505050506102ae565b6102758b8b60018a8a6103a6565b9194509250905061029a565b6102928b8b60018c8c60018c610545565b919450925090505b6102a683838389610337565b945094505050505b965096945050505050565b60008080886102cf57508691508590508461032b565b8860008060015b83156103225760018416156102fc576102f48383838f8f8f8e610545565b919450925090505b610307600285610a56565b93506103168c8c8c8c8c6103a6565b919d509b5099506102d6565b91955093509150505b96509650969350505050565b6000806000610346858561087d565b90506000848061035857610358610a2c565b82830990506000858061036d5761036d610a2c565b828a0990506000868061038257610382610a2c565b878061039057610390610a2c565b8486098a09919a91995090975050505050505050565b60008080856103bc57508691508590508461053a565b600084806103cc576103cc610a2c565b898a099050600085806103e1576103e1610a2c565b898a099050600086806103f6576103f6610a2c565b898a0990506000878061040b5761040b610a2c565b888061041957610419610a2c565b848e0960040990506000888061043157610431610a2c565b898061043f5761043f610a2c565b8a8061044d5761044d610a2c565b8586098c098a8061046057610460610a2c565b87600309089050888061047557610475610a2c565b898061048357610483610a2c565b838408610490908b610a15565b8a8061049e5761049e610a2c565b83840908945088806104b2576104b2610a2c565b89806104c0576104c0610a2c565b8a806104ce576104ce610a2c565b8687096008096104de908b610a15565b8a806104ec576104ec610a2c565b8b806104fa576104fa610a2c565b610504898e610a15565b86088409089350888061051957610519610a2c565b898061052757610527610a2c565b8c8e096002099497509295509293505050505b955095509592505050565b6000808089158015610555575088155b15610567575085915084905083610870565b86158015610573575085155b15610585575088915087905086610870565b61058d610963565b848061059b5761059b610a2c565b898a09815284806105ae576105ae610a2c565b81518a09602082015284806105c5576105c5610a2c565b868709604082015284806105db576105db610a2c565b604082015187096060820152604080516080810190915280868061060157610601610a2c565b60408401518e098152602001868061061b5761061b610a2c565b60608401518d098152602001868061063557610635610a2c565b83518b098152602001868061064c5761064c610a2c565b60208401518a0990526040810151815191925014158061067457506060810151602082015114155b6106c55760405162461bcd60e51b815260206004820152601e60248201527f557365206a6163446f75626c652066756e6374696f6e20696e7374656164000060448201526064015b60405180910390fd5b6106cd610963565b85806106db576106db610a2c565b82516106e79088610a15565b604084015108815285806106fd576106fd610a2c565b602083015161070c9088610a15565b6060840151086020820152858061072557610725610a2c565b815180096040820152858061073c5761073c610a2c565b815160408301510960608201526000868061075957610759610a2c565b60608301516107689089610a15565b888061077657610776610a2c565b60208501518009089050868061078e5761078e610a2c565b878061079c5761079c610a2c565b88806107aa576107aa610a2c565b60408501518651096002096107bf9089610a15565b82089050600087806107d3576107d3610a2c565b88806107e1576107e1610a2c565b6107eb848b610a15565b8a806107f9576107f9610a2c565b6040870151885109086020850151099050878061081857610818610a2c565b888061082657610826610a2c565b606085015160208701510961083b908a610a15565b820890506000888061084f5761084f610a2c565b898061085d5761085d610a2c565b8b8f098551099297509095509093505050505b9750975097945050505050565b6000821580159061088e5750818314155b801561089957508115155b6108d65760405162461bcd60e51b815260206004820152600e60248201526d24b73b30b634b210373ab6b132b960911b60448201526064016106bc565b6000600183825b861561093e576108ed8783610a56565b90508286806108fe576108fe610a2c565b878061090c5761090c610a2c565b8584096109199089610a15565b860890945092508661092b8183610a6a565b6109359084610a15565b975091506108dd565b509195945050505050565b604051806040016040528060008152602001600081525090565b60405180608001604052806004906020820280368337509192915050565b60008082840360a081121561099557600080fd5b60808112156109a357600080fd5b50919360808501359350915050565b6000604082840312156109c457600080fd5b50919050565b600080608083850312156109dd57600080fd5b6109e784846109b2565b91506109f684604085016109b2565b90509250929050565b634e487b7160e01b600052601160045260246000fd5b600082821015610a2757610a276109ff565b500390565b634e487b7160e01b600052601260045260246000fd5b600082610a5157610a51610a2c565b500690565b600082610a6557610a65610a2c565b500490565b6000816000190483118215151615610a8457610a846109ff565b50029056fea2646970667358221220d7d4d8eb2bfda259333f72cc6abdfb7cff3ac7d8126d418a10f38b8b952b1fc064736f6c634300080a0033",
  "immutableReferences": {},
  "source": "// SPDX-License-Identifier: MIT\r\n\r\npragma solidity >=0.5.3 <0.9.0;\r\n\r\nimport \"./EllipticCurve.sol\";\r\nimport \"./Secp256r1.sol\";\r\n\r\nlibrary Elgamal{\r\n    struct Elgamal_ciphertext{\r\n        Secp256r1.ECPoint C;\r\n        Secp256r1.ECPoint D;\r\n    }\r\n\r\n    function elgamal_decrypt(Elgamal_ciphertext calldata _ciphertext, uint256 _votePrvKey)\r\n    external pure returns (uint256){\r\n        Secp256r1.ECPoint memory CC;\r\n        Secp256r1.ECPoint memory CC_neg;\r\n        Secp256r1.ECPoint memory Pm;\r\n\r\n        (CC.x, CC.y) = EllipticCurve.ecMul(_votePrvKey,_ciphertext.C.x,_ciphertext.C.y,Secp256r1.AA,Secp256r1.PP);\r\n        (CC_neg.x, CC_neg.y) = EllipticCurve.ecInv(CC.x, CC.y, Secp256r1.PP);\r\n        (Pm.x,Pm.y) = EllipticCurve.ecAdd(_ciphertext.D.x,_ciphertext.D.y,CC_neg.x,CC_neg.y,Secp256r1.AA,Secp256r1.PP);\r\n        \r\n        return Pm.x - uint256(1);\r\n    }\r\n\r\n    function elgamal_decryptByPoint(Secp256r1.ECPoint calldata _D, Secp256r1.ECPoint calldata _CC)\r\n    external pure returns (uint256){\r\n        Secp256r1.ECPoint memory CC_neg;\r\n        Secp256r1.ECPoint memory Pm;\r\n\r\n        (CC_neg.x,CC_neg.y) = EllipticCurve.ecInv(_CC.x, _CC.y, Secp256r1.PP);\r\n        (Pm.x,Pm.y) = EllipticCurve.ecAdd(_D.x,_D.y,CC_neg.x,CC_neg.y,Secp256r1.AA,Secp256r1.PP);\r\n    \r\n        return Pm.x - uint256(1);\r\n    }\r\n}",
  "sourcePath": "C:\\Users\\tim\\Desktop\\e-voting\\src\\contracts\\Elgamal.sol",
  "compiler": {
    "name": "solc",
    "version": "0.8.10+commit.fc410830.Emscripten.clang"
  },
  "schemaVersion": "3.4.4",
  "updatedAt": "2022-04-13T07:16:45.739Z",
  "networkType": "ethereum",
  "devdoc": {
    "kind": "dev",
    "methods": {},
    "version": 1
  },
  "userdoc": {
    "kind": "user",
    "methods": {},
    "version": 1
  }
}