{
  "contractName": "LRS",
  "abi": [
    {
      "inputs": [
        {
          "components": [
            {
              "internalType": "uint256",
              "name": "message",
              "type": "uint256"
            },
            {
              "internalType": "uint256",
              "name": "U0",
              "type": "uint256"
            },
            {
              "internalType": "uint256",
              "name": "L",
              "type": "uint256"
            },
            {
              "internalType": "uint256[]",
              "name": "V",
              "type": "uint256[]"
            },
            {
              "components": [
                {
                  "internalType": "uint256",
                  "name": "x",
                  "type": "uint256"
                },
                {
                  "internalType": "uint256",
                  "name": "y",
                  "type": "uint256"
                }
              ],
              "internalType": "struct Secp256r1.ECPoint",
              "name": "H",
              "type": "tuple"
            },
            {
              "components": [
                {
                  "internalType": "uint256",
                  "name": "x",
                  "type": "uint256"
                },
                {
                  "internalType": "uint256",
                  "name": "y",
                  "type": "uint256"
                }
              ],
              "internalType": "struct Secp256r1.ECPoint",
              "name": "K",
              "type": "tuple"
            },
            {
              "components": [
                {
                  "internalType": "uint256",
                  "name": "x",
                  "type": "uint256"
                },
                {
                  "internalType": "uint256",
                  "name": "y",
                  "type": "uint256"
                }
              ],
              "internalType": "struct Secp256r1.ECPoint[]",
              "name": "EC_public_keys",
              "type": "tuple[]"
            }
          ],
          "internalType": "struct LRS.LRS_parameters",
          "name": "_LRS",
          "type": "tuple"
        }
      ],
      "name": "verifyLRS",
      "outputs": [
        {
          "internalType": "bool",
          "name": "",
          "type": "bool"
        }
      ],
      "stateMutability": "pure",
      "type": "function",
      "constant": true
    }
  ],
  "bytecode": "0x610d5a61003a600b82828239805160001a60731461002d57634e487b7160e01b600052600060045260246000fd5b30600052607381538281f3fe73000000000000000000000000000000000000000030146080604052600436106100355760003560e01c8063eb6100261461003a575b600080fd5b61004d610048366004610b6e565b610061565b604051901515815260200160405180910390f35b6000602082013581610071610b36565b610079610b36565b610081610b36565b610089610b36565b610091610b36565b610099610b36565b60005b6100aa6101008c018c610bb0565b90508110156103cf576101426100c360608d018d610c00565b838181106100d3576100d3610c49565b905060200201357f6b17d1f2e12c4247f8bce6e563a440f277037d812deb33a0f4a13945d898c2967f4fe342e2fe1a7f9b8ee7eb4a7c0f9e162bce33576b315ececbb6406837bf51f56003600160601b0363ffffffff60c01b0319600160601b63ffffffff60c01b03196103e6565b602089015287526101c38961015b6101008e018e610bb0565b8481811061016b5761016b610c49565b604002919091013590506101836101008f018f610bb0565b8581811061019357610193610c49565b905060400201602001356003600160601b0363ffffffff60c01b0319600160601b63ffffffff60c01b03196103e6565b602088015286526102246101da60608d018d610c00565b838181106101ea576101ea610c49565b6020029190910135905060808d013560a08e01356003600160601b0363ffffffff60c01b0319600160601b63ffffffff60c01b03196103e6565b6020870152855261025f8960c08d013560e08e01356003600160601b0363ffffffff60c01b0319600160601b63ffffffff60c01b03196103e6565b6020808701919091529085528751888201518851928901516102a293906003600160601b0363ffffffff60c01b0319600160601b63ffffffff60c01b0319610420565b6020808601919091529084528551868201518651928701516102e593906003600160601b0363ffffffff60c01b0319600160601b63ffffffff60c01b0319610420565b6020840152825260408b01359750600080516020610d058339815191528060e08d013560c08e01350889089750600080516020610d0583398151915261033a600080516020610d058339815191528d35610c75565b89089750600080516020610d0583398151915280602085015185510889089750600080516020610d0583398151915280602084015184510889089750600080516020610d058339815191528860405160200161039891815260200190565b6040516020818303038152906040528051906020012060001c6103bb9190610c75565b9850806103c781610c9f565b91505061009c565b508960200135881498505050505050505050919050565b60008060008060006103fd8a8a8a60018b8b6104a6565b92509250925061040f83838389610524565b945094505050509550959350505050565b6000806000806000888b141561046e57858061043e5761043e610c5f565b888b08610454576000809450945050505061049b565b6104628b8b60018a8a610593565b91945092509050610487565b61047f8b8b60018c8c60018c610732565b919450925090505b61049383838389610524565b945094505050505b965096945050505050565b60008080886104bc575086915085905084610518565b8860008060015b831561050f5760018416156104e9576104e18383838f8f8f8e610732565b919450925090505b6104f4600285610cba565b93506105038c8c8c8c8c610593565b919d509b5099506104c3565b91955093509150505b96509650969350505050565b60008060006105338585610a6a565b90506000848061054557610545610c5f565b82830990506000858061055a5761055a610c5f565b828a0990506000868061056f5761056f610c5f565b878061057d5761057d610c5f565b8486098a09919a91995090975050505050505050565b60008080856105a9575086915085905084610727565b600084806105b9576105b9610c5f565b898a099050600085806105ce576105ce610c5f565b898a099050600086806105e3576105e3610c5f565b898a099050600087806105f8576105f8610c5f565b888061060657610606610c5f565b848e0960040990506000888061061e5761061e610c5f565b898061062c5761062c610c5f565b8a8061063a5761063a610c5f565b8586098c098a8061064d5761064d610c5f565b87600309089050888061066257610662610c5f565b898061067057610670610c5f565b83840861067d908b610cce565b8a8061068b5761068b610c5f565b838409089450888061069f5761069f610c5f565b89806106ad576106ad610c5f565b8a806106bb576106bb610c5f565b8687096008096106cb908b610cce565b8a806106d9576106d9610c5f565b8b806106e7576106e7610c5f565b6106f1898e610cce565b86088409089350888061070657610706610c5f565b898061071457610714610c5f565b8c8e096002099497509295509293505050505b955095509592505050565b6000808089158015610742575088155b15610754575085915084905083610a5d565b86158015610760575085155b15610772575088915087905086610a5d565b61077a610b50565b848061078857610788610c5f565b898a098152848061079b5761079b610c5f565b81518a09602082015284806107b2576107b2610c5f565b868709604082015284806107c8576107c8610c5f565b60408201518709606082015260408051608081019091528086806107ee576107ee610c5f565b60408401518e098152602001868061080857610808610c5f565b60608401518d098152602001868061082257610822610c5f565b83518b098152602001868061083957610839610c5f565b60208401518a0990526040810151815191925014158061086157506060810151602082015114155b6108b25760405162461bcd60e51b815260206004820152601e60248201527f557365206a6163446f75626c652066756e6374696f6e20696e7374656164000060448201526064015b60405180910390fd5b6108ba610b50565b85806108c8576108c8610c5f565b82516108d49088610cce565b604084015108815285806108ea576108ea610c5f565b60208301516108f99088610cce565b6060840151086020820152858061091257610912610c5f565b815180096040820152858061092957610929610c5f565b815160408301510960608201526000868061094657610946610c5f565b60608301516109559089610cce565b888061096357610963610c5f565b60208501518009089050868061097b5761097b610c5f565b878061098957610989610c5f565b888061099757610997610c5f565b60408501518651096002096109ac9089610cce565b82089050600087806109c0576109c0610c5f565b88806109ce576109ce610c5f565b6109d8848b610cce565b8a806109e6576109e6610c5f565b60408701518851090860208501510990508780610a0557610a05610c5f565b8880610a1357610a13610c5f565b6060850151602087015109610a28908a610cce565b8208905060008880610a3c57610a3c610c5f565b8980610a4a57610a4a610c5f565b8b8f098551099297509095509093505050505b9750975097945050505050565b60008215801590610a7b5750818314155b8015610a8657508115155b610ac35760405162461bcd60e51b815260206004820152600e60248201526d24b73b30b634b210373ab6b132b960911b60448201526064016108a9565b6000600183825b8615610b2b57610ada8783610cba565b9050828680610aeb57610aeb610c5f565b8780610af957610af9610c5f565b858409610b069089610cce565b8608909450925086610b188183610ce5565b610b229084610cce565b97509150610aca565b509195945050505050565b604051806040016040528060008152602001600081525090565b60405180608001604052806004906020820280368337509192915050565b600060208284031215610b8057600080fd5b81356001600160401b03811115610b9657600080fd5b82016101208185031215610ba957600080fd5b9392505050565b6000808335601e19843603018112610bc757600080fd5b8301803591506001600160401b03821115610be157600080fd5b6020019150600681901b3603821315610bf957600080fd5b9250929050565b6000808335601e19843603018112610c1757600080fd5b8301803591506001600160401b03821115610c3157600080fd5b6020019150600581901b3603821315610bf957600080fd5b634e487b7160e01b600052603260045260246000fd5b634e487b7160e01b600052601260045260246000fd5b600082610c8457610c84610c5f565b500690565b634e487b7160e01b600052601160045260246000fd5b6000600019821415610cb357610cb3610c89565b5060010190565b600082610cc957610cc9610c5f565b500490565b600082821015610ce057610ce0610c89565b500390565b6000816000190483118215151615610cff57610cff610c89565b50029056feffffffff00000000ffffffffffffffffbce6faada7179e84f3b9cac2fc632551a26469706673582212201dfd0098316dee660c89cd9ab9a7315c5a77f42195ddc6a3d93b6361fce415b164736f6c634300080a0033",
  "immutableReferences": {},
  "source": "// SPDX-License-Identifier: MIT\r\n\r\npragma solidity >=0.5.3 <0.9.0;\r\n\r\nimport \"./EllipticCurve.sol\";\r\nimport './Secp256r1.sol';\r\n\r\nlibrary LRS{\r\n\r\n    // linkable ring signature parameters\r\n    struct LRS_parameters{\r\n        uint256 message; \r\n        uint256 U0;\r\n        uint256 L;\r\n        uint256[] V;\r\n        Secp256r1.ECPoint H;\r\n        Secp256r1.ECPoint K;\r\n        Secp256r1.ECPoint[] EC_public_keys;  \r\n    }\r\n\r\n    function verifyLRS(LRS_parameters calldata _LRS) \r\n    external pure returns(bool){\r\n        uint256 U = _LRS.U0;\r\n        uint256 n;\r\n        Secp256r1.ECPoint memory vG;\r\n        Secp256r1.ECPoint memory uY;\r\n        Secp256r1.ECPoint memory vH;\r\n        Secp256r1.ECPoint memory uK;\r\n        Secp256r1.ECPoint memory vG_add_uY;\r\n        Secp256r1.ECPoint memory vH_add_uK;\r\n\r\n        for(uint i=0;i<_LRS.EC_public_keys.length;i++){\r\n            (vG.x,vG.y) = EllipticCurve.ecMul(_LRS.V[i],Secp256r1.GX,Secp256r1.GY,Secp256r1.AA,Secp256r1.PP);\r\n            (uY.x,uY.y) = EllipticCurve.ecMul(U,_LRS.EC_public_keys[i].x,_LRS.EC_public_keys[i].y,Secp256r1.AA,Secp256r1.PP);\r\n            (vH.x,vH.y) = EllipticCurve.ecMul(_LRS.V[i],_LRS.H.x,_LRS.H.y,Secp256r1.AA,Secp256r1.PP);            \r\n            (uK.x,uK.y) = EllipticCurve.ecMul(U,_LRS.K.x,_LRS.K.y,Secp256r1.AA,Secp256r1.PP);\r\n            (vG_add_uY.x, vG_add_uY.y) = EllipticCurve.ecAdd(vG.x,vG.y,uY.x,uY.y,Secp256r1.AA,Secp256r1.PP);\r\n            (vH_add_uK.x, vH_add_uK.y) = EllipticCurve.ecAdd(vH.x,vH.y,uK.x,uK.y,Secp256r1.AA,Secp256r1.PP);\r\n            \r\n            n = _LRS.L;\r\n            n = addmod(n,addmod(_LRS.K.x, _LRS.K.y, Secp256r1.NN),Secp256r1.NN);\r\n            n = addmod(n,_LRS.message % Secp256r1.NN,Secp256r1.NN);\r\n            n = addmod(n,addmod(vG_add_uY.x, vG_add_uY.y, Secp256r1.NN),Secp256r1.NN);\r\n            n = addmod(n,addmod(vH_add_uK.x, vH_add_uK.y, Secp256r1.NN),Secp256r1.NN);\r\n\r\n            U = uint256(keccak256(abi.encode(n))) % Secp256r1.NN;\r\n        }\r\n\r\n        return U == _LRS.U0;\r\n    }\r\n}",
  "sourcePath": "C:\\Users\\tim\\Desktop\\e-voting\\src\\contracts\\LRS.sol",
  "compiler": {
    "name": "solc",
    "version": "0.8.10+commit.fc410830.Emscripten.clang"
  },
  "schemaVersion": "3.4.4",
  "updatedAt": "2022-02-07T06:16:57.090Z",
  "networkType": "ethereum",
  "devdoc": {
    "kind": "dev",
    "methods": {},
    "version": 1
  },
  "userdoc": {
    "kind": "user",
    "methods": {},
    "version": 1
  }
}