{
  "contractName": "LRS",
  "abi": [
    {
      "inputs": [
        {
          "components": [
            {
              "internalType": "uint256",
              "name": "x",
              "type": "uint256"
            },
            {
              "internalType": "uint256",
              "name": "y",
              "type": "uint256"
            }
          ],
          "internalType": "struct Secp256r1.ECPoint[]",
          "name": "_P",
          "type": "tuple[]"
        }
      ],
      "name": "calcLAndH",
      "outputs": [
        {
          "internalType": "uint256",
          "name": "L",
          "type": "uint256"
        },
        {
          "components": [
            {
              "internalType": "uint256",
              "name": "x",
              "type": "uint256"
            },
            {
              "internalType": "uint256",
              "name": "y",
              "type": "uint256"
            }
          ],
          "internalType": "struct Secp256r1.ECPoint",
          "name": "H",
          "type": "tuple"
        }
      ],
      "stateMutability": "pure",
      "type": "function",
      "constant": true
    },
    {
      "inputs": [
        {
          "components": [
            {
              "internalType": "uint256",
              "name": "message",
              "type": "uint256"
            },
            {
              "internalType": "uint256",
              "name": "U0",
              "type": "uint256"
            },
            {
              "internalType": "uint256",
              "name": "L",
              "type": "uint256"
            },
            {
              "internalType": "uint256[]",
              "name": "V",
              "type": "uint256[]"
            },
            {
              "components": [
                {
                  "internalType": "uint256",
                  "name": "x",
                  "type": "uint256"
                },
                {
                  "internalType": "uint256",
                  "name": "y",
                  "type": "uint256"
                }
              ],
              "internalType": "struct Secp256r1.ECPoint",
              "name": "H",
              "type": "tuple"
            },
            {
              "components": [
                {
                  "internalType": "uint256",
                  "name": "x",
                  "type": "uint256"
                },
                {
                  "internalType": "uint256",
                  "name": "y",
                  "type": "uint256"
                }
              ],
              "internalType": "struct Secp256r1.ECPoint",
              "name": "K",
              "type": "tuple"
            },
            {
              "components": [
                {
                  "internalType": "uint256",
                  "name": "x",
                  "type": "uint256"
                },
                {
                  "internalType": "uint256",
                  "name": "y",
                  "type": "uint256"
                }
              ],
              "internalType": "struct Secp256r1.ECPoint[]",
              "name": "EC_public_keys",
              "type": "tuple[]"
            }
          ],
          "internalType": "struct LRS.LRS_parameters",
          "name": "_LRS",
          "type": "tuple"
        }
      ],
      "name": "verifyLRS",
      "outputs": [
        {
          "internalType": "bool",
          "name": "",
          "type": "bool"
        }
      ],
      "stateMutability": "pure",
      "type": "function",
      "constant": true
    }
  ],
  "bytecode": "0x610f6761003a600b82828239805160001a60731461002d57634e487b7160e01b600052600060045260246000fd5b30600052607381538281f3fe73000000000000000000000000000000000000000030146080604052600436106100405760003560e01c8063d0a0c44914610045578063eb6100261461007f575b600080fd5b610058610053366004610cc7565b6100a2565b60408051928352815160208085019190915290910151908201526060015b60405180910390f35b61009261008d366004610d3b565b6101de565b6040519015158152602001610076565b60006100ac610c8f565b60008060005b8581101561012a57600080516020610ef28339815191528787838181106100db576100db610d93565b905060400201602001358888848181106100f7576100f7610d93565b90506040020160000135089250600080516020610ef283398151915283860894508061012281610dbf565b9150506100b2565b50600080516020610ef28339815191528460405160200161014d91815260200190565b6040516020818303038152906040528051906020012060001c6101709190610dda565b90506000806101bd83600080516020610ed2833981519152600080516020610f128339815191526003600160601b0363ffffffff60c01b0319600160601b63ffffffff60c01b031961053f565b60408051808201909152918252602082015295989597509495505050505050565b60006020820135816101ee610c8f565b6101f6610c8f565b6101fe610c8f565b610206610c8f565b61020e610c8f565b610216610c8f565b60005b6102276101008c018c610dee565b90508110156105285761029b61024060608d018d610e3e565b8381811061025057610250610d93565b90506020020135600080516020610ed2833981519152600080516020610f128339815191526003600160601b0363ffffffff60c01b0319600160601b63ffffffff60c01b031961053f565b6020890152875261031c896102b46101008e018e610dee565b848181106102c4576102c4610d93565b604002919091013590506102dc6101008f018f610dee565b858181106102ec576102ec610d93565b905060400201602001356003600160601b0363ffffffff60c01b0319600160601b63ffffffff60c01b031961053f565b6020880152865261037d61033360608d018d610e3e565b8381811061034357610343610d93565b6020029190910135905060808d013560a08e01356003600160601b0363ffffffff60c01b0319600160601b63ffffffff60c01b031961053f565b602087015285526103b88960c08d013560e08e01356003600160601b0363ffffffff60c01b0319600160601b63ffffffff60c01b031961053f565b6020808701919091529085528751888201518851928901516103fb93906003600160601b0363ffffffff60c01b0319600160601b63ffffffff60c01b0319610579565b60208086019190915290845285518682015186519287015161043e93906003600160601b0363ffffffff60c01b0319600160601b63ffffffff60c01b0319610579565b6020840152825260408b01359750600080516020610ef28339815191528060e08d013560c08e01350889089750600080516020610ef2833981519152610493600080516020610ef28339815191528d35610dda565b89089750600080516020610ef283398151915280602085015185510889089750600080516020610ef283398151915280602084015184510889089750600080516020610ef2833981519152886040516020016104f191815260200190565b6040516020818303038152906040528051906020012060001c6105149190610dda565b98508061052081610dbf565b915050610219565b508960200135881498505050505050505050919050565b60008060008060006105568a8a8a60018b8b6105ff565b9250925092506105688383838961067d565b945094505050509550959350505050565b6000806000806000888b14156105c757858061059757610597610d7d565b888b086105ad57600080945094505050506105f4565b6105bb8b8b60018a8a6106ec565b919450925090506105e0565b6105d88b8b60018c8c60018c61088b565b919450925090505b6105ec8383838961067d565b945094505050505b965096945050505050565b6000808088610615575086915085905084610671565b8860008060015b83156106685760018416156106425761063a8383838f8f8f8e61088b565b919450925090505b61064d600285610e87565b935061065c8c8c8c8c8c6106ec565b919d509b50995061061c565b91955093509150505b96509650969350505050565b600080600061068c8585610bc3565b90506000848061069e5761069e610d7d565b8283099050600085806106b3576106b3610d7d565b828a099050600086806106c8576106c8610d7d565b87806106d6576106d6610d7d565b8486098a09919a91995090975050505050505050565b6000808085610702575086915085905084610880565b6000848061071257610712610d7d565b898a0990506000858061072757610727610d7d565b898a0990506000868061073c5761073c610d7d565b898a0990506000878061075157610751610d7d565b888061075f5761075f610d7d565b848e0960040990506000888061077757610777610d7d565b898061078557610785610d7d565b8a8061079357610793610d7d565b8586098c098a806107a6576107a6610d7d565b8760030908905088806107bb576107bb610d7d565b89806107c9576107c9610d7d565b8384086107d6908b610e9b565b8a806107e4576107e4610d7d565b83840908945088806107f8576107f8610d7d565b898061080657610806610d7d565b8a8061081457610814610d7d565b868709600809610824908b610e9b565b8a8061083257610832610d7d565b8b8061084057610840610d7d565b61084a898e610e9b565b86088409089350888061085f5761085f610d7d565b898061086d5761086d610d7d565b8c8e096002099497509295509293505050505b955095509592505050565b600080808915801561089b575088155b156108ad575085915084905083610bb6565b861580156108b9575085155b156108cb575088915087905086610bb6565b6108d3610ca9565b84806108e1576108e1610d7d565b898a09815284806108f4576108f4610d7d565b81518a096020820152848061090b5761090b610d7d565b8687096040820152848061092157610921610d7d565b604082015187096060820152604080516080810190915280868061094757610947610d7d565b60408401518e098152602001868061096157610961610d7d565b60608401518d098152602001868061097b5761097b610d7d565b83518b098152602001868061099257610992610d7d565b60208401518a099052604081015181519192501415806109ba57506060810151602082015114155b610a0b5760405162461bcd60e51b815260206004820152601e60248201527f557365206a6163446f75626c652066756e6374696f6e20696e7374656164000060448201526064015b60405180910390fd5b610a13610ca9565b8580610a2157610a21610d7d565b8251610a2d9088610e9b565b60408401510881528580610a4357610a43610d7d565b6020830151610a529088610e9b565b60608401510860208201528580610a6b57610a6b610d7d565b8151800960408201528580610a8257610a82610d7d565b8151604083015109606082015260008680610a9f57610a9f610d7d565b6060830151610aae9089610e9b565b8880610abc57610abc610d7d565b602085015180090890508680610ad457610ad4610d7d565b8780610ae257610ae2610d7d565b8880610af057610af0610d7d565b6040850151865109600209610b059089610e9b565b8208905060008780610b1957610b19610d7d565b8880610b2757610b27610d7d565b610b31848b610e9b565b8a80610b3f57610b3f610d7d565b60408701518851090860208501510990508780610b5e57610b5e610d7d565b8880610b6c57610b6c610d7d565b6060850151602087015109610b81908a610e9b565b8208905060008880610b9557610b95610d7d565b8980610ba357610ba3610d7d565b8b8f098551099297509095509093505050505b9750975097945050505050565b60008215801590610bd45750818314155b8015610bdf57508115155b610c1c5760405162461bcd60e51b815260206004820152600e60248201526d24b73b30b634b210373ab6b132b960911b6044820152606401610a02565b6000600183825b8615610c8457610c338783610e87565b9050828680610c4457610c44610d7d565b8780610c5257610c52610d7d565b858409610c5f9089610e9b565b8608909450925086610c718183610eb2565b610c7b9084610e9b565b97509150610c23565b509195945050505050565b604051806040016040528060008152602001600081525090565b60405180608001604052806004906020820280368337509192915050565b60008060208385031215610cda57600080fd5b82356001600160401b0380821115610cf157600080fd5b818501915085601f830112610d0557600080fd5b813581811115610d1457600080fd5b8660208260061b8501011115610d2957600080fd5b60209290920196919550909350505050565b600060208284031215610d4d57600080fd5b81356001600160401b03811115610d6357600080fd5b82016101208185031215610d7657600080fd5b9392505050565b634e487b7160e01b600052601260045260246000fd5b634e487b7160e01b600052603260045260246000fd5b634e487b7160e01b600052601160045260246000fd5b6000600019821415610dd357610dd3610da9565b5060010190565b600082610de957610de9610d7d565b500690565b6000808335601e19843603018112610e0557600080fd5b8301803591506001600160401b03821115610e1f57600080fd5b6020019150600681901b3603821315610e3757600080fd5b9250929050565b6000808335601e19843603018112610e5557600080fd5b8301803591506001600160401b03821115610e6f57600080fd5b6020019150600581901b3603821315610e3757600080fd5b600082610e9657610e96610d7d565b500490565b600082821015610ead57610ead610da9565b500390565b6000816000190483118215151615610ecc57610ecc610da9565b50029056fe6b17d1f2e12c4247f8bce6e563a440f277037d812deb33a0f4a13945d898c296ffffffff00000000ffffffffffffffffbce6faada7179e84f3b9cac2fc6325514fe342e2fe1a7f9b8ee7eb4a7c0f9e162bce33576b315ececbb6406837bf51f5a26469706673582212200308517031ad970c7860ac81d68907fb05c4e88af5cb67a14c3ee32aac274beb64736f6c634300080a0033",
  "immutableReferences": {},
  "source": "// SPDX-License-Identifier: MIT\r\n\r\npragma solidity >=0.5.3 <0.9.0;\r\n\r\nimport \"./EllipticCurve.sol\";\r\nimport './Secp256r1.sol';\r\n\r\nlibrary LRS{\r\n    // linkable ring signature parameters\r\n    struct LRS_parameters{\r\n        uint256 message; \r\n        uint256 U0;\r\n        uint256 L;\r\n        uint256[] V;\r\n        Secp256r1.ECPoint H;\r\n        Secp256r1.ECPoint K;\r\n        Secp256r1.ECPoint[] EC_public_keys;  \r\n    }\r\n\r\n    function calcLAndH(Secp256r1.ECPoint[] calldata _P) \r\n    external pure returns (uint256 L, Secp256r1.ECPoint memory H){\r\n        uint256 t; \r\n        uint256 t2; \r\n        for(uint i=0;i<_P.length;i++){\r\n            // compute L = sum of (PubKey.X + PubKey.Y);\r\n            t = addmod(_P[i].x,_P[i].y,Secp256r1.NN);\r\n            L = addmod(L,t,Secp256r1.NN);\r\n        }\r\n        // compute H\r\n        t2 = uint256(keccak256(abi.encode(L))) % Secp256r1.NN;\r\n        (uint256 x, uint256 y) = EllipticCurve.ecMul(t2,Secp256r1.GX,Secp256r1.GY,Secp256r1.AA,Secp256r1.PP);\r\n        H = Secp256r1.ECPoint(x,y);\r\n    }\r\n\r\n    function verifyLRS(LRS_parameters calldata _LRS) \r\n    external pure returns(bool){\r\n        uint256 U = _LRS.U0;\r\n        uint256 n;\r\n        Secp256r1.ECPoint memory vG;\r\n        Secp256r1.ECPoint memory uY;\r\n        Secp256r1.ECPoint memory vH;\r\n        Secp256r1.ECPoint memory uK;\r\n        Secp256r1.ECPoint memory vG_add_uY;\r\n        Secp256r1.ECPoint memory vH_add_uK;\r\n\r\n        for(uint i=0;i<_LRS.EC_public_keys.length;i++){\r\n            (vG.x,vG.y) = EllipticCurve.ecMul(_LRS.V[i],Secp256r1.GX,Secp256r1.GY,Secp256r1.AA,Secp256r1.PP);\r\n            (uY.x,uY.y) = EllipticCurve.ecMul(U,_LRS.EC_public_keys[i].x,_LRS.EC_public_keys[i].y,Secp256r1.AA,Secp256r1.PP);\r\n            (vH.x,vH.y) = EllipticCurve.ecMul(_LRS.V[i],_LRS.H.x,_LRS.H.y,Secp256r1.AA,Secp256r1.PP);            \r\n            (uK.x,uK.y) = EllipticCurve.ecMul(U,_LRS.K.x,_LRS.K.y,Secp256r1.AA,Secp256r1.PP);\r\n            (vG_add_uY.x, vG_add_uY.y) = EllipticCurve.ecAdd(vG.x,vG.y,uY.x,uY.y,Secp256r1.AA,Secp256r1.PP);\r\n            (vH_add_uK.x, vH_add_uK.y) = EllipticCurve.ecAdd(vH.x,vH.y,uK.x,uK.y,Secp256r1.AA,Secp256r1.PP);\r\n            \r\n            n = _LRS.L;\r\n            n = addmod(n,addmod(_LRS.K.x, _LRS.K.y, Secp256r1.NN),Secp256r1.NN);\r\n            n = addmod(n,_LRS.message % Secp256r1.NN,Secp256r1.NN);\r\n            n = addmod(n,addmod(vG_add_uY.x, vG_add_uY.y, Secp256r1.NN),Secp256r1.NN);\r\n            n = addmod(n,addmod(vH_add_uK.x, vH_add_uK.y, Secp256r1.NN),Secp256r1.NN);\r\n\r\n            U = uint256(keccak256(abi.encode(n))) % Secp256r1.NN;\r\n        }\r\n\r\n        return U == _LRS.U0;\r\n    }\r\n}",
  "sourcePath": "C:\\Users\\tim\\Desktop\\e-voting\\src\\contracts\\LRS.sol",
  "compiler": {
    "name": "solc",
    "version": "0.8.10+commit.fc410830.Emscripten.clang"
  },
  "schemaVersion": "3.4.4",
  "updatedAt": "2022-03-30T12:09:34.421Z",
  "networkType": "ethereum",
  "devdoc": {
    "kind": "dev",
    "methods": {},
    "version": 1
  },
  "userdoc": {
    "kind": "user",
    "methods": {},
    "version": 1
  }
}