{
  "contractName": "LRS",
  "abi": [
    {
      "inputs": [],
      "name": "AA",
      "outputs": [
        {
          "internalType": "uint256",
          "name": "",
          "type": "uint256"
        }
      ],
      "stateMutability": "view",
      "type": "function"
    },
    {
      "inputs": [],
      "name": "BB",
      "outputs": [
        {
          "internalType": "uint256",
          "name": "",
          "type": "uint256"
        }
      ],
      "stateMutability": "view",
      "type": "function"
    },
    {
      "inputs": [],
      "name": "GX",
      "outputs": [
        {
          "internalType": "uint256",
          "name": "",
          "type": "uint256"
        }
      ],
      "stateMutability": "view",
      "type": "function"
    },
    {
      "inputs": [],
      "name": "GY",
      "outputs": [
        {
          "internalType": "uint256",
          "name": "",
          "type": "uint256"
        }
      ],
      "stateMutability": "view",
      "type": "function"
    },
    {
      "inputs": [],
      "name": "HH",
      "outputs": [
        {
          "internalType": "uint256",
          "name": "",
          "type": "uint256"
        }
      ],
      "stateMutability": "view",
      "type": "function"
    },
    {
      "inputs": [],
      "name": "NN",
      "outputs": [
        {
          "internalType": "uint256",
          "name": "",
          "type": "uint256"
        }
      ],
      "stateMutability": "view",
      "type": "function"
    },
    {
      "inputs": [],
      "name": "PP",
      "outputs": [
        {
          "internalType": "uint256",
          "name": "",
          "type": "uint256"
        }
      ],
      "stateMutability": "view",
      "type": "function"
    },
    {
      "inputs": [
        {
          "internalType": "uint256",
          "name": "message",
          "type": "uint256"
        }
      ],
      "name": "hash1",
      "outputs": [
        {
          "internalType": "uint256",
          "name": "",
          "type": "uint256"
        }
      ],
      "stateMutability": "pure",
      "type": "function"
    },
    {
      "inputs": [
        {
          "internalType": "uint256",
          "name": "message",
          "type": "uint256"
        }
      ],
      "name": "hash2",
      "outputs": [
        {
          "components": [
            {
              "internalType": "uint256",
              "name": "x",
              "type": "uint256"
            },
            {
              "internalType": "uint256",
              "name": "y",
              "type": "uint256"
            }
          ],
          "internalType": "struct LRS.ECPoint",
          "name": "",
          "type": "tuple"
        }
      ],
      "stateMutability": "pure",
      "type": "function"
    },
    {
      "inputs": [
        {
          "internalType": "uint256",
          "name": "Px",
          "type": "uint256"
        },
        {
          "internalType": "uint256",
          "name": "Py",
          "type": "uint256"
        },
        {
          "internalType": "uint256",
          "name": "a",
          "type": "uint256"
        }
      ],
      "name": "pointMul",
      "outputs": [
        {
          "components": [
            {
              "internalType": "uint256",
              "name": "x",
              "type": "uint256"
            },
            {
              "internalType": "uint256",
              "name": "y",
              "type": "uint256"
            }
          ],
          "internalType": "struct LRS.ECPoint",
          "name": "",
          "type": "tuple"
        }
      ],
      "stateMutability": "pure",
      "type": "function"
    },
    {
      "inputs": [
        {
          "components": [
            {
              "internalType": "uint256",
              "name": "x",
              "type": "uint256"
            },
            {
              "internalType": "uint256",
              "name": "y",
              "type": "uint256"
            }
          ],
          "internalType": "struct LRS.ECPoint",
          "name": "p1",
          "type": "tuple"
        },
        {
          "components": [
            {
              "internalType": "uint256",
              "name": "x",
              "type": "uint256"
            },
            {
              "internalType": "uint256",
              "name": "y",
              "type": "uint256"
            }
          ],
          "internalType": "struct LRS.ECPoint",
          "name": "p2",
          "type": "tuple"
        }
      ],
      "name": "pointAdd",
      "outputs": [
        {
          "components": [
            {
              "internalType": "uint256",
              "name": "x",
              "type": "uint256"
            },
            {
              "internalType": "uint256",
              "name": "y",
              "type": "uint256"
            }
          ],
          "internalType": "struct LRS.ECPoint",
          "name": "",
          "type": "tuple"
        }
      ],
      "stateMutability": "pure",
      "type": "function"
    },
    {
      "inputs": [
        {
          "components": [
            {
              "internalType": "uint256",
              "name": "message",
              "type": "uint256"
            },
            {
              "internalType": "uint256",
              "name": "U0",
              "type": "uint256"
            },
            {
              "internalType": "uint256",
              "name": "L",
              "type": "uint256"
            },
            {
              "internalType": "uint256[]",
              "name": "V",
              "type": "uint256[]"
            },
            {
              "components": [
                {
                  "internalType": "uint256",
                  "name": "x",
                  "type": "uint256"
                },
                {
                  "internalType": "uint256",
                  "name": "y",
                  "type": "uint256"
                }
              ],
              "internalType": "struct LRS.ECPoint",
              "name": "H",
              "type": "tuple"
            },
            {
              "components": [
                {
                  "internalType": "uint256",
                  "name": "x",
                  "type": "uint256"
                },
                {
                  "internalType": "uint256",
                  "name": "y",
                  "type": "uint256"
                }
              ],
              "internalType": "struct LRS.ECPoint",
              "name": "K",
              "type": "tuple"
            },
            {
              "components": [
                {
                  "internalType": "uint256",
                  "name": "x",
                  "type": "uint256"
                },
                {
                  "internalType": "uint256",
                  "name": "y",
                  "type": "uint256"
                }
              ],
              "internalType": "struct LRS.ECPoint[]",
              "name": "EC_public_keys",
              "type": "tuple[]"
            }
          ],
          "internalType": "struct LRS.LRS_parameters",
          "name": "_LRS",
          "type": "tuple"
        }
      ],
      "name": "verifyLRS",
      "outputs": [
        {
          "internalType": "bool",
          "name": "",
          "type": "bool"
        }
      ],
      "stateMutability": "pure",
      "type": "function"
    }
  ],
  "bytecode": "0x61121361003a600b82828239805160001a60731461002d57634e487b7160e01b600052600060045260246000fd5b30600052607381538281f3fe73000000000000000000000000000000000000000030146080604052600436106100be5760003560e01c8063997da8d41161007b578063997da8d4146101a1578063decf56a4146101b9578063eb610026146101c1578063eeeac01e146101e4578063f527081e146101f9578063fd6bbc321461020c57600080fd5b806303a507be146100c35780630f548a9a146100fd5780634154f34b1461012b5780635727dc5c1461013e5780637a308a4c146101655780639870e2a41461018c575b600080fd5b6100ea7f6b17d1f2e12c4247f8bce6e563a440f277037d812deb33a0f4a13945d898c29681565b6040519081526020015b60405180910390f35b61011061010b366004610faa565b61021f565b604080518251815260209283015192810192909252016100f4565b610110610139366004610fdf565b61028e565b6100ea7f5ac635d8aa3a93e7b3ebbd55769886bc651d06b0cc53b0f63bce3c3e27d2604b81565b6100ea7f4fe342e2fe1a7f9b8ee7eb4a7c0f9e162bce33576b315ececbb6406837bf51f581565b6100ea6000805160206111be83398151915281565b6100ea6003600160601b0363ffffffff60c01b031981565b6100ea600181565b6101d46101cf366004610ff8565b610333565b60405190151581526020016100f4565b6100ea600160601b63ffffffff60c01b031981565b6100ea610207366004610fdf565b610733565b61011061021a36600461103b565b610780565b604080518082019091526000808252602082015260008061027385600001518660200151866000015187602001516003600160601b0363ffffffff60c01b0319600160601b63ffffffff60c01b03196107df565b60408051808201909152918252602082015295945050505050565b60408051808201909152600080825260208201526000806103196102b185610733565b7f6b17d1f2e12c4247f8bce6e563a440f277037d812deb33a0f4a13945d898c2967f4fe342e2fe1a7f9b8ee7eb4a7c0f9e162bce33576b315ececbb6406837bf51f56003600160601b0363ffffffff60c01b0319600160601b63ffffffff60c01b0319610865565b604080518082019091529182526020820152949350505050565b60008082602001359050600061035c604051806040016040528060008152602001600081525090565b6040805180820190915260008082526020820152604080518082019091526000808252602082015260408051808201909152600080825260208201526040805180820190915260008082526020820152604080518082019091526000808252602082015260005b6103d16101008c018c611067565b905081101561071c576104696103ea60608d018d6110b8565b838181106103fa576103fa611102565b905060200201357f6b17d1f2e12c4247f8bce6e563a440f277037d812deb33a0f4a13945d898c2967f4fe342e2fe1a7f9b8ee7eb4a7c0f9e162bce33576b315ececbb6406837bf51f56003600160601b0363ffffffff60c01b0319600160601b63ffffffff60c01b0319610865565b602089015287526104ea896104826101008e018e611067565b8481811061049257610492611102565b604002919091013590506104aa6101008f018f611067565b858181106104ba576104ba611102565b905060400201602001356003600160601b0363ffffffff60c01b0319600160601b63ffffffff60c01b0319610865565b6020880152865261054b61050160608d018d6110b8565b8381811061051157610511611102565b6020029190910135905060808d013560a08e01356003600160601b0363ffffffff60c01b0319600160601b63ffffffff60c01b0319610865565b602087015285526105868960c08d013560e08e01356003600160601b0363ffffffff60c01b0319600160601b63ffffffff60c01b0319610865565b6020808701919091529085528751888201518851928901516105c993906003600160601b0363ffffffff60c01b0319600160601b63ffffffff60c01b03196107df565b60208086019190915290845285518682015186519287015161060c93906003600160601b0363ffffffff60c01b0319600160601b63ffffffff60c01b03196107df565b6020840152825260408b013597506000805160206111be8339815191528060e08d013560c08e013508890897506000805160206111be833981519152604080518d3560208201526000805160206111be83398151915291016040516020818303038152906040528051906020012060001c610687919061112e565b890897506000805160206111be833981519152806020850151855108890897506000805160206111be833981519152806020840151845108890897506000805160206111be833981519152886040516020016106e591815260200190565b6040516020818303038152906040528051906020012060001c610708919061112e565b98508061071481611158565b9150506103c3565b508960200135881498505050505050505050919050565b60006000805160206111be8339815191528260405160200161075791815260200190565b6040516020818303038152906040528051906020012060001c61077a919061112e565b92915050565b60408051808201909152600080825260208201526000806107c38487876003600160601b0363ffffffff60c01b0319600160601b63ffffffff60c01b0319610865565b6040805180820190915291825260208201529695505050505050565b6000806000806000888b141561082d5785806107fd576107fd611118565b888b08610813576000809450945050505061085a565b6108218b8b60018a8a61089f565b91945092509050610846565b61083e8b8b60018c8c60018c610a3e565b919450925090505b61085283838389610d76565b945094505050505b965096945050505050565b600080600080600061087c8a8a8a60018b8b610de5565b92509250925061088e83838389610d76565b945094505050509550959350505050565b60008080856108b5575086915085905084610a33565b600084806108c5576108c5611118565b898a099050600085806108da576108da611118565b898a099050600086806108ef576108ef611118565b898a0990506000878061090457610904611118565b888061091257610912611118565b848e0960040990506000888061092a5761092a611118565b898061093857610938611118565b8a8061094657610946611118565b8586098c098a8061095957610959611118565b87600309089050888061096e5761096e611118565b898061097c5761097c611118565b838408610989908b611173565b8a8061099757610997611118565b83840908945088806109ab576109ab611118565b89806109b9576109b9611118565b8a806109c7576109c7611118565b8687096008096109d7908b611173565b8a806109e5576109e5611118565b8b806109f3576109f3611118565b6109fd898e611173565b860884090893508880610a1257610a12611118565b8980610a2057610a20611118565b8c8e096002099497509295509293505050505b955095509592505050565b6000808089158015610a4e575088155b15610a60575085915084905083610d69565b86158015610a6c575085155b15610a7e575088915087905086610d69565b610a86610f2f565b8480610a9457610a94611118565b898a0981528480610aa757610aa7611118565b81518a0960208201528480610abe57610abe611118565b86870960408201528480610ad457610ad4611118565b6040820151870960608201526040805160808101909152808680610afa57610afa611118565b60408401518e0981526020018680610b1457610b14611118565b60608401518d0981526020018680610b2e57610b2e611118565b83518b0981526020018680610b4557610b45611118565b60208401518a09905260408101518151919250141580610b6d57506060810151602082015114155b610bbe5760405162461bcd60e51b815260206004820152601e60248201527f557365206a6163446f75626c652066756e6374696f6e20696e7374656164000060448201526064015b60405180910390fd5b610bc6610f2f565b8580610bd457610bd4611118565b8251610be09088611173565b60408401510881528580610bf657610bf6611118565b6020830151610c059088611173565b60608401510860208201528580610c1e57610c1e611118565b8151800960408201528580610c3557610c35611118565b8151604083015109606082015260008680610c5257610c52611118565b6060830151610c619089611173565b8880610c6f57610c6f611118565b602085015180090890508680610c8757610c87611118565b8780610c9557610c95611118565b8880610ca357610ca3611118565b6040850151865109600209610cb89089611173565b8208905060008780610ccc57610ccc611118565b8880610cda57610cda611118565b610ce4848b611173565b8a80610cf257610cf2611118565b60408701518851090860208501510990508780610d1157610d11611118565b8880610d1f57610d1f611118565b6060850151602087015109610d34908a611173565b8208905060008880610d4857610d48611118565b8980610d5657610d56611118565b8b8f098551099297509095509093505050505b9750975097945050505050565b6000806000610d858585610e63565b905060008480610d9757610d97611118565b828309905060008580610dac57610dac611118565b828a09905060008680610dc157610dc1611118565b8780610dcf57610dcf611118565b8486098a09919a91995090975050505050505050565b6000808088610dfb575086915085905084610e57565b8860008060015b8315610e4e576001841615610e2857610e208383838f8f8f8e610a3e565b919450925090505b610e3360028561118a565b9350610e428c8c8c8c8c61089f565b919d509b509950610e02565b91955093509150505b96509650969350505050565b60008215801590610e745750818314155b8015610e7f57508115155b610ebc5760405162461bcd60e51b815260206004820152600e60248201526d24b73b30b634b210373ab6b132b960911b6044820152606401610bb5565b6000600183825b8615610f2457610ed3878361118a565b9050828680610ee457610ee4611118565b8780610ef257610ef2611118565b858409610eff9089611173565b8608909450925086610f11818361119e565b610f1b9084611173565b97509150610ec3565b509195945050505050565b60405180608001604052806004906020820280368337509192915050565b600060408284031215610f5f57600080fd5b6040516040810181811067ffffffffffffffff82111715610f9057634e487b7160e01b600052604160045260246000fd5b604052823581526020928301359281019290925250919050565b60008060808385031215610fbd57600080fd5b610fc78484610f4d565b9150610fd68460408501610f4d565b90509250929050565b600060208284031215610ff157600080fd5b5035919050565b60006020828403121561100a57600080fd5b813567ffffffffffffffff81111561102157600080fd5b8201610120818503121561103457600080fd5b9392505050565b60008060006060848603121561105057600080fd5b505081359360208301359350604090920135919050565b6000808335601e1984360301811261107e57600080fd5b83018035915067ffffffffffffffff82111561109957600080fd5b6020019150600681901b36038213156110b157600080fd5b9250929050565b6000808335601e198436030181126110cf57600080fd5b83018035915067ffffffffffffffff8211156110ea57600080fd5b6020019150600581901b36038213156110b157600080fd5b634e487b7160e01b600052603260045260246000fd5b634e487b7160e01b600052601260045260246000fd5b60008261113d5761113d611118565b500690565b634e487b7160e01b600052601160045260246000fd5b600060001982141561116c5761116c611142565b5060010190565b60008282101561118557611185611142565b500390565b60008261119957611199611118565b500490565b60008160001904831182151516156111b8576111b8611142565b50029056feffffffff00000000ffffffffffffffffbce6faada7179e84f3b9cac2fc632551a2646970667358221220e851c4c5d48c6451a19501ed3f8dc40d70e25568142b7c95876e0212f21d9ddf64736f6c634300080a0033",
  "immutableReferences": {},
  "source": "// SPDX-License-Identifier: MIT\r\n\r\npragma solidity >=0.5.3 <0.9.0;\r\n\r\nimport \"./EllipticCurve.sol\";\r\n\r\nlibrary LRS{\r\n\r\n    // Elliptic Curve Point\r\n    struct ECPoint{\r\n        uint256 x;\r\n        uint256 y;\r\n    }\r\n\r\n    // linkable ring signature parameters\r\n    struct LRS_parameters{\r\n        uint256 message; \r\n        uint256 U0;\r\n        uint256 L;\r\n        uint256[] V;\r\n        ECPoint H;\r\n        ECPoint K;\r\n        ECPoint[] EC_public_keys;  \r\n    }\r\n\r\n    // secp256r1 parameters\r\n    // https://neuromancer.sk/std/secg/secp256r1#\r\n    uint256 public constant GX = 0x6b17d1f2e12c4247f8bce6e563a440f277037d812deb33a0f4a13945d898c296;\r\n    uint256 public constant GY = 0x4fe342e2fe1a7f9b8ee7eb4a7c0f9e162bce33576b315ececbb6406837bf51f5;\r\n    uint256 public constant AA = 0xffffffff00000001000000000000000000000000fffffffffffffffffffffffc;\r\n    uint256 public constant BB = 0x5ac635d8aa3a93e7b3ebbd55769886bc651d06b0cc53b0f63bce3c3e27d2604b;\r\n    uint256 public constant PP = 0xffffffff00000001000000000000000000000000ffffffffffffffffffffffff;\r\n    uint256 public constant NN = 0xffffffff00000000ffffffffffffffffbce6faada7179e84f3b9cac2fc632551;\r\n    uint256 public constant HH = 0x1;\r\n\r\n    function hash1(uint256 message) public pure returns (uint256){\r\n        return uint256(keccak256(abi.encode(message))) % NN;\r\n    }\r\n\r\n    function hash2(uint256 message) public pure returns (ECPoint memory){\r\n        (uint256 x, uint256 y) = EllipticCurve.ecMul(hash1(message),GX,GY,AA,PP);\r\n        return ECPoint(x,y);\r\n    }\r\n\r\n    function pointMul(uint256 Px,uint256 Py, uint256 a) public pure returns (ECPoint memory){\r\n        (uint256 x, uint256 y) = EllipticCurve.ecMul(a,Px,Py,AA,PP);\r\n        return ECPoint(x,y);\r\n    }\r\n\r\n    function pointAdd(ECPoint memory p1, ECPoint memory p2) public pure returns (ECPoint memory){\r\n        (uint256 x, uint256 y) = EllipticCurve.ecAdd(p1.x,p1.y,p2.x,p2.y,AA,PP);\r\n        return ECPoint(x,y);\r\n    }\r\n\r\n    function verifyLRS(LRS_parameters calldata _LRS) \r\n    external pure returns(bool){\r\n        uint256 U = _LRS.U0;\r\n        uint256 n;\r\n        ECPoint memory vG;\r\n        ECPoint memory uY;\r\n        ECPoint memory vH;\r\n        ECPoint memory uK;\r\n        ECPoint memory vG_add_uY;\r\n        ECPoint memory vH_add_uK;\r\n\r\n        for(uint i=0;i<_LRS.EC_public_keys.length;i++){\r\n            (vG.x,vG.y) = EllipticCurve.ecMul(_LRS.V[i],GX,GY,AA,PP);\r\n            (uY.x,uY.y) = EllipticCurve.ecMul(U,_LRS.EC_public_keys[i].x,_LRS.EC_public_keys[i].y,AA,PP);\r\n            (vH.x,vH.y) = EllipticCurve.ecMul(_LRS.V[i],_LRS.H.x,_LRS.H.y,AA,PP);            \r\n            (uK.x,uK.y) = EllipticCurve.ecMul(U,_LRS.K.x,_LRS.K.y,AA,PP);\r\n            (vG_add_uY.x, vG_add_uY.y) = EllipticCurve.ecAdd(vG.x,vG.y,uY.x,uY.y,AA,PP);\r\n            (vH_add_uK.x, vH_add_uK.y) = EllipticCurve.ecAdd(vH.x,vH.y,uK.x,uK.y,AA,PP);\r\n            \r\n            n = _LRS.L;\r\n            n = addmod(n,addmod(_LRS.K.x, _LRS.K.y, NN),NN);\r\n            n = addmod(n,uint256(keccak256(abi.encode(_LRS.message))) % NN,NN);\r\n            n = addmod(n,addmod(vG_add_uY.x, vG_add_uY.y, NN),NN);\r\n            n = addmod(n,addmod(vH_add_uK.x, vH_add_uK.y, NN),NN);\r\n\r\n            U = uint256(keccak256(abi.encode(n))) % NN;\r\n        }\r\n\r\n        return U == _LRS.U0;\r\n    }\r\n\r\n}\r\n",
  "sourcePath": "C:\\Users\\tim\\Desktop\\e-voting\\src\\contracts\\LRS.sol",
  "compiler": {
    "name": "solc",
    "version": "0.8.10+commit.fc410830.Emscripten.clang"
  },
  "schemaVersion": "3.4.4",
  "updatedAt": "2022-01-19T08:18:17.246Z",
  "devdoc": {
    "kind": "dev",
    "methods": {},
    "version": 1
  },
  "userdoc": {
    "kind": "user",
    "methods": {},
    "version": 1
  }
}