{
  "contractName": "Schnorr",
  "abi": [
    {
      "inputs": [
        {
          "components": [
            {
              "internalType": "uint256",
              "name": "x",
              "type": "uint256"
            },
            {
              "internalType": "uint256",
              "name": "y",
              "type": "uint256"
            }
          ],
          "internalType": "struct Secp256r1.ECPoint",
          "name": "_A",
          "type": "tuple"
        },
        {
          "components": [
            {
              "internalType": "uint256",
              "name": "x",
              "type": "uint256"
            },
            {
              "internalType": "uint256",
              "name": "y",
              "type": "uint256"
            }
          ],
          "internalType": "struct Secp256r1.ECPoint",
          "name": "_R",
          "type": "tuple"
        },
        {
          "internalType": "uint256",
          "name": "_c",
          "type": "uint256"
        },
        {
          "internalType": "uint256",
          "name": "_m",
          "type": "uint256"
        }
      ],
      "name": "verify",
      "outputs": [
        {
          "internalType": "bool",
          "name": "",
          "type": "bool"
        }
      ],
      "stateMutability": "pure",
      "type": "function",
      "constant": true
    }
  ],
  "bytecode": "0x610aa161003a600b82828239805160001a60731461002d57634e487b7160e01b600052600060045260246000fd5b30600052607381538281f3fe73000000000000000000000000000000000000000030146080604052600436106100355760003560e01c80639b8e72c41461003a575b600080fd5b61004d61004836600461099d565b610061565b604051901515815260200160405180910390f35b600061006b61094d565b61007361094d565b61007b61094d565b6100e7857f6b17d1f2e12c4247f8bce6e563a440f277037d812deb33a0f4a13945d898c2967f4fe342e2fe1a7f9b8ee7eb4a7c0f9e162bce33576b315ececbb6406837bf51f56003600160601b0363ffffffff60c01b0319600160601b63ffffffff60c01b03196101a4565b6020808601919091529084526101259087908a35908b01356003600160601b0363ffffffff60c01b0319600160601b63ffffffff60c01b03196101a4565b60208085018290528285528551908601516101659391929091906003600160601b0363ffffffff60c01b0319600160601b63ffffffff60c01b03196101de565b60208301528082528735148015610183575080602001518760200135145b15610194576001935050505061019c565b600093505050505b949350505050565b60008060008060006101bb8a8a8a60018b8b610213565b9250925092506101cd83838389610291565b945094505050509550959350505050565b6000806000806101ef888887610300565b915091506102018a8a84848a8a610325565b9350935050505b965096945050505050565b6000808088610229575086915085905084610285565b8860008060015b831561027c5760018416156102565761024e8383838f8f8f8e6103aa565b919450925090505b610261600285610a0d565b93506102708c8c8c8c8c6106e2565b919d509b509950610230565b91955093509150505b96509650969350505050565b60008060006102a08585610881565b9050600084806102b2576102b26109e1565b8283099050600085806102c7576102c76109e1565b828a099050600086806102dc576102dc6109e1565b87806102ea576102ea6109e1565b8486098a09919a91995090975050505050505050565b600080848361030f8682610a21565b6103199190610a38565b91509150935093915050565b6000806000806000888b1415610373578580610343576103436109e1565b888b086103595760008094509450505050610208565b6103678b8b60018a8a6106e2565b9194509250905061038c565b6103848b8b60018c8c60018c6103aa565b919450925090505b61039883838389610291565b94509450505050965096945050505050565b60008080891580156103ba575088155b156103cc5750859150849050836106d5565b861580156103d8575085155b156103ea5750889150879050866106d5565b6103f2610967565b8480610400576104006109e1565b898a0981528480610413576104136109e1565b81518a096020820152848061042a5761042a6109e1565b86870960408201528480610440576104406109e1565b6040820151870960608201526040805160808101909152808680610466576104666109e1565b60408401518e0981526020018680610480576104806109e1565b60608401518d098152602001868061049a5761049a6109e1565b83518b09815260200186806104b1576104b16109e1565b60208401518a099052604081015181519192501415806104d957506060810151602082015114155b61052a5760405162461bcd60e51b815260206004820152601e60248201527f557365206a6163446f75626c652066756e6374696f6e20696e7374656164000060448201526064015b60405180910390fd5b610532610967565b8580610540576105406109e1565b825161054c9088610a21565b60408401510881528580610562576105626109e1565b60208301516105719088610a21565b6060840151086020820152858061058a5761058a6109e1565b81518009604082015285806105a1576105a16109e1565b81516040830151096060820152600086806105be576105be6109e1565b60608301516105cd9089610a21565b88806105db576105db6109e1565b6020850151800908905086806105f3576105f36109e1565b8780610601576106016109e1565b888061060f5761060f6109e1565b60408501518651096002096106249089610a21565b8208905060008780610638576106386109e1565b8880610646576106466109e1565b610650848b610a21565b8a8061065e5761065e6109e1565b6040870151885109086020850151099050878061067d5761067d6109e1565b888061068b5761068b6109e1565b60608501516020870151096106a0908a610a21565b82089050600088806106b4576106b46109e1565b89806106c2576106c26109e1565b8b8f098551099297509095509093505050505b9750975097945050505050565b60008080856106f8575086915085905084610876565b60008480610708576107086109e1565b898a0990506000858061071d5761071d6109e1565b898a09905060008680610732576107326109e1565b898a09905060008780610747576107476109e1565b8880610755576107556109e1565b848e0960040990506000888061076d5761076d6109e1565b898061077b5761077b6109e1565b8a80610789576107896109e1565b8586098c098a8061079c5761079c6109e1565b8760030908905088806107b1576107b16109e1565b89806107bf576107bf6109e1565b8384086107cc908b610a21565b8a806107da576107da6109e1565b83840908945088806107ee576107ee6109e1565b89806107fc576107fc6109e1565b8a8061080a5761080a6109e1565b86870960080961081a908b610a21565b8a80610828576108286109e1565b8b80610836576108366109e1565b610840898e610a21565b860884090893508880610855576108556109e1565b8980610863576108636109e1565b8c8e096002099497509295509293505050505b955095509592505050565b600082158015906108925750818314155b801561089d57508115155b6108da5760405162461bcd60e51b815260206004820152600e60248201526d24b73b30b634b210373ab6b132b960911b6044820152606401610521565b6000600183825b8615610942576108f18783610a0d565b9050828680610902576109026109e1565b8780610910576109106109e1565b85840961091d9089610a21565b860890945092508661092f8183610a4c565b6109399084610a21565b975091506108e1565b509195945050505050565b604051806040016040528060008152602001600081525090565b60405180608001604052806004906020820280368337509192915050565b60006040828403121561099757600080fd5b50919050565b60008060008060c085870312156109b357600080fd5b6109bd8686610985565b93506109cc8660408701610985565b939693955050505060808201359160a0013590565b634e487b7160e01b600052601260045260246000fd5b634e487b7160e01b600052601160045260246000fd5b600082610a1c57610a1c6109e1565b500490565b600082821015610a3357610a336109f7565b500390565b600082610a4757610a476109e1565b500690565b6000816000190483118215151615610a6657610a666109f7565b50029056fea2646970667358221220a23e26bb37372178605513cf54f7c58149f6cd67a1ba56c47362b68262249e8364736f6c634300080a0033",
  "immutableReferences": {},
  "source": "// SPDX-License-Identifier: MIT\r\n\r\npragma solidity >=0.5.3 <0.9.0;\r\n\r\nimport \"./EllipticCurve.sol\";\r\nimport \"./Secp256r1.sol\";\r\n\r\nlibrary Schnorr{\r\n    function verify(Secp256r1.ECPoint calldata _A, Secp256r1.ECPoint calldata _R,\r\n    uint256 _c, uint256 _m\r\n    )pure external returns(bool){\r\n        Secp256r1.ECPoint memory t1;\r\n        Secp256r1.ECPoint memory t2;\r\n        Secp256r1.ECPoint memory t3;\r\n        (t1.x,t1.y) = EllipticCurve.ecMul(_m,Secp256r1.GX, Secp256r1.GY, Secp256r1.AA, Secp256r1.PP);\r\n        (t2.x,t2.y) = EllipticCurve.ecMul(_c,_A.x, _A.y, Secp256r1.AA, Secp256r1.PP);\r\n        (t3.x,t3.y) = EllipticCurve.ecSub(t1.x, t1.y, t2.x, t2.y, Secp256r1.AA, Secp256r1.PP);\r\n        if(_R.x == t3.x && _R.y == t3.y){\r\n            return true;\r\n        }else{\r\n            return false;\r\n        }\r\n    }\r\n}",
  "sourcePath": "C:\\Users\\tim\\Desktop\\e-voting\\src\\contracts\\Schnorr.sol",
  "compiler": {
    "name": "solc",
    "version": "0.8.10+commit.fc410830.Emscripten.clang"
  },
  "schemaVersion": "3.4.4",
  "updatedAt": "2022-04-13T07:16:45.849Z",
  "networkType": "ethereum",
  "devdoc": {
    "kind": "dev",
    "methods": {},
    "version": 1
  },
  "userdoc": {
    "kind": "user",
    "methods": {},
    "version": 1
  }
}