{
  "contractName": "Secp256r1",
  "abi": [
    {
      "inputs": [],
      "name": "AA",
      "outputs": [
        {
          "internalType": "uint256",
          "name": "",
          "type": "uint256"
        }
      ],
      "stateMutability": "view",
      "type": "function",
      "constant": true
    },
    {
      "inputs": [],
      "name": "BB",
      "outputs": [
        {
          "internalType": "uint256",
          "name": "",
          "type": "uint256"
        }
      ],
      "stateMutability": "view",
      "type": "function",
      "constant": true
    },
    {
      "inputs": [],
      "name": "GX",
      "outputs": [
        {
          "internalType": "uint256",
          "name": "",
          "type": "uint256"
        }
      ],
      "stateMutability": "view",
      "type": "function",
      "constant": true
    },
    {
      "inputs": [],
      "name": "GY",
      "outputs": [
        {
          "internalType": "uint256",
          "name": "",
          "type": "uint256"
        }
      ],
      "stateMutability": "view",
      "type": "function",
      "constant": true
    },
    {
      "inputs": [],
      "name": "HH",
      "outputs": [
        {
          "internalType": "uint256",
          "name": "",
          "type": "uint256"
        }
      ],
      "stateMutability": "view",
      "type": "function",
      "constant": true
    },
    {
      "inputs": [],
      "name": "HX",
      "outputs": [
        {
          "internalType": "uint256",
          "name": "",
          "type": "uint256"
        }
      ],
      "stateMutability": "view",
      "type": "function",
      "constant": true
    },
    {
      "inputs": [],
      "name": "HY",
      "outputs": [
        {
          "internalType": "uint256",
          "name": "",
          "type": "uint256"
        }
      ],
      "stateMutability": "view",
      "type": "function",
      "constant": true
    },
    {
      "inputs": [],
      "name": "NN",
      "outputs": [
        {
          "internalType": "uint256",
          "name": "",
          "type": "uint256"
        }
      ],
      "stateMutability": "view",
      "type": "function",
      "constant": true
    },
    {
      "inputs": [],
      "name": "PP",
      "outputs": [
        {
          "internalType": "uint256",
          "name": "",
          "type": "uint256"
        }
      ],
      "stateMutability": "view",
      "type": "function",
      "constant": true
    }
  ],
  "bytecode": "0x6101f361003a600b82828239805160001a60731461002d57634e487b7160e01b600052600060045260246000fd5b30600052607381538281f3fe730000000000000000000000000000000000000000301460806040526004361061008d5760003560e01c806303a507be146100925780634e93d4a2146100cb5780635727dc5c146100f25780637a308a4c146101195780639870e2a414610140578063997da8d414610161578063c11b8ad714610179578063decf56a4146101a0578063eeeac01e146101a8575b600080fd5b6100b97f6b17d1f2e12c4247f8bce6e563a440f277037d812deb33a0f4a13945d898c29681565b60405190815260200160405180910390f35b6100b97f878662a229aaae906e123cdd9d3b4c10590ded29fe751eeeca34bbaa44af077381565b6100b97f5ac635d8aa3a93e7b3ebbd55769886bc651d06b0cc53b0f63bce3c3e27d2604b81565b6100b97f4fe342e2fe1a7f9b8ee7eb4a7c0f9e162bce33576b315ececbb6406837bf51f581565b6100b96f4319055258e8617b0c46353d039cdaae63ffffffff60c01b011981565b6100b96003600160601b0363ffffffff60c01b031981565b6100b97fcef66d6b2a3a993e591214d1ea223fb545ca6c471c48306e4c36069404c5723f81565b6100b9600181565b6100b9600160601b63ffffffff60c01b03198156fea2646970667358221220a50b6fa6b162770007e9e8cb3b7527be4e149c9da27bfb03ea19baf60453b71a64736f6c634300080a0033",
  "immutableReferences": {},
  "source": "// SPDX-License-Identifier: MIT\r\n\r\npragma solidity >=0.5.3 <0.9.0;\r\n\r\nlibrary Secp256r1 {\r\n    // Elliptic Curve Point\r\n    struct ECPoint{\r\n        uint256 x;\r\n        uint256 y;\r\n    }\r\n\r\n    // secp256r1 parameters\r\n    // https://neuromancer.sk/std/secg/secp256r1#\r\n        // base point H = G * 10\r\n    uint256 public constant HX = 0xCEF66D6B2A3A993E591214D1EA223FB545CA6C471C48306E4C36069404C5723F;\r\n    uint256 public constant HY = 0x878662A229AAAE906E123CDD9D3B4C10590DED29FE751EEECA34BBAA44AF0773;\r\n    uint256 public constant GX = 0x6b17d1f2e12c4247f8bce6e563a440f277037d812deb33a0f4a13945d898c296;\r\n    uint256 public constant GY = 0x4fe342e2fe1a7f9b8ee7eb4a7c0f9e162bce33576b315ececbb6406837bf51f5;\r\n    uint256 public constant AA = 0xffffffff00000001000000000000000000000000fffffffffffffffffffffffc;\r\n    uint256 public constant BB = 0x5ac635d8aa3a93e7b3ebbd55769886bc651d06b0cc53b0f63bce3c3e27d2604b;\r\n    uint256 public constant PP = 0xffffffff00000001000000000000000000000000ffffffffffffffffffffffff;\r\n    uint256 public constant NN = 0xffffffff00000000ffffffffffffffffbce6faada7179e84f3b9cac2fc632551;\r\n    uint256 public constant HH = 0x1;\r\n}",
  "sourcePath": "C:\\Users\\tim\\Desktop\\e-voting\\src\\contracts\\Secp256r1.sol",
  "compiler": {
    "name": "solc",
    "version": "0.8.10+commit.fc410830.Emscripten.clang"
  },
  "schemaVersion": "3.4.4",
  "updatedAt": "2022-02-27T13:45:13.781Z",
  "networkType": "ethereum",
  "devdoc": {
    "kind": "dev",
    "methods": {},
    "version": 1
  },
  "userdoc": {
    "kind": "user",
    "methods": {},
    "version": 1
  }
}