{
  "contractName": "Secp256r1",
  "abi": [
    {
      "inputs": [],
      "name": "AA",
      "outputs": [
        {
          "internalType": "uint256",
          "name": "",
          "type": "uint256"
        }
      ],
      "stateMutability": "view",
      "type": "function",
      "constant": true
    },
    {
      "inputs": [],
      "name": "BB",
      "outputs": [
        {
          "internalType": "uint256",
          "name": "",
          "type": "uint256"
        }
      ],
      "stateMutability": "view",
      "type": "function",
      "constant": true
    },
    {
      "inputs": [],
      "name": "GX",
      "outputs": [
        {
          "internalType": "uint256",
          "name": "",
          "type": "uint256"
        }
      ],
      "stateMutability": "view",
      "type": "function",
      "constant": true
    },
    {
      "inputs": [],
      "name": "GY",
      "outputs": [
        {
          "internalType": "uint256",
          "name": "",
          "type": "uint256"
        }
      ],
      "stateMutability": "view",
      "type": "function",
      "constant": true
    },
    {
      "inputs": [],
      "name": "HH",
      "outputs": [
        {
          "internalType": "uint256",
          "name": "",
          "type": "uint256"
        }
      ],
      "stateMutability": "view",
      "type": "function",
      "constant": true
    },
    {
      "inputs": [],
      "name": "NN",
      "outputs": [
        {
          "internalType": "uint256",
          "name": "",
          "type": "uint256"
        }
      ],
      "stateMutability": "view",
      "type": "function",
      "constant": true
    },
    {
      "inputs": [],
      "name": "PP",
      "outputs": [
        {
          "internalType": "uint256",
          "name": "",
          "type": "uint256"
        }
      ],
      "stateMutability": "view",
      "type": "function",
      "constant": true
    }
  ],
  "bytecode": "0x61018f61003a600b82828239805160001a60731461002d57634e487b7160e01b600052600060045260246000fd5b30600052607381538281f3fe73000000000000000000000000000000000000000030146080604052600436106100775760003560e01c806303a507be1461007c5780635727dc5c146100b55780637a308a4c146100dc5780639870e2a414610103578063997da8d414610124578063decf56a41461013c578063eeeac01e14610144575b600080fd5b6100a37f6b17d1f2e12c4247f8bce6e563a440f277037d812deb33a0f4a13945d898c29681565b60405190815260200160405180910390f35b6100a37f5ac635d8aa3a93e7b3ebbd55769886bc651d06b0cc53b0f63bce3c3e27d2604b81565b6100a37f4fe342e2fe1a7f9b8ee7eb4a7c0f9e162bce33576b315ececbb6406837bf51f581565b6100a36f4319055258e8617b0c46353d039cdaae63ffffffff60c01b011981565b6100a36003600160601b0363ffffffff60c01b031981565b6100a3600181565b6100a3600160601b63ffffffff60c01b03198156fea2646970667358221220241739a344efa9a4e9e800eaf209e8a3d01eaf4b4a3d9195a55deca82d94e02d64736f6c634300080a0033",
  "immutableReferences": {},
  "source": "// SPDX-License-Identifier: MIT\r\n\r\npragma solidity >=0.5.3 <0.9.0;\r\n\r\nlibrary Secp256r1 {\r\n    // Elliptic Curve Point\r\n    struct ECPoint{\r\n        uint256 x;\r\n        uint256 y;\r\n    }\r\n\r\n    // secp256r1 parameters\r\n    // https://neuromancer.sk/std/secg/secp256r1#\r\n    uint256 public constant GX = 0x6b17d1f2e12c4247f8bce6e563a440f277037d812deb33a0f4a13945d898c296;\r\n    uint256 public constant GY = 0x4fe342e2fe1a7f9b8ee7eb4a7c0f9e162bce33576b315ececbb6406837bf51f5;\r\n    uint256 public constant AA = 0xffffffff00000001000000000000000000000000fffffffffffffffffffffffc;\r\n    uint256 public constant BB = 0x5ac635d8aa3a93e7b3ebbd55769886bc651d06b0cc53b0f63bce3c3e27d2604b;\r\n    uint256 public constant PP = 0xffffffff00000001000000000000000000000000ffffffffffffffffffffffff;\r\n    uint256 public constant NN = 0xffffffff00000000ffffffffffffffffbce6faada7179e84f3b9cac2fc632551;\r\n    uint256 public constant HH = 0x1;\r\n}",
  "sourcePath": "C:\\Users\\tim\\Desktop\\e-voting\\src\\contracts\\Secp256r1.sol",
  "compiler": {
    "name": "solc",
    "version": "0.8.10+commit.fc410830.Emscripten.clang"
  },
  "schemaVersion": "3.4.4",
  "updatedAt": "2022-02-11T15:47:21.353Z",
  "networkType": "ethereum",
  "devdoc": {
    "kind": "dev",
    "methods": {},
    "version": 1
  },
  "userdoc": {
    "kind": "user",
    "methods": {},
    "version": 1
  }
}