{
  "contractName": "Shares",
  "abi": [
    {
      "inputs": [
        {
          "internalType": "uint256",
          "name": "_val",
          "type": "uint256"
        },
        {
          "internalType": "uint256",
          "name": "_j",
          "type": "uint256"
        },
        {
          "components": [
            {
              "components": [
                {
                  "internalType": "uint256",
                  "name": "x",
                  "type": "uint256"
                },
                {
                  "internalType": "uint256",
                  "name": "y",
                  "type": "uint256"
                }
              ],
              "internalType": "struct Secp256r1.ECPoint",
              "name": "p",
              "type": "tuple"
            },
            {
              "internalType": "uint256",
              "name": "i",
              "type": "uint256"
            },
            {
              "internalType": "uint256",
              "name": "j",
              "type": "uint256"
            },
            {
              "internalType": "uint256",
              "name": "h",
              "type": "uint256"
            },
            {
              "components": [
                {
                  "internalType": "uint256",
                  "name": "r",
                  "type": "uint256"
                },
                {
                  "internalType": "uint256",
                  "name": "s",
                  "type": "uint256"
                }
              ],
              "internalType": "struct ECDSA.ECDSA_Sig",
              "name": "sig",
              "type": "tuple"
            }
          ],
          "internalType": "struct Shares.F[]",
          "name": "_F",
          "type": "tuple[]"
        }
      ],
      "name": "verifySharesVal",
      "outputs": [
        {
          "internalType": "bool",
          "name": "",
          "type": "bool"
        }
      ],
      "stateMutability": "pure",
      "type": "function",
      "constant": true
    },
    {
      "inputs": [
        {
          "internalType": "uint256[]",
          "name": "_shares",
          "type": "uint256[]"
        }
      ],
      "name": "calcSubSecrets",
      "outputs": [
        {
          "internalType": "uint256",
          "name": "",
          "type": "uint256"
        }
      ],
      "stateMutability": "pure",
      "type": "function",
      "constant": true
    }
  ],
  "bytecode": "0x610d0761003a600b82828239805160001a60731461002d57634e487b7160e01b600052600060045260246000fd5b30600052607381538281f3fe73000000000000000000000000000000000000000030146080604052600436106100405760003560e01c8063964af91c14610045578063ba9bf3681461006b575b600080fd5b610058610053366004610a2f565b61008e565b6040519081526020015b60405180910390f35b61007e610079366004610aa3565b6100f0565b6040519015158152602001610062565b60008060005b838110156100e6576f4319055258e8617b0c46353d039cdaae63ffffffff60c01b01198585838181106100c9576100c9610b3b565b9050602002013583089150806100de81610b67565b915050610094565b5090505b92915050565b60006100fa6109f7565b6101026109f7565b61010a6109f7565b60005b858110156101fb578061019457610188610127828a610c66565b88888481811061013957610139610b3b565b60e0029190910135905089898581811061015557610155610b3b565b905060e00201600001602001356003600160601b0363ffffffff60c01b0319600160601b63ffffffff60c01b03196102a7565b602084015282526101e9565b6101a1610127828a610c66565b60208087018290528287528451908501516101e19391929091906003600160601b0363ffffffff60c01b0319600160601b63ffffffff60c01b03196102e1565b602084015282525b806101f381610b67565b91505061010d565b50610268887f6b17d1f2e12c4247f8bce6e563a440f277037d812deb33a0f4a13945d898c2967f4fe342e2fe1a7f9b8ee7eb4a7c0f9e162bce33576b315ececbb6406837bf51f56003600160601b0363ffffffff60c01b0319600160601b63ffffffff60c01b03196102a7565b60208401528083528151148015610286575080602001518260200151145b15610297576001935050505061029f565b600093505050505b949350505050565b60008060008060006102be8a8a8a60018b8b610367565b9250925092506102d0838383896103e5565b945094505050509550959350505050565b6000806000806000888b141561032f5785806102ff576102ff610b25565b888b08610315576000809450945050505061035c565b6103238b8b60018a8a610454565b91945092509050610348565b6103408b8b60018c8c60018c6105f3565b919450925090505b610354838383896103e5565b945094505050505b965096945050505050565b600080808861037d5750869150859050846103d9565b8860008060015b83156103d05760018416156103aa576103a28383838f8f8f8e6105f3565b919450925090505b6103b5600285610c79565b93506103c48c8c8c8c8c610454565b919d509b509950610384565b91955093509150505b96509650969350505050565b60008060006103f4858561092b565b90506000848061040657610406610b25565b82830990506000858061041b5761041b610b25565b828a0990506000868061043057610430610b25565b878061043e5761043e610b25565b8486098a09919a91995090975050505050505050565b600080808561046a5750869150859050846105e8565b6000848061047a5761047a610b25565b898a0990506000858061048f5761048f610b25565b898a099050600086806104a4576104a4610b25565b898a099050600087806104b9576104b9610b25565b88806104c7576104c7610b25565b848e096004099050600088806104df576104df610b25565b89806104ed576104ed610b25565b8a806104fb576104fb610b25565b8586098c098a8061050e5761050e610b25565b87600309089050888061052357610523610b25565b898061053157610531610b25565b83840861053e908b610c9b565b8a8061054c5761054c610b25565b838409089450888061056057610560610b25565b898061056e5761056e610b25565b8a8061057c5761057c610b25565b86870960080961058c908b610c9b565b8a8061059a5761059a610b25565b8b806105a8576105a8610b25565b6105b2898e610c9b565b8608840908935088806105c7576105c7610b25565b89806105d5576105d5610b25565b8c8e096002099497509295509293505050505b955095509592505050565b6000808089158015610603575088155b1561061557508591508490508361091e565b86158015610621575085155b1561063357508891508790508661091e565b61063b610a11565b848061064957610649610b25565b898a098152848061065c5761065c610b25565b81518a096020820152848061067357610673610b25565b8687096040820152848061068957610689610b25565b60408201518709606082015260408051608081019091528086806106af576106af610b25565b60408401518e09815260200186806106c9576106c9610b25565b60608401518d09815260200186806106e3576106e3610b25565b83518b09815260200186806106fa576106fa610b25565b60208401518a0990526040810151815191925014158061072257506060810151602082015114155b6107735760405162461bcd60e51b815260206004820152601e60248201527f557365206a6163446f75626c652066756e6374696f6e20696e7374656164000060448201526064015b60405180910390fd5b61077b610a11565b858061078957610789610b25565b82516107959088610c9b565b604084015108815285806107ab576107ab610b25565b60208301516107ba9088610c9b565b606084015108602082015285806107d3576107d3610b25565b81518009604082015285806107ea576107ea610b25565b815160408301510960608201526000868061080757610807610b25565b60608301516108169089610c9b565b888061082457610824610b25565b60208501518009089050868061083c5761083c610b25565b878061084a5761084a610b25565b888061085857610858610b25565b604085015186510960020961086d9089610c9b565b820890506000878061088157610881610b25565b888061088f5761088f610b25565b610899848b610c9b565b8a806108a7576108a7610b25565b604087015188510908602085015109905087806108c6576108c6610b25565b88806108d4576108d4610b25565b60608501516020870151096108e9908a610c9b565b82089050600088806108fd576108fd610b25565b898061090b5761090b610b25565b8b8f098551099297509095509093505050505b9750975097945050505050565b6000821580159061093c5750818314155b801561094757508115155b6109845760405162461bcd60e51b815260206004820152600e60248201526d24b73b30b634b210373ab6b132b960911b604482015260640161076a565b6000600183825b86156109ec5761099b8783610c79565b90508286806109ac576109ac610b25565b87806109ba576109ba610b25565b8584096109c79089610c9b565b86089094509250866109d98183610cb2565b6109e39084610c9b565b9750915061098b565b509195945050505050565b604051806040016040528060008152602001600081525090565b60405180608001604052806004906020820280368337509192915050565b60008060208385031215610a4257600080fd5b82356001600160401b0380821115610a5957600080fd5b818501915085601f830112610a6d57600080fd5b813581811115610a7c57600080fd5b8660208260051b8501011115610a9157600080fd5b60209290920196919550909350505050565b60008060008060608587031215610ab957600080fd5b843593506020850135925060408501356001600160401b0380821115610ade57600080fd5b818701915087601f830112610af257600080fd5b813581811115610b0157600080fd5b88602060e083028501011115610b1657600080fd5b95989497505060200194505050565b634e487b7160e01b600052601260045260246000fd5b634e487b7160e01b600052603260045260246000fd5b634e487b7160e01b600052601160045260246000fd5b6000600019821415610b7b57610b7b610b51565b5060010190565b600181815b80851115610bbd578160001904821115610ba357610ba3610b51565b80851615610bb057918102915b93841c9390800290610b87565b509250929050565b600082610bd4575060016100ea565b81610be1575060006100ea565b8160018114610bf75760028114610c0157610c1d565b60019150506100ea565b60ff841115610c1257610c12610b51565b50506001821b6100ea565b5060208310610133831016604e8410600b8410161715610c40575081810a6100ea565b610c4a8383610b82565b8060001904821115610c5e57610c5e610b51565b029392505050565b6000610c728383610bc5565b9392505050565b600082610c9657634e487b7160e01b600052601260045260246000fd5b500490565b600082821015610cad57610cad610b51565b500390565b6000816000190483118215151615610ccc57610ccc610b51565b50029056fea26469706673582212203ed8f5f12330459ef77e0c40f72095998dbf7bcdb74d2df7a05b669d3e14cc1b64736f6c634300080a0033",
  "immutableReferences": {},
  "source": "// SPDX-License-Identifier: MIT\r\n\r\npragma solidity >=0.5.3 <0.9.0;\r\n\r\nimport \"./Secp256r1.sol\";\r\nimport \"./ECDSA.sol\";\r\nimport \"./CPProof.sol\";\r\nimport \"./Elgamal.sol\";\r\n\r\nlibrary Shares{\r\n    // Parameters for verifying fi(j)*G == Fi,0 + Fi,1 * j + ... + Fi,2 * j^(t-1)\r\n    struct VerSharesPar{\r\n        Secp256r1.ECPoint H2;\r\n        uint i;\r\n        uint j; // public key index + 2\r\n        CPProof.CPproof proof;\r\n    }\r\n\r\n    struct F{\r\n        Secp256r1.ECPoint p;\r\n        uint i;\r\n        uint j;\r\n        uint256 h;\r\n        ECDSA.ECDSA_Sig sig;\r\n    }\r\n\r\n    struct f{\r\n        Elgamal.Elgamal_ciphertext ciphertext;\r\n        uint i;\r\n        uint j;\r\n        uint256 h;\r\n        ECDSA.ECDSA_Sig sig;\r\n    }\r\n\r\n    struct SubSecret{\r\n        // uint256 h;\r\n        uint256 subSecret;\r\n        uint i;\r\n        // ECDSA.ECDSA_Sig sig;\r\n    }\r\n\r\n    function verifySharesVal(uint256 _val,uint256 _j\r\n    ,F[] calldata _F) external pure\r\n    returns (bool){\r\n        Secp256r1.ECPoint memory tmp;\r\n        Secp256r1.ECPoint memory lhs;\r\n        Secp256r1.ECPoint memory rhs;\r\n        for(uint t=0;t<_F.length;t++){\r\n            if(t==0){\r\n                (rhs.x,rhs.y) = EllipticCurve.ecMul((_j)**t,_F[t].p.x,_F[t].p.y,Secp256r1.AA,Secp256r1.PP);\r\n            }else{\r\n                (tmp.x,tmp.y) = EllipticCurve.ecMul((_j)**t,_F[t].p.x,_F[t].p.y,Secp256r1.AA,Secp256r1.PP);\r\n                (rhs.x,rhs.y) = EllipticCurve.ecAdd(rhs.x, rhs.y, tmp.x, tmp.y, Secp256r1.AA, Secp256r1.PP);\r\n            }\r\n        }\r\n        (lhs.x,lhs.y) = EllipticCurve.ecMul(_val,Secp256r1.GX,Secp256r1.GY,Secp256r1.AA,Secp256r1.PP);\r\n        if(lhs.x == rhs.x && lhs.y == rhs.y){\r\n            return true;\r\n        }else{\r\n            return false;\r\n        }\r\n    }\r\n\r\n    function calcSubSecrets(uint256[] calldata _shares)\r\n    external pure returns(uint256){\r\n        uint256 t;\r\n        for(uint i=0;i<_shares.length;i++){\r\n            t = addmod(t,_shares[i],Secp256r1.NN);\r\n        }\r\n        return t;\r\n    }\r\n\r\n}",
  "sourcePath": "C:\\Users\\tim\\Desktop\\e-voting\\src\\contracts\\Shares.sol",
  "compiler": {
    "name": "solc",
    "version": "0.8.10+commit.fc410830.Emscripten.clang"
  },
  "schemaVersion": "3.4.4",
  "updatedAt": "2022-04-01T03:42:11.772Z",
  "networkType": "ethereum",
  "devdoc": {
    "kind": "dev",
    "methods": {},
    "version": 1
  },
  "userdoc": {
    "kind": "user",
    "methods": {},
    "version": 1
  }
}