{
  "contractName": "Shares",
  "abi": [
    {
      "inputs": [
        {
          "internalType": "uint256",
          "name": "_val",
          "type": "uint256"
        },
        {
          "components": [
            {
              "components": [
                {
                  "internalType": "uint256",
                  "name": "x",
                  "type": "uint256"
                },
                {
                  "internalType": "uint256",
                  "name": "y",
                  "type": "uint256"
                }
              ],
              "internalType": "struct Secp256r1.ECPoint",
              "name": "H2",
              "type": "tuple"
            },
            {
              "internalType": "uint256",
              "name": "i",
              "type": "uint256"
            },
            {
              "internalType": "uint256",
              "name": "j",
              "type": "uint256"
            },
            {
              "components": [
                {
                  "internalType": "uint256",
                  "name": "c",
                  "type": "uint256"
                },
                {
                  "internalType": "uint256",
                  "name": "r",
                  "type": "uint256"
                }
              ],
              "internalType": "struct CPProof.CPproof",
              "name": "proof",
              "type": "tuple"
            }
          ],
          "internalType": "struct Shares.VerSharesPar",
          "name": "_Par",
          "type": "tuple"
        },
        {
          "components": [
            {
              "components": [
                {
                  "internalType": "uint256",
                  "name": "x",
                  "type": "uint256"
                },
                {
                  "internalType": "uint256",
                  "name": "y",
                  "type": "uint256"
                }
              ],
              "internalType": "struct Secp256r1.ECPoint",
              "name": "p",
              "type": "tuple"
            },
            {
              "internalType": "uint256",
              "name": "i",
              "type": "uint256"
            },
            {
              "internalType": "uint256",
              "name": "j",
              "type": "uint256"
            },
            {
              "internalType": "uint256",
              "name": "h",
              "type": "uint256"
            },
            {
              "components": [
                {
                  "internalType": "uint256",
                  "name": "r",
                  "type": "uint256"
                },
                {
                  "internalType": "uint256",
                  "name": "s",
                  "type": "uint256"
                }
              ],
              "internalType": "struct ECDSA.ECDSA_Sig",
              "name": "sig",
              "type": "tuple"
            }
          ],
          "internalType": "struct Shares.F[]",
          "name": "_F",
          "type": "tuple[]"
        }
      ],
      "name": "verifySharesVal",
      "outputs": [
        {
          "internalType": "bool",
          "name": "",
          "type": "bool"
        }
      ],
      "stateMutability": "pure",
      "type": "function",
      "constant": true
    },
    {
      "inputs": [
        {
          "internalType": "uint256[]",
          "name": "_shares",
          "type": "uint256[]"
        }
      ],
      "name": "calcSubSecrets",
      "outputs": [
        {
          "internalType": "uint256",
          "name": "",
          "type": "uint256"
        }
      ],
      "stateMutability": "pure",
      "type": "function",
      "constant": true
    }
  ],
  "bytecode": "0x610d2361003a600b82828239805160001a60731461002d57634e487b7160e01b600052600060045260246000fd5b30600052607381538281f3fe73000000000000000000000000000000000000000030146080604052600436106100405760003560e01c8063330f6d1514610045578063964af91c1461006d575b600080fd5b610058610053366004610a37565b61008e565b60405190151581526020015b60405180910390f35b61008061007b366004610acd565b61024d565b604051908152602001610064565b60006100986109ff565b6100a06109ff565b6100a86109ff565b60005b858110156101a157806101365761012a6100c98260608b0135610c3b565b8888848181106100db576100db610c4e565b60e002919091013590508989858181106100f7576100f7610c4e565b905060e00201600001602001356003600160601b0363ffffffff60c01b0319600160601b63ffffffff60c01b03196102af565b6020840152825261018f565b6101476100c98260608b0135610c3b565b60208087018290528287528451908501516101879391929091906003600160601b0363ffffffff60c01b0319600160601b63ffffffff60c01b03196102e9565b602084015282525b8061019981610c64565b9150506100ab565b5061020e887f6b17d1f2e12c4247f8bce6e563a440f277037d812deb33a0f4a13945d898c2967f4fe342e2fe1a7f9b8ee7eb4a7c0f9e162bce33576b315ececbb6406837bf51f56003600160601b0363ffffffff60c01b0319600160601b63ffffffff60c01b03196102af565b6020840152808352815114801561022c575080602001518260200151145b1561023d5760019350505050610245565b600093505050505b949350505050565b60008060005b838110156102a5576f4319055258e8617b0c46353d039cdaae63ffffffff60c01b011985858381811061028857610288610c4e565b90506020020135830891508061029d81610c64565b915050610253565b5090505b92915050565b60008060008060006102c68a8a8a60018b8b61036f565b9250925092506102d8838383896103ed565b945094505050509550959350505050565b6000806000806000888b141561033757858061030757610307610c7f565b888b0861031d5760008094509450505050610364565b61032b8b8b60018a8a61045c565b91945092509050610350565b6103488b8b60018c8c60018c6105fb565b919450925090505b61035c838383896103ed565b945094505050505b965096945050505050565b60008080886103855750869150859050846103e1565b8860008060015b83156103d85760018416156103b2576103aa8383838f8f8f8e6105fb565b919450925090505b6103bd600285610c95565b93506103cc8c8c8c8c8c61045c565b919d509b50995061038c565b91955093509150505b96509650969350505050565b60008060006103fc8585610933565b90506000848061040e5761040e610c7f565b82830990506000858061042357610423610c7f565b828a0990506000868061043857610438610c7f565b878061044657610446610c7f565b8486098a09919a91995090975050505050505050565b60008080856104725750869150859050846105f0565b6000848061048257610482610c7f565b898a0990506000858061049757610497610c7f565b898a099050600086806104ac576104ac610c7f565b898a099050600087806104c1576104c1610c7f565b88806104cf576104cf610c7f565b848e096004099050600088806104e7576104e7610c7f565b89806104f5576104f5610c7f565b8a8061050357610503610c7f565b8586098c098a8061051657610516610c7f565b87600309089050888061052b5761052b610c7f565b898061053957610539610c7f565b838408610546908b610cb7565b8a8061055457610554610c7f565b838409089450888061056857610568610c7f565b898061057657610576610c7f565b8a8061058457610584610c7f565b868709600809610594908b610cb7565b8a806105a2576105a2610c7f565b8b806105b0576105b0610c7f565b6105ba898e610cb7565b8608840908935088806105cf576105cf610c7f565b89806105dd576105dd610c7f565b8c8e096002099497509295509293505050505b955095509592505050565b600080808915801561060b575088155b1561061d575085915084905083610926565b86158015610629575085155b1561063b575088915087905086610926565b610643610a19565b848061065157610651610c7f565b898a098152848061066457610664610c7f565b81518a096020820152848061067b5761067b610c7f565b8687096040820152848061069157610691610c7f565b60408201518709606082015260408051608081019091528086806106b7576106b7610c7f565b60408401518e09815260200186806106d1576106d1610c7f565b60608401518d09815260200186806106eb576106eb610c7f565b83518b098152602001868061070257610702610c7f565b60208401518a0990526040810151815191925014158061072a57506060810151602082015114155b61077b5760405162461bcd60e51b815260206004820152601e60248201527f557365206a6163446f75626c652066756e6374696f6e20696e7374656164000060448201526064015b60405180910390fd5b610783610a19565b858061079157610791610c7f565b825161079d9088610cb7565b604084015108815285806107b3576107b3610c7f565b60208301516107c29088610cb7565b606084015108602082015285806107db576107db610c7f565b81518009604082015285806107f2576107f2610c7f565b815160408301510960608201526000868061080f5761080f610c7f565b606083015161081e9089610cb7565b888061082c5761082c610c7f565b60208501518009089050868061084457610844610c7f565b878061085257610852610c7f565b888061086057610860610c7f565b60408501518651096002096108759089610cb7565b820890506000878061088957610889610c7f565b888061089757610897610c7f565b6108a1848b610cb7565b8a806108af576108af610c7f565b604087015188510908602085015109905087806108ce576108ce610c7f565b88806108dc576108dc610c7f565b60608501516020870151096108f1908a610cb7565b820890506000888061090557610905610c7f565b898061091357610913610c7f565b8b8f098551099297509095509093505050505b9750975097945050505050565b600082158015906109445750818314155b801561094f57508115155b61098c5760405162461bcd60e51b815260206004820152600e60248201526d24b73b30b634b210373ab6b132b960911b6044820152606401610772565b6000600183825b86156109f4576109a38783610c95565b90508286806109b4576109b4610c7f565b87806109c2576109c2610c7f565b8584096109cf9089610cb7565b86089094509250866109e18183610cce565b6109eb9084610cb7565b97509150610993565b509195945050505050565b604051806040016040528060008152602001600081525090565b60405180608001604052806004906020820280368337509192915050565b600080600080848603610100811215610a4f57600080fd5b8535945060c0601f1982011215610a6557600080fd5b5060208501925060e08501356001600160401b0380821115610a8657600080fd5b818701915087601f830112610a9a57600080fd5b813581811115610aa957600080fd5b88602060e083028501011115610abe57600080fd5b95989497505060200194505050565b60008060208385031215610ae057600080fd5b82356001600160401b0380821115610af757600080fd5b818501915085601f830112610b0b57600080fd5b813581811115610b1a57600080fd5b8660208260051b8501011115610b2f57600080fd5b60209290920196919550909350505050565b634e487b7160e01b600052601160045260246000fd5b600181815b80851115610b92578160001904821115610b7857610b78610b41565b80851615610b8557918102915b93841c9390800290610b5c565b509250929050565b600082610ba9575060016102a9565b81610bb6575060006102a9565b8160018114610bcc5760028114610bd657610bf2565b60019150506102a9565b60ff841115610be757610be7610b41565b50506001821b6102a9565b5060208310610133831016604e8410600b8410161715610c15575081810a6102a9565b610c1f8383610b57565b8060001904821115610c3357610c33610b41565b029392505050565b6000610c478383610b9a565b9392505050565b634e487b7160e01b600052603260045260246000fd5b6000600019821415610c7857610c78610b41565b5060010190565b634e487b7160e01b600052601260045260246000fd5b600082610cb257634e487b7160e01b600052601260045260246000fd5b500490565b600082821015610cc957610cc9610b41565b500390565b6000816000190483118215151615610ce857610ce8610b41565b50029056fea26469706673582212201916cf9ff3116e008bc811d8a724eb855d96394abdc6888e582775fce6b6297b64736f6c634300080a0033",
  "immutableReferences": {},
  "source": "// SPDX-License-Identifier: MIT\r\n\r\npragma solidity >=0.5.3 <0.9.0;\r\n\r\nimport \"./Secp256r1.sol\";\r\nimport \"./ECDSA.sol\";\r\nimport \"./CPProof.sol\";\r\nimport \"./Elgamal.sol\";\r\n\r\nlibrary Shares{\r\n    // Parameters for verifying fi(j)*G == Fi,0 + Fi,1 * j + ... + Fi,2 * j^(t-1)\r\n    struct VerSharesPar{\r\n        Secp256r1.ECPoint H2;\r\n        uint i;\r\n        uint j; // public key index + 2\r\n        CPProof.CPproof proof;\r\n    }\r\n\r\n    struct F{\r\n        Secp256r1.ECPoint p;\r\n        uint i;\r\n        uint j;\r\n        uint256 h;\r\n        ECDSA.ECDSA_Sig sig;\r\n    }\r\n\r\n    struct f{\r\n        Elgamal.Elgamal_ciphertext ciphertext;\r\n        uint i;\r\n        uint j;\r\n        uint256 h;\r\n        ECDSA.ECDSA_Sig sig;\r\n    }\r\n\r\n    struct SubSecretWithSig{\r\n        uint256 h;\r\n        uint256 subSecret;\r\n        uint i;\r\n        ECDSA.ECDSA_Sig sig;\r\n    }\r\n\r\n    function verifySharesVal(uint256 _val,VerSharesPar calldata _Par\r\n    ,F[] calldata _F) external pure\r\n    returns (bool){\r\n        Secp256r1.ECPoint memory tmp;\r\n        Secp256r1.ECPoint memory lhs;\r\n        Secp256r1.ECPoint memory rhs;\r\n        for(uint t=0;t<_F.length;t++){\r\n            if(t==0){\r\n                (rhs.x,rhs.y) = EllipticCurve.ecMul((_Par.j)**t,_F[t].p.x,_F[t].p.y,Secp256r1.AA,Secp256r1.PP);\r\n            }else{\r\n                (tmp.x,tmp.y) = EllipticCurve.ecMul((_Par.j)**t,_F[t].p.x,_F[t].p.y,Secp256r1.AA,Secp256r1.PP);\r\n                (rhs.x,rhs.y) = EllipticCurve.ecAdd(rhs.x, rhs.y, tmp.x, tmp.y, Secp256r1.AA, Secp256r1.PP);\r\n            }\r\n        }\r\n        (lhs.x,lhs.y) = EllipticCurve.ecMul(_val,Secp256r1.GX,Secp256r1.GY,Secp256r1.AA,Secp256r1.PP);\r\n        if(lhs.x == rhs.x && lhs.y == rhs.y){\r\n            return true;\r\n        }else{\r\n            return false;\r\n        }\r\n    }\r\n\r\n    function calcSubSecrets(uint256[] calldata _shares)\r\n    external pure returns(uint256){\r\n        uint256 t;\r\n        for(uint i=0;i<_shares.length;i++){\r\n            t = addmod(t,_shares[i],Secp256r1.NN);\r\n        }\r\n        return t;\r\n    }\r\n\r\n}",
  "sourcePath": "C:\\Users\\tim\\Desktop\\e-voting\\src\\contracts\\Shares.sol",
  "compiler": {
    "name": "solc",
    "version": "0.8.10+commit.fc410830.Emscripten.clang"
  },
  "schemaVersion": "3.4.4",
  "updatedAt": "2022-03-30T12:09:34.434Z",
  "networkType": "ethereum",
  "devdoc": {
    "kind": "dev",
    "methods": {},
    "version": 1
  },
  "userdoc": {
    "kind": "user",
    "methods": {},
    "version": 1
  }
}