{
  "contractName": "Shares",
  "abi": [
    {
      "inputs": [
        {
          "internalType": "uint256",
          "name": "_val",
          "type": "uint256"
        },
        {
          "components": [
            {
              "components": [
                {
                  "internalType": "uint256",
                  "name": "x",
                  "type": "uint256"
                },
                {
                  "internalType": "uint256",
                  "name": "y",
                  "type": "uint256"
                }
              ],
              "internalType": "struct Secp256r1.ECPoint",
              "name": "H2",
              "type": "tuple"
            },
            {
              "internalType": "uint256",
              "name": "i",
              "type": "uint256"
            },
            {
              "internalType": "uint256",
              "name": "j",
              "type": "uint256"
            },
            {
              "components": [
                {
                  "internalType": "uint256",
                  "name": "c",
                  "type": "uint256"
                },
                {
                  "internalType": "uint256",
                  "name": "r",
                  "type": "uint256"
                }
              ],
              "internalType": "struct CPProof.CPproof",
              "name": "proof",
              "type": "tuple"
            }
          ],
          "internalType": "struct Shares.VerSharesPar",
          "name": "_Par",
          "type": "tuple"
        },
        {
          "components": [
            {
              "components": [
                {
                  "internalType": "uint256",
                  "name": "x",
                  "type": "uint256"
                },
                {
                  "internalType": "uint256",
                  "name": "y",
                  "type": "uint256"
                }
              ],
              "internalType": "struct Secp256r1.ECPoint",
              "name": "p",
              "type": "tuple"
            },
            {
              "internalType": "uint256",
              "name": "i",
              "type": "uint256"
            },
            {
              "internalType": "uint256",
              "name": "j",
              "type": "uint256"
            },
            {
              "internalType": "uint256",
              "name": "h",
              "type": "uint256"
            },
            {
              "components": [
                {
                  "internalType": "uint256",
                  "name": "r",
                  "type": "uint256"
                },
                {
                  "internalType": "uint256",
                  "name": "s",
                  "type": "uint256"
                }
              ],
              "internalType": "struct ECDSA.ECDSA_Sig",
              "name": "sig",
              "type": "tuple"
            }
          ],
          "internalType": "struct Shares.F[]",
          "name": "_F",
          "type": "tuple[]"
        }
      ],
      "name": "verifySharesVal",
      "outputs": [
        {
          "internalType": "bool",
          "name": "",
          "type": "bool"
        }
      ],
      "stateMutability": "pure",
      "type": "function",
      "constant": true
    }
  ],
  "bytecode": "0x610c2261003a600b82828239805160001a60731461002d57634e487b7160e01b600052600060045260246000fd5b30600052607381538281f3fe73000000000000000000000000000000000000000030146080604052600436106100355760003560e01c8063330f6d151461003a575b600080fd5b61004d6100483660046109aa565b610061565b604051901515815260200160405180910390f35b600061006b610972565b610073610972565b61007b610972565b60005b858110156101745780610109576100fd61009c8260608b0135610b3a565b8888848181106100ae576100ae610b4d565b60e002919091013590508989858181106100ca576100ca610b4d565b905060e00201600001602001356003600160601b0363ffffffff60c01b0319600160601b63ffffffff60c01b0319610220565b60208401528252610162565b61011a61009c8260608b0135610b3a565b602080870182905282875284519085015161015a9391929091906003600160601b0363ffffffff60c01b0319600160601b63ffffffff60c01b031961025a565b602084015282525b8061016c81610b63565b91505061007e565b506101e1887f6b17d1f2e12c4247f8bce6e563a440f277037d812deb33a0f4a13945d898c2967f4fe342e2fe1a7f9b8ee7eb4a7c0f9e162bce33576b315ececbb6406837bf51f56003600160601b0363ffffffff60c01b0319600160601b63ffffffff60c01b0319610220565b602084015280835281511480156101ff575080602001518260200151145b156102105760019350505050610218565b600093505050505b949350505050565b60008060008060006102378a8a8a60018b8b6102e0565b9250925092506102498383838961035e565b945094505050509550959350505050565b6000806000806000888b14156102a857858061027857610278610b7e565b888b0861028e57600080945094505050506102d5565b61029c8b8b60018a8a6103cd565b919450925090506102c1565b6102b98b8b60018c8c60018c61056c565b919450925090505b6102cd8383838961035e565b945094505050505b965096945050505050565b60008080886102f6575086915085905084610352565b8860008060015b83156103495760018416156103235761031b8383838f8f8f8e61056c565b919450925090505b61032e600285610b94565b935061033d8c8c8c8c8c6103cd565b919d509b5099506102fd565b91955093509150505b96509650969350505050565b600080600061036d85856108a4565b90506000848061037f5761037f610b7e565b82830990506000858061039457610394610b7e565b828a099050600086806103a9576103a9610b7e565b87806103b7576103b7610b7e565b8486098a09919a91995090975050505050505050565b60008080856103e3575086915085905084610561565b600084806103f3576103f3610b7e565b898a0990506000858061040857610408610b7e565b898a0990506000868061041d5761041d610b7e565b898a0990506000878061043257610432610b7e565b888061044057610440610b7e565b848e0960040990506000888061045857610458610b7e565b898061046657610466610b7e565b8a8061047457610474610b7e565b8586098c098a8061048757610487610b7e565b87600309089050888061049c5761049c610b7e565b89806104aa576104aa610b7e565b8384086104b7908b610bb6565b8a806104c5576104c5610b7e565b83840908945088806104d9576104d9610b7e565b89806104e7576104e7610b7e565b8a806104f5576104f5610b7e565b868709600809610505908b610bb6565b8a8061051357610513610b7e565b8b8061052157610521610b7e565b61052b898e610bb6565b86088409089350888061054057610540610b7e565b898061054e5761054e610b7e565b8c8e096002099497509295509293505050505b955095509592505050565b600080808915801561057c575088155b1561058e575085915084905083610897565b8615801561059a575085155b156105ac575088915087905086610897565b6105b461098c565b84806105c2576105c2610b7e565b898a09815284806105d5576105d5610b7e565b81518a09602082015284806105ec576105ec610b7e565b8687096040820152848061060257610602610b7e565b604082015187096060820152604080516080810190915280868061062857610628610b7e565b60408401518e098152602001868061064257610642610b7e565b60608401518d098152602001868061065c5761065c610b7e565b83518b098152602001868061067357610673610b7e565b60208401518a0990526040810151815191925014158061069b57506060810151602082015114155b6106ec5760405162461bcd60e51b815260206004820152601e60248201527f557365206a6163446f75626c652066756e6374696f6e20696e7374656164000060448201526064015b60405180910390fd5b6106f461098c565b858061070257610702610b7e565b825161070e9088610bb6565b6040840151088152858061072457610724610b7e565b60208301516107339088610bb6565b6060840151086020820152858061074c5761074c610b7e565b815180096040820152858061076357610763610b7e565b815160408301510960608201526000868061078057610780610b7e565b606083015161078f9089610bb6565b888061079d5761079d610b7e565b6020850151800908905086806107b5576107b5610b7e565b87806107c3576107c3610b7e565b88806107d1576107d1610b7e565b60408501518651096002096107e69089610bb6565b82089050600087806107fa576107fa610b7e565b888061080857610808610b7e565b610812848b610bb6565b8a8061082057610820610b7e565b6040870151885109086020850151099050878061083f5761083f610b7e565b888061084d5761084d610b7e565b6060850151602087015109610862908a610bb6565b820890506000888061087657610876610b7e565b898061088457610884610b7e565b8b8f098551099297509095509093505050505b9750975097945050505050565b600082158015906108b55750818314155b80156108c057508115155b6108fd5760405162461bcd60e51b815260206004820152600e60248201526d24b73b30b634b210373ab6b132b960911b60448201526064016106e3565b6000600183825b8615610965576109148783610b94565b905082868061092557610925610b7e565b878061093357610933610b7e565b8584096109409089610bb6565b86089094509250866109528183610bcd565b61095c9084610bb6565b97509150610904565b5091925050505b92915050565b604051806040016040528060008152602001600081525090565b60405180608001604052806004906020820280368337509192915050565b6000806000808486036101008112156109c257600080fd5b8535945060c0601f19820112156109d857600080fd5b5060208501925060e08501356001600160401b03808211156109f957600080fd5b818701915087601f830112610a0d57600080fd5b813581811115610a1c57600080fd5b88602060e083028501011115610a3157600080fd5b95989497505060200194505050565b634e487b7160e01b600052601160045260246000fd5b600181815b80851115610a91578160001904821115610a7757610a77610a40565b80851615610a8457918102915b93841c9390800290610a5b565b509250929050565b600082610aa85750600161096c565b81610ab55750600061096c565b8160018114610acb5760028114610ad557610af1565b600191505061096c565b60ff841115610ae657610ae6610a40565b50506001821b61096c565b5060208310610133831016604e8410600b8410161715610b14575081810a61096c565b610b1e8383610a56565b8060001904821115610b3257610b32610a40565b029392505050565b6000610b468383610a99565b9392505050565b634e487b7160e01b600052603260045260246000fd5b6000600019821415610b7757610b77610a40565b5060010190565b634e487b7160e01b600052601260045260246000fd5b600082610bb157634e487b7160e01b600052601260045260246000fd5b500490565b600082821015610bc857610bc8610a40565b500390565b6000816000190483118215151615610be757610be7610a40565b50029056fea2646970667358221220fd4deb11bad3d94ed37b4b45e10fe995e6a52c228c9597544ab47ecae70d03ca64736f6c634300080a0033",
  "immutableReferences": {},
  "source": "// SPDX-License-Identifier: MIT\r\n\r\npragma solidity >=0.5.3 <0.9.0;\r\n\r\nimport \"./Secp256r1.sol\";\r\nimport \"./ECDSA.sol\";\r\nimport \"./CPProof.sol\";\r\nimport \"./Elgamal.sol\";\r\n\r\nlibrary Shares{\r\n    // Parameters for verifying fi(j)*G == Fi,0 + Fi,1 * j + ... + Fi,2 * j^(t-1)\r\n    struct VerSharesPar{\r\n        Secp256r1.ECPoint H2;\r\n        uint i;\r\n        uint j; // public key index + 1\r\n        CPProof.CPproof proof;\r\n    }\r\n\r\n    struct F{\r\n        Secp256r1.ECPoint p;\r\n        uint i;\r\n        uint j;\r\n        uint256 h;\r\n        ECDSA.ECDSA_Sig sig;\r\n    }\r\n\r\n    struct f{\r\n        Elgamal.Elgamal_ciphertext ciphertext;\r\n        uint i;\r\n        uint j;\r\n        uint256 h;\r\n        ECDSA.ECDSA_Sig sig;\r\n    }\r\n\r\n    function verifySharesVal(uint256 _val,VerSharesPar calldata _Par\r\n    ,F[] calldata _F) external pure\r\n    returns (bool){\r\n        Secp256r1.ECPoint memory tmp;\r\n        Secp256r1.ECPoint memory lhs;\r\n        Secp256r1.ECPoint memory rhs;\r\n        for(uint t=0;t<_F.length;t++){\r\n            if(t==0){\r\n                (rhs.x,rhs.y) = EllipticCurve.ecMul((_Par.j)**t,_F[t].p.x,_F[t].p.y,Secp256r1.AA,Secp256r1.PP);\r\n            }else{\r\n                (tmp.x,tmp.y) = EllipticCurve.ecMul((_Par.j)**t,_F[t].p.x,_F[t].p.y,Secp256r1.AA,Secp256r1.PP);\r\n                (rhs.x,rhs.y) = EllipticCurve.ecAdd(rhs.x, rhs.y, tmp.x, tmp.y, Secp256r1.AA, Secp256r1.PP);\r\n            }\r\n        }\r\n        (lhs.x,lhs.y) = EllipticCurve.ecMul(_val,Secp256r1.GX,Secp256r1.GY,Secp256r1.AA,Secp256r1.PP);\r\n        if(lhs.x == rhs.x && lhs.y == rhs.y){\r\n            return true;\r\n        }else{\r\n            return false;\r\n        }\r\n    }\r\n\r\n}",
  "sourcePath": "C:\\Users\\tim\\Desktop\\e-voting\\src\\contracts\\Shares.sol",
  "compiler": {
    "name": "solc",
    "version": "0.8.10+commit.fc410830.Emscripten.clang"
  },
  "schemaVersion": "3.4.4",
  "updatedAt": "2022-02-07T06:16:57.099Z",
  "networkType": "ethereum",
  "devdoc": {
    "kind": "dev",
    "methods": {},
    "version": 1
  },
  "userdoc": {
    "kind": "user",
    "methods": {},
    "version": 1
  }
}