{
  "contractName": "Utils",
  "abi": [
    {
      "inputs": [],
      "name": "AA",
      "outputs": [
        {
          "internalType": "uint256",
          "name": "",
          "type": "uint256"
        }
      ],
      "stateMutability": "view",
      "type": "function",
      "constant": true
    },
    {
      "inputs": [],
      "name": "BB",
      "outputs": [
        {
          "internalType": "uint256",
          "name": "",
          "type": "uint256"
        }
      ],
      "stateMutability": "view",
      "type": "function",
      "constant": true
    },
    {
      "inputs": [],
      "name": "GX",
      "outputs": [
        {
          "internalType": "uint256",
          "name": "",
          "type": "uint256"
        }
      ],
      "stateMutability": "view",
      "type": "function",
      "constant": true
    },
    {
      "inputs": [],
      "name": "GY",
      "outputs": [
        {
          "internalType": "uint256",
          "name": "",
          "type": "uint256"
        }
      ],
      "stateMutability": "view",
      "type": "function",
      "constant": true
    },
    {
      "inputs": [],
      "name": "HH",
      "outputs": [
        {
          "internalType": "uint256",
          "name": "",
          "type": "uint256"
        }
      ],
      "stateMutability": "view",
      "type": "function",
      "constant": true
    },
    {
      "inputs": [],
      "name": "NN",
      "outputs": [
        {
          "internalType": "uint256",
          "name": "",
          "type": "uint256"
        }
      ],
      "stateMutability": "view",
      "type": "function",
      "constant": true
    },
    {
      "inputs": [],
      "name": "PP",
      "outputs": [
        {
          "internalType": "uint256",
          "name": "",
          "type": "uint256"
        }
      ],
      "stateMutability": "view",
      "type": "function",
      "constant": true
    },
    {
      "inputs": [
        {
          "internalType": "uint256",
          "name": "message",
          "type": "uint256"
        }
      ],
      "name": "hash1",
      "outputs": [
        {
          "internalType": "uint256",
          "name": "",
          "type": "uint256"
        }
      ],
      "stateMutability": "pure",
      "type": "function",
      "constant": true
    },
    {
      "inputs": [
        {
          "internalType": "uint256",
          "name": "message",
          "type": "uint256"
        }
      ],
      "name": "hash2",
      "outputs": [
        {
          "components": [
            {
              "internalType": "uint256",
              "name": "x",
              "type": "uint256"
            },
            {
              "internalType": "uint256",
              "name": "y",
              "type": "uint256"
            }
          ],
          "internalType": "struct Utils.ECPoint",
          "name": "",
          "type": "tuple"
        }
      ],
      "stateMutability": "pure",
      "type": "function",
      "constant": true
    },
    {
      "inputs": [
        {
          "internalType": "uint256",
          "name": "Px",
          "type": "uint256"
        },
        {
          "internalType": "uint256",
          "name": "Py",
          "type": "uint256"
        },
        {
          "internalType": "uint256",
          "name": "a",
          "type": "uint256"
        }
      ],
      "name": "pointMul",
      "outputs": [
        {
          "components": [
            {
              "internalType": "uint256",
              "name": "x",
              "type": "uint256"
            },
            {
              "internalType": "uint256",
              "name": "y",
              "type": "uint256"
            }
          ],
          "internalType": "struct Utils.ECPoint",
          "name": "",
          "type": "tuple"
        }
      ],
      "stateMutability": "pure",
      "type": "function",
      "constant": true
    },
    {
      "inputs": [
        {
          "components": [
            {
              "internalType": "uint256",
              "name": "x",
              "type": "uint256"
            },
            {
              "internalType": "uint256",
              "name": "y",
              "type": "uint256"
            }
          ],
          "internalType": "struct Utils.ECPoint",
          "name": "p1",
          "type": "tuple"
        },
        {
          "components": [
            {
              "internalType": "uint256",
              "name": "x",
              "type": "uint256"
            },
            {
              "internalType": "uint256",
              "name": "y",
              "type": "uint256"
            }
          ],
          "internalType": "struct Utils.ECPoint",
          "name": "p2",
          "type": "tuple"
        }
      ],
      "name": "pointAdd",
      "outputs": [
        {
          "components": [
            {
              "internalType": "uint256",
              "name": "x",
              "type": "uint256"
            },
            {
              "internalType": "uint256",
              "name": "y",
              "type": "uint256"
            }
          ],
          "internalType": "struct Utils.ECPoint",
          "name": "",
          "type": "tuple"
        }
      ],
      "stateMutability": "pure",
      "type": "function",
      "constant": true
    },
    {
      "inputs": [
        {
          "components": [
            {
              "internalType": "uint256",
              "name": "message",
              "type": "uint256"
            },
            {
              "internalType": "uint256",
              "name": "U0",
              "type": "uint256"
            },
            {
              "internalType": "uint256",
              "name": "L",
              "type": "uint256"
            },
            {
              "internalType": "uint256[]",
              "name": "V",
              "type": "uint256[]"
            },
            {
              "components": [
                {
                  "internalType": "uint256",
                  "name": "x",
                  "type": "uint256"
                },
                {
                  "internalType": "uint256",
                  "name": "y",
                  "type": "uint256"
                }
              ],
              "internalType": "struct Utils.ECPoint",
              "name": "H",
              "type": "tuple"
            },
            {
              "components": [
                {
                  "internalType": "uint256",
                  "name": "x",
                  "type": "uint256"
                },
                {
                  "internalType": "uint256",
                  "name": "y",
                  "type": "uint256"
                }
              ],
              "internalType": "struct Utils.ECPoint",
              "name": "K",
              "type": "tuple"
            },
            {
              "components": [
                {
                  "internalType": "uint256",
                  "name": "x",
                  "type": "uint256"
                },
                {
                  "internalType": "uint256",
                  "name": "y",
                  "type": "uint256"
                }
              ],
              "internalType": "struct Utils.ECPoint[]",
              "name": "EC_public_keys",
              "type": "tuple[]"
            }
          ],
          "internalType": "struct Utils.LRS_parameters",
          "name": "_LRS",
          "type": "tuple"
        }
      ],
      "name": "verifyLRS",
      "outputs": [
        {
          "internalType": "bool",
          "name": "",
          "type": "bool"
        }
      ],
      "stateMutability": "pure",
      "type": "function",
      "constant": true
    },
    {
      "inputs": [
        {
          "components": [
            {
              "internalType": "uint256",
              "name": "r",
              "type": "uint256"
            },
            {
              "internalType": "uint256",
              "name": "s",
              "type": "uint256"
            },
            {
              "internalType": "uint256",
              "name": "h",
              "type": "uint256"
            },
            {
              "internalType": "uint256",
              "name": "Px",
              "type": "uint256"
            },
            {
              "internalType": "uint256",
              "name": "Py",
              "type": "uint256"
            }
          ],
          "internalType": "struct Utils.ECDSA_parameters",
          "name": "_ecdsa",
          "type": "tuple"
        }
      ],
      "name": "ecdsa_verify",
      "outputs": [
        {
          "internalType": "bool",
          "name": "",
          "type": "bool"
        }
      ],
      "stateMutability": "pure",
      "type": "function",
      "constant": true
    },
    {
      "inputs": [
        {
          "components": [
            {
              "internalType": "uint256",
              "name": "x",
              "type": "uint256"
            },
            {
              "internalType": "uint256",
              "name": "y",
              "type": "uint256"
            }
          ],
          "internalType": "struct Utils.ECPoint[]",
          "name": "_Ps",
          "type": "tuple[]"
        }
      ],
      "name": "setVotePublicKey",
      "outputs": [
        {
          "components": [
            {
              "internalType": "uint256",
              "name": "x",
              "type": "uint256"
            },
            {
              "internalType": "uint256",
              "name": "y",
              "type": "uint256"
            }
          ],
          "internalType": "struct Utils.ECPoint",
          "name": "",
          "type": "tuple"
        }
      ],
      "stateMutability": "pure",
      "type": "function",
      "constant": true
    },
    {
      "inputs": [
        {
          "components": [
            {
              "internalType": "uint256",
              "name": "h",
              "type": "uint256"
            },
            {
              "internalType": "uint256",
              "name": "subSecret",
              "type": "uint256"
            },
            {
              "internalType": "uint256",
              "name": "i",
              "type": "uint256"
            },
            {
              "components": [
                {
                  "internalType": "uint256",
                  "name": "r",
                  "type": "uint256"
                },
                {
                  "internalType": "uint256",
                  "name": "s",
                  "type": "uint256"
                }
              ],
              "internalType": "struct Utils.ECDSA_Sig",
              "name": "sig",
              "type": "tuple"
            }
          ],
          "internalType": "struct Utils.SubSecretWithSig[]",
          "name": "_subSecrets",
          "type": "tuple[]"
        },
        {
          "internalType": "uint256",
          "name": "_min_shares",
          "type": "uint256"
        }
      ],
      "name": "setVotePrivateKey",
      "outputs": [
        {
          "internalType": "uint256",
          "name": "",
          "type": "uint256"
        }
      ],
      "stateMutability": "pure",
      "type": "function",
      "constant": true
    },
    {
      "inputs": [
        {
          "components": [
            {
              "components": [
                {
                  "internalType": "uint256",
                  "name": "x",
                  "type": "uint256"
                },
                {
                  "internalType": "uint256",
                  "name": "y",
                  "type": "uint256"
                }
              ],
              "internalType": "struct Utils.ECPoint",
              "name": "C",
              "type": "tuple"
            },
            {
              "components": [
                {
                  "internalType": "uint256",
                  "name": "x",
                  "type": "uint256"
                },
                {
                  "internalType": "uint256",
                  "name": "y",
                  "type": "uint256"
                }
              ],
              "internalType": "struct Utils.ECPoint",
              "name": "D",
              "type": "tuple"
            }
          ],
          "internalType": "struct Utils.Elgamal_ciphertext",
          "name": "_ciphertext",
          "type": "tuple"
        },
        {
          "internalType": "uint256",
          "name": "_votePrvKey",
          "type": "uint256"
        }
      ],
      "name": "elgamal_decrypt",
      "outputs": [
        {
          "internalType": "uint256",
          "name": "",
          "type": "uint256"
        }
      ],
      "stateMutability": "pure",
      "type": "function",
      "constant": true
    }
  ],
  "bytecode": "0x61194061003a600b82828239805160001a60731461002d57634e487b7160e01b600052600060045260246000fd5b30600052607381538281f3fe73000000000000000000000000000000000000000030146080604052600436106100ea5760003560e01c8063997da8d411610091578063997da8d4146101df57806399ebf589146101f7578063a4ff42741461020a578063aebdf69b1461021d578063decf56a414610230578063eeeac01e14610238578063f527081e1461024d578063fd6bbc321461026057600080fd5b806303a507be146100ef57806304e134d5146101175780631a86f4071461014557806334b9cfc2146101585780634154f34b1461017b5780635727dc5c1461018e5780637a308a4c146101b55780639870e2a4146101ca575b600080fd5b6101046000805160206118ab83398151915281565b6040519081526020015b60405180910390f35b61012a61012536600461146a565b610273565b6040805182518152602092830151928101929092520161010e565b61010461015336600461149f565b6102d6565b61016b6101663660046114d0565b6103a3565b604051901515815260200161010e565b61012a6101893660046114e8565b6104dc565b6101047f5ac635d8aa3a93e7b3ebbd55769886bc651d06b0cc53b0f63bce3c3e27d2604b81565b6101046000805160206118eb83398151915281565b6101046000805160206118cb83398151915281565b6101046003600160601b0363ffffffff60c01b031981565b61016b610205366004611501565b610551565b61012a610218366004611543565b6108b2565b61010461022b3660046115b7565b6109cd565b610104600181565b610104600160601b63ffffffff60c01b031981565b61010461025b3660046114e8565b610b95565b61012a61026e366004611631565b610be2565b61027b6113c0565b6000806102bb85600001518660200151866000015187602001516003600160601b0363ffffffff60c01b0319600160601b63ffffffff60c01b0319610c35565b60408051808201909152918252602082015295945050505050565b60006102e06113c0565b6102e86113c0565b6102f06113c0565b61032185873560208901356003600160601b0363ffffffff60c01b0319600160601b63ffffffff60c01b0319610cbb565b602085018190528185526103449190600160601b63ffffffff60c01b0319610cf5565b602084018190528184526103859160408901359160608a013591906003600160601b0363ffffffff60c01b0319600160601b63ffffffff60c01b0319610c35565b602083015280825261039990600190611673565b9695505050505050565b6000806103ae6113c0565b6103b66113c0565b6103be6113c0565b6103da86602001356000805160206118cb833981519152610d1a565b93506104396000805160206118cb833981519152876040013586096000805160206118ab8339815191526000805160206118eb8339815191526003600160601b0363ffffffff60c01b0319600160601b63ffffffff60c01b0319610cbb565b602085015283526104866000805160206118cb83398151915287358609876060013588608001356003600160601b0363ffffffff60c01b0319600160601b63ffffffff60c01b0319610cbb565b60208085018290528285528551908601516104c69391929091906003600160601b0363ffffffff60c01b0319600160601b63ffffffff60c01b0319610c35565b6020830152908190529435909414949350505050565b6104e46113c0565b6000806105376104f385610b95565b6000805160206118ab8339815191526000805160206118eb8339815191526003600160601b0363ffffffff60c01b0319600160601b63ffffffff60c01b0319610cbb565b604080518082019091529182526020820152949350505050565b60006020820135816105616113c0565b6105696113c0565b6105716113c0565b6105796113c0565b6105816113c0565b6105896113c0565b60005b61059a6101008c018c6116a0565b905081101561089b5761060e6105b360608d018d6116f0565b838181106105c3576105c3611739565b905060200201356000805160206118ab8339815191526000805160206118eb8339815191526003600160601b0363ffffffff60c01b0319600160601b63ffffffff60c01b0319610cbb565b6020890152875261068f896106276101008e018e6116a0565b8481811061063757610637611739565b6040029190910135905061064f6101008f018f6116a0565b8581811061065f5761065f611739565b905060400201602001356003600160601b0363ffffffff60c01b0319600160601b63ffffffff60c01b0319610cbb565b602088015286526106f06106a660608d018d6116f0565b838181106106b6576106b6611739565b6020029190910135905060808d013560a08e01356003600160601b0363ffffffff60c01b0319600160601b63ffffffff60c01b0319610cbb565b6020870152855261072b8960c08d013560e08e01356003600160601b0363ffffffff60c01b0319600160601b63ffffffff60c01b0319610cbb565b60208087019190915290855287518882015188519289015161076e93906003600160601b0363ffffffff60c01b0319600160601b63ffffffff60c01b0319610c35565b6020808601919091529084528551868201518651928701516107b193906003600160601b0363ffffffff60c01b0319600160601b63ffffffff60c01b0319610c35565b6020840152825260408b013597506000805160206118cb8339815191528060e08d013560c08e013508890897506000805160206118cb8339815191526108066000805160206118cb8339815191528d3561174f565b890897506000805160206118cb833981519152806020850151855108890897506000805160206118cb833981519152806020840151845108890897506000805160206118cb8339815191528860405160200161086491815260200190565b6040516020818303038152906040528051906020012060001c610887919061174f565b98508061089381611763565b91505061058c565b508960200135881498505050505050505050919050565b6108ba6113c0565b6108c26113c0565b61095f848460008181106108d8576108d8611739565b90506040020160000135858560008181106108f5576108f5611739565b905060400201602001358686600181811061091257610912611739565b905060400201600001358787600181811061092f5761092f611739565b905060400201602001356003600160601b0363ffffffff60c01b0319600160601b63ffffffff60c01b0319610c35565b6020830152815260025b838110156109c5576109ac8260000151836020015187878581811061099057610990611739565b9050604002016000013588888681811061092f5761092f611739565b60208401528252806109bd81611763565b915050610969565b509392505050565b6000808080856001600160401b038111156109ea576109ea6113f8565b604051908082528060200260200182016040528015610a13578160200160208202803683370190505b50905060008060008060005b8a811015610b40578b8b82818110610a3957610a39611739565b905060a00201604001356001610a4f919061177e565b93508b8b82818110610a6357610a63611739565b905060a0020160200135965060019250600191506000600190505b8a8111610ac157848114610aaf57610a968185611796565b9350610aa285826117b5565b610aac90846117f4565b92505b80610ab981611763565b915050610a7e565b50610acb82610deb565b6000805160206118cb833981519152848909610ae79190611879565b965060008212610b0257610afb878961177e565b9750610b2e565b86868681518110610b1557610b15611739565b602090810291909101015284610b2a81611763565b9550505b80610b3881611763565b915050610a1f565b5060005b84811015610b8557858181518110610b5e57610b5e611739565b602002602001015188610b719190611673565b975080610b7d81611763565b915050610b44565b50959a9950505050505050505050565b60006000805160206118cb83398151915282604051602001610bb991815260200190565b6040516020818303038152906040528051906020012060001c610bdc919061174f565b92915050565b610bea6113c0565b600080610c198487876003600160601b0363ffffffff60c01b0319600160601b63ffffffff60c01b0319610cbb565b6040805180820190915291825260208201529695505050505050565b6000806000806000888b1415610c83578580610c5357610c5361168a565b888b08610c695760008094509450505050610cb0565b610c778b8b60018a8a610e01565b91945092509050610c9c565b610c948b8b60018c8c60018c610fa0565b919450925090505b610ca8838383896112d3565b945094505050505b965096945050505050565b6000806000806000610cd28a8a8a60018b8b611342565b925092509250610ce4838383896112d3565b945094505050509550959350505050565b6000808483610d048682611673565b610d0e919061174f565b91509150935093915050565b60008215801590610d2b5750818314155b8015610d3657508115155b610d785760405162461bcd60e51b815260206004820152600e60248201526d24b73b30b634b210373ab6b132b960911b60448201526064015b60405180910390fd5b6000600183825b8615610de057610d8f8783611879565b9050828680610da057610da061168a565b8780610dae57610dae61168a565b858409610dbb9089611673565b8608909450925086610dcd8183611796565b610dd79084611673565b97509150610d7f565b509195945050505050565b6000808212610df8575090565b610bdc8261188d565b6000808085610e17575086915085905084610f95565b60008480610e2757610e2761168a565b898a09905060008580610e3c57610e3c61168a565b898a09905060008680610e5157610e5161168a565b898a09905060008780610e6657610e6661168a565b8880610e7457610e7461168a565b848e09600409905060008880610e8c57610e8c61168a565b8980610e9a57610e9a61168a565b8a80610ea857610ea861168a565b8586098c098a80610ebb57610ebb61168a565b876003090890508880610ed057610ed061168a565b8980610ede57610ede61168a565b838408610eeb908b611673565b8a80610ef957610ef961168a565b8384090894508880610f0d57610f0d61168a565b8980610f1b57610f1b61168a565b8a80610f2957610f2961168a565b868709600809610f39908b611673565b8a80610f4757610f4761168a565b8b80610f5557610f5561168a565b610f5f898e611673565b860884090893508880610f7457610f7461168a565b8980610f8257610f8261168a565b8c8e096002099497509295509293505050505b955095509592505050565b6000808089158015610fb0575088155b15610fc25750859150849050836112c6565b86158015610fce575085155b15610fe05750889150879050866112c6565b610fe86113da565b8480610ff657610ff661168a565b898a09815284806110095761100961168a565b81518a09602082015284806110205761102061168a565b868709604082015284806110365761103661168a565b604082015187096060820152604080516080810190915280868061105c5761105c61168a565b60408401518e09815260200186806110765761107661168a565b60608401518d09815260200186806110905761109061168a565b83518b09815260200186806110a7576110a761168a565b60208401518a099052604081015181519192501415806110cf57506060810151602082015114155b61111b5760405162461bcd60e51b815260206004820152601e60248201527f557365206a6163446f75626c652066756e6374696f6e20696e737465616400006044820152606401610d6f565b6111236113da565b85806111315761113161168a565b825161113d9088611673565b604084015108815285806111535761115361168a565b60208301516111629088611673565b6060840151086020820152858061117b5761117b61168a565b81518009604082015285806111925761119261168a565b81516040830151096060820152600086806111af576111af61168a565b60608301516111be9089611673565b88806111cc576111cc61168a565b6020850151800908905086806111e4576111e461168a565b87806111f2576111f261168a565b88806112005761120061168a565b60408501518651096002096112159089611673565b82089050600087806112295761122961168a565b88806112375761123761168a565b611241848b611673565b8a8061124f5761124f61168a565b6040870151885109086020850151099050878061126e5761126e61168a565b888061127c5761127c61168a565b6060850151602087015109611291908a611673565b82089050600088806112a5576112a561168a565b89806112b3576112b361168a565b8b8f098551099297509095509093505050505b9750975097945050505050565b60008060006112e28585610d1a565b9050600084806112f4576112f461168a565b8283099050600085806113095761130961168a565b828a0990506000868061131e5761131e61168a565b878061132c5761132c61168a565b8486098a09919a91995090975050505050505050565b60008080886113585750869150859050846113b4565b8860008060015b83156113ab5760018416156113855761137d8383838f8f8f8e610fa0565b919450925090505b611390600285611879565b935061139f8c8c8c8c8c610e01565b919d509b50995061135f565b91955093509150505b96509650969350505050565b604051806040016040528060008152602001600081525090565b60405180608001604052806004906020820280368337509192915050565b634e487b7160e01b600052604160045260246000fd5b60006040828403121561142057600080fd5b604051604081018181106001600160401b038211171561145057634e487b7160e01b600052604160045260246000fd5b604052823581526020928301359281019290925250919050565b6000806080838503121561147d57600080fd5b611487848461140e565b9150611496846040850161140e565b90509250929050565b60008082840360a08112156114b357600080fd5b60808112156114c157600080fd5b50919360808501359350915050565b600060a082840312156114e257600080fd5b50919050565b6000602082840312156114fa57600080fd5b5035919050565b60006020828403121561151357600080fd5b81356001600160401b0381111561152957600080fd5b8201610120818503121561153c57600080fd5b9392505050565b6000806020838503121561155657600080fd5b82356001600160401b038082111561156d57600080fd5b818501915085601f83011261158157600080fd5b81358181111561159057600080fd5b8660208260061b85010111156115a557600080fd5b60209290920196919550909350505050565b6000806000604084860312156115cc57600080fd5b83356001600160401b03808211156115e357600080fd5b818601915086601f8301126115f757600080fd5b81358181111561160657600080fd5b87602060a08302850101111561161b57600080fd5b6020928301989097509590910135949350505050565b60008060006060848603121561164657600080fd5b505081359360208301359350604090920135919050565b634e487b7160e01b600052601160045260246000fd5b6000828210156116855761168561165d565b500390565b634e487b7160e01b600052601260045260246000fd5b6000808335601e198436030181126116b757600080fd5b8301803591506001600160401b038211156116d157600080fd5b6020019150600681901b36038213156116e957600080fd5b9250929050565b6000808335601e1984360301811261170757600080fd5b8301803591506001600160401b0382111561172157600080fd5b6020019150600581901b36038213156116e957600080fd5b634e487b7160e01b600052603260045260246000fd5b60008261175e5761175e61168a565b500690565b60006000198214156117775761177761165d565b5060010190565b600082198211156117915761179161165d565b500190565b60008160001904831182151516156117b0576117b061165d565b500290565b60008083128015600160ff1b8501841216156117d3576117d361165d565b6001600160ff1b03840183138116156117ee576117ee61165d565b50500390565b60006001600160ff1b038184138284138082168684048611161561181a5761181a61165d565b600160ff1b60008712828116878305891216156118395761183961165d565b600087129250878205871284841616156118555761185561165d565b8785058712818416161561186b5761186b61165d565b505050929093029392505050565b6000826118885761188861168a565b500490565b6000600160ff1b8214156118a3576118a361165d565b506000039056fe6b17d1f2e12c4247f8bce6e563a440f277037d812deb33a0f4a13945d898c296ffffffff00000000ffffffffffffffffbce6faada7179e84f3b9cac2fc6325514fe342e2fe1a7f9b8ee7eb4a7c0f9e162bce33576b315ececbb6406837bf51f5a2646970667358221220e1b9b77be82889977901e31b9cd996710634e4742bd227cdafaa5a39be6c124264736f6c634300080a0033",
  "immutableReferences": {},
  "source": "// SPDX-License-Identifier: MIT\r\n\r\npragma solidity >=0.5.3 <0.9.0;\r\n\r\nimport \"./EllipticCurve.sol\";\r\n\r\nlibrary Utils{\r\n\r\n    // Elliptic Curve Point\r\n    struct ECPoint{\r\n        uint256 x;\r\n        uint256 y;\r\n    }\r\n\r\n    // linkable ring signature parameters\r\n    struct LRS_parameters{\r\n        uint256 message; \r\n        uint256 U0;\r\n        uint256 L;\r\n        uint256[] V;\r\n        ECPoint H;\r\n        ECPoint K;\r\n        ECPoint[] EC_public_keys;  \r\n    }\r\n\r\n    // secp256r1 parameters\r\n    // https://neuromancer.sk/std/secg/secp256r1#\r\n    uint256 public constant GX = 0x6b17d1f2e12c4247f8bce6e563a440f277037d812deb33a0f4a13945d898c296;\r\n    uint256 public constant GY = 0x4fe342e2fe1a7f9b8ee7eb4a7c0f9e162bce33576b315ececbb6406837bf51f5;\r\n    uint256 public constant AA = 0xffffffff00000001000000000000000000000000fffffffffffffffffffffffc;\r\n    uint256 public constant BB = 0x5ac635d8aa3a93e7b3ebbd55769886bc651d06b0cc53b0f63bce3c3e27d2604b;\r\n    uint256 public constant PP = 0xffffffff00000001000000000000000000000000ffffffffffffffffffffffff;\r\n    uint256 public constant NN = 0xffffffff00000000ffffffffffffffffbce6faada7179e84f3b9cac2fc632551;\r\n    uint256 public constant HH = 0x1;\r\n\r\n    function hash1(uint256 message) public pure returns (uint256){\r\n        return uint256(keccak256(abi.encode(message))) % NN;\r\n    }\r\n\r\n    function hash2(uint256 message) public pure returns (ECPoint memory){\r\n        (uint256 x, uint256 y) = EllipticCurve.ecMul(hash1(message),GX,GY,AA,PP);\r\n        return ECPoint(x,y);\r\n    }\r\n\r\n    function pointMul(uint256 Px,uint256 Py, uint256 a) public pure returns (ECPoint memory){\r\n        (uint256 x, uint256 y) = EllipticCurve.ecMul(a,Px,Py,AA,PP);\r\n        return ECPoint(x,y);\r\n    }\r\n\r\n    function pointAdd(ECPoint memory p1, ECPoint memory p2) public pure returns (ECPoint memory){\r\n        (uint256 x, uint256 y) = EllipticCurve.ecAdd(p1.x,p1.y,p2.x,p2.y,AA,PP);\r\n        return ECPoint(x,y);\r\n    }\r\n\r\n    function verifyLRS(LRS_parameters calldata _LRS) \r\n    external pure returns(bool){\r\n        uint256 U = _LRS.U0;\r\n        uint256 n;\r\n        ECPoint memory vG;\r\n        ECPoint memory uY;\r\n        ECPoint memory vH;\r\n        ECPoint memory uK;\r\n        ECPoint memory vG_add_uY;\r\n        ECPoint memory vH_add_uK;\r\n\r\n        for(uint i=0;i<_LRS.EC_public_keys.length;i++){\r\n            (vG.x,vG.y) = EllipticCurve.ecMul(_LRS.V[i],GX,GY,AA,PP);\r\n            (uY.x,uY.y) = EllipticCurve.ecMul(U,_LRS.EC_public_keys[i].x,_LRS.EC_public_keys[i].y,AA,PP);\r\n            (vH.x,vH.y) = EllipticCurve.ecMul(_LRS.V[i],_LRS.H.x,_LRS.H.y,AA,PP);            \r\n            (uK.x,uK.y) = EllipticCurve.ecMul(U,_LRS.K.x,_LRS.K.y,AA,PP);\r\n            (vG_add_uY.x, vG_add_uY.y) = EllipticCurve.ecAdd(vG.x,vG.y,uY.x,uY.y,AA,PP);\r\n            (vH_add_uK.x, vH_add_uK.y) = EllipticCurve.ecAdd(vH.x,vH.y,uK.x,uK.y,AA,PP);\r\n            \r\n            n = _LRS.L;\r\n            n = addmod(n,addmod(_LRS.K.x, _LRS.K.y, NN),NN);\r\n            n = addmod(n,_LRS.message % NN,NN);\r\n            n = addmod(n,addmod(vG_add_uY.x, vG_add_uY.y, NN),NN);\r\n            n = addmod(n,addmod(vH_add_uK.x, vH_add_uK.y, NN),NN);\r\n\r\n            U = uint256(keccak256(abi.encode(n))) % NN;\r\n        }\r\n\r\n        return U == _LRS.U0;\r\n    }\r\n\r\n    // Parameters needed for verifying EC signature\r\n    // Px = PubKey.x\r\n    // Py = PubKey.y\r\n    struct ECDSA_parameters{\r\n        uint256 r;\r\n        uint256 s;\r\n        uint256 h;\r\n        uint256 Px; \r\n        uint256 Py; \r\n    }\r\n\r\n    struct ECDSA_Sig{\r\n        uint256 r;\r\n        uint256 s;\r\n    }\r\n\r\n    struct SubSecretWithSig{\r\n        uint256 h;\r\n        uint256 subSecret;\r\n        uint i;\r\n        Utils.ECDSA_Sig sig;\r\n    }\r\n\r\n    function ecdsa_verify(ECDSA_parameters calldata _ecdsa)\r\n    external pure returns(bool){\r\n        uint256 s_inv;\r\n        ECPoint memory t1;\r\n        ECPoint memory t2;\r\n        ECPoint memory R;\r\n        \r\n        // inverse of s \r\n        s_inv = EllipticCurve.invMod(_ecdsa.s , NN);\r\n        // tmp1 = ( (h * s_inv) mod n ) * G\r\n        (t1.x, t1.y) = EllipticCurve.ecMul(mulmod(s_inv,_ecdsa.h,NN), GX, GY, AA, PP);\r\n        // tmp2 = ( (r * s_inv) mod n ) * PubKey\r\n        (t2.x, t2.y) = EllipticCurve.ecMul(mulmod(s_inv,_ecdsa.r,NN), _ecdsa.Px, _ecdsa.Py, AA, PP);\r\n        // R' = tmp1 + tmp2 \r\n        (R.x, R.y) = EllipticCurve.ecAdd(t1.x, t1.y, t2.x, t2.y, AA, PP);\r\n        \r\n        return R.x == _ecdsa.r;\r\n    }\r\n    \r\n    function setVotePublicKey(ECPoint[] calldata _Ps) external pure returns(ECPoint memory){\r\n        ECPoint memory tmp;\r\n        (tmp.x, tmp.y) = EllipticCurve.ecAdd(_Ps[0].x, _Ps[0].y, _Ps[1].x, _Ps[1].y, AA, PP);\r\n        for(uint i=2;i<_Ps.length;i++){\r\n            (tmp.x, tmp.y) = EllipticCurve.ecAdd(tmp.x, tmp.y, _Ps[i].x, _Ps[i].y, AA, PP);\r\n        }\r\n        return tmp;\r\n    }\r\n    \r\n    function abs(int256 x) internal pure returns (uint256){\r\n        if (x >= 0){\r\n            return uint256(x);\r\n        }else{\r\n            return uint256(-x);\r\n        }\r\n    }\r\n\r\n    function setVotePrivateKey(SubSecretWithSig[] calldata _subSecrets, uint256 _min_shares) \r\n    external pure returns(uint256){\r\n        uint256 votePrvKey;\r\n        uint256 tmp;\r\n        uint256[] memory neg = new uint256[](_subSecrets.length);\r\n        uint negCount;\r\n        uint j;\r\n        uint mul;\r\n        int divide;\r\n        for(uint i=0;i<_subSecrets.length;i++){\r\n            j = _subSecrets[i].i+1;\r\n            tmp = _subSecrets[i].subSecret;\r\n            mul = 1;\r\n            divide = 1;\r\n            for(uint h=1;h<=_min_shares;h++){\r\n                if(h != j){\r\n                    mul = mul * h;\r\n                    divide = divide * (int(h) - int(j));\r\n                }\r\n            }\r\n            tmp = mulmod(tmp,mul,NN) / abs(divide);\r\n            if(divide >= 0){\r\n                votePrvKey += tmp;\r\n            }\r\n            else{\r\n                neg[negCount] = tmp;\r\n                negCount++;                    \r\n            }\r\n        }\r\n        for(uint i=0;i<negCount;i++){\r\n            votePrvKey -= neg[i];\r\n        }\r\n        return votePrvKey;\r\n    }\r\n\r\n    struct Elgamal_ciphertext{\r\n        ECPoint C;\r\n        ECPoint D;\r\n    }\r\n\r\n    function elgamal_decrypt(Elgamal_ciphertext calldata _ciphertext, uint256 _votePrvKey)\r\n    external pure returns (uint256){\r\n        ECPoint memory CC;\r\n        ECPoint memory CC_neg;\r\n        ECPoint memory Pm;\r\n\r\n        (CC.x, CC.y) = EllipticCurve.ecMul(_votePrvKey,_ciphertext.C.x,_ciphertext.C.y,AA,PP);\r\n        (CC_neg.x, CC_neg.y) = EllipticCurve.ecInv(CC.x, CC.y, PP);\r\n        (Pm.x,Pm.y) = EllipticCurve.ecAdd(_ciphertext.D.x,_ciphertext.D.y,CC_neg.x,CC_neg.y,AA,PP);\r\n        \r\n        return (Pm.x - uint256(1));\r\n    }\r\n}\r\n",
  "sourcePath": "C:\\Users\\tim\\Desktop\\e-voting\\src\\contracts\\Utils.sol",
  "compiler": {
    "name": "solc",
    "version": "0.8.10+commit.fc410830.Emscripten.clang"
  },
  "schemaVersion": "3.4.4",
  "updatedAt": "2022-01-26T08:37:38.276Z",
  "networkType": "ethereum",
  "devdoc": {
    "kind": "dev",
    "methods": {},
    "version": 1
  },
  "userdoc": {
    "kind": "user",
    "methods": {},
    "version": 1
  }
}