{
  "contractName": "Utils",
  "abi": [
    {
      "inputs": [
        {
          "internalType": "uint256",
          "name": "message",
          "type": "uint256"
        }
      ],
      "name": "hash1",
      "outputs": [
        {
          "internalType": "uint256",
          "name": "",
          "type": "uint256"
        }
      ],
      "stateMutability": "pure",
      "type": "function",
      "constant": true
    },
    {
      "inputs": [
        {
          "internalType": "uint256",
          "name": "message",
          "type": "uint256"
        }
      ],
      "name": "hash2",
      "outputs": [
        {
          "components": [
            {
              "internalType": "uint256",
              "name": "x",
              "type": "uint256"
            },
            {
              "internalType": "uint256",
              "name": "y",
              "type": "uint256"
            }
          ],
          "internalType": "struct Secp256r1.ECPoint",
          "name": "",
          "type": "tuple"
        }
      ],
      "stateMutability": "pure",
      "type": "function",
      "constant": true
    },
    {
      "inputs": [
        {
          "components": [
            {
              "internalType": "uint256",
              "name": "x",
              "type": "uint256"
            },
            {
              "internalType": "uint256",
              "name": "y",
              "type": "uint256"
            }
          ],
          "internalType": "struct Secp256r1.ECPoint[]",
          "name": "_Ps",
          "type": "tuple[]"
        },
        {
          "internalType": "uint256[]",
          "name": "_illegitimate_voter_indeces",
          "type": "uint256[]"
        }
      ],
      "name": "setVotePublicKey",
      "outputs": [
        {
          "components": [
            {
              "internalType": "uint256",
              "name": "x",
              "type": "uint256"
            },
            {
              "internalType": "uint256",
              "name": "y",
              "type": "uint256"
            }
          ],
          "internalType": "struct Secp256r1.ECPoint",
          "name": "",
          "type": "tuple"
        }
      ],
      "stateMutability": "pure",
      "type": "function",
      "constant": true
    },
    {
      "inputs": [
        {
          "internalType": "uint256",
          "name": "_prvKey",
          "type": "uint256"
        },
        {
          "components": [
            {
              "internalType": "uint256",
              "name": "x",
              "type": "uint256"
            },
            {
              "internalType": "uint256",
              "name": "y",
              "type": "uint256"
            }
          ],
          "internalType": "struct Secp256r1.ECPoint",
          "name": "_pubKey",
          "type": "tuple"
        }
      ],
      "name": "verfiyVotePrivateKey",
      "outputs": [
        {
          "internalType": "bool",
          "name": "",
          "type": "bool"
        }
      ],
      "stateMutability": "pure",
      "type": "function",
      "constant": true
    }
  ],
  "bytecode": "0x610da061003a600b82828239805160001a60731461002d57634e487b7160e01b600052600060045260246000fd5b30600052607381538281f3fe73000000000000000000000000000000000000000030146080604052600436106100565760003560e01c80631aad44b31461005b5780634154f34b1461008e578063f527081e146100a1578063fba6c1ec146100c2575b600080fd5b61006e610069366004610afb565b6100e5565b604080518251815260209283015192810192909252015b60405180910390f35b61006e61009c366004610bc2565b61021c565b6100b46100af366004610bc2565b610291565b604051908152602001610085565b6100d56100d0366004610bdb565b6102ea565b6040519015158152602001610085565b6100ed610ac3565b6000806100f8610ac3565b60005b87811015610210576000935060005b8681101561014d5787878281811061012457610124610c13565b9050602002013582141561013b576001945061014d565b8061014581610c3f565b91505061010a565b50836101fe578261018b5788888281811061016a5761016a610c13565b9050604002018036038101906101809190610c5a565b9150600192506101fe565b6101f6826000015183602001518b8b858181106101aa576101aa610c13565b905060400201600001358c8c868181106101c6576101c6610c13565b905060400201602001356003600160601b0363ffffffff60c01b0319600160601b63ffffffff60c01b0319610373565b602084015282525b8061020881610c3f565b9150506100fb565b50979650505050505050565b610224610ac3565b60008061027761023385610291565b600080516020610d2b833981519152600080516020610d4b8339815191526003600160601b0363ffffffff60c01b0319600160601b63ffffffff60c01b03196103f9565b604080518082019091529182526020820152949350505050565b60006f4319055258e8617b0c46353d039cdaae63ffffffff60c01b0119826040516020016102c191815260200190565b6040516020818303038152906040528051906020012060001c6102e49190610ccc565b92915050565b60006102f4610ac3565b61033c84600080516020610d2b833981519152600080516020610d4b8339815191526003600160601b0363ffffffff60c01b0319600160601b63ffffffff60c01b03196103f9565b6020830152808252833514801561035a575082602001358160200151145b156103695760019150506102e4565b5060009392505050565b6000806000806000888b14156103c157858061039157610391610cb6565b888b086103a757600080945094505050506103ee565b6103b58b8b60018a8a610433565b919450925090506103da565b6103d28b8b60018c8c60018c6105d2565b919450925090505b6103e68383838961090a565b945094505050505b965096945050505050565b60008060008060006104108a8a8a60018b8b610979565b9250925092506104228383838961090a565b945094505050509550959350505050565b60008080856104495750869150859050846105c7565b6000848061045957610459610cb6565b898a0990506000858061046e5761046e610cb6565b898a0990506000868061048357610483610cb6565b898a0990506000878061049857610498610cb6565b88806104a6576104a6610cb6565b848e096004099050600088806104be576104be610cb6565b89806104cc576104cc610cb6565b8a806104da576104da610cb6565b8586098c098a806104ed576104ed610cb6565b87600309089050888061050257610502610cb6565b898061051057610510610cb6565b83840861051d908b610ce0565b8a8061052b5761052b610cb6565b838409089450888061053f5761053f610cb6565b898061054d5761054d610cb6565b8a8061055b5761055b610cb6565b86870960080961056b908b610ce0565b8a8061057957610579610cb6565b8b8061058757610587610cb6565b610591898e610ce0565b8608840908935088806105a6576105a6610cb6565b89806105b4576105b4610cb6565b8c8e096002099497509295509293505050505b955095509592505050565b60008080891580156105e2575088155b156105f45750859150849050836108fd565b86158015610600575085155b156106125750889150879050866108fd565b61061a610add565b848061062857610628610cb6565b898a098152848061063b5761063b610cb6565b81518a096020820152848061065257610652610cb6565b8687096040820152848061066857610668610cb6565b604082015187096060820152604080516080810190915280868061068e5761068e610cb6565b60408401518e09815260200186806106a8576106a8610cb6565b60608401518d09815260200186806106c2576106c2610cb6565b83518b09815260200186806106d9576106d9610cb6565b60208401518a0990526040810151815191925014158061070157506060810151602082015114155b6107525760405162461bcd60e51b815260206004820152601e60248201527f557365206a6163446f75626c652066756e6374696f6e20696e7374656164000060448201526064015b60405180910390fd5b61075a610add565b858061076857610768610cb6565b82516107749088610ce0565b6040840151088152858061078a5761078a610cb6565b60208301516107999088610ce0565b606084015108602082015285806107b2576107b2610cb6565b81518009604082015285806107c9576107c9610cb6565b81516040830151096060820152600086806107e6576107e6610cb6565b60608301516107f59089610ce0565b888061080357610803610cb6565b60208501518009089050868061081b5761081b610cb6565b878061082957610829610cb6565b888061083757610837610cb6565b604085015186510960020961084c9089610ce0565b820890506000878061086057610860610cb6565b888061086e5761086e610cb6565b610878848b610ce0565b8a8061088657610886610cb6565b604087015188510908602085015109905087806108a5576108a5610cb6565b88806108b3576108b3610cb6565b60608501516020870151096108c8908a610ce0565b82089050600088806108dc576108dc610cb6565b89806108ea576108ea610cb6565b8b8f098551099297509095509093505050505b9750975097945050505050565b600080600061091985856109f7565b90506000848061092b5761092b610cb6565b82830990506000858061094057610940610cb6565b828a0990506000868061095557610955610cb6565b878061096357610963610cb6565b8486098a09919a91995090975050505050505050565b600080808861098f5750869150859050846109eb565b8860008060015b83156109e25760018416156109bc576109b48383838f8f8f8e6105d2565b919450925090505b6109c7600285610cf7565b93506109d68c8c8c8c8c610433565b919d509b509950610996565b91955093509150505b96509650969350505050565b60008215801590610a085750818314155b8015610a1357508115155b610a505760405162461bcd60e51b815260206004820152600e60248201526d24b73b30b634b210373ab6b132b960911b6044820152606401610749565b6000600183825b8615610ab857610a678783610cf7565b9050828680610a7857610a78610cb6565b8780610a8657610a86610cb6565b858409610a939089610ce0565b8608909450925086610aa58183610d0b565b610aaf9084610ce0565b97509150610a57565b509195945050505050565b604051806040016040528060008152602001600081525090565b60405180608001604052806004906020820280368337509192915050565b60008060008060408587031215610b1157600080fd5b84356001600160401b0380821115610b2857600080fd5b818701915087601f830112610b3c57600080fd5b813581811115610b4b57600080fd5b8860208260061b8501011115610b6057600080fd5b602092830196509450908601359080821115610b7b57600080fd5b818701915087601f830112610b8f57600080fd5b813581811115610b9e57600080fd5b8860208260051b8501011115610bb357600080fd5b95989497505060200194505050565b600060208284031215610bd457600080fd5b5035919050565b6000808284036060811215610bef57600080fd5b833592506040601f1982011215610c0557600080fd5b506020830190509250929050565b634e487b7160e01b600052603260045260246000fd5b634e487b7160e01b600052601160045260246000fd5b6000600019821415610c5357610c53610c29565b5060010190565b600060408284031215610c6c57600080fd5b604080519081016001600160401b0381118282101715610c9c57634e487b7160e01b600052604160045260246000fd5b604052823581526020928301359281019290925250919050565b634e487b7160e01b600052601260045260246000fd5b600082610cdb57610cdb610cb6565b500690565b600082821015610cf257610cf2610c29565b500390565b600082610d0657610d06610cb6565b500490565b6000816000190483118215151615610d2557610d25610c29565b50029056fe6b17d1f2e12c4247f8bce6e563a440f277037d812deb33a0f4a13945d898c2964fe342e2fe1a7f9b8ee7eb4a7c0f9e162bce33576b315ececbb6406837bf51f5a264697066735822122015b9378f5372ab2dfad8f153c9c08a461d04f92dc34a4de092c49eac9d4ed12c64736f6c634300080a0033",
  "immutableReferences": {},
  "source": "// SPDX-License-Identifier: MIT\r\n\r\npragma solidity >=0.5.3 <0.9.0;\r\n\r\nimport \"./EllipticCurve.sol\";\r\nimport \"./ECDSA.sol\";\r\nimport \"./Secp256r1.sol\";\r\n\r\nlibrary Utils{\r\n\r\n    function hash1(uint256 message) public pure returns (uint256){\r\n        return uint256(keccak256(abi.encode(message))) % Secp256r1.NN;\r\n    }\r\n\r\n    function hash2(uint256 message) public pure returns (Secp256r1.ECPoint memory){\r\n        (uint256 x, uint256 y) = EllipticCurve.ecMul(hash1(message),Secp256r1.GX,Secp256r1.GY,Secp256r1.AA,Secp256r1.PP);\r\n        return Secp256r1.ECPoint(x,y);\r\n    }\r\n\r\n    struct SubSecretWithSig{\r\n        uint256 h;\r\n        uint256 subSecret;\r\n        uint i;\r\n        ECDSA.ECDSA_Sig sig;\r\n    }\r\n\r\n    function setVotePublicKey(Secp256r1.ECPoint[] calldata _Ps,uint[] calldata _illegitimate_voter_indeces) external pure returns(Secp256r1.ECPoint memory){\r\n        bool isBadVoter;\r\n        bool isNotFirst;\r\n        Secp256r1.ECPoint memory tmp;\r\n        for(uint i=0;i<_Ps.length;i++){\r\n            isBadVoter = false;\r\n            for(uint j=0;j<_illegitimate_voter_indeces.length;j++){\r\n                if(i == _illegitimate_voter_indeces[j]){\r\n                    isBadVoter = true;\r\n                    break;\r\n                }\r\n            }\r\n            if(!isBadVoter){\r\n                if(!isNotFirst){\r\n                    tmp = _Ps[i];\r\n                    isNotFirst = true;\r\n                }else{\r\n                    (tmp.x, tmp.y) = EllipticCurve.ecAdd(tmp.x, tmp.y, _Ps[i].x, _Ps[i].y, Secp256r1.AA, Secp256r1.PP);\r\n                }\r\n            }\r\n        }\r\n        return tmp;\r\n    }\r\n\r\n    function verfiyVotePrivateKey(uint256 _prvKey,Secp256r1.ECPoint calldata _pubKey) \r\n    external pure returns (bool){\r\n        Secp256r1.ECPoint memory P;\r\n        (P.x,P.y) = EllipticCurve.ecMul(_prvKey, Secp256r1.GX, Secp256r1.GY, Secp256r1.AA, Secp256r1.PP);\r\n        if(P.x == _pubKey.x && P.y == _pubKey.y){\r\n            return true;\r\n        }else{\r\n            return false;\r\n        }\r\n    }\r\n\r\n}\r\n",
  "sourcePath": "C:\\Users\\tim\\Desktop\\e-voting\\src\\contracts\\Utils.sol",
  "compiler": {
    "name": "solc",
    "version": "0.8.10+commit.fc410830.Emscripten.clang"
  },
  "schemaVersion": "3.4.4",
  "updatedAt": "2022-02-07T06:16:57.071Z",
  "networkType": "ethereum",
  "devdoc": {
    "kind": "dev",
    "methods": {},
    "version": 1
  },
  "userdoc": {
    "kind": "user",
    "methods": {},
    "version": 1
  }
}