{
  "contractName": "Utils",
  "abi": [
    {
      "inputs": [],
      "name": "AA",
      "outputs": [
        {
          "internalType": "uint256",
          "name": "",
          "type": "uint256"
        }
      ],
      "stateMutability": "view",
      "type": "function",
      "constant": true
    },
    {
      "inputs": [],
      "name": "BB",
      "outputs": [
        {
          "internalType": "uint256",
          "name": "",
          "type": "uint256"
        }
      ],
      "stateMutability": "view",
      "type": "function",
      "constant": true
    },
    {
      "inputs": [],
      "name": "GX",
      "outputs": [
        {
          "internalType": "uint256",
          "name": "",
          "type": "uint256"
        }
      ],
      "stateMutability": "view",
      "type": "function",
      "constant": true
    },
    {
      "inputs": [],
      "name": "GY",
      "outputs": [
        {
          "internalType": "uint256",
          "name": "",
          "type": "uint256"
        }
      ],
      "stateMutability": "view",
      "type": "function",
      "constant": true
    },
    {
      "inputs": [],
      "name": "HH",
      "outputs": [
        {
          "internalType": "uint256",
          "name": "",
          "type": "uint256"
        }
      ],
      "stateMutability": "view",
      "type": "function",
      "constant": true
    },
    {
      "inputs": [],
      "name": "NN",
      "outputs": [
        {
          "internalType": "uint256",
          "name": "",
          "type": "uint256"
        }
      ],
      "stateMutability": "view",
      "type": "function",
      "constant": true
    },
    {
      "inputs": [],
      "name": "PP",
      "outputs": [
        {
          "internalType": "uint256",
          "name": "",
          "type": "uint256"
        }
      ],
      "stateMutability": "view",
      "type": "function",
      "constant": true
    },
    {
      "inputs": [
        {
          "internalType": "uint256",
          "name": "message",
          "type": "uint256"
        }
      ],
      "name": "hash1",
      "outputs": [
        {
          "internalType": "uint256",
          "name": "",
          "type": "uint256"
        }
      ],
      "stateMutability": "pure",
      "type": "function",
      "constant": true
    },
    {
      "inputs": [
        {
          "internalType": "uint256",
          "name": "message",
          "type": "uint256"
        }
      ],
      "name": "hash2",
      "outputs": [
        {
          "components": [
            {
              "internalType": "uint256",
              "name": "x",
              "type": "uint256"
            },
            {
              "internalType": "uint256",
              "name": "y",
              "type": "uint256"
            }
          ],
          "internalType": "struct Utils.ECPoint",
          "name": "",
          "type": "tuple"
        }
      ],
      "stateMutability": "pure",
      "type": "function",
      "constant": true
    },
    {
      "inputs": [
        {
          "internalType": "uint256",
          "name": "Px",
          "type": "uint256"
        },
        {
          "internalType": "uint256",
          "name": "Py",
          "type": "uint256"
        },
        {
          "internalType": "uint256",
          "name": "a",
          "type": "uint256"
        }
      ],
      "name": "pointMul",
      "outputs": [
        {
          "components": [
            {
              "internalType": "uint256",
              "name": "x",
              "type": "uint256"
            },
            {
              "internalType": "uint256",
              "name": "y",
              "type": "uint256"
            }
          ],
          "internalType": "struct Utils.ECPoint",
          "name": "",
          "type": "tuple"
        }
      ],
      "stateMutability": "pure",
      "type": "function",
      "constant": true
    },
    {
      "inputs": [
        {
          "components": [
            {
              "internalType": "uint256",
              "name": "x",
              "type": "uint256"
            },
            {
              "internalType": "uint256",
              "name": "y",
              "type": "uint256"
            }
          ],
          "internalType": "struct Utils.ECPoint",
          "name": "p1",
          "type": "tuple"
        },
        {
          "components": [
            {
              "internalType": "uint256",
              "name": "x",
              "type": "uint256"
            },
            {
              "internalType": "uint256",
              "name": "y",
              "type": "uint256"
            }
          ],
          "internalType": "struct Utils.ECPoint",
          "name": "p2",
          "type": "tuple"
        }
      ],
      "name": "pointAdd",
      "outputs": [
        {
          "components": [
            {
              "internalType": "uint256",
              "name": "x",
              "type": "uint256"
            },
            {
              "internalType": "uint256",
              "name": "y",
              "type": "uint256"
            }
          ],
          "internalType": "struct Utils.ECPoint",
          "name": "",
          "type": "tuple"
        }
      ],
      "stateMutability": "pure",
      "type": "function",
      "constant": true
    },
    {
      "inputs": [
        {
          "components": [
            {
              "internalType": "uint256",
              "name": "message",
              "type": "uint256"
            },
            {
              "internalType": "uint256",
              "name": "U0",
              "type": "uint256"
            },
            {
              "internalType": "uint256",
              "name": "L",
              "type": "uint256"
            },
            {
              "internalType": "uint256[]",
              "name": "V",
              "type": "uint256[]"
            },
            {
              "components": [
                {
                  "internalType": "uint256",
                  "name": "x",
                  "type": "uint256"
                },
                {
                  "internalType": "uint256",
                  "name": "y",
                  "type": "uint256"
                }
              ],
              "internalType": "struct Utils.ECPoint",
              "name": "H",
              "type": "tuple"
            },
            {
              "components": [
                {
                  "internalType": "uint256",
                  "name": "x",
                  "type": "uint256"
                },
                {
                  "internalType": "uint256",
                  "name": "y",
                  "type": "uint256"
                }
              ],
              "internalType": "struct Utils.ECPoint",
              "name": "K",
              "type": "tuple"
            },
            {
              "components": [
                {
                  "internalType": "uint256",
                  "name": "x",
                  "type": "uint256"
                },
                {
                  "internalType": "uint256",
                  "name": "y",
                  "type": "uint256"
                }
              ],
              "internalType": "struct Utils.ECPoint[]",
              "name": "EC_public_keys",
              "type": "tuple[]"
            }
          ],
          "internalType": "struct Utils.LRS_parameters",
          "name": "_LRS",
          "type": "tuple"
        }
      ],
      "name": "verifyLRS",
      "outputs": [
        {
          "internalType": "bool",
          "name": "",
          "type": "bool"
        }
      ],
      "stateMutability": "pure",
      "type": "function",
      "constant": true
    },
    {
      "inputs": [
        {
          "components": [
            {
              "internalType": "uint256",
              "name": "r",
              "type": "uint256"
            },
            {
              "internalType": "uint256",
              "name": "s",
              "type": "uint256"
            },
            {
              "internalType": "uint256",
              "name": "h",
              "type": "uint256"
            },
            {
              "internalType": "uint256",
              "name": "Px",
              "type": "uint256"
            },
            {
              "internalType": "uint256",
              "name": "Py",
              "type": "uint256"
            }
          ],
          "internalType": "struct Utils.ECDSA_parameters",
          "name": "_ecdsa",
          "type": "tuple"
        }
      ],
      "name": "ecdsa_verify",
      "outputs": [
        {
          "internalType": "bool",
          "name": "",
          "type": "bool"
        }
      ],
      "stateMutability": "pure",
      "type": "function",
      "constant": true
    },
    {
      "inputs": [
        {
          "components": [
            {
              "internalType": "uint256",
              "name": "x",
              "type": "uint256"
            },
            {
              "internalType": "uint256",
              "name": "y",
              "type": "uint256"
            }
          ],
          "internalType": "struct Utils.ECPoint[]",
          "name": "_Ps",
          "type": "tuple[]"
        }
      ],
      "name": "setVotePublicKey",
      "outputs": [
        {
          "components": [
            {
              "internalType": "uint256",
              "name": "x",
              "type": "uint256"
            },
            {
              "internalType": "uint256",
              "name": "y",
              "type": "uint256"
            }
          ],
          "internalType": "struct Utils.ECPoint",
          "name": "",
          "type": "tuple"
        }
      ],
      "stateMutability": "pure",
      "type": "function",
      "constant": true
    },
    {
      "inputs": [
        {
          "components": [
            {
              "internalType": "uint256",
              "name": "h",
              "type": "uint256"
            },
            {
              "internalType": "uint256",
              "name": "subSecret",
              "type": "uint256"
            },
            {
              "internalType": "uint256",
              "name": "i",
              "type": "uint256"
            },
            {
              "components": [
                {
                  "internalType": "uint256",
                  "name": "r",
                  "type": "uint256"
                },
                {
                  "internalType": "uint256",
                  "name": "s",
                  "type": "uint256"
                }
              ],
              "internalType": "struct Utils.ECDSA_Sig",
              "name": "sig",
              "type": "tuple"
            }
          ],
          "internalType": "struct Utils.SubSecretWithSig[]",
          "name": "_subSecrets",
          "type": "tuple[]"
        },
        {
          "internalType": "uint256",
          "name": "_min_shares",
          "type": "uint256"
        }
      ],
      "name": "setVotePrivateKey",
      "outputs": [
        {
          "internalType": "uint256",
          "name": "",
          "type": "uint256"
        }
      ],
      "stateMutability": "pure",
      "type": "function",
      "constant": true
    },
    {
      "inputs": [
        {
          "components": [
            {
              "components": [
                {
                  "internalType": "uint256",
                  "name": "x",
                  "type": "uint256"
                },
                {
                  "internalType": "uint256",
                  "name": "y",
                  "type": "uint256"
                }
              ],
              "internalType": "struct Utils.ECPoint",
              "name": "C",
              "type": "tuple"
            },
            {
              "components": [
                {
                  "internalType": "uint256",
                  "name": "x",
                  "type": "uint256"
                },
                {
                  "internalType": "uint256",
                  "name": "y",
                  "type": "uint256"
                }
              ],
              "internalType": "struct Utils.ECPoint",
              "name": "D",
              "type": "tuple"
            }
          ],
          "internalType": "struct Utils.Elgamal_ciphertext",
          "name": "_ciphertext",
          "type": "tuple"
        },
        {
          "internalType": "uint256",
          "name": "_votePrvKey",
          "type": "uint256"
        }
      ],
      "name": "elgamal_decrypt",
      "outputs": [
        {
          "internalType": "uint256",
          "name": "",
          "type": "uint256"
        }
      ],
      "stateMutability": "pure",
      "type": "function",
      "constant": true
    }
  ],
  "bytecode": "0x6118ed61003a600b82828239805160001a60731461002d57634e487b7160e01b600052600060045260246000fd5b30600052607381538281f3fe73000000000000000000000000000000000000000030146080604052600436106100ea5760003560e01c8063997da8d411610091578063997da8d4146101df57806399ebf589146101f7578063a4ff42741461020a578063aebdf69b1461021d578063decf56a414610230578063eeeac01e14610238578063f527081e1461024d578063fd6bbc321461026057600080fd5b806303a507be146100ef57806304e134d5146101175780631a86f4071461014557806334b9cfc2146101585780634154f34b1461017b5780635727dc5c1461018e5780637a308a4c146101b55780639870e2a4146101ca575b600080fd5b61010460008051602061185883398151915281565b6040519081526020015b60405180910390f35b61012a610125366004611419565b610273565b6040805182518152602092830151928101929092520161010e565b61010461015336600461144e565b6102d6565b61016b61016636600461147f565b6103a3565b604051901515815260200161010e565b61012a610189366004611497565b6104dc565b6101047f5ac635d8aa3a93e7b3ebbd55769886bc651d06b0cc53b0f63bce3c3e27d2604b81565b61010460008051602061189883398151915281565b61010460008051602061187883398151915281565b6101046003600160601b0363ffffffff60c01b031981565b61016b6102053660046114b0565b610551565b61012a6102183660046114ec565b6108b2565b61010461022b366004611561565b6109cd565b610104600181565b610104600160601b63ffffffff60c01b031981565b61010461025b366004611497565b610b59565b61012a61026e3660046115dc565b610ba6565b61027b611384565b6000806102bb85600001518660200151866000015187602001516003600160601b0363ffffffff60c01b0319600160601b63ffffffff60c01b0319610bf9565b60408051808201909152918252602082015295945050505050565b60006102e0611384565b6102e8611384565b6102f0611384565b61032185873560208901356003600160601b0363ffffffff60c01b0319600160601b63ffffffff60c01b0319610c7f565b602085018190528185526103449190600160601b63ffffffff60c01b0319610cb9565b602084018190528184526103859160408901359160608a013591906003600160601b0363ffffffff60c01b0319600160601b63ffffffff60c01b0319610bf9565b602083015280825261039990600b9061161e565b9695505050505050565b6000806103ae611384565b6103b6611384565b6103be611384565b6103da8660200135600080516020611878833981519152610cde565b9350610439600080516020611878833981519152876040013586096000805160206118588339815191526000805160206118988339815191526003600160601b0363ffffffff60c01b0319600160601b63ffffffff60c01b0319610c7f565b6020850152835261048660008051602061187883398151915287358609876060013588608001356003600160601b0363ffffffff60c01b0319600160601b63ffffffff60c01b0319610c7f565b60208085018290528285528551908601516104c69391929091906003600160601b0363ffffffff60c01b0319600160601b63ffffffff60c01b0319610bf9565b6020830152908190529435909414949350505050565b6104e4611384565b6000806105376104f385610b59565b6000805160206118588339815191526000805160206118988339815191526003600160601b0363ffffffff60c01b0319600160601b63ffffffff60c01b0319610c7f565b604080518082019091529182526020820152949350505050565b6000602082013581610561611384565b610569611384565b610571611384565b610579611384565b610581611384565b610589611384565b60005b61059a6101008c018c61164b565b905081101561089b5761060e6105b360608d018d61169c565b838181106105c3576105c36116e6565b905060200201356000805160206118588339815191526000805160206118988339815191526003600160601b0363ffffffff60c01b0319600160601b63ffffffff60c01b0319610c7f565b6020890152875261068f896106276101008e018e61164b565b84818110610637576106376116e6565b6040029190910135905061064f6101008f018f61164b565b8581811061065f5761065f6116e6565b905060400201602001356003600160601b0363ffffffff60c01b0319600160601b63ffffffff60c01b0319610c7f565b602088015286526106f06106a660608d018d61169c565b838181106106b6576106b66116e6565b6020029190910135905060808d013560a08e01356003600160601b0363ffffffff60c01b0319600160601b63ffffffff60c01b0319610c7f565b6020870152855261072b8960c08d013560e08e01356003600160601b0363ffffffff60c01b0319600160601b63ffffffff60c01b0319610c7f565b60208087019190915290855287518882015188519289015161076e93906003600160601b0363ffffffff60c01b0319600160601b63ffffffff60c01b0319610bf9565b6020808601919091529084528551868201518651928701516107b193906003600160601b0363ffffffff60c01b0319600160601b63ffffffff60c01b0319610bf9565b6020840152825260408b013597506000805160206118788339815191528060e08d013560c08e013508890897506000805160206118788339815191526108066000805160206118788339815191528d356116fc565b8908975060008051602061187883398151915280602085015185510889089750600080516020611878833981519152806020840151845108890897506000805160206118788339815191528860405160200161086491815260200190565b6040516020818303038152906040528051906020012060001c61088791906116fc565b98508061089381611710565b91505061058c565b508960200135881498505050505050505050919050565b6108ba611384565b6108c2611384565b61095f848460008181106108d8576108d86116e6565b90506040020160000135858560008181106108f5576108f56116e6565b9050604002016020013586866001818110610912576109126116e6565b905060400201600001358787600181811061092f5761092f6116e6565b905060400201602001356003600160601b0363ffffffff60c01b0319600160601b63ffffffff60c01b0319610bf9565b6020830152815260025b838110156109c5576109ac82600001518360200151878785818110610990576109906116e6565b9050604002016000013588888681811061092f5761092f6116e6565b60208401528252806109bd81611710565b915050610969565b509392505050565b6000806000806000808660011415610a0857888860008181106109f2576109f26116e6565b905060a002016020013595505050505050610b52565b60005b88811015610b4957898982818110610a2557610a256116e6565b905060a00201604001356001610a3b919061172b565b9350898982818110610a4f57610a4f6116e6565b905060a0020160200135945060019250600191506000600190505b888111610aad57848114610a9b57610a828185611743565b9350610a8e8582611762565b610a9890846117a1565b92505b80610aa581611710565b915050610a6a565b506000821315610ae357610ac082610daf565b600080516020611878833981519152848709610adc9190611826565b9450610b23565b610aec82610daf565b600080516020611878833981519152848709610b169060008051602061187883398151915261161e565b610b209190611826565b94505b600080516020611878833981519152868608955080610b4181611710565b915050610a0b565b50939450505050505b9392505050565b600060008051602061187883398151915282604051602001610b7d91815260200190565b6040516020818303038152906040528051906020012060001c610ba091906116fc565b92915050565b610bae611384565b600080610bdd8487876003600160601b0363ffffffff60c01b0319600160601b63ffffffff60c01b0319610c7f565b6040805180820190915291825260208201529695505050505050565b6000806000806000888b1415610c47578580610c1757610c17611635565b888b08610c2d5760008094509450505050610c74565b610c3b8b8b60018a8a610dc5565b91945092509050610c60565b610c588b8b60018c8c60018c610f64565b919450925090505b610c6c83838389611297565b945094505050505b965096945050505050565b6000806000806000610c968a8a8a60018b8b611306565b925092509250610ca883838389611297565b945094505050509550959350505050565b6000808483610cc8868261161e565b610cd291906116fc565b91509150935093915050565b60008215801590610cef5750818314155b8015610cfa57508115155b610d3c5760405162461bcd60e51b815260206004820152600e60248201526d24b73b30b634b210373ab6b132b960911b60448201526064015b60405180910390fd5b6000600183825b8615610da457610d538783611826565b9050828680610d6457610d64611635565b8780610d7257610d72611635565b858409610d7f908961161e565b8608909450925086610d918183611743565b610d9b908461161e565b97509150610d43565b509195945050505050565b6000808212610dbc575090565b610ba08261183a565b6000808085610ddb575086915085905084610f59565b60008480610deb57610deb611635565b898a09905060008580610e0057610e00611635565b898a09905060008680610e1557610e15611635565b898a09905060008780610e2a57610e2a611635565b8880610e3857610e38611635565b848e09600409905060008880610e5057610e50611635565b8980610e5e57610e5e611635565b8a80610e6c57610e6c611635565b8586098c098a80610e7f57610e7f611635565b876003090890508880610e9457610e94611635565b8980610ea257610ea2611635565b838408610eaf908b61161e565b8a80610ebd57610ebd611635565b8384090894508880610ed157610ed1611635565b8980610edf57610edf611635565b8a80610eed57610eed611635565b868709600809610efd908b61161e565b8a80610f0b57610f0b611635565b8b80610f1957610f19611635565b610f23898e61161e565b860884090893508880610f3857610f38611635565b8980610f4657610f46611635565b8c8e096002099497509295509293505050505b955095509592505050565b6000808089158015610f74575088155b15610f8657508591508490508361128a565b86158015610f92575085155b15610fa457508891508790508661128a565b610fac61139e565b8480610fba57610fba611635565b898a0981528480610fcd57610fcd611635565b81518a0960208201528480610fe457610fe4611635565b86870960408201528480610ffa57610ffa611635565b604082015187096060820152604080516080810190915280868061102057611020611635565b60408401518e098152602001868061103a5761103a611635565b60608401518d098152602001868061105457611054611635565b83518b098152602001868061106b5761106b611635565b60208401518a0990526040810151815191925014158061109357506060810151602082015114155b6110df5760405162461bcd60e51b815260206004820152601e60248201527f557365206a6163446f75626c652066756e6374696f6e20696e737465616400006044820152606401610d33565b6110e761139e565b85806110f5576110f5611635565b8251611101908861161e565b6040840151088152858061111757611117611635565b6020830151611126908861161e565b6060840151086020820152858061113f5761113f611635565b815180096040820152858061115657611156611635565b815160408301510960608201526000868061117357611173611635565b6060830151611182908961161e565b888061119057611190611635565b6020850151800908905086806111a8576111a8611635565b87806111b6576111b6611635565b88806111c4576111c4611635565b60408501518651096002096111d9908961161e565b82089050600087806111ed576111ed611635565b88806111fb576111fb611635565b611205848b61161e565b8a8061121357611213611635565b6040870151885109086020850151099050878061123257611232611635565b888061124057611240611635565b6060850151602087015109611255908a61161e565b820890506000888061126957611269611635565b898061127757611277611635565b8b8f098551099297509095509093505050505b9750975097945050505050565b60008060006112a68585610cde565b9050600084806112b8576112b8611635565b8283099050600085806112cd576112cd611635565b828a099050600086806112e2576112e2611635565b87806112f0576112f0611635565b8486098a09919a91995090975050505050505050565b600080808861131c575086915085905084611378565b8860008060015b831561136f576001841615611349576113418383838f8f8f8e610f64565b919450925090505b611354600285611826565b93506113638c8c8c8c8c610dc5565b919d509b509950611323565b91955093509150505b96509650969350505050565b604051806040016040528060008152602001600081525090565b60405180608001604052806004906020820280368337509192915050565b6000604082840312156113ce57600080fd5b6040516040810181811067ffffffffffffffff821117156113ff57634e487b7160e01b600052604160045260246000fd5b604052823581526020928301359281019290925250919050565b6000806080838503121561142c57600080fd5b61143684846113bc565b915061144584604085016113bc565b90509250929050565b60008082840360a081121561146257600080fd5b608081121561147057600080fd5b50919360808501359350915050565b600060a0828403121561149157600080fd5b50919050565b6000602082840312156114a957600080fd5b5035919050565b6000602082840312156114c257600080fd5b813567ffffffffffffffff8111156114d957600080fd5b82016101208185031215610b5257600080fd5b600080602083850312156114ff57600080fd5b823567ffffffffffffffff8082111561151757600080fd5b818501915085601f83011261152b57600080fd5b81358181111561153a57600080fd5b8660208260061b850101111561154f57600080fd5b60209290920196919550909350505050565b60008060006040848603121561157657600080fd5b833567ffffffffffffffff8082111561158e57600080fd5b818601915086601f8301126115a257600080fd5b8135818111156115b157600080fd5b87602060a0830285010111156115c657600080fd5b6020928301989097509590910135949350505050565b6000806000606084860312156115f157600080fd5b505081359360208301359350604090920135919050565b634e487b7160e01b600052601160045260246000fd5b60008282101561163057611630611608565b500390565b634e487b7160e01b600052601260045260246000fd5b6000808335601e1984360301811261166257600080fd5b83018035915067ffffffffffffffff82111561167d57600080fd5b6020019150600681901b360382131561169557600080fd5b9250929050565b6000808335601e198436030181126116b357600080fd5b83018035915067ffffffffffffffff8211156116ce57600080fd5b6020019150600581901b360382131561169557600080fd5b634e487b7160e01b600052603260045260246000fd5b60008261170b5761170b611635565b500690565b600060001982141561172457611724611608565b5060010190565b6000821982111561173e5761173e611608565b500190565b600081600019048311821515161561175d5761175d611608565b500290565b60008083128015600160ff1b85018412161561178057611780611608565b6001600160ff1b038401831381161561179b5761179b611608565b50500390565b60006001600160ff1b03818413828413808216868404861116156117c7576117c7611608565b600160ff1b60008712828116878305891216156117e6576117e6611608565b6000871292508782058712848416161561180257611802611608565b8785058712818416161561181857611818611608565b505050929093029392505050565b60008261183557611835611635565b500490565b6000600160ff1b82141561185057611850611608565b506000039056fe6b17d1f2e12c4247f8bce6e563a440f277037d812deb33a0f4a13945d898c296ffffffff00000000ffffffffffffffffbce6faada7179e84f3b9cac2fc6325514fe342e2fe1a7f9b8ee7eb4a7c0f9e162bce33576b315ececbb6406837bf51f5a2646970667358221220c2c60e1cbf343cc334778dbbe18695ab67045b835b4cd614c1834e8d80308d7164736f6c634300080a0033",
  "immutableReferences": {},
  "source": "// SPDX-License-Identifier: MIT\r\n\r\npragma solidity >=0.5.3 <0.9.0;\r\n\r\nimport \"./EllipticCurve.sol\";\r\n\r\nlibrary Utils{\r\n\r\n    // Elliptic Curve Point\r\n    struct ECPoint{\r\n        uint256 x;\r\n        uint256 y;\r\n    }\r\n\r\n    // linkable ring signature parameters\r\n    struct LRS_parameters{\r\n        uint256 message; \r\n        uint256 U0;\r\n        uint256 L;\r\n        uint256[] V;\r\n        ECPoint H;\r\n        ECPoint K;\r\n        ECPoint[] EC_public_keys;  \r\n    }\r\n\r\n    // secp256r1 parameters\r\n    // https://neuromancer.sk/std/secg/secp256r1#\r\n    uint256 public constant GX = 0x6b17d1f2e12c4247f8bce6e563a440f277037d812deb33a0f4a13945d898c296;\r\n    uint256 public constant GY = 0x4fe342e2fe1a7f9b8ee7eb4a7c0f9e162bce33576b315ececbb6406837bf51f5;\r\n    uint256 public constant AA = 0xffffffff00000001000000000000000000000000fffffffffffffffffffffffc;\r\n    uint256 public constant BB = 0x5ac635d8aa3a93e7b3ebbd55769886bc651d06b0cc53b0f63bce3c3e27d2604b;\r\n    uint256 public constant PP = 0xffffffff00000001000000000000000000000000ffffffffffffffffffffffff;\r\n    uint256 public constant NN = 0xffffffff00000000ffffffffffffffffbce6faada7179e84f3b9cac2fc632551;\r\n    uint256 public constant HH = 0x1;\r\n\r\n    function hash1(uint256 message) public pure returns (uint256){\r\n        return uint256(keccak256(abi.encode(message))) % NN;\r\n    }\r\n\r\n    function hash2(uint256 message) public pure returns (ECPoint memory){\r\n        (uint256 x, uint256 y) = EllipticCurve.ecMul(hash1(message),GX,GY,AA,PP);\r\n        return ECPoint(x,y);\r\n    }\r\n\r\n    function pointMul(uint256 Px,uint256 Py, uint256 a) public pure returns (ECPoint memory){\r\n        (uint256 x, uint256 y) = EllipticCurve.ecMul(a,Px,Py,AA,PP);\r\n        return ECPoint(x,y);\r\n    }\r\n\r\n    function pointAdd(ECPoint memory p1, ECPoint memory p2) public pure returns (ECPoint memory){\r\n        (uint256 x, uint256 y) = EllipticCurve.ecAdd(p1.x,p1.y,p2.x,p2.y,AA,PP);\r\n        return ECPoint(x,y);\r\n    }\r\n\r\n    function verifyLRS(LRS_parameters calldata _LRS) \r\n    external pure returns(bool){\r\n        uint256 U = _LRS.U0;\r\n        uint256 n;\r\n        ECPoint memory vG;\r\n        ECPoint memory uY;\r\n        ECPoint memory vH;\r\n        ECPoint memory uK;\r\n        ECPoint memory vG_add_uY;\r\n        ECPoint memory vH_add_uK;\r\n\r\n        for(uint i=0;i<_LRS.EC_public_keys.length;i++){\r\n            (vG.x,vG.y) = EllipticCurve.ecMul(_LRS.V[i],GX,GY,AA,PP);\r\n            (uY.x,uY.y) = EllipticCurve.ecMul(U,_LRS.EC_public_keys[i].x,_LRS.EC_public_keys[i].y,AA,PP);\r\n            (vH.x,vH.y) = EllipticCurve.ecMul(_LRS.V[i],_LRS.H.x,_LRS.H.y,AA,PP);            \r\n            (uK.x,uK.y) = EllipticCurve.ecMul(U,_LRS.K.x,_LRS.K.y,AA,PP);\r\n            (vG_add_uY.x, vG_add_uY.y) = EllipticCurve.ecAdd(vG.x,vG.y,uY.x,uY.y,AA,PP);\r\n            (vH_add_uK.x, vH_add_uK.y) = EllipticCurve.ecAdd(vH.x,vH.y,uK.x,uK.y,AA,PP);\r\n            \r\n            n = _LRS.L;\r\n            n = addmod(n,addmod(_LRS.K.x, _LRS.K.y, NN),NN);\r\n            n = addmod(n,_LRS.message % NN,NN);\r\n            n = addmod(n,addmod(vG_add_uY.x, vG_add_uY.y, NN),NN);\r\n            n = addmod(n,addmod(vH_add_uK.x, vH_add_uK.y, NN),NN);\r\n\r\n            U = uint256(keccak256(abi.encode(n))) % NN;\r\n        }\r\n\r\n        return U == _LRS.U0;\r\n    }\r\n\r\n    // Parameters needed for verifying EC signature\r\n    // Px = PubKey.x\r\n    // Py = PubKey.y\r\n    struct ECDSA_parameters{\r\n        uint256 r;\r\n        uint256 s;\r\n        uint256 h;\r\n        uint256 Px; \r\n        uint256 Py; \r\n    }\r\n\r\n    struct ECDSA_Sig{\r\n        uint256 r;\r\n        uint256 s;\r\n    }\r\n\r\n    struct SubSecretWithSig{\r\n        uint256 h;\r\n        uint256 subSecret;\r\n        uint i;\r\n        Utils.ECDSA_Sig sig;\r\n    }\r\n\r\n    function ecdsa_verify(ECDSA_parameters calldata _ecdsa)\r\n    external pure returns(bool){\r\n        uint256 s_inv;\r\n        ECPoint memory t1;\r\n        ECPoint memory t2;\r\n        ECPoint memory R;\r\n        \r\n        // inverse of s \r\n        s_inv = EllipticCurve.invMod(_ecdsa.s , NN);\r\n        // tmp1 = ( (h * s_inv) mod n ) * G\r\n        (t1.x, t1.y) = EllipticCurve.ecMul(mulmod(s_inv,_ecdsa.h,NN), GX, GY, AA, PP);\r\n        // tmp2 = ( (r * s_inv) mod n ) * PubKey\r\n        (t2.x, t2.y) = EllipticCurve.ecMul(mulmod(s_inv,_ecdsa.r,NN), _ecdsa.Px, _ecdsa.Py, AA, PP);\r\n        // R' = tmp1 + tmp2 \r\n        (R.x, R.y) = EllipticCurve.ecAdd(t1.x, t1.y, t2.x, t2.y, AA, PP);\r\n        \r\n        return R.x == _ecdsa.r;\r\n    }\r\n    \r\n    function setVotePublicKey(ECPoint[] calldata _Ps) external pure returns(ECPoint memory){\r\n        ECPoint memory tmp;\r\n        (tmp.x, tmp.y) = EllipticCurve.ecAdd(_Ps[0].x, _Ps[0].y, _Ps[1].x, _Ps[1].y, AA, PP);\r\n        for(uint i=2;i<_Ps.length;i++){\r\n            (tmp.x, tmp.y) = EllipticCurve.ecAdd(tmp.x, tmp.y, _Ps[i].x, _Ps[i].y, AA, PP);\r\n        }\r\n        return tmp;\r\n    }\r\n    \r\n    function abs(int256 x) internal pure returns (uint256){\r\n        if (x >= 0){\r\n            return uint256(x);\r\n        }else{\r\n            return uint256(-x);\r\n        }\r\n    }\r\n\r\n    function modNeg(uint256 _neg, uint256 _n) internal pure returns (uint256){\r\n\r\n    }\r\n\r\n    function setVotePrivateKey(SubSecretWithSig[] calldata _subSecrets, uint256 _min_shares) \r\n    external pure returns(uint256){\r\n        uint256 votePrvKey;\r\n        uint256 tmp;\r\n        uint j;\r\n        uint mul;\r\n        int divide;\r\n        if(_min_shares == 1){\r\n            return _subSecrets[0].subSecret;\r\n        }\r\n        for(uint i=0;i<_subSecrets.length;i++){\r\n            j = _subSecrets[i].i+1;\r\n            tmp = _subSecrets[i].subSecret;\r\n            mul = 1;\r\n            divide = 1;\r\n            for(uint h=1;h<=_min_shares;h++){\r\n                if(h != j){\r\n                    mul = mul * h;\r\n                    divide = divide * (int(h) - int(j));\r\n                }\r\n            }\r\n            if(divide > 0){\r\n                tmp = mulmod(tmp,mul,NN) / abs(divide);\r\n            }\r\n            else{\r\n                tmp = ((NN - (mulmod(tmp,mul,NN))) / abs(divide));\r\n            }\r\n            votePrvKey = addmod(tmp,votePrvKey,NN);      \r\n        }\r\n        return votePrvKey;\r\n    }\r\n\r\n    struct Elgamal_ciphertext{\r\n        ECPoint C;\r\n        ECPoint D;\r\n    }\r\n\r\n    function elgamal_decrypt(Elgamal_ciphertext calldata _ciphertext, uint256 _votePrvKey)\r\n    external pure returns (uint256){\r\n        ECPoint memory CC;\r\n        ECPoint memory CC_neg;\r\n        ECPoint memory Pm;\r\n\r\n        (CC.x, CC.y) = EllipticCurve.ecMul(_votePrvKey,_ciphertext.C.x,_ciphertext.C.y,AA,PP);\r\n        (CC_neg.x, CC_neg.y) = EllipticCurve.ecInv(CC.x, CC.y, PP);\r\n        (Pm.x,Pm.y) = EllipticCurve.ecAdd(_ciphertext.D.x,_ciphertext.D.y,CC_neg.x,CC_neg.y,AA,PP);\r\n        \r\n        return (Pm.x - uint256(11));\r\n    }\r\n}\r\n",
  "sourcePath": "C:\\Users\\tim\\Desktop\\e-voting\\src\\contracts\\Utils.sol",
  "compiler": {
    "name": "solc",
    "version": "0.8.10+commit.fc410830.Emscripten.clang"
  },
  "schemaVersion": "3.4.4",
  "updatedAt": "2022-01-28T08:11:02.307Z",
  "networkType": "ethereum",
  "devdoc": {
    "kind": "dev",
    "methods": {},
    "version": 1
  },
  "userdoc": {
    "kind": "user",
    "methods": {},
    "version": 1
  }
}