{
  "contractName": "Utils",
  "abi": [
    {
      "inputs": [
        {
          "internalType": "uint256",
          "name": "_prvKey",
          "type": "uint256"
        },
        {
          "components": [
            {
              "internalType": "uint256",
              "name": "x",
              "type": "uint256"
            },
            {
              "internalType": "uint256",
              "name": "y",
              "type": "uint256"
            }
          ],
          "internalType": "struct Secp256r1.ECPoint",
          "name": "_pubKey",
          "type": "tuple"
        }
      ],
      "name": "verfiyVotePrivateKey",
      "outputs": [
        {
          "internalType": "bool",
          "name": "",
          "type": "bool"
        }
      ],
      "stateMutability": "pure",
      "type": "function",
      "constant": true
    },
    {
      "inputs": [
        {
          "internalType": "uint256",
          "name": "_time",
          "type": "uint256"
        },
        {
          "internalType": "uint256",
          "name": "_time_unit",
          "type": "uint256"
        }
      ],
      "name": "calc_time",
      "outputs": [
        {
          "internalType": "uint256",
          "name": "t",
          "type": "uint256"
        }
      ],
      "stateMutability": "pure",
      "type": "function",
      "constant": true
    }
  ],
  "bytecode": "0x61099861003a600b82828239805160001a60731461002d57634e487b7160e01b600052600060045260246000fd5b30600052607381538281f3fe73000000000000000000000000000000000000000030146080604052600436106100405760003560e01c8063bdd0bd6414610045578063fba6c1ec1461006b575b600080fd5b610058610053366004610884565b61008e565b6040519081526020015b60405180910390f35b61007e6100793660046108a6565b6100da565b6040519015158152602001610062565b6000816100a3576100a083603c6108f4565b90505b81600114156100bb576100b883610e106108f4565b90505b81600214156100d4576100d183620151806108f4565b90505b92915050565b60006100f9604051806040016040528060008152602001600081525090565b610165847f6b17d1f2e12c4247f8bce6e563a440f277037d812deb33a0f4a13945d898c2967f4fe342e2fe1a7f9b8ee7eb4a7c0f9e162bce33576b315ececbb6406837bf51f56003600160601b0363ffffffff60c01b0319600160601b63ffffffff60c01b031961019c565b60208301528082528335148015610183575082602001358160200151145b156101925760019150506100d4565b60009150506100d4565b60008060008060006101b38a8a8a60018b8b6101d6565b9250925092506101c583838389610254565b945094505050509550959350505050565b60008080886101ec575086915085905084610248565b8860008060015b831561023f576001841615610219576102118383838f8f8f8e6102c3565b919450925090505b610224600285610929565b93506102338c8c8c8c8c6105fb565b919d509b5099506101f3565b91955093509150505b96509650969350505050565b6000806000610263858561079a565b90506000848061027557610275610913565b82830990506000858061028a5761028a610913565b828a0990506000868061029f5761029f610913565b87806102ad576102ad610913565b8486098a09919a91995090975050505050505050565b60008080891580156102d3575088155b156102e55750859150849050836105ee565b861580156102f1575085155b156103035750889150879050866105ee565b61030b610866565b848061031957610319610913565b898a098152848061032c5761032c610913565b81518a096020820152848061034357610343610913565b8687096040820152848061035957610359610913565b604082015187096060820152604080516080810190915280868061037f5761037f610913565b60408401518e098152602001868061039957610399610913565b60608401518d09815260200186806103b3576103b3610913565b83518b09815260200186806103ca576103ca610913565b60208401518a099052604081015181519192501415806103f257506060810151602082015114155b6104435760405162461bcd60e51b815260206004820152601e60248201527f557365206a6163446f75626c652066756e6374696f6e20696e7374656164000060448201526064015b60405180910390fd5b61044b610866565b858061045957610459610913565b8251610465908861094b565b6040840151088152858061047b5761047b610913565b602083015161048a908861094b565b606084015108602082015285806104a3576104a3610913565b81518009604082015285806104ba576104ba610913565b81516040830151096060820152600086806104d7576104d7610913565b60608301516104e6908961094b565b88806104f4576104f4610913565b60208501518009089050868061050c5761050c610913565b878061051a5761051a610913565b888061052857610528610913565b604085015186510960020961053d908961094b565b820890506000878061055157610551610913565b888061055f5761055f610913565b610569848b61094b565b8a8061057757610577610913565b6040870151885109086020850151099050878061059657610596610913565b88806105a4576105a4610913565b60608501516020870151096105b9908a61094b565b82089050600088806105cd576105cd610913565b89806105db576105db610913565b8b8f098551099297509095509093505050505b9750975097945050505050565b600080808561061157508691508590508461078f565b6000848061062157610621610913565b898a0990506000858061063657610636610913565b898a0990506000868061064b5761064b610913565b898a0990506000878061066057610660610913565b888061066e5761066e610913565b848e0960040990506000888061068657610686610913565b898061069457610694610913565b8a806106a2576106a2610913565b8586098c098a806106b5576106b5610913565b8760030908905088806106ca576106ca610913565b89806106d8576106d8610913565b8384086106e5908b61094b565b8a806106f3576106f3610913565b838409089450888061070757610707610913565b898061071557610715610913565b8a8061072357610723610913565b868709600809610733908b61094b565b8a8061074157610741610913565b8b8061074f5761074f610913565b610759898e61094b565b86088409089350888061076e5761076e610913565b898061077c5761077c610913565b8c8e096002099497509295509293505050505b955095509592505050565b600082158015906107ab5750818314155b80156107b657508115155b6107f35760405162461bcd60e51b815260206004820152600e60248201526d24b73b30b634b210373ab6b132b960911b604482015260640161043a565b6000600183825b861561085b5761080a8783610929565b905082868061081b5761081b610913565b878061082957610829610913565b858409610836908961094b565b860890945092508661084881836108f4565b610852908461094b565b975091506107fa565b509195945050505050565b60405180608001604052806004906020820280368337509192915050565b6000806040838503121561089757600080fd5b50508035926020909101359150565b60008082840360608112156108ba57600080fd5b833592506040601f19820112156108d057600080fd5b506020830190509250929050565b634e487b7160e01b600052601160045260246000fd5b600081600019048311821515161561090e5761090e6108de565b500290565b634e487b7160e01b600052601260045260246000fd5b60008261094657634e487b7160e01b600052601260045260246000fd5b500490565b60008282101561095d5761095d6108de565b50039056fea2646970667358221220d76be457ef051e91f4d5449e7b5a5c2e72f98540f58d016eedfcb1eb185ddf5f64736f6c634300080a0033",
  "immutableReferences": {},
  "source": "// SPDX-License-Identifier: MIT\r\n\r\npragma solidity >=0.5.3 <0.9.0;\r\n\r\nimport \"./EllipticCurve.sol\";\r\nimport \"./Secp256r1.sol\";\r\nimport \"./Elgamal.sol\";\r\n\r\n\r\nlibrary Utils{\r\n    // Model a candidate\r\n    struct Candidate{\r\n        uint id;\r\n        uint voteCount;\r\n        bytes32 name;\r\n    }\r\n \r\n    // Model a ballot\r\n    struct Ballot{\r\n        uint id;\r\n        uint voteTime;\r\n        int candidate_id;\r\n        uint encVoteHash;\r\n        uint U0;\r\n        uint[] V;\r\n        Secp256r1.ECPoint K;\r\n        Elgamal.Elgamal_ciphertext encVote;\r\n    }\r\n    // Model a election Data\r\n    struct ElectionData{\r\n        uint id;\r\n        uint post_time;\r\n        uint reg_end_time;\r\n        uint share_end_time;\r\n        uint ver_end_time;\r\n        uint vote_end_time;\r\n        uint secret_upload_end_time;\r\n        uint min_shares;\r\n        uint totatSharesSentCount;\r\n        uint totalSubSecretSentCount;\r\n        uint[] illegitimate_voter_indeces;\r\n        bytes32 title;\r\n        bytes32 description;\r\n        Candidate[] candidates;\r\n        bool isVoteTallied;\r\n        bool isVotePubKeySet;\r\n        bool isECPubKeysAftVerSet;\r\n        bool isSetUp;\r\n        bool isNoSendSharesCheck;\r\n        bool isRegOn;\r\n        bool isFailed;\r\n        address owner;\r\n        Ballot[] ballots;\r\n        Secp256r1.ECPoint[] regInfo;\r\n        Secp256r1.ECPoint[] EC_public_keys;\r\n    }\r\n\r\n    struct ElectionSetUpData{\r\n        bytes32  title;\r\n        bytes32  des; \r\n        bytes32[]  candidates;\r\n        Secp256r1.ECPoint[]  EC_public_keys;\r\n        uint minShares;\r\n        uint regTime;\r\n        uint sharesTime;\r\n        uint verTime; \r\n        uint voteTime; \r\n        uint secUploadTime;\r\n        uint regTimeUnit; \r\n        uint sharesTimeUnit; \r\n        uint verTimeUnit; \r\n        uint voteTimeUnit;\r\n        uint secUploadTimeUnit;\r\n        bool isRegOn;\r\n        Secp256r1.ECPoint[] regInfo;\r\n    }\r\n\r\n    function verfiyVotePrivateKey(uint256 _prvKey,Secp256r1.ECPoint calldata _pubKey) \r\n    external pure returns (bool){\r\n        Secp256r1.ECPoint memory P;\r\n        (P.x,P.y) = EllipticCurve.ecMul(_prvKey, Secp256r1.GX, Secp256r1.GY, Secp256r1.AA, Secp256r1.PP);\r\n        if(P.x == _pubKey.x && P.y == _pubKey.y){\r\n            return true;\r\n        }else{\r\n            return false;\r\n        }\r\n    }\r\n\r\n    function calc_time(uint _time, uint _time_unit) external pure returns(uint t){\r\n        if(_time_unit == 0){\r\n            t = _time * 1 minutes;\r\n        }\r\n        if(_time_unit == 1){\r\n            t = _time * 1 hours;\r\n        }\r\n        if(_time_unit == 2){\r\n            t = _time * 1 days;\r\n        }\r\n        return t;\r\n    }\r\n}\r\n",
  "sourcePath": "C:\\Users\\tim\\Desktop\\e-voting\\src\\contracts\\Utils.sol",
  "compiler": {
    "name": "solc",
    "version": "0.8.10+commit.fc410830.Emscripten.clang"
  },
  "schemaVersion": "3.4.4",
  "updatedAt": "2022-04-13T07:16:45.722Z",
  "networkType": "ethereum",
  "devdoc": {
    "kind": "dev",
    "methods": {},
    "version": 1
  },
  "userdoc": {
    "kind": "user",
    "methods": {},
    "version": 1
  }
}