{
  "contractName": "VotingApp",
  "abi": [
    {
      "anonymous": false,
      "inputs": [
        {
          "indexed": false,
          "internalType": "contract Election",
          "name": "eAddress",
          "type": "address"
        }
      ],
      "name": "newElectionEvent",
      "type": "event"
    },
    {
      "inputs": [],
      "name": "electionCount",
      "outputs": [
        {
          "internalType": "uint256",
          "name": "",
          "type": "uint256"
        }
      ],
      "stateMutability": "view",
      "type": "function",
      "constant": true
    },
    {
      "inputs": [],
      "name": "addElection",
      "outputs": [],
      "stateMutability": "nonpayable",
      "type": "function"
    },
    {
      "inputs": [],
      "name": "getElectionAddresses",
      "outputs": [
        {
          "internalType": "contract Election[]",
          "name": "",
          "type": "address[]"
        }
      ],
      "stateMutability": "view",
      "type": "function",
      "constant": true
    }
  ],
  "bytecode": "0x608060405234801561001057600080fd5b50615928806100206000396000f3fe608060405234801561001057600080fd5b50600436106100415760003560e01c80637a118d2a14610046578063997d283014610050578063ff6437481461006c575b600080fd5b61004e610081565b005b61005960015481565b6040519081526020015b60405180910390f35b610074610172565b60405161006391906101e1565b600060015433604051610093906101d4565b9182526001600160a01b03166020820152604001604051809103906000f0801580156100c3573d6000803e3d6000fd5b5081546001808201845560009384526020842090910180546001600160a01b0319166001600160a01b03939093169290921790915580549161010483610244565b91905055507fadc9007d1fc73be521401f999dd00eff14c161340fec320d23ce1c158bf7043560006001805461013a919061025f565b8154811061014a5761014a610276565b600091825260209182902001546040516001600160a01b0390911681520160405180910390a1565b606060008054806020026020016040519081016040528092919081815260200182805480156101ca57602002820191906000526020600020905b81546001600160a01b031681526001909101906020018083116101ac575b5050505050905090565b6156668061028d83390190565b6020808252825182820181905260009190848201906040850190845b818110156102225783516001600160a01b0316835292840192918401916001016101fd565b50909695505050505050565b634e487b7160e01b600052601160045260246000fd5b60006000198214156102585761025861022e565b5060010190565b6000828210156102715761027161022e565b500390565b634e487b7160e01b600052603260045260246000fdfe60806040523480156200001157600080fd5b50604051620056663803806200566683398101604081905262000034916200005f565b600391909155600080546001600160a01b0319166001600160a01b039092169190911790556200009e565b600080604083850312156200007357600080fd5b825160208401519092506001600160a01b03811681146200009357600080fd5b809150509250929050565b6155b880620000ae6000396000f3fe608060405234801561001057600080fd5b506004361061020f5760003560e01c806301c9fd4b146102145780630a87674b1461023057806317542dc0146102455780631df32b9d1461024e578063234191db1461027157806325786c69146102945780633477ee2e146102a757806336e67839146102d55780633e4e3b1a146102e8578063422d6ce6146102fb5780634a79d50c1461031d578063500b1e82146103265780635927234a146103395780635c632b381461034c5780635f0fc8f3146103725780636652e5261461037b57806368bf4b851461039057806370252e1c146103a357806370a5d861146103b757806370dc5e13146103d35780637284e416146103e157806373d1993b146103ea57806380c103b4146103f357806384ccae85146104075780638da5cb5b1461040f5780639f13f76d1461043a578063a0b0ee7614610443578063a2f9330114610457578063a69d1b7e1461045f578063ab64ad3014610472578063af640d0f14610485578063b9bb4a4b1461048e578063b9d2c979146104a1578063bb2bcc06146104b3578063c701ae20146104bc578063cdce88ef146104c5578063d2b10f39146104e5578063df36903a146104ee578063e3bad12014610502578063e6a706081461050f578063ee9d02a61461052f578063eebc904e14610542578063f9f9274e1461054b578063fca43a5714610560578063fecfdbfe14610573575b600080fd5b61021d600b5481565b6040519081526020015b60405180910390f35b61024361023e3660046140ca565b61057c565b005b61021d60095481565b61026161025c36600461416f565b610c2b565b6040519015158152602001610227565b61028461027f3660046141d7565b610da6565b60405161022794939291906141ff565b6102436102a2366004614265565b610df9565b6102ba6102b53660046141d7565b61160b565b60408051938452602084019290925290820152606001610227565b6102436102e33660046142d5565b61163e565b6102436102f636600461434e565b61199c565b61030e6103093660046141d7565b612128565b60405161022793929190614439565b61021d60015481565b600d546102619062010000900460ff1681565b61024361034736600461446b565b6121eb565b61035f61035a3660046141d7565b6123ea565b60405161022797969594939291906144c7565b61021d60055481565b610383612483565b60405161022791906146ef565b61021d61039e3660046141d7565b6129d1565b600d54610261906301000000900460ff1681565b6012546013546103c5919082565b6040516102279291906148c2565b600e54600f546103c5919082565b61021d60025481565b61021d60085481565b600d5461026190600160301b900460ff1681565b6102436129f2565b600054610422906001600160a01b031681565b6040516001600160a01b039091168152602001610227565b61021d60115481565b600d5461026190600160201b900460ff1681565b610243612bce565b61021d61046d3660046148d0565b612e14565b6102436104803660046148fb565b612e9a565b61021d60035481565b6103c561049c3660046141d7565b6132fc565b600d5461026190610100900460ff1681565b61021d600a5481565b61021d600c5481565b6104d86104d33660046141d7565b61332a565b604051610227919061493c565b61021d60065481565b600d5461026190600160281b900460ff1681565b600d546102619060ff1681565b61052261051d3660046141d7565b613465565b60405161022791906149b2565b61024361053d3660046141d7565b613605565b61021d60075481565b61055361388c565b6040516102279190614a28565b6103c561056e3660046141d7565b613922565b61021d60045481565b6000546001600160a01b031633146105cc5760405162461bcd60e51b815260206004820152600e60248201526d2cb7baa0b932a737ba27bbb732b960911b60448201526064015b60405180910390fd5b600d5462010000900460ff16156105f55760405162461bcd60e51b81526004016105c390614a8b565b60016106046040830183614aaf565b9050118015610617575060018160800135115b6106635760405162461bcd60e51b815260206004820152601f60248201527f4d696e4e756d4f6643616e64696461746573416e64536861726573417265320060448201526064016105c3565b8035600155602081013560025560005b6106806040830183614aaf565b90508110156107155760196040518060600160405280838152602001600081526020018480604001906106b39190614aaf565b858181106106c3576106c3614af8565b602090810292909201359092528354600181810186556000958652948290208451600390920201908155908301519381019390935550604001516002909101558061070d81614b24565b915050610673565b5060005b6107266060830183614b3f565b905081101561079157601561073e6060840184614b3f565b8381811061074e5761074e614af8565b83546001810185556000948552602090942060409091029290920192600202909101905061077c8282614b9a565b5050808061078990614b24565b915050610719565b506080810135600a55426004556107b061020082016101e08301614bb9565b600d805460ff60301b1916600160301b9215158302179081905560ff919004161515600114156109845760005b6107eb610200830183614bd6565b905081101561085857601a610804610200840184614bd6565b8381811061081457610814614af8565b8354600181018555600094855260209094206101809091029290920192600c0290910190506108438282614c1f565b5050808061085090614b24565b9150506107dd565b50604051632f742f5960e21b815273__Utils_________________________________9063bdd0bd649061089b9060a085013590610140860135906004016148c2565b602060405180830381865af41580156108b8573d6000803e3d6000fd5b505050506040513d601f19601f820116820180604052508101906108dc9190614c8c565b6004546108e99190614ca5565b600555604051632f742f5960e21b815273__Utils_________________________________9063bdd0bd649061092e9060c085013590610160860135906004016148c2565b602060405180830381865af415801561094b573d6000803e3d6000fd5b505050506040513d601f19601f8201168201806040525081019061096f9190614c8c565b60055461097c9190614ca5565b600655610a18565b604051632f742f5960e21b815273__Utils_________________________________9063bdd0bd64906109c69060c085013590610160860135906004016148c2565b602060405180830381865af41580156109e3573d6000803e3d6000fd5b505050506040513d601f19601f82011682018060405250810190610a079190614c8c565b600454610a149190614ca5565b6006555b604051632f742f5960e21b815273__Utils_________________________________9063bdd0bd6490610a5a9060e085013590610180860135906004016148c2565b602060405180830381865af4158015610a77573d6000803e3d6000fd5b505050506040513d601f19601f82011682018060405250810190610a9b9190614c8c565b600654610aa89190614ca5565b600755604051632f742f5960e21b815273__Utils_________________________________9063bdd0bd6490610aee90610100850135906101a0860135906004016148c2565b602060405180830381865af4158015610b0b573d6000803e3d6000fd5b505050506040513d601f19601f82011682018060405250810190610b2f9190614c8c565b600754610b3c9190614ca5565b600855604051632f742f5960e21b815273__Utils_________________________________9063bdd0bd6490610b8290610120850135906101c0860135906004016148c2565b602060405180830381865af4158015610b9f573d6000803e3d6000fd5b505050506040513d601f19601f82011682018060405250810190610bc39190614c8c565b600854610bd09190614ca5565b600955600d805462ff0000191662010000908117918290556040517f1ea4b2051cf869c7e1b59e38769fabd5fe8a195b2a79e5e71c885aa76e88dac392610c2092900460ff161515815260200190565b60405180910390a150565b600073__LRS___________________________________63eb6100266040518060e001604052808981526020018881526020016011548152602001878780806020026020016040519081016040528093929190818152602001838360200280828437600092019190915250505090825250604080518082018252601254815260135460208281019190915283015201610cc936879003870187614d39565b81526020016016805480602002602001604051908101604052809291908181526020016000905b82821015610d3657838290600052602060002090600202016040518060400160405290816000820154815260200160018201548152505081526020019060010190610cf0565b505050508152506040518263ffffffff1660e01b8152600401610d599190614d55565b602060405180830381865af4158015610d76573d6000803e3d6000fd5b505050506040513d601f19601f82011682018060405250810190610d9a9190614e13565b90505b95945050505050565b60218181548110610db657600080fd5b6000918252602091829020600590910201805460018201546002830154604080518082019091526003850154815260049094015494840194909452909350919084565b60408082013560009081526018602052205460ff1615610e4f5760405162461bcd60e51b81526020600482015260116024820152702234b9b8bab0b634b334b2b22b37ba32b960791b60448201526064016105c3565b600a546016541015610e735760405162461bcd60e51b81526004016105c390614e30565b60408082013560009081526022602052205460ff1615610ecc5760405162461bcd60e51b815260206004820152601460248201527314dd5894d958dc995d15d85cd55c1b1bd859195960621b60448201526064016105c3565b6000806000806016805490506001600160401b03811115610eef57610eef614cbd565b604051908082528060200260200182016040528015610f18578160200160208202803683370190505b509050610f23613fc5565b610f2b613fea565b6000805160206155038339815191528152600080516020615543833981519152602082015260005b888110156112f557601d60008b8b84818110610f7157610f71614af8565b905060c00201604001358c8c85818110610f8d57610f8d614af8565b905060c0020160600135604051602001610fa89291906148c2565b60408051601f19818403018152918152815160209283012083528282019390935290820160002082516080810184528154818501908152600183015460608301528152835180850190945260028083015485526003909201548484015291820192909252935073__CPProof_______________________________9063fc888f3d9084906015908e8e8781811061104157611041614af8565b905060c00201606001356110559190614e5c565b8154811061106557611065614af8565b906000526020600020906002020186600001518e8e8781811061108a5761108a614af8565b905060c002016000018f8f888181106110a5576110a5614af8565b905060c002016080016040518663ffffffff1660e01b81526004016110ce959493929190614e92565b602060405180830381865af41580156110eb573d6000803e3d6000fd5b505050506040513d601f19601f8201168201806040525081019061110f9190614e13565b95506001861515146111335760405162461bcd60e51b81526004016105c390614ed6565b73__Elgamal_______________________________636c3c67a184602001518c8c8581811061116457611164614af8565b905060c002016000016040518363ffffffff1660e01b815260040161118a929190614efc565b602060405180830381865af41580156111a7573d6000803e3d6000fd5b505050506040513d601f19601f820116820180604052508101906111cb9190614c8c565b945073__Shares________________________________63330f6d15868c8c858181106111fa576111fa614af8565b905060c002016112248e8e8781811061121557611215614af8565b905060c002016040013561332a565b6040518463ffffffff1660e01b815260040161124293929190614f17565b602060405180830381865af415801561125f573d6000803e3d6000fd5b505050506040513d601f19601f820116820180604052508101906112839190614e13565b96506001871515146112c55760405162461bcd60e51b815260206004820152600b60248201526a57726f6e6753686172657360a81b60448201526064016105c3565b848482815181106112d8576112d8614af8565b6020908102919091010152806112ed81614b24565b915050610f53565b50604051632592be4760e21b815273__Shares________________________________9063964af91c9061132d908690600401614fd2565b602060405180830381865af415801561134a573d6000803e3d6000fd5b505050506040513d601f19601f8201168201806040525081019061136e9190614c8c565b8760200135146113b15760405162461bcd60e51b815260206004820152600e60248201526d0a6d0c2e4cae69cdee89ac2e8c6d60931b60448201526064016105c3565b6000876020013588604001356040516020016113ce9291906148c2565b60408051601f19818403018152919052805160209091012090508735811461142d5760405162461bcd60e51b815260206004820152601260248201527113595cdcd859d955d85cd35bd91a599a595960721b60448201526064016105c3565b600073__ECDSA_________________________________63f43c6a6d6040518060a001604052808c6060016000013581526020018c60600160200135815260200185815260200160158d604001358154811061148b5761148b614af8565b906000526020600020906002020160000154815260200160158d60400135815481106114b9576114b9614af8565b9060005260206000209060020201600101548152506040518263ffffffff1660e01b81526004016114ea9190614fe5565b602060405180830381865af4158015611507573d6000803e3d6000fd5b505050506040513d601f19601f8201168201806040525081019061152b9190614e13565b905060018115151461154f5760405162461bcd60e51b81526004016105c39061501f565b6021805460018101825560009190915289906005027f3a6357012c1a3ae0a17d304c9920310382d968ebcc4b1771f41c6b304205b570016115908282615047565b50506040808a013560009081526022602052908120805460ff19166001179055600c8054916115be83614b24565b91905055507ffda7fe2aa1855f36efd0640a3ec3265e181c44b600c34ad29c800d765f93571d600c546040516115f691815260200190565b60405180910390a15050505050505050505050565b6019818154811061161b57600080fd5b600091825260209091206003909102018054600182015460029092015490925083565b4260075411158015611651575060085442105b61168d5760405162461bcd60e51b815260206004820152600d60248201526c57726f6e67566f746554696d6560981b60448201526064016105c3565b600d546301000000900460ff1615156001146116e05760405162461bcd60e51b815260206004820152601260248201527114d95d159bdd19541d5892d95e519a5c9cdd60721b60448201526064016105c3565b600a5460165410156117045760405162461bcd60e51b81526004016105c390614e30565b60405160009061171e9083359060208086013591016148c2565b60408051601f1981840301815291815281516020928301206000818152601490935291205490915060ff16156117845760405162461bcd60e51b815260206004820152600b60248201526a165bdd55d85cd59bdd195960aa1b60448201526064016105c3565b6040805187916117a9918a35916020808d013592918d01359160608e0135910161506f565b6040516020818303038152906040528051906020012060001c146117df5760405162461bcd60e51b81526004016105c39061508a565b60006117ee8787878787610c2b565b90506001811515146118125760405162461bcd60e51b81526004016105c39061501f565b60236040518061010001604052806023805490508152602001428152602001600019815260200189815260200188815260200187878080602002602001604051908101604052809392919081815260200183836020028082843760009201919091525050509082525060200161188d36879003870187614d39565b81526020016118a1368c90038c018c6150b2565b905281546001818101845560009384526020938490208351600c90930201918255838301519082015560408201516002820155606082015160038201556080820151600482015560a08201518051929391926119039260058501920190614004565b5060c082015180516006830155602090810151600783015560e09092015180518051600884015583015160098301558201518051600a830155820151600b90910155600083815260148252604090819020805460ff1916600117905560235490519081527ffa3646576e62bd55338198a0df1081271097c419287396347b2f5b84a21d6760910160405180910390a15050505050505050565b60008080805b600a54811015611cf9578787828181106119be576119be614af8565b60e002919091013590508888838181106119da576119da614af8565b905060e00201600001602001358989848181106119f9576119f9614af8565b905060e00201604001358a8a85818110611a1557611a15614af8565b905060e0020160600135604051602001611a32949392919061506f565b6040516020818303038152906040528051906020012060001c9250878782818110611a5f57611a5f614af8565b905060e00201608001358314611a875760405162461bcd60e51b81526004016105c39061508a565b73__ECDSA_________________________________63f43c6a6d6040518060a001604052808b8b86818110611abe57611abe614af8565b905060e0020160a0016000013581526020018b8b86818110611ae257611ae2614af8565b905060e0020160a00160200135815260200186815260200160158c8c87818110611b0e57611b0e614af8565b905060e002016040013581548110611b2857611b28614af8565b906000526020600020906002020160000154815260200160158c8c87818110611b5357611b53614af8565b905060e002016040013581548110611b6d57611b6d614af8565b9060005260206000209060020201600101548152506040518263ffffffff1660e01b8152600401611b9e9190614fe5565b602060405180830381865af4158015611bbb573d6000803e3d6000fd5b505050506040513d601f19601f82011682018060405250810190611bdf9190614e13565b9150600182151514611c035760405162461bcd60e51b81526004016105c39061501f565b878782818110611c1557611c15614af8565b905060e0020160400135888883818110611c3157611c31614af8565b905060e0020160600135604051602001611c4c9291906148c2565b60408051601f1981840301815291815281516020928301206000818152601e90935291205490945060ff1615611c945760405162461bcd60e51b81526004016105c3906150f1565b6000848152601e60205260409020805460ff19166001179055878782818110611cbf57611cbf614af8565b905060e00201601c60008681526020019081526020016000208181611ce49190615119565b50819050611cf181614b24565b9150506119a2565b5060005b6015548110156120ce57858582818110611d1957611d19614af8565b6101200291909101359050868683818110611d3657611d36614af8565b9050610120020160000160000160200135878784818110611d5957611d59614af8565b9050610120020160000160400160000135888885818110611d7c57611d7c614af8565b9050610120020160000160400160200135898986818110611d9f57611d9f614af8565b90506101200201608001358a8a87818110611dbc57611dbc614af8565b9050610120020160a00135604051602001611dff96959493929190958652602086019490945260408501929092526060840152608083015260a082015260c00190565b6040516020818303038152906040528051906020012060001c9250858582818110611e2c57611e2c614af8565b9050610120020160c001358314611e555760405162461bcd60e51b81526004016105c39061508a565b73__ECDSA_________________________________63f43c6a6d6040518060a00160405280898986818110611e8c57611e8c614af8565b9050610120020160e001600001358152602001898986818110611eb157611eb1614af8565b9050610120020160e00160200135815260200186815260200160158a8a87818110611ede57611ede614af8565b905061012002016080013581548110611ef957611ef9614af8565b906000526020600020906002020160000154815260200160158a8a87818110611f2457611f24614af8565b905061012002016080013581548110611f3f57611f3f614af8565b9060005260206000209060020201600101548152506040518263ffffffff1660e01b8152600401611f709190614fe5565b602060405180830381865af4158015611f8d573d6000803e3d6000fd5b505050506040513d601f19601f82011682018060405250810190611fb19190614e13565b9150600182151514611fd55760405162461bcd60e51b81526004016105c39061501f565b858582818110611fe757611fe7614af8565b905061012002016080013586868381811061200457612004614af8565b9050610120020160a001356040516020016120209291906148c2565b60408051601f1981840301815291815281516020928301206000818152601f90935291205490945060ff16156120685760405162461bcd60e51b81526004016105c3906150f1565b6000848152601f60205260409020805460ff1916600117905585858281811061209357612093614af8565b90506101200201601d600086815260200190815260200160002081816120b99190615151565b508190506120c681614b24565b915050611cfd565b50600b80549060006120df83614b24565b91905055507f6a2c41ee80fc36b9b44f5e1f5d932b5988f82c4a2dfaa8f1271f8dc8dfa38657600b5460405161211791815260200190565b60405180910390a150505050505050565b601a818154811061213857600080fd5b60009182526020918290206040805160a08082018352600c90940290920180546060808501918252600183015460808087019190915291855260028301548588015260038301548585015283518087018552600484015481830190815260058501548285015281526006840154818901526007840154818601528451968701855260088401549187019182526009840154928701929092528552600a82015495850195909552600b015490830152925083565b6000818152601b602052604090205460ff16156122375760405162461bcd60e51b815260206004820152600a602482015269105b1c9958591e50591960b21b60448201526064016105c3565b73__Commitment____________________________6365094472601a838154811061226457612264614af8565b90600052602060002090600c0201600001601a848154811061228857612288614af8565b90600052602060002090600c0201600401601a85815481106122ac576122ac614af8565b90600052602060002090600c020160080187876040518663ffffffff1660e01b81526004016122df9594939291906151b9565b602060405180830381865af41580156122fc573d6000803e3d6000fd5b505050506040513d601f19601f820116820180604052508101906123209190614e13565b15156001146123655760405162461bcd60e51b8152602060048201526011602482015270125b95985b1a5910dbdb5b5a5d1b595b9d607a1b60448201526064016105c3565b601b6020526015805460018101825560009190915284906002027f55f448fdea98c4d29eb340757ef0a66cd03dbb9538908a6a81d96026b71ec475016123ab8282614b9a565b50507f3cea875ee19244987b841eab9de965bec31e73abf8846987cd545d5af477c29a846040516123dc91906151f8565b60405180910390a150505050565b602381815481106123fa57600080fd5b6000918252602091829020600c9091020180546001820154600283015460038401546004850154604080518082018252600688015481526007880154818a01528151608081018352600889015481840190815260098a0154606083015281528251808401909352600a8901548352600b90980154828a0152978701529396509194909391929187565b612556604051806103000160405280600081526020016000815260200160008152602001600081526020016000815260200160008152602001600081526020016000815260200160008152602001600081526020016060815260200160008019168152602001600080191681526020016060815260200160001515815260200160001515815260200160001515815260200160001515815260200160001515815260200160001515815260200160006001600160a01b031681526020016060815260200160608152602001606081525090565b6040518061030001604052806003548152602001600454815260200160055481526020016006548152602001600754815260200160085481526020016009548152602001600a548152602001600b548152602001600c54815260200160178054806020026020016040519081016040528092919081815260200182805480156125fe57602002820191906000526020600020905b8154815260200190600101908083116125ea575b50505050508152602001600154815260200160025481526020016019805480602002602001604051908101604052809291908181526020016000905b8282101561268a578382906000526020600020906003020160405180606001604052908160008201548152602001600182015481526020016002820154815250508152602001906001019061263a565b50505090825250600d5460ff80821615156020808501919091526301000000830482161515604080860191909152600160201b8404831615156060860152620100008404831615156080860152600160281b84048316151560a0860152600160301b909304909116151560c0840152600080546001600160a01b031660e08501526023805484518185028101850190955280855261010090950194909290919084015b8282101561285357838290600052602060002090600c0201604051806101000160405290816000820154815260200160018201548152602001600282015481526020016003820154815260200160048201548152602001600582018054806020026020016040519081016040528092919081815260200182805480156127d257602002820191906000526020600020905b8154815260200190600101908083116127be575b5050509183525050604080518082018252600684015481526007840154602082810191909152808401919091528151608081018352600885015481840190815260098601546060830152815282518084018452600a8601548152600b909501548583015280820194909452910191909152908252600192909201910161272d565b505050508152602001601a805480602002602001604051908101604052809291908181526020016000905b828210156129555760008481526020908190206040805161010081018252600c8602909201805460c0840190815260018083015460e086015260608086019283526002840154608080880191909152600385015460a08089019190915293875285518085018752600486015481840190815260058701548284015281526006860154818a0152600786015481880152878901528551938401865260088501549184019182526009850154908401528252600a83015482870152600b909201548184015291830191909152908352909201910161287e565b5050505081526020016015805480602002602001604051908101604052809291908181526020016000905b828210156129c657838290600052602060002090600202016040518060400160405290816000820154815260200160018201548152505081526020019060010190612980565b505050915250919050565b601781815481106129e157600080fd5b600091825260209091200154905081565b60005b601554811015612b875760005b600a54811015612ab457601e60008383604051602001612a239291906148c2565b60408051601f198184030181529181528151602092830120835290820192909252016000205460ff16612aa25760008281526018602052604090205460ff16612aa2576000828152601860205260408120805460ff19166001908117909155601780549182018155909152600080516020615563833981519152018290555b80612aac81614b24565b915050612a02565b5060025b601554612ac6906001614ca5565b8111612b7457601f60008383604051602001612ae39291906148c2565b60408051601f198184030181529181528151602092830120835290820192909252016000205460ff16612b625760008281526018602052604090205460ff16612b62576000828152601860205260408120805460ff19166001908117909155601780549182018155909152600080516020615563833981519152018290555b80612b6c81614b24565b915050612ab8565b5080612b7f81614b24565b9150506129f5565b50600d805460ff60281b1916600160281b9081179182905560405160008051602061552383398151915292612bc492900460ff1690601790615206565b60405180910390a1565b600d546301000000900460ff1615612bf85760405162461bcd60e51b81526004016105c390614a8b565b612c00613fea565b6000805b601554811015612d315760008181526018602052604090205460ff16612d1f57601c6000826000604051602001612c3c9291906148c2565b60408051601f1981840301815291815281516020928301208352828201939093529082016000208251808401909352805483526001015490820152925081612c94578251600e556020830151600f5560019150612cd5565b600e54600f5484516020860151612cce939291906003600160601b0363ffffffff60c01b0319600160601b63ffffffff60c01b0319613932565b600f55600e555b601660158281548110612cea57612cea614af8565b600091825260208083208454600181810187559585529190932060029283029093018054919092029092019182558201549101555b80612d2981614b24565b915050612c04565b5060405163d0a0c44960e01b815273__LRS___________________________________9063d0a0c44990612d6a9060169060040161524e565b606060405180830381865af4158015612d87573d6000803e3d6000fd5b505050506040513d601f19601f82011682018060405250810190612dab919061529d565b805160125560200151601355601155600d805463ff00000019166301000000908117918290556040517f0e47d3a88618bb81a4306e62bbf6174cde488bc35e04872e83dcc34933790bf292612e0892900460ff1690601790615206565b60405180910390a15050565b60405163426033d960e01b815260009073__Elgamal_______________________________9063426033d990612e5090869086906004016152ec565b602060405180830381865af4158015612e6d573d6000803e3d6000fd5b505050506040513d601f19601f82011682018060405250810190612e919190614c8c565b90505b92915050565b6000806000612ea7613fc5565b612eaf613fea565b6000805160206155038339815191528152600080516020615543833981519152602082015260005b868110156132cc57601d6000898984818110612ef557612ef5614af8565b905060c00201604001358a8a85818110612f1157612f11614af8565b905060c0020160600135604051602001612f2c9291906148c2565b60408051601f19818403018152918152815160209283012083528282019390935290820160002082516080810184528154818501908152600183015460608301528152835180850190945260028083015485526003909201548484015291820192909252935073__CPProof_______________________________9063fc888f3d9084906015908c8c87818110612fc557612fc5614af8565b905060c0020160600135612fd99190614e5c565b81548110612fe957612fe9614af8565b906000526020600020906002020186600001518c8c8781811061300e5761300e614af8565b905060c002016000018d8d8881811061302957613029614af8565b905060c002016080016040518663ffffffff1660e01b8152600401613052959493929190614e92565b602060405180830381865af415801561306f573d6000803e3d6000fd5b505050506040513d601f19601f820116820180604052508101906130939190614e13565b94506001851515146130b75760405162461bcd60e51b81526004016105c390614ed6565b73__Elgamal_______________________________636c3c67a184602001518a8a858181106130e8576130e8614af8565b905060c002016000016040518363ffffffff1660e01b815260040161310e929190614efc565b602060405180830381865af415801561312b573d6000803e3d6000fd5b505050506040513d601f19601f8201168201806040525081019061314f9190614c8c565b935073__Shares________________________________63330f6d15858a8a8581811061317e5761317e614af8565b905060c002016131998c8c8781811061121557611215614af8565b6040518463ffffffff1660e01b81526004016131b793929190614f17565b602060405180830381865af41580156131d4573d6000803e3d6000fd5b505050506040513d601f19601f820116820180604052508101906131f89190614e13565b9550856132ba576018600089898481811061321557613215614af8565b60c002919091016040908101358352602083019390935250016000205460ff166132ba576001601860008a8a8581811061325157613251614af8565b905060c0020160400135815260200190815260200160002060006101000a81548160ff021916908315150217905550601788888381811061329457613294614af8565b835460018101855560009485526020909420604060c09092029390930101359190920155505b806132c481614b24565b915050612ed7565b50600080516020615523833981519152600d60059054906101000a900460ff166017604051612117929190615206565b6016818154811061330c57600080fd5b60009182526020909120600290910201805460019091015490915082565b60606000600a546001600160401b0381111561334857613348614cbd565b60405190808252806020026020018201604052801561338157816020015b61336e61404f565b8152602001906001900390816133665790505b50905060005b600a5481101561345e57601c600085836040516020016133a89291906148c2565b60408051601f198184030181529181528151602092830120835282820193909352908201600020825160e081018452815460a08201908152600183015460c0830152815260028201548184015260038201548185015260048201546060820152835180850190945260058201548452600690910154918301919091526080810191909152825183908390811061344057613440614af8565b6020026020010181905250808061345690614b24565b915050613387565b5092915050565b60175460155460609160009161347b9190614e5c565b6001600160401b0381111561349257613492614cbd565b6040519080825280602002602001820160405280156134cb57816020015b6134b8614084565b8152602001906001900390816134b05790505b5090506000805b6015548110156135fc5760008181526018602052604090205460ff166135ea57601d600082613502886002614ca5565b6040516020016135139291906148c2565b60408051601f198184030181529181528151602092830120835282820193909352908201600020825161012081018452815460e08201908152600183015461010083015260a08201908152845180860186526002840154815260038401548186015260c083015281526004820154818401526005820154818501526006820154606082015283518085019094526007820154845260089091015491830191909152608081019190915283518490849081106135d0576135d0614af8565b602002602001018190525081806135e690614b24565b9250505b806135f481614b24565b9150506134d2565b50909392505050565b600d5460ff16156136425760405162461bcd60e51b815260206004820152600760248201526615185b1b1a595960ca1b60448201526064016105c3565b600a5460165410156136665760405162461bcd60e51b81526004016105c390614e30565b604051633ee9b07b60e21b815273__Utils_________________________________9063fba6c1ec906136a0908490600e90600401615317565b602060405180830381865af41580156136bd573d6000803e3d6000fd5b505050506040513d601f19601f820116820180604052508101906136e19190614e13565b15156001146137205760405162461bcd60e51b815260206004820152600b60248201526a57726f6e675072764b657960a81b60448201526064016105c3565b6000805b60235481101561384a5773__Elgamal_______________________________63426033d96023838154811061375b5761375b614af8565b90600052602060002090600c0201600801856040518363ffffffff1660e01b815260040161378a92919061532b565b602060405180830381865af41580156137a7573d6000803e3d6000fd5b505050506040513d601f19601f820116820180604052508101906137cb9190614c8c565b6019549092508210156138385781602382815481106137ec576137ec614af8565b90600052602060002090600c0201600201819055506019828154811061381457613814614af8565b60009182526020822060016003909202010180549161383283614b24565b91905055505b8061384281614b24565b915050613724565b50600d805460ff191660011790556040517f86c72f7262d7fbde2f928c8d49c86489c2ab28cd59ad48640e4b6afc261d980090612e0890601990602390615398565b60606021805480602002602001604051908101604052809291908181526020016000905b828210156139195760008481526020908190206040805160808101825260058602909201805483526001808201548486015260028201548484015282518084019093526003820154835260049091015482850152606083019190915290835290920191016138b0565b50505050905090565b6015818154811061330c57600080fd5b6000806000806000888b1415613980578580613950576139506154ab565b888b0861396657600080945094505050506139ad565b6139748b8b60018a8a6139b8565b91945092509050613999565b6139918b8b60018c8c60018c613b57565b919450925090505b6139a583838389613e8a565b945094505050505b965096945050505050565b60008080856139ce575086915085905084613b4c565b600084806139de576139de6154ab565b898a099050600085806139f3576139f36154ab565b898a09905060008680613a0857613a086154ab565b898a09905060008780613a1d57613a1d6154ab565b8880613a2b57613a2b6154ab565b848e09600409905060008880613a4357613a436154ab565b8980613a5157613a516154ab565b8a80613a5f57613a5f6154ab565b8586098c098a80613a7257613a726154ab565b876003090890508880613a8757613a876154ab565b8980613a9557613a956154ab565b838408613aa2908b614e5c565b8a80613ab057613ab06154ab565b8384090894508880613ac457613ac46154ab565b8980613ad257613ad26154ab565b8a80613ae057613ae06154ab565b868709600809613af0908b614e5c565b8a80613afe57613afe6154ab565b8b80613b0c57613b0c6154ab565b613b16898e614e5c565b860884090893508880613b2b57613b2b6154ab565b8980613b3957613b396154ab565b8c8e096002099497509295509293505050505b955095509592505050565b6000808089158015613b67575088155b15613b79575085915084905083613e7d565b86158015613b85575085155b15613b97575088915087905086613e7d565b613b9f614097565b8480613bad57613bad6154ab565b898a0981528480613bc057613bc06154ab565b81518a0960208201528480613bd757613bd76154ab565b86870960408201528480613bed57613bed6154ab565b6040820151870960608201526040805160808101909152808680613c1357613c136154ab565b60408401518e0981526020018680613c2d57613c2d6154ab565b60608401518d0981526020018680613c4757613c476154ab565b83518b0981526020018680613c5e57613c5e6154ab565b60208401518a09905260408101518151919250141580613c8657506060810151602082015114155b613cd25760405162461bcd60e51b815260206004820152601e60248201527f557365206a6163446f75626c652066756e6374696f6e20696e7374656164000060448201526064016105c3565b613cda614097565b8580613ce857613ce86154ab565b8251613cf49088614e5c565b60408401510881528580613d0a57613d0a6154ab565b6020830151613d199088614e5c565b60608401510860208201528580613d3257613d326154ab565b8151800960408201528580613d4957613d496154ab565b8151604083015109606082015260008680613d6657613d666154ab565b6060830151613d759089614e5c565b8880613d8357613d836154ab565b602085015180090890508680613d9b57613d9b6154ab565b8780613da957613da96154ab565b8880613db757613db76154ab565b6040850151865109600209613dcc9089614e5c565b8208905060008780613de057613de06154ab565b8880613dee57613dee6154ab565b613df8848b614e5c565b8a80613e0657613e066154ab565b60408701518851090860208501510990508780613e2557613e256154ab565b8880613e3357613e336154ab565b6060850151602087015109613e48908a614e5c565b8208905060008880613e5c57613e5c6154ab565b8980613e6a57613e6a6154ab565b8b8f098551099297509095509093505050505b9750975097945050505050565b6000806000613e998585613ef9565b905060008480613eab57613eab6154ab565b828309905060008580613ec057613ec06154ab565b828a09905060008680613ed557613ed56154ab565b8780613ee357613ee36154ab565b8486098a09919a91995090975050505050505050565b60008215801590613f0a5750818314155b8015613f1557508115155b613f525760405162461bcd60e51b815260206004820152600e60248201526d24b73b30b634b210373ab6b132b960911b60448201526064016105c3565b6000600183825b8615613fba57613f6987836154c1565b9050828680613f7a57613f7a6154ab565b8780613f8857613f886154ab565b858409613f959089614e5c565b8608909450925086613fa781836154e3565b613fb19084614e5c565b97509150613f59565b509195945050505050565b6040518060400160405280613fd8613fea565b8152602001613fe5613fea565b905290565b604051806040016040528060008152602001600081525090565b82805482825590600052602060002090810192821561403f579160200282015b8281111561403f578251825591602001919060010190614024565b5061404b9291506140b5565b5090565b6040518060a00160405280614062613fea565b8152602001600081526020016000815260200160008152602001613fe5613fea565b6040518060a00160405280614062613fc5565b60405180608001604052806004906020820280368337509192915050565b5b8082111561404b57600081556001016140b6565b6000602082840312156140dc57600080fd5b81356001600160401b038111156140f257600080fd5b8201610220818503121561410557600080fd5b9392505050565b60008083601f84011261411e57600080fd5b5081356001600160401b0381111561413557600080fd5b6020830191508360208260051b850101111561415057600080fd5b9250929050565b60006040828403121561416957600080fd5b50919050565b600080600080600060a0868803121561418757600080fd5b853594506020860135935060408601356001600160401b038111156141ab57600080fd5b6141b78882890161410c565b90945092506141cb90508760608801614157565b90509295509295909350565b6000602082840312156141e957600080fd5b5035919050565b80518252602090810151910152565b848152602081018490526040810183905260a08101610d9d60608301846141f0565b60008083601f84011261423357600080fd5b5081356001600160401b0381111561424a57600080fd5b60208301915083602060c08302850101111561415057600080fd5b600080600083850360c081121561427b57600080fd5b84356001600160401b0381111561429157600080fd5b61429d87828801614221565b90955093505060a0601f19820112156142b557600080fd5b506020840190509250925092565b60006080828403121561416957600080fd5b60008060008060008061012087890312156142ef57600080fd5b6142f988886142c3565b95506080870135945060a0870135935060c08701356001600160401b0381111561432257600080fd5b61432e89828a0161410c565b909450925061434290508860e08901614157565b90509295509295509295565b6000806000806040858703121561436457600080fd5b84356001600160401b038082111561437b57600080fd5b818701915087601f83011261438f57600080fd5b81358181111561439e57600080fd5b88602060e0830285010111156143b357600080fd5b6020928301965094509086013590808211156143ce57600080fd5b818701915087601f8301126143e257600080fd5b8135818111156143f157600080fd5b8860206101208302850101111561440757600080fd5b95989497505060200194505050565b6144218282516141f0565b60208101516040830152604081015160608301525050565b61018081016144488286614416565b6144556080830185614416565b614463610100830184614416565b949350505050565b60008060008060a0858703121561448157600080fd5b61448b8686614157565b966040860135965060608601359560800135945092505050565b6144b08282516141f0565b60208101516144c260408401826141f0565b505050565b6000610160820190508882528760208301528660408301528560608301528460808301526144f860a08301856141f0565b61450560e08301846144a5565b98975050505050505050565b600081518084526020808501945080840160005b8381101561454157815187529582019590820190600101614525565b509495945050505050565b600081518084526020808501945080840160005b838110156145415781518051885283810151848901526040908101519088015260609096019590820190600101614560565b600081518084526020808501808196508360051b8101915082860160005b85811015614646578284038952815161018081518652868201518787015260408083015181880152506060808301518188015250608080830151818801525060a080830151828289015261460683890182614511565b9250505060c08083015161461c828901826141f0565b505060e082015191506146336101008701836144a5565b99860199945050908401906001016145b0565b5091979650505050505050565b600081518084526020808501945080840160005b8381101561454157815161467c888251614416565b8381015161468d60808a0182614416565b50604001516146a0610100890182614416565b50610180969096019590820190600101614667565b600081518084526020808501945080840160005b83811015614541576146dc8783516141f0565b60409690960195908201906001016146c9565b6020815281516020820152602082015160408201526040820151606082015260608201516080820152608082015160a082015260a082015160c082015260c082015160e0820152600060e08301516101008181850152808501519150506101208181850152808501519150506101408181850152808501519150506103006101608181860152614783610320860184614511565b92508086015190506101808181870152808701519150506101a0818187015280870151915050601f196101c08187860301818801526147c2858461454c565b9450808801519250506101e06147db8188018415159052565b87015191506102006147f08782018415159052565b87015191506102206148058782018415159052565b870151915061024061481a8782018415159052565b870151915061026061482f8782018415159052565b87015191506102806148448782018415159052565b87015191506102a0614860878201846001600160a01b03169052565b808801519250506102c081878603018188015261487d8584614592565b9450808801519250506102e081878603018188015261489c8584614653565b9088015187820390920184880152935090506148b883826146b5565b9695505050505050565b918252602082015260400190565b60008060a083850312156148e357600080fd5b6148ed84846142c3565b946080939093013593505050565b6000806020838503121561490e57600080fd5b82356001600160401b0381111561492457600080fd5b61493085828601614221565b90969095509350505050565b602080825282518282018190526000919060409081850190868401855b8281101561464657815161496e8582516141f0565b808701518587015285810151606080870191909152810151608080870191909152015161499e60a08601826141f0565b5060e0939093019290850190600101614959565b602080825282518282018190526000919060409081850190868401855b828110156146465781516149e48582516144a5565b808701516080868101919091528682015160a0870152606082015160c08701520151614a1360e08601826141f0565b506101209390930192908501906001016149cf565b602080825282518282018190526000919060409081850190868401855b82811015614646578151805185528681015187860152858101518686015260609081015190614a76818701836141f0565b505060a0939093019290850190600101614a45565b6020808252600a9082015269105b1c9958591e54d95d60b21b604082015260600190565b6000808335601e19843603018112614ac657600080fd5b8301803591506001600160401b03821115614ae057600080fd5b6020019150600581901b360382131561415057600080fd5b634e487b7160e01b600052603260045260246000fd5b634e487b7160e01b600052601160045260246000fd5b6000600019821415614b3857614b38614b0e565b5060010190565b6000808335601e19843603018112614b5657600080fd5b8301803591506001600160401b03821115614b7057600080fd5b6020019150600681901b360382131561415057600080fd5b81358155602082013560018201555050565b614ba48282614b88565b5050565b8015158114614bb657600080fd5b50565b600060208284031215614bcb57600080fd5b813561410581614ba8565b6000808335601e19843603018112614bed57600080fd5b8301803591506001600160401b03821115614c0757600080fd5b60200191506101808102360382131561415057600080fd5b614c298282614b88565b6040820135600282015560608201356003820155614c4d6080830160048301614b88565b60c0820135600682015560e08201356007820155614c72610100830160088301614b88565b610140820135600a820155610160820135600b8201555050565b600060208284031215614c9e57600080fd5b5051919050565b60008219821115614cb857614cb8614b0e565b500190565b634e487b7160e01b600052604160045260246000fd5b604080519081016001600160401b0381118282101715614d0357634e487b7160e01b600052604160045260246000fd5b60405290565b600060408284031215614d1b57600080fd5b614d23614cd3565b9050813581526020820135602082015292915050565b600060408284031215614d4b57600080fd5b612e918383614d09565b60006020808352835181840152808401516040818186015280860151606086015260608601519150610120806080870152614d94610140870184614511565b92506080870151614da860a08801826141f0565b5060a0870151614dbb60e08801826141f0565b5060c0870151868403601f1901918701919091528051808452908401928401906000905b80821015614e0657614df28386516141f0565b938501939183019160019190910190614ddf565b5090979650505050505050565b600060208284031215614e2557600080fd5b815161410581614ba8565b602080825260129082015271496e73756666696369656e74566f7465727360701b604082015260600190565b600082821015614e6e57614e6e614b0e565b500390565b8054825260010154602090910152565b80358252602090810135910152565b6101408101614ea182886141f0565b614eae6040830187614e73565b614ebb60808301866141f0565b614ec860c0830185614e83565b6148b8610100830184614e83565b6020808252600c908201526b2bb937b733a1a8383937b7b360a11b604082015260600190565b60808101614f0a82856141f0565b6141056040830184614e83565b60006101008083018684526020614f3081860188614e83565b6040606081890135818801526080818a01358189015260a0614f56818a01838d01614e83565b60e089810197909752895195869052610120890196858b019660005b81811015614fbf578851614f878b82516141f0565b808901518b89015287810151878c015286810151868c0152850151614fae858c01826141f0565b509882019897870197600101614f72565b50979d9c50505050505050505050505050565b602081526000612e916020830184614511565b600060a082019050825182526020830151602083015260408301516040830152606083015160608301526080830151608083015292915050565b6020808252600e908201526d57726f6e675369676e617475726560901b604082015260600190565b813581556020820135600182015560408201356002820155614ba46060830160038301614b88565b93845260208401929092526040830152606082015260800190565b6020808252600e908201526d135cd9d5d85cd35bd91a599a595960921b604082015260600190565b6000608082840312156150c457600080fd5b6150cc614cd3565b6150d68484614d09565b81526150e58460408501614d09565b60208201529392505050565b6020808252600e908201526d14da185c995cd55c1b1bd859195960921b604082015260600190565b6151238282614b88565b604082013560028201556060820135600382015560808201356004820155614ba460a0830160058301614b88565b61515b8282614b88565b61516b6040830160028301614b88565b6080820135600482015560a0820135600582015560c08201356006820155614ba460e0830160078301614b88565b6151a38282614e73565b6002810154604083015260030154606090910152565b6101c081016151c88288615199565b6151d56080830187615199565b6151e3610100830186615199565b6101808201939093526101a001529392505050565b60408101612e948284614e83565b600060408201841515835260206040818501528185548084526060860191508660005282600020935060005b81811015614e0657845483526001948501949284019201615232565b60208082528254828201819052600084815291822060409182850191845b828110156152915761527e8483614e73565b928401926002919091019060010161526c565b50919695505050505050565b60008082840360608112156152b157600080fd5b835192506040601f19820112156152c757600080fd5b506152d0614cd3565b6020840151815260408401516020820152809150509250929050565b60a081016152fa8285614e83565b61530a6040830160408601614e83565b8260808301529392505050565b828152606081016141056020830184614e73565b60a081016153398285614e73565b61530a6040830160028601614e73565b6000815480845260208085019450836000528060002060005b8381101561454157815487529582019560019182019101615362565b6153888282614e73565b614ba46040830160028301614e73565b6000604080830181845280865480835260609250828601915060008881526020808220825b848110156153ec57815486526001808301548488015260028301548988015295870195600390920191016153bd565b5050878403818901528854808552898352818320828601945060059082821b87018401905b8386101561549a57601f198883030187526101808154835260018201548684015260028201548b84015260038201548a840152600482015460808401528060a0840152615462818401858401615349565b905061547460c0840160068401614e73565b61548561010084016008840161537e565b96850196600196909601959150600c01615411565b509c9b505050505050505050505050565b634e487b7160e01b600052601260045260246000fd5b6000826154de57634e487b7160e01b600052601260045260246000fd5b500490565b60008160001904831182151516156154fd576154fd614b0e565b50029056fe6b17d1f2e12c4247f8bce6e563a440f277037d812deb33a0f4a13945d898c2963bf5aff1d734f1482917115afcac6550ec2397d0cfa1f1867b742837e8c53b304fe342e2fe1a7f9b8ee7eb4a7c0f9e162bce33576b315ececbb6406837bf51f5c624b66cc0138b8fabc209247f72d758e1cf3343756d543badbf24212bed8c15a2646970667358221220944f6697c8c6e50d933bc0ff57a440eb292bb4ac67079eb90292a57aee41df5d64736f6c634300080a0033a2646970667358221220c5359b7047ba7aa48a051683d9ced2369967e979df7c15226770f291eafbc33d64736f6c634300080a0033",
  "immutableReferences": {},
  "source": "// SPDX-License-Identifier: MIT\r\npragma solidity >=0.4.22 <0.9.0;\r\n\r\nimport \"./Election.sol\";\r\n\r\ncontract VotingApp{\r\n    // Store Elections \r\n    Election[] private electionAddresses;\r\n\r\n    // Store election count;\r\n    uint public electionCount;\r\n    \r\n    // new Election Event\r\n    event newElectionEvent(Election eAddress); \r\n\r\n\r\n    function addElection() external{\r\n                \r\n        electionAddresses.push(new Election(electionCount,msg.sender));\r\n\r\n        electionCount++;\r\n\r\n        emit newElectionEvent(electionAddresses[electionCount-1]);\r\n        \r\n    }\r\n\r\n    function getElectionAddresses() external view returns (Election[] memory){\r\n        return electionAddresses;\r\n    }\r\n\r\n}",
  "sourcePath": "C:\\Users\\tim\\Desktop\\e-voting\\src\\contracts\\VotingApp.sol",
  "compiler": {
    "name": "solc",
    "version": "0.8.10+commit.fc410830.Emscripten.clang"
  },
  "schemaVersion": "3.4.4",
  "updatedAt": "2022-02-27T13:45:13.799Z",
  "networkType": "ethereum",
  "devdoc": {
    "kind": "dev",
    "methods": {},
    "version": 1
  },
  "userdoc": {
    "kind": "user",
    "methods": {},
    "version": 1
  }
}