{
  "contractName": "VotingApp",
  "abi": [
    {
      "anonymous": false,
      "inputs": [
        {
          "components": [
            {
              "internalType": "uint256",
              "name": "id",
              "type": "uint256"
            },
            {
              "internalType": "uint256",
              "name": "post_time",
              "type": "uint256"
            },
            {
              "internalType": "uint256",
              "name": "key_gen_end_time",
              "type": "uint256"
            },
            {
              "internalType": "uint256",
              "name": "vote_end_time",
              "type": "uint256"
            },
            {
              "internalType": "uint256",
              "name": "secret_upload_end_time",
              "type": "uint256"
            },
            {
              "internalType": "uint256",
              "name": "min_shares",
              "type": "uint256"
            },
            {
              "internalType": "uint256",
              "name": "candidateCount",
              "type": "uint256"
            },
            {
              "internalType": "uint256",
              "name": "voterCount",
              "type": "uint256"
            },
            {
              "internalType": "uint256",
              "name": "totalVoteCount",
              "type": "uint256"
            },
            {
              "internalType": "uint256",
              "name": "totatKeygenValueSentCount",
              "type": "uint256"
            },
            {
              "internalType": "uint256",
              "name": "totalSubSecretSentCount",
              "type": "uint256"
            },
            {
              "internalType": "uint256",
              "name": "L",
              "type": "uint256"
            },
            {
              "internalType": "string",
              "name": "title",
              "type": "string"
            },
            {
              "internalType": "string",
              "name": "description",
              "type": "string"
            },
            {
              "internalType": "string[]",
              "name": "public_keys",
              "type": "string[]"
            },
            {
              "components": [
                {
                  "internalType": "uint256",
                  "name": "x",
                  "type": "uint256"
                },
                {
                  "internalType": "uint256",
                  "name": "y",
                  "type": "uint256"
                }
              ],
              "internalType": "struct Utils.ECPoint",
              "name": "H",
              "type": "tuple"
            },
            {
              "components": [
                {
                  "internalType": "uint256",
                  "name": "x",
                  "type": "uint256"
                },
                {
                  "internalType": "uint256",
                  "name": "y",
                  "type": "uint256"
                }
              ],
              "internalType": "struct Utils.ECPoint[]",
              "name": "EC_public_keys",
              "type": "tuple[]"
            },
            {
              "components": [
                {
                  "internalType": "uint256",
                  "name": "id",
                  "type": "uint256"
                },
                {
                  "internalType": "string",
                  "name": "name",
                  "type": "string"
                },
                {
                  "internalType": "uint256",
                  "name": "voteCount",
                  "type": "uint256"
                }
              ],
              "internalType": "struct Election.Candidate[]",
              "name": "candidates",
              "type": "tuple[]"
            },
            {
              "internalType": "bool",
              "name": "isVoteTallied",
              "type": "bool"
            },
            {
              "internalType": "address",
              "name": "owner",
              "type": "address"
            }
          ],
          "indexed": false,
          "internalType": "struct Election.ElectionData",
          "name": "eData",
          "type": "tuple"
        },
        {
          "indexed": false,
          "internalType": "contract Election",
          "name": "eAddress",
          "type": "address"
        }
      ],
      "name": "newElectionEvent",
      "type": "event"
    },
    {
      "inputs": [],
      "name": "electionCount",
      "outputs": [
        {
          "internalType": "uint256",
          "name": "",
          "type": "uint256"
        }
      ],
      "stateMutability": "view",
      "type": "function",
      "constant": true
    },
    {
      "inputs": [
        {
          "components": [
            {
              "internalType": "string",
              "name": "title",
              "type": "string"
            },
            {
              "internalType": "string",
              "name": "description",
              "type": "string"
            },
            {
              "internalType": "string[]",
              "name": "public_keys",
              "type": "string[]"
            },
            {
              "components": [
                {
                  "internalType": "uint256",
                  "name": "x",
                  "type": "uint256"
                },
                {
                  "internalType": "uint256",
                  "name": "y",
                  "type": "uint256"
                }
              ],
              "internalType": "struct Utils.ECPoint[]",
              "name": "EC_public_keys",
              "type": "tuple[]"
            },
            {
              "internalType": "string[]",
              "name": "candidates",
              "type": "string[]"
            },
            {
              "internalType": "uint256",
              "name": "key_gen_time",
              "type": "uint256"
            },
            {
              "internalType": "uint256",
              "name": "vote_time",
              "type": "uint256"
            },
            {
              "internalType": "uint256",
              "name": "secret_upload_time",
              "type": "uint256"
            },
            {
              "internalType": "uint256",
              "name": "key_gen_time_unit",
              "type": "uint256"
            },
            {
              "internalType": "uint256",
              "name": "vote_time_unit",
              "type": "uint256"
            },
            {
              "internalType": "uint256",
              "name": "secret_upload_time_unit",
              "type": "uint256"
            },
            {
              "internalType": "uint256",
              "name": "min_shares",
              "type": "uint256"
            }
          ],
          "internalType": "struct VotingApp.ElectionInit",
          "name": "_data",
          "type": "tuple"
        }
      ],
      "name": "addElection",
      "outputs": [],
      "stateMutability": "nonpayable",
      "type": "function"
    },
    {
      "inputs": [],
      "name": "getElectionAddresses",
      "outputs": [
        {
          "internalType": "contract Election[]",
          "name": "",
          "type": "address[]"
        }
      ],
      "stateMutability": "view",
      "type": "function",
      "constant": true
    },
    {
      "inputs": [
        {
          "internalType": "address",
          "name": "electionAddress",
          "type": "address"
        }
      ],
      "name": "getElectionData",
      "outputs": [
        {
          "components": [
            {
              "internalType": "uint256",
              "name": "id",
              "type": "uint256"
            },
            {
              "internalType": "uint256",
              "name": "post_time",
              "type": "uint256"
            },
            {
              "internalType": "uint256",
              "name": "key_gen_end_time",
              "type": "uint256"
            },
            {
              "internalType": "uint256",
              "name": "vote_end_time",
              "type": "uint256"
            },
            {
              "internalType": "uint256",
              "name": "secret_upload_end_time",
              "type": "uint256"
            },
            {
              "internalType": "uint256",
              "name": "min_shares",
              "type": "uint256"
            },
            {
              "internalType": "uint256",
              "name": "candidateCount",
              "type": "uint256"
            },
            {
              "internalType": "uint256",
              "name": "voterCount",
              "type": "uint256"
            },
            {
              "internalType": "uint256",
              "name": "totalVoteCount",
              "type": "uint256"
            },
            {
              "internalType": "uint256",
              "name": "totatKeygenValueSentCount",
              "type": "uint256"
            },
            {
              "internalType": "uint256",
              "name": "totalSubSecretSentCount",
              "type": "uint256"
            },
            {
              "internalType": "uint256",
              "name": "L",
              "type": "uint256"
            },
            {
              "internalType": "string",
              "name": "title",
              "type": "string"
            },
            {
              "internalType": "string",
              "name": "description",
              "type": "string"
            },
            {
              "internalType": "string[]",
              "name": "public_keys",
              "type": "string[]"
            },
            {
              "components": [
                {
                  "internalType": "uint256",
                  "name": "x",
                  "type": "uint256"
                },
                {
                  "internalType": "uint256",
                  "name": "y",
                  "type": "uint256"
                }
              ],
              "internalType": "struct Utils.ECPoint",
              "name": "H",
              "type": "tuple"
            },
            {
              "components": [
                {
                  "internalType": "uint256",
                  "name": "x",
                  "type": "uint256"
                },
                {
                  "internalType": "uint256",
                  "name": "y",
                  "type": "uint256"
                }
              ],
              "internalType": "struct Utils.ECPoint[]",
              "name": "EC_public_keys",
              "type": "tuple[]"
            },
            {
              "components": [
                {
                  "internalType": "uint256",
                  "name": "id",
                  "type": "uint256"
                },
                {
                  "internalType": "string",
                  "name": "name",
                  "type": "string"
                },
                {
                  "internalType": "uint256",
                  "name": "voteCount",
                  "type": "uint256"
                }
              ],
              "internalType": "struct Election.Candidate[]",
              "name": "candidates",
              "type": "tuple[]"
            },
            {
              "internalType": "bool",
              "name": "isVoteTallied",
              "type": "bool"
            },
            {
              "internalType": "address",
              "name": "owner",
              "type": "address"
            }
          ],
          "internalType": "struct Election.ElectionData",
          "name": "",
          "type": "tuple"
        }
      ],
      "stateMutability": "view",
      "type": "function",
      "constant": true
    }
  ],
  "bytecode": "0x608060405234801561001057600080fd5b50615794806100206000396000f3fe608060405234801561001057600080fd5b506004361061004c5760003560e01c8063170e5ccf14610051578063997d28301461007a578063f69c788414610091578063ff643748146100a6575b600080fd5b61006461005f3660046107f5565b6100bb565b6040516100719190610ae0565b60405180910390f35b61008360015481565b604051908152602001610071565b6100a461009f366004610af3565b610135565b005b6100ae610662565b6040516100719190610b2e565b6100c3610710565b6000829050806001600160a01b0316636652e5266040518163ffffffff1660e01b8152600401600060405180830381865afa158015610106573d6000803e3d6000fd5b505050506040513d6000823e601f3d908101601f1916820160405261012e9190810190610ec5565b9392505050565b60016101446080830183611087565b90501180156101615750600161015d6040830183611087565b9050115b801561017257506001816101600135115b6101e05760405162461bcd60e51b815260206004820152603560248201527f72657175697265206d696e696d756d206e756d626572206f662063616e64696460448201527430ba32b99030b732103b37ba32b9399030b932901960591b606482015260840160405180910390fd5b4260006101f660a08401356101008501356106c4565b61020090836110ed565b905060006102178460c001358561012001356106c4565b61022190836110ed565b905060006102388560e001358661014001356106c4565b61024290836110ed565b90506000336001548686868660405161025a906107cf565b6001600160a01b039096168652602086019490945260408501929092526060840152608083015260a082015260c001604051809103906000f0801580156102a5573d6000803e3d6000fd5b5081546001808201845560009384526020842090910180546001600160a01b0319166001600160a01b03939093169290921790915554815482919081106102ee576102ee611105565b6000918252602090912001546001600160a01b03169050806372910be0610315888061111b565b6040518363ffffffff1660e01b815260040161033292919061118a565b600060405180830381600087803b15801561034c57600080fd5b505af1158015610360573d6000803e3d6000fd5b5050506001600160a01b03821690506390c3f38f610381602089018961111b565b6040518363ffffffff1660e01b815260040161039e92919061118a565b600060405180830381600087803b1580156103b857600080fd5b505af11580156103cc573d6000803e3d6000fd5b5050506001600160a01b038216905063bd231bcb6103ed6040890189611087565b6040518363ffffffff1660e01b815260040161040a92919061119e565b600060405180830381600087803b15801561042457600080fd5b505af1158015610438573d6000803e3d6000fd5b5050506001600160a01b03821690506336bca2dd6104596060890189611238565b6040518363ffffffff1660e01b8152600401610476929190611281565b600060405180830381600087803b15801561049057600080fd5b505af11580156104a4573d6000803e3d6000fd5b5050506001600160a01b03821690506314e745d96104c56080890189611087565b6040518363ffffffff1660e01b81526004016104e292919061119e565b600060405180830381600087803b1580156104fc57600080fd5b505af1158015610510573d6000803e3d6000fd5b505060405163605e648b60e01b815261016089013560048201526001600160a01b038416925063605e648b9150602401600060405180830381600087803b15801561055a57600080fd5b505af115801561056e573d6000803e3d6000fd5b505060018054925090506000610583836112bb565b91905055507faa693bf16ae4a7da4005de071d3ae910863123b81c9aef96c23175f8fba911c8816001600160a01b0316636652e5266040518163ffffffff1660e01b8152600401600060405180830381865afa1580156105e7573d6000803e3d6000fd5b505050506040513d6000823e601f3d908101601f1916820160405261060f9190810190610ec5565b60006001805461061f91906112d6565b8154811061062f5761062f611105565b60009182526020909120015460405161065292916001600160a01b0316906112ed565b60405180910390a1505050505050565b606060008054806020026020016040519081016040528092919081815260200182805480156106ba57602002820191906000526020600020905b81546001600160a01b0316815260019091019060200180831161069c575b5050505050905090565b6000816106d9576106d683603c611317565b90505b81600114156106f1576106ee83610e10611317565b90505b816002141561070a576107078362015180611317565b90505b92915050565b6040518061028001604052806000815260200160008152602001600081526020016000815260200160008152602001600081526020016000815260200160008152602001600081526020016000815260200160008152602001600081526020016060815260200160608152602001606081526020016107a2604051806040016040528060008152602001600081525090565b8152602001606081526020016060815260200160001515815260200160006001600160a01b031681525090565b614428806200133783390190565b6001600160a01b03811681146107f257600080fd5b50565b60006020828403121561080757600080fd5b813561012e816107dd565b60005b8381101561082d578181015183820152602001610815565b8381111561083c576000848401525b50505050565b6000815180845261085a816020860160208601610812565b601f01601f19169290920160200192915050565b600082825180855260208086019550808260051b84010181860160005b848110156108b957601f198684030189526108a7838351610842565b9884019892509083019060010161088b565b5090979650505050505050565b600081518084526020808501945080840160005b8381101561090a576108f787835180518252602090810151910152565b60409690960195908201906001016108da565b509495945050505050565b600082825180855260208086019550808260051b84010181860160005b848110156108b957601f19868403018952815160608151855285820151818787015261096082870182610842565b60409384015196909301959095525098840198925090830190600101610932565b60006102a0825184526020830151602085015260408301516040850152606083015160608501526080830151608085015260a083015160a085015260c083015160c085015260e083015160e0850152610100808401518186015250610120808401518186015250610140808401518186015250610160808401518186015250610180808401518282870152610a1883870182610842565b925050506101a08084015185830382870152610a348382610842565b925050506101c08084015185830382870152610a50838261086e565b925050506101e080840151610a718287018280518252602090810151910152565b505061020083015161022085830381870152610a8d83836108c6565b92508085015191505061024085830381870152610aaa8383610915565b925080850151915050610260610ac38187018315159052565b8401516001600160a01b0381166102808701529050509392505050565b6020815260006107076020830184610981565b600060208284031215610b0557600080fd5b81356001600160401b03811115610b1b57600080fd5b8201610180818503121561012e57600080fd5b6020808252825182820181905260009190848201906040850190845b81811015610b6f5783516001600160a01b031683529284019291840191600101610b4a565b50909695505050505050565b634e487b7160e01b600052604160045260246000fd5b604051606081016001600160401b0381118282101715610bb357610bb3610b7b565b60405290565b60405161028081016001600160401b0381118282101715610bb357610bb3610b7b565b604051601f8201601f191681016001600160401b0381118282101715610c0457610c04610b7b565b604052919050565b600082601f830112610c1d57600080fd5b81516001600160401b03811115610c3657610c36610b7b565b610c49601f8201601f1916602001610bdc565b818152846020838601011115610c5e57600080fd5b610c6f826020830160208701610812565b949350505050565b60006001600160401b03821115610c9057610c90610b7b565b5060051b60200190565b600082601f830112610cab57600080fd5b81516020610cc0610cbb83610c77565b610bdc565b82815260059290921b84018101918181019086841115610cdf57600080fd5b8286015b84811015610d1e5780516001600160401b03811115610d025760008081fd5b610d108986838b0101610c0c565b845250918301918301610ce3565b509695505050505050565b600060408284031215610d3b57600080fd5b604051604081018181106001600160401b0382111715610d5d57610d5d610b7b565b604052825181526020928301519281019290925250919050565b600082601f830112610d8857600080fd5b81516020610d98610cbb83610c77565b82815260069290921b84018101918181019086841115610db757600080fd5b8286015b84811015610d1e57610dcd8882610d29565b835291830191604001610dbb565b600082601f830112610dec57600080fd5b81516020610dfc610cbb83610c77565b82815260059290921b84018101918181019086841115610e1b57600080fd5b8286015b84811015610d1e5780516001600160401b0380821115610e3f5760008081fd5b908801906060828b03601f1901811315610e595760008081fd5b610e61610b91565b87840151815260408085015184811115610e7b5760008081fd5b610e898e8b83890101610c0c565b8a84015250919093015190830152508352918301918301610e1f565b80518015158114610eb557600080fd5b919050565b8051610eb5816107dd565b600060208284031215610ed757600080fd5b81516001600160401b0380821115610eee57600080fd5b908301906102a08286031215610f0357600080fd5b610f0b610bb9565b825181526020830151602082015260408301516040820152606083015160608201526080830151608082015260a083015160a082015260c083015160c082015260e083015160e08201526101008084015181830152506101208084015181830152506101408084015181830152506101608084015181830152506101808084015183811115610f9957600080fd5b610fa588828701610c0c565b8284015250506101a08084015183811115610fbf57600080fd5b610fcb88828701610c0c565b8284015250506101c08084015183811115610fe557600080fd5b610ff188828701610c9a565b8284015250506101e061100687828601610d29565b90820152610220838101518381111561101e57600080fd5b61102a88828701610d77565b61020084015250610240808501518481111561104557600080fd5b61105189828801610ddb565b83850152506102609350611066848601610ea5565b90830152506110786102808401610eba565b91810191909152949350505050565b6000808335601e1984360301811261109e57600080fd5b8301803591506001600160401b038211156110b857600080fd5b6020019150600581901b36038213156110d057600080fd5b9250929050565b634e487b7160e01b600052601160045260246000fd5b60008219821115611100576111006110d7565b500190565b634e487b7160e01b600052603260045260246000fd5b6000808335601e1984360301811261113257600080fd5b8301803591506001600160401b0382111561114c57600080fd5b6020019150368190038213156110d057600080fd5b81835281816020850137506000828201602090810191909152601f909101601f19169091010190565b602081526000610c6f602083018486611161565b60208082528181018390526000906040600585901b8401810190840186845b8781101561122b57868403603f190183528135368a9003601e190181126111e357600080fd5b890180356001600160401b038111156111fb57600080fd5b8036038b131561120a57600080fd5b6112178682898501611161565b9550505091840191908401906001016111bd565b5091979650505050505050565b6000808335601e1984360301811261124f57600080fd5b8301803591506001600160401b0382111561126957600080fd5b6020019150600681901b36038213156110d057600080fd5b6020808252818101839052600090604080840186845b878110156108b9578135835284820135858401529183019190830190600101611297565b60006000198214156112cf576112cf6110d7565b5060010190565b6000828210156112e8576112e86110d7565b500390565b6040815260006113006040830185610981565b905060018060a01b03831660208301529392505050565b6000816000190483118215151615611331576113316110d7565b50029056fe60806040523480156200001157600080fd5b506040516200442838038062004428833981016040819052620000349162000070565b600080546001600160a01b0319166001600160a01b039790971696909617909555600493909355600791909155600855600955600a55620000d1565b60008060008060008060c087890312156200008a57600080fd5b86516001600160a01b0381168114620000a257600080fd5b6020880151604089015160608a015160808b015160a0909b0151939c929b509099909850965090945092505050565b61434780620000e16000396000f3fe608060405234801561001057600080fd5b50600436106102a05760003560e01c80638db0680611610167578063c59ee6c8116100ce578063e3bad12011610087578063e3bad1201461059c578063e6a70608146105b0578063f3e1b077146105d0578063f9f9274e146105e3578063fca43a57146105f8578063fecfdbfe1461060b57600080fd5b8063c59ee6c814610545578063c701ae201461055a578063c7bedfa014610563578063cdce88ef1461056b578063cf8741421461058b578063d6d7d0661461059457600080fd5b8063a96958af11610120578063a96958af146104ee578063a9a981a314610503578063af640d0f1461050c578063bb2bcc0614610515578063bd231bcb1461051e578063c2d2b86a1461053157600080fd5b80638db06806146104805780638eef523b1461049357806390c3f38f146104aa5780639baec8b9146104bd5780639f13f76d146104d2578063a69d1b7e146104db57600080fd5b806344ff1d681161020b57806370a5d861116101c457806370a5d861146104055780637284e4161461042857806372910be01461043057806373d1993b14610443578063893d8f4c1461044c5780638da5cb5b1461045557600080fd5b806344ff1d681461039f5780634a79d50c146103bf5780635074b7f9146103c7578063605e648b146103d05780636652e526146103e35780636db0d816146103f857600080fd5b806330e16d1f1161025d57806330e16d1f146103265780633477ee2e1461033a57806336bca2dd1461035c57806336e678391461036f578063396de55e1461038257806342169e481461039657600080fd5b80630e970d80146102a557806314e745d9146102cc57806317542dc0146102e15780631ad32fbb146102f85780631df32b9d146103005780632c35491114610313575b600080fd5b600f546102b790610100900460ff1681565b60405190151581526020015b60405180910390f35b6102df6102da366004613202565b610614565b005b6102ea600a5481565b6040519081526020016102c3565b6102ea61072d565b6102b761030e366004613332565b6107b2565b600f546102b79062010000900460ff1681565b600f546102b790600160381b900460ff1681565b61034d61034836600461339a565b61091e565b6040516102c39392919061340f565b6102df61036a366004613438565b6109dc565b6102df61037d366004613513565b610bf1565b600f546102b7906301000000900460ff1681565b6102ea60065481565b6103b26103ad36600461339a565b610fad565b6040516102c3919061358c565b6103b2611059565b6102ea600d5481565b6102df6103de36600461339a565b611066565b6103eb6110d4565b6040516102c391906136ac565b600f546102b79060ff1681565b601154601254610413919082565b604080519283526020830191909152016102c3565b6103b2611502565b6102df61043e366004613839565b61150f565b6102ea60095481565b6102ea600b5481565b600054610468906001600160a01b031681565b6040516001600160a01b0390911681526020016102c3565b6102df61048e366004613927565b61157e565b600f546102b7906601000000000000900460ff1681565b6102df6104b8366004613839565b611e8a565b6104c5611f08565b6040516102c39190613a5e565b6102ea60105481565b6102ea6104e9366004613b52565b61205b565b600f546102b790640100000000900460ff1681565b6102ea60055481565b6102ea60045481565b6102ea600c5481565b6102df61052c366004613202565b6120e1565b600f546102b790600160281b900460ff1681565b61054d612172565b6040516102c39190613b83565b6102ea600e5481565b6102df612343565b61057e61057936600461339a565b61258d565b6040516102c39190613b9a565b6102ea60085481565b61057e612710565b600f546102b790600160401b900460ff1681565b6105c36105be36600461339a565b612891565b6040516102c39190613c1b565b6102df6105de366004613c93565b612a31565b6105eb612d59565b6040516102c39190613cab565b61041361060636600461339a565b612de6565b6102ea60075481565b600f546301000000900460ff16156106735760405162461bcd60e51b815260206004820152601a60248201527f43616e6469646174657320697320616c7265616479207365742e00000000000060448201526064015b60405180910390fd5b60005b815181101561071057601560405180606001604052808381526020018484815181106106a4576106a4613d10565b60209081029190910181015182526000918101829052835460018181018655948352918190208351600390930201918255828101518051939492936106f0938501929190910190612e14565b50604082015181600201555050808061070890613d3c565b915050610676565b5050601554600555600f805463ffff000019166301010000179055565b600c5460405163aebdf69b60e01b815260009173__Utils_________________________________9163aebdf69b9161076c91601a9190600401613d57565b602060405180830381865af4158015610789573d6000803e3d6000fd5b505050506040513d601f19601f820116820180604052508101906107ad9190613ddf565b905090565b600073__Utils_________________________________6399ebf5896040518060e001604052808981526020018881526020016010548152602001878780806020026020016040519081016040528093929190818152602001838360200280828437600092018290525093855250506040805180820182526011548152601254602082810191909152808601919091528185018a90526014805483518184028101840190945280845260609096019592949093509084015b828210156108b05783829060005260206000209060020201604051806040016040529081600082015481526020016001820154815250508152602001906001019061086a565b505050508152506040518263ffffffff1660e01b81526004016108d39190613df8565b602060405180830381865af41580156108f0573d6000803e3d6000fd5b505050506040513d601f19601f820116820180604052508101906109149190613ebc565b9695505050505050565b6015818154811061092e57600080fd5b6000918252602090912060039091020180546001820180549193509061095390613ee5565b80601f016020809104026020016040519081016040528092919081815260200182805461097f90613ee5565b80156109cc5780601f106109a1576101008083540402835291602001916109cc565b820191906000526020600020905b8154815290600101906020018083116109af57829003601f168201915b5050505050908060020154905083565b600f54600160281b900460ff1615610a365760405162461bcd60e51b815260206004820152601e60248201527f4543205075626c69635f6b65797320697320616c7265616479207365742e0000604482015260640161066a565b60006010819055805b8251811015610b545760146040518060400160405280858481518110610a6757610a67613d10565b6020026020010151600001518152602001858481518110610a8a57610a8a613d10565b60209081029190910181015181015190915282546001818101855560009485529382902083516002909202019081559101519101557bffffffff00000000000000004319055258e8617b0c46353d039cdaae19838281518110610aef57610aef613d10565b602002602001015160200151848381518110610b0d57610b0d613d10565b6020026020010151600001510891507bffffffff00000000000000004319055258e8617b0c46353d039cdaae19826010540860105580610b4c81613d3c565b915050610a3f565b50601054604051634154f34b60e01b8152600481019190915273__Utils_________________________________90634154f34b906024016040805180830381865af4158015610ba8573d6000803e3d6000fd5b505050506040513d601f19601f82011682018060405250810190610bcc9190613f1a565b8051601155602001516012555050600f805465ff00000000001916600160281b179055565b4260085411158015610c04575060095442105b610c445760405162461bcd60e51b8152602060048201526011602482015270696e76616c696420766f74652074696d6560781b604482015260640161066a565b6000600382600001518360200151604051602001610c6c929190918252602082015260400190565b60408051601f1981840301815290829052610c8691613f68565b602060405180830381855afa158015610ca3573d6000803e3d6000fd5b5050604080515160601b6001600160601b0319811660009081526013602052919091205490925060ff16159050610d145760405162461bcd60e51b81526020600482015260156024820152741e5bdd48185c9948185b1c9958591e481d9bdd1959605a1b604482015260640161066a565b86518051602091820151828a01518051908401516040805195860194909452928401919091526060830152608082015260009060a0016040516020818303038152906040528051906020012060001c9050868114610db45760405162461bcd60e51b815260206004820152601c60248201527f656e6372797074656420566f746520776173206d6f6469666965642e00000000604482015260640161066a565b6000610dc388888888886107b2565b9050600181151514610e175760405162461bcd60e51b815260206004820152601f60248201527f696e76616c6964206c696e6b61626c652072696e67207369676e617475726500604482015260640161066a565b601c604051806101000160405280600b54815260200142815260200160001981526020018a81526020018981526020018888808060200260200160405190810160405280939291908181526020018383602002808284376000920182905250938552505050602080830189905260409283018e9052845460018181018755958352918190208451600c909302019182558381015194820194909455908201516002820155606082015160038201556080820151600482015560a0820151805192939192610eea9260058501920190612e98565b5060c082015180516006830155602090810151600783015560e09092015180518051600884015583015160098301558201518051600a83015590910151600b918201558054906000610f3b83613d3c565b90915550506001600160601b0319831660009081526013602052604090819020805460ff19166001179055600b5490517ffa3646576e62bd55338198a0df1081271097c419287396347b2f5b84a21d676091610f9a9190815260200190565b60405180910390a1505050505050505050565b60038181548110610fbd57600080fd5b906000526020600020016000915090508054610fd890613ee5565b80601f016020809104026020016040519081016040528092919081815260200182805461100490613ee5565b80156110515780601f1061102657610100808354040283529160200191611051565b820191906000526020600020905b81548152906001019060200180831161103457829003601f168201915b505050505081565b60018054610fd890613ee5565b600f54600160381b900460ff16156110bc5760405162461bcd60e51b815260206004820152601960248201527826b4b729b430b932b99034b99030b63932b0b23c9039b2ba1760391b604482015260640161066a565b600c55600f805460ff60381b1916600160381b179055565b6110dc612ed2565b6040518061028001604052806004548152602001600754815260200160085481526020016009548152602001600a548152602001600c54815260200160055481526020016006548152602001600b548152602001600d548152602001600e54815260200160105481526020016001805461115590613ee5565b80601f016020809104026020016040519081016040528092919081815260200182805461118190613ee5565b80156111ce5780601f106111a3576101008083540402835291602001916111ce565b820191906000526020600020905b8154815290600101906020018083116111b157829003601f168201915b50505050508152602001600280546111e590613ee5565b80601f016020809104026020016040519081016040528092919081815260200182805461121190613ee5565b801561125e5780601f106112335761010080835404028352916020019161125e565b820191906000526020600020905b81548152906001019060200180831161124157829003601f168201915b505050505081526020016003805480602002602001604051908101604052809291908181526020016000905b828210156113365783829060005260206000200180546112a990613ee5565b80601f01602080910402602001604051908101604052809291908181526020018280546112d590613ee5565b80156113225780601f106112f757610100808354040283529160200191611322565b820191906000526020600020905b81548152906001019060200180831161130557829003601f168201915b50505050508152602001906001019061128a565b50505050815260200160116040518060400160405290816000820154815260200160018201548152505081526020016014805480602002602001604051908101604052809291908181526020016000905b828210156113cd57838290600052602060002090600202016040518060400160405290816000820154815260200160018201548152505081526020019060010190611387565b5050505081526020016015805480602002602001604051908101604052809291908181526020016000905b828210156114d057838290600052602060002090600302016040518060600160405290816000820154815260200160018201805461143590613ee5565b80601f016020809104026020016040519081016040528092919081815260200182805461146190613ee5565b80156114ae5780601f10611483576101008083540402835291602001916114ae565b820191906000526020600020905b81548152906001019060200180831161149157829003601f168201915b50505050508152602001600282015481525050815260200190600101906113f8565b50505090825250600f54600160401b900460ff16151560208201526000546001600160a01b0316604090910152919050565b60028054610fd890613ee5565b600f5460ff161561155a5760405162461bcd60e51b81526020600482015260156024820152743a34ba36329034b99030b63932b0b23c9039b2ba1760591b604482015260640161066a565b805161156d906001906020840190612e14565b5050600f805460ff19166001179055565b6000806000805b600c5481101561199e578581815181106115a1576115a1613d10565b602002602001015160000151600001518682815181106115c3576115c3613d10565b602002602001015160000151602001518783815181106115e5576115e5613d10565b60200260200101516020015188848151811061160357611603613d10565b602002602001015160400151604051602001611638949392919093845260208401929092526040830152606082015260800190565b6040516020818303038152906040528051906020012060001c925085818151811061166557611665613d10565b602002602001015160600151831461168f5760405162461bcd60e51b815260040161066a90613f84565b73__Utils_________________________________6334b9cfc26040518060a001604052808985815181106116c6576116c6613d10565b6020026020010151608001516000015181526020018985815181106116ed576116ed613d10565b60200260200101516080015160200151815260200186815260200160148a868151811061171c5761171c613d10565b6020026020010151602001518154811061173857611738613d10565b906000526020600020906002020160000154815260200160148a868151811061176357611763613d10565b6020026020010151602001518154811061177f5761177f613d10565b9060005260206000209060020201600101548152506040518263ffffffff1660e01b81526004016117b09190613fb5565b602060405180830381865af41580156117cd573d6000803e3d6000fd5b505050506040513d601f19601f820116820180604052508101906117f19190613ebc565b91506001821515146118155760405162461bcd60e51b815260040161066a90613fef565b600386828151811061182957611829613d10565b60200260200101516020015187838151811061184757611847613d10565b60200260200101516040015160405160200161186d929190918252602082015260400190565b60408051601f198184030181529082905261188791613f68565b602060405180830381855afa1580156118a4573d6000803e3d6000fd5b5050604080515160601b6001600160601b0319811660009081526018602052919091205490955060ff161590506118ed5760405162461bcd60e51b815260040161066a90614020565b6001600160601b031984166000908152601860205260409020805460ff19166001179055855186908290811061192557611925613d10565b6020908102919091018101516001600160601b0319861660009081526016835260409081902082518051825584015160018201558284015160028201559082015160038201556060820151600482015560809091015180516005830155909101516006909101558061199681613d3c565b915050611585565b5060005b600654811015611e32578481815181106119be576119be613d10565b60200260200101516000015160000151600001518582815181106119e4576119e4613d10565b6020026020010151600001516000015160200151868381518110611a0a57611a0a613d10565b6020026020010151600001516020015160000151878481518110611a3057611a30613d10565b6020026020010151600001516020015160200151888581518110611a5657611a56613d10565b602002602001015160200151898681518110611a7457611a74613d10565b602002602001015160400151604051602001611ab896959493929190958652602086019490945260408501929092526060840152608083015260a082015260c00190565b6040516020818303038152906040528051906020012060001c9250848181518110611ae557611ae5613d10565b6020026020010151606001518314611b0f5760405162461bcd60e51b815260040161066a90613f84565b73__Utils_________________________________6334b9cfc26040518060a00160405280888581518110611b4657611b46613d10565b602002602001015160800151600001518152602001888581518110611b6d57611b6d613d10565b6020026020010151608001516020015181526020018681526020016014898681518110611b9c57611b9c613d10565b60200260200101516020015181548110611bb857611bb8613d10565b90600052602060002090600202016000015481526020016014898681518110611be357611be3613d10565b60200260200101516020015181548110611bff57611bff613d10565b9060005260206000209060020201600101548152506040518263ffffffff1660e01b8152600401611c309190613fb5565b602060405180830381865af4158015611c4d573d6000803e3d6000fd5b505050506040513d601f19601f82011682018060405250810190611c719190613ebc565b9150600182151514611c955760405162461bcd60e51b815260040161066a90613fef565b6003858281518110611ca957611ca9613d10565b602002602001015160200151868381518110611cc757611cc7613d10565b602002602001015160400151604051602001611ced929190918252602082015260400190565b60408051601f1981840301815290829052611d0791613f68565b602060405180830381855afa158015611d24573d6000803e3d6000fd5b5050604080515160601b6001600160601b0319811660009081526019602052919091205490955060ff16159050611d6d5760405162461bcd60e51b815260040161066a90614020565b6001600160601b031984166000908152601960205260409020805460ff191660011790558451859082908110611da557611da5613d10565b6020908102919091018101516001600160601b031986166000908152601783526040908190208251805180518355850151600183015584015180516002830155840151600382015582840151600482015590820151600582015560608201516006820155608090910151805160078301559091015160089091015580611e2a81613d3c565b9150506119a2565b50600d8054906000611e4383613d3c565b91905055507f6a2c41ee80fc36b9b44f5e1f5d932b5988f82c4a2dfaa8f1271f8dc8dfa38657600d54604051611e7b91815260200190565b60405180910390a15050505050565b600f54610100900460ff1615611ee25760405162461bcd60e51b815260206004820152601b60248201527f4465736372697074696f6e20697320616c7265616479207365742e0000000000604482015260640161066a565b8051611ef5906002906020840190612e14565b5050600f805461ff001916610100179055565b6060601c805480602002602001604051908101604052809291908181526020016000905b8282101561205257838290600052602060002090600c020160405180610100016040529081600082015481526020016001820154815260200160028201548152602001600382015481526020016004820154815260200160058201805480602002602001604051908101604052809291908181526020018280548015611fd157602002820191906000526020600020905b815481526020019060010190808311611fbd575b5050509183525050604080518082018252600684015481526007840154602082810191909152808401919091528151608081018352600885015481840190815260098601546060830152815282518084018452600a8601548152600b9095015485830152808201949094529101919091529082526001929092019101611f2c565b50505050905090565b604051631a86f40760e01b815260009073__Utils_________________________________90631a86f407906120979086908690600401614055565b602060405180830381865af41580156120b4573d6000803e3d6000fd5b505050506040513d601f19601f820116820180604052508101906120d89190613ddf565b90505b92915050565b600f54640100000000900460ff161561213c5760405162461bcd60e51b815260206004820152601b60248201527f5075626c69635f6b65797320697320616c7265616479207365742e0000000000604482015260640161066a565b805161214f906003906020840190612f7c565b5050600354600655600f805466ff00ff0000000019166601000100000000179055565b61217a612fd5565b612182612fd5565b6000806006546001600160401b0381111561219f5761219f6130e0565b6040519080825280602002602001820160405280156121d857816020015b6121c5612fd5565b8152602001906001900390816121bd5790505b50905060005b6006548110156122c3576003816000604051602001612207929190918252602082015260400190565b60408051601f198184030181529082905261222191613f68565b602060405180830381855afa15801561223e573d6000803e3d6000fd5b5050506040515160601b925060166000846001600160601b0319166001600160601b0319168152602001908152602001600020600001604051806040016040529081600082015481526020016001820154815250508282815181106122a5576122a5613d10565b602002602001018190525080806122bb90613d3c565b9150506121de565b5060405163293fd09d60e21b815273__Utils_________________________________9063a4ff4274906122fb90849060040161408e565b6040805180830381865af4158015612317573d6000803e3d6000fd5b505050506040513d601f19601f8201168201806040525081019061233b9190613f1a565b949350505050565b600f54600160401b900460ff16156123985760405162461bcd60e51b81526020600482015260186024820152771d1a19481d9bdd1948185b1c9958591e481d185b1b1a595960421b604482015260640161066a565b600c5460405163aebdf69b60e01b815260009173__Utils_________________________________9163aebdf69b916123d791601a9190600401613d57565b602060405180830381865af41580156123f4573d6000803e3d6000fd5b505050506040513d601f19601f820116820180604052508101906124189190613ddf565b90506000805b601c548110156125395773__Utils_________________________________631a86f407601c838154811061245557612455613d10565b90600052602060002090600c0201600801856040518363ffffffff1660e01b81526004016124849291906140a1565b602060405180830381865af41580156124a1573d6000803e3d6000fd5b505050506040513d601f19601f820116820180604052508101906124c59190613ddf565b915081601c82815481106124db576124db613d10565b90600052602060002090600c0201600201819055506015828154811061250357612503613d10565b60009182526020822060026003909202010180549161252183613d3c565b9190505550808061253190613d3c565b91505061241e565b50600f805460ff60401b1916600160401b1790556040517f3dc1fe22a60d9a898cc1d0a0e0f063f5e855e5a2938f3059cb822bf4e2b0e6859061258190601590601c906141d9565b60405180910390a15050565b60606000806006546001600160401b038111156125ac576125ac6130e0565b6040519080825280602002602001820160405280156125e557816020015b6125d2612fef565b8152602001906001900390816125ca5790505b50905060005b600654811015612708576003816126038760016142f9565b60408051602081019390935282015260600160408051601f198184030181529082905261262f91613f68565b602060405180830381855afa15801561264c573d6000803e3d6000fd5b5050604080518051606090811b6001600160601b031981166000908152601660209081529085902060e085018652805460a08601908152600182015460c08701528552600281015482860152600381015485870152600481015493850193909352845180860190955260058301548552600690920154918401919091526080820192909252845191955091508390839081106126ea576126ea613d10565b6020026020010181905250808061270090613d3c565b9150506125eb565b509392505050565b60606000806006546001600160401b0381111561272f5761272f6130e0565b60405190808252806020026020018201604052801561276857816020015b612755612fef565b81526020019060019003908161274d5790505b50905060005b60065481101561288a576003816000604051602001612797929190918252602082015260400190565b60408051601f19818403018152908290526127b191613f68565b602060405180830381855afa1580156127ce573d6000803e3d6000fd5b5050604080518051606090811b6001600160601b031981166000908152601660209081529085902060e085018652805460a08601908152600182015460c087015285526002810154828601526003810154858701526004810154938501939093528451808601909552600583015485526006909201549184019190915260808201929092528451919550915083908390811061286c5761286c613d10565b6020026020010181905250808061288290613d3c565b91505061276e565b5092915050565b60606000806006546001600160401b038111156128b0576128b06130e0565b6040519080825280602002602001820160405280156128e957816020015b6128d661303e565b8152602001906001900390816128ce5790505b50905060005b600654811015612708576003816129078760016142f9565b60408051602081019390935282015260600160408051601f198184030181529082905261293391613f68565b602060405180830381855afa158015612950573d6000803e3d6000fd5b5050604080518051606090811b6001600160601b031981166000908152601760209081529085902061012085018652805460e08601908152600182015461010087015260a08601908152865180880188526002830154815260038301548185015260c0870152855260048101548286015260058101548587015260068101549385019390935284518086019095526007830154855260089092015491840191909152608082019290925284519195509150839083908110612a1357612a13613d10565b60200260200101819052508080612a2990613d3c565b9150506128ef565b600081602001358260400135604051602001612a57929190918252602082015260400190565b60408051601f198184030181529190528051602090910120905081358114612acb5760405162461bcd60e51b815260206004820152602160248201527f74686520737562536563726574206f7220692077617374206d6f6469666965646044820152601760f91b606482015260840161066a565b6040808301356000908152601b602052205460ff1615612b2d5760405162461bcd60e51b815260206004820152601c60248201527f596f757220737562536563726574207761732075706c6f616465642e00000000604482015260640161066a565b600073__Utils_________________________________6334b9cfc26040518060a0016040528086606001600001358152602001866060016020013581526020018581526020016014876040013581548110612b8b57612b8b613d10565b90600052602060002090600202016000015481526020016014876040013581548110612bb957612bb9613d10565b9060005260206000209060020201600101548152506040518263ffffffff1660e01b8152600401612bea9190613fb5565b602060405180830381865af4158015612c07573d6000803e3d6000fd5b505050506040513d601f19601f82011682018060405250810190612c2b9190613ebc565b9050600181151514612c7a5760405162461bcd60e51b8152602060048201526018602482015277496e76616c756964204543445341205369676e617475726560401b604482015260640161066a565b601a805460018101825560009190915283906005027f057c384a7d1c54f3a1b2e5e67b2617b8224fdfd1ea7234eea573a6ff665ff63e01612ce6828281358155602082013560018201556040820135600282015560608201356003820155608082013560048201555050565b50506040808401356000908152601b602052908120805460ff19166001179055600e805491612d1483613d3c565b91905055507ffda7fe2aa1855f36efd0640a3ec3265e181c44b600c34ad29c800d765f93571d600e54604051612d4c91815260200190565b60405180910390a1505050565b6060601a805480602002602001604051908101604052809291908181526020016000905b82821015612052576000848152602090819020604080516080810182526005860290920180548352600180820154848601526002820154848401528251808401909352600382015483526004909101548285015260608301919091529083529092019101612d7d565b60148181548110612df657600080fd5b60009182526020909120600290910201805460019091015490915082565b828054612e2090613ee5565b90600052602060002090601f016020900481019282612e425760008555612e88565b82601f10612e5b57805160ff1916838001178555612e88565b82800160010185558215612e88579182015b82811115612e88578251825591602001919060010190612e6d565b50612e94929150613051565b5090565b828054828255906000526020600020908101928215612e885791602002820182811115612e88578251825591602001919060010190612e6d565b604051806102800160405280600081526020016000815260200160008152602001600081526020016000815260200160008152602001600081526020016000815260200160008152602001600081526020016000815260200160008152602001606081526020016060815260200160608152602001612f4f612fd5565b8152602001606081526020016060815260200160001515815260200160006001600160a01b031681525090565b828054828255906000526020600020908101928215612fc9579160200282015b82811115612fc95782518051612fb9918491602090910190612e14565b5091602001919060010190612f9c565b50612e94929150613066565b604051806040016040528060008152602001600081525090565b6040518060a00160405280613002612fd5565b8152602001600081526020016000815260200160008152602001613039604051806040016040528060008152602001600081525090565b905290565b6040518060a00160405280613002613083565b5b80821115612e945760008155600101613052565b80821115612e9457600061307a82826130a3565b50600101613066565b6040518060400160405280613096612fd5565b8152602001613039612fd5565b5080546130af90613ee5565b6000825580601f106130bf575050565b601f0160209004906000526020600020908101906130dd9190613051565b50565b634e487b7160e01b600052604160045260246000fd5b604080519081016001600160401b0381118282101715613118576131186130e0565b60405290565b60405160a081016001600160401b0381118282101715613118576131186130e0565b604051601f8201601f191681016001600160401b0381118282101715613168576131686130e0565b604052919050565b60006001600160401b03821115613189576131896130e0565b5060051b60200190565b600082601f8301126131a457600080fd5b81356001600160401b038111156131bd576131bd6130e0565b6131d0601f8201601f1916602001613140565b8181528460208386010111156131e557600080fd5b816020850160208301376000918101602001919091529392505050565b6000602080838503121561321557600080fd5b82356001600160401b038082111561322c57600080fd5b818501915085601f83011261324057600080fd5b813561325361324e82613170565b613140565b81815260059190911b8301840190848101908883111561327257600080fd5b8585015b838110156132aa5780358581111561328e5760008081fd5b61329c8b89838a0101613193565b845250918601918601613276565b5098975050505050505050565b60008083601f8401126132c957600080fd5b5081356001600160401b038111156132e057600080fd5b6020830191508360208260051b85010111156132fb57600080fd5b9250929050565b60006040828403121561331457600080fd5b61331c6130f6565b9050813581526020820135602082015292915050565b600080600080600060a0868803121561334a57600080fd5b853594506020860135935060408601356001600160401b0381111561336e57600080fd5b61337a888289016132b7565b909450925061338e90508760608801613302565b90509295509295909350565b6000602082840312156133ac57600080fd5b5035919050565b60005b838110156133ce5781810151838201526020016133b6565b838111156133dd576000848401525b50505050565b600081518084526133fb8160208601602086016133b3565b601f01601f19169290920160200192915050565b83815260606020820152600061342860608301856133e3565b9050826040830152949350505050565b6000602080838503121561344b57600080fd5b82356001600160401b0381111561346157600080fd5b8301601f8101851361347257600080fd5b803561348061324e82613170565b81815260069190911b8201830190838101908783111561349f57600080fd5b928401925b828410156134c8576134b68885613302565b825284820191506040840193506134a4565b979650505050505050565b6000608082840312156134e557600080fd5b6134ed6130f6565b90506134f98383613302565b81526135088360408401613302565b602082015292915050565b600080600080600080610120878903121561352d57600080fd5b61353788886134d3565b95506080870135945060a0870135935060c08701356001600160401b0381111561356057600080fd5b61356c89828a016132b7565b909450925061358090508860e08901613302565b90509295509295509295565b6020815260006120d860208301846133e3565b600081518084526020808501808196508360051b8101915082860160005b858110156135e75782840389526135d58483516133e3565b988501989350908401906001016135bd565b5091979650505050505050565b600081518084526020808501945080840160005b838110156136385761362587835180518252602090810151910152565b6040969096019590820190600101613608565b509495945050505050565b600081518084526020808501808196508360051b8101915082860160005b858110156135e7578284038952815160608151865286820151818888015261368b828801826133e3565b60409384015197909301969096525098850198935090840190600101613661565b6020815281516020820152602082015160408201526040820151606082015260608201516080820152608082015160a082015260a082015160c082015260c082015160e0820152600060e08301516101008181850152808501519150506101208181850152808501519150506101408181850152808501519150506101608181850152808501519150506101808181850152808501519150506102a06101a0818186015261375e6102c08601846133e3565b9250808601519050601f196101c081878603018188015261377f85846133e3565b9450808801519250506101e081878603018188015261379e858461359f565b9450808801519250506102006137c08188018480518252602090810151910152565b808801519250506102408187860301818801526137dd85846135f4565b945061022088015192506102608288870301818901526137fd8685613643565b955081890151935061381461028089018515159052565b8801516001600160a01b03811685890152925061382f915050565b5090949350505050565b60006020828403121561384b57600080fd5b81356001600160401b0381111561386157600080fd5b61233b84828501613193565b600082601f83011261387e57600080fd5b8135602061388e61324e83613170565b82815261012092830285018201928282019190878511156138ae57600080fd5b8387015b8581101561391a5781818a0312156138ca5760008081fd5b6138d261311e565b6138dc8a836134d3565b81526080808301358783015260a0830135604083015260c083013560608301526139098b60e08501613302565b9082015284529284019281016138b2565b5090979650505050505050565b600080604080848603121561393b57600080fd5b83356001600160401b038082111561395257600080fd5b818601915086601f83011261396657600080fd5b8135602061397661324e83613170565b82815260e0928302850182019282820191908b85111561399557600080fd5b958301955b84871015613a035780878d0312156139b25760008081fd5b6139ba61311e565b6139c48d89613302565b815288880135858201526060808901358a8301526080808a0135828401526139ef8f60a08c01613302565b90830152508352958601959183019161399a565b5097505087013593505080831115613a1a57600080fd5b5050613a288582860161386d565b9150509250929050565b613a4782825180518252602090810151910152565b602090810151805160408401520151606090910152565b60006020808301818452808551808352604092508286019150828160051b8701018488016000805b84811015613b4357898403603f1901865282518051855288810151898601528781015188860152606080820151908601526080808201519086015260a08082015161018091870182905280519187018290526101a0870191908b0190855b81811015613b005782518452928c0192918c0191600101613ae4565b50505060c082810151805188830152602081015160e0890152505060e08201519150613b30610100870183613a32565b9689019694505091870191600101613a86565b50919998505050505050505050565b60008082840360a0811215613b6657600080fd5b6080811215613b7457600080fd5b50919360808501359350915050565b8151815260208083015190820152604081016120db565b602080825282518282018190526000919060409081850190868401855b828110156135e7578151613bd685825180518252602090810151910152565b8087015185870152858101516060808701919091528101516080808701919091520151805160a08601526020015160c085015260e09093019290850190600101613bb7565b602080825282518282018190526000919060409081850190868401855b828110156135e7578151613c4d858251613a32565b808701516080868101919091528682015160a0870152606082015160c08701520151805160e0860152602001516101008501526101209093019290850190600101613c38565b600060a08284031215613ca557600080fd5b50919050565b602080825282518282018190526000919060409081850190868401855b828110156135e7578151805185528681015187860152858101518686015260609081015180519186019190915260200151608085015260a09093019290850190600101613cc8565b634e487b7160e01b600052603260045260246000fd5b634e487b7160e01b600052601160045260246000fd5b6000600019821415613d5057613d50613d26565b5060010190565b600060408083018184528086548083526060925082860191508760005260208060002060005b83811015613dcb5781548552600182015483860152600282015487860152613db5868601600384018054825260010154602090910152565b60a0949094019360059190910190600101613d7d565b505095909501959095525092949350505050565b600060208284031215613df157600080fd5b5051919050565b600060208083526101408301845182850152818501516040850152604085015160608501526060850151610120806080870152828251808552610160880191508584019450600093505b80841015613e625784518252938501936001939093019290850190613e42565b506080880151805160a0890152602081015160c0890152945060a0880151805160e08901526020810151610100890152945060c0880151878203601f1901838901529450613eb081866135f4565b98975050505050505050565b600060208284031215613ece57600080fd5b81518015158114613ede57600080fd5b9392505050565b600181811c90821680613ef957607f821691505b60208210811415613ca557634e487b7160e01b600052602260045260246000fd5b600060408284031215613f2c57600080fd5b604051604081018181106001600160401b0382111715613f4e57613f4e6130e0565b604052825181526020928301519281019290925250919050565b60008251613f7a8184602087016133b3565b9190910192915050565b6020808252601790820152761d1a19481d985b1d595cc81dd85cc81b5bd91a599a5959604a1b604082015260600190565b600060a082019050825182526020830151602083015260408301516040830152606083015160608301526080830151608083015292915050565b602080825260179082015276496e76616c6964204543445341205369676e617475726560481b604082015260600190565b6020808252818101527f596f7520616c72656164792075706c6f6164656420796f75722076616c756573604082015260600190565b823581526020808401359082015260a08101614081604083016040860180358252602090810135910152565b8260808301529392505050565b6020815260006120d860208301846135f4565b825481526001830154602082015260a081016002840154604083015260038401546060830152614081565b6000815480845260208085019450836000528060002060005b83811015613638578154875295820195600191820191016140e5565b600081548084526020808501808196506005915083821b8101866000528360002060005b868110156141cb578383038a52610180825484526001830154878501526002830154604085015260038301546060850152600483015460808501528060a08501526141748185018785016140cc565b600684015460c0860152600784015460e086015260088401546101008601526009840154610120860152600a840154610140860152600b8401546101608601529050998601999250600c9190910190600101614125565b509098975050505050505050565b60006040808301818452808654808352606092508286019150828160051b87010160008981526020808220825b858110156142d8578a8503605f190187528154855282850188905260018083018054869080841c8185168061423c57607f821691505b88821081141561425a57634e487b7160e01b8a52602260045260248afd5b8a8e018281526020018180156142775760018114614288576142b2565b60ff19851682528a820195506142b2565b6000878152602090208c5b858110156142ac57815484820152908901908c01614293565b83019650505b505050506002860154988d01989098529885019896505060039092019150600101614206565b505088830390890152506142ec8189614101565b9998505050505050505050565b6000821982111561430c5761430c613d26565b50019056fea2646970667358221220ac8fa67fe0a9c978a8b4c7711b5a6b07e215422134a77ef32a77d73cc029932264736f6c634300080a0033a26469706673582212206e009a6e1fa4b5912cd8d6249e5fb80974364b10136024fd35ea8c5e82b7f25d64736f6c634300080a0033",
  "immutableReferences": {},
  "source": "// SPDX-License-Identifier: MIT\r\npragma solidity >=0.4.22 <0.9.0;\r\n\r\nimport './Utils.sol';\r\nimport \"./Election.sol\";\r\n\r\ncontract VotingApp{\r\n    // Store Elections \r\n    Election[] private electionAddresses;\r\n\r\n    // Store election count;\r\n    uint public electionCount;\r\n    \r\n    // new Election Event\r\n    event newElectionEvent(Election.ElectionData eData, Election eAddress); \r\n\r\n    // Model a election init data require data sent by onwer\r\n    struct ElectionInit{\r\n        string title;\r\n        string description;\r\n        string[] public_keys;\r\n        Utils.ECPoint[] EC_public_keys;\r\n        string[] candidates;\r\n        uint key_gen_time;\r\n        uint vote_time;\r\n        uint secret_upload_time;\r\n        uint key_gen_time_unit;\r\n        uint vote_time_unit;\r\n        uint secret_upload_time_unit;\r\n        uint min_shares;\r\n    }\r\n\r\n    function calc_time(uint _time, uint _time_unit) private pure returns(uint t){\r\n        if(_time_unit == 0){\r\n            t = _time * 1 minutes;\r\n        }\r\n        if(_time_unit == 1){\r\n            t = _time * 1 hours;\r\n        }\r\n        if(_time_unit == 2){\r\n            t = _time * 1 days;\r\n        }\r\n        return t;\r\n    }\r\n\r\n    function addElection(ElectionInit calldata _data) external{\r\n        \r\n        // require minimum number of candidates , voters and min_shares are 2\r\n        require(_data.candidates.length > 1 && \r\n                _data.public_keys.length > 1 &&\r\n                _data.min_shares > 1\r\n        ,\"require minimum number of candidates and voters are 2\");\r\n\r\n        uint _post_time = block.timestamp;\r\n        uint _key_gen_end_time = _post_time + calc_time(_data.key_gen_time,_data.key_gen_time_unit); \r\n        uint _vote_end_time = _key_gen_end_time + calc_time(_data.vote_time,_data.vote_time_unit); \r\n        uint _secret_upload_end_time = _vote_end_time + calc_time(_data.secret_upload_time,_data.secret_upload_time_unit); \r\n        \r\n        electionAddresses.push(new Election(msg.sender,electionCount,\r\n        _post_time,_key_gen_end_time,_vote_end_time,_secret_upload_end_time));\r\n\r\n        Election e = Election(electionAddresses[electionCount]);\r\n        e.setTitle(_data.title);\r\n        e.setDescription(_data.description);\r\n        e.setPublicKeys(_data.public_keys);\r\n        e.setECpublickeys(_data.EC_public_keys);\r\n        e.setCandidates(_data.candidates);\r\n        e.setMinShares(_data.min_shares);\r\n\r\n        electionCount++;\r\n\r\n        emit newElectionEvent(e.getElectionData(),electionAddresses[electionCount-1]);\r\n        \r\n    }\r\n\r\n    function getElectionAddresses() external view returns (Election[] memory){\r\n        return electionAddresses;\r\n    }\r\n\r\n    function getElectionData(address electionAddress) external view returns (Election.ElectionData memory){\r\n        Election e = Election(electionAddress);\r\n        return e.getElectionData();\r\n    }\r\n\r\n}",
  "sourcePath": "C:\\Users\\tim\\Desktop\\e-voting\\src\\contracts\\VotingApp.sol",
  "compiler": {
    "name": "solc",
    "version": "0.8.10+commit.fc410830.Emscripten.clang"
  },
  "schemaVersion": "3.4.4",
  "updatedAt": "2022-01-28T08:11:02.285Z",
  "networkType": "ethereum",
  "devdoc": {
    "kind": "dev",
    "methods": {},
    "version": 1
  },
  "userdoc": {
    "kind": "user",
    "methods": {},
    "version": 1
  }
}