{
  "contractName": "VotingApp",
  "abi": [
    {
      "anonymous": false,
      "inputs": [
        {
          "components": [
            {
              "internalType": "uint256",
              "name": "id",
              "type": "uint256"
            },
            {
              "internalType": "address",
              "name": "owner",
              "type": "address"
            },
            {
              "internalType": "string",
              "name": "title",
              "type": "string"
            },
            {
              "internalType": "string",
              "name": "description",
              "type": "string"
            },
            {
              "internalType": "string[]",
              "name": "public_keys",
              "type": "string[]"
            },
            {
              "internalType": "uint256",
              "name": "candidateCount",
              "type": "uint256"
            },
            {
              "internalType": "uint256",
              "name": "voterCount",
              "type": "uint256"
            },
            {
              "components": [
                {
                  "internalType": "uint256",
                  "name": "id",
                  "type": "uint256"
                },
                {
                  "internalType": "string",
                  "name": "name",
                  "type": "string"
                },
                {
                  "internalType": "uint256",
                  "name": "voteCount",
                  "type": "uint256"
                }
              ],
              "internalType": "struct Election.Candidate[]",
              "name": "candidates",
              "type": "tuple[]"
            },
            {
              "internalType": "uint256",
              "name": "post_time",
              "type": "uint256"
            },
            {
              "internalType": "uint256",
              "name": "key_gen_end_time",
              "type": "uint256"
            },
            {
              "internalType": "uint256",
              "name": "vote_end_time",
              "type": "uint256"
            },
            {
              "internalType": "uint256",
              "name": "secret_upload_end_time",
              "type": "uint256"
            },
            {
              "internalType": "uint256",
              "name": "min_shares",
              "type": "uint256"
            },
            {
              "internalType": "bool",
              "name": "isTallyed",
              "type": "bool"
            }
          ],
          "indexed": false,
          "internalType": "struct Election.ElectionData",
          "name": "eData",
          "type": "tuple"
        }
      ],
      "name": "addElectionEvent",
      "type": "event"
    },
    {
      "inputs": [],
      "name": "electionCount",
      "outputs": [
        {
          "internalType": "uint256",
          "name": "",
          "type": "uint256"
        }
      ],
      "stateMutability": "view",
      "type": "function",
      "constant": true
    },
    {
      "inputs": [
        {
          "components": [
            {
              "internalType": "string",
              "name": "title",
              "type": "string"
            },
            {
              "internalType": "string",
              "name": "description",
              "type": "string"
            },
            {
              "internalType": "string[]",
              "name": "public_keys",
              "type": "string[]"
            },
            {
              "internalType": "string[]",
              "name": "candidates",
              "type": "string[]"
            },
            {
              "internalType": "uint256",
              "name": "key_gen_time",
              "type": "uint256"
            },
            {
              "internalType": "uint256",
              "name": "vote_time",
              "type": "uint256"
            },
            {
              "internalType": "uint256",
              "name": "secret_upload_time",
              "type": "uint256"
            },
            {
              "internalType": "uint256",
              "name": "key_gen_time_unit",
              "type": "uint256"
            },
            {
              "internalType": "uint256",
              "name": "vote_time_unit",
              "type": "uint256"
            },
            {
              "internalType": "uint256",
              "name": "secret_upload_time_unit",
              "type": "uint256"
            },
            {
              "internalType": "uint256",
              "name": "min_shares",
              "type": "uint256"
            }
          ],
          "internalType": "struct VotingApp.ElectionInit",
          "name": "_data",
          "type": "tuple"
        }
      ],
      "name": "addElection",
      "outputs": [],
      "stateMutability": "nonpayable",
      "type": "function"
    },
    {
      "inputs": [],
      "name": "getElectionAddresses",
      "outputs": [
        {
          "internalType": "contract Election[]",
          "name": "",
          "type": "address[]"
        }
      ],
      "stateMutability": "view",
      "type": "function",
      "constant": true
    },
    {
      "inputs": [
        {
          "internalType": "address",
          "name": "electionAddress",
          "type": "address"
        },
        {
          "internalType": "uint256",
          "name": "candidateID",
          "type": "uint256"
        }
      ],
      "name": "vote",
      "outputs": [],
      "stateMutability": "nonpayable",
      "type": "function"
    },
    {
      "inputs": [
        {
          "internalType": "address",
          "name": "electionAddress",
          "type": "address"
        }
      ],
      "name": "getElectionData",
      "outputs": [
        {
          "components": [
            {
              "internalType": "uint256",
              "name": "id",
              "type": "uint256"
            },
            {
              "internalType": "address",
              "name": "owner",
              "type": "address"
            },
            {
              "internalType": "string",
              "name": "title",
              "type": "string"
            },
            {
              "internalType": "string",
              "name": "description",
              "type": "string"
            },
            {
              "internalType": "string[]",
              "name": "public_keys",
              "type": "string[]"
            },
            {
              "internalType": "uint256",
              "name": "candidateCount",
              "type": "uint256"
            },
            {
              "internalType": "uint256",
              "name": "voterCount",
              "type": "uint256"
            },
            {
              "components": [
                {
                  "internalType": "uint256",
                  "name": "id",
                  "type": "uint256"
                },
                {
                  "internalType": "string",
                  "name": "name",
                  "type": "string"
                },
                {
                  "internalType": "uint256",
                  "name": "voteCount",
                  "type": "uint256"
                }
              ],
              "internalType": "struct Election.Candidate[]",
              "name": "candidates",
              "type": "tuple[]"
            },
            {
              "internalType": "uint256",
              "name": "post_time",
              "type": "uint256"
            },
            {
              "internalType": "uint256",
              "name": "key_gen_end_time",
              "type": "uint256"
            },
            {
              "internalType": "uint256",
              "name": "vote_end_time",
              "type": "uint256"
            },
            {
              "internalType": "uint256",
              "name": "secret_upload_end_time",
              "type": "uint256"
            },
            {
              "internalType": "uint256",
              "name": "min_shares",
              "type": "uint256"
            },
            {
              "internalType": "bool",
              "name": "isTallyed",
              "type": "bool"
            }
          ],
          "internalType": "struct Election.ElectionData",
          "name": "",
          "type": "tuple"
        }
      ],
      "stateMutability": "view",
      "type": "function",
      "constant": true
    }
  ],
  "bytecode": "0x608060405234801561001057600080fd5b50613e36806100206000396000f3fe60806040523480156200001157600080fd5b50600436106200005e5760003560e01c8063170e5ccf14620000635780635f74bbde1462000099578063997d283014620000b9578063fe907a0514620000db578063ff64374814620000fb575b600080fd5b6200008160048036038101906200007b9190620008f8565b6200011d565b60405162000090919062000d6c565b60405180910390f35b620000b76004803603810190620000b1919062000dc1565b620001ab565b005b620000c362000224565b604051620000d2919062000e19565b60405180910390f35b620000f96004803603810190620000f3919062001230565b6200022a565b005b62000105620006fc565b604051620001149190620013a9565b60405180910390f35b62000127620007ea565b60008290508073ffffffffffffffffffffffffffffffffffffffff16636652e5266040518163ffffffff1660e01b8152600401600060405180830381865afa15801562000178573d6000803e3d6000fd5b505050506040513d6000823e3d601f19601f82011682018060405250810190620001a39190620018e2565b915050919050565b60008290508073ffffffffffffffffffffffffffffffffffffffff16630383badc836040518263ffffffff1660e01b8152600401620001eb919062000e19565b600060405180830381600087803b1580156200020657600080fd5b505af11580156200021b573d6000803e3d6000fd5b50505050505050565b60015481565b60018160600151511180156200024557506001816040015151115b62000287576040517f08c379a00000000000000000000000000000000000000000000000000000000081526004016200027e90620019ba565b60405180910390fd5b60004290506000620002a283608001518460e001516200078c565b82620002af919062001a0b565b90506000620002c88460a001518561010001516200078c565b82620002d5919062001a0b565b90506000620002ee8560c001518661012001516200078c565b82620002fb919062001a0b565b905060003360015486868686604051620003159062000871565b620003269695949392919062001a79565b604051809103906000f08015801562000343573d6000803e3d6000fd5b509080600181540180825580915050600190039060005260206000200160009091909190916101000a81548173ffffffffffffffffffffffffffffffffffffffff021916908373ffffffffffffffffffffffffffffffffffffffff16021790555060008060015481548110620003be57620003bd62001ae6565b5b9060005260206000200160009054906101000a900473ffffffffffffffffffffffffffffffffffffffff1690508073ffffffffffffffffffffffffffffffffffffffff166372910be087600001516040518263ffffffff1660e01b81526004016200042a919062001b56565b600060405180830381600087803b1580156200044557600080fd5b505af11580156200045a573d6000803e3d6000fd5b505050508073ffffffffffffffffffffffffffffffffffffffff166390c3f38f87602001516040518263ffffffff1660e01b81526004016200049d919062001b56565b600060405180830381600087803b158015620004b857600080fd5b505af1158015620004cd573d6000803e3d6000fd5b505050508073ffffffffffffffffffffffffffffffffffffffff1663bd231bcb87604001516040518263ffffffff1660e01b815260040162000510919062001c0c565b600060405180830381600087803b1580156200052b57600080fd5b505af115801562000540573d6000803e3d6000fd5b505050508073ffffffffffffffffffffffffffffffffffffffff166314e745d987606001516040518263ffffffff1660e01b815260040162000583919062001c0c565b600060405180830381600087803b1580156200059e57600080fd5b505af1158015620005b3573d6000803e3d6000fd5b505050508073ffffffffffffffffffffffffffffffffffffffff1663605e648b8761014001516040518263ffffffff1660e01b8152600401620005f7919062000e19565b600060405180830381600087803b1580156200061257600080fd5b505af115801562000627573d6000803e3d6000fd5b5050505060016000815480929190620006409062001c30565b91905055507f2a8db32f6a87c643df2c71e8ad51dbb5a130e829937014a0c3986fd43bc96f088173ffffffffffffffffffffffffffffffffffffffff16636652e5266040518163ffffffff1660e01b8152600401600060405180830381865afa158015620006b2573d6000803e3d6000fd5b505050506040513d6000823e3d601f19601f82011682018060405250810190620006dd9190620018e2565b604051620006ec919062000d6c565b60405180910390a1505050505050565b606060008054806020026020016040519081016040528092919081815260200182805480156200078257602002820191906000526020600020905b8160009054906101000a900473ffffffffffffffffffffffffffffffffffffffff1673ffffffffffffffffffffffffffffffffffffffff168152602001906001019080831162000737575b5050505050905090565b600080821415620007a957603c83620007a6919062001c7e565b90505b6001821415620007c657610e1083620007c3919062001c7e565b90505b6002821415620007e4576201518083620007e1919062001c7e565b90505b92915050565b604051806101c0016040528060008152602001600073ffffffffffffffffffffffffffffffffffffffff16815260200160608152602001606081526020016060815260200160008152602001600081526020016060815260200160008152602001600081526020016000815260200160008152602001600081526020016000151581525090565b6121218062001ce083390190565b6000604051905090565b600080fd5b600080fd5b600073ffffffffffffffffffffffffffffffffffffffff82169050919050565b6000620008c08262000893565b9050919050565b620008d281620008b3565b8114620008de57600080fd5b50565b600081359050620008f281620008c7565b92915050565b60006020828403121562000911576200091062000889565b5b60006200092184828501620008e1565b91505092915050565b6000819050919050565b6200093f816200092a565b82525050565b6200095081620008b3565b82525050565b600081519050919050565b600082825260208201905092915050565b60005b838110156200099257808201518184015260208101905062000975565b83811115620009a2576000848401525b50505050565b6000601f19601f8301169050919050565b6000620009c68262000956565b620009d2818562000961565b9350620009e481856020860162000972565b620009ef81620009a8565b840191505092915050565b600081519050919050565b600082825260208201905092915050565b6000819050602082019050919050565b600062000a348383620009b9565b905092915050565b6000602082019050919050565b600062000a5682620009fa565b62000a62818562000a05565b93508360208202850162000a768562000a16565b8060005b8581101562000ab8578484038952815162000a96858262000a26565b945062000aa38362000a3c565b925060208a0199505060018101905062000a7a565b50829750879550505050505092915050565b600081519050919050565b600082825260208201905092915050565b6000819050602082019050919050565b600060608301600083015162000b10600086018262000934565b506020830151848203602086015262000b2a8282620009b9565b915050604083015162000b41604086018262000934565b508091505092915050565b600062000b5a838362000af6565b905092915050565b6000602082019050919050565b600062000b7c8262000aca565b62000b88818562000ad5565b93508360208202850162000b9c8562000ae6565b8060005b8581101562000bde578484038952815162000bbc858262000b4c565b945062000bc98362000b62565b925060208a0199505060018101905062000ba0565b50829750879550505050505092915050565b60008115159050919050565b62000c078162000bf0565b82525050565b60006101c08301600083015162000c28600086018262000934565b50602083015162000c3d602086018262000945565b506040830151848203604086015262000c578282620009b9565b9150506060830151848203606086015262000c738282620009b9565b9150506080830151848203608086015262000c8f828262000a49565b91505060a083015162000ca660a086018262000934565b5060c083015162000cbb60c086018262000934565b5060e083015184820360e086015262000cd5828262000b6f565b91505061010083015162000cee61010086018262000934565b5061012083015162000d0561012086018262000934565b5061014083015162000d1c61014086018262000934565b5061016083015162000d3361016086018262000934565b5061018083015162000d4a61018086018262000934565b506101a083015162000d616101a086018262000bfc565b508091505092915050565b6000602082019050818103600083015262000d88818462000c0d565b905092915050565b62000d9b816200092a565b811462000da757600080fd5b50565b60008135905062000dbb8162000d90565b92915050565b6000806040838503121562000ddb5762000dda62000889565b5b600062000deb85828601620008e1565b925050602062000dfe8582860162000daa565b9150509250929050565b62000e13816200092a565b82525050565b600060208201905062000e30600083018462000e08565b92915050565b600080fd5b7f4e487b7100000000000000000000000000000000000000000000000000000000600052604160045260246000fd5b62000e7582620009a8565b810181811067ffffffffffffffff8211171562000e975762000e9662000e3b565b5b80604052505050565b600062000eac6200087f565b905062000eba828262000e6a565b919050565b600080fd5b600080fd5b600080fd5b600067ffffffffffffffff82111562000eec5762000eeb62000e3b565b5b62000ef782620009a8565b9050602081019050919050565b82818337600083830152505050565b600062000f2a62000f248462000ece565b62000ea0565b90508281526020810184848401111562000f495762000f4862000ec9565b5b62000f5684828562000f04565b509392505050565b600082601f83011262000f765762000f7562000ec4565b5b813562000f8884826020860162000f13565b91505092915050565b600067ffffffffffffffff82111562000faf5762000fae62000e3b565b5b602082029050602081019050919050565b600080fd5b600062000fdc62000fd68462000f91565b62000ea0565b9050808382526020820190506020840283018581111562001002576200100162000fc0565b5b835b818110156200105057803567ffffffffffffffff8111156200102b576200102a62000ec4565b5b8086016200103a898262000f5e565b8552602085019450505060208101905062001004565b5050509392505050565b600082601f83011262001072576200107162000ec4565b5b81356200108484826020860162000fc5565b91505092915050565b60006101608284031215620010a757620010a662000e36565b5b620010b461016062000ea0565b9050600082013567ffffffffffffffff811115620010d757620010d662000ebf565b5b620010e58482850162000f5e565b600083015250602082013567ffffffffffffffff8111156200110c576200110b62000ebf565b5b6200111a8482850162000f5e565b602083015250604082013567ffffffffffffffff81111562001141576200114062000ebf565b5b6200114f848285016200105a565b604083015250606082013567ffffffffffffffff81111562001176576200117562000ebf565b5b62001184848285016200105a565b60608301525060806200119a8482850162000daa565b60808301525060a0620011b08482850162000daa565b60a08301525060c0620011c68482850162000daa565b60c08301525060e0620011dc8482850162000daa565b60e083015250610100620011f38482850162000daa565b610100830152506101206200120b8482850162000daa565b61012083015250610140620012238482850162000daa565b6101408301525092915050565b60006020828403121562001249576200124862000889565b5b600082013567ffffffffffffffff8111156200126a57620012696200088e565b5b62001278848285016200108d565b91505092915050565b600081519050919050565b600082825260208201905092915050565b6000819050602082019050919050565b6000819050919050565b6000620012d8620012d2620012cc8462000893565b620012ad565b62000893565b9050919050565b6000620012ec82620012b7565b9050919050565b60006200130082620012df565b9050919050565b6200131281620012f3565b82525050565b600062001326838362001307565b60208301905092915050565b6000602082019050919050565b60006200134c8262001281565b6200135881856200128c565b935062001365836200129d565b8060005b838110156200139c57815162001380888262001318565b97506200138d8362001332565b92505060018101905062001369565b5085935050505092915050565b60006020820190508181036000830152620013c581846200133f565b905092915050565b600081519050620013de8162000d90565b92915050565b600081519050620013f581620008c7565b92915050565b6000620014126200140c8462000ece565b62000ea0565b90508281526020810184848401111562001431576200143062000ec9565b5b6200143e84828562000972565b509392505050565b600082601f8301126200145e576200145d62000ec4565b5b815162001470848260208601620013fb565b91505092915050565b6000620014906200148a8462000f91565b62000ea0565b90508083825260208201905060208402830185811115620014b657620014b562000fc0565b5b835b818110156200150457805167ffffffffffffffff811115620014df57620014de62000ec4565b5b808601620014ee898262001446565b85526020850194505050602081019050620014b8565b5050509392505050565b600082601f83011262001526576200152562000ec4565b5b81516200153884826020860162001479565b91505092915050565b600067ffffffffffffffff8211156200155f576200155e62000e3b565b5b602082029050602081019050919050565b60006060828403121562001589576200158862000e36565b5b62001595606062000ea0565b90506000620015a784828501620013cd565b600083015250602082015167ffffffffffffffff811115620015ce57620015cd62000ebf565b5b620015dc8482850162001446565b6020830152506040620015f284828501620013cd565b60408301525092915050565b6000620016156200160f8462001541565b62000ea0565b905080838252602082019050602084028301858111156200163b576200163a62000fc0565b5b835b818110156200168957805167ffffffffffffffff81111562001664576200166362000ec4565b5b80860162001673898262001570565b855260208501945050506020810190506200163d565b5050509392505050565b600082601f830112620016ab57620016aa62000ec4565b5b8151620016bd848260208601620015fe565b91505092915050565b620016d18162000bf0565b8114620016dd57600080fd5b50565b600081519050620016f181620016c6565b92915050565b60006101c0828403121562001711576200171062000e36565b5b6200171e6101c062000ea0565b905060006200173084828501620013cd565b60008301525060206200174684828501620013e4565b602083015250604082015167ffffffffffffffff8111156200176d576200176c62000ebf565b5b6200177b8482850162001446565b604083015250606082015167ffffffffffffffff811115620017a257620017a162000ebf565b5b620017b08482850162001446565b606083015250608082015167ffffffffffffffff811115620017d757620017d662000ebf565b5b620017e5848285016200150e565b60808301525060a0620017fb84828501620013cd565b60a08301525060c06200181184828501620013cd565b60c08301525060e082015167ffffffffffffffff81111562001838576200183762000ebf565b5b620018468482850162001693565b60e0830152506101006200185d84828501620013cd565b610100830152506101206200187584828501620013cd565b610120830152506101406200188d84828501620013cd565b61014083015250610160620018a584828501620013cd565b61016083015250610180620018bd84828501620013cd565b610180830152506101a0620018d584828501620016e0565b6101a08301525092915050565b600060208284031215620018fb57620018fa62000889565b5b600082015167ffffffffffffffff8111156200191c576200191b6200088e565b5b6200192a84828501620016f7565b91505092915050565b600082825260208201905092915050565b7f72657175697265206d696e696d756d206e756d626572206f662063616e64696460008201527f6174657320616e6420766f746572732061726520320000000000000000000000602082015250565b6000620019a260358362001933565b9150620019af8262001944565b604082019050919050565b60006020820190508181036000830152620019d58162001993565b9050919050565b7f4e487b7100000000000000000000000000000000000000000000000000000000600052601160045260246000fd5b600062001a18826200092a565b915062001a25836200092a565b9250827fffffffffffffffffffffffffffffffffffffffffffffffffffffffffffffffff0382111562001a5d5762001a5c620019dc565b5b828201905092915050565b62001a7381620008b3565b82525050565b600060c08201905062001a90600083018962001a68565b62001a9f602083018862000e08565b62001aae604083018762000e08565b62001abd606083018662000e08565b62001acc608083018562000e08565b62001adb60a083018462000e08565b979650505050505050565b7f4e487b7100000000000000000000000000000000000000000000000000000000600052603260045260246000fd5b600062001b228262000956565b62001b2e818562001933565b935062001b4081856020860162000972565b62001b4b81620009a8565b840191505092915050565b6000602082019050818103600083015262001b72818462001b15565b905092915050565b600082825260208201905092915050565b600062001b9882620009fa565b62001ba4818562001b7a565b93508360208202850162001bb88562000a16565b8060005b8581101562001bfa578484038952815162001bd8858262000a26565b945062001be58362000a3c565b925060208a0199505060018101905062001bbc565b50829750879550505050505092915050565b6000602082019050818103600083015262001c28818462001b8b565b905092915050565b600062001c3d826200092a565b91507fffffffffffffffffffffffffffffffffffffffffffffffffffffffffffffffff82141562001c735762001c72620019dc565b5b600182019050919050565b600062001c8b826200092a565b915062001c98836200092a565b9250817fffffffffffffffffffffffffffffffffffffffffffffffffffffffffffffffff048311821515161562001cd45762001cd3620019dc565b5b82820290509291505056fe60806040523480156200001157600080fd5b50604051620021213803806200212183398181016040528101906200003791906200014c565b85600160006101000a81548173ffffffffffffffffffffffffffffffffffffffff021916908373ffffffffffffffffffffffffffffffffffffffff1602179055508460008190555083600781905550826008819055508160098190555080600a81905550505050505050620001e8565b600080fd5b600073ffffffffffffffffffffffffffffffffffffffff82169050919050565b6000620000d982620000ac565b9050919050565b620000eb81620000cc565b8114620000f757600080fd5b50565b6000815190506200010b81620000e0565b92915050565b6000819050919050565b620001268162000111565b81146200013257600080fd5b50565b60008151905062000146816200011b565b92915050565b60008060008060008060c087890312156200016c576200016b620000a7565b5b60006200017c89828a01620000fa565b96505060206200018f89828a0162000135565b9550506040620001a289828a0162000135565b9450506060620001b589828a0162000135565b9350506080620001c889828a0162000135565b92505060a0620001db89828a0162000135565b9150509295509295509295565b611f2980620001f86000396000f3fe608060405234801561001057600080fd5b50600436106101e55760003560e01c80636db0d8161161010f578063a96958af116100a2578063bd231bcb11610071578063bd231bcb14610543578063c7bedfa01461055f578063cf87414214610569578063fecfdbfe14610587576101e5565b8063a96958af146104cb578063a9a981a3146104e9578063af640d0f14610507578063bb2bcc0614610525576101e5565b8063893d8f4c116100de578063893d8f4c146104555780638da5cb5b146104735780638eef523b1461049157806390c3f38f146104af576101e5565b80636db0d816146103df5780637284e416146103fd57806372910be01461041b57806373d1993b14610437576101e5565b8063370dc599116101875780634a79d50c116101565780634a79d50c146103565780635c632b3814610374578063605e648b146103a55780636652e526146103c1576101e5565b8063370dc599146102cc578063396de55e146102ea57806342169e481461030857806344ff1d6814610326576101e5565b806317542dc0116101c357806317542dc0146102405780632c3549111461025e57806330e16d1f1461027c5780633477ee2e1461029a576101e5565b80630383badc146101ea5780630e970d801461020657806314e745d914610224575b600080fd5b61020460048036038101906101ff919061143f565b6105a5565b005b61020e61066a565b60405161021b9190611487565b60405180910390f35b61023e600480360381019061023991906116ce565b61067d565b005b6102486107c6565b6040516102559190611726565b60405180910390f35b6102666107cc565b6040516102739190611487565b60405180910390f35b6102846107df565b6040516102919190611487565b60405180910390f35b6102b460048036038101906102af919061143f565b6107f2565b6040516102c3939291906117c9565b60405180910390f35b6102d46108b4565b6040516102e19190611487565b60405180910390f35b6102f26108c7565b6040516102ff9190611487565b60405180910390f35b6103106108da565b60405161031d9190611726565b60405180910390f35b610340600480360381019061033b919061143f565b6108e0565b60405161034d9190611807565b60405180910390f35b61035e61098c565b60405161036b9190611807565b60405180910390f35b61038e6004803603810190610389919061143f565b610a1a565b60405161039c929190611829565b60405180910390f35b6103bf60048036038101906103ba919061143f565b610a4e565b005b6103c9610ac3565b6040516103d69190611c12565b60405180910390f35b6103e7610e69565b6040516103f49190611487565b60405180910390f35b610405610e7c565b6040516104129190611807565b60405180910390f35b61043560048036038101906104309190611c34565b610f0a565b005b61043f610f8f565b60405161044c9190611726565b60405180910390f35b61045d610f95565b60405161046a9190611726565b60405180910390f35b61047b610f9b565b6040516104889190611c8c565b60405180910390f35b610499610fc1565b6040516104a69190611487565b60405180910390f35b6104c960048036038101906104c49190611c34565b610fd4565b005b6104d3611059565b6040516104e09190611487565b60405180910390f35b6104f161106c565b6040516104fe9190611726565b60405180910390f35b61050f611072565b60405161051c9190611726565b60405180910390f35b61052d611078565b60405161053a9190611726565b60405180910390f35b61055d600480360381019061055891906116ce565b61107e565b005b61056761112a565b005b6105716111fb565b60405161057e9190611726565b60405180910390f35b61058f611201565b60405161059c9190611726565b60405180910390f35b42600854111580156105b8575060095442105b6105f7576040517f08c379a00000000000000000000000000000000000000000000000000000000081526004016105ee90611cf3565b60405180910390fd5b600b600081548092919061060a90611d42565b9190505550600f6040518060400160405280600b5481526020018381525090806001815401808255809150506001900390600052602060002090600202016000909190919091506000820151816000015560208201518160010155505050565b600d60029054906101000a900460ff1681565b600d60049054906101000a900460ff16156106cd576040517f08c379a00000000000000000000000000000000000000000000000000000000081526004016106c490611dd7565b60405180910390fd5b60005b815181101561078057600e60405180606001604052808381526020018484815181106106ff576106fe611df7565b5b6020026020010151815260200160008152509080600181540180825580915050600190039060005260206000209060030201600090919091909150600082015181600001556020820151816001019080519060200190610760929190611207565b50604082015181600201555050808061077890611d42565b9150506106d0565b50600e805490506005819055506001600d60046101000a81548160ff0219169083151502179055506001600d60036101000a81548160ff02191690831515021790555050565b600a5481565b600d60039054906101000a900460ff1681565b600d60079054906101000a900460ff1681565b600e818154811061080257600080fd5b906000526020600020906003020160009150905080600001549080600101805461082b90611e55565b80601f016020809104026020016040519081016040528092919081815260200182805461085790611e55565b80156108a45780601f10610879576101008083540402835291602001916108a4565b820191906000526020600020905b81548152906001019060200180831161088757829003601f168201915b5050505050908060020154905083565b600d60009054906101000a900460ff1681565b600d60049054906101000a900460ff1681565b60065481565b600481815481106108f057600080fd5b90600052602060002001600091509050805461090b90611e55565b80601f016020809104026020016040519081016040528092919081815260200182805461093790611e55565b80156109845780601f1061095957610100808354040283529160200191610984565b820191906000526020600020905b81548152906001019060200180831161096757829003601f168201915b505050505081565b6002805461099990611e55565b80601f01602080910402602001604051908101604052809291908181526020018280546109c590611e55565b8015610a125780601f106109e757610100808354040283529160200191610a12565b820191906000526020600020905b8154815290600101906020018083116109f557829003601f168201915b505050505081565b600f8181548110610a2a57600080fd5b90600052602060002090600202016000915090508060000154908060010154905082565b600d60079054906101000a900460ff1615610a9e576040517f08c379a0000000000000000000000000000000000000000000000000000000008152600401610a9590611dd7565b60405180910390fd5b80600c819055506001600d60076101000a81548160ff02191690831515021790555050565b610acb61128d565b604051806101c001604052806000548152602001600160009054906101000a900473ffffffffffffffffffffffffffffffffffffffff1673ffffffffffffffffffffffffffffffffffffffff16815260200160028054610b2a90611e55565b80601f0160208091040260200160405190810160405280929190818152602001828054610b5690611e55565b8015610ba35780601f10610b7857610100808354040283529160200191610ba3565b820191906000526020600020905b815481529060010190602001808311610b8657829003601f168201915b5050505050815260200160038054610bba90611e55565b80601f0160208091040260200160405190810160405280929190818152602001828054610be690611e55565b8015610c335780601f10610c0857610100808354040283529160200191610c33565b820191906000526020600020905b815481529060010190602001808311610c1657829003601f168201915b505050505081526020016004805480602002602001604051908101604052809291908181526020016000905b82821015610d0b578382906000526020600020018054610c7e90611e55565b80601f0160208091040260200160405190810160405280929190818152602001828054610caa90611e55565b8015610cf75780601f10610ccc57610100808354040283529160200191610cf7565b820191906000526020600020905b815481529060010190602001808311610cda57829003601f168201915b505050505081526020019060010190610c5f565b50505050815260200160055481526020016006548152602001600e805480602002602001604051908101604052809291908181526020016000905b82821015610e1e578382906000526020600020906003020160405180606001604052908160008201548152602001600182018054610d8390611e55565b80601f0160208091040260200160405190810160405280929190818152602001828054610daf90611e55565b8015610dfc5780601f10610dd157610100808354040283529160200191610dfc565b820191906000526020600020905b815481529060010190602001808311610ddf57829003601f168201915b5050505050815260200160028201548152505081526020019060010190610d46565b505050508152602001600754815260200160085481526020016009548152602001600a548152602001600c548152602001600d60009054906101000a900460ff161515815250905090565b600d60019054906101000a900460ff1681565b60038054610e8990611e55565b80601f0160208091040260200160405190810160405280929190818152602001828054610eb590611e55565b8015610f025780601f10610ed757610100808354040283529160200191610f02565b820191906000526020600020905b815481529060010190602001808311610ee557829003601f168201915b505050505081565b600d60019054906101000a900460ff1615610f5a576040517f08c379a0000000000000000000000000000000000000000000000000000000008152600401610f5190611dd7565b60405180910390fd5b8060029080519060200190610f70929190611207565b506001600d60016101000a81548160ff02191690831515021790555050565b60095481565b600b5481565b600160009054906101000a900473ffffffffffffffffffffffffffffffffffffffff1681565b600d60069054906101000a900460ff1681565b600d60029054906101000a900460ff1615611024576040517f08c379a000000000000000000000000000000000000000000000000000000000815260040161101b90611dd7565b60405180910390fd5b806003908051906020019061103a929190611207565b506001600d60026101000a81548160ff02191690831515021790555050565b600d60059054906101000a900460ff1681565b60055481565b60005481565b600c5481565b600d60059054906101000a900460ff16156110ce576040517f08c379a00000000000000000000000000000000000000000000000000000000081526004016110c590611dd7565b60405180910390fd5b80600490805190602001906110e4929190611314565b506004805490506006819055506001600d60056101000a81548160ff0219169083151502179055506001600d60066101000a81548160ff02191690831515021790555050565b42600954111561116f576040517f08c379a000000000000000000000000000000000000000000000000000000000815260040161116690611ed3565b60405180910390fd5b6000600190505b600b5481116111f8576000600f828154811061119557611194611df7565b5b9060005260206000209060020201600101549050600e81815481106111bd576111bc611df7565b5b906000526020600020906003020160020160008154809291906111df90611d42565b91905055505080806111f090611d42565b915050611176565b50565b60085481565b60075481565b82805461121390611e55565b90600052602060002090601f016020900481019282611235576000855561127c565b82601f1061124e57805160ff191683800117855561127c565b8280016001018555821561127c579182015b8281111561127b578251825591602001919060010190611260565b5b5090506112899190611374565b5090565b604051806101c0016040528060008152602001600073ffffffffffffffffffffffffffffffffffffffff16815260200160608152602001606081526020016060815260200160008152602001600081526020016060815260200160008152602001600081526020016000815260200160008152602001600081526020016000151581525090565b828054828255906000526020600020908101928215611363579160200282015b82811115611362578251829080519060200190611352929190611207565b5091602001919060010190611334565b5b5090506113709190611391565b5090565b5b8082111561138d576000816000905550600101611375565b5090565b5b808211156113b157600081816113a891906113b5565b50600101611392565b5090565b5080546113c190611e55565b6000825580601f106113d357506113f2565b601f0160209004906000526020600020908101906113f19190611374565b5b50565b6000604051905090565b600080fd5b600080fd5b6000819050919050565b61141c81611409565b811461142757600080fd5b50565b60008135905061143981611413565b92915050565b600060208284031215611455576114546113ff565b5b60006114638482850161142a565b91505092915050565b60008115159050919050565b6114818161146c565b82525050565b600060208201905061149c6000830184611478565b92915050565b600080fd5b6000601f19601f8301169050919050565b7f4e487b7100000000000000000000000000000000000000000000000000000000600052604160045260246000fd5b6114f0826114a7565b810181811067ffffffffffffffff8211171561150f5761150e6114b8565b5b80604052505050565b60006115226113f5565b905061152e82826114e7565b919050565b600067ffffffffffffffff82111561154e5761154d6114b8565b5b602082029050602081019050919050565b600080fd5b600080fd5b600067ffffffffffffffff821115611584576115836114b8565b5b61158d826114a7565b9050602081019050919050565b82818337600083830152505050565b60006115bc6115b784611569565b611518565b9050828152602081018484840111156115d8576115d7611564565b5b6115e384828561159a565b509392505050565b600082601f830112611600576115ff6114a2565b5b81356116108482602086016115a9565b91505092915050565b600061162c61162784611533565b611518565b9050808382526020820190506020840283018581111561164f5761164e61155f565b5b835b8181101561169657803567ffffffffffffffff811115611674576116736114a2565b5b80860161168189826115eb565b85526020850194505050602081019050611651565b5050509392505050565b600082601f8301126116b5576116b46114a2565b5b81356116c5848260208601611619565b91505092915050565b6000602082840312156116e4576116e36113ff565b5b600082013567ffffffffffffffff81111561170257611701611404565b5b61170e848285016116a0565b91505092915050565b61172081611409565b82525050565b600060208201905061173b6000830184611717565b92915050565b600081519050919050565b600082825260208201905092915050565b60005b8381101561177b578082015181840152602081019050611760565b8381111561178a576000848401525b50505050565b600061179b82611741565b6117a5818561174c565b93506117b581856020860161175d565b6117be816114a7565b840191505092915050565b60006060820190506117de6000830186611717565b81810360208301526117f08185611790565b90506117ff6040830184611717565b949350505050565b600060208201905081810360008301526118218184611790565b905092915050565b600060408201905061183e6000830185611717565b61184b6020830184611717565b9392505050565b61185b81611409565b82525050565b600073ffffffffffffffffffffffffffffffffffffffff82169050919050565b600061188c82611861565b9050919050565b61189c81611881565b82525050565b600082825260208201905092915050565b60006118be82611741565b6118c881856118a2565b93506118d881856020860161175d565b6118e1816114a7565b840191505092915050565b600081519050919050565b600082825260208201905092915050565b6000819050602082019050919050565b600061192483836118b3565b905092915050565b6000602082019050919050565b6000611944826118ec565b61194e81856118f7565b93508360208202850161196085611908565b8060005b8581101561199c578484038952815161197d8582611918565b94506119888361192c565b925060208a01995050600181019050611964565b50829750879550505050505092915050565b600081519050919050565b600082825260208201905092915050565b6000819050602082019050919050565b60006060830160008301516119f26000860182611852565b5060208301518482036020860152611a0a82826118b3565b9150506040830151611a1f6040860182611852565b508091505092915050565b6000611a3683836119da565b905092915050565b6000602082019050919050565b6000611a56826119ae565b611a6081856119b9565b935083602082028501611a72856119ca565b8060005b85811015611aae5784840389528151611a8f8582611a2a565b9450611a9a83611a3e565b925060208a01995050600181019050611a76565b50829750879550505050505092915050565b611ac98161146c565b82525050565b60006101c083016000830151611ae86000860182611852565b506020830151611afb6020860182611893565b5060408301518482036040860152611b1382826118b3565b91505060608301518482036060860152611b2d82826118b3565b91505060808301518482036080860152611b478282611939565b91505060a0830151611b5c60a0860182611852565b5060c0830151611b6f60c0860182611852565b5060e083015184820360e0860152611b878282611a4b565b915050610100830151611b9e610100860182611852565b50610120830151611bb3610120860182611852565b50610140830151611bc8610140860182611852565b50610160830151611bdd610160860182611852565b50610180830151611bf2610180860182611852565b506101a0830151611c076101a0860182611ac0565b508091505092915050565b60006020820190508181036000830152611c2c8184611acf565b905092915050565b600060208284031215611c4a57611c496113ff565b5b600082013567ffffffffffffffff811115611c6857611c67611404565b5b611c74848285016115eb565b91505092915050565b611c8681611881565b82525050565b6000602082019050611ca16000830184611c7d565b92915050565b7f696e76616c696420766f74652074696d65000000000000000000000000000000600082015250565b6000611cdd60118361174c565b9150611ce882611ca7565b602082019050919050565b60006020820190508181036000830152611d0c81611cd0565b9050919050565b7f4e487b7100000000000000000000000000000000000000000000000000000000600052601160045260246000fd5b6000611d4d82611409565b91507fffffffffffffffffffffffffffffffffffffffffffffffffffffffffffffffff821415611d8057611d7f611d13565b5b600182019050919050565b7f7469746c6520697320616c7265616479207365742e0000000000000000000000600082015250565b6000611dc160158361174c565b9150611dcc82611d8b565b602082019050919050565b60006020820190508181036000830152611df081611db4565b9050919050565b7f4e487b7100000000000000000000000000000000000000000000000000000000600052603260045260246000fd5b7f4e487b7100000000000000000000000000000000000000000000000000000000600052602260045260246000fd5b60006002820490506001821680611e6d57607f821691505b60208210811415611e8157611e80611e26565b5b50919050565b7f696e76616c69642074616c6c792074696d650000000000000000000000000000600082015250565b6000611ebd60128361174c565b9150611ec882611e87565b602082019050919050565b60006020820190508181036000830152611eec81611eb0565b905091905056fea26469706673582212201e8927d05c7fd01850a36840fa61d4cc8f3023572b5507411244a6815a2b72d464736f6c634300080a0033a26469706673582212204150ce1751be32d82fc207ed727c3d1d6a4237f0d972836ddc20ea32d77be2fb64736f6c634300080a0033",
  "immutableReferences": {},
  "source": "// SPDX-License-Identifier: MIT\r\npragma solidity >=0.4.22 <0.9.0;\r\n\r\nimport \"./Election.sol\";\r\n\r\ncontract VotingApp{\r\n    // Store Elections \r\n    Election[] private electionAddresses;\r\n\r\n    // Store election count;\r\n    uint public electionCount;\r\n    \r\n    // add Election Event\r\n    event addElectionEvent(Election.ElectionData eData);\r\n\r\n    // Model a election init data require data sent by onwer\r\n    struct ElectionInit{\r\n        string title;\r\n        string description;\r\n        string[] public_keys;\r\n        string[] candidates;\r\n        uint key_gen_time;\r\n        uint vote_time;\r\n        uint secret_upload_time;\r\n        uint key_gen_time_unit;\r\n        uint vote_time_unit;\r\n        uint secret_upload_time_unit;\r\n        uint min_shares;\r\n    }\r\n\r\n    function calc_time(uint _time, uint _time_unit) private pure returns(uint t){\r\n        if(_time_unit == 0){\r\n            t = _time * 1 minutes;\r\n        }\r\n        if(_time_unit == 1){\r\n            t = _time * 1 hours;\r\n        }\r\n        if(_time_unit == 2){\r\n            t = _time * 1 days;\r\n        }\r\n        return t;\r\n    }\r\n\r\n    function addElection(ElectionInit memory _data) public{\r\n        \r\n        // require minimum number of candidates and voters are 2\r\n        require(_data.candidates.length > 1 && _data.public_keys.length > 1,\"require minimum number of candidates and voters are 2\");\r\n\r\n        uint _post_time = block.timestamp;\r\n        uint _key_gen_end_time = _post_time + calc_time(_data.key_gen_time,_data.key_gen_time_unit); \r\n        uint _vote_end_time = _key_gen_end_time + calc_time(_data.vote_time,_data.vote_time_unit); \r\n        uint _secret_upload_end_time = _vote_end_time + calc_time(_data.secret_upload_time,_data.secret_upload_time_unit); \r\n        \r\n        electionAddresses.push(new Election(msg.sender,electionCount,\r\n        _post_time,_key_gen_end_time,_vote_end_time,_secret_upload_end_time));\r\n\r\n        Election e = Election(electionAddresses[electionCount]);\r\n        e.setTitle(_data.title);\r\n        e.setDescription(_data.description);\r\n        e.setPublicKeys(_data.public_keys);\r\n        e.setCandidates(_data.candidates);\r\n        e.setMinShares(_data.min_shares);\r\n    \r\n        electionCount++;\r\n\r\n        emit addElectionEvent(e.getElectionData());\r\n    }\r\n\r\n    function getElectionAddresses() public view returns (Election[] memory){\r\n        return electionAddresses;\r\n    }\r\n\r\n    function vote(address electionAddress, uint candidateID) public{\r\n        Election e = Election(electionAddress);\r\n        e.addVote(candidateID);\r\n    } \r\n\r\n    function getElectionData(address electionAddress) public view returns (Election.ElectionData memory){\r\n        Election e = Election(electionAddress);\r\n        return e.getElectionData();\r\n    }\r\n\r\n}",
  "sourcePath": "C:\\Users\\tim\\Desktop\\e-voting\\src\\contracts\\VotingApp.sol",
  "compiler": {
    "name": "solc",
    "version": "0.8.10+commit.fc410830.Emscripten.clang"
  },
  "schemaVersion": "3.4.4",
  "updatedAt": "2022-01-04T15:50:06.102Z",
  "networkType": "ethereum",
  "devdoc": {
    "kind": "dev",
    "methods": {},
    "version": 1
  },
  "userdoc": {
    "kind": "user",
    "methods": {},
    "version": 1
  }
}