{
  "contractName": "VotingApp",
  "abi": [
    {
      "anonymous": false,
      "inputs": [
        {
          "components": [
            {
              "internalType": "uint256",
              "name": "id",
              "type": "uint256"
            },
            {
              "internalType": "address",
              "name": "owner",
              "type": "address"
            },
            {
              "internalType": "string",
              "name": "title",
              "type": "string"
            },
            {
              "internalType": "string",
              "name": "description",
              "type": "string"
            },
            {
              "internalType": "string[]",
              "name": "public_keys",
              "type": "string[]"
            },
            {
              "components": [
                {
                  "internalType": "uint256",
                  "name": "x",
                  "type": "uint256"
                },
                {
                  "internalType": "uint256",
                  "name": "y",
                  "type": "uint256"
                }
              ],
              "internalType": "struct Election.ECPoint[]",
              "name": "EC_public_keys",
              "type": "tuple[]"
            },
            {
              "internalType": "uint256",
              "name": "candidateCount",
              "type": "uint256"
            },
            {
              "internalType": "uint256",
              "name": "voterCount",
              "type": "uint256"
            },
            {
              "components": [
                {
                  "internalType": "uint256",
                  "name": "id",
                  "type": "uint256"
                },
                {
                  "internalType": "string",
                  "name": "name",
                  "type": "string"
                },
                {
                  "internalType": "uint256",
                  "name": "voteCount",
                  "type": "uint256"
                }
              ],
              "internalType": "struct Election.Candidate[]",
              "name": "candidates",
              "type": "tuple[]"
            },
            {
              "internalType": "uint256",
              "name": "post_time",
              "type": "uint256"
            },
            {
              "internalType": "uint256",
              "name": "key_gen_end_time",
              "type": "uint256"
            },
            {
              "internalType": "uint256",
              "name": "vote_end_time",
              "type": "uint256"
            },
            {
              "internalType": "uint256",
              "name": "secret_upload_end_time",
              "type": "uint256"
            },
            {
              "internalType": "uint256",
              "name": "min_shares",
              "type": "uint256"
            },
            {
              "internalType": "bool",
              "name": "isTallyed",
              "type": "bool"
            },
            {
              "internalType": "uint256",
              "name": "L",
              "type": "uint256"
            },
            {
              "components": [
                {
                  "internalType": "uint256",
                  "name": "x",
                  "type": "uint256"
                },
                {
                  "internalType": "uint256",
                  "name": "y",
                  "type": "uint256"
                }
              ],
              "internalType": "struct Election.ECPoint",
              "name": "H",
              "type": "tuple"
            }
          ],
          "indexed": false,
          "internalType": "struct Election.ElectionData",
          "name": "eData",
          "type": "tuple"
        }
      ],
      "name": "addElectionEvent",
      "type": "event"
    },
    {
      "inputs": [],
      "name": "electionCount",
      "outputs": [
        {
          "internalType": "uint256",
          "name": "",
          "type": "uint256"
        }
      ],
      "stateMutability": "view",
      "type": "function",
      "constant": true
    },
    {
      "inputs": [
        {
          "components": [
            {
              "internalType": "string",
              "name": "title",
              "type": "string"
            },
            {
              "internalType": "string",
              "name": "description",
              "type": "string"
            },
            {
              "internalType": "string[]",
              "name": "public_keys",
              "type": "string[]"
            },
            {
              "internalType": "uint256[]",
              "name": "EC_public_key_Xs",
              "type": "uint256[]"
            },
            {
              "internalType": "uint256[]",
              "name": "EC_public_key_Ys",
              "type": "uint256[]"
            },
            {
              "internalType": "string[]",
              "name": "candidates",
              "type": "string[]"
            },
            {
              "internalType": "uint256",
              "name": "key_gen_time",
              "type": "uint256"
            },
            {
              "internalType": "uint256",
              "name": "vote_time",
              "type": "uint256"
            },
            {
              "internalType": "uint256",
              "name": "secret_upload_time",
              "type": "uint256"
            },
            {
              "internalType": "uint256",
              "name": "key_gen_time_unit",
              "type": "uint256"
            },
            {
              "internalType": "uint256",
              "name": "vote_time_unit",
              "type": "uint256"
            },
            {
              "internalType": "uint256",
              "name": "secret_upload_time_unit",
              "type": "uint256"
            },
            {
              "internalType": "uint256",
              "name": "min_shares",
              "type": "uint256"
            }
          ],
          "internalType": "struct VotingApp.ElectionInit",
          "name": "_data",
          "type": "tuple"
        }
      ],
      "name": "addElection",
      "outputs": [],
      "stateMutability": "nonpayable",
      "type": "function"
    },
    {
      "inputs": [],
      "name": "getElectionAddresses",
      "outputs": [
        {
          "internalType": "contract Election[]",
          "name": "",
          "type": "address[]"
        }
      ],
      "stateMutability": "view",
      "type": "function",
      "constant": true
    },
    {
      "inputs": [
        {
          "internalType": "uint256",
          "name": "electionID",
          "type": "uint256"
        },
        {
          "internalType": "uint256",
          "name": "_message",
          "type": "uint256"
        },
        {
          "internalType": "uint256",
          "name": "_U0",
          "type": "uint256"
        },
        {
          "internalType": "uint256[]",
          "name": "_V",
          "type": "uint256[]"
        },
        {
          "components": [
            {
              "internalType": "uint256",
              "name": "x",
              "type": "uint256"
            },
            {
              "internalType": "uint256",
              "name": "y",
              "type": "uint256"
            }
          ],
          "internalType": "struct Election.ECPoint",
          "name": "_K",
          "type": "tuple"
        }
      ],
      "name": "verfiyLRS",
      "outputs": [
        {
          "internalType": "uint256",
          "name": "U",
          "type": "uint256"
        }
      ],
      "stateMutability": "view",
      "type": "function",
      "constant": true
    },
    {
      "inputs": [
        {
          "internalType": "uint256",
          "name": "electionID",
          "type": "uint256"
        },
        {
          "internalType": "uint256",
          "name": "candidateID",
          "type": "uint256"
        },
        {
          "internalType": "uint256",
          "name": "_message",
          "type": "uint256"
        },
        {
          "internalType": "uint256",
          "name": "_U0",
          "type": "uint256"
        },
        {
          "internalType": "uint256[]",
          "name": "_V",
          "type": "uint256[]"
        },
        {
          "components": [
            {
              "internalType": "uint256",
              "name": "x",
              "type": "uint256"
            },
            {
              "internalType": "uint256",
              "name": "y",
              "type": "uint256"
            }
          ],
          "internalType": "struct Election.ECPoint",
          "name": "_K",
          "type": "tuple"
        }
      ],
      "name": "vote",
      "outputs": [],
      "stateMutability": "nonpayable",
      "type": "function"
    },
    {
      "inputs": [
        {
          "internalType": "address",
          "name": "electionAddress",
          "type": "address"
        }
      ],
      "name": "getElectionData",
      "outputs": [
        {
          "components": [
            {
              "internalType": "uint256",
              "name": "id",
              "type": "uint256"
            },
            {
              "internalType": "address",
              "name": "owner",
              "type": "address"
            },
            {
              "internalType": "string",
              "name": "title",
              "type": "string"
            },
            {
              "internalType": "string",
              "name": "description",
              "type": "string"
            },
            {
              "internalType": "string[]",
              "name": "public_keys",
              "type": "string[]"
            },
            {
              "components": [
                {
                  "internalType": "uint256",
                  "name": "x",
                  "type": "uint256"
                },
                {
                  "internalType": "uint256",
                  "name": "y",
                  "type": "uint256"
                }
              ],
              "internalType": "struct Election.ECPoint[]",
              "name": "EC_public_keys",
              "type": "tuple[]"
            },
            {
              "internalType": "uint256",
              "name": "candidateCount",
              "type": "uint256"
            },
            {
              "internalType": "uint256",
              "name": "voterCount",
              "type": "uint256"
            },
            {
              "components": [
                {
                  "internalType": "uint256",
                  "name": "id",
                  "type": "uint256"
                },
                {
                  "internalType": "string",
                  "name": "name",
                  "type": "string"
                },
                {
                  "internalType": "uint256",
                  "name": "voteCount",
                  "type": "uint256"
                }
              ],
              "internalType": "struct Election.Candidate[]",
              "name": "candidates",
              "type": "tuple[]"
            },
            {
              "internalType": "uint256",
              "name": "post_time",
              "type": "uint256"
            },
            {
              "internalType": "uint256",
              "name": "key_gen_end_time",
              "type": "uint256"
            },
            {
              "internalType": "uint256",
              "name": "vote_end_time",
              "type": "uint256"
            },
            {
              "internalType": "uint256",
              "name": "secret_upload_end_time",
              "type": "uint256"
            },
            {
              "internalType": "uint256",
              "name": "min_shares",
              "type": "uint256"
            },
            {
              "internalType": "bool",
              "name": "isTallyed",
              "type": "bool"
            },
            {
              "internalType": "uint256",
              "name": "L",
              "type": "uint256"
            },
            {
              "components": [
                {
                  "internalType": "uint256",
                  "name": "x",
                  "type": "uint256"
                },
                {
                  "internalType": "uint256",
                  "name": "y",
                  "type": "uint256"
                }
              ],
              "internalType": "struct Election.ECPoint",
              "name": "H",
              "type": "tuple"
            }
          ],
          "internalType": "struct Election.ElectionData",
          "name": "",
          "type": "tuple"
        }
      ],
      "stateMutability": "view",
      "type": "function",
      "constant": true
    }
  ],
  "bytecode": "0x608060405234801561001057600080fd5b50613ffa806100206000396000f3fe60806040523480156200001157600080fd5b50600436106200006a5760003560e01c8063170e5ccf146200006f5780631ae02bd9146200009e5780636b5d171f14620000b7578063997d283014620000ce578063ff3f56d814620000e7578063ff64374814620000fe575b600080fd5b62000086620000803660046200094c565b62000117565b60405162000095919062000ae5565b60405180910390f35b620000b5620000af36600462000dfe565b62000196565b005b620000b5620000c836600462000f80565b62000230565b620000d860015481565b60405190815260200162000095565b620000d8620000f836600462001105565b62000714565b62000108620007c2565b60405162000095919062001176565b620001216200087b565b6000829050806001600160a01b0316636652e5266040518163ffffffff1660e01b8152600401600060405180830381865afa15801562000165573d6000803e3d6000fd5b505050506040513d6000823e601f3d908101601f191682016040526200018f91908101906200143d565b9392505050565b6000808781548110620001ad57620001ad620015f6565b60009182526020909120015460405163810dc04160e01b81526001600160a01b039091169150819063810dc04190620001f390899089908990899089906004016200163e565b600060405180830381600087803b1580156200020e57600080fd5b505af115801562000223573d6000803e3d6000fd5b5050505050505050505050565b60018160a00151511180156200024b57506001816040015151115b620002ba5760405162461bcd60e51b815260206004820152603560248201527f72657175697265206d696e696d756d206e756d626572206f662063616e64696460448201527430ba32b99030b732103b37ba32b9399030b932901960591b606482015260840160405180910390fd5b60004290506000620002d68360c0015184610120015162000826565b620002e2908362001698565b90506000620002fb8460e0015185610140015162000826565b62000307908362001698565b905060006200032185610100015186610160015162000826565b6200032d908362001698565b905060003360015486868686604051620003479062000925565b6001600160a01b039096168652602086019490945260408501929092526060840152608083015260a082015260c001604051809103906000f08015801562000393573d6000803e3d6000fd5b5081546001808201845560009384526020842090910180546001600160a01b0319166001600160a01b0393909316929092179091555481548291908110620003df57620003df620015f6565b6000918252602090912001548651604051630394885f60e51b81526001600160a01b03909216925082916372910be0916200041d91600401620016b3565b600060405180830381600087803b1580156200043857600080fd5b505af11580156200044d573d6000803e3d6000fd5b50505060208701516040516390c3f38f60e01b81526001600160a01b03841692506390c3f38f916200048291600401620016b3565b600060405180830381600087803b1580156200049d57600080fd5b505af1158015620004b2573d6000803e3d6000fd5b505050604080880151905163bd231bcb60e01b81526001600160a01b038416925063bd231bcb91620004e791600401620016c8565b600060405180830381600087803b1580156200050257600080fd5b505af115801562000517573d6000803e3d6000fd5b505050506060860151608087015160405163543e032560e01b81526001600160a01b0384169263543e03259262000551926004016200172e565b600060405180830381600087803b1580156200056c57600080fd5b505af115801562000581573d6000803e3d6000fd5b50505060a08701516040516314e745d960e01b81526001600160a01b03841692506314e745d991620005b691600401620016c8565b600060405180830381600087803b158015620005d157600080fd5b505af1158015620005e6573d6000803e3d6000fd5b50505061018087015160405163605e648b60e01b81526001600160a01b038416925063605e648b916200061f9160040190815260200190565b600060405180830381600087803b1580156200063a57600080fd5b505af11580156200064f573d6000803e3d6000fd5b505060018054925090506000620006668362001757565b91905055507f2843cdfcc5eaae8ab29df4fbf972670e11029172d6712ec70f4fb717eb3d3cc0816001600160a01b0316636652e5266040518163ffffffff1660e01b8152600401600060405180830381865afa158015620006cb573d6000803e3d6000fd5b505050506040513d6000823e601f3d908101601f19168201604052620006f591908101906200143d565b60405162000704919062000ae5565b60405180910390a1505050505050565b600080600087815481106200072d576200072d620015f6565b6000918252602090912001546040516317b6cc8360e31b81526001600160a01b039091169150819063bdb66418906200077190899089908990899060040162001775565b602060405180830381865afa1580156200078f573d6000803e3d6000fd5b505050506040513d601f19601f82011682018060405250810190620007b59190620017af565b9150505b95945050505050565b606060008054806020026020016040519081016040528092919081815260200182805480156200081c57602002820191906000526020600020905b81546001600160a01b03168152600190910190602001808311620007fd575b5050505050905090565b6000816200083e576200083b83603c620017c9565b90505b816001141562000859576200085683610e10620017c9565b90505b81600214156200087557620008728362015180620017c9565b90505b92915050565b6040518061022001604052806000815260200160006001600160a01b031681526020016060815260200160608152602001606081526020016060815260200160008152602001600081526020016060815260200160008152602001600081526020016000815260200160008152602001600081526020016000151581526020016000815260200162000920604051806040016040528060008152602001600081525090565b905290565b6127d980620017ec83390190565b6001600160a01b03811681146200094957600080fd5b50565b6000602082840312156200095f57600080fd5b81356200018f8162000933565b60005b83811015620009895781810151838201526020016200096f565b8381111562000999576000848401525b50505050565b60008151808452620009b98160208601602086016200096c565b601f01601f19169290920160200192915050565b600081518084526020808501808196508360051b8101915082860160005b8581101562000a1957828403895262000a068483516200099f565b98850198935090840190600101620009eb565b5091979650505050505050565b600081518084526020808501945080840160005b8381101562000a6d5762000a5987835180518252602090810151910152565b604096909601959082019060010162000a3a565b509495945050505050565b600081518084526020808501808196508360051b8101915082860160005b8581101562000a19578284038952815160608151865286820151818888015262000ac3828801826200099f565b6040938401519790930196909652509885019893509084019060010162000a96565b60208152815160208201526000602083015162000b0d60408401826001600160a01b03169052565b506040830151610240606084015262000b2b6102608401826200099f565b90506060840151601f198085840301608086015262000b4b83836200099f565b925060808601519150808584030160a086015262000b6a8383620009cd565b925060a08601519150808584030160c086015262000b89838362000a26565b925060c086015160e086015260e0860151915061010082818701528087015192505061012081868503018187015262000bc3848462000a78565b908701516101408781019190915287015161016080880191909152870151610180808801919091528701516101a0808801919091528701516101c08088019190915287015190935091506101e0905062000c208186018315159052565b85015161020085810191909152850151805161022086015260208101516102408601529050509392505050565b634e487b7160e01b600052604160045260246000fd5b604080519081016001600160401b038111828210171562000c885762000c8862000c4d565b60405290565b6040516101a081016001600160401b038111828210171562000c885762000c8862000c4d565b604051606081016001600160401b038111828210171562000c885762000c8862000c4d565b60405161022081016001600160401b038111828210171562000c885762000c8862000c4d565b604051601f8201601f191681016001600160401b038111828210171562000d2a5762000d2a62000c4d565b604052919050565b60006001600160401b0382111562000d4e5762000d4e62000c4d565b5060051b60200190565b600082601f83011262000d6a57600080fd5b8135602062000d8362000d7d8362000d32565b62000cff565b82815260059290921b8401810191818101908684111562000da357600080fd5b8286015b8481101562000dc0578035835291830191830162000da7565b509695505050505050565b60006040828403121562000dde57600080fd5b62000de862000c63565b9050813581526020820135602082015292915050565b60008060008060008060e0878903121562000e1857600080fd5b8635955060208701359450604087013593506060870135925060808701356001600160401b0381111562000e4b57600080fd5b62000e5989828a0162000d58565b92505062000e6b8860a0890162000dcb565b90509295509295509295565b60006001600160401b0382111562000e935762000e9362000c4d565b50601f01601f191660200190565b600082601f83011262000eb357600080fd5b813562000ec462000d7d8262000e77565b81815284602083860101111562000eda57600080fd5b816020850160208301376000918101602001919091529392505050565b600082601f83011262000f0957600080fd5b8135602062000f1c62000d7d8362000d32565b82815260059290921b8401810191818101908684111562000f3c57600080fd5b8286015b8481101562000dc05780356001600160401b0381111562000f615760008081fd5b62000f718986838b010162000ea1565b84525091830191830162000f40565b60006020828403121562000f9357600080fd5b81356001600160401b038082111562000fab57600080fd5b908301906101a0828603121562000fc157600080fd5b62000fcb62000c8e565b82358281111562000fdb57600080fd5b62000fe98782860162000ea1565b82525060208301358281111562000fff57600080fd5b6200100d8782860162000ea1565b6020830152506040830135828111156200102657600080fd5b620010348782860162000ef7565b6040830152506060830135828111156200104d57600080fd5b6200105b8782860162000d58565b6060830152506080830135828111156200107457600080fd5b620010828782860162000d58565b60808301525060a0830135828111156200109b57600080fd5b620010a98782860162000ef7565b60a08301525060c0838101359082015260e0808401359082015261010080840135908201526101208084013590820152610140808401359082015261016080840135908201526101809283013592810192909252509392505050565b600080600080600060c086880312156200111e57600080fd5b85359450602086013593506040860135925060608601356001600160401b038111156200114a57600080fd5b620011588882890162000d58565b9250506200116a876080880162000dcb565b90509295509295909350565b6020808252825182820181905260009190848201906040850190845b81811015620011b95783516001600160a01b03168352928401929184019160010162001192565b50909695505050505050565b8051620011d28162000933565b919050565b600082601f830112620011e957600080fd5b8151620011fa62000d7d8262000e77565b8181528460208386010111156200121057600080fd5b620012238260208301602087016200096c565b949350505050565b600082601f8301126200123d57600080fd5b815160206200125062000d7d8362000d32565b82815260059290921b840181019181810190868411156200127057600080fd5b8286015b8481101562000dc05780516001600160401b03811115620012955760008081fd5b620012a58986838b0101620011d7565b84525091830191830162001274565b600060408284031215620012c757600080fd5b620012d162000c63565b9050815181526020820151602082015292915050565b600082601f830112620012f957600080fd5b815160206200130c62000d7d8362000d32565b82815260069290921b840181019181810190868411156200132c57600080fd5b8286015b8481101562000dc057620013458882620012b4565b83529183019160400162001330565b600082601f8301126200136657600080fd5b815160206200137962000d7d8362000d32565b82815260059290921b840181019181810190868411156200139957600080fd5b8286015b8481101562000dc05780516001600160401b0380821115620013bf5760008081fd5b908801906060828b03601f1901811315620013da5760008081fd5b620013e462000cb4565b87840151815260408085015184811115620013ff5760008081fd5b6200140f8e8b83890101620011d7565b8a840152509190930151908301525083529183019183016200139d565b80518015158114620011d257600080fd5b6000602082840312156200145057600080fd5b81516001600160401b03808211156200146857600080fd5b9083019061024082860312156200147e57600080fd5b6200148862000cd9565b825181526200149a60208401620011c5565b6020820152604083015182811115620014b257600080fd5b620014c087828601620011d7565b604083015250606083015182811115620014d957600080fd5b620014e787828601620011d7565b6060830152506080830151828111156200150057600080fd5b6200150e878286016200122b565b60808301525060a0830151828111156200152757600080fd5b6200153587828601620012e7565b60a08301525060c083015160c082015260e083015160e082015261010080840151838111156200156457600080fd5b620015728882870162001354565b918301919091525061012083810151908201526101408084015190820152610160808401519082015261018080840151908201526101a080840151908201526101c09150620015c38284016200142c565b828201526101e0915081830151828201526102009150620015e786838501620012b4565b91810191909152949350505050565b634e487b7160e01b600052603260045260246000fd5b600081518084526020808501945080840160005b8381101562000a6d5781518752958201959082019060010162001620565b85815284602082015283604082015260c0606082015260006200166560c08301856200160c565b83516080840152602084015160a084015290509695505050505050565b634e487b7160e01b600052601160045260246000fd5b60008219821115620016ae57620016ae62001682565b500190565b6020815260006200087260208301846200099f565b6000602080830181845280855180835260408601915060408160051b870101925083870160005b828110156200172157603f198886030184526200170e8583516200099f565b94509285019290850190600101620016ef565b5092979650505050505050565b6040815260006200174360408301856200160c565b8281036020840152620007b981856200160c565b60006000198214156200176e576200176e62001682565b5060010190565b84815283602082015260a0604082015260006200179660a08301856200160c565b83516060840152602084015160808401529050620007b9565b600060208284031215620017c257600080fd5b5051919050565b6000816000190483118215151615620017e657620017e662001682565b50029056fe60806040523480156200001157600080fd5b50604051620027d9380380620027d9833981016040819052620000349162000070565b600180546001600160a01b0319166001600160a01b039790971696909617909555600093909355600791909155600855600955600a55620000d1565b60008060008060008060c087890312156200008a57600080fd5b86516001600160a01b0381168114620000a257600080fd5b6020880151604089015160608a015160808b015160a0909b0151939c929b509099909850965090945092505050565b6126f880620000e16000396000f3fe608060405234801561001057600080fd5b506004361061027f5760003560e01c80637a308a4c1161015c578063af640d0f116100ce578063c7bedfa011610087578063c7bedfa01461058d578063cf87414214610595578063decf56a41461059e578063eeeac01e146105a6578063fca43a57146105bb578063fecfdbfe146105ce57600080fd5b8063af640d0f1461052e578063bb2bcc0614610537578063bd231bcb14610540578063bdb6641814610553578063c2d2b86a14610566578063c5d433a01461057a57600080fd5b806390c3f38f1161012057806390c3f38f146104c85780639870e2a4146104db578063997da8d4146104f05780639f13f76d14610508578063a96958af14610511578063a9a981a31461052557600080fd5b80637a308a4c14610458578063810dc0411461046d578063893d8f4c146104805780638da5cb5b146104895780638eef523b146104b457600080fd5b80634a79d50c116101f55780636652e526116101b95780636652e526146103ff5780636db0d8161461041457806370a5d861146104265780637284e4161461043457806372910be01461043c57806373d1993b1461044f57600080fd5b80634a79d50c14610382578063543e03251461038a5780635727dc5c1461039d5780635c632b38146103c4578063605e648b146103ec57600080fd5b806330e16d1f1161024757806330e16d1f146103015780633477ee2e14610315578063370dc59914610337578063396de55e1461034457806342169e481461035957806344ff1d681461036257600080fd5b806303a507be146102845780630e970d80146102ac57806314e745d9146102cf57806317542dc0146102e45780632c354911146102ed575b600080fd5b61029960008051602061266383398151915281565b6040519081526020015b60405180910390f35b600d546102bf9062010000900460ff1681565b60405190151581526020016102a3565b6102e26102dd366004611f86565b6105d7565b005b610299600a5481565b600d546102bf906301000000900460ff1681565b600d546102bf90600160401b900460ff1681565b61032861032336600461203b565b6106f3565b6040516102a3939291906120a1565b600d546102bf9060ff1681565b600d546102bf90640100000000900460ff1681565b61029960065481565b61037561037036600461203b565b6107b1565b6040516102a391906120ca565b61037561085d565b6102e261039836600461214a565b61086a565b6102997f5ac635d8aa3a93e7b3ebbd55769886bc651d06b0cc53b0f63bce3c3e27d2604b81565b6103d76103d236600461203b565b6109d0565b604080519283526020830191909152016102a3565b6102e26103fa36600461203b565b6109fe565b610407610a6c565b6040516102a391906122ba565b600d546102bf90610100900460ff1681565b600f546010546103d7919082565b610375610e7b565b6102e261044a366004612416565b610e88565b61029960095481565b6102996000805160206126a383398151915281565b6102e261047b3660046124a0565b610efe565b610299600b5481565b60015461049c906001600160a01b031681565b6040516001600160a01b0390911681526020016102a3565b600d546102bf90600160381b900460ff1681565b6102e26104d6366004612416565b610fe8565b61029960008051602061268383398151915281565b6102996003600160601b0363ffffffff60c01b031981565b610299600e5481565b600d546102bf90600160281b900460ff1681565b61029960055481565b61029960005481565b610299600c5481565b6102e261054e366004611f86565b611069565b61029961056136600461250b565b6110fb565b600d546102bf90600160301b900460ff1681565b6103d761058836600461203b565b6112ce565b6102e26112de565b61029960085481565b610299600181565b610299600160601b63ffffffff60c01b031981565b6103d76105c936600461203b565b6113a7565b61029960075481565b600d54640100000000900460ff16156106375760405162461bcd60e51b815260206004820152601a60248201527f43616e6469646174657320697320616c7265616479207365742e00000000000060448201526064015b60405180910390fd5b60005b81518110156106d457601360405180606001604052808381526020018484815181106106685761066861256c565b60209081029190910181015182526000918101829052835460018181018655948352918190208351600390930201918255828101518051939492936106b4938501929190910190611c9e565b5060408201518160020155505080806106cc90612598565b91505061063a565b5050601354600555600d805464ffff0000001916640101000000179055565b6013818154811061070357600080fd5b60009182526020909120600390910201805460018201805491935090610728906125b3565b80601f0160208091040260200160405190810160405280929190818152602001828054610754906125b3565b80156107a15780601f10610776576101008083540402835291602001916107a1565b820191906000526020600020905b81548152906001019060200180831161078457829003601f168201915b5050505050908060020154905083565b600481815481106107c157600080fd5b9060005260206000200160009150905080546107dc906125b3565b80601f0160208091040260200160405190810160405280929190818152602001828054610808906125b3565b80156108555780601f1061082a57610100808354040283529160200191610855565b820191906000526020600020905b81548152906001019060200180831161083857829003601f168201915b505050505081565b600280546107dc906125b3565b600d54600160301b900460ff16156108c45760405162461bcd60e51b815260206004820152601e60248201527f4543205075626c69635f6b65797320697320616c7265616479207365742e0000604482015260640161062e565b60005b825181101561099e57601260405180604001604052808584815181106108ef576108ef61256c565b6020026020010151815260200184848151811061090e5761090e61256c565b6020908102919091018101519091528254600181810185556000948552938290208351600290920201908155910151910155600080516020612683833981519152808383815181106109625761096261256c565b602002602001015185848151811061097c5761097c61256c565b602002602001015108600e5408600e558061099681612598565b9150506108c7565b506109aa600e546113b7565b8051600f55602001516010555050600d805466ff0000000000001916600160301b179055565b601481815481106109e057600080fd5b60009182526020909120600290910201805460019091015490915082565b600d54600160401b900460ff1615610a545760405162461bcd60e51b815260206004820152601960248201527826b4b729b430b932b99034b99030b63932b0b23c9039b2ba1760391b604482015260640161062e565b600c55600d805460ff60401b1916600160401b179055565b610a74611d22565b604080516102208101825260005481526001546001600160a01b03166020820152600280549192830191610aa7906125b3565b80601f0160208091040260200160405190810160405280929190818152602001828054610ad3906125b3565b8015610b205780601f10610af557610100808354040283529160200191610b20565b820191906000526020600020905b815481529060010190602001808311610b0357829003601f168201915b5050505050815260200160038054610b37906125b3565b80601f0160208091040260200160405190810160405280929190818152602001828054610b63906125b3565b8015610bb05780601f10610b8557610100808354040283529160200191610bb0565b820191906000526020600020905b815481529060010190602001808311610b9357829003601f168201915b505050505081526020016004805480602002602001604051908101604052809291908181526020016000905b82821015610c88578382906000526020600020018054610bfb906125b3565b80601f0160208091040260200160405190810160405280929190818152602001828054610c27906125b3565b8015610c745780601f10610c4957610100808354040283529160200191610c74565b820191906000526020600020905b815481529060010190602001808311610c5757829003601f168201915b505050505081526020019060010190610bdc565b5050505081526020016012805480602002602001604051908101604052809291908181526020016000905b82821015610cf957838290600052602060002090600202016040518060400160405290816000820154815260200160018201548152505081526020019060010190610cb3565b505050508152602001600554815260200160065481526020016013805480602002602001604051908101604052809291908181526020016000905b82821015610e0c578382906000526020600020906003020160405180606001604052908160008201548152602001600182018054610d71906125b3565b80601f0160208091040260200160405190810160405280929190818152602001828054610d9d906125b3565b8015610dea5780601f10610dbf57610100808354040283529160200191610dea565b820191906000526020600020905b815481529060010190602001808311610dcd57829003601f168201915b5050505050815260200160028201548152505081526020019060010190610d34565b505050908252506007546020808301919091526008546040808401919091526009546060840152600a546080840152600c5460a0840152600d5460ff16151560c0840152600e5460e08401528051808201909152600f5481526010549181019190915261010090910152919050565b600380546107dc906125b3565b600d54610100900460ff1615610ed85760405162461bcd60e51b81526020600482015260156024820152743a34ba36329034b99030b63932b0b23c9039b2ba1760591b604482015260640161062e565b8051610eeb906002906020840190611c9e565b5050600d805461ff001916610100179055565b4260085411158015610f11575060095442105b610f515760405162461bcd60e51b8152602060048201526011602482015270696e76616c696420766f74652074696d6560781b604482015260640161062e565b600b8054906000610f6183612598565b909155505060408051808201909152600b548152602081019586526014805460018101825560009190915290517fce6d7b5282bd9a3661ae061feed1dbda4e52ab073b1f9285be6e155d9c38d4ec60029092029182015594517fce6d7b5282bd9a3661ae061feed1dbda4e52ab073b1f9285be6e155d9c38d4ed9095019490945550505050565b600d5462010000900460ff16156110415760405162461bcd60e51b815260206004820152601b60248201527f4465736372697074696f6e20697320616c7265616479207365742e0000000000604482015260640161062e565b8051611054906003906020840190611c9e565b5050600d805462ff0000191662010000179055565b600d54600160281b900460ff16156110c35760405162461bcd60e51b815260206004820152601b60248201527f5075626c69635f6b65797320697320616c7265616479207365742e0000000000604482015260640161062e565b80516110d6906004906020840190611dcb565b5050600454600655600d805467ff00ff00000000001916670100010000000000179055565b60008061110786611438565b9050846000611129604051806040016040528060008152602001600081525090565b604080518082019091526000808252602082015260005b6006548110156112bf576111e561118d6000805160206126638339815191526000805160206126a38339815191528c85815181106111805761118061256c565b6020026020010151611485565b6111e0601284815481106111a3576111a361256c565b906000526020600020906002020160000154601285815481106111c8576111c861256c565b90600052602060002090600202016001015489611485565b6114e4565b925061121e61120b600f60000154600f600101548c85815181106111805761118061256c565b6111e08a600001518b6020015189611485565b600094509150600080516020612683833981519152600e54850893506000805160206126838339815191528060208a01518a510885089350600080516020612683833981519152868508935060008051602061268383398151915280602085015185510885089350600080516020612683833981519152806020840151845108850893506112ab84611438565b9450806112b781612598565b915050611140565b50929998505050505050505050565b601181815481106109e057600080fd5b4260095411156113255760405162461bcd60e51b8152602060048201526012602482015271696e76616c69642074616c6c792074696d6560701b604482015260640161062e565b60015b600b5481116113a4576000601482815481106113465761134661256c565b90600052602060002090600202016001015490506013818154811061136d5761136d61256c565b60009182526020822060026003909202010180549161138b83612598565b919050555050808061139c90612598565b915050611328565b50565b601281815481106109e057600080fd5b604080518082019091526000808252602082015260008061141e6113da85611438565b6000805160206126638339815191526000805160206126a38339815191526003600160601b0363ffffffff60c01b0319600160601b63ffffffff60c01b0319611553565b604080518082019091529182526020820152949350505050565b60006000805160206126838339815191528260405160200161145c91815260200190565b6040516020818303038152906040528051906020012060001c61147f9190612604565b92915050565b60408051808201909152600080825260208201526000806114c88487876003600160601b0363ffffffff60c01b0319600160601b63ffffffff60c01b0319611553565b6040805180820190915291825260208201529695505050505050565b604080518082019091526000808252602082015260008061153885600001518660200151866000015187602001516003600160601b0363ffffffff60c01b0319600160601b63ffffffff60c01b031961158d565b60408051808201909152918252602082015295945050505050565b600080600080600061156a8a8a8a60018b8b611613565b92509250925061157c83838389611691565b945094505050509550959350505050565b6000806000806000888b14156115db5785806115ab576115ab6125ee565b888b086115c15760008094509450505050611608565b6115cf8b8b60018a8a611700565b919450925090506115f4565b6115ec8b8b60018c8c60018c61189f565b919450925090505b61160083838389611691565b945094505050505b965096945050505050565b6000808088611629575086915085905084611685565b8860008060015b831561167c5760018416156116565761164e8383838f8f8f8e61189f565b919450925090505b611661600285612618565b93506116708c8c8c8c8c611700565b919d509b509950611630565b91955093509150505b96509650969350505050565b60008060006116a08585611bd2565b9050600084806116b2576116b26125ee565b8283099050600085806116c7576116c76125ee565b828a099050600086806116dc576116dc6125ee565b87806116ea576116ea6125ee565b8486098a09919a91995090975050505050505050565b6000808085611716575086915085905084611894565b60008480611726576117266125ee565b898a0990506000858061173b5761173b6125ee565b898a09905060008680611750576117506125ee565b898a09905060008780611765576117656125ee565b8880611773576117736125ee565b848e0960040990506000888061178b5761178b6125ee565b8980611799576117996125ee565b8a806117a7576117a76125ee565b8586098c098a806117ba576117ba6125ee565b8760030908905088806117cf576117cf6125ee565b89806117dd576117dd6125ee565b8384086117ea908b61262c565b8a806117f8576117f86125ee565b838409089450888061180c5761180c6125ee565b898061181a5761181a6125ee565b8a80611828576118286125ee565b868709600809611838908b61262c565b8a80611846576118466125ee565b8b80611854576118546125ee565b61185e898e61262c565b860884090893508880611873576118736125ee565b8980611881576118816125ee565b8c8e096002099497509295509293505050505b955095509592505050565b60008080891580156118af575088155b156118c1575085915084905083611bc5565b861580156118cd575085155b156118df575088915087905086611bc5565b6118e7611e24565b84806118f5576118f56125ee565b898a0981528480611908576119086125ee565b81518a096020820152848061191f5761191f6125ee565b86870960408201528480611935576119356125ee565b604082015187096060820152604080516080810190915280868061195b5761195b6125ee565b60408401518e0981526020018680611975576119756125ee565b60608401518d098152602001868061198f5761198f6125ee565b83518b09815260200186806119a6576119a66125ee565b60208401518a099052604081015181519192501415806119ce57506060810151602082015114155b611a1a5760405162461bcd60e51b815260206004820152601e60248201527f557365206a6163446f75626c652066756e6374696f6e20696e73746561640000604482015260640161062e565b611a22611e24565b8580611a3057611a306125ee565b8251611a3c908861262c565b60408401510881528580611a5257611a526125ee565b6020830151611a61908861262c565b60608401510860208201528580611a7a57611a7a6125ee565b8151800960408201528580611a9157611a916125ee565b8151604083015109606082015260008680611aae57611aae6125ee565b6060830151611abd908961262c565b8880611acb57611acb6125ee565b602085015180090890508680611ae357611ae36125ee565b8780611af157611af16125ee565b8880611aff57611aff6125ee565b6040850151865109600209611b14908961262c565b8208905060008780611b2857611b286125ee565b8880611b3657611b366125ee565b611b40848b61262c565b8a80611b4e57611b4e6125ee565b60408701518851090860208501510990508780611b6d57611b6d6125ee565b8880611b7b57611b7b6125ee565b6060850151602087015109611b90908a61262c565b8208905060008880611ba457611ba46125ee565b8980611bb257611bb26125ee565b8b8f098551099297509095509093505050505b9750975097945050505050565b60008215801590611be35750818314155b8015611bee57508115155b611c2b5760405162461bcd60e51b815260206004820152600e60248201526d24b73b30b634b210373ab6b132b960911b604482015260640161062e565b6000600183825b8615611c9357611c428783612618565b9050828680611c5357611c536125ee565b8780611c6157611c616125ee565b858409611c6e908961262c565b8608909450925086611c808183612643565b611c8a908461262c565b97509150611c32565b509195945050505050565b828054611caa906125b3565b90600052602060002090601f016020900481019282611ccc5760008555611d12565b82601f10611ce557805160ff1916838001178555611d12565b82800160010185558215611d12579182015b82811115611d12578251825591602001919060010190611cf7565b50611d1e929150611e42565b5090565b6040518061022001604052806000815260200160006001600160a01b0316815260200160608152602001606081526020016060815260200160608152602001600081526020016000815260200160608152602001600081526020016000815260200160008152602001600081526020016000815260200160001515815260200160008152602001611dc6604051806040016040528060008152602001600081525090565b905290565b828054828255906000526020600020908101928215611e18579160200282015b82811115611e185782518051611e08918491602090910190611c9e565b5091602001919060010190611deb565b50611d1e929150611e57565b60405180608001604052806004906020820280368337509192915050565b5b80821115611d1e5760008155600101611e43565b80821115611d1e576000611e6b8282611e74565b50600101611e57565b508054611e80906125b3565b6000825580601f10611e90575050565b601f0160209004906000526020600020908101906113a49190611e42565b634e487b7160e01b600052604160045260246000fd5b604051601f8201601f191681016001600160401b0381118282101715611eec57611eec611eae565b604052919050565b60006001600160401b03821115611f0d57611f0d611eae565b5060051b60200190565b600082601f830112611f2857600080fd5b81356001600160401b03811115611f4157611f41611eae565b611f54601f8201601f1916602001611ec4565b818152846020838601011115611f6957600080fd5b816020850160208301376000918101602001919091529392505050565b60006020808385031215611f9957600080fd5b82356001600160401b0380821115611fb057600080fd5b818501915085601f830112611fc457600080fd5b8135611fd7611fd282611ef4565b611ec4565b81815260059190911b83018401908481019088831115611ff657600080fd5b8585015b8381101561202e578035858111156120125760008081fd5b6120208b89838a0101611f17565b845250918601918601611ffa565b5098975050505050505050565b60006020828403121561204d57600080fd5b5035919050565b6000815180845260005b8181101561207a5760208185018101518683018201520161205e565b8181111561208c576000602083870101525b50601f01601f19169290920160200192915050565b8381526060602082015260006120ba6060830185612054565b9050826040830152949350505050565b6020815260006120dd6020830184612054565b9392505050565b600082601f8301126120f557600080fd5b81356020612105611fd283611ef4565b82815260059290921b8401810191818101908684111561212457600080fd5b8286015b8481101561213f5780358352918301918301612128565b509695505050505050565b6000806040838503121561215d57600080fd5b82356001600160401b038082111561217457600080fd5b612180868387016120e4565b9350602085013591508082111561219657600080fd5b506121a3858286016120e4565b9150509250929050565b600081518084526020808501808196508360051b8101915082860160005b858110156121f55782840389526121e3848351612054565b988501989350908401906001016121cb565b5091979650505050505050565b600081518084526020808501945080840160005b838110156122465761223387835180518252602090810151910152565b6040969096019590820190600101612216565b509495945050505050565b600081518084526020808501808196508360051b8101915082860160005b858110156121f5578284038952815160608151865286820151818888015261229982880182612054565b6040938401519790930196909652509885019893509084019060010161226f565b6020815281516020820152600060208301516122e160408401826001600160a01b03169052565b50604083015161024060608401526122fd610260840182612054565b90506060840151601f198085840301608086015261231b8383612054565b925060808601519150808584030160a086015261233883836121ad565b925060a08601519150808584030160c08601526123558383612202565b925060c086015160e086015260e0860151915061010082818701528087015192505061012081868503018187015261238d8484612251565b908701516101408781019190915287015161016080880191909152870151610180808801919091528701516101a0808801919091528701516101c08088019190915287015190935091506101e090506123e98186018315159052565b85015161020085810191909152850151805161022086015260208101516102408601529050509392505050565b60006020828403121561242857600080fd5b81356001600160401b0381111561243e57600080fd5b61244a84828501611f17565b949350505050565b60006040828403121561246457600080fd5b604051604081018181106001600160401b038211171561248657612486611eae565b604052823581526020928301359281019290925250919050565b600080600080600060c086880312156124b857600080fd5b85359450602086013593506040860135925060608601356001600160401b038111156124e357600080fd5b6124ef888289016120e4565b9250506124ff8760808801612452565b90509295509295909350565b60008060008060a0858703121561252157600080fd5b843593506020850135925060408501356001600160401b0381111561254557600080fd5b612551878288016120e4565b9250506125618660608701612452565b905092959194509250565b634e487b7160e01b600052603260045260246000fd5b634e487b7160e01b600052601160045260246000fd5b60006000198214156125ac576125ac612582565b5060010190565b600181811c908216806125c757607f821691505b602082108114156125e857634e487b7160e01b600052602260045260246000fd5b50919050565b634e487b7160e01b600052601260045260246000fd5b600082612613576126136125ee565b500690565b600082612627576126276125ee565b500490565b60008282101561263e5761263e612582565b500390565b600081600019048311821515161561265d5761265d612582565b50029056fe6b17d1f2e12c4247f8bce6e563a440f277037d812deb33a0f4a13945d898c296ffffffff00000000ffffffffffffffffbce6faada7179e84f3b9cac2fc6325514fe342e2fe1a7f9b8ee7eb4a7c0f9e162bce33576b315ececbb6406837bf51f5a26469706673582212200d8e5c000319da09a0edc0fc90fc3b26d376de88fbe23e03deb1ce93b3d1fbda64736f6c634300080a0033a2646970667358221220c702b428e2d7d01a156ed3559f89f604f082f1926aca91fe89fb7a5efaa9214364736f6c634300080a0033",
  "immutableReferences": {},
  "source": "// SPDX-License-Identifier: MIT\r\npragma solidity >=0.4.22 <0.9.0;\r\n\r\nimport \"./Election.sol\";\r\n\r\ncontract VotingApp{\r\n    // Store Elections \r\n    Election[] private electionAddresses;\r\n\r\n    // Store election count;\r\n    uint public electionCount;\r\n    \r\n    // add Election Event\r\n    event addElectionEvent(Election.ElectionData eData);\r\n\r\n    // Model a election init data require data sent by onwer\r\n    struct ElectionInit{\r\n        string title;\r\n        string description;\r\n        string[] public_keys;\r\n        uint[] EC_public_key_Xs;\r\n        uint[] EC_public_key_Ys;\r\n        string[] candidates;\r\n        uint key_gen_time;\r\n        uint vote_time;\r\n        uint secret_upload_time;\r\n        uint key_gen_time_unit;\r\n        uint vote_time_unit;\r\n        uint secret_upload_time_unit;\r\n        uint min_shares;\r\n    }\r\n\r\n    function calc_time(uint _time, uint _time_unit) private pure returns(uint t){\r\n        if(_time_unit == 0){\r\n            t = _time * 1 minutes;\r\n        }\r\n        if(_time_unit == 1){\r\n            t = _time * 1 hours;\r\n        }\r\n        if(_time_unit == 2){\r\n            t = _time * 1 days;\r\n        }\r\n        return t;\r\n    }\r\n\r\n    function addElection(ElectionInit memory _data) public{\r\n        \r\n        // require minimum number of candidates and voters are 2\r\n        require(_data.candidates.length > 1 && _data.public_keys.length > 1,\"require minimum number of candidates and voters are 2\");\r\n\r\n        uint _post_time = block.timestamp;\r\n        uint _key_gen_end_time = _post_time + calc_time(_data.key_gen_time,_data.key_gen_time_unit); \r\n        uint _vote_end_time = _key_gen_end_time + calc_time(_data.vote_time,_data.vote_time_unit); \r\n        uint _secret_upload_end_time = _vote_end_time + calc_time(_data.secret_upload_time,_data.secret_upload_time_unit); \r\n        \r\n        electionAddresses.push(new Election(msg.sender,electionCount,\r\n        _post_time,_key_gen_end_time,_vote_end_time,_secret_upload_end_time));\r\n\r\n        Election e = Election(electionAddresses[electionCount]);\r\n        e.setTitle(_data.title);\r\n        e.setDescription(_data.description);\r\n        e.setPublicKeys(_data.public_keys);\r\n        e.setECpublickeys(_data.EC_public_key_Xs,_data.EC_public_key_Ys);\r\n        e.setCandidates(_data.candidates);\r\n        e.setMinShares(_data.min_shares);\r\n\r\n        electionCount++;\r\n\r\n        emit addElectionEvent(e.getElectionData());\r\n    }\r\n\r\n    function getElectionAddresses() public view returns (Election[] memory){\r\n        return electionAddresses;\r\n    }\r\n\r\n    function verfiyLRS(uint electionID,uint256 _message, \r\n    uint256 _U0,uint256[] memory _V,Election.ECPoint memory _K) \r\n    public view returns(uint256 U){\r\n        Election e = Election(electionAddresses[electionID]);\r\n        return e.verfiyLRS(_message,_U0,_V,_K);\r\n    }\r\n\r\n    function vote(uint electionID, uint candidateID,uint256 _message, uint256 _U0,uint256[] memory _V,Election.ECPoint memory _K) public{\r\n        Election e = Election(electionAddresses[electionID]);\r\n        e.addVote(candidateID,_message, _U0, _V, _K);\r\n    } \r\n\r\n    function getElectionData(address electionAddress) public view returns (Election.ElectionData memory){\r\n        Election e = Election(electionAddress);\r\n        return e.getElectionData();\r\n    }\r\n\r\n}",
  "sourcePath": "C:\\Users\\tim\\Desktop\\e-voting\\src\\contracts\\VotingApp.sol",
  "compiler": {
    "name": "solc",
    "version": "0.8.10+commit.fc410830.Emscripten.clang"
  },
  "schemaVersion": "3.4.4",
  "updatedAt": "2022-01-12T14:13:57.448Z",
  "networkType": "ethereum",
  "devdoc": {
    "kind": "dev",
    "methods": {},
    "version": 1
  },
  "userdoc": {
    "kind": "user",
    "methods": {},
    "version": 1
  }
}